:020000040000fa
:020000040040ba
:10000000f0ff44202d214000fd284000032940003e
:100010000f294000152940001b2940000000000066
:100020000000000000000000000000004b1f400026
:1000300009294000000000004b1f40004b1f4000fa
:100040004b1f40004b1f40004b1f40004b1f400008
:100050004b1f40004b1f40004b1f40004b1f4000f8
:100060004b1f4000000000004b1f40004b1f400092
:100070004b1f40004b1f40004b1f40004b1f4000d8
:100080004b1f40004b1f40004b1f40004b1f4000c8
:100090004b1f40004b1f40004b1f40004b1f4000b8
:1000a0004b1f40004b1f40004b1f40004b1f4000a8
:1000b0004b1f40004b1f40004b1f40004b1f400098
:1000c0004b1f40004b1f40004b1f40004b1f400088
:1000d0004b1f40004b1f40004b1f40004b1f400078
:1000e0004b1f40004b1f40004b1f40004b1f400068
:1000f0004b1f40004b1f40004b1f40004b1f400058
:100100004b1f40004b1f40004b1f40004b1f400047
:100110004b1f400000000000000000000000000035
:100120004b1f40004b1f40004b1f40004b1f400027
:100130004b1f40004b1f4000000000004b1f4000c1
:100140004b1f40004b1f40004b1f40004b1f400007
:100150004b1f40004b1f40004b1f40004b1f4000f7
:080160004b1f40004b1f400043
:020000040000fa
:020000040040ba
:10016800f8b500bff8bc08bc9e467047992340000c
:10017800f8b500bff8bc08bc9e4670477523400020
:020000040000fa
:020000040040ba
:080188008c12000001000000d0
:020000040000fa
:020000040040ba
:100190005468652041524d206172636869746563db
:1001a0007475726520697320646566696e65642084
:1001b000696e206120686965726172636869636154
:1001c0006c206d616e6e65722c207768657265209b
:1001d0007468652066656174757265732061726507
:1001e0002064657363726962656420696e20436888
:1001f0006170746572204132202020202020202050
:1002000020202020202020202020202020202041cd
:1002100070706c69636174696f6e204c6576656c93
:100220002050726f6772616d6d6572733f4d6f64c0
:10023000656c20617420746865206170706c6963fe
:100240006174696f6e206c6576656c2c20776974bb
:100250006820756e6465726c79696e672073797356
:1002600074656d20737570706f72742e205768619d
:10027000742020202020202020202020202020202a
:10028000202020202020202066656174757265730f
:100290002061726520617661696c61626c652061c4
:1002a0006e6420686f7720746865792061726520bc
:1002b000737570706f72746564206973206465660d
:1002c000696e656420696e20746865206172636878
:1002d00069746563747572652070726f66696c65a8
:1002e000732c206d616b696e67207468652073796b
:1002f0007374656d202020202020202020202020c5
:1003000020202020202020202020206c6576656c75
:1003100020737570706f72742070726f66696c658f
:100320002073706563696669632e20446570726529
:1003300063617465642066656174757265732063ba
:10034000616e20626520666f756e6420696e206143
:100350006e20617070656e64697820746f207468b7
:100360006973206d616e75616c2e20536565202068
:10037000202020202020202020202020202020207d
:100380002020202020706167652041707078442d06
:10039000312e20202020202020202020202020203e
:1003a000202020202020202020417320737461749d
:1003b000656420696e2050726976696c6567656452
:1003c00020657865637574696f6e206f6e2070614b
:1003d00067652041322d31332c2070726f67726156
:1003e0006d732063616e206578656375746520693f
:1003f0006e20612070726976696c65676564206f34
:100400007220756e70726976696c6567656420200c
:1004100020202020202020202020202020202020dc
:1004200020202020206d616e6e65722e205379731e
:1004300074656d206c6576656c20737570706f7275
:10044000742072657175697265732070726976695e
:100450006c65676564206163636573732c20616cf0
:100460006c6f77696e6720697420746865206163ba
:1004700063657373207065726d697373696f6e73f2
:1004800020746f20636f6e66696775726520616e98
:100490006420202020202020202020202020202018
:1004a0002020202020202020636f6e74726f6c202b
:1004b000746865207265736f75726365732e20545e
:1004c000686973206973207479706963616c6c79f1
:1004d00020737570706f7274656420627920616e2c
:1004e000206f7065726174696e67207379737465cb
:1004f0006d2c2077686963682070726f7669646517
:10050000732073797374656d2073657276696365a2
:100510007320202020202020202020202020202088
:100520002020202020202020746f20746865206106
:1005300070706c69636174696f6e732c2065697487
:10054000686572207472616e73706172656e746c2e
:10055000792c206f72207468726f756768206170e3
:10056000706c69636174696f6e20696e697469612a
:1005700074656420736572766963652063616c6c71
:10058000732e20546865206f7065726174696e67a0
:100590002073797374656d20202020202020202076
:1005a00020202020202020202020202020206973af
:1005b00020616c736f20726573706f6e7369626c0b
:1005c0006520666f7220736572766963696e672055
:1005d000696e746572727570747320616e64206fd9
:1005e000746865722073797374656d206576656ec5
:1005f00074732c206d616b696e672065786365701c
:1006000074696f6e732061206b657920636f6d7004
:100610006f6e656e74206f662020202020202020c1
:100620002020202020202020202020202020207476
:1006300068652073797374656d206c6576656c20d0
:1006400070726f6772616d6d6572733f6d6f646517
:100650006c2e00000a0d2d2d2d2d2d2d2d2d2d2d27
:100660002d2d2d2d2d2d2d2d2d2d2d2d2d2d2d2dba
:100670002d2d2d2d2d2d2d2d2d2d2d2d2d2d2d2daa
:100680002d2d2d2d2d2d2d2d2d2d2d2d2d2d2d00c7
:100690000a0d202020202020202020202020202083
:1006a00020202054434d20506572666f726d616e3c
:1006b00063652044656d6f202020202020202020ad
:1006c0002020202020202020202020000a0d2d2d59
:1006d0002d2d2d2d2d2d2d2d2d2d2d2d2d2d2d2d4a
:1006e0002d2d2d2d2d2d2d2d2d2d2d2d2d2d2d2d3a
:1006f0002d2d2d2d2d2d2d2d2d2d2d2d2d2d2d2d2a
:100700002d2d2d2d2d2d2d0a0d0000bf0a0d0a0daa
:100710002044697361626c656420496e73747275fc
:100720006374696f6e2026204461746120436163a5
:100730006865200a0d0a0d0020436f64652f42751d
:1007400066666572202d204379636c65730000bf77
:100750000a0d20466c6173682f5352414d202d20a5
:10076000000000bf20256c64200000bf0a0d204659
:100770006c6173682f4454434d202d20000000bf4e
:100780000a0d205352414d2f5352414d20202d2010
:10079000000000bf0a0d205352414d2f4454434dd9
:1007a00020202d20000000bf0a0d204954434d2f6a
:1007b0005352414d20202d20000000bf0a0d20493a
:1007c00054434d2f4454434d20202d20000000bfa2
:1007d0000a0d0a0d20456e61626c656420496e73d6
:1007e0007472756374696f6e204361636865200a73
:1007f0000d0a0d000a0d0a0d20456e61626c6564dc
:1008000020496e737472756374696f6e202620447c
:10081000617461204361636865200a0d0a0d000060
:020000040000fa
:020000040040ba
:10082000582440201c0000000000000088244020c4
:1008300008000000000000004426402004000000e2
:100840000100000090014000000000200020000096
:100850000000000000004020002000000000000018
:10086000a0244020b80000000100000080b487b040
:1008700000aff860b9601346fb8000237b6107e09e
:10088000ba687b69134400221a707b6901337b616b
:10089000fb887a699a42f3d300237b6107e0fa6808
:1008a0007b69134400221a707b6901337b61fb88ea
:1008b0007a699a42f3d300237b610be0184b1a68e4
:1008c0007b691a44b9687b690b4412781a707b699a
:1008d00001337b61fb887a699a42efd3bff34f8f74
:1008e000bff36f8fbff35f8f00237b610ae0ba68ad
:1008f0007b691a44f9687b690b4412781a707b692a
:1009000001337b61fb887a699a42f0d3bff34f8f42
:10091000bff36f8f00bf1c37bd465df8047b704787
:1009200044264020902440200400000000000000e5
:1009300008244020500000000000000058254020fe
:100940006c0000000100000064254020602540206c
:100950006425402000000000250000000820402001
:100960000004000000000000000000000000000083
:100970000000000000000000000000000000000077
:10098000000000003d2940000000000000000000c1
:100990000000000000000000b51f40000000000043
:1009a0000000000000000000000000000000000047
:1009b00000000000002040200804000000000000ab
:1009c000242640202000000001000000010000005b
:1009d0000300000000000000000000000000000014
:1009e00000000000000000008024402080244020ff
:1009f00008000000000000009424402008000000cf
:100a000000000000c425402060000000010000003c
:100a100001000000030000000000000000000000d2
:100a2000000000000000000000000000d120400095
:100a3000000000000000000000000000212940002c
:100a400049294000000000000000000000000000f4
:100a50000000000000000000000000000000000096
:100a60000000000000000000000000000000000086
:100a700048264020040000000100000001000000a2
:100a80009c2440200400000000000000742440204a
:100a90000c000000000000000000000068010000e1
:100aa00001000000f0ff44202d214000fd284000ff
:100ab000032940000f294000152940001b29400050
:100ac0000000000000000000000000000000000026
:100ad0004b1f400009294000000000004b1f400050
:100ae0004b1f40004b1f40004b1f40004b1f40005e
:100af0004b1f40004b1f40004b1f40004b1f40004e
:100b00004b1f40004b1f4000000000004b1f4000e7
:100b10004b1f40004b1f40004b1f40004b1f40002d
:100b20004b1f40004b1f40004b1f40004b1f40001d
:100b30004b1f40004b1f40004b1f40004b1f40000d
:100b40004b1f40004b1f40004b1f40004b1f4000fd
:100b50004b1f40004b1f40004b1f40004b1f4000ed
:100b60004b1f40004b1f40004b1f40004b1f4000dd
:100b70004b1f40004b1f40004b1f40004b1f4000cd
:100b80004b1f40004b1f40004b1f40004b1f4000bd
:100b90004b1f40004b1f40004b1f40004b1f4000ad
:100ba0004b1f40004b1f40004b1f40004b1f40009d
:100bb0004b1f40004b1f40000000000000000000e1
:100bc000000000004b1f40004b1f40004b1f400027
:100bd0004b1f40004b1f40004b1f40000000000017
:100be0004b1f40004b1f40004b1f40004b1f40005d
:100bf0004b1f40004b1f40004b1f40004b1f40004d
:100c00004b1f40004b1f40004b1f4000680100007d
:100c1000b80000000100000080b487b000aff860a9
:100c2000b9601346fb8000237b6107e0ba687b69eb
:100c3000134400221a707b6901337b61fb887a6957
:100c40009a42f3d300237b6107e0fa687b6913447f
:100c500000221a707b6901337b61fb887a699a42b2
:100c6000f3d300237b610be0184b1a687b691a44ad
:100c7000b9687b690b4412781a707b6901337b6118
:100c8000fb887a699a42efd3bff34f8fbff36f8f20
:100c9000bff35f8f00237b610ae0ba687b691a4467
:100ca000f9687b690b4412781a707b6901337b61a8
:100cb000fb887a699a42f0d3bff34f8fbff36f8fef
:100cc00000bf1c37bd465df8047b704744264020ba
:100cd00000000000000000006666666666666666e4
:020000040000fa
:020000040040ba
:100ce00080b584b000af002001f022fbaa4801f0db
:100cf000f7fcaa4801f0f4fca94801f0f1fca94b6b
:100d00004ff08072da60bff34f8fa74ba74ac3f84a
:100d1000b02fbff34f8fa64801f0e2fca54801f0c9
:100d2000dffca54801f0dcfc01f044fd4ff48052eb
:100d3000a249a34800f0acfd01f048fd0346194666
:100d4000a04801f0cdfca04801f0cafc01f032fd42
:100d50004ff480529d499e4800f09afd01f036fd07
:100d600003461946974801f0bbfc9a4801f0b8fccd
:100d700001f020fd4ff4805290499148964b9847de
:100d800001f024fd034619468e4801f0a9fc934862
:100d900001f0a6fc01f00efd4ff480528b498c4807
:100da0008d4b984701f012fd03461946854801f026
:100db00097fc8b4801f094fc01f0fcfc4ff480524e
:100dc0007e497f48fff7d0f101f000fd0346194648
:100dd0007c4801f085fc834801f082fc01f0eafccc
:100de0004ff4805279497a48fff7bef101f0eefcea
:100df00003461946734801f073fc7b4801f070fc10
:100e00007a4b5b6903f40033002b16d1bff34f8f8d
:100e1000bff36f8f754b0022c3f85022bff34f8f83
:100e2000bff36f8f714b5b69704a43f400335361ba
:100e3000bff34f8fbff36f8f00e000bf5d4801f03d
:100e40004ffc5d4801f04cfc01f0b4fc4ff48052c3
:100e50005a495b4800f01cfd01f0b8fc03461946f6
:100e6000584801f03dfc584801f03afc01f0a2fc62
:100e70004ff480525549564800f00afd01f0a6fc97
:100e8000034619464f4801f02bfc524801f028fc5c
:100e900001f090fc4ff48052484949484e4b984726
:100ea00001f094fc03461946464801f019fc4b48f2
:100eb00001f016fc01f07efc4ff480524349444897
:100ec000454b984701f082fc034619463d4801f026
:100ed00007fc434801f004fc01f06cfc4ff4805225
:100ee00036493748fff740f101f070fc03461946d8
:100ef000344801f0f5fb3b4801f0f2fb01f05afced
:100f00004ff4805231493248fff72ef101f05efc78
:100f1000034619462b4801f0e3fb354801f0e0fb9e
:100f2000324b5b6903f48033002b63d12f4b0022db
:100f3000c3f88420bff34f8f2c4bd3f88030fb6075
:100f4000fb685b0bc3f30e03bb60fb68db08c3f3fa
:100f500009037b60bb685a0143f6e07313407a686b
:100f6000920722491343c1f860327b685a1e7a60a7
:100f7000002befd1bb685a1eba60002be5d1bff33e
:100f80004f8f1a4b5b69194a43f480335361bff3a7
:100f90004f8fbff36f8f2ee0540640009006400045
:100fa000cc064000f0ed00e0001000e055ceacc5ee
:100fb0000c07400038074000500740000000402068
:100fc00000104020640740006c0740000000002033
:100fd0000010002080074000a1244020940740001a
:100fe000a8074000bc074000d007400000ed00e02b
:100ff000f407400000bf384801f072fb374801f0a9
:101000006ffb01f0d7fb4ff480523549354800f0b3
:101010003ffc01f0dbfb03461946334801f060fb5f
:10102000324801f05dfb01f0c5fb4ff480523049be
:10103000304800f02dfc01f0c9fb034619462a4850
:1010400001f04efb2c4801f04bfb01f0b3fb4ff4d9
:10105000805223492348294b984701f0b7fb0346a8
:101060001946214801f03cfb254801f039fb01f00d
:10107000a1fb4ff480521e491e48204b984701f0b7
:10108000a5fb03461946184801f02afb1d4801f04c
:1010900027fb01f08ffb4ff4805211491148fff7f5
:1010a00063f001f093fb034619460f4801f018fb6b
:1010b000154801f015fb01f07dfb4ff480520c49ff
:1010c0000c48fff751f001f081fb03461946064832
:1010d00001f006fbfee700bf380740005007400064
:1010e0000000402000104020640740006c074000d2
:1010f000000000200010002080074000a1244020b4
:0c11000094074000a8074000bc07400016
:020000040000fa
:020000040040ba
:10110c002de9f041aeb0064615460591002705992c
:10111c000b78002b00f0fa8000244ff0ff33cde960
:10112c0009430eab0c9380230b940d930b5d0bb109
:10113c00252b26d134b12246304601f073f9059b9c
:10114c0023440593059b1a78252a40f0d78003f198
:10115c000108cdf81480059803782b2b1ad025d8cc
:10116c00202b1bd0232b1dd02a2b27d001f0b7f816
:10117c000b90059b1a78303a092a2ed80133059327
:10118c00f7e70134d2e7099b43f0010301300993df
:10119c000590e0e7099b43f00403f7e7099b43f054
:1011ac000803f3e7099b43f01003efe72d2bead07c
:1011bc00302bd9d1099b43f00203e7e72b681a1daa
:1011cc001b682a600130002b05900b9305da099af5
:1011dc005b4282f0010209920b93099bda0744bf30
:1011ec0023f002030993059b1a782e2a0dd10022b5
:1011fc00581c0a9205905a782a2a25d10233059355
:10120c002b681a1d1b682a600a9305a801f0ecf8dc
:10121c00059b0390187801f05cfb6928039979d041
:10122c0032dc632800f0cb8019dc252800f0d98053
:10123c00612853d000234ff0ff32cdf8148009936e
:10124c000b930a920093d4e001f049f80a90059ba5
:10125c001a78303a092ad8d801330593f7e764286d
:10126c0058d06728e6dc2a4606a801f0b9f9002810
:10127c0000f0a180059b5a1c05921b7806aa09a9af
:10128c00304601f051fb38e0702873d015dc6e2825
:10129c0000f08c806f28cdd12b46002206a800f0e0
:1012ac004ffb002800f08780059b06aa013309a993
:1012bc003046059301f036fb1fe075283ad07828ac
:1012cc0048d07328b6d1802975d1059b2a68013383
:1012dc000593131d2b60126800237de02a4606a897
:1012ec0001f07ef9002866d0059b5a1c05921b78ec
:1012fc0006aa09a9304601f017fb04443c44a74256
:10130c007add3e4b4f221a604ff0ff3738462eb035
:10131c00bde8f0812b46012206a800f011fb002845
:10132c0049d0059b06aa013309a93046059300f064
:10133c00b1fbe2e72b46002206a800f001fb0028d7
:10134c0039d0059b06aa013309a93046059301f053
:10135c00e9fad2e72b46002206a800f0f1fa50b3c6
:10136c00059b5a1c05921b7806aa09a9304601f068
:10137c00dbfac2e72b460022f02106a800f0e0fac7
:10138c00c8b1059b01330593dde9062313430bd14b
:10139c001b4801f039fa099b009319490b9b024633
:1013ac00304600f053fca8e77823dde72b463a19ca
:1013bc0006a800f00ffd059b013305939ee78029dd
:1013cc00f9d1059b013305932b681a1d1b682a6004
:1013dc008df8183006aa012309a9304601f0a6faa7
:1013ec008be78029e7d1059b01330593099b00937b
:1013fc000b9b04490122d3e7274688e6982440201a
:08140c00ec284000f22840002a
:020000040000fa
:020000040040ba
:101414002de9f04f099f154604468e461e46002bc3
:1014240040f0cc808a42b2fa82fc4cd9bcf1000f65
:101434000bd0ccf1200801fa0cfe20fa08f802facd
:101444000cf548ea0e0e00fa0cf44fea15491ffa9f
:1014540085f8befbf9fa210c09fb1ae30afb08fb29
:1014640041ea03439b452ad9eb180af1ff3004d221
:101474009b4502d9aaf102002b44a3eb0b03a4b2af
:10148400b3fbf9f209fb123302fb08f844ea034404
:10149400a04516d92c1902f1ff3303d2a04501d976
:1014a400931e2c44a4eb080443ea004027b124fa19
:1014b4000cf400233c607b603146bde8f08f50465d
:1014c400dbe71346eee702b9ffdebcf1000f2ed1d5
:1014d4008b1a01264fea154eaab2b3fbfef8210c73
:1014e4000efb183308fb02f941ea0343994561d91d
:1014f400eb1808f1ff3004d2994502d9a8f1020093
:101504002b44a3eb0903a4b2b3fbfef10efb11338e
:101514004a4344ea0344a2424ed92c1901f1ff3351
:1015240003d2a24201d98b1e2c44a41abce7ccf1ed
:10153400200e02fa0cf521fa0ef901fa0cf320fa46
:101544000efe4eea03034fea154800fa0cf4b9fb09
:10155400f8f11ffa85fe08fb1192180c01fb0ef638
:1015640040ea0242964221d9aa1801f1ff3003d27f
:10157400964201d9881e2a44921b9bb2b2fbf8f909
:1015840008fb192209fb0efe43ea02439e450fd9cc
:10159400eb1809f1ff3604d29e4502d9a9f10206df
:1015a4002b44a3eb0e0346ea004693e70846e3e721
:1015b4004e46f6e74046a4e70b46b6e78b4206d90b
:1015c400002f7ed00026c7e90001304674e7b3fa45
:1015d40083fcbcf1000f0fd18b4201d3824209d8a6
:1015e400841a61eb030e0120002f6dd0c7e9004e71
:1015f400002661e76046f7e7ccf1200e03fa0cf30e
:1016040022fa0ef521fa0ef41d4301fa0cf320fa26
:101614000ef10b434fea154a00fa0cf6b4fbfaf943
:101624001ffa85f80afb19401c0c09fb08f144ea6f
:101634000044a14202fa0cf23fd92c1909f1ff30ff
:1016440004d2a14202d9a9f102002c44641a9bb22b
:10165400b4fbfaf90afb194409fb08f843ea04410c
:1016640088452cd9691809f1ff3304d2884502d979
:10167400a9f10203294443ea0040a1eb0801a0fbbd
:1016840002894945c2464c4602d306d1464504d296
:10169400b8eb020a69eb05040138afb1b6eb0a03f3
:1016a40061eb040606fa0efe23fa0cf34eea03037a
:1016b40026fa0cf6c7e900369ae74846c6e74b46d1
:0c16c400d9e73e463846f7e63e46f5e61c
:020000040000fa
:020000040040ba
:1016d00080b400af684b0022c3f81421664bd3f8e6
:1016e0001431654a43f01003c2f81431634b4ff4d0
:1016f00000125a60614b6ff400121a605f4b4ff09a
:10170000ff325a655d4b4ff0ff321a665b4b4ff06c
:10171000ff32c3f89020594b4ff0ff32c3f8a0209e
:10172000564b00221a61554b4ff0ff325a61534b12
:1017300000229a63514b0022c3f81821504b10220b
:101740001a674f4b10225a674d4b10225a604c4b70
:101750006ff010021a604a4b4ff0ff325a65484b47
:101760004ff0ff321a66464b4ff0ff32c3f890201d
:10177000434b4ff0ff32c3f8a020414b00221a61c7
:101780003f4b4ff0ff325a613d4b00229a633c4b76
:101790000022c3f818213b4b4ff0ff321a60394b3f
:1017a0004ff0ff325a65374b4ff0ff321a66354b18
:1017b0004ff0ff32c3f89020324b4ff0ff32c3f8a6
:1017c000a020304b00221a612e4b4ff0ff325a619d
:1017d0002c4b00229a632b4b0022c3f818212a4b72
:1017e0004ff0ff321a60284b4ff0ff325a65264bfc
:1017f0004ff0ff321a66244b4ff0ff32c3f89020af
:10180000214b4ff0ff32c3f8a0201f4b00221a617a
:101810001d4b4ff0ff325a611b4b00229a631a4b4b
:101820000022c3f81821194b4ff0ff321a60174bf2
:101830004ff0ff325a65154b4ff0ff321a66134bcb
:101840004ff0ff32c3f89020104b4ff0ff32c3f837
:10185000a0200e4b00221a610c4b4ff0ff325a6150
:101860000a4b00229a63094b0022c3f8182100bfdb
:10187000bd465df8047b704700800840000e0e40b6
:1018800000100e4000120e4000140e4000160e40d4
:020000040000fa
:020000040040ba
:1018900080b487b000aff860b9601346fb8000bf2a
:1018a00000237b6107e0ba687b69134400221a7049
:1018b0007b6901337b61fb887a699a42f3d3002309
:1018c0007b6107e0fa687b69134400221a707b6928
:1018d00001337b61fb887a699a42f3d300237b61f1
:1018e0000be0194b1a687b691a44b9687b690b4491
:1018f00012781a707b6901337b61fb887a699a429e
:10190000efd3bff34f8fbff36f8fbff35f8f002312
:101910007b610ae0ba687b691a44f9687b690b4409
:1019200012781a707b6901337b61fb887a699a426d
:10193000f0d3bff34f8fbff36f8f00bf1c37bd468f
:0c1940005df8047b704700bf4426402087
:020000040000fa
:020000040040ba
:10194c00882910b536d012dc812943d003dc8029dc
:10195c0040d0002010bd82290ed08429f9d11968fd
:10196c0002b30a1d1a60b1f90020d3171ee0a0299a
:10197c002bd00bdc9029ecd11968073121f0070131
:10198c0001f108021a60d1e900230fe0c02901d04f
:10199c00f029ded11a68111d196013680360002349
:1019ac00436005e00a1d1a600a880023c0e9002381
:1019bc000120cfe7196822b10a1d1a6091f90020a5
:1019cc00d3e70a1d1a600a78efe71a68111d19602f
:1019dc001268cae719681ab10a1d1a600a68c4e7c6
:0c19ec000c1d1c600b68c0e90032e1e734
:020000040000fa
:020000040040ba
:1019f80080b588b000af786039600023fb7700239a
:101a0800fb600023bb617b68002b3ed07b687b6159
:101a18007b683b6100f01efc2be000bf1d4b5b693f
:101a280003f00103002bf9d01a4b5b6903f0e003c4
:101a3800fb60fb68002b21d1164b5b6803f4003375
:101a4800002b0bd0134b9b699bb2c3f308039ab2cc
:101a58003b691a803b6902333b6107e00d4b9b6988
:101a6800dab27b691a707b6901337b61bb69013328
:101a7800bb613a68bb699a42cfd800e000bf3a68b8
:101a8800bb699a4201d10123fb77fb7f18462037b7
:081a9800bd4680bd0080024044
:020000040000fa
:020000040040ba
:101aa0002de9f041d2e900230c4686b007465feaf3
:101ab000d37820684968a5680590e66841d052420d
:101ac00063eb4303002908db20f002000590b8f126
:101ad000000f02d1059948072ad5691e05a8029072
:101ae0000a20cde90010204600f0b8f9b8f1000f47
:101af00002d1059b59071fd5b8f1000f00f1ff3047
:101b000014bf2d232b2333542269059b0093013ae4
:101b10002b46121a3118384600f09ef87b68db0518
:101b200003d563689842b8bf184606b0bde8f08197
:101b30000807d2d42946d1e71a07e5d50138202372
:081b4000e1e70029c0dac5e766
:020000040000fa
:020000040040ba
:101b48002de9ff41836946690093f61acde90161e1
:101b580004461746039216444ff002086d46424663
:101b68002946206800f068fdb04209d1d4e9023264
:101b7800c4e905331a44a262384604b0bde8f081ce
:101b880000280dda6268002342f01002b8f1020f53
:101b9800a362c4e90533626015d06b68ff1aebe7ee
:101ba8006b68984288bf0835a6eb000688bfc01a44
:101bb8002b6803442b606b68a3eb000088bf08f117
:0a1bc800ff386860cbe71f46d6e740
:020000040000fa
:020000040040ba
:021bd20070475a
:020000040000fa
:020000040040ba
:101bd400184b194a5a601a46936813f0010ffbd048
:101be400144bdb68154a1360c3f3c113834220d03e
:101bf40000f00203002b14bf0b220c22104b1343e2
:101c04000c4a5360936813f0010ffbd000f00100fd
:101c1400002814bf0b220c220a4b1a600a4b1343f0
:101c2400044a5360936813f0010ffbd0074b084a32
:101c34001a607047000c0e400d00005a88244020a2
:101c44000008005a8c2440200007005a00180e4057
:041c5400010000a5e6
:020000040000fa
:020000040040ba
:101c58002de9ff471d460c9b13f0010906468a46ed
:101c6800144601d195420bd822465146304600f021
:101c7800dbfba54204d82546284604b0bde8f0871a
:101c88002f1b102f3a464ff0200128bf102268461c
:101c9800b84600f0fdfd00bfb8f10f0f11d83b09a1
:101ca8006ff00f0202fb03726946304600f0bcfb7e
:101cb800b9f1000fe0d122465146304600f0b4fb9e
:101cc800dae710226946304600f0aefba8f11008aa
:041cd800e2e700bf80
:020000040000fa
:020000040040ba
:101cdc00f0b51f4c2568a446002d36d000222946ad
:101cec0016461346d1f800e00f6986450ad132b189
:101cfc00176101f110031846f0bd3946f2e7ccf834
:101d0c000070f6e705d9ebb11c68a6453cbf16463a
:101d1c000b460a46002ff0d1002becd019461f6958
:101d2c0051f8102b121a102a05d918600844103ad1
:101d3c000761026007469d420cbfccf8007037610a
:101d4c000b46d8e716460b46e3e72b46d3e700bf16
:041d5c009c24402063
:020000040000fa
:020000040040ba
:101d600080b487b000af786039600023fb75002332
:101d70003b617b68002b2ad07b68fb607b68bb6083
:101d80001fe000bf154b5b6903f00203002bf9d085
:101d9000124b5b6803f40033002b09d03b695b00f6
:101da000ba6813441b880d4ac3f30803d36105e0e6
:101db000fa683b6913441a78084bda613b690133ce
:101dc0003b613a683b699a42dbd80123fb75fb7d96
:101dd00018461c37bd465df8047b70470080024002
:020000040000fa
:020000040040ba
:101de000842910b523d00cdc812903d0822913d09b
:101df00080290bd119680c1d1c600b6803601a60e8
:101e000013e0902921d003dc882917d0002010bdd1
:101e1000a029efd0c029ece719680c1d1c600b68e5
:101e20000360d1171046c3e900010120efe71968ec
:101e30000c1d1c600b6803601a80f6e719680c1d06
:101e40001c600b6803601a70efe719680c1d1c60ba
:0c1e500009680160d317c1e90023e6e730
:020000040000fa
:020000040040ba
:101e5c002de9f84f04460c9f6668d4f80cb0246941
:101e6c0010463a68013c002502f0020a0b9a0bf866
:101e7c000450002e1946b8bf0126012390464feaa4
:101e8c00e279002c03dcd3b12046bde8f88f50ea90
:101e9c00010209d1721b002a06dc0a9a521b002a85
:101eac00f1ddbaf1000feed042464b4600f026fbb6
:101ebc00013c134630320bf804200135e1e73b6856
:081ecc0023f010033b60dfe787
:020000040000fa
:020000040040ba
:101ed400f8b5846a05460f46164654b1ab6a6a697a
:101ee4009b1ab3420bd2324639462846fff72afee4
:101ef400f8bd00f075fc0028f0d02046f8e7002e6d
:101f0400f1d095f93430002b1bdbdbb23446621e72
:101f1400b95c994212d1224639462846fff712fe8f
:101f2400a042e5d32744341b22463946686900f0b1
:101f340023fc6b691c446c613046d9e71446002ac3
:061f4400e5d13446f0e790
:020000040000fa
:020000040040ba
:021f4a00fee7b0
:020000040000fa
:020000040040ba
:101f4c0080b400af174b1b6b164a23f0700313635e
:101f5c0000bf144b9b6e03f00803082bf9d1114bf7
:101f6c001b6b23f440730f4a43f48073136300bf5d
:101f7c000c4b9b6e03f00803082bf9d1094b1b6b20
:101f8c0023f00303074a43f00203136300bf054b1e
:101f9c009b6e03f00803082bf9d100bfbd465df81a
:081fac00047b704700060e40a3
:020000040000fa
:020000040040ba
:101fb4007fb5c36800911546002b18bf013a019202
:101fc40082680446cde902230e460222694600686f
:101fd40000f01ffb002808dc00f0180383f008025f
:101fe40063681343636005460fe0019a8242fad2a4
:101ff400a368e363801ae268184420642ab15a1c77
:10200400e2632e441b7806f8013c284604b070bdf8
:020000040000fa
:020000040040ba
:1020140037b5154d2b68044673b100f071fb019080
:1020240001a800f018fc0f30019920f00f0000f017
:10203400fbfb60b100232b60002c08bf01240f348c
:1020440034f00f0405d1094b0c221a60204603b06a
:1020540030bd042c38bf04242046fff73dfe002881
:10206400f5d040f8044cf2e748264020982440205c
:020000040000fa
:020000040040ba
:102074000e4a38b5002313600d4a0e4c13600e4a05
:102084000e4d13600e4a13600e4a13600e4a5362db
:1020940013610123936000f018fc00f0e4faac42f1
:1020a40000d338bd54f8043b9847f8e79424402003
:1020b4001424402074014000102440207801400082
:0c20c400082440200c2440201824402058
:020000040000fa
:020000040040ba
:1020d00038b50d46044608b9002038bd43689b0654
:1020e00007d5d0e905239a4216d80023c4e9053361
:1020f000a362d4e90f13994204d20122c91a2068bd
:1021000000f020fc0023c4e90f33002de4d0206848
:10211000bde8384000f007bc0022c36a114698476a
:0c2120006369002be1d14ff0ff30d6e7df
:020000040000fa
:020000040040ba
:10212c0008b50d4b98470d4b984700f099fa0120d4
:10213c00fff74afd00f0bcfa00f0aef9084b23f0b3
:10214c007f03084a9360084b9847084b9847084b05
:10215c009847fef7bffdfee7d31b4000d31b4000a2
:10216c000000000000ed00e075204000d31b400093
:04217c00d31b400031
:020000040000fa
:020000040040ba
:10218000022a70b5044616461d461ad043689b06bf
:1021900017d441b9002d08bf4ff4806505f1080040
:1021a000fff738ff01466368012e43f020036360a8
:1021b000c4e9021514bfff230a2384f83430024b0c
:0c21c000e362002070bd00bfd51e40008f
:020000040000fa
:020000040040ba
:1021cc0080b485b000af78607b6803f00703fb60d8
:1021dc000b4bdb68bb60ba684ff6ff031340bb6068
:1021ec00fb681a02bb681a43064b1343bb60044ad4
:1021fc00bb68d36000bf1437bd465df8047b7047e5
:08220c0000ed00e00000fa05fe
:020000040000fa
:020000040040ba
:1022140080b500af0020fff7d7ffbff35f8f62b632
:102224000c4b5b6a0b4a43f480235362094b5b6992
:10223400084a43f010035361064b5b6a054a43f4b2
:1022440000335362034b5b6a024a43f480335362a4
:0822540000bf80bd00ed00e0b9
:020000040000fa
:020000040040ba
:10225c0080b483b000af00237b600e4b5b6903f04e
:10226c00e003002b0fd00b4b4ff480721a6004e08c
:10227c00084b9b69c3f308037b60064b5b6903f057
:10228c000103002bf4d100bf0c37bd465df8047b75
:08229c00704700bf0080024002
:020000040000fa
:020000040040ba
:1022a40080b586b000aff860b9607a6000237b61c6
:1022b4000023fb74fb68002b10d17b68002b0dd02e
:1022c4000121b868fff796fb0346fb74fb7c83f09f
:1022d4000103dbb2002bf3d101237b617b69184638
:0622e4001837bd4680bd65
:020000040000fa
:020000040040ba
:1022ea0010b50278202a034600f10100f9d0a2f1c4
:1022fa0009010429f5d92b2a07d02d2a11d1012148
:10230a000133013b00200a2403e00021f8e760437f
:10231a00801a13f8012f303a092af8d901b9404234
:06232a0010bd0021ede7eb
:020000040000fa
:020000040040ba
:1023300080b582b000af786000f02cf900f010faa0
:1023400000f000fafff7c4f900f034f8074b4ff43f
:1023500000425a60064b4ff400425a6000f0bcf84d
:10236000fff758ff00bf0837bd4680bd00190e407b
:0423700050180e40b3
:020000040000fa
:020000040040ba
:1023740010b5054c227832b9044b13b10448aff3bd
:1023840000800123237010bd582440200000000069
:102394000000000008b5034b1bb103490348aff329
:1023a400008008bd000000005c2440200000000004
:020000040000fa
:020000040040ba
:1023b40080b400af0b4bdb680a4a43f08073d360f0
:1023c400094b0a4ac3f8b02f074b00225a60064b48
:1023d4001b68054a43f00103136000bfbd465df866
:1023e400047b7047f0ed00e0001000e055ceacc572
:020000040000fa
:020000040040ba
:1023f40030b50d4a002300bf12f8134024b902eb94
:1024040043035b78184630bd01680d78a54209bfc7
:1024140002eb430301335b78013114bfdbb201608b
:0c2424000a2be9d9eee700bf4428400075
:020000040000fa
:020000040040ba
:1024300038b5436813f4807f0446154611d003690c
:102440009a4228bf1d465db12a46406900f096f9c0
:10245000636922692b44551b0022636125611a7050
:0c24600038bddb06fcd400f0c9f9f9e738
:020000040000fa
:020000040040ba
:10246c0080b586b000aff860b9607a600023fb7568
:10247c00fb68012b0bd17968b868fff76bfc03463e
:10248c00fb75fb7d83f00103dbb2002bf3d17b6882
:08249c0018461837bd4680bd4b
:020000040000fa
:020000040040ba
:1024a40070b50a480a4d4ff6ff76016811b94368c2
:1024b40003b970bd83684268334000f10c0455f8d9
:1024c40023302046984704eb8000eee720084000c4
:0424d400702840002c
:020000040000fa
:020000040040ba
:1024d80080b400af094b4ff486721a60074b502244
:1024e8001a60064b4ff40c625a60044b51221a6270
:1024f80000bfbd465df8047b704700bf0080024006
:020000040000fa
:020000040040ba
:1025080053b94ab9002908bf00281cbf4ff0ff3152
:102518004ff0ff3000f010baadf1080c6de904ceb1
:10252800fef774ffddf804e0dde9022304b070472c
:020000040000fa
:020000040040ba
:10253800064b1a680ab9064a1a60064a116809b9a8
:10254800054911601a68054b1a6070477c244020c1
:1025580050264020782440205028402074244020d1
:020000040000fa
:020000040040ba
:1025680080b400af074b084a9a6200bf054b9b6ec8
:1025780003f00203022bf9d100bfbd465df8047bce
:0c258800704700bf00060e40013f182005
:020000040000fa
:020000040040ba
:1025940080b500af074b1b681b680021184600f08c
:1025a4008cf9054b1b681b680021184600f085f95f
:0c25b40000bf80bd5c2540204026402078
:020000040000fa
:020000040040ba
:1025c00010b5084c23680bb9fff7b6ff064922681f
:1025d00009681044814234bf4ff0ff32206010463a
:0c25e00010bd00bf74244020782440206f
:020000040000fa
:020000040040ba
:1025ec00802910db812901dd83290cd11368073385
:1025fc0023f0070303f108011160d3e90023c0e9bc
:0a260c0000230120704700207047f2
:020000040000fa
:020000040040ba
:102616002de9f0410024804617460e462546bd4268
:1026260002db2046bde8f081726856f8081b40467a
:0a263600fff735fe01350444f1e71b
:020000040000fa
:020000040040ba
:102640002de9f0410024804617460e462546bd423e
:1026500002db2046bde8f081726856f8081b404650
:0a266000fff704ff01350444f1e721
:020000040000fa
:020000040040ba
:02266a007047b7
:020000040000fa
:020000040040ba
:10266c00eff3108172b6074ad2f8883043f4700346
:10267c00c2f88830bff34f8fbff36f8f01b962b6ca
:08268c00704700bf00ed00e003
:020000040000fa
:020000040040ba
:1026940090f948305a1e1343426880f8483012f0cb
:1026a40004031bbf42f010024260c0e90f334ff035
:0826b400ff3008bf1846704713
:020000040000fa
:020000040040ba
:1026bc00bff34f8fbff36f8f054b0722c3f89022e8
:1026cc00c3f89422bff34f8fbff36f8f704700bfd7
:0426dc0000ed00e02d
:020000040000fa
:020000040040ba
:1026e0000fb407b5064b04aa1b6852f8041b186800
:1026f000019200f051f803b05df804eb04b07047ac
:04270000402640200f
:020000040000fa
:020000040040ba
:1027040010b5054c22680ab9fff714ff034b18688b
:102714002368c01a10bd00bf7424402078244020d0
:020000040000fa
:020000040040ba
:1027240010b50023934206d113f0030018bf012013
:0e27340000eb930010bdc45ccc540133f2e7ff
:020000040000fa
:020000040040ba
:022742007047de
:020000040000fa
:020000040040ba
:1027440080b500affff70efffff7fefb024b4ff41f
:0c27540057321a6100bf80bd00060e4025
:020000040000fa
:020000040040ba
:1027600080b400af034b044a1a6000bfbd465df859
:0c277000047b7047000c0e4000060004c3
:020000040000fa
:020000040040ba
:10277c005ab110b40a44431e11f8014b03f8014f2f
:0c278c009142f9d15df8044b7047704792
:020000040000fa
:020000040040ba
:1027980013b50446019201aafef7b4fc636813f06e
:0c27a800100f18bf4ff0ff3002b010bd42
:020000040000fa
:020000040040ba
:1027b40080b400af034b00225a6000bfbd465df8f1
:0827c400047b7047001000e0e7
:020000040000fa
:020000040040ba
:1027cc0080b400af034b5b681846bd465df8047bd4
:0827dc00704700bf001000e08f
:020000040000fa
:020000040040ba
:1027e40010b50446fff754ff28b9a368e268c4e9aa
:0827f40005331344a36210bd7c
:020000040000fa
:020000040040ba
:1027fc0010b4c46a1cb123465df8044b184700683a
:08280c005df8044bfff72cbe40
:020000040000fa
:020000040040ba
:1028140003783bb1034600bf13f8012f002afbd114
:08282400181a704718467047ae
:020000040000fa
:020000040040ba
:10282c00044a136823b910600361016001207047ea
:08283c00002070479c2440209d
:020000040000fa
:020000040040ba
:1028440068076c094c836a9074a07ac00080688819
:0628540000846c8200818b
:020000040000fa
:020000040040ba
:10285a000068002808b501da002008bdfff7abfec2
:06286a00431cfad1f8e75f
:020000040000fa
:020000040040ba
:10287000ad284000252740002d2940002d2940008b
:042880002d294000be
:020000040000fa
:020000040040ba
:1028840008b500f035f8024b1860586008bd00bf69
:04289400802440203c
:020000040000fa
:020000040040ba
:1028980032b1c9b20244034603f8011b9342fbd18b
:0428a800704700bfb6
:020000040000fa
:020000040040ba
:1028ac000a440023914201d10020704701f8013bfa
:0228bc00f8e73b
:020000040000fa
:020000040040ba
:1028be0000294ff480630cbf02220022fff759bc9f
:020000040000fa
:020000040040ba
:1028ce0008b5fff7d8fffff735fffff733ff08bd59
:020000040000fa
:020000040040ba
:0e28de00a0f14103192b98bf40f02000704775
:020000040000fa
:020000040040ba
:0828ec00286e696c290025002b
:020000040000fa
:020000040040ba
:0828f40000487047c425402094
:020000040000fa
:020000040040ba
:0628fc0080b400affee70e
:020000040000fa
:020000040040ba
:0629020080b400affee707
:020000040000fa
:020000040040ba
:0629080080b400affee701
:020000040000fa
:020000040040ba
:06290e0080b400affee7fb
:020000040000fa
:020000040040ba
:0629140080b400affee7f5
:020000040000fa
:020000040040ba
:06291a0080b400affee7ef
:020000040000fa
:020000040040ba
:062920000068fff7a3bdf3
:020000040000fa
:020000040040ba
:062926004ff0ff30704786
:020000040000fa
:020000040040ba
:04292c0000207047d0
:020000040000fa
:020000040040ba
:0429300000207047cc
:020000040000fa
:020000040040ba
:0429340000207047c8
:020000040000fa
:020000040040ba
:0429380000207047c4
:020000040000fa
:020000040040ba
:04293c0000207047c0
:020000040000fa
:020000040040ba
:04294000704700bf1d
:020000040000fa
:020000040040ba
:0429440000207047b8
:020000040000fa
:020000040040ba
:022948007047d6
:020000040000fa
:02000004d0002a
:04000000820000007a
:00000001FF
