:020000040000fa
:10000000f07f00202d220000eb2800006329000073
:1000100000000000000000000000000000000000e0
:100020000000000000000000000000002727000082
:100030000000000000000000272700002727000024
:10004000272700002727000027270000512700004e
:10005000e521000027270000c51c0000272700001d
:10006000272700002727000027270000191000007d
:100070002727000027270000272700002727000048
:100080002727000027270000272700002727000038
:100090002727000027270000272700002727000028
:1000a0002727000027270000272700002727000018
:020000040000fa
:1000b000f8b5c046f8bc08bc9e467047c521000094
:1000c000f8b5c046f8bc08bc9e4670479d210000ac
:020000040000fa
:1000d000f0b557464e464546de46e0b50c030600f1
:1000e000480087b092469846240b400dcf0f002859
:1000f00000d178e07b4b984200d190e0730fe40090
:100100001c438023784a1b041c4394460300634429
:100110000093002399469b46f500434642461e0342
:10012000d20f5b005046360b5b0d904600d180e04d
:100130006c4a93421dd06c49420f8c46009963442f
:10014000f6008c46164380229c44120463461643f4
:10015000c200002000930099434601318c46494675
:100160007b4001930f2900d9c6e0604b89005958a4
:100170008f465c4952468c46009b32436344009351
:10018000002a00d08de04946022319438946002603
:100190000220e0e7434601933400150083465b46a6
:1001a000022b64d0032b00d1f1e1012b00d05ee1e2
:1001b00000220026002500213603340b0e0d3605e3
:1001c00026434b4c120534401443019b6400db076b
:1001d00064081c432800210007b03cbc90469946a7
:1001e000a246ab46f0bd2500354352d0002c00d1cd
:1001f00076e1200002f02ef902000b3a1d230100e7
:100200009b1a3200350008398c40da408d40144387
:10021000384b1b1a0093002399469b467de7350017
:1002200025432fd108239946063b002400909b4686
:1002300073e7524632431ed0002e00d142e1300017
:1002400002f008f902000b3a1d2301009b1a5246e6
:100250000839da408e40164352468a40009b2549b1
:10026000181a03008c4663440093002073e71d4a6c
:10027000002600259fe749460123194389460026a9
:10028000012068e70c239946093b350000909b4606
:1002900043e70423994600230093013300249b463f
:1002a0003be74a4603231a4391460320524652e74e
:1002b000019774e700238026019336030025094a3d
:1002c00079e780231b031c4200d1f3e01e4200d0db
:1002d000f0e01e43434636031500360b0193014af6
:1002e00069e7c046ff07000001fcffff142400007f
:1002f000ffff0f800dfcffff2f0c2d042d0c2b009a
:10030000110c1204120c53439846130028007b432f
:10031000994648434844834640460b00000c8246b9
:1003200058467b4350440293814506d99a46802320
:100330005b029946ca4453460293030c9b464346cc
:100340001b0400041b0c9846030043440493330c25
:1003500099462b003604360c7343984633007b4392
:100360009a464b465d435f4343465544180c40193b
:10037000824503d980235b029a465744050ceb194a
:10038000059343461d042d0c00044019250c24043c
:10039000240c270057436a4390462a003b0c9a4698
:1003a0004a436143414451448344884503d98023ef
:1003b0005b02984642443f040b0c3f0c0904c919e8
:1003c000270098464b4677435c436e435d433b0ca6
:1003d0009946a4194c4442440395a64204d980236b
:1003e0005b02984645440395029b3f045b441e0014
:1003f0008342804123049846059b3f0c474498461e
:1004000076188e428941474440423d18a8464942e9
:1004100093468a46c344da449f42bf4180458041a7
:10042000039b934592418a458941984653464042f1
:100430007f420743240c524249420a433c19a41804
:10044000da0d049b75021d43681e854153464444e2
:100450006402f60d144335435a021543e30173d584
:1004600001216a080d401543e207154364084b4a11
:100470006244002a43dd6b0709d00f21294004297b
:1004800005d0291da942ad416d4264190d00e3015b
:1004900004d5434a14408022d200624441498a4232
:1004a00000dde4e66107ed08640252050d43260b0a
:1004b000520d80e68026360326433603360b01971d
:1004c000394a78e601f0c6ff03001a0015322030e1
:1004d0001c2a00dcb8e65646083b00229e40bde6da
:1004e000300001f0b7ff03001a00153220301c2a3b
:1004f00000dc83e63400083b00259c4088e60121af
:10050000891a382900dd53e61f2920dc27482200fc
:1005100060442e0085408240ce40681e85413243b3
:100520002a43cc40530709d00f211140042905d09c
:10053000111d914292415242a4180a0023021fd574
:1005400001220026002536e6009b9c468fe71f20ef
:100550004042821a2000d040202903d0144a62442d
:10056000944025436a1e95412a0007250243154001
:100570000026002d07d00f21002411400429d7d1d7
:1005800065076402260bd2081543002213e6802675
:10059000360326433603360b034a0ce6ff030000fe
:1005a000fffffffefe070000ff0700001e04000023
:0405b0003e04000005
:020000040000fa
:1005b400f0b59db00490029105920393002805d0f4
:1005c40083690693002b01d101f0a6fc974b029a94
:1005d4009a4263d1049b5b680293029b9b891b072d
:1005e4006ad5029b1b690693002b65d000220aabd7
:1005f4000f9220325a7610329a76059e3378002b69
:1006040001d0252b62d1059bf41a0cd02300059a46
:100614000299049801f050fe431c00d17de10f9b28
:100624001c1905930f943378002b00d175e1012236
:1006340000230aac5242626006a954327c4f52181d
:100644000a93e360a36001361370223731780522e0
:10065400380002f079f9751c002839d12168cb06dd
:1006640004d5532306aa9b1820221a700b0704d51d
:10067400532306aa9b182b221a7033782a2b2fd0c7
:10068400350000210a20e3682a786e1c303a092ad2
:1006940000d86ce0002929d0e36027e0654b029a7a
:1006a4009a4202d1049b9b6896e7634b029a9a4252
:1006b40093d1049bdb688fe70299049800f016ff3e
:1006c400002893d0012040421db0f0bd013695e7cb
:1006d4000123c01b834022682e0013432360b5e727
:1006e400039a08ca002b3cdbe36003922b782e2b81
:1006f40009d16b782a2b42d1039b023504cb002a03
:100704003adb626003934a4e29782836032230008c
:1007140002f01af9002806d04023801b8340226887
:10072400013513432360424f297838006b1c06229d
:100734002c300593217602f007f95322237e06a973
:100744005218692b32d042d8582b77d02ad8002b94
:1007540000d1f0e0522106a809180b7001230e9372
:100764005ee05b42e36002230b432360bde7434347
:1007740001219b18350087e701225242c1e700237b
:100784000a201a000135636029786e1c3039092962
:1007940003d9002bb7d06260b5e742430123521856
:1007a4003500f1e7632b32d0642bd3d103990a9b34
:1007b40020c90391190602d45b0600d52db21c4f43
:1007c400002d02da2d236d4213700a2655e0702b9a
:1007d40000d1a9e010d86f2bbcd103990a9a20c983
:1007e4000391110602d4520600d5adb2104f0a2669
:1007f4006f2b3dd108263be0752beed0782ba9d189
:10080400552306aa9b18782211371a701ae0522130
:10081400039b06ad01cb49190870012103932161a3
:1008240000235224137006abe41859e0400300205f
:10083400e82500006003002020030020552206a9bb
:1008440052181370039a0a9b20ca03921a0602d400
:100854005a0600d5adb20122134202d01f3213430f
:100864000a931026002d03d120230a9a9a430a9250
:10087400532306aa9b1800221a700b9b0c93002b7f
:1008840003db04220a9991430a91002d05d15322d6
:1008940006a952181400002b0cd0532306aa9b1847
:1008a4001c003100280000f011fd7b5c013c23702a
:1008b400ae423ed9082e0ed101220a9b13420ad021
:1008c4000b9b06930e9b0793079a069b934202dcad
:1008d4003023013c2370532306aa9b181b1b0e9341
:1008e400234b09aa00930aa9029b049800f074fe02
:1008f400431c12d00e9b22000299049801f0dcfce8
:10090400431c0ad00a9b06939b0729d4099a0d9b82
:10091400934200da13005a1c24d1029b9b895b0684
:1009240000d5cfe60f98cfe6202322681343236037
:1009340066e70500b5e723611400d1e7292206a97b
:10094400012352180498029901f0b6fc431ce4d028
:1009540001340d9b099a06939b1a9c42eedbd5e762
:100964000024f6e70f9ad31806920f9345e6c04683
:04097400bd220000a0
:020000040000fa
:10097800800300201c00000000000000a0030020ed
:100988001000000000000000b0030020100000006c
:1009980000000000c003002010000000000000005c
:1009a80070010020c000000000000000d0030020fb
:1009b8000c00000000000000f40200202c000000e1
:1009c80000000000ee03002001000000000000000d
:1009d800ec0300200200000000000000ef030020ec
:1009e8000100000000000000f003002001000000ea
:1009f80000000000f10300200100000000000000da
:100a0800f20300200100000000000000f3030020b2
:100a18000100000000000000300200206400000017
:100a2800000000009c0300200400000000000000fb
:100a380020030020200000000000000040030020e8
:100a480020000000000000006003002020000000db
:100a580000000000dc03002004000000010000008a
:100a680094020020940200206000000001000000b1
:100a78000000000040030020600300202003002045
:100a8800000000000000000000000000000000005e
:100a9800000000000000000000000000000000004e
:100aa800000000000000000000000000000000003e
:100ab800000000000000000000000000000000002e
:100ac800000000000000000000000000000000001e
:100ad800040000206c010000010000004300000039
:100ae80000000000000000000000000000000000fe
:100af80000000000000000000000000043000000ab
:100b080000000000000000000000000000000000dd
:100b1800000000000000000000000000430000008a
:100b280000000000000000000000000000000000bd
:100b3800000000000000000000000000430000006a
:100b4800000000000000000000000000000000009d
:100b5800000000000000000000000000430000004a
:100b6800000000000000000000000000000000007d
:100b7800000000000000000000000000430000002a
:100b8800000000000000000000000000000000005d
:100b9800000000000000000000000000430000000a
:100ba800000000000000000000000000000000003d
:100bb80000000000000000000000000035290000cf
:100bc8001928000000000000ec1300004d2a000066
:100bd8004c2a00004c2a00004c2a00004c2a000035
:100be8004c2a00004c2a00004c2a00004c2a000025
:100bf8004c2a0000ffffffffffffffffffffffff83
:100c0800ffff000001004153434949000000000074
:100c180000000000000000000000000000000000cc
:100c28000000000000004153434949000000000053
:100c380000000000000000000000000000000000ac
:100c48000000000000000000e00300200400000095
:100c580000000000e4030020040000000000000081
:100c6800000000200400000000000000e80300204d
:100c78000400000000000000000000000000000068
:020000040000fa
:100c880003460b437fd4002243088b4274d30309e5
:100c98008b425fd3030a8b4244d3030b8b4228d386
:100ca800030c8b420dd3ff22090212ba030c8b42ac
:100cb80002d31212090265d0030b8b4219d300e04c
:100cc800090ac30b8b4201d3cb03c01a5241830bd1
:100cd8008b4201d38b03c01a5241430b8b4201d381
:100ce8004b03c01a5241030b8b4201d30b03c01aaa
:100cf8005241c30a8b4201d3cb02c01a5241830a24
:100d08008b4201d38b02c01a5241430a8b4201d352
:100d18004b02c01a5241030a8b4201d30b02c01a7c
:100d28005241cdd2c3098b4201d3cb01c01a5241e3
:100d380083098b4201d38b01c01a524143098b426c
:100d480001d34b01c01a524103098b4201d30b0155
:100d5800c01a5241c3088b4201d3cb00c01a52417a
:100d680083088b4201d38b00c01a524143088b423f
:100d780001d34b00c01a5241411a00d201465241d8
:100d8800104670475de0ca0f00d04942031000d3f7
:100d98004042534000229c4603098b422dd3030a4c
:100da8008b4212d3fc22890112ba030a8b420cd35c
:100db800890192118b4208d3890192118b4204d385
:100dc80089013ad0921100e08909c3098b4201d305
:100dd800cb01c01a524183098b4201d38b01c01a3f
:100de800524143098b4201d34b01c01a52410309b6
:100df8008b4201d30b01c01a5241c3088b4201d365
:100e0800cb00c01a524183088b4201d38b00c01a11
:100e18005241d9d243088b4201d34b00c01a5241e8
:100e2800411a00d20146634652415b10104601d375
:100e38004042002b00d54942704763465b1000d3ff
:100e4800404201b5002001f01dfe02bd0029f8d086
:040e580016e77047e2
:020000040000fa
:100e5c00f0b583b0002001f089fb00215b4801f064
:100e6c00d3fd00225a49002001f08afd0021594887
:100e7c0001f0c4fd002258490f2001f04ffc01f095
:100e8c002ffd564d0024564e41e02c70022300934a
:100e9c003300012253494f2001f030fb524b1b7899
:100eac00002b03d13b78002bf8d0eee74e4b1c7097
:100ebc004e4b1b78002b2cd1494a13781b025078cf
:100ecc00184300b2c01100f0b1ff0022484bfff7ed
:100edc00f9f800f0e7ff00b2c30018180521fff77e
:100eec00cdfe02002032d2b24249434801f0cafa88
:100efc00424a9c238021c905d1503f4f380001f054
:100f0c006ffd03003e4a3900200000f099fc334f7e
:100f1c00c8e7364b1c703b4b1b78002b18d0012bb1
:100f2c002cd0022b3ed0032be7d1364b1c70324910
:100f3c00354b10330a0083cb83c283cb83c283cb64
:100f4c0083c21b7813708020800001f005fdd4e76c
:100f5c002c4b01221a702849264b18330a0083cbdc
:100f6c0083c283cb83c283cb83c2198811809b78c5
:100f7c0093708020c00001f0effcbee7214b0222f1
:100f8c001a701d491b4b40330a0083cb83c283cba1
:100f9c0083c283cb83c21b6813608020000101f0e5
:100fac00dbfcaae7174b03221a701349114b683369
:100fbc000a0083cb83c283cb83c283cb83c21b68df
:100fcc0013608020400101f0c7fc96e70529000062
:100fdc0079290000ad290000212a0000f00300202f
:100fec00ec030020ef030020f1030020ee030020af
:100ffc000000e03fd0190000300200200044004106
:0c100c0028140042f3030020501a0000da
:020000040000fa
:1010180010b5684b9b7d002b17d0664b5b8b9b07ed
:1010280014d5654b2022ff2199540132fd3999547a
:10103800614a2023d35c5bb2013300d18ae05e4a67
:101048002023d35c062b00d19ce010bd594b5b8b51
:10105800db0707d5584b2022ff2199540132fd396f
:101068009954e5e7534b5b8b5b0707d5524b20221e
:10107800ff2199540132fe399954d9e74e4a202369
:10108800d35c5bb2032b43d0042b0fd0022bcfd100
:101098001369002b04d09088002101f029f8c7e7d4
:1010a800454b9888012101f023f8c1e7424a93692a
:1010b800126993420bd0404a9168581c9061c95cf0
:1010c8003c4a2823d154d369002bfcd1b0e73a4bd2
:1010d8005b69002b0ed0384b9b885b0001221343c1
:1010e800344a5362d369002bfcd1334a203303219d
:1010f800d1549de72f4a5168c0239b020b4353608c
:10110800d369002bfcd12c4a20330621d1548fe718
:10111800294a5369013bd2699a420dd0254ad369bd
:10112800002bfcd1244bd968da69501cd8612148be
:101138002823c35c8b547be71e4a5168e023db02fb
:101148000b435360d369002bfcd11b4a2033062183
:10115800d154e3e720230021d154164a5168c02313
:101168009b020b435360d369002bfcd1114b8322a4
:101178001a76114b5b6a002b00d166e70e4a906a1b
:10118800984762e71300002220215a5401315a542b
:10119800084b83321a761900533a4b8b1340102ba5
:1011a800fbd1054b5b6a002b00d14ee7024a906adf
:0c11b80098474ae700100042f4020020b3
:020000040000fa
:1011c400002243088b4274d303098b425fd3030a82
:1011d4008b4244d3030b8b4228d3030c8b420dd395
:1011e400ff22090212ba030c8b4202d31212090223
:1011f40065d0030b8b4219d300e0090ac30b8b4261
:1012040001d3cb03c01a5241830b8b4201d38b030e
:10121400c01a5241430b8b4201d34b03c01a5241b3
:10122400030b8b4201d30b03c01a5241c30a8b42f6
:1012340001d3cb02c01a5241830a8b4201d38b02e1
:10124400c01a5241430a8b4201d34b02c01a524185
:10125400030a8b4201d30b02c01a5241cdd2c309f7
:101264008b4201d3cb01c01a524183098b4201d373
:101274008b01c01a524143098b4201d34b01c01a5e
:10128400524103098b4201d30b01c01a5241c308d6
:101294008b4201d3cb00c01a524183088b4201d345
:1012a4008b00c01a524143088b4201d34b00c01a31
:1012b4005241411a00d20146524110467047ffe79d
:1012c40001b5002001f0e0fb02bdc0460029f7d0c3
:0412d40076e7704702
:020000040000fa
:1012d800f7b58a8905000c0013075dd44b68002b0d
:1012e80004dc0b6c002b01dc0020febde76a002f3c
:1012f800fad000232e682b6080235b011a4034d07b
:10130800606da3895b0706d56368c01a636b002b01
:1013180001d0236cc01a0200216a00232800e76a62
:10132800b847a189431c06d12b681d2b31d82c4afc
:10133800da40d3072dd50023636023692360cb04eb
:1013480005d5431c02d12b68002b00d16065616b69
:101358002e600029c8d023004433994202d02800c7
:1013680000f0d8fb00206063bfe70123216a280052
:10137800b847431cc5d12b68002bc2d01d2b01d008
:10138800162b01d12e60afe74023a2891343a38116
:10139800abe740230b43fae70f69002fa4d00b6893
:1013a8000f60db1b01930023920700d14b69a360f8
:1013b800019b002b00dc97e7019b3a00216a28007b
:1013c800a66ab047002806dc40230120a2894042d3
:1013d8001343a38189e7019b3f181b1a0193e7e791
:0413e80001004020a0
:020000040000fa
:1013ec0000202020202020202020282828282820e9
:1013fc0020202020202020202020202020202020e1
:10140c002088101010101010101010101010101048
:10141c001004040404040404040404101010101038
:10142c001010414141414141010101010101010102
:10143c000101010101010101010101011010101054
:10144c0010104242424242420202020202020202d4
:10145c000202020202020202020202021010101028
:10146c002000000000000000000000000000000050
:10147c000000000000000000000000000000000060
:10148c000000000000000000000000000000000050
:10149c000000000000000000000000000000000040
:1014ac000000000000000000000000000000000030
:1014bc000000000000000000000000000000000020
:1014cc000000000000000000000000000000000010
:1014dc000000000000000000000000000000000000
:0114ec0000ff
:020000040000fa
:0214ee00704745
:020000040000fa
:1014f000364b70b51d6806000c00002d05d0ab6999
:10150000002b02d1280000f009fd314b9c420fd185
:101510006c680c23e25e93b219072dd4d90611d45e
:1015200009230120336037331343a381404270bd48
:10153000284b9c4201d1ac68ebe7274b9c42e8d199
:10154000ec68e6e75b0713d5616b002908d0230040
:101550004433994202d0300000f0e0fa0023636384
:101560002422a3899343a38100236360236923601a
:101570000823a2891343a3812369002b0bd1a02147
:101580008022a389890092000b40934203d021005e
:10159000300000f079fa0123a289134011d0002312
:1015a000a36063695b42a361002023698342bed1cb
:1015b0000c23e25e1306bad540231343a3810138fe
:1015c000b5e7920700d46369a360ede7dc03002070
:0c15d000400300206003002020030020e6
:020000040000fa
:1015dc00f7b5150001938a680b6900900c009342d3
:1015ec0000da130022002b6043321278002a01d05b
:1015fc0001332b6023689b0602d52b6802332b60ca
:10160c00062723681f4027d0230043331b785a1e1c
:10161c0093412268920630d42200019943320098fb
:10162c00089eb047431c25d0062320682a68e16831
:10163c0003400025042b03d18d1aeb43db171d400f
:10164c00a3682269934201dd9b1aed180027bd4265
:10165c0020d1002010e00137e3682a689b1abb42b6
:10166c00d2dd22000123193201990098089eb0475f
:10167c00431cf0d101204042febd3020e118433123
:10168c00087021005a1c45310978a21843320233e4
:10169c001170c1e7220001231a3201990098089eab
:0a16ac00b047431ce6d00137d1e738
:020000040000fa
:0216b60070477b
:020000040000fa
:1016b800f8b505000e001400002804d08369002b3b
:1016c80001d100f027fc294b9c4234d16c68a369f6
:1016d800a360a3891b0738d52369002b35d00c23b9
:1016e800e25e80239b01f7b2f6b21a4236d0236835
:1016f8002269981a6369834205dc2100280000f0fa
:10170800cbfc002827d1a3680130013ba3602368e4
:101718005a1c22601f706369834204d0a389db07c7
:1017280007d50a2e05d12100280000f0b5fc0028b5
:1017380011d13000f8bd0e4b9c4201d1ac68c6e710
:101748000c4b9c42c3d1ec68c1e721002800fff78d
:10175800cbfe0028c3d001267642eae71343a381d3
:10176800226e054b13402366c1e7c04640030020a4
:0c1778006003002020030020ffdfffffc3
:020000040000fa
:10178400244b00229a619a8c80218a439a841a00fd
:101794001023d1680b42fcd01f4b1a68920e3f2acb
:1017a40035d01e4b1b689b059b0d92021343194aaf
:1017b40093621023d1680b42fcd0164b02229a8408
:1017c4001a001023d1680b42fcd0154b154a5a60fd
:1017d400154a9a601a0053785bb2002bfbdb104b5e
:1017e400124a5a601a0053785bb2002bfbdb0c4b95
:1017f4000f4a5a800f4a5a800f4a5a800f4a5a8019
:101804000f4b104a1a62034b00221a627047203aa7
:10181400c7e7c046000800402460800028608000bc
:10182400000c00400103010001200000000701003a
:10183400044100000540000016400000174000006d
:08184400000400403000010027
:020000040000fa
:10184c00f0b52e4e3f25745de4b2705506012c4d5b
:10185c00ad192d7b002d05d0284e4e25765d00252b
:10186c00b6073bd0254e4e25032777550501244e50
:10187c007619023f3773234ead5b6d0533d5c9180e
:10188c000601204dad19696001011e4d495b09052a
:10189c002ed5d21805011b4949198a601949050131
:1018ac006a5a9205920fd3409bb249194b80134a46
:1018bc004021535c02252b435354516c536c9b04b5
:1018cc009b0e08220a4013430125002b06d10b4a1c
:1018dc001169012383400b4313610125074a3f2300
:1018ec00d4542800f0bd0601064dad196960cbe754
:1018fc000501044949198a60d0e7c04600480041f7
:08190c00c0030020b00300201d
:020000040000fa
:10191400f8b50323cd1c9d43083506000c2d1fd2ba
:101924000c25a9421ed83000fff7dffd25490a68bf
:101934001400002c1ad1244f3b68002b04d1210041
:10194400300000f079ff38602900300000f074ffa7
:10195400431c2ad10c233000336001f09df803e0ce
:10196400002ddeda0c2333600020f8bd23685b1bf6
:1019740018d40b2b03d92360e418256003e06368b3
:10198400a2420dd10b60300001f086f8200007223e
:101994000b30231d9043c21ae7d01b1aa350e4e76f
:1019a4005360f0e722006468c3e70323c41c9c432c
:1019b400a042e2d0211a300000f03eff431cdcd1eb
:0c19c400c8e7c046e0030020e403002058
:020000040000fa
:1019d00054656d7065726174757265203d202530a7
:1019e000326420460d0a000053616d706c696e67a9
:1019f0002054656d706572617475726520657665d9
:101a000072792031207365636f6e64200d0a0000c7
:101a100053616d706c696e672054656d706572619d
:101a200074757265206576657279203220736563fe
:101a30006f6e6473200d0a0053616d706c696e6780
:101a40002054656d70657261747572652065766588
:101a500072792034207365636f6e6473200d0a0001
:101a600053616d706c696e672054656d706572614d
:101a70007475726520657665727920353030206d19
:081a800073200d0a0000c046ae
:020000040000fa
:101a8800f7b502268b8905000c00334206d00b00ff
:101a980047330b600b6101234b61f7bd01ab6a460d
:101aa80000f050fb009907002800fff72fff0028df
:101ab8000ed10c22a35e9a05efd4032293431e4352
:101ac80023004733236023610123a6816361e4e790
:101ad8000f4bab628023a28920601343a381009b34
:101ae80020616361019b002b0dd00e23e15e28006d
:101af80000f0d6fe002806d00322a38993431a00db
:101b080001231343a381a0893843a081c5e7c046b8
:041b1800bd290000e3
:020000040000fa
:101b1c0070b50500002910d00c1f2368002b00dacb
:101b2c00e4182800fff7ddfc1d4a1368002b05d1d3
:101b3c0063601460280000f0abff70bda34209d9ac
:101b4c00216860188342f3d118685b6841182160e2
:101b5c00eee713005a68002a01d0a242f9d919689d
:101b6c005818a0420bd120680918581819608242e5
:101b7c00e0d110685268411819605a60dae7a04247
:101b8c0002d90c232b60d5e721686018824203d15f
:101b9c00106852684118216062605c60cae7c046f8
:041bac00e003002032
:020000040000fa
:101bb000f0b5c6461f4a204b00b50021934203d220
:101bc000197001339342fbd10b231c4a9c46083bfe
:101bd00098461368546819000026214311d0170055
:101be00091680c3700290fd11a19002c03d01e70f0
:101bf00001339342fbd13a00136854681900214322
:101c0000edd104bc9046f0bd6146c91a1d195118aa
:101c1000002c05d05a1c505c187013009542f9d165
:101c2000434623405a1e9341a4081c19a4003f199f
:101c30003a00e1e7040000200000002078090000dd
:020000040000fa
:101c40001e4a137801210b43137053785bb2002bab
:101c5000fbdb1a4900238b6190231b06cb61802399
:101c60001b02cb60164b10221a721a7520201a54d0
:101c70000c301a540c301a540c301a540c301a54bc
:101c80000c301a540c301a540c301a540c301a54ac
:101c90000c301a540c301a540c301a540c301a549c
:101ca000ac32a13898540b78022213430b700a000f
:101cb00053785bb2002bfbdb7047c0460018004036
:041cc000700100208f
:020000040000fa
:101cc40030b583b0002301931a4a118c0f330b40b3
:101cd4003f21545ce4b253540f31525cd2b20192ae
:101ce400019a0220920708d512494e2288541901fc
:101cf400114a5218002111730138019ad20709d5eb
:101d04000c494e220120885419010b4a5218002113
:101d1400117301301901084a52185568002d03d077
:101d2400054a53189968a847024a3f23d45403b07c
:0c1d340030bdc04600480041c003002044
:020000040000fa
:101d4000f8b51c4b07001e68b369002b02d13000a8
:101d500000f0e4f84836b4687368013b04d5336892
:101d6000002b1cd03668f6e70c22a55e002d14d19e
:101d70002000114b256625606560a560e360256144
:101d80006561a56108222900583000f027fe6563cf
:101d9000a563a564e5642000f8bd6434dde7042193
:101da000380000f053fc041e3060dbd10c233b6094
:0c1db000f1e7c046902a00000100ffff90
:020000040000fa
:101dbc00f0b585b001900e00140000f001fe012872
:101dcc000bd1731efe2b08d8050002ab1e71002729
:101ddc00af4212d1300005b0f0bd230032005833b1
:101dec0003a9019800f058fc0500431cefd14023d7
:101dfc00a2891343a3810600ece703abd95da3686a
:101e0c00013ba360002b04daa269934207db0a2989
:101e1c0005d023685a1c226019700137d8e72200bc
:0c1e2c000198fff743fc431cf7d1e4e7ea
:020000040000fa
:101e380070b5002818d0c317c5185d40c40f280016
:101e480000f004fb164b1b1a5b055e0d0a2820dc0c
:101e580003002a0015339a4013000b22101a2a0097
:101e6800c2401203120b03e00024002600220023c4
:101e7800002112031800130b0a0d0a4d12051a430c
:101e88002a40330513435b00e4075b08234319002a
:101e980070bd2a000b3882401203120b0023e7e7bb
:101ea8001e040000ffff0f8030b5144d0a034b00dd
:101eb800120b5b0dc90f0024ab4204dd104ca3428a
:101ec80003dd104bcc18200030bd8024640322436e
:101ed8000d4ce41a1f2c08dd0c48c31ada40130015
:101ee8005c420029efd11c00ede7094de040ac460b
:101ef80063449a4013000343f2e7c046fe03000020
:101f08001d040000ffffff7f3304000013040000de
:041f1800edfbffffdf
:020000040000fa
:101f1c00836913b50400002b28d18364c364036563
:101f2c00134b144a1b6882620193984201d101231e
:101f3c0083612000fff7fefe60602000fff7fafed1
:101f4c00a0602000fff7f6fe0022e060042160682c
:101f5c0000f0d2f901220921a06800f0cdf902228b
:101f6c001221e06800f0c8f90123a36113bdc0463b
:081f7c00902a0000bd290000bd
:020000040000fa
:101f840010b5bff35f8f62b6144bc02189005a5855
:101f94001202120ac020000602435a5008221a6094
:101fa400c12292009958ff24a1433f3c21439950f8
:101fb4001021196099580a4c0c40c021090421438e
:101fc400995040221a60c22189005a581202120afa
:101fd40002435a50802212011a6010bd00e100e051
:041fe400ffff00fffc
:020000040000fa
:101fe800144b01221a601a00d369002bfcd1114b43
:101ff800802252005a601a00d369002bfcd10d4b85
:10200800e822da600c4a1a601a00d369002bfcd166
:10201800084b10225a831a00d369002bfcd1074bb6
:10202800002221215a5401395a54024b83329a759d
:102038007047c0460010004216001000f40200204d
:020000040000fa
:1020480010b50d4a00215160916011730b480c4b7b
:1020580058630c4c9c630c4c5c613f2419550b492c
:1020680059640b490180012111704d2202319954a4
:10207800084a1a8010bdc046c0030020b0030020e3
:1020880000480041a0030020818181810008800070
:0820980009040000020f000022
:020000040000fa
:1020a0000b6970b505000c00002b01d1002070bd3c
:1020b000002804d08369002b01d1fff72fff0b4bc1
:1020c0009c4209d16c680c22a35e002beed021004b
:1020d0002800fff701f9eae7054b9c4201d1ac6803
:1020e000f1e7044b9c42eed1ec68ece740030020a2
:0820f000600300202003002022
:020000040000fa
:1020f80010b5114b00229a61da61104b83321a76bf
:102108005a680f4c22405a601a00d369002bfcd140
:1021180000290cd0084a20330324d4544000084333
:10212800064b58621a00d369002bfcd110bd024a35
:1021380020230424d454f1e7f402002000100042c4
:04214800fffffbff9b
:020000040000fa
:10214c0070b50e001d000e23c95e90b0140000295e
:10215c0007da00232b60b3891b0611d48023db0024
:10216c000fe001aa00f088fb0028f2dbf022029bb2
:10217c0012021340054a9b185a4253412b60ede75b
:10218c0040230020236010b070bdc04600e0ffff6c
:020000040000fa
:10219c0010b5064c2378002b07d1054b002b02d031
:1021ac00044800e000bf0123237010bd8003002011
:1021bc000000000000000000044b10b5002b03d001
:1021cc000349044800e000bf10bdc04600000000f9
:0821dc00840300200000000054
:020000040000fa
:1021e400f0b5c64600b50e4d00240e4f01239846a7
:1021f40004e03e6101340c35102c0ed02a7ae3b28f
:102204009a42f7d13b694646a6401e42f2d02b685b
:10221400002beed068689847ebe704bc9046f0bd0d
:082224007001002000180040c9
:020000040000fa
:10222c0010b50a4b98470a4b9847fff7bbfc094b74
:10223c00ff229343084a9360084b9847084b9847f2
:10224c00084b9847fef704fefee7c046fb2900004a
:10225c00fb2900000000000000ed00e075220000ea
:08226c00fb290000fb29000022
:020000040000fa
:1022740070b500260c4d0d4c641ba410a64209d168
:102284000026fdf713ff0a4d0a4c641ba410a64256
:1022940005d170bdb300eb5898470136eee7b300a3
:1022a400eb5898470136f2e7bc000000bc00000080
:0822b400bc000000c0000000a6
:020000040000fa
:1022bc00f8b50d00096e06001400d718890418d55e
:1022cc009f08bf00d719bc4201d1002008e02a00aa
:1022dc0002cc300000f0f4fa431cf4d1012040424f
:1022ec00f8bd21782a00300000f002fa0134431cba
:0822fc00f4d0bc42f5d1e8e783
:020000040000fa
:10230400002310b504000360436083608181036689
:10231400c28103614361836119000822583000f0cf
:102324005bfb054b24626362044ba362044be362d0
:10233400044b236310bdc04679270000b12500007b
:08234400792600002d2a00009b
:020000040000fa
:10234c000f4b802212021a61012248215a5401318a
:10235c005a5406310520585407315a5401315a54f5
:10236c003332243999540732213999548022d205b9
:10237c006e315a5010315a50de2200219954704758
:04238c0000440041c8
:020000040000fa
:10239000f7b504000700002601914834002c01d154
:1023a0003000febd6368a5680093009b013b00936d
:1023b00001d52468f2e7ab89012b08d90e22ab5e68
:1023c000013304d029003800019b98470643643547
:0223d000ebe739
:020000040000fa
:0223d200704752
:020000040000fa
:1023d4000e4b01221a801a00937a5bb2002bfbdbae
:1023e4000a4b80221a801a00937a5bb2002bfbdb23
:1023f400064b802292009a611a00937a5bb2002bfa
:10240400fbdb024b0122da717047c0460014004026
:020000040000fa
:10241400f8020000980100009801000094010000f7
:102424009e0100009e010000b4020000940100001f
:102434009e010000b40200009e010000940100000f
:10244400b0020000b0020000b0020000c2020000ae
:020000040000fa
:102454001c2101231b04984201d3000c10391b0ad0
:10246400984201d3000a08391b09984201d3000994
:10247400043902a2105c40187047c04604030202eb
:0c24840001010101000000000000000048
:020000040000fa
:102490000eb410b500249bb00a4b1daa02ca0693c5
:1024a0000393094b0190059001a80493199400929d
:1024b00000f034fa019b1c701bb010bc08bc03b0c8
:0c24c0001847c046ffffff7f0802ffff27
:020000040000fa
:1024cc0070b50c1e0ed0002a0cd01500022801d9b4
:1024dc00280070bd084b002b06d01100200000e036
:1024ec0000bff5e70025f3e78e1820780134fff7dd
:0c24fc006affb442f9d1ebe700000000d9
:020000040000fa
:1025080070b50c4d20242d5d0024002d01d0200035
:1025180070bd084ca080e360049b6361a1602261e8
:102528000023a37023702122a3540021fff7e0fdac
:082538000124ece7f40200208d
:020000040000fa
:102540000a4b0b4a1a600b4a9a81802252025a6047
:102550001a00d369002bfcd1044a136802210b43f3
:102560001360d369002bfcd17047c04600140042b1
:08257000040110402bf6ffffef
:020000040000fa
:1025780010b50c4b06225a60fff7e4fefff7fef891
:10258800fff7daff00f036fafff72afdfff78ff8ba
:10259800fff756fdfff750fbfff718fffff7eefcbc
:0825a80010bdc04600400041d7
:020000040000fa
:1025b000f8b51f008b8905000c001600db0505d55a
:1025c0000e23c95e0022022300f0fef8a389054a0b
:1025d00028001340a38132000e23e15e3b0000f08f
:0825e000dff8f8bdffefffff7b
:020000040000fa
:1025e8003031323334353637383941424344454641
:1025f80000303132333435363738396162636465d7
:102608006600232d302b2000686c4c0065666745fa
:0326180046470032
:020000040000fa
:10261c00084a1368002b09d007491818884202d8b9
:10262c0010601800704701235b42fae7034b1360fc
:10263c00f2e7c046e8030020f8050020f80300206c
:020000040000fa
:10264c0070b564254a1e55430e0029007031fff702
:10265c005bf9041e08d000212a00016046600c3092
:0c266c00a060643200f0b4f9200070bde2
:020000040000fa
:1026780070b50c000e25495f00f0a2f8a389421c32
:1026880003d1054a1340a38170bd80225201134330
:0c269800a3816065f8e7c046ffefffff7c
:020000040000fa
:1026a4007fb51d00084b0400e0331e682b00002991
:1026b40001d10a0001a9b047431c03d100232b60b8
:0c26c4008a33236004b070bd04000020c5
:020000040000fa
:1026d00070b500290fd0002a0dd01500002808d1b0
:1026e0000c008e18012000f0cff920700134b442a4
:0c26f000f8d1280070bd0025fbe7c046b3
:020000040000fa
:1026fc00936810b5013b9360002b04da9469a342f4
:10270c0007db0a2905d01368581c106019700800e3
:0a271c0010bdfef7cbff0100f9e746
:020000040000fa
:02272600fee7cc
:020000040000fa
:1027280030b543001b189b00064ce3181b7a834204
:1027380000d030bd43001d18ad002951601942601a
:08274800f7e7c0467001002014
:020000040000fa
:1027500010b5074a107ac0b2064b1871c121117228
:102760001b68002b02d0034a9168984710bdc046f1
:0827700000140040d00300201a
:020000040000fa
:1027780070b50c000e25495f00f036f8002803db21
:10278800636d1b18636570bda389024a1340a3815a
:08279800f9e7c046ffefffff67
:020000040000fa
:1027a00070b50500080011000022064c22601a00d6
:1027b00000f062f9431c03d12368002b00d02b608a
:0827c00070bdc04600000020be
:020000040000fa
:1027c80070b50500080011000022064c22601a00ae
:1027d80000f046f9431c03d12368002b00d02b607e
:0827e80070bdc0460000002096
:020000040000fa
:1027f00070b50500080011000022064c22601a0086
:1028000000f036f9431c03d12368002b00d02b6065
:0828100070bdc046000000206d
:020000040000fa
:1028180082b0002900d101a9101e06d0002b06d0d5
:1028280013780b601078431e984102b0704702205d
:042838004042fae739
:020000040000fa
:10283c00002370b5064c050008002360fff7e8fe86
:10284c00431c03d12368002b00d02b6070bdc04605
:04285c000000002058
:020000040000fa
:10286000002370b5064c05000800236000f0f0f866
:10287000431c03d12368002b00d02b6070bdc046e1
:042880000000002034
:020000040000fa
:10288400002370b5064c050008001100236000f019
:10289400e1f8431c03d12368002b00d02b6070bdea
:0428a4000000002010
:020000040000fa
:1028a800002370b5064c05000800236000f0d4f83a
:1028b800431c03d12368002b00d02b6070bdc04699
:0428c80000000020ec
:020000040000fa
:1028cc0010b50c23d45e80239b011c4204d11c4305
:0e28dc009481146e23431366fff76afa10bd51
:020000040000fa
:0228ea00fee707
:020000040000fa
:1028ec00044a138802210b431380937a5bb2002baa
:0828fc00fbdb704700140040f3
:020000040000fa
:1029040010b500f049f8002802d1024b01221a70d8
:0829140010bdc046f1030020d4
:020000040000fa
:10291c0010b513000a00010002480068fdf744fee0
:08292c0010bdc046dc030020d1
:020000040000fa
:102934000b1e04d0ff2a04d98a2303608b3b1800a2
:0829440070470a700123fae755
:020000040000fa
:10294c00c9b28218904201d10020704703788b42a3
:06295c00fbd00130f6e79c
:020000040000fa
:02296200fee78e
:020000040000fa
:10296400034b98611a00937a5bb2002bfbdb704730
:04297400001400400b
:020000040000fa
:10297800012800d07047024b01221a70fae7c046be
:04298800f203002036
:020000040000fa
:10298c0003010248c018416082607047c0030020f8
:020000040000fa
:10299c00024a2123d05cc0b27047c046f40200202a
:020000040000fa
:1029ac00c30702d5014b01221a707047f0030020b7
:020000040000fa
:1029bc0010b50249fff7e6fc10bdc046a12000008f
:020000040000fa
:1029cc009423024a5b00d05c7047c0460400002090
:020000040000fa
:1029dc0003001218934200d1704719700133f9e7c4
:020000040000fa
:0e29ec000023c25c0133002afbd1581e704745
:020000040000fa
:0229fa00704724
:020000040000fa
:0c29fc00014b82225a60704700400041ed
:020000040000fa
:0c2a0800014b186099607047d00300205b
:020000040000fa
:0c2a1400014b586299627047f4020020e8
:020000040000fa
:0c2a2000014b01221a707047ee030020e9
:020000040000fa
:0c2a2c0010b50e23c95efff715ff10bdaa
:020000040000fa
:0c2a380080239b0100204b607047c046cb
:020000040000fa
:0b2a44004300504f53495800002e0083
:020000040000fa
:082a500010b500f015f810bdef
:020000040000fa
:082a580010b5fff7edff10bd02
:020000040000fa
:082a600010b500f017f810bddd
:020000040000fa
:082a680010b500f015f810bdd7
:020000040000fa
:082a700010b5fff72dfe10bdab
:020000040000fa
:082a780010b5fff727fd10bdaa
:020000040000fa
:082a8000012040427047c046ee
:020000040000fa
:042a88000020704773
:020000040000fa
:042a8c007047c04689
:020000040000fa
:042a9000940200208c
:020000040000fa
:042a94000120704766
:020000040000fa
:042a98000020704763
:020000040000fa
:022a9c00704781
:020000040000fa
:0200000400807a
:0440000077c700d8a6
:020000040000fa
:0200000400807a
:044004005c00ffff5e
:00000001FF
