:020000040000fa
:10000000f0ff03206929000067290000732a00001f
:10001000c72d00006f3100000f320000000000000b
:10002000000000000000000000000000f3320000ab
:10003000df2c000000000000f33200004d3d000006
:10004000f3320000f3320000f3320000f33200001c
:10005000f3320000f3320000f3320000f33200000c
:10006000f3320000f3320000f3320000f3320000fc
:10007000f3320000f3320000f3320000f3320000ec
:10008000f3320000f3320000f3320000f3320000dc
:10009000f3320000f3320000f3320000f3320000cc
:1000a000f3320000f3320000f3320000053d00009f
:1000b000f3320000f3320000f3320000f3320000ac
:1000c000f3320000f3320000f3320000f33200009c
:1000d000f3320000f3320000f3320000f33200008c
:1000e000f3320000f33200000000000000000000c6
:1000f00000000000f3320000f3320000f332000091
:10010000f3320000f3320000f3320000f33200005b
:10011000f3320000f3320000a51b0000a51b000015
:10012000a51b0000a51b0000f3320000f332000005
:10013000f3320000f3320000f3320000f33200002b
:10014000f3320000f3320000f3320000f33200001b
:10015000f3320000f3320000000000000000000055
:10016000000000000000000000000000000000008f
:100170000000000000000000f3320000f332000035
:10018000f3320000f3320000f3320000f3320000db
:1001900000000000f3320000f3320000f3320000f0
:1001a000f3320000f3320000f3320000f3320000bb
:1001b000f3320000f3320000f3320000f3320000ab
:1001c000f3320000f3320000f3320000f33200009b
:1001d000f3320000f3320000f3320000f33200008b
:1001e000f3320000f3320000f3320000f33200007b
:1001f000f3320000f3320000f3320000f33200006b
:10020000f33200000000000000000000f3320000a4
:10021000f3320000f3320000f3320000f33200004a
:10022000f3320000f3320000f3320000f33200003a
:10023000f3320000f3320000f3320000f33200002a
:10024000f3320000f3320000f3320000f33200001a
:10025000f3320000f3320000f3320000f33200000a
:020000040000fa
:10026000f8b500bff8bc08bc9e467047ed330000ef
:10027000f8b500bff8bc08bc9e467047c933000003
:020000040000fa
:08028000940f000001000000d2
:020000040000fa
:100288002de9f04f2ded028bd2e9008997b0cde929
:100298000c138b6808930b690f90d1e900b614937f
:1002a800cd68002200234046494603f04ffa40b982
:1002b8001bf0040f32d11bf00803059330d0202324
:1002c80003e089f0004399462d232b70089b03f126
:1002d800ff3a012305934c4929f0004300208b4243
:1002e80008bf80451fd10d9b413b192b059b94bf2f
:1002f800464947492b44184603f0aefe284603f00a
:1003080087fecdf800b00246089b0f98294602f0f8
:10031800edfb17b0bdec028bbde8f08f2b23d4e7c3
:10032800ddf820a0d7e7994208bf404509d20d9bc8
:10033800413b192b059b94bf364937492b44184636
:10034800dae7002200234046494603f0d0fa9fed41
:100358002c7b8ded027b48b300240d9803f068feda
:10036800002ec3b20993c0f2e781672b5ad1002e41
:1003780008bf0126231d02dbb442c0f2ca816527eb
:1003880061e09ded067b8ded027b01340022234b5d
:10039800dde9020101f076fe42464b46cde9060151
:1003a80003f0b8f90028ecd000271fe00446ede779
:1003b80014f5967f11da87b90022194b4046494651
:1003c80001f060fe002280468946154bdde90201f6
:1003d80001f058fecde902010127dde90201002202
:1003e8000e4b01f0d0facde90201013cdde9022310
:1003f8004046494603f0aaf90028d9d1ade700bf25
:10040800000000000000f03f0000f07fe83f00001f
:10041800ec3f0000f03f0000f43f000000002440e3
:1004280000005043099f662f06f101060bd1002cee
:1004380004da9fedbb7b8ded027b0024099b672bc3
:1004480018bf361966279ded027bcde906898ded2b
:100458000a7b00230e93dde90a23dde9060101f09a
:1004680092fa41ec100b02f033f851ec100bb0ee9d
:10047800408af0ee608a02f013ffb0ee480af0ee10
:10048800680a069b1093079b159083f0004311930d
:100498009ded0a1b9ded102b03f0fefa53ec102b7b
:1004a80083f000430793dde90a01a14b8ded060aad
:1004b800002201f068fa0e9b01339e42cde90a0141
:1004c8000e93c8d100229b4b01f0dcfdcde90a0157
:1004d80002460b46dde9060103f038f9002840f032
:1004e8008580dde90a23dde9060103f000fa10b191
:1004f800159bda077ad5dde90a234046494601f01b
:1005080023f90022cde90601894bdde9020101f05a
:10051800b9fddde90623cde90a0103f050f800280a
:1005280069d0662f04f1010469d10136a146a9eb0f
:10053800060310934ff000080bf01003059ecdf84a
:1005480008801593109b994540f08380029b002bef
:1005580000f0c9800022652f05eb0600aa5529d1b5
:10056800149b1499013b9442ea54c1f1030ebcbf99
:10057800644201220a21002c40f0bc800eeb030cdf
:10058800bcf1000f00f3b680002a03f1ff3114bf5d
:100598002d222b226a540d9a413a023b192a98bf00
:1005a80045279e4205eb0301ef54aaf1020a01da3e
:1005b80003f052fd0bf00303022b7ff49faebaf158
:1005c800000f7ff79bae284603f022fd05eb0a03d8
:1005d800059a824240f39980059b2b44184652465f
:1005e800302103f00dfd0023089387e69fed4e7b35
:1005f8008ded0a7b7fe79ded027b8ded0a7b652ff4
:1006080014bfa1464ff0000991e7029a52b9b9f117
:10061800000f07da0e992e226a54012201360af1d8
:10062800ff3a029205eb0801aa19314403e04ff0a2
:10063800300002f8010b9142f9d108eb0602303381
:10064800aaeb080808f1ff3a561cab544ff0000813
:1006580027e00c9b0e961b69053bb3427ff676afed
:10066800dde90a23dde9060101f08df941ec100b03
:1006780001f02eff51ec100bb0ee408af0ee608acc
:1006880002f00efe159a09280346a8bf0923024363
:10069800bbd1099a672ab8d1b9f1000fc2da08f1bb
:1006a8000108069b1293079bb0ee480af0ee680a11
:1006b80083f0004313939ded0a1b9ded122b03f06d
:1006c800ebf953ec102b83f000430793dde90a01a3
:1006d8000022174b8ded060a01f055f909f1ff3993
:1006e800cde90a012ee71bf0100f1ebf2e23ab55d4
:1006f80001362fe7b4fbf1fc013b01fb1c4430340d
:10070800ec540af1ff3a644635e72a5c1a5401387a
:100718005ee7002cbff696ae662784e6062629e635
:10072800000000000000f03f000000000000000092
:100738000000244000001440099b672beed01f46a0
:04074800062670e62b
:020000040000fa
:10074c002de9f04f89b00e460025049505950695c8
:10075c00cdf81b500a24039097e13946039f4feaca
:10076c001e1e4eea0b1b4bea0a3afb8c5b00c3ebda
:10077c00ea0a4fea6a0303fb03f31b1397f92a20d7
:10078c00120102fb03f3b7f928200afb02fa9b13b0
:10079c0003ebea233b6403eb830380331b12b3802c
:1007ac0097ed107abaeeef7adfedd67a37ee677afc
:1007bc0097f9302007ee902af8eee77a67ee877a01
:1007cc0067ee877adfedd06a67eea67ab7f92e204e
:1007dc0006ee902af8eee66a66ee876a77eea67a5f
:1007ec00dfedca6a67eea67adfedc96a67eea67a14
:1007fc00f7ee006a77eea67aba8d06ee902af8ee3e
:10080c00666a66eea76afdeee67a17ee903a002b62
:10081c0000f0348197f9363007ee903af8eee77a2b
:10082c00dfedbc5a67eea57a27ee076a26ee276a3b
:10083c00b7f9343007ee903af8eee77a27ee877a7c
:10084c0037ee077a37ee067af5ee007a27ee277a3e
:10085c000b09029a43ea0213019a43ea023307eea8
:10086c00903af8ee677a9fedac6a36ee676ab7f9a4
:10087c00323007ee903af8eee77a9feda85a67ee21
:10088c00857a77ee877a9feda67a67ee877a76ee91
:10089c00677a9feda47a67ee877a87eea67a9fed4a
:1008ac00a26a27ee066ab7f93a3007ee903af8eeec
:1008bc00e77a67ee877a67ee877adfed9c6a67eef8
:1008cc00a67ab7f9383006ee903afaeee86a66ee98
:1008dc00876a77eea67a97f83c3006ee903af8eef7
:1008ec00e66a66eea56a66ee065a25ee866a66ee3e
:1008fc00866a77eea67a97f9373006ee903af8eedc
:10090c00e66a9fed8b6a66ee866a77eea67adfed75
:10091c00896a67eea67a77ee277ac6ed027a3b6c87
:10092c0003eb830380331b1297f91e2003fb02f2a7
:10093c00814981fb02aed217c2eb6e1203fb02f2ad
:10094c004feaa21e81fb0eaed217c2eb6e1297f9c4
:10095c001de003fb0efe81fb0eba4feaee7eceebe2
:10096c006a1e724402f58042b7f81aa00afb02f222
:10097c004feaa22a4cea092cb7f818e0aceb0e1c93
:10098c0097f91ce003fb0efe81fb0e924feaee7e04
:10099c00ceeb621eaceb6e0e0efb0af297f920c08a
:1009ac0003fb0cf381fb03c1db17c3eb6113f97f72
:1009bc0003ebc113911301fb01f189121b1103fb12
:1009cc0001f302eb63039a124ff47a7303fb02f305
:1009dc001b1323eae373594a9342a8bf1346f360ef
:1009ec0097f9463007ee103ab8eec77af1ee047a72
:1009fc0027ee277a00f00f07bb0051491944d1edbf
:100a0c00006adfed507a86eea76af7ee005a36eef2
:100a1c00256a4d4a1a4492ed005ac5ee276a8009a0
:100a2c0040ea880007ee900af8ee677a9fed475a85
:100a3c0077eec57a9fed465a37ee057a27ee067aa1
:100a4c0087ee876a36ee256a36eea57adfed417ab7
:100a5c0027ee277a0123bb4007ee903af8eee77aaf
:100a6c0067ee277a66ee277a85eea77abceec77a10
:100a7c0086ed047a002c08bf02253fe0dfed367ac4
:100a8c004be7013c14f0ff0437d0002df9d10f22b5
:100a9c0004a91d2003f00cf905469df8101001f077
:100aac000f0373709df81130b3709df812300193e1
:100abc009df8133002939df814709df815a09df8c5
:100acc0016b09df817e09df818909df819c09df888
:100adc001d809df81e0042b221f07f0102f0200320
:100aec000b4302f0100213435bb23370002bfff682
:100afc0034ae0a2002f0e2fcc3e70225284609b016
:100b0c00bde8f08f00007a47000080380000003606
:100b1c0000000038000000370000804900008047ca
:100b2c00000080390050c3450000803b00000030bd
:100b3c00000000430000803d1f85eb51a0860100a2
:100b4c00083400000000c842483400000000004493
:0c0b5c000080a744bd37063400000000f4
:020000040000fa
:100b680070b592b004462922002107a803f048fa7c
:100b780000238df81b30192207a9892003f09af861
:100b880010220df13501e12003f094f89df83e2084
:100b98009df83d3043ea0223e3849df81e209df82a
:100ba8001d3043ea022323859df81f3084f82a303c
:100bb8009df822209df8213043ea0223a3859df861
:100bc80024209df8233043ea0223e3859df825304d
:100bd80084f830309df828209df8273043ea022316
:100be80063869df82a209df8293043ea0223a386cc
:100bf8009df82c3084f836309df82b3084f8373047
:100c08009df830209df82f3043ea022323879df872
:100c180032209df8313043ea022363879df8333050
:100c280084f83c309df836309df8371003f00f02f9
:100c380042ea011222839df835201b0943ea021378
:100c480063839df8383023779df8393063779df8b2
:100c58003a30a3779df83b30e3779df83c3084f831
:100c680020309df8413084f821309df840209df8cf
:100c78003f3043ea022363849df8423084f82430ed
:100c880001220df11b01022003f014f89df81b301e
:100c9800c3f3011384f8443001220df11b01002035
:100ca80003f008f89df81b3084f8453001220df157
:100cb8001b01042002f0feff9df91b301b1184f874
:100cc800463000238df803300393adf810300593b8
:100cd800adf8183094f85550adf80430adf8083038
:100ce800012d03d0002384f8553074e05a238df881
:100cf8000430b4f9222002f5163303f29913b4f83c
:100d08005020b2f5c87f28bf4ff4c87202fb03f227
:100d18007f4880fb0213d217c2ebe30202f54812a8
:100d280080fb0213d217c2eba30294f9211001f53c
:100d3800447101fb02f202ebd27294f9243080fb79
:100d48000310db17c3eb20131b0203eb620394f8b9
:100d58004420043293fbf2f394f9452002eb82110c
:100d680002eb410202f5803293fbf2f3fa3b03eb0c
:100d780003135b003233674a82fb0312db17c3ebb2
:100d880062138df8083064238df80530b4f85220ca
:100d9800b2f57c6f80f0b3803f2a40f2ad8000232b
:100da80000e00a46c2f38f010133dbb2ff2af8d80c
:100db80001eb8313dbb28df80930002684f84c6010
:100dc800022202a901a801f00ffe84f8556010b9ab
:100dd800204601f0dffc94f84b30072b84bf072333
:100de80084f84b3001220df10301752002f062fff7
:100df80094f84b309b0003f01c039df8032022f06d
:100e08001c0213438df8033075228df80c208df8e1
:100e1800143094f84930052b84bf052384f84930f1
:100e280001220df10301742002f044ff9df8033004
:100e380003f01f0394f8492043ea421394f84a2028
:100e4800920002f01c0203f0e30313438df8033011
:100e580074228df80d208df8153094f84830052b44
:100e680084bf052384f8483001220df10301722064
:100e780002f020ff9df8033023f0070394f8482080
:100e880002f0070213438df8033072228df80e200a
:100e98008df8163094f84e30012b84bf012384f866
:100ea8004e3094f84c300a2b84bf0a2384f84c3017
:100eb80001220df10301712002f0fcfe94f84e307e
:100ec8001b0103f010029df8033003f0e003134305
:100ed80094f84c2002f00f0213438df8033071226e
:100ee8008df80f208df8173058b184f855502046ea
:100ef80001f050fc12b070bd1146002358e7ff23e3
:100f080059e7042205a903a801f06efdede700bf2b
:080f1800676666661f85eb5158
:020000040000fa
:100f20002de9f04fadb00027dff8e4a203910646ab
:100f30001546b8464ff0ff3903990b78002b00f0a7
:100f4000f9800cabcde907890a938023cdf8248082
:100f50000b9300240b5d0bb1252b26d134b1224617
:100f6000304602f04efb039b23440393039b1a7805
:100f7000252a40f0d78003f1010bcdf80cb003987f
:100f800003782b2b1ad025d8202b1bd0232b1dd038
:100f90002a2b27d002f0d2f90990039b1a78303a15
:100fa000092a2ed801330393f7e70134d2e7079bd0
:100fb00043f00103013007930390e0e7079b43f000
:100fc0000403f7e7079b43f00803f3e7079b43f0ad
:100fd0001003efe72d2bead0302bd9d1079b43f03c
:100fe0000203e7e72b681a1d1b682a600130002bfb
:100ff0000390099305da079a5b4282f00102079297
:101000000993079bda0744bf23f002030793039b6e
:101010001a782e2a0dd1581ccdf8208003905a78ca
:101020002a2a25d1023303932b681a1d1b682a60d4
:10103000089303a802f01efb039b0190187802f0ae
:10104000fbff6928019979d032dc632800f0c68063
:1010500019dc252800f0d080612853d025238df895
:101060001030cdf80cb0cdf81c80cde90898c0e068
:1010700002f064f90890039b1a78303a092ad8d80c
:1010800001330393f7e7642858d06728e6dc2a4643
:1010900004a802f085fd002800f09c80039b5a1ce8
:1010a00003921b7804aa07a93046fff7edf838e051
:1010b000702873d015dc6e2800f087806f28cdd1a2
:1010c0002b46002204a801f06dfa002800f082806f
:1010d000039b04aa013307a93046039301f03afeab
:1010e0001fe075283ad0782848d07328b6d18029d7
:1010f00070d1039b2a6801330393131d2b60126880
:1011000000235be02a4604a802f04afd002861d0d3
:10111000039b5a1c03921b7804aa07a9304602f0cd
:10112000ecff04443c44a7426edd384b4f221a606a
:101130004ff0ff3738462db0bde8f08f2b46012227
:1011400004a801f02ffa002844d0039b04aa01331d
:1011500007a93046039301f07bfae2e72b46002211
:1011600004a801f01ffa002834d0039b04aa01331d
:1011700007a93046039301f0cfffd2e72b460022a8
:1011800004a801f00ffa28b3039b5a1c03921b78a2
:1011900004aa07a9304601f011f8c2e72b46002245
:1011a000f02104a801f0fef9a0b1039b01330393e1
:1011b000dde90423134306d10023524607a9304634
:1011c00001f052ffade77823e2e72b463a1904a875
:1011d00001f0d0fc039b01330393a3e78029f9d1ed
:1011e000039b013303932b681a1d1b682a608df83b
:1011f0001030012304aae1e78029ebd1039b8df88d
:10120000100001330393f4e7274695e6f00700202a
:04121000663e000036
:020000040000fa
:101214002de9f04f099f154604468e461e46002bc5
:1012240040f0cc808a42b2fa82fc4cd9bcf1000f67
:101234000bd0ccf1200801fa0cfe20fa08f802facf
:101244000cf548ea0e0e00fa0cf44fea15491ffaa1
:1012540085f8befbf9fa210c09fb1ae30afb08fb2b
:1012640041ea03439b452ad9eb180af1ff3004d223
:101274009b4502d9aaf102002b44a3eb0b03a4b2b1
:10128400b3fbf9f209fb123302fb08f844ea034406
:10129400a04516d92c1902f1ff3303d2a04501d978
:1012a400931e2c44a4eb080443ea004027b124fa1b
:1012b4000cf400233c607b603146bde8f08f50465f
:1012c400dbe71346eee702b9ffdebcf1000f2ed1d7
:1012d4008b1a01264fea154eaab2b3fbfef8210c75
:1012e4000efb183308fb02f941ea0343994561d91f
:1012f400eb1808f1ff3004d2994502d9a8f1020095
:101304002b44a3eb0903a4b2b3fbfef10efb113390
:101314004a4344ea0344a2424ed92c1901f1ff3353
:1013240003d2a24201d98b1e2c44a41abce7ccf1ef
:10133400200e02fa0cf521fa0ef901fa0cf320fa48
:101344000efe4eea03034fea154800fa0cf4b9fb0b
:10135400f8f11ffa85fe08fb1192180c01fb0ef63a
:1013640040ea0242964221d9aa1801f1ff3003d281
:10137400964201d9881e2a44921b9bb2b2fbf8f90b
:1013840008fb192209fb0efe43ea02439e450fd9ce
:10139400eb1809f1ff3604d29e4502d9a9f10206e1
:1013a4002b44a3eb0e0346ea004693e70846e3e723
:1013b4004e46f6e74046a4e70b46b6e78b4206d90d
:1013c400002f7ed00026c7e90001304674e7b3fa47
:1013d40083fcbcf1000f0fd18b4201d3824209d8a8
:1013e400841a61eb030e0120002f6dd0c7e9004e73
:1013f400002661e76046f7e7ccf1200e03fa0cf310
:1014040022fa0ef521fa0ef41d4301fa0cf320fa28
:101414000ef10b434fea154a00fa0cf6b4fbfaf945
:101424001ffa85f80afb19401c0c09fb08f144ea71
:101434000044a14202fa0cf23fd92c1909f1ff3001
:1014440004d2a14202d9a9f102002c44641a9bb22d
:10145400b4fbfaf90afb194409fb08f843ea04410e
:1014640088452cd9691809f1ff3304d2884502d97b
:10147400a9f10203294443ea0040a1eb0801a0fbbf
:1014840002894945c2464c4602d306d1464504d298
:10149400b8eb020a69eb05040138afb1b6eb0a03f5
:1014a40061eb040606fa0efe23fa0cf34eea03037c
:1014b40026fa0cf6c7e900369ae74846c6e74b46d3
:0c14c400d9e73e463846f7e63e46f5e61e
:020000040000fa
:1014d000a80700201c0000000000000006080020f3
:1014e00002000000000000000a08002002000000c6
:1014f000000000000e0800200200000000000000b4
:10150000d406002058000000000000000c08002055
:101510000200000000000000080800200100000098
:1015200000000000d80700200400000000000000b8
:10153000f80700200200000000000000fa07002069
:101540000200000000000000fc0700200200000074
:1015500000000000dc070020040000000000000084
:10156000fe0700200200000000000000000800202c
:10157000020000000000000002080020020000003d
:1015800000000000e0070020040000000000000050
:10159000040800200200000000000000e407002012
:1015a000040000000000000014060020c00000003d
:1015b000000000007c0700202c000000000000005c
:1015c000c40700200c0000000000000009080020f3
:1015d0000100000000000000e807002004000000f7
:1015e000000000002c070020500000000000000058
:1015f000100800206c000000010000001c08002002
:10160000180800201c080020000000002500000031
:10161000080000200004000000000000000000009e
:1016200000000000000000000000000000000000ba
:101630000000000000000000ff400000000000006b
:10164000000000000000000000000000f52e000077
:10165000000000000000000000000000000000008a
:10166000000000000000000000000020080400004e
:1016700000000000dc080020200000000100000045
:101680000100000003000000000000000000000056
:10169000000000000000000000000000d007002053
:1016a000d00700200800000000000000ec07002028
:1016b0000400000000000000f0070020040000000b
:1016c00000000000080400200c02000000000000e0
:1016d0007c08002060000000010000000100000004
:1016e00003000000000000000000000000000000f7
:1016f00000000000000000000d30000000000000ad
:101700000000000000000000eb400000d73f000098
:1017100000000000000000000000000000000000c9
:1017200000000000000000000000000000000000b9
:10173000000000000000000000000000f40700208e
:101740000400000000000000000000000000000095
:020000040000fa
:1017500030b591ea030f00f18280841a71eb030c1b
:1017600005d2121953eb0c03001b71eb0c0140f274
:10177000000ccff6e07c1cea430f52d0bceb410fcb
:101780005fd90c0da4eb135e5ff0010c6cf31f51dd
:101790006cf31f53def1200c2ad303fa0cf5401929
:1017a00041f1000122fa0ef5401923fa0ef56941c4
:1017b00012fa0cf2cd0208d349085fea30005fea62
:1017c000320228bf42f001020134013c5fea500cb2
:1017d00072f1004250f1000051eb04514ff400133c
:1017e00013eb410f38bf30bd6ff31301002030bd44
:1017f000bef1200ebef1200f1ed223fa0ef54019c5
:1018000041f10001cef1200c124218bf012203fa6f
:101810000cf52a43cee711ea5c0f04bf002000213b
:1018200030bd1cea410f04bf01f00041002030bd73
:1018300001f00041002030bd21f4801101eb045182
:1018400030bd004218bf41f00101bceb410f08bfa1
:1018500030bd4ff0fe4141f47801002030bd83f0ef
:101860000043841a71eb030e07d28ef0004e001b6a
:1018700071eb0e01121953eb0e0340f2000ccff680
:10188000e07c1cea430fc6d0bceb410f72d90c0db3
:10189000a4eb135ec90241ea5051c00241f000417d
:1018a000db0243ea5253d20243f00043def1200c44
:1018b00041d312fa0cf522fa0ef203fa0cf542eac1
:1018c000050218bf42f0010223fa0ef3801a994173
:1018d000e30ac4f30a0411f0404f03d418d0013cca
:1018e00040004941013c23d44205c00a40ea41502e
:1018f000c90a51eac3715fea500c72f1004250f11b
:10190000000051eb045130bd01002fd00020203cdd
:101910000029f9d0b1fa81fcdcf1200e11fa0cf1aa
:1019200030fa0ef510fa0cf02943a4eb0c04d9e7b9
:101930000020d90730bdaef1200ebef1200f0dd230
:10194000cef1200c03fa0cf533fa0ef32a4318bf3c
:1019500043f00103c01a61f10001b9e721f0004131
:10196000c00a40ea4150c90a01eb045130bd0020d1
:10197000002130bd004218bf41f00101bceb410f16
:0e1980007ff467afbceb430f3ff463af30bda5
:020000040000fa
:10198e00f0b581ea030e0ef0004e40f20007cff6de
:10199e00e07717ea41051ebf95ea070f17ea4304e1
:1019ae0094ea070f00f0c5806d0da5eb545707f5af
:1019be0080674ff0004646eac12444ea5054c00204
:1019ce0046eac32343ea5253d202801a9c4104d200
:1019de000018644180185c41013f5b084fea3202f7
:1019ee000025002140f001004ff0070604e0801aa8
:1019fe009c4136d340416441801a9c4136d34041cc
:101a0e006441801a9c4136d340416441801a9c4106
:101a1e0036d340416441801a9c4136d340416441e3
:101a2e00013e17d0801a9c4136d340416441801a42
:101a3e009c4136d340416441801a9c4136d340418b
:101a4e006441090201eb156190ea052520f0ff00c3
:101a5e004540cce7801a9c4156d335e080185c4156
:101a6e00c8d20018644180185c41c8d20018644185
:101a7e0080185c41c8d20018644180185c41c8d2fd
:101a8e000018644180185c41c8d200186441013ec0
:101a9e0017d080185c41c8d20018644180185c4190
:101aae00c8d20018644180185c41c8d20018644145
:101abe00090201eb156190ea052520f0ff00454073
:101ace00cce780185c411fd3420918bf44f00104d3
:101ade00490101ebd56100f01f0000eb451021f428
:101aee00801141ea0e01013041f10001244208bf8c
:101afe0020f00100b7f5006f3eda013f49dd01eb42
:101b0e000751bde8f0407047490101ebd56100f087
:101b1e001f0000eb451021f4801141ea0e01b7f5cc
:101b2e00006f29da013f34dd01eb0751bde8f040cb
:101b3e007047004218bf41f00101124218bf43f036
:101b4e000103b7eb410f2cbfb7eb430f1ce0b7eb14
:101b5e00410f04bfb7eb430f16e017ea410f04bf66
:101b6e0017ea430f10e017ea410f12d017ea430f9e
:101b7e0002d0b7eb430f0cd04ef0fe4141f4700192
:101b8e000020bde8f04070474ff0fe4141f478016f
:061b9e00f6e77146f4e7d2
:020000040000fa
:101ba40008b5694b9b7dd3b1674b5b8b13f0020f78
:101bb40016d0664bff2283f82020022283f82120ce
:101bc400624b93f820305bb2b3f1ff3f00f08b809f
:101bd4005e4b93f820305bb2062b00f09c8008bd6e
:101be400594b5b8b13f0010f07d0584bff2283f83e
:101bf4002020022283f82120e2e7534b5b8b13f071
:101c0400040f07d0514bff2283f82020012283f8d0
:101c14002120d5e74d4b93f820305bb2032b42d003
:101c2400042b10d0022bcbd1484b1b692bb10021c4
:101c3400464b988801f0eafac2e70121434b9888a1
:101c440001f0e4fabce7414a9369126993420bd06c
:101c54003e4a9168c85c3c498862013393610a46f4
:101c6400d369002bfcd1abe7384b5b6973b1374bbd
:101c74009b885b0043f00103334a5362d369002b12
:101c8400fcd1324b032283f8202099e72e4a536873
:101c940043f440335360d369002bfcd12b4b062211
:101ca40083f820208ce7294a5369013bd2699a4280
:101cb4000cd0254ad369002bfcd1234b986a234ac4
:101cc400d369d168c8540133d36179e71e4a536894
:101cd40043f4e0235360d369002bfcd11b4b062251
:101ce40083f82020e5e7194b002283f82020164ac8
:101cf400536843f440335360d369002bfcd1124b37
:101d040083221a76114b5b6a002b3ff468af0f4aab
:101d1400906a984763e70d4b002283f8202083f8ec
:101d24002120094b83221a761a46538b03f0300381
:101d3400102bfad1054b5b6a002b3ff450af034ada
:101d4400906a98474be700bf002001417c070020c0
:020000040000fa
:101d54002de9f04f87b0039003a801f0f3fb0028ae
:101d640003da002007b0bde8f08f039b1b095d1e5a
:101d7400202d0fd9023b5e4ab3f5007f35bf02eb3d
:101d8400d30302ebd31313f8045c13f8045c34bfdd
:101d9400013511350123a5f12001c5f1200203fa13
:101da40001f923fa02f203fa05f8d8f1000849ea26
:101db400020969eb4909cde90089dff84081dff8c0
:101dc40030914746d8e90023009902ea010a0199b3
:101dd40003ea010b5aea0b0342d1039b05a8103313
:101de400059302f0b1f818b9424b0c221a60b9e716
:101df400d8f80852a84206d0059b103b059301234e
:101e040000f110058360059bea18012143f00103ea
:101e1400b5f1080442f8083c42f8041cc7f808224b
:101e240045f8043c9dd0204601f0acfd88b155f83e
:101e3400083c55f8041c23f00103e31a5a6822f005
:101e440001020a445a6055f8041c21f00101625051
:101e54001c462046039901f0ddfd04f1080081e7ea
:101e64005446254bbaf1000f34d1cbf1000000eaff
:101e74000b00434309ebd36393f83c6020363046b0
:101e840001f0a8ff731c57f8334007ebc303083b6a
:101e94009c4297d0272e26dd0235ae4201dc3f2e30
:101ea40021d16268039922f00102551a284601f0f3
:101eb40017fc864217d1e068a6686318d8609e6054
:101ec40083609868c36041f0010060505d60a55074
:101ed4006060bee7caf100002040434309ebd363ce
:101ee40093f83c60cbe73146204601f0e7f8b0e7d1
:101ef400b02f0000f007002029e66b07080400203b
:020000040000fa
:101f04002de9f84f02f036f84d4d284601f0baff9e
:101f14004c4802f024f84c4802f00bf8284602f032
:101f2400b7f810ee100a494b83ed000a01f0aefc3d
:101f3400474c02460b46204601f018ff284602f0a3
:101f4400abf810ee100a434b83ed000a01f09efc3f
:101f540002460b4604f1180001f008ff284602f07f
:101f64009ff810ee100a3c4b83ed000a01f08efc42
:101f740002460b4604f1300001f0f8fe284602f058
:101f840093f80146354b186004f1480001f0eefe69
:101f9400dff8e4b0324d334e5a462946304602f05b
:101fa40087f8dff8d880dff8d890dff8d8a0424669
:101fb4004946504602f080f82b4f2c4b2c4a2d49b1
:101fc400384602f07df8b6f9001004f1600001f023
:101fd400cdfe04f17006b5f90010304601f0c6fede
:101fe40004f17c05bbf90010284601f0bffebaf9e4
:101ff400001004f1880001f0b9feb9f90010304670
:1020040001f0b4feb8f90010284601f0affeb7f9ac
:10201400001004f1980001f0a9fe164bb3f900106a
:10202400304601f0a3fe124bb3f90010284601f02c
:102034009dfe4ff47a7001f045fabde8f88f00bfb9
:10204400d4060020080800200c080020e407002023
:10205400f8260000dc070020e0070020d807002055
:102064000a08002006080020fe07002004080020bb
:1020740002080020000800200e080020fc070020b1
:08208400fa070020f807002014
:020000040000fa
:10208c00f0b540f2ff7681ea030c16ea115e1ebf32
:10209c00b64516ea1355b54252d021ea465141f4e1
:1020ac008011a1fb024723ea465343f48013ae444c
:1020bc00a0fb03650cf0004c36197d41a1fb0347d6
:1020cc0047f10003a0fb0217f619654153f1000319
:1020dc00094218bf46f0010640f2fe74b3f5007fca
:1020ec0013d2aef5806ea64523d24cea03312803f9
:1020fc0041ea155140ea16503203450872f100428c
:10210c0050f1000051eb0e51f0bdaef2ff3ea64572
:10211c000fd24ceac321e80241ea555140ea56502d
:10212c00f202450872f1004250f1000051eb0e51e1
:10213c00f0bd1eea0e0f2dd50cf000410020f0bdb5
:10214c0016ea115f04bf01f000410020004218bfe5
:10215c0041f0010116ea135f04bf03f000430022b3
:10216c00124218bf43f0010306ea1354b44218bfdd
:10217c00b64503d00cf000410020f0bd21f0004129
:10218c0023f00043b1eb065f0cd8b3eb065f09d824
:10219c0041b13bb10cf0004141f0fe4141f4700102
:1021ac000020f0bd40f20001c7f6f8710020f0bd30
:020000040000fa
:1021bc002de9f04fd1e901590e68d1f80c808bb0a4
:1021cc00002da8bf26f002060393b8bf012516f018
:1021dc00100302900f460493d2e900ab37d05aeab1
:1021ec000b0334d0a9f102033c6916f0080104f189
:1021fc00ff3405914ff0000108f8041006f00201bd
:10220c000691039918bf03f1ff335b1b4139012c75
:10221c001fdc049b002b4cd1059b1bb1013c2023e4
:10222c0008f804303a690096013a4b46121b08eb49
:10223c000401029800f058fc029b5b68db0503d597
:10224c007b689842b8bf18460bb0bde8f08f4b4680
:10225c00cae75aea0b0007d1002d05dc58190028f3
:10226c00d7dd06980028d4d00af00f000928d4bf77
:10227c0030305730192904f1ff340ed840f0200cbf
:10228c00acf1610cbcf1190f07d8cde908310792fc
:10229c0001f0d3fedde90831079a08f804004fea93
:1022ac001a1040ea0b704fea1b1c013d8246e346b4
:1022bc00ade7d2e900231343aed008eb0403039a35
:0e22cc0003f8012c023c302308f80430a4e78c
:020000040000fa
:0222da0070474b
:020000040000fa
:1022dc00384b00221a7403f50063374a9a621a4687
:1022ec00536813f0100ffbd1344b4222c3f88420f7
:1022fc001a46d2f8843013f0400ffad0304b00223b
:10230c009a6377225a631a46d36b13f0040ffbd1ee
:10231c002b4b022283f830201a46d36b13f0020f9a
:10232c00fbd1274a136c03f00303032bfad1254b83
:10233c0001225a711a46d37813f0010ffbd01f4bb0
:10234c00214a1a621a46536813f0040ffbd11b4b37
:10235c001e4a5a621a46536813f0080ffbd1174bea
:10236c004122c3f890201a46d2f8903013f0400f57
:10237c00fad0124b4122c3f8dc201a46d2f8dc30da
:10238c0013f0400ffad00d4b4122c3f80c211a4622
:10239c00d2f80c3113f0400ffad00a4b6ff07f4299
:1023ac001a6140f2ff725a61094a9a6102221a625a
:1023bc00704700bf0014004006013000001c0040b4
:1023cc000010004000080040070101000701020056
:0423dc005682010024
:020000040000fa
:1023e0002de9f84300286ad050f8043ca0f1080415
:1023f00023f00106a719a259934200d0ffde7a68a4
:1024000023681340da070fd4204601f0bdfa0028f4
:1024100057d1384601f02efb0028f0d07b6823f01e
:1024200001031e441f44eae746f00103636030469f
:102430003b6001f057f9054601f0cefc23687a684d
:102440001340db07e0d5dff88ce0dee90089c5f159
:10245000200ca5f1200228fa05f009fa0cfc29fa53
:1024600002f240ea0c001043012100ea01020023bd
:102470001343c5f120007346a5f1200212d121fac1
:1024800000f001fa02f2a94042ea00021ebfdef8a3
:1024900000000143cef8001022b1def804100a4318
:1024a000cef80420681c03ebc003a3f108026660a9
:1024b0003e60a2605a68e2605c60e3689c60bde8d0
:1024c000f883236823f00103e41a636823f001030f
:0824d0001e449ee708040020f1
:020000040000fa
:1024d80053ec102bc3f30a512de9f04140f2fd7083
:1024e8004e1e86421d4645d8a1f2ff30002835db36
:1024f800332831dc284bc0f120084ff0ff3c03faa9
:1025080008f2a1f21f412cfa00fc10ee104a4cea26
:10251800020c23fa01f24cea020c23fa00fe04ea48
:102528000c0605ea0e0724ea0c0256ea070425ea17
:102538000e030fd0002a73f100040bda4ff4801554
:1025480005fa08f425fa01f10c43121925fa00f0ee
:1025580040eb030343ec102bbde8f081002a73f134
:10256800000303db9fed080bbde8f0819fed080b2e
:10257800bde8f0810029efd10a4603f0004343ec9f
:10258800102be9e7aff30080000000000000000016
:0c259800000000000000f0bfffff0f007b
:020000040000fa
:1025a400882910b536d012dc812943d003dc802978
:1025b40040d0002010bd82290ed08429f9d1196899
:1025c40002b30a1d1a60b1f90020d3171ee0a02936
:1025d4002bd00bdc9029ecd11968073121f00701cd
:1025e40001f108021a60d1e900230fe0c02901d0eb
:1025f400f029ded11a68111d1960136803600023e5
:10260400436005e00a1d1a600a880023c0e900231c
:102614000120cfe7196822b10a1d1a6091f9002040
:10262400d3e70a1d1a600a78efe71a68111d1960ca
:102634001268cae719681ab10a1d1a600a68c4e761
:0c2644000c1d1c600b68c0e90032e1e7cf
:020000040000fa
:102650002de9f041d2e900230c4686b007465fea37
:10266000d37820684968a5680590e66841d0524251
:1026700063eb4303002908db20f002000590b8f16a
:10268000000f02d1059948072ad5691e05a80290b6
:102690000a20cde90010204600f0aafab8f1000f98
:1026a00002d1059b59071fd5b8f1000f00f1ff308b
:1026b00014bf2d232b2333542269059b0093013a29
:1026c0002b46121a3118384600f014fa7b68db05e5
:1026d00003d563689842b8bf184606b0bde8f081dc
:1026e0000807d2d42946d1e71a07e5d501382023b7
:0826f000e1e70029c0dac5e7ab
:020000040000fa
:1026f80054656d7065726174757265203a20252e77
:1027080032662043200d0a0048756d696469747942
:10271800203a20252e3266202525200d0a000000ab
:102728005072657373757265203a20252e326620c3
:102738006d626172200d0a004761732052657369ea
:102748007374616e6365203a20256c64200d0a005d
:10275800416363656c2058203a20256420000000fe
:102768002059203a2025642000000000205a203af1
:10277800202564200d0a00004779726f2058203afe
:1027880020256420000000004d61672058203a2071
:042798002564200094
:020000040000fa
:10279c00f0b583b0074674238df80630002401256c
:1027ac001e460fe023f003038df807302a460df187
:1027bc0007010df1060000f015f90a2000f07efe6d
:1027cc0000e09cb12a460df10701304601f070fa89
:1027dc0002460028f5d19df8073013f00304e1d12f
:1027ec0097f8553093b9104603b0f0bd97f85510d3
:1027fc000029f8d09df8073023f0030301f0030102
:10280c000b438df807300028edd108e09df8072028
:10281c0022f0030203f0030313438df80730012267
:10282c000df107010df1060000f0dcf80246dae7c5
:020000040000fa
:10283c00f0b583b007460e4615461c4601f0d6fa95
:10284c00012803d001f0d2fa0128fbd10822422141
:10285c00684600f0edfe9df801209df80030db0885
:10286c0043ea42131ab213f4805f0fbf3a806fea47
:10287c00c2436fead3433b809df803209df802309e
:10288c00db0843ea42131ab213f4805f0fbf3280a5
:10289c006feac2436fead34333809df805209df85d
:1028ac0004305b0843eac2131ab213f4804f0fbf13
:1028bc002a806fea42436fea53432b809df807202e
:1028cc009df806309b0843ea8213238003b0f0bdc9
:020000040000fa
:1028dc002de9ff41836946690093f61acde9016140
:1028ec0004461746039216444ff002086d464246c2
:1028fc002946206801f05af8b04209d1d4e90232d5
:10290c00c4e905331a44a262384604b0bde8f0812c
:10291c0000280dda6268002342f01002b8f1020fb1
:10292c00a362c4e90533626015d06b68ff1aebe74c
:10293c006b68984288bf0835a6eb000688bfc01aa2
:10294c002b6803442b606b68a3eb000088bf08f175
:0a295c00ff386860cbe71f46d6e79e
:020000040000fa
:02296600fee78a
:020000040000fa
:1029680008b5194b9847194b9847eff3108172b681
:10297800174ad2f8883043f47003c2f88830bff39e
:102988004f8fbff36f8f01b962b6124a936823f075
:10299800010393601346da6812f0010ffbd10d4b67
:1029a80024225a6001229a6001f0a1fb0a4b23f00d
:1029b8007f03074a9360094b9847094b9847094b8f
:1029c800984700f09dfdfee7833300008333000045
:1029d80000ed00e00060004100000000552f0000fd
:0829e80083330000833300007b
:020000040000fa
:1029f00070b5a4b006460d461446282200211aa838
:102a000001f002fb631edbb2122b2fd8a2b2741ea0
:102a10001aab691e501e16fa80f014f8015f1d7083
:102a200011f8015f5d7002338442f6d19df8683081
:102a30008df804305200013a92b200210b4624a8ce
:102a40000144184410f8270c01f88b0c01331bb219
:102a500019469342f3db013201a9762000f0b0fe63
:102a600001f0f0f80028fbd124b070bd6ff0030036
:022a7000fae783
:020000040000fa
:022a7200fee77d
:020000040000fa
:102a74001d4a137843f001031370536813f0010fd8
:102a8400fbd119490022ca614ff010430b624ff485
:102a940000430b634a630b61144b10221a819a8220
:102aa4001a849a851a87a3f84420a3f85020a3f81f
:102ab4005c20a3f86820a3f87420a3f88020a3f86e
:102ac4008c20a3f89820a3f8a420a3f8b0200f2208
:102ad400a3f8bc200b7843f002030b700a4653683a
:102ae40013f0020ffbd170470028004014060020a9
:020000040000fa
:102af4002de9ff471d460c9b13f0010906468a4643
:102b0400144601d195420bd822465146304600f076
:102b140076fda54204d82546284604b0bde8f087d2
:102b24002f1b102f3a464ff0200128bf1022684671
:102b3400b84601f067fab8f10f0f11d83b096ff0ee
:102b44000f0202fb03726946304600f058fdb9f1ea
:102b5400000fe1d122465146304600f050fddbe73c
:102b640010226946304600f04afda8f11008e2e759
:020000040000fa
:102b7400842910b523d00cdc812903d0822913d0f9
:102b840080290bd119680c1d1c600b6803601a6046
:102b940013e0902921d003dc882917d0002010bd30
:102ba400a029efd0c029ece719680c1d1c600b6844
:102bb4000360d1171046c3e900010120efe719684b
:102bc4000c1d1c600b6803601a80f6e719680c1d65
:102bd4001c600b6803601a70efe719680c1d1c6019
:0c2be40009680160d317c1e90023e6e78f
:020000040000fa
:102bf0002de9f84f04460c9f6668d4f80cb02469a0
:102c000010463a68013c002502f0020a0b9a0bf8c4
:102c10000450002e1946b8bf0126012390464fea02
:102c2000e279002c03dcd3b12046bde8f88f50eaee
:102c3000010209d1721b002a06dc0a9a521b002ae3
:102c4000f1ddbaf1000feed042464b4600f0ccfe6b
:102c5000013c134630320bf804200135e1e73b68b4
:082c600023f010033b60dfe7e5
:020000040000fa
:102c6800f8b5846a05460f46164654b1ab6a6a69d8
:102c78009b1ab3420bd2324639462846fff72afe42
:102c8800f8bd01f03cf90028f0d02046f8e7002e06
:102c9800f1d095f93430002b1bdbdbb23446621ed1
:102ca800b95c994212d1224639462846fff712feee
:102cb800a042e5d32744341b22463946686901f00f
:102cc80074f96b691c446c613046d9e71446002ad4
:062cd800e5d13446f0e7ef
:020000040000fa
:022cde00fee70f
:020000040000fa
:102ce0001a4ad36823f4e0631b041b0c43f0bf6350
:102cf00043f40033d360bff35f8f62b6144be0211f
:102d000083f81b134ff00060186083f836134ff4fc
:102d10008000586083f837134ff40000586083f840
:102d200038134ff08070586083f839134ff00071fa
:102d30005960536a43f480235362536943f010038c
:102d40005361536a43f400335362704700ed00e06f
:042d500000e100e0be
:020000040000fa
:102d5400f0b50c4649682368a768e56887b0002980
:102d64000593a4bf23f00203059305ab0293082344
:102d7400cde900730646d2e900232046fff736ff6b
:102d8400059bd90642bf00f1ff3030232b54059b2d
:102d94001a0742bf00f1ff3020232b542269059b00
:102da4000093013a3b46121a29183046fff7a0fe59
:102db4007368db0503d563689842b8bf184607b04b
:022dc400f0bd60
:020000040000fa
:022dc600fee726
:020000040000fa
:102dc80038b504460d46011dfdf7bcfc94f8553096
:102dd800012b08d0012d0ad0022d13d0032d18d0b5
:102de800b7ee000a38bd2046fff7d4fcf2e7b4f985
:102df800083007ee903af8eee77a9fed0a7a87ee08
:102e0800870aefe794ed037adfed067a87ee270a63
:102e1800e8e7d4ed047af8ee677a9fed037a87ee57
:0c2e2800870adfe70000c84200007a447f
:020000040000fa
:102e3400144b01221a601a46d369002bfcd1114ba2
:102e44004ff480725a601a46d369002bfcd10d4ba3
:102e5400ff22da600c4a1a601a46d369002bfcd1af
:102e6400084b10225a831a46d369002bfcd1074b16
:102e7400002283f8212083f82020024b83229a75b4
:102e8400704700bf00200141160010007c0700209d
:020000040000fa
:102e940070b5144b144a0021934206d3134a0025fb
:102ea400d2e9003123b919b970bd03f8011bf3e766
:102eb400946858180c3294b11446834208d111f026
:102ec400030318bf012303eb910102eb8102e7e73f
:102ed40014f8016b03f8016befe703f8015b83421d
:102ee400fbd1dde70000002000000020d01400002a
:020000040000fa
:102ef4007fb5c36800911546002b18bf013a0192b3
:102f040082680446cde902230e460222694600681f
:102f140000f020fd002808dc00f0180383f008020c
:102f240063681343636005460fe0019a8242fad254
:102f3400a368e363801ae268184420642ab15a1c27
:102f4400e2632e441b7806f8013c284604b070bda9
:020000040000fa
:102f54000e4a38b5002313600d4a0e4c13600e4a16
:102f64000e4d13600e4a13600e4a13600e4a5362ec
:102f740013610123936001f055f800f062fdac4247
:102f840000d338bd54f8043b9847f8e7ec07002019
:102f9400380700206c020000340700207002000093
:0c2fa4002c070020300700203c07002014
:020000040000fa
:102fb00020212223242425252626272728282828bf
:102fc000292929292a2a2a2a2b2b2b2b2c2c2c2c59
:102fd0002c2c2c2c2d2d2d2d2d2d2d2d2e2e2e2e21
:102fe0002e2e2e2e2f2f2f2f2f2f2f2f0001170297
:102ff0001d1813031e1b190b1408040d1f161c1299
:0c3000001a0a070c1511090610050f0e26
:020000040000fa
:10300c0038b50d46044608b9002038bd43689b0608
:10301c0007d5d0e905239a4216d80023c4e9053315
:10302c00a362d4e90f13994204d20122c91a206871
:10303c0001f064f80023c4e90f33002de4d02068bc
:10304c00bde8384001f04eb80022c36a11469847db
:0c305c006369002be1d14ff0ff30d6e794
:020000040000fa
:103068002de9ff41134dd1f80080af88adf80c7001
:1030780006462868029002aca8798df80e00002a4e
:1030880018bf1446d1e901571a461bb9204600f06b
:10309800bfff0246002d02dbaa4228bf2a46cdf810
:1030a80000803b4621463046fff720fd04b0bde8ce
:0830b800f08100bfdc400000c4
:020000040000fa
:1030c00070b5d0e90245a54217d10122a1f1200334
:1030d000c1f1200622fa06f602fa03f333438a40ce
:1030e000db43d6431ab10b490a6832400a605a1cc6
:1030f0001fbf084a51680b4053604368ac6043f0ff
:10310000010223f00103e5604260c25842f001026f
:08311000c25070bd080400204c
:020000040000fa
:10311800f0b50c4649682368a668e76887b00029b7
:103128000593a4bf23f00203059305ab02930a237a
:10313800cde900630546d2e900232046fff754fd98
:103148002269059b0093013a3346121a391828461a
:10315800fff7ccfc6b68db0503d563689842b8bf02
:06316800184607b0f0bd9f
:020000040000fa
:02316e00fee77a
:020000040000fa
:1031700010b370b506460d4600f0d6fbd5b100245d
:103180000e4a137e13f0040ffbd0538b13f0070f7e
:103190000bd1536803f00703012b936a14bf335517
:1031a00026f814300134a542ebd1a54214bf00200b
:1031b000012070bd2c46f8e7002070470004004352
:020000040000fa
:1031c00013b5836a8df80710044673b16369a26a68
:1031d000934212d3e36a01220df10701204698477a
:1031e000012806d19df8070005e000f08cfe0028bc
:1031f000ecd04ff0ff3002b010bd9df8070094f9fd
:0e32000034209042e6d05a1c62611870f3e749
:020000040000fa
:02320e00fee7d9
:020000040000fa
:10321000104b00229a61da610f4b83221a765a68aa
:1032200022f480225a601a46d369002bfcd161b186
:10323000084b032283f8202041ea4001064b5962e3
:103240001a46d369002bfcd17047024b042283f845
:0c3250002020f1e77c0700200020014155
:020000040000fa
:10325c00022a70b5044616461d461ad043689b06d2
:10326c0017d441b9002d08bf4ff4806505f1080053
:10327c00fef76afd01466368012e43f0200363608c
:10328c00c4e9021514bfff230a2384f83430024b1f
:0c329c00e362002070bd00bf692c000040
:020000040000fa
:1032a800c1f30a5340f21e42d21a0edd202a0ad870
:1032b800cb0243ea505040f00040d04090eae17021
:1032c800b0ebe1707047002070474b00004218bf18
:1032d80043f0010313f5001f88bf21f0004111f0ee
:0a32e800004058bf6ff0004070472f
:020000040000fa
:0232f200fee7f5
:020000040000fa
:1032f40008b500f06ffe0e4b1b680021186800f043
:1033040079fe0c4b1b680021186800f073fe00f076
:10331400b9f8fef7e1fffff78bfdfef7dcff00f0e5
:1033240001fd00f07ffafff7a3fbfff7d7fc08bd10
:0833340014080020f808002035
:020000040000fa
:10333c0010b50278202a034600f10100f9d0a2f161
:10334c0009010429f5d92b2a07d02d2a11d10121e5
:10335c000133013b00200a2403e00021f8e760431d
:10336c00801a13f8012f303a092af8d901b94042d2
:06337c0010bd0021ede789
:020000040000fa
:02338200704792
:020000040000fa
:10338400d0b110b40446c9b1084421460c4a644281
:10339400137e13f0010ffbd0536803f00703012bd6
:1033a40014bf0b7834f81130936201318142efd1ac
:1033b40001205df8044b7047002070470120f8e7b6
:0433c40000040043be
:020000040000fa
:1033c80010b5054c227832b9044b13b10448aff359
:1033d80000800123237010bda80700200000000012
:1033e8000000000008b5034b1bb103490348aff3c5
:1033f800008008bd00000000ac07002000000000ad
:020000040000fa
:1034080000000000000000000000000000000000b4
:1034180000000000000080bf00000000cdcc4cbfc1
:103428000000000000000000cdcc4cbe000000bf32
:1034380000000000000080bf000000000000000045
:020000040000fa
:103448000000000000000000000000000000000074
:10345800cdcccc3d3333333f00000000cdcc4cbf46
:10346800cdccccbd00000000000000000000000032
:103478000000000000000000000000000000000044
:020000040000fa
:103488000e4b4ff480421a604ff470421a610522c5
:1034980083f84c2083f84d20002183f84e1083f8e0
:1034a8004f20222283f8362083f83710012183f831
:1034b800d01083f8d11083f8b820704700800041fd
:020000040000fa
:1034c80070b40d4b5e681b6813f0010f12d00b4be4
:1034d80003fb00f0084b9b6860b10021064c0136e5
:1034e800a2689a4292bf9b1ab51a5b1919441346ef
:1034f8008842f5d870bc704710e000e0c0d40100e5
:020000040000fa
:1035080008b50020fff7f2fe00220a490f2000f05c
:1035180097fa094800f0a6fb084c0026064d05e07e
:10352800fef7ecfc2670284600f09cfb2378002b65
:10353800fcd0f5e7554000005c3800000908002081
:020000040000fa
:103548000c4a036810b5546a0b4a591e121b8a426a
:103558000ad22bb1094b0c221a604ff0ff3010bd74
:10356800102202600020fae7173323f00f030360ec
:10357800f8e700bf3c070020efffff7ff0070020bf
:020000040000fa
:1035880010b44c68a40602460b4603d45df8044bfd
:1035980000f088b891f93410c0b2814203d059695b
:1035a8009c6aa14205d3114618465df8044bfff703
:0e35b80003be4c1c5c610a705df8044b70474a
:020000040000fa
:1035c6004ff4001c1ceb410f98bf1ceb430f11d8a6
:1035d60051ea030c50ea4c0c5cea020c0cd004d203
:1035e60082428b418041013070479042994180412f
:0c35f60001307047002070470120704732
:020000040000fa
:1036020038b5436813f4807f0446154610d0036929
:1036120040699a4228bf1d462a4600f0c9fc6269e9
:103622005319636123695b1b23610023535538bd22
:0a363200db06fcd400f072fcf9e79f
:020000040000fa
:10363c0010b588b0a1f14004e4b2122c10d8132ab2
:10364c0010d803468df80c100092012203a910200b
:10365c0000f0caf800f0f0fa0028fbd108b010bd59
:08366c000120fbe70320f9e750
:020000040000fa
:1036740030b50c4a002312f8134024b902eb43037b
:103684005b78184630bd01680d78a54209bf02eb8e
:10369400430301335b78013114bfdbb201600a2bb1
:0836a400e9d9eee7503e0000f9
:020000040000fa
:1036ac0007b54a68c0b2d2050b468df8070006d59f
:1036bc004a69511c5961107003b05df804fb01227a
:1036cc000df10701184600f024fc10b19df807001d
:0836dc00f2e74ff0ff30efe7c9
:020000040000fa
:1036e40000090138202813d9b0f5007f05d2094b11
:1036f40003ebd00010f8040c7047b0f5e05f06d877
:10370400044b03ebd01010f8040c103070473f202a
:08371400704700bfb02f000058
:020000040000fa
:10371c004ff4001c1ceb410f98bf1ceb430f11d84e
:10372c0051ea030c50ea4c0c5cea020c0ad004d2ad
:10373c0082428b4180414042704790429941804186
:08374c00404270470020704765
:020000040000fa
:103754004ff4001c1ceb410f98bf1ceb430f11d816
:1037640051ea030c50ea4c0c5cea020c0ad004d275
:103774009042994180414042704782428b4180414e
:0837840040427047002070472d
:020000040000fa
:10378c0076230370022380f84830032280f84a2005
:10379c00042280f8492080f84b30012380f84e3009
:1037ac004ff4a072a0f850209622a0f8522080f876
:0437bc0055307047cd
:020000040000fa
:1037c0000b4b93f820305bb20bb10020704710b563
:1037d0000c46074b98800021d96059619c601a61a2
:1037e0009970197083f82110fff712fd012010bda8
:0437f0007c07002032
:020000040000fa
:1037f40010b50b4c94f8204064b20cb1002010bdfd
:10380400074ca080e360029b6361a16022610021f8
:10381400a170217084f82110fff7f8fc0120eee775
:043824007c070020fd
:020000040000fa
:103828000a4b0b4a1a604ff622029a814ff4403233
:103838005a601a46d369002bfcd1044a136843f036
:1038480002031360d369002bfcd1704700040043c6
:043858000401104017
:020000040000fa
:10385c000d0a507265737320737769746368206ff7
:10386c006e2074686520626f61726420746f2070c2
:10387c0072696e742073656e736f722076616c75ed
:04388c0065730d0053
:020000040000fa
:10389000c0f3c75191b142004fea40704fead201e4
:1038a0004fea310101f16051b2f17f4f38bf7047eb
:1038b00001f1605118bf41f40021704710f0004140
:0438c000002070472d
:020000040000fa
:1038c400a0f14003dbb2122b01d90120704700b5ef
:1038d40083b08df804008df80510022201a9102090
:1038e400fff76cff00f0acf90028fbd103b05df8e2
:0238f40004fbd3
:020000040000fa
:1038f6004ff4001c1ceb410f98bf1ceb430f0cd878
:1039060050ea410c08bf52ea430c08d0904208bf67
:1039160099420cbf0120002070470020704701200b
:023926007047e8
:020000040000fa
:103928000a4b5b8b13f0070f0ed0084b80221a76d8
:1039380007225a831b7e13f0040f05d0034b9a6aa3
:103948001a7e12f0040ffad1704700bf000400433a
:020000040000fa
:103958002de9f843002580460e4617462c4601f10e
:103968000409bc4202db2846bde8f88359f8342034
:1039780056f83410404600f04afa01340544f0e79e
:020000040000fa
:1039880070b505462c68e30701d500200fe02046f6
:10399800fff7a4fe064600f01bfa2868a042f1d102
:1039a80020f00100281a3146fff786fb012070bd80
:020000040000fa
:1039b8002de9f843002580460e4617462c4601f1ae
:1039c8000409bc4202db2846bde8f88359f83420d4
:1039d80056f83410404600f029fa01340544f0e75f
:020000040000fa
:1039e80053b94ab9002908bf00281cbf4ff0ff315e
:1039f8004ff0ff3000f082bbadf1080c6de904ce4a
:103a0800fdf704fcddf804e0dde9022304b07047ab
:020000040000fa
:103a1800426822f00102531a102b30b40dd9441811
:103a280041f0010543f00103455063608350456050
:0e3a380004f1080030bcfef7cfbc30bc704774
:020000040000fa
:023a46007047c7
:020000040000fa
:103a480030b400eb4004084b03eb84031b8983422a
:103a580001d030bc7047044b4400251843f82510aa
:0c3a680003eb85035a60f4e7140600200d
:020000040000fa
:103a740070b505466c68e30701d500200de02046cb
:103a8400fff72efe064600f0a5f96b68a342f1d1bc
:0c3a940028463146fff712fb012070bdf0
:020000040000fa
:103aa00000b553ec112b83b051ec100b8ded002bb6
:103ab000fef7ecfa9ded002b53ec122bfdf748fec0
:0c3ac00041ec100b03b05df804fb00bfec
:020000040000fa
:103acc00074b1968024609b9064919601868064976
:103adc0002448a4294bf1a604ff0ff30704700bf17
:0c3aec00f407002000090020000b00205f
:020000040000fa
:103af80000b583b0e0238df80730b6238df8063083
:103b080001220df106010df10700fef76dff0a20f5
:0a3b1800fff7d6fc03b05df804fbd4
:020000040000fa
:103b220038b50446011dfcf710fe237913f0200f6f
:103b320014bf6569002594f85530012b01d0284641
:0a3b420038bd2046fef729fef9e722
:020000040000fa
:103b4c0000b587b08df80f000122009205ab0df186
:103b5c000f016820fff748fe00f06ef80028fbd13b
:0a3b6c009df8140007b05df804fb9b
:020000040000fa
:103b760000b587b08df80f000122009205ab0df15c
:103b86000f011820fff733fe00f059f80028fbd18b
:0a3b96009df8140007b05df804fb71
:020000040000fa
:103ba000802910db812901dd83290cd113680733bb
:103bb00023f0070303f108011160d3e90023c0e9f2
:0a3bc0000023012070470020704729
:020000040000fa
:103bca0070b5002902fb01f614460d4618bf1446cb
:103bda0001463246184608bf002400f09bf9864287
:0a3bea0018bfb0fbf5f4204670bdd3
:020000040000fa
:103bf40070b506460d4614460321022000f04ff925
:103c040030800521042000f04af92880072106208d
:083c140000f045f9208070bdad
:020000040000fa
:103c1c0070b506460d4614461321122000f048f9e3
:103c2c0030801521142000f043f92880172114202e
:083c3c0000f03ef9208070bd8c
:020000040000fa
:103c4400074b93f820305bb23bb9064b588b00f01e
:103c54003000103818bf012070470120704700bfa2
:083c64007c0700200020014153
:020000040000fa
:103c6c0010b5084c2368196800f09ff8002807db92
:103c7c0023680a20196800f023fac00f404210bdd7
:083c8c000120fbe7f80800200d
:020000040000fa
:103c940090f948305a1e1343426880f8483012f0b5
:103ca40004031bbf42f010024260c0e90f334ff01f
:083cb400ff3008bf18467047fd
:020000040000fa
:103cbc0000b585b08df80c0000920b46012203a9cb
:103ccc007620fff791fdfff7b7ff0028fbd105b079
:043cdc005df804fb90
:020000040000fa
:103ce00000b583b08df804008df80510022201a9fb
:103cf0001820fff765fdfff7a5ff0028fbd103b0f3
:043d00005df804fb6b
:020000040000fa
:103d040008b5064b4ff400425a61054bd3f8b43062
:103d14001bb1034ad2f8b800984708bd00280040f8
:043d24001406002061
:020000040000fa
:103d2800054a00231360936004495160062111601d
:103d3800034a93601360704710e000e0bfd40100ad
:043d4800c40700208c
:020000040000fa
:103d4c0008b5064b1b68064b9a6801329a601b68d3
:103d5c0013b1034a5068984708bd00bf10e000e05b
:043d6c00c407002068
:020000040000fa
:103d70000fb407b5064b04aa1b6852f8041b186859
:103d8000019200f073f803b05df804eb04b07047e3
:043d9000f80800200f
:020000040000fa
:103d940008b500214b20fff793fd01214b20fff7cd
:103da4008ffd0a20fff78efb00214c20fff788fdd2
:023db40008bd48
:020000040000fa
:103db60070b50e46054600f02cf933460446024619
:103dc60001212846fff7fefe001b18bf4ff0ff300b
:023dd60070bdbe
:020000040000fa
:103dd800064b013053f830203ab9c100a1f108026e
:103de8001a44194443f830204a60704708040020f8
:020000040000fa
:103df80000b583b0012248210df10700fff71afc36
:0e3e08009df8070000f0010003b05df804fb18
:020000040000fa
:103e160038b550b952b10c46012529462046fff760
:0e3e2600a4f90028f9d0012000e0002038bdea
:020000040000fa
:103e340038b50d461446012801d0204638bd214628
:0c3e44002846fff79dfa0028f9d0f6e7a9
:020000040000fa
:103e500068076c094c836a9074a07ac000806888f7
:0c3e600000846c820081286e696c2900cf
:020000040000fa
:103e6c0013b50446019201aafdf754f8636813f0e8
:0c3e7c00100f18bf4ff0ff3002b010bd57
:020000040000fa
:103e880010b50446fff77efcfff732fe2046fcf72c
:0a3e980067fe204600f0e6f810bdba
:020000040000fa
:103ea20038b505460846fff750fe04462846fff798
:0a3eb2004cfe40ea042000b238bdc7
:020000040000fa
:103ebc0038b505460846fff758fe04462846fff776
:0a3ecc0054fe40ea042000b238bda5
:020000040000fa
:103ed60008b520b100217c20fff7fffe08bd0321b5
:083ee6007c20fff7fafef9e76a
:020000040000fa
:103eee0008b504217d20fff7f4fe7d20fff73cfe90
:083efe00043818bf012008bdc3
:020000040000fa
:103f060010b50446fff7c3fe28b9a368e268c4e902
:083f160005331344a36210bd42
:020000040000fa
:103f1e0010b4c46a1cb123465df8044b1847006800
:083f2e005df8044bfff77fbfb3
:020000040000fa
:103f360008b500f0a7f800f030f80120fff7c8ff39
:063f4600fff7d2ff08bde9
:020000040000fa
:103f4c000068002808b501da002008bdfff7b8fdad
:063f5c00431cfad1f8e756
:020000040000fa
:103f620008b500f0bef8fff714ff4e210420fff75a
:043f7200a8fc08bde2
:020000040000fa
:023f7600704792
:020000040000fa
:103f7800034b00229a601a6842f001021a607047e7
:043f880010e000e065
:020000040000fa
:103f8c0008b500f0a1f8024b1860586008bd00bfde
:043f9c00d00700202a
:020000040000fa
:103fa00008b5b6217e20fff79bfe0a20fff78cfaaa
:023fb00008bd4a
:020000040000fa
:103fb20010b500239a4200d110bdcc5cc454013329
:023fc200f8e71e
:020000040000fa
:103fc400034611f8012b184603f8012b002af8d1f7
:023fd400704734
:020000040000fa
:023fd600704732
:020000040000fa
:103fd800024b40f204521a80704700bf0040004173
:020000040000fa
:103fe800494e4600696e66004e414e006e616e0095
:020000040000fa
:103ff80000294ff480630cbf02220022fff72ab980
:020000040000fa
:1040080002440346934200d1704703f8011bf9e7c5
:020000040000fa
:1040180003461a46013311780029fad1101a70475d
:020000040000fa
:1040280008b5fff7affffff7a2fffff7a0ff08bd36
:020000040000fa
:0e403800a0f14103192b98bf40f02000704703
:020000040000fa
:0e404600a0f16103192b98bf00f05f007047d6
:020000040000fa
:0c405400014b01221a707047090800207f
:020000040000fa
:0c40600010b50446fff7aeff204610bd6f
:020000040000fa
:0a406c0008b50121fef7aafe08bd09
:020000040000fa
:0a40760008b50321fef7a5fe08bd02
:020000040000fa
:0a40800008b50221fef7a0fe08bdfe
:020000040000fa
:0a408a006823037018234370704789
:020000040000fa
:0840940008b5fff7e9ff08bdc4
:020000040000fa
:08409c0008b5fff7eaff08bdbb
:020000040000fa
:0840a40008b5fff7ebff08bdb2
:020000040000fa
:0840ac0008b5fff738fd08bd5f
:020000040000fa
:0840b40008b5fff7b1fd08bdde
:020000040000fa
:0840bc0008b5fff799fd08bdee
:020000040000fa
:0840c40008b5fef7b9fb08bdc9
:020000040000fa
:0840cc0008b5fff75bfa08bd1f
:020000040000fa
:0840d400004870477c08002041
:020000040000fa
:0740dc00286e756c6c2900d1
:020000040000fa
:0640e40010230370704779
:020000040000fa
:0640ea000068fff7a2be12
:020000040000fa
:0640f0004ff0ff307047a5
:020000040000fa
:0440f600fef7cdbe46
:020000040000fa
:0440fa0000207047eb
:020000040000fa
:0440fe0000207047e7
:020000040000fa
:04410400704700bf41
:020000040000fa
:0441080000207047dc
:020000040000fa
:0200000400807a
:044000003912003c35
:020000040000fa
:0200000400807a
:044004008000a82a66
:020000040000fa
:0200000400807a
:04400800ffffffffb8
:00000001FF
