:020000040000fa
:10000000f03f0020119600004db6000091ad0000b9
:1000100000000000000000000000000000000000e0
:100020000000000000000000000000005b4900002c
:1000300000000000000000005b49000025a7000050
:100040005b4900005b4900005b4900005b49000020
:10005000199100005b4900005b4900005b4900000a
:100060005b4900005b4900005b4900005b49000000
:10007000413800005b4900005b4900005b4900001b
:100080005b4900005b4900005b4900005b490000e0
:100090005b49000000000000000000005b49000018
:1000a0005b4900005b4900005b4900005b490000c0
:0800b000000000005b490000a4
:020000040000fa
:1000b800f8b5c046f8bc08bc9e467047419400009d
:1000c800f8b5c046f8bc08bc9e46704719940000b5
:020000040000fa
:0800d800c0430000010000001c
:020000040000fa
:1000e00041434b204465766963652053444b204966
:1000f0006d706c656d656e746174696f6e20436fb1
:100100007265202872652d29737461727465643b71
:10011000206669726d776172652076657273696faa
:100120006e203078256c782530386c78000000001f
:10013000526573657474696e672041434b206d6f1f
:1001400064756c652e00000041434b204465766960
:1001500063652053444b20496d706c656d656e740a
:100160006174696f6e20436f72652066756c6c797f
:1001700020696e697469616c697a65642e0000009b
:10018000496e6974696174696e67206c6f6720736a
:1001900075626d697373696f6e2e2e2e00000000fc
:1001a000556e61626c6520746f207375626d697441
:1001b000206c6f67732028657272202575292e00c8
:1001c0004c6f6773207375626d6974746564207316
:1001d00075636365737366756c6c792e000000003f
:1001e0005265626f6f74696e672041434b20436fa5
:1001f0006e6e6563746976697479204d6f64756c91
:10020000652e0000496e6974696174696e672041ea
:10021000434b20436f6e6e65637469766974792011
:100220004d6f64756c6520666163746f72792072be
:10023000657365742e2e2e00556e61626c65207498
:100240006f20696e6974696174652041434b204376
:100250006f6e6e6563746976697479204d6f64752d
:100260006c6520666163746f727920726573657462
:100270002028657272202575292e000041434b20ed
:10028000436f6e6e6563746976697479204d6f642f
:10029000756c6520666163746f7279207265736531
:1002a0007420696e2070726f67726573732e000020
:1002b000557365722d67756964656420736574751f
:1002c000702064656c6179656420636865636b2c7c
:1002d00020617474656d70742025640055736572b7
:1002e0002d67756964656420736574757020737516
:1002f000636365737366756c6c7920696e69746984
:10030000617465642e000000556e61626c65207436
:100310006f20696e69746961746520757365722deb
:100320006775696465642073657475702e000000dc
:10033000496e6974696174696e6720757365722da1
:100340006775696465642073657475702e2e2e0060
:10035000557365722d67756964656420736574757e
:1003600070206469646e277420696d6d65646961cd
:1003700074656c7920696e6974696174652c207389
:1003800074617274696e672064656c61796564205c
:10039000706572696f64696320636865636b2e00c2
:1003a000556e61626c6520746f20696e6974696155
:1003b000746520757365722d677569646564207353
:1003c000657475702028657272202575292e0000cd
:1003d00053656e64696e6720686f737420636f6e17
:1003e00066696720746f2041434b20436f6e6e65d2
:1003f00063746976697479204d6f64756c652e2e0f
:100400002e000000556e61626c6520746f2073656c
:100410006e6420686f737420636f6e666967207402
:100420006f2041434b20436f6e6e6563746976693c
:100430007479204d6f64756c652028657272202573
:1004400075292e0053656e7420686f737420636f76
:100450006e66696720746f2041434b20436f6e6e58
:100460006563746976697479204d6f64756c652e67
:1004700000000000556e61626c6520746f2072652b
:10048000747269657665206d6f64756c652064654e
:1004900076696365207479706520646961676e6f41
:1004a0007374696320696e666f20286572722025f7
:1004b000752900004d6f64756c6520646961676e15
:1004c0006f737469632064657669636520747970fd
:1004d000653a202573000000556e61626c652074da
:1004e0006f207265747269657665206d6f64756cd6
:1004f00065206669726d7761726520646961676ef7
:100500006f7374696320696e666f2028657272204c
:10051000257529004d6f64756c6520646961676e8f
:100520006f73746963206669726d77617265207696
:10053000657273696f6e3a2070726f746f636f6c5f
:100540002025752c206275696c642025752c206926
:100550006e6372656d656e74616c20766572736929
:100560006f6e202573000000556e61626c6520740b
:100570006f207265747269657665206d6f64756c45
:100580006520686172647761726520646961676e75
:100590006f7374696320696e666f202865727220bc
:1005a000257529004d6f64756c652044534e3a20c3
:1005b00025730000556e61626c6520746f20726552
:1005c0007472696576652070726f766973696f6e93
:1005d000696e6720696e666f2028657272202575c6
:1005e000290000004d6f64756c652070726f76692c
:1005f00073696f6e696e672073746174653a202544
:10060000750000004572726f722025752073656e4b
:1006100064696e67206469726563746976652072c7
:100620006573706f6e7365206576656e742e00005d
:1006300050726f63657373656420612064697265cd
:1006400063746976652c20627574206e6f20726504
:1006500073706f6e73652077617320637265617468
:100660006564207669612041434b5f436f6d706c18
:100670006574652a20726f7574696e65732e00004b
:10068000666f72636564000054686520436f6e6e28
:100690006563746976697479204d6f64756c652043
:1006a00069732072657175657374696e6720746f04
:1006b000206265207265626f6f74656420282573ff
:1006c000292e00006e6f7420666f726365640000ef
:1006d000436f6e6e6563746976697479204d6f64db
:1006e000756c652066696e697368656420626f6ffa
:1006f00074696e67206f72207265626f6f74696ec5
:10070000672e0000436f6e6e656374697669747955
:10071000204d6f64756c6520666163746f7279201b
:10072000726573657420636f6d706c6574652e00ff
:10073000466163746f7279207265736574207265a7
:10074000717565737465642e0000c046556e6162f4
:100750006c6520746f20656e636f646520746865d6
:100760002073656e6420416c6578612072657370da
:100770006f6e736520636f6d6d616e642e204275c0
:10078000666665722073697a652069732025752e07
:1007900000000000556e61626c6520746f20736507
:1007a0006e6420416c65786120726573706f6e7342
:1007b0006520636f6d6d616e642c206572723a20e6
:1007c00025752e0045787065637465642067656ed5
:1007d0006572696320726573706f6e73653b206725
:1007e0006f742025752e000047656e657269632061
:1007f000726573706f6e736520696e64696361748e
:100800006573206572726f722025752e00000000de
:10081000556e61626c6520746f206465636f6465fa
:10082000206163705f726573706f6e73652e000078
:10083000556e61626c6520746f2073656e64207004
:10084000726f766973696f6e696e6720636f6d6d25
:10085000616e642c206572722025752e00000000e8
:10086000556e61626c6520746f206465636f6465aa
:1008700020646972656374697665207375626d655d
:1008800073736167652e000053656e64696e67203f
:100890006765742d70726f766973696f6e696e67c4
:1008a0002d696e666f20636f6d6d616e642e000042
:1008b000496e636f727265637420726573706f6ed8
:1008c000736520746f206765742d70726f7669731d
:1008d000696f6e696e672d696e666f206469616706
:1008e0006e6f7374696320636f6d6d616e642e004b
:1008f00053656e64696e67206765742d6861726404
:10090000776172652d696e666f20636f6d6d616ec4
:10091000642e0000496e636f7272656374207265a5
:1009200073706f6e736520746f206765742d6861d6
:100930007264776172652d696e666f2064696167a4
:100940006e6f7374696320636f6d6d616e642e00ea
:10095000556e61626c6520746f206465636f6465b9
:10096000206765742d68617264776172652d696ea8
:10097000666f20646961676e6f7374696320636f6b
:100980006d6d616e6420726573756c742e0000006d
:1009900064736e42756666657253697a65203e209f
:1009a0003100000053656e64696e67206765742dc1
:1009b0006669726d776172652d76657273696f6ea7
:1009c00020636f6d6d616e642e000000556e616274
:1009d0006c6520746f2073656e64206765742d6686
:1009e00069726d776172652d76657273696f6e3ba2
:1009f000206572722025752e00000000496e636f1d
:100a0000727265637420726573706f6e73652074a3
:100a10006f206765742d6669726d776172652d76da
:100a2000657273696f6e20646961676e6f73746954
:100a30006320636f6d6d616e642e0000556e6162a0
:100a40006c6520746f206465636f646520676574ee
:100a50002d6669726d776172652d76657273696f47
:100a60006e20646961676e6f7374696320636f6d74
:100a70006d616e6420726573756c742e00000000e9
:100a8000696e6372656d656e74616c5665727369cb
:100a90006f6e42756666657253697a65203e2031d5
:100aa0000000000053656e64696e67206765742df1
:100ab0006465766963652d7479706520636f6d6d0b
:100ac000616e642e00000000496e636f7272656390
:100ad0007420726573706f6e736520746f20676524
:100ae000742d6465766963652d7479706520646919
:100af00061676e6f7374696320636f6d6d616e649f
:100b00002e000000556e61626c6520746f20646574
:100b1000636f6465206765742d6d616e75666163d2
:100b2000747572696e672d696e666f20646961679e
:100b30006e6f7374696320636f6d6d616e64207294
:100b40006573756c742e00003020213d206465763d
:100b50006963655479706542756666657253697a32
:100b6000650000004c4f473a202573006163705fb9
:100b70006c6f675f6c6576656c5f64656275672036
:100b80003d3d206c6f674c6576656c004572726ff9
:100b90007220656e636f64696e6720616e64207396
:100ba000656e64696e6720636f6d6d616e642c2085
:100bb000657272202575000053656e64696e67204a
:100bc0007375626d6974206c6f677320636f6d6df0
:100bd000616e640053656e64696e67207772697434
:100be0006520686f737420636f6e66696720636f3a
:100bf0006d6d616e6400000053656e64696e672000
:100c00007472696767657220666163746f727920b8
:100c1000726573657420636f6d6d616e64000000b2
:100c200053656e64696e6720696e69746961746585
:100c300020757365722d67756964656420736574ca
:100c4000757020636f6d6d616e6420746f207468c1
:100c500065206d6f64756c652e0000004572726fc3
:100c60007220656e636f64696e6720616e642073c5
:100c7000656e64696e6720696e6974696174652068
:100c8000757365722d677569646564207365747525
:100c90007020636f6d6d616e642c2065727220250b
:100ca0007500000052656365697665642067656e4e
:100cb00065726963206572726f7220726573706ffe
:100cc0006e73652025750000496e636f72726563ef
:100cd0007420726573706f6e73652e204578706531
:100ce00063746564206765745f50726f63657373c6
:100cf0004576656e7453746174655f737461747561
:100d00007320726573706f6e73652e20496e7374f5
:100d100065616420676f742025752e0053656e64cd
:100d2000206163705f636d6420616e642067657429
:100d300020616e64206465636f6465206163705f29
:100d4000726573706f6e7365206661696c65642c83
:100d500020657272202575004c6f61642062797481
:100d6000653a2064617461206578686175737465a3
:100d700064206174206f6666736574202575206f2a
:100d800066202575000000004c6f6164206c69745a
:100d9000746c652d656e6469616e3a206c6f616478
:100da0002062797465202575206661696c65640030
:100db0004c6f616420696e74656765723a206c6f70
:100dc0006164206e6578742062797465206661695b
:100dd0006c6564004c6f616420737472696e673a6d
:100de000206c6f6164206e65787420627974652070
:100df0006661696c65640000536b6970206d656d98
:100e00006265722076616c75653a20736b6970203b
:100e100074797065202575206661696c65640000d1
:100e20004c6f6164206d656d6265722068656164f8
:100e300065723a206c6f6164207479706520627904
:100e40007465206661696c65640000004c6f6164c4
:100e500020756e7369676e656420696e7465676579
:100e6000723a206c6f61642066756c6c20696e74d8
:100e700065676572206661696c6564004c6f6164ca
:100e800020756e7369676e656420696e7465676549
:100e9000723a20256c6c64206f7574206f66207226
:100ea000616e676520666f7220756e7369676e6527
:100eb0006420696e740000004c6f6164206d656d84
:100ec000626572206865616465723a206c6f616466
:100ed000206b6579206661696c656400536b69708d
:100ee00020636f6e7461696e657220626f64793a17
:100ef000206c6f6164206d656d626572206865614c
:100f0000646572206661696c65640000536b69708a
:100f100020636f6e7461696e657220626f64793ae6
:100f200020736b6970206e657374656420636f6ee7
:100f30007461696e657220626f6479206661696ca4
:100f400065640000536b697020636f6e7461696e35
:100f5000657220626f64793a20736b6970206d65e9
:100f60006d6265722076616c7565206661696c657d
:100f70006400000041636365737320636f6e746186
:100f8000696e65723a206e6f20646f63756d656e71
:100f90007420696e20626c6f636b20257500000001
:100fa00041636365737320636f6e7461696e65720c
:100fb0003a206f7264696e616c20257520627574c9
:100fc000206f6e6c7920257520636f6e7461696e79
:100fd0006572730041636365737320636f6e746140
:100fe000696e65723a206c6f616420636f6e746124
:100ff000696e657220686561646572206661696cfe
:1010000065642c206f72206e6f74206120636f6e98
:101010007461696e65720000416363657373206d6e
:10102000656d6265723a2061636365737320646ff6
:1010300063756d656e74206f72206c6f61642063e0
:101040006f6e7461696e6572206661696c656400bb
:10105000436f6e7461696e6572206973206e6f7480
:1010600020616e2061727261793b20636f756e74ce
:10107000206e6f7420616c6c6f77656400000000f7
:10108000416363657373206d656d6265723a206cb0
:101090006f6164206d656d6265722068656164656d
:1010a00072206661696c65640000000041636365dd
:1010b0007373206d656d6265723a2063616e27748b
:1010c00020736b6970206d656d62657220626f645c
:1010d000792f76616c756500417070656e64206d66
:1010e000656d6265723a20646f63756d656e74201c
:1010f0002575206973206e6f74207772697465613d
:10110000626c652c206f7220616363657373206d60
:10111000656d626572206661696c6564000000003f
:10112000417070656e64206d656d6265723a206e07
:101130006f20636f6e7461696e6572206174206fd9
:101140006666736574202575000000004170706547
:101150006e64206d656d6265723a20747279696e95
:101160006720746f20617070656e64206d656d62bc
:101170006572202575206f6620747970652025754d
:101180002c2062757420616c7265616479206578c9
:1011900069737473202861732074797065202575d4
:1011a00029000000417070656e64206d656d626598
:1011b000723a2063616e27742067726f7720646fc4
:1011c00063756d656e742025752c20626c6f636b82
:1011d0002073697a652025752c2064656c74612004
:1011e00025750000496e697469616c697a652077bc
:1011f0007269746561626c653a20616c6c6f6361e1
:1012000074696e6720626c6f636b20257520666160
:10121000696c656400000000437265617465206359
:101220006f6e7461696e65723a20617070656e648c
:08123000206661696c65640031
:020000040000fa
:10123800f0b599b011930b68139009934b680d9111
:1012480005938b680a930b691693cb68039313680d
:10125800089353680898079300220023079908f019
:10126800c3fb00280bd1099b5b073bd40823099ad1
:101278001a400a9b0b9204930fd0202306e0802289
:1012880012069446079b634407932d23039a137011
:101298000a9b013b049301230b930b99079b8c46f4
:1012a800039a089962445b0010925b08c04a0029bf
:1012b8001ad1934218d1119bbe4c413b2100192be6
:1012c80000d9211d10980af077f9201d0af0b4f80a
:1012d800099b0200009303990a9b139806f0b4fd3a
:1012e80019b0f0bd2b23d1e7934203d811d1089b45
:1012f800002b0ed0119baf4c413b2100192b06d877
:10130800083110980af058f920000c30dee70c314b
:10131800f7e7002200230898079908f087fe0026bf
:10132800a54f002833d00023029311980af0acf897
:10133800c3b20c93059b002b00dacae10c9b069301
:10134800672b00d045e1059b002b00d1bce1029b37
:10135800043304db029b059a934200da34e16523e7
:101368004de126002f00029b013302930022934b8c
:101378003000390003f044fa089a079b04000d0076
:1013880008f012fb0028ecd00024012524e002908c
:10139800ece7029b1a008a4b9a4212da002c10d111
:1013a8000022884b0898079903f02afa002208902f
:1013b800079130003900834b03f022fa2c00060015
:1013c8000f007e4b30003900002204f03fff06007a
:1013d8000f00029b013b029332003b0008980799db
:1013e80008f002fb0028d4d19fe732003b000898a0
:1013f8000e9904f02bff05f06bfa1490159108f084
:1014080069fd1022099b1340034300d090e00c9b18
:10141800672b00d08ce0002c00db9ae0013580209f
:10142800000684460e99089a61440b001498159991
:101438000092019332003b000af01ef880231b063d
:10144800cb1808900e933000390000225b4b04f053
:10145800fdfe06000f00013c059b1293179b9c4262
:1014680006d00d9b059a1b691493053b9342bcd883
:10147800079b002b09d1099bdb0606d5059b039a20
:10148800013305932e2312995354059a0025944647
:10149800039b634407931d70069b652b2ed1169bf7
:1014a8005c1e039b1d55029bab4202da5b42029312
:1014b800013503260a27169bf61a029b002b60d1da
:1014c8003319002b5ddc621e2d23002d00d1023b59
:1014d8000399023c8b54119b413b192b01d845239e
:1014e8000693039b1919069b0b70049b023b0493fc
:1014f800059ba34202da07980af05ef80323099acb
:101508001340022b12d1049b002b0fdd039809f026
:1015180093ff039b049a9b180b9a824242dd049a1c
:101528003021109809f080ff00230a930398cde634
:10153800079b002b0dd1002c0bda059b039a013376
:101548000593049b1299013b04932e2353542d3b7e
:101558000793059b3021ea18944602e0039ad15478
:1015680001339c45fad16246059b303001335b1943
:101578000593049b013b5b1b0493039b0025985434
:101588004de70298390002f029fb039b3031013cfa
:1015980019550298390002f03bfa049b0290013b6e
:1015a80004938ae7039a125c1a540138b4e7c046d8
:1015b8000000f07f60b400000000f03f000024400d
:1015c800d4feffff00005043029b002b16da66236f
:1015d8000693059b01330593069b662b10d1029b4e
:1015e800002b03da002300263d4f02930c9b672b48
:1015f80004d0029a059b9446634405936623069398
:1016080000230e960f97089c079d12930e9a0f9b26
:101618002000290004f01afe05f05af914901591db
:1016280008f058fc8021220009066b1817900092d8
:101638000193149815990e9a0f9b09f01dff8023aa
:101648001b06cd180022274b04000e980f9904f0b2
:10165800fdfd129b0e900f9101331293129a059b78
:101668009342d3d10022204b03f0caf80e900f9179
:1016780002000b002000290008f0b6f900280ad162
:101688000e9a0f9b2000290008f0d0fc002806d0f5
:10169800179bdb0703d4002300240e930f940e9aa4
:1016a8000f9b0898079902f09dfa069b08900e91e7
:1016b800029c652b00d100240025059b0795e31aa1
:1016c80017930b9b0593c7e6012305933fe6062373
:1016d800fbe70c9b672bfad006930623059378e764
:0c16e8000000f03f00002440000014400f
:020000040000fa
:1016f400f0b5d6464f464646c0b5d54c8cb0237897
:101704009b0700d0a3e0022201272378012613437c
:10171400237023783b43237009f02cff2378cd4dad
:10172400b34323702b788046072b54d0ca4e3378aa
:10173400022b74d0012b26d002222b789343012b49
:1017440024d04346002b21d1c44b1a78002a00d15f
:1017540081e042461a70c24bc24e1f68c24a310031
:101764001c32380006f0caff0021032008f000fcf8
:10177400012223781343237009f0d0fa012223783d
:101784009343237059e04346002b48d00022b74bc3
:101794001a70b74d2b78002b00d09fe005f098fe0f
:1017a40003f004fc002800d02de1b24b1b789b070a
:1017b40043d5b14b1b7adb0700d489e105f056fc15
:1017c40000283ad0ad4dae4a03002432ad49286812
:1017d40006f094ff31e023781f43277009f02affb5
:1017e4002378b34323700028a0d0a74e9c4b32002b
:1017f4001b68a64f203239001800039306f07effc1
:1018040009f0ecfe3200002800d0c4e06032390058
:10181400039806f073ff904e3378022b8ad100218f
:10182400012008f0a5fb8e4b994a1868994906f0e7
:1018340065ff09f0bdf90023337002222378934336
:1018440023700cb01cbc90469946a246f0bd8d484e
:1018540008f0e0fc57e7012223781343237009f0d2
:10186400e5fe0122237893432370002800d09ae0f8
:1018740002222b789343012b00d187e77b4e3378e8
:10188400002b00d0b0e0012223781343237009f029
:10189400cffe0122237893432370002800d178e7f8
:1018a4007d4f6f4b3a001b687c4d50322900180065
:1018b400039306f023ff06f05df9022800d14be103
:1018c400002800d033e1684a290003987c3206f0ee
:1018d40015ff0021052008f04bfbaee7604b704a72
:1018e4001b68704e180070323100039306f006ff37
:1018f400012223781343237009f080fe0122237808
:101904009343237005f0d0fc674a071e64d1643208
:101914003100039806f0f2fe102107a82f7008f09a
:10192400b5fc624d2a00002800d089e0543207ab90
:101934005f49039806f0e2fe102307aa06a905a84a
:1019440008f02efb002872d107ab5a4a0193069b7c
:10195400343200935849059b039806f0cffe1221b8
:1019640007a808f0a7fc554d2a00002857d1443297
:1019740007ab5349039806f0c1fe07a808f0c2fd5f
:10198400002843d13e4a02ab1b7d04324d490398e3
:1019940006f0b4fe51e74c4e030040323900306883
:1019a40006f0acfec2e62e4b2e4e1f68384b3100bb
:1019b4001a0038002432984606f0a0fe06f0eaff2a
:1019c400002800d1cae642463f4f03005832310096
:1019d400386806f093fe4be73b483b002432310065
:1019e400006806f08bfed9e609f050f8374f8046c0
:1019f4003a68831af422ff32934271d83378002b69
:101a040000d01ae7c5e609f033fc16e72a002e4d8c
:101a1400030054322b49286806f070fe0de72a4e65
:101a2400030008322649306806f068fea5e72a005c
:101a3400254d030078322049286806f05ffe8ee7c2
:101a4400214e030014321a49306806f057fe73e73a
:101a54008a09002097090020a3090020a209002078
:101a640028b6000060ab000060020000af0900204f
:101a7400ae090020140a0020680900202cb60000da
:101a8400e0050000dcb400006001000028ab0000a9
:101a9400e001000044ab0000e002000068a2000086
:101aa4006003000014ae0000e003000060040000c6
:101ab40044ae0000e00400007cab000060050000c0
:101ac4005cae000098ab000024b60000100a0020b1
:101ad400284b294a29495032186806f00ffeace613
:101ae400274b32781b682749039309239b1a264afc
:101af400039892465032894606f000fe3378013b43
:101b0400337043463b600027204b1f6005f0e0fc28
:101b14002b78052b14d03378002b00d08de61c4b8a
:101b24001c4a49462832186806f0e8fd66e7184e54
:101b3400194a030040322900306806f0dffd28e628
:101b4400164b5b78db07e6d5524649467c32039850
:101b5400377006f0d3fd51e70823337008f096ff81
:101b64003a000f4b70321860024b2900186806f0d7
:101b7400c5fd62e62cb60000e0050000dcb4000000
:101b840028b6000068a20000600200000c0a0020d1
:101b940024b60000e00200006003000008000020fa
:041ba400100a002003
:020000040000fa
:101ba800f0b51c000b6897b008934b6813900d9321
:101bb8008b6809930b690e93cb680293136806939d
:101bc80053680698059300220023059907f00cff37
:101bd80000280ad1089b5b073cd40820089b099a77
:101be800034004930ed0202306e080221206944678
:101bf800059b634405932d23029a1370099b5a1e73
:101c08000123049302990498059b081806995b0020
:101c1800413c5b080c9400291ed1b5498b421bd16d
:101c2800029a049b944663441800b24c0c9b210012
:101c3800192b00d9211d09f0bffc201d09f0fcfb60
:101c4800089b020000930299099b139806f0fcf880
:101c580017b0f0bd2b23cfe7a5498b4203d80fd18e
:101c6800069b002b0cd0a34c0c9b2100192b05d8ec
:101c7800083109f0a1fc20000c30dfe70c31f8e74f
:101c8800049b591c302303700c982833192800d959
:101c9800203304980230049002984354931e07930b
:101ca800002200230698059908f0c0f9002800d101
:101cb8006ee100230026904f03930d9b1293002b97
:101cc80001da1823129300230a960b97069d059ca8
:101cd800109328000a9a0b9b210004f0b7fa04f02d
:101ce800f7fd0a9a0b9b1490159102f089fd0200ea
:101cf8000b002800210009f08ffb804b05000c0029
:101d08000a980b99002202f07bfd109b0a900b9118
:101d180001330f930d9b002b07da002200232800c4
:101d2800210008f083f9002806d1129b109a9342eb
:101d380000dd31e101330f9300220a980b99704bb3
:101d480002f05efd0a900b9102000b0028002100b2
:101d580007f04afe00280dd10a9a0b9b28002100a3
:101d680008f064f9002809d01498159908f0b2f819
:101d7800c30703d4002300240a930b940a9a0b9bed
:101d88000698059901f02eff12914900069049081e
:101d9800002803d1564b994200d141e70025049c05
:101da8000a9505950e9b053ba34230dd3b003200aa
:101db8000698129904f04afa04f08afd10901191dd
:101dc80008f088f8031e00d0e8e0059a002a00d140
:101dd800e4e001353200109811993b0002f010fd43
:101de80002000b000698129909f016fb00220690d3
:101df8001291424b3000390002f002fd059b0600ab
:101e080001330593059a0f9b0f009342cad10a9b91
:101e1800002b1cd1029b1b19002d00d10ae10d9a41
:101e2800002a00dc06e1089ad20700d502e12e223a
:101e380002991a702a198a1830215970013393426d
:101e4800fbd12c19ed43079b0134eb1807930026af
:101e5800029b1b191e7005930e9b5d1e029b5e550f
:101e6800039bb34202da5b420393013602230a273b
:101e78000e9a9b1a0693039b002b00d0c4e0069b86
:101e88005b19012b00d1bfe06a1e2d23002e00d163
:101e9800023b0299023d8b540c9a5023192a00d90f
:101ea8002033029a51190b70ac4202da059809f0f6
:101eb80083fb0323089a1340022b17d1079c023c8b
:101ec800002c13dd029809f0b7fa029b1b19049a3b
:101ed800904200dba9e01300029a30219446634443
:101ee8001800220009f0a0fa002309930298a5e639
:101ef8000000f07f50b400000000f03f0000b03f49
:101f08000000204026002f00039b0133039332007a
:101f18003b003000390001f065fe04000d000200ae
:101f28000b000698059907f05ffd0028ead03200fb
:101f38003b000698059907f057fd002800d1bce63c
:101f48000022404b3000390002f05afc00220023e6
:101f580008f06cf800280fd000223b4b3000390005
:101f680002f04efc002206000f0006980599364b39
:101f780002f046fc06900591324b300039000022f1
:101f880002f03efc039b0600013b0f000393cee7e3
:101f9800039000262d4fbae70f9b99e60a9a002a6c
:101fa8000bd1059a002a08d0079a0299013a07929c
:101fb8002e220a552d3a01340a92291922008c46fc
:101fc80003e030210298815401329445f9d1180078
:101fd800029a013462441492079a6419013a521b16
:101fe80007925730092b01dc303318000c9b192b52
:101ff80006d820230343613b192b01d809f04bfa7b
:10200800149b00251870e5e60398390001f0e6fdf9
:10201800029b3031013d59550398390001f0f8fc15
:10202800079b0390013b079325e7029a125c1a5419
:1020380001384ce7089ad20600d408e72e2201346a
:102048001a7004e70000e03f000050430000f03f32
:020000040000fa
:102058004c0900201c00000000000000800900203e
:102068000a000000000000008c0900200a0000009f
:1020780000000000980900200a000000000000008d
:10208800a40900200a00000000000000b009002098
:102098000a00000000000000bc0900200a0000003f
:1020a80000000000c80900200a000000000000002d
:1020b800d40900200a00000000000000e009002008
:1020c8000a00000000000000ec0900200a000000df
:1020d800000000008a090020010000000000000044
:1020e800000000200400000000000000000a00209a
:1020f8000400000000000000040a002004000000a2
:10210800000000008b090020010000000000000012
:10211800740300200004000000000000960900205d
:102128000100000000000000080a00200400000070
:10213800000000000400002004000000000000006f
:10214800970900200100000000000000a2090020fb
:102158000100000000000000a309002001000000a9
:10216800000000000c0a002004000000000000002d
:10217800ae0900200100000000000000af090020a7
:102188000100000000000000100a00200400000008
:10219800000000000800002004000000000000000b
:1021a800ba09002001000000010000000100000041
:1021b800680900200c00000000000000140a00203c
:1021c8000400000000000000bb090020010000001e
:1021d80000000000180a00200400000000000000b1
:1021e8001c0a002004000000000000000c00002071
:1021f80010000000000000002000002090000000f7
:1022080000000000200a0020040000000000000078
:10221800240a00200400000000000000c609002075
:102228000100000000000000b000002004020000cf
:1022380000000000280a0020040000000000000040
:10224800c70900200100000000000000d20900209a
:102258000100000000000000d30900200100000078
:10226800000000002c0a002004000000000000000c
:10227800300a00200400000000000000de090020f1
:102288000100000000000000340a002004000000e3
:1022980000000000040900202800000001000000e0
:1022a800000000008193000001000000cd930000b1
:1022b800020000007990000003000000c9900000af
:1022c8000000000000000000df09002001000000fd
:1022d8000100000064000000b4020020c0000000fb
:1022e80000000000740700208000000000000000cb
:1022f800f40700208000000000000000c40800204f
:102308004000000000000000740900200c000000dc
:1023180000000000380a002004000000000000004f
:102328007408002050000000000000003c0a002053
:102338000400000000000000400a00200400000023
:10234800000000002c09002020000000010000000f
:102358000100000003000000000000000000000071
:10236800000000000000000000000000f809002044
:10237800f80900200800000000000000000000002c
:1023880000000000222222222222222222222222ad
:020000040000fa
:102398000023f0b506001500afb00591019305992b
:1023a8000b78002b00d10fe101235b420a930eab9f
:1023b80000240c93802309940b940d930b5d002b40
:1023c80001d0252b2ad1002c06d02200300007f09e
:1023d80093fc059b1b190593059b1a78252a00d0a9
:1023e800e7e0013302930593022310219c46082756
:1023f800059803782b2b1bd025d8202b1bd0232bfb
:102408001dd02a2b2ad007f00ffb0b90059b1a78ba
:10241800303a092a33d801330593f7e70134cde779
:102428000122099b80180393134309930590dfe762
:102438000423099a0ee0099b03933b430be0099b95
:1024480003930b4307e02d2bead0302bd9d16246fa
:10245800099b0393134309930130e7e72b68013085
:102468001a1d1b6805902a600b93002b07da099a3e
:102478005b420392012203990b934a400992099bfc
:10248800da0702d5022293430993059b1a782e2a6c
:102498000ed10022581c0a9205905a782a2a28d16f
:1024a800023305932b681a1d1b682a6003930a934d
:1024b80005a807f029fd059b0700187808f0e4ff38
:1024c800692800d183e035dc632800d1d6e01bdc25
:1024d800252800d1dfe0612859d0252306aa1370ea
:1024e800029b0593002309930b93013b0a93023344
:1024f800b2e007f099fa0a90059b1a78303a092a4f
:10250800d6d801330593f7e7642860d06728e4dc60
:102518002a00390006a807f029fe002800d1a9e002
:10252800059b09a95a1c05921b7806aa3000fef7dc
:102538007ffe3de0702800d17de016dc6e2800d1da
:1025480091e06f28c9d12b000022390006a804f0b9
:10255800bffb002800d18de0059b06aa013309a91d
:102568003000059305f090fd22e0752840d07828ca
:102578004fd07328b1d1802f00d07be0059b2a680b
:1025880001330593131d2b601268002364e02a00b1
:10259800390006a807f0eafd002800d16ae0059b8b
:1025a80009a95a1c05921b7806aa3000fff7f8fa09
:1025b8002418019b1c19a34200dc74e04f223b4bfa
:1025c8001a6001235b42019301982fb0f0bd2b00e4
:1025d8000122390006a804f07bfb00284ad0059b9d
:1025e80006aa013309a93000059304f0cbf9dfe707
:1025f8002b000022390006a804f06afb002839d015
:10260800059b06aa013309a93000059306f0ccfa08
:10261800cee72b000022390006a804f059fb002859
:1026280028d0059b5a1c05921b7806aa09a93000d8
:1026380002f08cfbbce72b000022f02106a804f076
:1026480047fb002816d0059b079a01330593069b84
:10265800134306d1164a163209a9300006f080fd48
:10266800a6e77823e1e7019b39001a1906a82b0091
:1026780005f0b2fe059b013305939ae7802ff9d147
:10268800059b013305932b681a1d1b682a6006aa4f
:1026980013700123e0e7802fecd1059b06aa0133d4
:1026a80005931070f5e7019479e6c046400a0020ca
:0426b800c8ad0000a9
:020000040000fa
:1026bc004c6f67206c6576656c206368616e67652e
:1026cc00206576656e742072656365697665643b1a
:1026dc00206e6577206c6576656c20697320257596
:1026ec002e0000004e554c4c20213d207044697248
:1026fc00656374697665446f63756d656e74496e58
:10270c00666f000044697265637469766520656e56
:10271c0076656c6f7065206e616d65737061636555
:10272c0020257520646f6573206e6f7420696e644c
:10273c006963617465206120444f4d2042696e616c
:10274c00727920466f726d206d6573736167652eab
:10275c00000000004469726563746976652d7370be
:10276c006563696669632070726f63657373696e04
:10277c0067206661696c65642c2065727220257512
:10278c002e00000052656365697665642064697289
:10279c006563746976653b20636f7272656c6174f6
:1027ac00696f6e20696420256c642c206e616d65e8
:1027bc0073706163652025750000000041434b4d2b
:1027cc006f64756c655f476574526573706f6e737b
:1027dc0065206661696c65642c20657272202575b4
:1027ec002e000000526563656976656420416c6556
:1027fc007861206469726563746976652e000000e7
:10280c00526563656976656420636f6e6e6563748b
:10281c006976697479206d6f64756c6520626f6f71
:10282c00746564206576656e742e00005265636570
:10283c0069766564206576656e7420696e6469637b
:10284c006174696e672041434b20636f6e6e6563e4
:10285c00746976697479206d6f64756c6520697321
:10286c002072657175657374696e6720746f206270
:10287c0065207265626f6f7465642e0052656365c6
:10288c0069766564206576656e7420696e6469632b
:10289c006174696e67207468617420686f7374204a
:1028ac0073686f756c6420666163746f72792072e3
:1028bc006573657420697473656c662e0000000086
:1028cc005265636569766564206c6f67206c65760c
:1028dc00656c206368616e676564206576656e74ef
:1028ec002e0000004576656e74206f662061637063
:1028fc005f726573706f6e736520747970652025d7
:10290c0075206e6f742068616e646c65642e0000b7
:10291c00484f5354494e5420617373657274656407
:10292c003b2070726f63657373696e6720696e62aa
:10293c006f756e64206576656e742e0044656c65eb
:10294c0074696e6720756e73656e742070656e6445
:10295c00696e67206f7574676f696e672065766541
:10296c006e742e004174206c6561737420626c6f00
:10297c00636b206c65616b65643a2074616720251c
:10298c0075000000212250726f63657373696e6766
:10299c0020696e636f6d696e67206576656e742055
:1029ac006c65616b6564206d656d6f7279212200b9
:020000040000fa
:1029bc00f0b557464e46de464546e0b593b0049317
:1029cc00437904000f0091469b073bd506aa944619
:1029dc000f230bae634401930a0000960aab02214d
:1029ec0001f07efc051e2dd04a460b9b013a9b46fe
:1029fc000433069306abdb7bd2b20592002b31d1ac
:102a0c00012a00d9d3e00a935b461f68b368002ff4
:102a1c000fd05a4692889a420bd059460022063162
:102a2c0004e008880231984200d1cee0013297428e
:102a3c00f7d1814a814848328149006805f05afe35
:102a4c00002507e07d4823797b4a7d49006805f025
:102a5c0051fe0025280013b03cbc90469946a24676
:102a6c00ab46f0bd002211920132022b6fd01c9ba1
:102a7c00059998460123904400228b425241530001
:102a8c0072689c464244110007936144207908f017
:102a9c0013fd002800d1aae00b9bb2689a46924421
:102aac005046736840449a1a514607f0effc53465f
:102abc000133180006abdb7b022b00d18de05346b3
:102acc004a461a7004991c9a08f00afc0b9b196868
:102adc00002915d002ab9f8a069b49009c461a0020
:102aec006144a4464446b0681388834201d91b193b
:102afc009bb2fb18138002329142f5d1a04664467a
:102b0c00059b012ba6d85b46069f1b68bc4658004c
:102b1c00736839181a1f121a02304244604407f0c5
:102b2c00b5fc5b461a68b368510002337b522379bb
:102b3c001d990b7106abdb7b0a60023b59424b4182
:102b4c001d9902334b715b4601321a6082e77b1e82
:102b5c000e2b8cd97f233b409a46fb0966d0012172
:102b6c000022039306ab9c461f20a8460d0051463d
:102b7c00a2461400039b60448022114341557f21df
:102b8c0062061940db0913436a1c94461a00e409d7
:102b9c00224349d154468a46290045468a1c2023a3
:102bac0006a8c01853464354634611935fe70a9b2b
:102bbc00214a01934b462148009374323b00204933
:102bcc00006805f097fd002544e71d9b1a602379ea
:102bdc001d9a1371032353713ce77b1e0e2b16d8e1
:102bec004b463f013b431f0053461f706ae7079a51
:102bfc0023794244019213497268104800920a00ea
:102c0c0000684c320e4905f075fd002522e74a4656
:102c1c0053468146119f1a700ea93a0008f060fbca
:102c2c00cc46bc4460464de76546a5e70123002130
:102c3c009c460222b3e7c046d810000024b6000020
:082c4c00b0b3000058110000b4
:020000040000fa
:102c5400f0b54646d6464f46c0b505005068140048
:102c640042783f23160088b09e43402e38d0802ef1
:102c74002fd0002e0bd0eb68002b60d0eb60002629
:102c8400300008b01cbc90469946a246f0bd0f2601
:102c94008f4b1640b700ff5830231a40102a52d0e9
:102ca4000fd9202a36d0302ae5d10378626913700f
:102cb400072e00d1a2e0226961682800b847060007
:102cc400dee7002ad7d1010022692800b8470600b0
:102cd400d6e7eb68002bd1d17e4b7033eb60cee7a7
:102ce4002769002f3ad03b68002b37d03b1d98460c
:102cf400022938d0012900d199e0002900d1bbe094
:102d0400052900d1aee0eb68002bb7d1724b3c3300
:102d1400eb60b4e76369984602293ed043460679de
:102d240040461b782269591c0170616848799842b1
:102d34005cd973432800d218b8470600a0e7664b55
:102d44007833eb609be763692269934201d00121e8
:102d5400197001002800b847060091e7280005f023
:102d6400ebf806008ce704ab19002800994606f03e
:102d740093fa061e05d183e74b469b68002b00d1ce
:102d840092e04246616848463b689847061ef3d184
:102d9400eb68002b47d0eb6072e7042ebed804ab7f
:102da40019002800994606f077fa061e00d166e756
:102db4004b469b68002b00d181e043461a7811e012
:102dc4000b7948465a4323699c466244b847002815
:102dd40070d043461a780132d2b21a704b469b68bf
:102de400002b6cd061684b799342e9d8eb68002bd7
:102df40000d043e7384b6833eb6040e76368002159
:102e04001a79206908f012fb62682169d3799079f4
:102e14001b020343107a00040343507a000618434c
:102e240007f0acfa47e72d4b0c33eb6028e701ab16
:102e34001900082228009a4604f01efd082399462a
:102e4400002800d11be7264b616804935346059381
:102e54004b46069300234246079304a83b689847d1
:102e640006000de701ab1900042228009a4604f07d
:102e740003fd04239946e3e701ab9a461e000123b0
:102e8400994601223100280004f0f6fc002800d104
:102e9400f5e633787f2bd6d901239c46e1444b4693
:102ea40001360b2bedd1eae64946280007f07afa01
:102eb4000600e5e64b469b680026002b96d1494662
:102ec400280007f06ffa002800d0d9e6d7e6c046fc
:102ed400d0a300005c490000dc4900005c4a00000b
:042ee40031aa00000f
:020000040000fa
:102ee800f0b557464e464546de46934be0b5994603
:102ef800df1c032391b00400884605929f430028f5
:102f08004dd08e4b1d689a46bd4200d872e03a7982
:102f1800390090424dd9032002e00a79944248d9f9
:102f28000b680831033383435918a942f5d3434644
:102f3800de1c03239e430836464500d276e0804bcc
:102f48009b461b78a34200d1abe0002e08dd80220f
:102f58004b46d20094465b1b63449e4200d971e005
:102f68000f006a1a881907f093fa43463b605346e4
:102f7800ad191d60059b3c71db0707d44b46eb1a66
:102f8800002b03dd6f4a11688b4235d838000830b2
:102f980011b03cbc90469946a246ab46f0bd6a4883
:102fa80006f0ccff654b1d689a46bd4222d9390010
:102fb8003a794346de1c0320330083439442b8d158
:102fc8000a689446033282439e1a5d4b9b461b78df
:102fd800a34201d1c44518d3002e07dd80204b46fb
:102fe800c00084465b1b63449e422bd808320f0006
:102ff8008918b6e739009ae713605448544a554986
:103008007432006805f078fbc0e7504b18684346f7
:10301800019363464c4a0093443223004d4905f01e
:103028006bfb00235a4600201370b1e74346464a1b
:1030380049480093006823001032464905f05cfbbc
:103048000020a5e702934346434a444d126841498c
:10305800059200932a1d230005980196894605f0dc
:103068004bfb2a0049466032059805f045fb53465c
:103078001968b94247d90024032009aa182c02d894
:103088003b79137001323b68083703338343df19f8
:103098000134b942f2d8182c08d9631c3dd100205c
:1030a80076e72a4b186800239c46b0e70023137084
:1030b8002b4b274f1b683a0099462a4b30329a46c9
:1030c80048462300514605f017fb002ce7d058234b
:1030d8009846002609adb8442f7808aa07a93800f1
:1030e80005f0aefe0023002800d0089b009342465e
:1030f8003b0051464846013605f0fefa0135b44218
:10310800ead8002044e7124a154800230068303204
:10311800144905f0f1fa00203ae7114b0c4f1b68ef
:103128003a0099460f4b30329a464846230051469a
:1031380005f0e2facbe7c04674030020080a002035
:1031480096090020040000206436000028b600001c
:1031580064370000d0b4000020b60000e436000058
:0831680024b60000d8b50000f8
:020000040000fa
:10317000f0b54e464546de465746e0b515004a785e
:103180003f230c001100994389b006000b00402931
:103190003fd080290dd000290bd00369002b4bd0e4
:1031a0003361002009b03cbc90469946a246ab462c
:1031b000f0bd0f218e48114089000958032001916c
:1031c000302120568846114000282fd1102900d1e7
:1031d0009be0012702a8c77003308146802b0ad1eb
:1031e0002d682f00781e8741b84602a88446032721
:1031f000404667443870102932d021d9202935d073
:10320000302916d14b461a7823789a421cd00120d7
:10321000c8e72b68002bfad02a1d21009847002808
:10322000f5d13369002b64d03361bbe78146a944f3
:10323000d4e73369002bb3d16e4b2c333361b0e745
:103240000029f6d1002d58d02100300006f072f888
:103250000028a6d02a0021003000019b9847a1e752
:103260004b461b78002befd101209be703216156d1
:1032700000293ad16179884641460029c7d0802b80
:1032800003d06379984500d99ce00f2399461a40f2
:1032900000239a46042a4bd93f339946303b9b463c
:1032a0002100300006f046f8002800d179e7637865
:1032b00049461a008a43802a10d02a002100300093
:1032c000019b9847002800d16be72379ed18012373
:1032d0009c46e244d045e3d8012063e75a461340b8
:1032e000053b012be9d82a68e8e749460978884672
:1032f000c2e7404b7033336154e73369002b00d091
:103300004ee73c4b403333614be72900200002f08d
:103310003bfd02aa0300d01c0122534003706278d7
:103320003f23110099430b0041468146114055e768
:10333000022122783000530fd2000a4305f040faf0
:10334000002800d12de74a4663781a40032a47d067
:10335000042a49d053460393049305930693079395
:103360000023a9469a464a46210003a8019b984794
:10337000002800d116e72379994401239c46e244b2
:10338000d045f0d8069b9a4652460023300005f0ff
:1033900017fa002800d104e7002399463368002b70
:1033a00018d02a0021003000019b9847002800d146
:1033b000f7e62379ed1801239c46e144c845f0d88f
:1033c0000120efe63369002b00d0e9e6094b5833c2
:1033d0003361e6e652460021300005f0d5fde1e616
:1033e00043469b009a46cfe74346db009a46cbe72d
:0833f00020a400009061000020
:020000040000fa
:1033f800f0b5de46454657464e460023e0b593b045
:10340800040002a8437006a80493059307f01af96c
:10341800002293469046a368002b00d1c9e002ab76
:1034280002a9033303aa0231200006f0d3fb0028c7
:1034380000d1b9e0039906a806f0c8fd002836d1e6
:10344800039b434556d202ab9f783900200004f015
:1034580071fd002829d1002013b03cbc9046994644
:10346800a246ab46f0bd0b9b00930a9b01930199c2
:10347800009b8b4211d15a450cd05b46002b05d0de
:10348800597902ab5b78994200d09ae000239346c1
:1034980002a94b7002ab01330b9302ab997806aad1
:1034a8002000fff7d3fb0028d5d0a368b4e730236a
:1034b800079a51780b40202bd5d0002bedd1089bd3
:1034c8003f2bead81f215a09194001238b400821b4
:1034d80002a89200401880580343009002a841189f
:1034e8008b5002ab997806aa2000fff7affb0028a3
:1034f800dbd1b0e7079d0f262a0005e006a803f0f8
:1035080047fb079a954247d053783340082bf5d1ab
:1035180013789846039b994602ab9f78c14594d38c
:103528000a9ba2681d689246002d00d18de73b00da
:103538004f4699460fe04b463a0029002000b04715
:10354800002800d187e7a268ad681300002d27d0b6
:10355800924500d060e72b681e68002eebd19e686c
:1035680033789f42f0d16a6831000ca807f06af8f6
:103578006b683f2210932b000c331193737893439d
:10358800802b01d12b1d109301230caa2b734946c4
:103598002000fff75bfbd3e701235b429846b9e7be
:1035a800924500d14fe737e702abdb78002b00d11b
:1035b80051e75b46002b09d05a7902ab5b789a42f7
:1035c80004d0e368002b3cd0e36044e7079b06a8df
:1035d8000093089d5e7803f0dbfa0028f6d13023cb
:1035e800334204d1079b1b785a1e9341ed18402d96
:1035f8001fd8002d23d06b0908d0049a013213d1ab
:10360800022b26d1059a009201320dd11f221540b6
:1036180015d00132551b213aea40082502a99b0022
:103628004919cb5893420ad0e368002b0dd0e360c8
:1036380012e7049b0133f7d1059b0133f4d1012034
:103648000ae7054b1c33e36005e7034b4033e360af
:0c36580002e70123dae7c0465c4a0000ec
:020000040000fa
:103664004d454d5f4e4f4e4520213d20746167000e
:10367400486561706c657420616c6c6f636174691a
:103684006f6e206f766572666c6f773b207461672e
:103694002025752c206e65772073697a6520257541
:1036a40000000000486561706c6574207361746982
:1036b400736679696e6720696e6a656374656420f0
:1036c4006661696c7572653b20746167202575209d
:1036d40066726f6d20257520746f202575206279c0
:1036e40074657300486561706c65742072657369f4
:1036f4007a65206661696c65643b20726573697ada
:10370400652074616720257520746f2025752062fb
:1037140079746573206e65656473202575206d6ffb
:103724007265206279746573206275742025752032
:10373400627974657320617661696c61626c65009d
:10374400596f752070726f6261626c79206e656565
:103754006420746f20696e637265617365204143f0
:103764004b5f4d454d4f52595f504f4f4c5f53493e
:103774005a4520696e20796f75722061636b5f759d
:103784007365725f636f6e6669672e682e00000052
:10379400484541504c45543a20257520626c6f636e
:1037a4006b732063757272656e746c7920616c6cd6
:1037b4006f63617465640000484541504c45543a58
:1037c40020626c6f636b2025753a20257520627921
:1037d40074657300486561706c6574206869676816
:1037e4002d776174657220636f6e73756d70746983
:1037f4006f6e3a20257520627974657300000000ad
:1038040054616720257520756e65787065637465ed
:10381400646c792070726573656e740054616720fe
:10382400257520756e65787065637465646c7920a0
:0c383400616273656e7400006f6b000031
:020000040000fa
:10384000f8b5ce46474680b56f4b9a7d002a00d129
:1038500092e01a7e997dd2b249b2002900da8fe057
:10386000694a137e917d0122dbb20a4242d01a429c
:1038700040d0664e664c35000121634b1a7e1142e2
:1038800038d0a068e268904200d1a9e007215868ca
:10389000531c0140012900d1a6e0a85c2269934293
:1038a00089410b40e360072357494f683b40012b98
:1038b00000d197e0ff2303400b85237d002bdbd055
:1038c000a168e368994200d251182768cb1a002feb
:1038d000d2d0217f013ad21aa369002900d186e013
:1038e0009a42c9d361680320b8470121464b1a7e2a
:1038f0001142c6d1444a137e917d0422dbb20a42b2
:103900003ad01a4238d0434b414c98461e0004230b
:1039100099463d4f4a463b7e1a422dd03d8da36ac3
:10392000226b0133934292411340e26aadb29a4254
:1039300044d0e26a9a42edd0334a516807220a40e5
:10394000012a48d0a26ab554a3623423e35c002b59
:10395000ddd0e36aa26a93424dd8d31a226a002ac4
:10396000d5d03c20205ca16b002848d19942ced113
:10397000616a00209047cae70cbc90469946f8bda2
:1039800052b2002a00db6be707215a8b0a4000d1b4
:1039900066e71f48c28780221a7659831a7e52072b
:1039a00004d504211a8d1a7e1142fbd1036a002b23
:1039b00000d155e7416a0220984751e7226a002a60
:1039c000b7d0616a01209047a36a226b013393420a
:1039d00092411340ade74146a26a52008d52b3e7cf
:1039e000197587e7088568e75200b05a56e79a428a
:1039f00000d041e776e7216b8c466244ade79942ff
:103a000000d984e7b4e7c04600140042f407002060
:083a1000c40800207407002027
:020000040000fa
:103a180003460b437fd4002243088b4274d3030927
:103a28008b425fd3030a8b4244d3030b8b4228d3c8
:103a3800030c8b420dd3ff22090212ba030c8b42ee
:103a480002d31212090265d0030b8b4219d300e08e
:103a5800090ac30b8b4201d3cb03c01a5241830b13
:103a68008b4201d38b03c01a5241430b8b4201d3c3
:103a78004b03c01a5241030b8b4201d30b03c01aec
:103a88005241c30a8b4201d3cb02c01a5241830a66
:103a98008b4201d38b02c01a5241430a8b4201d395
:103aa8004b02c01a5241030a8b4201d30b02c01abf
:103ab8005241cdd2c3098b4201d3cb01c01a524126
:103ac80083098b4201d38b01c01a524143098b42af
:103ad80001d34b01c01a524103098b4201d30b0198
:103ae800c01a5241c3088b4201d3cb00c01a5241bd
:103af80083088b4201d38b00c01a524143088b4282
:103b080001d34b00c01a5241411a00d2014652411a
:103b1800104670475de0ca0f00d04942031000d339
:103b28004042534000229c4603098b422dd3030a8e
:103b38008b4212d3fc22890112ba030a8b420cd39e
:103b4800890192118b4208d3890192118b4204d3c7
:103b580089013ad0921100e08909c3098b4201d347
:103b6800cb01c01a524183098b4201d38b01c01a81
:103b7800524143098b4201d34b01c01a52410309f8
:103b88008b4201d30b01c01a5241c3088b4201d3a7
:103b9800cb00c01a524183088b4201d38b00c01a54
:103ba8005241d9d243088b4201d34b00c01a52412b
:103bb800411a00d20146634652415b10104601d3b8
:103bc8004042002b00d54942704763465b1000d342
:103bd800404201b5002007f037fd02bd0029f8d0aa
:043be80016e7704725
:020000040000fa
:103bec00f0b40125ed070f005f405ad48b4200d191
:103bfc00824205d950404240504059404b405940b8
:103c0c004e18760ddf187f0d3bd0741c640529d03f
:103c1c00f41b352c26d80e0ddb022b43db0ac90214
:103c2c002943c9121700202c1ed2e741e24057400d
:103c3c00e3415a40a340e3405a40002480185941c4
:103c4c000ad3b21c520521d0c207012f62411700c2
:103c5c004008cb0718434908013636054208af41e6
:103c6c0060417141f0bc7047203c06d01f00e74119
:103c7c00e3405f400024012a6741c0186141ebd347
:103c8c00dfe7002eeed129400020ebe701363105ad
:103c9c000020e7e7e742e5d10020c143090dc90444
:103cac00e0e76b400e00871a9e4104d26e40c01ba9
:103cbc00b141d21973414e18df18ac0ae642e9d271
:103ccc00760d7f0d31d0f41b362ccbd8b4460e0daf
:103cdc00db022b43db0ac9022943c90a012c32d867
:103cec0004d1d4075208df073a435b08ef0a644259
:103cfc00904199411ed0002239424dd124194041a6
:103d0c0049410124394204d1013400184941394256
:103d1c00fad06246a24204d9361b013e36058919f7
:103d2c00a0e7f10ac90700209ce736429ad100208f
:103d3c00002197e70200224394d0b842ded2010062
:103d4c0020002024e3d1202c13dd203ce24117007d
:103d5c00a240e2405740e3415a40a340e3405a405e
:103d6c00012fbf410137174300227c4298419141fa
:103d7c000ce01700e741e2405740e3415a40a340b2
:103d8c00e3405a407c429041994100220f0303d2f8
:103d9c00013e241940414941013e36054708ac41da
:083dac0050417141f0bc704769
:020000040000fa
:103db4004572726f7220257520616464696e672094
:103dc400706f7765722070726f7065727479207489
:103dd4006f206576656e74004572726f722025756a
:103de40020616464696e67206272696768746e65d5
:103df40073732070726f706572747920746f2065ac
:103e040076656e74000000004572726f722025752d
:103e140020616464696e672074696d6572206d6fda
:103e240064652070726f706572747920746f206598
:103e340076656e74000000004572726f72202575fd
:103e440020616464696e6720626c696e6b696e6779
:103e5400206d6f64652070726f7065727479207460
:103e64006f206576656e74004f4e00004f46460025
:103e740048616e646c696e6720706f776572206448
:103e840069726563746976653a20257300000000e1
:103e9400536d6172744c696768744170706c6963c6
:103ea4006174696f6e000000436f6e74726f6c6ca6
:103eb400696e67204c4544207769746820706f7779
:103ec400657220636f6e74726f6c6c6572206469c6
:103ed400726563746976653b206c69676874202534
:103ee4007300000048616e646c696e6720536574ea
:103ef400204272696768746e6573732064697265c1
:103f040063746976653a20256420256c6900000095
:103f140048616e646c696e67204d6f6465206469e6
:103f2400726563746976653a20256c7520697344fb
:103f3400656c74613a2025752076616c75653a204c
:103f4400256400004d6f646520636f6e74726f6c3e
:103f54006c6572202d206e6f7420737570706f7293
:103f640074656420696e7374616e63652069643a74
:103f7400202575002a2a2a2a2a20415353455254bf
:103f8400494f4e204641494c45443a2025732e0062
:103f94005468652053444b20646574656374656498
:103fa40020612063616c6c20746f20257320776816
:103fb400696c6520616e6f746865722063616c6cf6
:103fc40020746f207468652053444b2069732073f8
:103fd40074696c6c206163746976652e20596f7501
:103fe400206d75737420656e7375726520746861d5
:103ff4007420796f7520646f206e6f742063616c18
:104004006c2053444b2066756e6374696f6e732025
:1040140072652d656e7472616e746c792c20737583
:1040240063682061732066726f6d20612074696d0e
:104034006572207365727669636520726f75746941
:104044006e652c206f722c20696620796f75206153
:104054007265207573696e6720616e2052544f53e8
:104064002c2073696d756c74616e656f75736c79f2
:104074002066726f6d20636f6e63757272656e7405
:104084002052544f53207461736b732e20596f75f3
:10409400206d75737420616c736f206e6f74206370
:1040a400616c6c2053444b20726f7574696e657338
:1040b400206f74686572207468616e2041434b5fa1
:1040c400436f6d706c6574652a2066726f6d20771e
:1040d400697468696e20796f75722068616e646caa
:1040e40065722063616c6c6261636b732028652e5a
:1040f400672e20726f7574696e65732077686f73ad
:1041040065206e616d657320626567696e207769ed
:104114007468202741434b557365725f4f6e27299e
:104124002e00000072652d656e74727920636865d7
:10413400636b0000492f4f206572726f72207265a5
:104144006164696e672061636b2e0000416c657861
:104154006120436f6e6e656374204b6974207265d1
:104164007475726e6564206661696c757265206130
:10417400636b3a2025752e00492f4f206572726fac
:10418400722077726974696e6720726571756573e0
:1041940074206865616465722e00000054696d6561
:1041a4006f75742077616974696e6720666f722019
:1041b40041636b2e205265747279696e6720736552
:1041c4006e64696e672072657175657374206865c5
:1041d400616465722e0000004572726f722025754d
:1041e40020726563656976696e672041434b20667a
:1041f4006f7220726571756573742068656164659a
:10420400722e0000492f4f206572726f7220736501
:104214006e64696e67207265717565737420626f70
:1042240064792e004572726f722025752072656361
:10423400656976696e672041434b20666f72207210
:1042440065717565737420626f64792e00000000d7
:10425400492f4f206572726f722072656164696eb6
:104264006720726573706f6e73652068656164653d
:10427400722066726f6d20636f6e6e65637469760b
:10428400697479206d6f64756c652e00492f4f2019
:104294006572726f722072656164696e67207265ff
:1042a40073706f6e73652e00496e636f727265630f
:1042b400742043524320696e207265636569766594
:1042c4006420726573706f6e73652e20526563652a
:1042d4006976656420256c782065787065637465fb
:0842e4006420256c782e000017
:020000040000fa
:1042ec00f0b545465746de464e46e0b589b0129dc0
:1042fc00039104009246007905aa2900984604f01f
:10430c009dfd002800d18ae0059b21686b606379d4
:10431c009a073bd4a960db0707aadb171a4006a94a
:10432c00280002f0b3f800284ed0069f7b1e012b0c
:10433c004ad8039b012b42d0012f42d107ab99469f
:10434c0000260ce0079b534500d17ee04b1e012b51
:10435c0025d9280003f040f9041e28d00136ab689b
:10436c004a4606a928009b4602f090f8041e42d04b
:10437c00434606991960092945d0012fe2d05645cc
:10438c00e4d1039b002be1d101335fe02a68106874
:10439c00814263d2490051188a88aa60bbe759420e
:1043ac0059412800c9b203f09df9041ed6d1314bf6
:1043bc00314a32495432186804f09cf913e0012f49
:1043cc003ad000239946bbe72a4b2d4a1d687c3214
:1043dc002c49280004f08ef92b4a28494032280039
:1043ec0004f088f90024200009b03cbc90469946a2
:1043fc00a246ab46f0bd1f4b1f4a20492832186815
:10440c0004f078f9efe7039b012b12d05b46013fd8
:10441c00ab607b1e9f41139b02371f70e3e7154b6c
:10442c00174a1d681c3223791649280004f062f9da
:10443c00d2e743461e60e9e7134a0e4b78320f4928
:10444c00186804f057f90024cde70023013901293d
:10445c0001d85a46aa60139a1370c4e7054b084a50
:10446c001d6800900b0048320649280004f042f900
:10447c00b2e7c04624b6000058100000c0b30000dc
:0c448c00580f0000c0b10000d80f000065
:020000040000fa
:10449800f0b557464e464546de46e0b5040083b0c3
:1044a8000d00924699468b4230d82dd04946504649
:1044b80006f084fd29000600200006f07ffd331a6f
:1044c8009846203b9b4633d45a465346934042462f
:1044d8001f00534693401e00af423ad8af4200d166
:1044e8007be05b46a41bbd41002b00da78e000228c
:1044f80000230092019301235a469340019301231c
:1045080042469340009328e08242cfd900220023fc
:10451800009201930c9b002b01d01c605d600098f9
:10452800019903b03cbc90469946a246ab46f0bd03
:10453800424620239b1a5246da40414613004a4617
:104548008a40170042461f43534693401e00af421d
:10455800c4d900220023009201934346002bd9d0ee
:10456800fb079c46614672080a437b0846460ee0f4
:10457800ab4201d1a2420cd8a41a9d4101202419b2
:104588006d410021013e24184d41002e06d0ab425a
:10459800eed9013e24196d41002ef8d100980199f9
:1045a8005b4600196941002b25db2b005a4644461f
:1045b800d3402a00e2401c005b461500002b2bdb91
:1045c80026005f46be40330026004746be40320004
:1045d800801a9941009001919ce7a342b9d880e7dd
:1045e8004246202300219b1a0022009101920122b9
:1045f800da40019283e7424620239b1a2a00464666
:104608009a402300f340444613432a00e2401c002a
:104618005b461500002bd3da2023424626009b1a5e
:10462800de402f00b4464646b74066463b0033435b
:04463800cae7c046c7
:020000040000fa
:10463c0045726173696e672075736572206461746d
:10464c00612e0000554e4b4e4f574e0041434b20b0
:10465c006c6966656379636c652073746174653a23
:10466c00205345545550204d4f4445002020205593
:10467c0053455220475549444544205345545550c1
:10468c0000000000202020424152434f444520535b
:10469c0043414e002020205a45524f20544f554341
:1046ac0048205345545550002020204e4f20534550
:1046bc00545550204d4f4445532041435449564581
:1046cc000000000041434b20464653205374616761
:1046dc00653a20444953434f56455241424c45009c
:1046ec0041434b204646532053746167653a20532f
:1046fc004554555020494e2050524f475245535324
:10470c000000000041434b20464653205374616720
:10471c00653a2052454749535445524544000000e0
:10472c0041434b204646532053746167653a2055ec
:10473c004e4b4e4f574e000041434b206c69666503
:10474c006379636c652073746174653a202573001a
:10475c00554e415641494c41424c4500424f4f54f5
:10476c0045440000464143544f525920524553454d
:10477c005420494e2050524f47524553530000008d
:10478c004d4f44554c45204e4f54205245474953ac
:10479c0054455245440000004e4f5420434f4e4e5a
:1047ac00454354454420544f20414c45584100004a
:1047bc00434f4e4e454354454420544f20414c45a5
:0447cc005841000050
:020000040000fa
:1047d00008d1002806d1f54204d801d3002a01d11e
:1047e0006d0d09d10020c143090dc904f0bdf9d1f7
:1047f0001242f7d1640df5d00020c14349054908a4
:10480000a6e000206146f0bdf0b50127ff070e00cd
:104810005e403e40b446be0a4c18dd18f442d7d282
:10482000f542e4d2640decd06d0dead06419c902f2
:104830003943460dc0023143db023b43db0a10b46f
:104840008e4685b297b26f43140c6c433e0ca4198c
:10485000260c2404bfb227439cb26c43a419190c44
:104860006943250ca4b249190d04090c6419000c04
:1048700095b245433e0c76193743bfb2360c150c42
:104880004543ad19a6b2240cad192e0437432e0ca6
:1048900036199db24543ad19acb22e0c89191d0cc9
:1048a00045436d182e04290c3443704680b295b2ee
:1048b00045433e0c76193743bfb2360c150c4543c1
:1048c000ad19a6b2ad19240c2e0437432e0c36199f
:1048d0009db24543ad19acb22e0c89191d0c454350
:1048e0006d182e043443290c75462d0c90b2684384
:1048f0003e0c80190604bfb23e43070ca0b23f181d
:10490000120c6a43d019020c80b2240ca4189ab27b
:104910006a43121914042043120c89181b0c6b43b0
:10492000c91810bc01273d05294203d1b6194041e1
:104930004941013cff077d0d013d641b0bdb6d0010
:10494000ac4209da240500254208be4168416141b4
:0a49500066463143f0bd54e74ee720
:020000040000fa
:02495a00fee776
:020000040000fa
:10495c00656e642d6f662d73747265616d00000059
:10496c00696f206572726f72000000007661726967
:10497c006e74206f766572666c6f77006279746501
:10498c0073206f766572666c6f770000696e636f6b
:10499c007272656374206669786564206c656e67f5
:1049ac0074682062797465732073697a65000000fd
:1049bc0073697a6520746f6f206c61726765000093
:1049cc006e6f206d616c6c6f6320737570706f729d
:1049dc0074000000737472696e67206f766572667e
:1049ec006c6f7700696e76616c69642064617461c8
:1049fc005f73697a65000000696e74656765722083
:104a0c00746f6f206c61726765000000696e76616f
:104a1c006c696420776972655f7479706500000059
:104a2c00706172656e742073747265616d20746f41
:104a3c006f2073686f7274006172726179206f7687
:104a4c006572666c6f770000696e76616c696420c4
:104a5c006669656c642074797065000063616c6cc8
:104a6c006261636b206661696c65640077726f6e5e
:104a7c00672073697a6520666f7220666978656451
:104a8c0020636f756e74206669656c6400000000ad
:104a9c006d697373696e672072657175697265648f
:104aac00206669656c640000696e76616c696420cf
:104abc006669656c642064657363726970746f7287
:104acc000000c0464572726f7220257520616464c7
:104adc00696e6720656e64706f696e7420686561bd
:104aec006c74682070726f706572747920746f20aa
:104afc006576656e742e0000556e61626c6520746f
:104b0c006f206164642070726f7065727469657374
:104b1c0020286f7264696e616c2025752920746f72
:104b2c00206576656e742e00556e61626c6520741e
:104b3c006f20616464206368616e676520726570c4
:104b4c006f7274207061796c6f61642070726f7019
:104b5c0065727469657320286f7264696e616c206c
:104b6c0025752920746f206576656e742e00000003
:104b7c004572726f722025752073656e64696e675d
:104b8c00206f7574626f756e64206576656e742e19
:104b9c0000000000556e61626c6520746f207365b7
:104bac006e64206576656e742e0000004572726f1f
:104bbc0072202575207374617274696e6720737925
:104bcc006e74686573697a6564206368616e676585
:104bdc00207265706f7274206576656e742e00009d
:104bec00556e61626c6520746f2073656e64207302
:104bfc00796e74686573697a6564206368616e6741
:104c0c0065207265706f7274206576656e742e0007
:020000040000fa
:104c1c00f0b5c64600b5040006f0fefa1723454d64
:104c2c0028002b7002f064ff002816d0424a434d36
:104c3c00030050322868424903f05cfd0a2003f05f
:104c4c0011f801235b4223606360a3600023e360df
:104c5c002374237604bc9046f0bd280003f01afda3
:104c6c0000285ad12b78012b52d0062b27d1ab68b8
:104c7c002360eb6863602b69a3602b6ae360a38af3
:104c8c00db0adb02a382287f04283ed06b7d002b3d
:104c9c0020d12b7d01215a42534103332374242309
:104cac00eb5c23752523ea5c637d0a408b4313433d
:104cbc006375ab7d0a20237602f0d4ffcae7214a44
:104ccc001e487c321e49006803f014fd0a2002f0d5
:104cdc00c9ffb6e701221300a96902270b404e0851
:104cec009c4616407600b046637d66468908934321
:104cfc000a4041463343bb430b43042192008b4390
:104d0c001343277463752075d3e701232374d0e70d
:104d1c000c4a2b7a09485832d4e70300064a074854
:104d2c0050320749006803f0e5fc0a2002f09affb4
:104d3c0087e7c04620000020cc0c000024b6000001
:084d4c0098b100004c0c0000be
:020000040000fa
:104d5400f0b58fb00d934b680c9008938b680d00e1
:104d64000993cb6816000393089b0f68002b60db44
:104d740002239f4310233b400a93336805937368cf
:104d84000693099b04930a9b002b06d0059b069a65
:104d9400134302d0099b023b049308233b400b932b
:104da4005a1e9341049ad31a04932b69039a5c1ee6
:104db40000231355089b0793012c10dd059b069acd
:104dc400134339d1079b002b36dc089a049b9b1aaa
:104dd400079a9b18002b02dd02231f422cd10a9b49
:104de400002b0bd00cce134308d0039b0d9a1b1938
:104df400013b1a703023039a023c13550b9b002b82
:104e040003d02023039a013c13552b6900975a1ea3
:104e1400039b121b19190c98099b03f017f80c9ba0
:104e24005b68db0503d56b68984200da18000fb0a5
:104e3400f0bd012308939de70f22059b013c13401d
:104e440018005730092b01dc303318000d9b413b0f
:104e5400192b06d820230343613b192b01d806f0f4
:104e64001cfb039b1855079b013b0793069b1a07e2
:104e7400059b1b091a43069b05921b0906939be796
:020000040000fa
:104e8400f0b5de4657464e464546e0b51f000023c2
:104e940085b0029303933c4e3c4b90463c4a824679
:104ea400583218688946310003f028fc06f0b8f936
:104eb4000e23384c2000237002f01efe051e11d074
:104ec40035482b00354a3100006803f017fc0a20ee
:104ed40002f0ccfe280005b03cbc90469946a246a0
:104ee400ab46f0bd200003f0d9fb051ee8d101aab2
:104ef4000021032003f002f9002837d006f090f9ce
:104f040002ab6361264b0a20236105f0effd019b90
:104f14009b4683440a2005f0f7fd2300019a0833d9
:104f2400811a204a584605f0f1fc002815d0012fbb
:104f340025d9039ebe4201d37e1e039632000299f8
:104f4400404606f0d1f90023424693555346a268e1
:104f54001a604b46e2681a60b9e7104a0e4b703289
:104f64003100186803f0cafb0325b0e70b4a0a4b6b
:104f740030323100186803f0c1fb0325a7e70a4863
:104f8400343004f0ddffd4e7b0a9000028b60000f7
:104f94004c0900002000002024b60000cc090000c9
:0c4fa40071b10000c8a100004c0a000020
:020000040000fa
:104fb000f0b5de4657464e4645460222e0b53c4c2b
:104fc0008bb0237800279343237006f0b1f90028b3
:104fd0000bd1012238002378934323700bb03cbce3
:104fe00090469946a246ab46f0bd324b324a1b680a
:104ff000603218003149019303f082fb01222378cb
:105000001343237006f084f9002842d106f06af8b1
:1050100000232b4d2b4e2b702b4b03e0002806d189
:105020009b009b5998472b780700072bf6d1192135
:1050300003a803f031ff0128cbd0022822d08246fa
:10504000192801d919239a4600282dd002ab1b79c3
:1050500002aa561d1d4a002591461d4a904634223b
:105060004a44934601e0337801365a464146019856
:10507000013503f045fbaa45f5d84846543004f005
:1050800061ffa6e702ab1b79782ba2d002229246e1
:10509000dee70e4b1a000e4b0c3298460d4b414684
:1050a000186803f02dfbb1e7084b9946e5e7c046c9
:1050b000140a002028b60000bc280000ecae000056
:1050c000bb09002008ac0000015a00003c29000088
:0850d0005cb100002cb60000e9
:020000040000fa
:1050d800f0b5ce464746002380b53b4f85b03a0031
:1050e80002930393394e3a4b243281468846186816
:1050f800310003f001fb06f091f81623354c20002f
:10510800237002f0f7fc051e10d0334a33482b00f9
:1051180064323100006803f0effa0a2002f0a4fdbf
:10512800280005b00cbc90469946f0bd200003f05d
:10513800b3fa051ee9d101aa0021052002f0dcff1f
:10514800002832d006f06af802abe360244b0a204c
:10515800a36005f0c9fc019bc7180a2005f0d2fc22
:105168002300019a0833811a1e4a380005f0ccfb47
:10517800002811d04346012b20d9039c444502d373
:105188004446013c039422000299484606f0aaf8d6
:1051980000234a461355c0e7134a104b0432310026
:1051a800186803f0a9fa0325b7e73a000b4b483211
:1051b8003100186803f0a0fa0325aee70a48443026
:1051c80004f0bcfed9e7c046cc08000024ac0000bf
:1051d80028b6000020000020cc07000024b60000fc
:0c51e80071b1000044b000004c09000050
:020000040000fa
:1051f400002243088b4274d303098b425fd3030a12
:105204008b4244d3030b8b4228d3030c8b420dd324
:10521400ff22090212ba030c8b4202d312120902b2
:1052240065d0030b8b4219d300e0090ac30b8b42f0
:1052340001d3cb03c01a5241830b8b4201d38b039e
:10524400c01a5241430b8b4201d34b03c01a524143
:10525400030b8b4201d30b03c01a5241c30a8b4286
:1052640001d3cb02c01a5241830a8b4201d38b0271
:10527400c01a5241430a8b4201d34b02c01a524115
:10528400030a8b4201d30b02c01a5241cdd2c30987
:105294008b4201d3cb01c01a524183098b4201d303
:1052a4008b01c01a524143098b4201d34b01c01aee
:1052b400524103098b4201d30b01c01a5241c30866
:1052c4008b4201d3cb00c01a524183088b4201d3d5
:1052d4008b00c01a524143088b4201d34b00c01ac1
:1052e4005241411a00d20146524110467047ffe72d
:1052f40001b5002006f0aaf902bdc0460029f7d086
:0453040076e7704791
:020000040000fa
:10530800f0b54546de4657464e46e0b5384d87b0bf
:105318002b6898462b7a5a0703d5424669688a4310
:1053280090461b0745d4334c6368002b2dd034229c
:105338009346314a314f9246314abb4491466437cd
:105348000fe02b7a5b0708d56b68334205d0012143
:10535800206863689847002823d008346368002bc6
:1053680013d001262068424686403242e9d0002107
:1053780098470028e5d14b461b685a460193514689
:105388002368019803f0b8f9dbe702f05bf8041e24
:1053980024d1200007b03cbc90469946a246ab46b3
:1053a800f0bd174823683a001349006803f0a4f9d0
:1053b800d3e700230022029203930a2304930023d5
:1053c80002a8059303f040fb0028acd00c4c030066
:1053d8000a4a0949206803f08ff9a4e7094a0a48ec
:1053e80023002c320949006803f086f9d1e7c0464a
:1053f800680900200409002050b30000d04a0000ca
:105408002cb60000504b000024b60000d4ae0000bb
:020000040000fa
:10541800f0b54546de4657464e46e0b50125040040
:10542800c06885b0284099460f00904604f0b6fc45
:10543800e3682b4247d101239b46236865689a4657
:10544800b423324e5b009d424ed902aa5946300021
:1054580004f02afa002807d1002005b03cbc904689
:105468009946a246ab46f0bd0e9a002102a804f068
:1054780093fb0028f0d03a0001210e9806f03cf882
:105488000028e9d04346002b07d01a6806210023dc
:105498000e9800f09dff0028ded04a4602210e98a3
:1054a80006f02af80028d7d052462b0004210e987f
:1054b80000f08eff0028cfd0a268002305210e98a7
:1054c80000f086ffc9e76a460121114804f064fb31
:1054d8000028c2d002239b46236865689a46b423f5
:1054e8006e465b009d42b0d89d4202d1094b9a4559
:1054f800abd804f0b9f9030082460d000b43a4d1e0
:10550800b425054b6d009a469fe7c046140000205d
:0c5518000c000020ffbbb50600bcb5066f
:020000040000fa
:105524000cb4f0b5050083b00e1e41d0089b002bcf
:1055340045d0384b00241b78ab4208d95a2002f0de
:1055440095fb200003b0f0bc08bc02b018475a20f9
:1055540002f0a8fe071e4dd05a2005f0d5fa041e0d
:1055640033d009ab0100089a3800019303f086f99f
:1055740000284ddba0424bd2441c21005a2005f0e8
:105584009fff071e3fd009ab089a21003800019302
:1055940003f074f9002806db3a003100280000f01b
:1055a4005dfc0400cae71c48443004f0c9fcf3e77e
:1055b4001a4c200004f0c4fc089b002bb9d1174cf2
:1055c4002000143004f0bcfcb3e7144c2000683015
:1055d40004f0b6fc09ab089a00213800019303f0eb
:1055e4004df922000e4b78320e49186803f086f804
:1055f4000424a3e7094a0a4b2c320a49186803f029
:105604007df801349ae70448303004f099fcbae795
:10561400024ce6e7ba09002094590000145900002e
:0856240024b6000074ae000082
:020000040000fa
:10562c00f0b5ce4647460023364d80b52a0085b0ee
:10563c0002930393344e354b583280460f00186852
:10564c00310003f057f80b2003f0d6fd041e08d0f0
:10565c000a2002f007fb200005b00cbc90469946ce
:10566c00f0bd01aa65215c2002f044fd002836d073
:10567c0005f0d2fd264d02ab2b61264b0a20eb60c8
:10568c0005f030fa019b994681440a2005f038fa5e
:10569c002b00019a0c33811a1f4a484605f032f947
:1056ac00002825d0002f0bd0039dbd420cd22a0020
:1056bc000299404605f014fe002342465355c7e7b5
:1056cc0016487c3004f038fc7d1e2a0002994046b6
:1056dc00039505f005fe002342465355b8e72a0012
:1056ec000f4b7c323100186803f004f80334afe739
:1056fc000a4a0b4b38323100186802f0fbff0324c6
:10570c00a6e7c0464c0a00001caf000028b60000fb
:10571c002000002071b1000058b00000cc0a00003d
:04572c0024b600009f
:020000040000fa
:1057300070b5344b344a1b78126882b00192052b45
:1057400011d0013bdbb2062b0ad8304a9b009b5894
:105750002f4a30490832019802f0d2ff02b070bde2
:105760002d4b1433f4e72c4c2a4d220029001c3217
:10577000019802f0c5ff294e7378da0717d49a070b
:105780001ed45b0725d4220029007832019802f04c
:10579000b7ff3378224a022b2ed0032b26d0012bc1
:1057a0001ed070322900019802f0aaffd6e722002d
:1057b00029003c32019802f0a3ff73789a0706d5be
:1057c000220029005432019802f09aff73785b0797
:1057d000dfd5220029006432019802f091ffd8e75a
:1057e00014322900019802f08bffb7e754322900e8
:1057f000019802f085ffb1e730322900019802f0ec
:105800007fffabe79709002028b600003cad000001
:105810003c470000b0aa00003c4600000800002001
:04582000bc46000082
:020000040000fa
:105824000d0000005b486172644661756c745d0d27
:10583400000000002d20537461636b206672616d5b
:10584400653a0d0020523020203d20307825303834
:105854006c580d0a0000000020523120203d2030f9
:10586400782530386c580d0a000000002052322090
:10587400203d2030782530386c580d0a0000000097
:1058840020523320203d2030782530386c580d0ac2
:105894000000000020523132203d2030782530387d
:1058a4006c580d0a00000000204c5220203d20308e
:1058b400782530386c580d0a000000002050432031
:1058c400203d2030782530386c580d0a0000000047
:1058d40020505352203d2030782530386c580d0a22
:1058e400000000002d204d6973630d00204c522fe1
:1058f4004558435f52455455524e203d203078253b
:10590400582c2042697420323a2025640d0a000084
:105914004e554c4c20213d2070436f6d706f6e6569
:105924006e7400004e554c4c20213d20704d657323
:1059340073616765466f726d617400004e6f20621b
:10594400756666657220737061636520617661694e
:105954006c61626c6520666f7220666f726d617433
:1059640074696e6720746865206c6f67206d657359
:10597400736167652e00000062756666657253691f
:105984007a65203e2030000076736e7072696e7402
:1059940066206661696c65642c206f72206e6f747a
:1059a40020656e6f75676820627566666572207320
:1059b4007061636520617661696c61626c652e005b
