:020000040000fa
:10000000f0ff0320e15400008f5c0000955c0000cd
:10001000a15c0000a75c0000ad5c000000000000d7
:10002000000000000000000000000000db490000ac
:100030009b5c000000000000db490000db49000081
:10004000db490000db490000db490000db49000020
:10005000db490000db490000db490000db49000010
:10006000db490000db490000db490000a52d000052
:10007000653e0000993e0000db490000db490000be
:10008000db490000db490000db490000db490000e0
:10009000db490000db490000db490000db490000d0
:1000a000db490000db490000db490000db490000c0
:1000b000db490000db490000db4900006d10000057
:1000c000db490000db490000db490000db490000a0
:1000d000db490000db490000db490000db49000090
:1000e000db490000db4900000000000000000000c8
:1000f00000000000db490000db490000db49000094
:10010000db490000db490000db490000db4900005f
:10011000db490000db490000db490000db4900004f
:10012000db490000db490000db490000db4900003f
:10013000db490000db490000db490000db4900002f
:10014000db490000db490000db490000db4900001f
:10015000db490000db490000690700006907000077
:100160006907000069070000db490000db49000067
:10017000db490000db490000db490000db490000ef
:10018000db490000db490000db490000db490000df
:10019000db490000db490000db490000db490000cf
:1001a000db490000db490000db490000db490000bf
:1001b000db490000db490000db490000db490000af
:1001c000db490000db490000db490000db4900009f
:1001d000db490000db490000db490000db4900008f
:1001e000db490000db490000db490000db4900007f
:1001f000db490000db490000db490000db4900006f
:10020000db490000db490000db490000db4900005e
:10021000db490000db490000db490000db4900004e
:10022000db490000db490000db490000db4900003e
:10023000db490000db490000000000000000000076
:10024000db490000db490000db490000db4900001e
:10025000db490000db490000db490000db4900000e
:04026000db49000076
:020000040000fa
:10026400f8b500bff8bc08bc9e4670475d57000057
:10027400f8b500bff8bc08bc9e467047395700006b
:020000040000fa
:08028400602e000001000000e3
:020000040000fa
:10028c0080b400af194b01221a6000bf174bdb6919
:10029c00002bfbd1154b4ff480725a6000bf134bef
:1002ac00db69002bfbd1114bff22da600f4b104a9c
:1002bc001a6000bf0d4bdb69002bfbd10b4b1022de
:1002cc005a8300bf094bdb69002bfbd1094b002281
:1002dc0083f82120074b002283f82020034b832234
:1002ec009a7500bfbd465df8047b7047000800435b
:1002fc0016001000c807002080b489b000aff86069
:10030c00b9607a600023fb61fb6807ee903af8ee67
:10031c00677ac7ed067abb6807ee903af8ee677a13
:10032c00c7ed057a4ff000033b61bb685b00fa68d0
:10033c009a4201d2002357e0bb682e4a93421fd841
:10034c00d7ed066ad7ed057a86eea77ad7ed067a51
:10035c00dfed296a67eea67af2ee046a77eea67aea
:10036c0077ee677ac7ed047ad7ed047afceee77a7c
:10037c0017ee903afb61bb68204a934213d801e018
:10038c00002331e0fb69b3f5ff7f02d9ff23fb614a
:10039c0026e0fb69012b02d80123fb6120e0fb69fd
:1003ac005b08fb611ce0fb69b3f5bf7f03d34ff621
:1003bc007f73fb6114e0fb69032b03d840f201232c
:1003cc00fb610de0fb695b000d4aa2fb03235b089c
:1003dc001a02fb690a49a1fb03135b081343fb6177
:1003ec007b68fa691a60012318462437bd465df80c
:1003fc00047b704740420f0095bfd633801a06002d
:10040c00abaaaaaa80b586b000af78603960002389
:10041c007b617b68002b01d1002349e07b681b6862
:10042c003b613b68002b01d1234b3b6007f10c0374
:10043c001a4639693868fff75fff034683f00103fa
:10044c00dbb2002b01d0002332e03b691b4a934204
:10045c0001d901237b611a4b1b68194a23f0020353
:10046c00136000bf164bdb69002bfbd1144afb68f1
:10047c00d360134b1b6823f040727b691b0603f09f
:10048c0040730f4913430b600d4b1b680c4a43f030
:10049c000203136000bf0a4bdb69002bfbd1084b36
:1004ac0010225a8300bf064bdb69002bfbd10123c2
:1004bc0018461837bd4680bd00879303801a060086
:1004cc000008004380b483b000af78603960064afe
:1004dc007b685362044a3b68936200bf0c37bd468d
:1004ec005df8047b704700bfc807002080b483b060
:1004fc0000af03460a46fb8013467b717b79002bc9
:10050c0004d00f4b032283f8202003e00c4b042271
:10051c0083f82020fb885b007a79002a01d0012225
:10052c0000e00022074913434b6200bf054bdb6917
:10053c00002bfbd100bf0c37bd465df8047b704728
:10054c00c80700200008004380b582b000af034606
:10055c000a46fb8013467b710e4b00229a610d4bb1
:10056c000022da610c4b83221a760b4b5b680a4a29
:10057c0023f48023536000bf074bdb69002bfbd1b6
:10058c007a79fb8811461846fff7b0ff00bf083791
:10059c00bd4680bdc80700200008004380b584b06c
:1005ac0000afb9607a603b600346fb81164b93f851
:1005bc0020305bb2002b01d0002320e0124afb89d3
:1005cc009380114a3b68d3600f4abb6953610e4a52
:1005dc00bb6893600c4a7b6813610b4a3b7f93703a
:1005ec00094a97f820301370074b002283f821201a
:1005fc003a7ffb8911461846fff7a6ff01231846e0
:10060c001037bd4680bd00bfc807002080b588b03c
:10061c0004af0346b9607a60fb81f889002302932a
:10062c00012301937b680093bb6800220021fff734
:10063c00b5ff034618461037bd4680bd80b588b05f
:10064c0004af0346b9607a60fb81f88900230293fa
:10065c00002301930023009300237a68b968fff705
:10066c009dff034618461037bd4680bd80b588b047
:10067c0004afb9607a603b600346fb81f8890023c4
:10068c00029300230193bb6900933b687a68b968b5
:10069c00fff784ff034618461037bd4680bd80b473
:1006ac0083b000af0123fb710a4b93f820305bb28f
:1006bc00002b08d1084b5b8b9bb203f03003102b43
:1006cc0001d10023fb71fb7918460c37bd465df850
:1006dc00047b7047c80700200008004380b400afbb
:1006ec00044b93f82130dbb21846bd465df8047b11
:1006fc00704700bfc807002080b400af154b002224
:10070c0083f82120134b002283f82020124b1b6806
:10071c00114a23f00203136000bf0f4bdb69002b5f
:10072c00fbd10d4b1b680c4a43f00203136000bf56
:10073c00094bdb69002bfbd1074b10225a8300bffe
:10074c00054bdb69002bfbd100bfbd465df8047b7c
:10075c00704700bfc80700200008004380b584b074
:10076c0000af8b4b9b7ddbb2002b00f00d81894bd6
:10077c009b6afb60864b5b8b9bb203f00203022be4
:10078c0008d1844bff2283f82020824b022283f86d
:10079c002120b5e07e4b5b8b9bb203f00103012b58
:1007ac0008d17c4bff2283f820207a4b022283f85d
:1007bc002120a5e0764b5b8b9bb203f00403042b4a
:1007cc0008d1744bff2283f82020724b012283f84e
:1007dc00212095e06f4b93f820305bb2042b00f294
:1007ec008e8001a252f823f00b0900000b090000c7
:1007fc0009080000b308000031080000654b1b69b4
:10080c00002b07d0634b9b889bb200211846fff747
:10081c009bfe75e05f4b9b889bb201211846fff74e
:10082c0093fe6de05b4b9b69bb605a4b1b69ba68ce
:10083c009a4225d1574b5b69002b11d0554b9b88a5
:10084c009bb25b00524a43f00103536200bf504b12
:10085c00db69002bfbd14f4b032283f820204fe0a8
:10086c004b4b5b684a4a43f44033536000bf484be0
:10087c00db69002bfbd1474b062283f820203fe09d
:10088c00444b9a68bb6813441a78414b9a62bb6814
:10089c000133bb6000bf3e4bdb69002bfbd13d4af3
:1008ac00bb6893612ce03b4bdb697b60394b5b692c
:1008bc00013b7a689a420ed1354b5b68344a43f45b
:1008cc00e023536000bf324bdb69002bfbd1314b73
:1008dc00062283f8202000bf2d4bdb69002bfbd1b7
:1008ec002b4b996a2b4bda687b681344cab21a708b
:1008fc007b6801337b60274a7b68d36100e000bfd3
:10090c00244b93f820305bb2b3f1ff3f1ad1214b4b
:10091c00002283f820201e4b5b681d4a43f44033b1
:10092c00536000bf1a4bdb69002bfbd1184b8322a1
:10093c001a76184b5b6a002b26d0164b5b6af8684c
:10094c00984721e0134b93f820305bb2062b1bd158
:10095c00104b002283f820200e4b002283f821201c
:10096c000b4b83221a7600bf094b5b8b9bb203f0b7
:10097c003003102bf8d1074b5b6a002b04d0054bce
:10098c005b6af868984700bf00bf1037bd4680bd52
:10099c0000080043c807002080b483b000af224b8e
:1009ac007b6000233b6000233b6011e07b680022ee
:1009bc001a707b6800225a607b6800229a607b6800
:1009cc0000221a737b6810337b603b6801333b60f9
:1009dc003b68002bead0154b154a5a63134b154a4a
:1009ec009a63124b5b69114a43f0813353610f4b8d
:1009fc00114a1a640e4b40f209421a800b4b00222a
:100a0c0083f84520084b01221a70084b032283f807
:100a1c004d20064b40f602721a8000bf0c37bd46c3
:100a2c005df8047b704700bfb807002000a00041b0
:100a3c00a807002098070020000d200080b489b082
:100a4c0000aff860b9607a603b600023bb7700238d
:100a5c00fb77514afb681b0113440c331b787b77e3
:100a6c00bb68bb617b687b614c4afb681b01134410
:100a7c004e331b78dbb203f00303002b05d17b7fd5
:100a8c0083f00103dbb2002b7fd0444afb681b01cf
:100a9c0013444e3303221a703f4afb681b01134464
:100aac000c3301221a70fb681b013d4a13443b6155
:100abc003b691b889bb203f48063002b05d0ba6999
:100acc003b681a443b695a6002e0ba693b695a6058
:100adc003b691b889bb203f40063002b05d07a6939
:100aec003b681a443b699a600ee02c4b5b889bb2c6
:100afc0003f44043002b03d17a693b699a6003e00d
:100b0c007b691a683b699a603b691b889bb21b1214
:100b1c00dbb203f00303bb773b689bb21a46bb7f87
:100b2c0042fa03f39ab23b695a801c4afb680433bd
:100b3c001b0113441b68194943f00202fb68043380
:100b4c001b010b441a60154afb6804331b01134448
:100b5c001b681b0a03f07f03002b14d10f4afb68a0
:100b6c0004331b01134406331b78dbb203f0400340
:100b7c00402b08d0094b1a690121fb6801fa03f3d9
:100b8c00064913430b610123fb77fb7f184624377f
:100b9c00bd465df8047b7047b807002000a00041fb
:100bac00a807002080b485b000af78600023fb73e9
:100bbc000e4a7b681b0113440c331b78bb730c4a25
:100bcc007b681b0113444e331b78dbb203f0030329
:100bdc00002b04d1bb7b002b01d00123fb73fb7bcf
:100bec0018461437bd465df8047b7047b8070020e3
:100bfc0000a0004180b485b000af78600023bb60da
:100c0c000023fb730e4a7b681b0113444e331b7885
:100c1c00dbb2bb60bb6803f00203002b01d00123e5
:100c2c00fb73bb6803f00103002b01d00223fb73a1
:100c3c00fb7b18461437bd465df8047b704700bf3c
:100c4c0000a0004180b483b000af7860124a7b688a
:100c5c0004331b0113441b680f4923f002027b6809
:100c6c0004331b010b441a6000bf0b4a7b6804332e
:100c7c001b0113441b6803f00203002bf5d1074a38
:100c8c007b681b0113440c3300221a7000bf0c3715
:100c9c00bd465df8047b704700a00041b8070020fa
:100cac0080b485b000af78600b4a7b681b0113449d
:100cbc0002331b88fb81094a7b681b0113440233f6
:100ccc001b889bb2fa89d31afb81fb89184614370f
:100cdc00bd465df8047b7047a807002098070020ec
:100cec0080b485b000aff860b9607a60094afb68df
:100cfc001b0113440433ba681a60064afb681b01d3
:100d0c00134408337a681a6000bf1437bd465df887
:100d1c00047b7047b807002080b485b000af7860c2
:100d2c00064bfb607b681b01fa6813441b889bb263
:100d3c0018461437bd465df8047b7047a8070020a1
:100d4c0080b485b000af78603960144bfb60144af6
:100d5c007b6804331b0113441b68114923f0020206
:100d6c007b6804331b010b441a6000bf0c4a7b6880
:100d7c0004331b0113441b6803f00203002bf5d151
:100d8c007b681b01fa6813443a6892b21a800123fb
:100d9c0018461437bd465df8047b7047a807002041
:100dac0000a0004180b483b000af78600e4a7b682d
:100dbc0004331b01134404331b78dbb25bb223f006
:100dcc0003035bb243f001035bb2074ad9b27b6801
:100ddc0004331b01134404330a461a7000bf0c374a
:100dec00bd465df8047b704700a0004180b483b021
:100dfc0000af78600e4a7b6804331b011344043344
:100e0c001b78dbb25bb223f003035bb243f002034b
:100e1c005bb2074ad9b27b6804331b011344043319
:100e2c000a461a7000bf0c37bd465df8047b70474c
:100e3c0000a0004180b400af034b00225a8000bfd9
:100e4c00bd465df8047b704700a0004180b584b0be
:100e5c0000aff8603b1d83e80600fff7ebff7b79e2
:100e6c00002b02d10f4abb6893603b799b001bb2ed
:100e7c0003f00c031ab27b799b031bb213431ab217
:100e8c00fb689bb220339bb21b021bb203f47c5356
:100e9c001bb213431ab2034b92b25a8000bf1037e5
:100eac00bd4680bd00a0004180b400af034b9b68e1
:100ebc001846bd465df8047b704700bf00a000419a
:100ecc0080b58ab000aff860b960394681e80c0093
:100edc00002387f8273000233b62fb68fb61fb682b
:100eec00bb61fb687b61bb6803f00303002b06d17d
:100efc00022387f82730bb689b08bb600ae0bb68fd
:100f0c0003f00103002b05d1012387f82730bb68c0
:100f1c005b08bb60fff78eff294a7b6893603b78c8
:100f2c009b001bb203f00c031ab297f827301bb2cc
:100f3c0003f003031bb213431bb243f480731ab2c6
:100f4c001f4b92b25a8000233b622fe097f8273058
:100f5c00002b06d1fa693b6a13441a78184b5a6075
:100f6c0016e097f82730012b07d13b6a5b00ba6972
:100f7c0013441a88124b5a600ae097f82730022b58
:100f8c0006d13b6a9b007a6913440d4a1b68536077
:100f9c0000bf0b4b1b7bdbb203f00103002bf8d023
:100fac00074b01221a733b6a01333b623a6abb68f6
:100fbc009a42cbd3024b9b6818462837bd4680bd5e
:100fcc0000a0004180b586b000af0346fb71002342
:100fdc00bb600223fb75fb791b011f4a13443b6169
:100fec001e4afb791b0113444e331b78dbb2bb60ea
:100ffc00bb6803f00203002b0bd0184afb791b01d2
:10100c0013444e3302221a700123fb753b690022f4
:10101c001a73bb6803f00103002b0bd00f4afb794a
:10102c001b0113444e3301221a700223fb753b69da
:10103c0000221a733b695b68002b08d03b699b68e4
:10104c00fb603b695b68fa7df9681046984700bf06
:10105c001837bd4680bd00bfb807002000a0004176
:10106c0080b500af0020fff7adff00bf80bd00bf13
:10107c0080b483b000af0023fb714ff086435b8bd1
:10108c009bb203f00703bb80bb88002b14d04ff03e
:10109c00864380221a764ff0864307225a8303e058
:1010ac004ff086439b6afb714ff086431b7edbb28d
:1010bc0003f00403042bf3d000bf0c37bd465df8de
:1010cc00047b704780b400af4ff08643124a1a601d
:1010dc004ff086434ff622029a814ff086434ff42d
:1010ec0040325a6000bf4ff08643db69002bfad1c7
:1010fc004ff086431b684ff0864243f002031360a7
:10110c0000bf4ff08643db69002bfad100bfbd4610
:10111c005df8047b704700bf0401004080b400af51
:10112c00024b1846bd465df8047b7047008793035d
:10113c00f0b587b000af786039600023fb750023f1
:10114c003b610023fb607b68002b00f0eb807b682d
:10115c001b68002b00f0e6803b68002b02d1fff7e8
:10116c00ddff38607b681b681b013a689a421ad312
:10117c007b681b684ff000044ff000004ff000013b
:10118c00210541ea133118053b684ff000041a465b
:10119c00234604f09ffc03460c46c3f580333b61a9
:1011ac000023fb6051e07b681b68db003a689a42c5
:1011bc001ad37b681b684ff000044ff000004ff00f
:1011cc000001e10441ea5331d8043b684ff00004bc
:1011dc001a46234604f07efc03460c46c3f58033c6
:1011ec003b610223fb6030e07b681a6813465b00ae
:1011fc0013443a689a4228d37b681b6819464ff00f
:10120c0000020b461446dd1844eb04062b4634460c
:10121c005b1842eb04044ff000014ff00002220473
:10122c0042ea134219040b461446184621463b6801
:10123c004ff000041a46234604f04cfc03460c46bf
:10124c00c3f580333b610423fb604ff086431b687e
:10125c004ff0864223f00203136000bf4ff0864329
:10126c00db69002bfad14ff086433a6992b29a812e
:10127c007b685b68022b1cd14ff086431b6823f004
:10128c00706323f46043fa68520392b24ff08641c4
:10129c0013430b604ff086435b6823f047027b6877
:1012ac0099687b68db680b434ff0864113434b60b6
:1012bc0022e04ff086431b6823f0706323f46043f5
:1012cc00fa68520392b213434ff0864243f0807394
:1012dc0013604ff086435b6823f4015323f007033c
:1012ec007a6892681a437b68db681a437b685b6890
:1012fc004ff0864113434b6000bf4ff08643db69d0
:10130c00002bfad14ff086431b684ff0864243f016
:10131c000203136000bf4ff08643db69002bfad148
:10132c000123fb75fb7d18461c37bd46f0bd80b50f
:10133c0082b000af4ff086435b8b9bb203f0070388
:10134c00fb80fb88002b01d0fff792fefb88184630
:10135c000837bd4680bd80b400af4ff086431b6894
:10136c0003f00203002b0dd14ff086431b684ff0a6
:10137c00864243f00203136000bf4ff08643db69e3
:10138c00002bfad100bfbd465df8047b704780b4da
:10139c0000af4ff086431b6803f00203002b0dd007
:1013ac004ff086431b684ff0864223f00203136014
:1013bc0000bf4ff08643db69002bfad100bfbd465e
:1013cc005df8047b704780b400af4ff086435b68d8
:1013dc004ff0864243f48033536000bf4ff0864396
:1013ec00db69002bfad100bfbd465df8047b70476a
:1013fc0080b400af4ff086435b684ff0864223f415
:10140c008033536000bf4ff08643db69002bfad169
:10141c0000bfbd465df8047b704780b487b000af59
:10142c00786039600023fb757b68fb607b68bb6070
:10143c0000233b617b68002b29d022e000bf4ff0da
:10144c0086431b7edbb203f00103002bf7d04ff079
:10145c0086435b6803f00703012b07d0fa683b69ee
:10146c0013441a784ff086439a6207e03b695b009d
:10147c00ba6813441a884ff086439a623b69013369
:10148c003b613a693b689a42d8d30123fb75fb7ddb
:10149c0018461c37bd465df8047b704780b483b09a
:1014ac0000af0023fb714ff086431b7edbb203f0d1
:1014bc000103012b01d10123fb71fb7918460c3779
:1014cc00bd465df8047b704780b483b000af786094
:1014dc0000bf4ff086431b7edbb203f00103002bf1
:1014ec00f7d07b689ab24ff086439a6200bf0c37f4
:1014fc00bd465df8047b704780b483b000af002319
:10150c00fb714ff086431b7edbb203f00203022b10
:10151c0001d10123fb71fb7918460c37bd465df8f0
:10152c00047b704780b400af4ff086435b684ff08c
:10153c00864243f40033536000bf4ff08643db69af
:10154c00002bfad100bfbd465df8047b704780b418
:10155c0000af4ff086435b684ff0864223f40033b4
:10156c00536000bf4ff08643db69002bfad100bffc
:10157c00bd465df8047b704780b588b000af7860dd
:10158c0039600023fb777b687b617b683b610023c0
:10159c00bb610023fb817b68002b3dd0fff768fd0e
:1015ac002ee000bf4ff086431b7edbb203f004033a
:1015bc00002bf7d04ff086435b8b9bb203f00703f5
:1015cc00fb81fb89002b20d14ff086435b6803f035
:1015dc000703012b08d04ff08643996a7a69bb69df
:1015ec001344cab21a7008e04ff08643996abb697b
:1015fc005b003a6913448ab21a80bb690133bb6140
:10160c00ba693b689a42ccd300e000bf3a68bb6928
:10161c009a4201d10123fb77fb7f18462037bd4648
:10162c0080bd80b483b000af0023fb714ff08643c4
:10163c001b7edbb203f00403042b01d10123fb71ed
:10164c00fb7918460c37bd465df8047b704780b4b7
:10165c0000af4ff086439b6a1846bd465df8047b8d
:10166c00704700bf80b483b000af7860074bd3f8ed
:10167c00a03103f00103012b02d1054b01221a709a
:10168c0000bf0c37bd465df8047b704700800041fd
:10169c00d506002080b582b000af7860184bd3f827
:1016ac00a0315b0803f00103012b24d1154b1b78ef
:1016bc00dbb283f00103dbb2002b0ed0114b012205
:1016cc001a701149114804f039fb104804f092fbd0
:1016dc000346dab20e4b1a700de00a4b00221a7058
:1016ec000c490a4804f02afb084804f083fb034623
:1016fc00dab2074b1a7000bf0837bd4680bd00bf79
:10170c0000800041d606002018410000e0060020b1
:10171c00d70600204c41000080b483b000af786045
:10172c0039607b6803f48073002b02d0044b0122d8
:10173c001a7000bf0c37bd465df8047b704700bfc4
:10174c00d906002080b483b000af03463960fb712a
:10175c00fb79012b02d1044b01221a7000bf0c370c
:10176c00bd465df8047b70473608002080b582b01a
:10177c0000af7860fef7b2ff0346002b02d1034b9b
:10178c0001221a7000bf0837bd4680bdd806002064
:10179c0080b582b000af3b1d00210a461a800a4674
:1017ac009a7001233b7100237b710023bb713b1d9d
:1017bc00032219461820fef741ff00bf124b1b787d
:1017cc00dbb283f00103dbb2002bf7d10e4b00220e
:1017dc001a7008233b7103237b713b1d02221946af
:1017ec001820fef72bff00bf074b1b78dbb283f0f2
:1017fc000103dbb2002bf7d1034b00221a7000bfa0
:10180c000837bd4680bd00bfd806002090b587b014
:10181c0000af78607b681b7803f01f031b027a68ab
:10182c000132127813447b617b69b3f5805f03db73
:10183c007b69a3f500537b61786904f034fa4ff0af
:10184c0000021a4b02f09cff03460c461846214638
:10185c0003f08ffe03463b61386904f08df811a349
:10186c00d3e9002302f08cff03460c4618462146b0
:10187c004ff000020e4b01f0f9ff03460c461846e0
:10188c00214603f076fe0346fb60d7ed037afceeaf
:10189c00e77ac7ed007a3b68dbb218461c37bd46c9
:1018ac0090bd00bfcdccccccccccfc3f0000b03f2d
:1018bc000000404080b59cb002af3b1d642200216b
:1018cc00184604f08ffa002003f020fc00219d48fc
:1018dc00fef7f8fdfff75cff00229b490020fff7a5
:1018ec00fff900229949002002f086fa002298495b
:1018fc00012002f081fa0021964801f039fa96494c
:10190c00964804f01bfa01f027f985e0944b1b78fc
:10191c00dbb2002b2ed0934b1b78dbb2002b29d0e3
:10192c008f4b00221a708f4b00221a708e4b4ff483
:10193c000012c3f81c218d4b1b78dbb21a46874b67
:10194c00d0188b4b1b781a4613469b0013449b00f4
:10195c00884a13441a46884904f0f0f9834b002254
:10196c001a707e4804f046fa0346844a7b490020ec
:10197c00fff764f8824b1b78dbb2002b4cd0804b0a
:10198c0000221a707a4b1b78002b07d1784b01225e
:10199c001a704ff4806001f025f922e0744b1b782b
:1019ac00012b07d1724b02221a704ff4006001f028
:1019bc0019f916e06e4b1b78022b07d16c4b0322e6
:1019cc001a704ff4805001f00df90ae0684b1b7847
:1019dc00032b06d1664b00221a704ff4007001f0f5
:1019ec0001f9002001f0e8f8614b1b781a46134608
:1019fc009b0013449b005f4a1a443b1d61491846e7
:101a0c0004f09cf93b1d184604f0f4f90346391d0b
:101a1c005a4a0020fff712f85b4b1b78dbb283f0bd
:101a2c000103dbb2002b7ff471af4d4b1b78dbb2a3
:101a3c00002b0ad04a4b00221a7002230093534bfe
:101a4c00012253491820fef711fe524b1b78dbb2d2
:101a5c00002be1d04f4b00221a70494b1b78dbb2a4
:101a6c0083f00103dbb2002b1bd04848fff7cefefe
:101a7c0003461a46484b1a703c4b1b78dbb21a468d
:101a8c00364bd018444b1b781a46444904f056f98f
:101a9c00364b00221a70344b4ff40012c3f81c2141
:101aac0046e0374b00221a70002001f085f8304bcd
:101abc001b78002b0bd12e4b01221a70384927486a
:101acc0004f03cf94ff4806001f08cf82ee0284bc8
:101adc001b78012b0bd1264b02221a7031491f485f
:101aec0004f02cf94ff4006001f07cf81ee0204b60
:101afc001b78022b0bd11e4b03221a702a49174854
:101b0c0004f01cf94ff4805001f06cf80ee0184b07
:101b1c001b78032b0ad1164b00221a7023490f484d
:101b2c0004f00cf94ff4007001f05cf801f014f8bb
:101b3c000a4804f05ff90346104a08490020fef7f2
:101b4c007dff69e77917000051170000711600003e
:101b5c00a11600002517000088410000e0060020b7
:101b6c00d90600203608002000800041d70600204e
:101b7c00d4060020c8400000b441000028000043f7
:101b8c00d5060020d0410000d6060020dc0600203f
:101b9c0037080020d8060020da060020f8410000a3
:101bac0010420000384200006042000088420000f1
:101bbc0080b400af044b40f204521a8000bfbd4603
:101bcc005df8047b704700bf0040004180b586b0d3
:101bdc0000aff860b9607a607b687b61ba6879693c
:101bec00f86804f0e5f8012318461837bd4680bda7
:101bfc0080b483b000af0346fb800a4b1b889bb2ba
:101c0c001bb223f030031ab2b7f9063013431ab2e1
:101c1c00044b92b21a8000bf0c37bd465df8047bb2
:101c2c00704700bf0040004180b586b000af7860bf
:101c3c0039600023bb753b683b61194b1b889bb219
:101c4c0003f03003fb81174b00221a803b6803f032
:101c5c000f03002b02d00023bb751be02020fff7e5
:101c6c00c7ff0023fb750ce0fb7d9b007a681344d7
:101c7c001a683b691a603b6904333b61fb7d013395
:101c8c00fb75fb7d032befd9fb891846fff7b0ffe3
:101c9c000123bb75bb7d18461837bd4680bd00bf00
:101cac00004000413408002080b586b000af786059
:101cbc0039600023bb753b683b61194b1b889bb299
:101ccc0003f03003fb81174b00221a803b6803f0b2
:101cdc000703002b02d00023bb751be01020fff77d
:101cec0087ff0023fb750ce0fb7d9b007a68134497
:101cfc001a683b691a603b6904333b61fb7d013315
:101d0c00fb75fb7d012befd9fb891846fff770ffa4
:101d1c000123bb75bb7d18461837bd4680bd00bf7f
:101d2c00004000413408002080b485b000af7860da
:101d3c0039603b68bb600e4b00221a800023fb60ad
:101d4c000ce0fb689b007a6813441a68bb681a6045
:101d5c00bb680433bb60fb680133fb60fb687f2b03
:101d6c00efd9012318461437bd465df8047b704744
:101d7c003408002080b483b000af78600b4b002295
:101d8c001a800b4a7b685361094b1b889bb203f08a
:101d9c003003002b03d1064b4af203529a800123e5
:101dac0018460c37bd465df8047b7047340800209c
:101dbc000040004180b485b000af786039603b686a
:101dcc00bb60144b00221a800023fb600ce0fb6804
:101ddc009b007a6813441a68bb681a60bb680433aa
:101dec00bb60fb680133fb60fb687f2befd90a4bb0
:101dfc001b889bb203f03003002b03d1064b4af235
:101e0c0003529a80012318461437bd465df8047bb3
:101e1c00704700bf340800200040004180b483b0fc
:101e2c0000af7860084b00221a80084a7b68536127
:101e3c00064b4af201529a80012318460c37bd46d4
:101e4c005df8047b704700bf34080020004000415f
:101e5c0080b588b000af786039603b687b617b6887
:101e6c003b610023fb733b681e4a934234d93b68a9
:101e7c001d4a934230d81d4b00221a800023bb61af
:101e8c0025e00023fb610ce03b691a687b691a6052
:101e9c007b6904337b613b6904333b61fb69013330
:101eac00fb61fb69032befd9bb691a0110493b6835
:101ebc0013444b610e4b4af204529a8000bf00f05f
:101ecc0073f80346002bfad1bb690133bb61bb69c4
:101edc001f2bd6d90123fb73fb7b18462037bd463d
:101eec0080bd00bfff3f8000004080003408002010
:101efc000040004180b485b000af78600023fb73d4
:101f0c007b680d4a93420fd97b680c4a93420bd8dd
:101f1c000b4b00221a800b4a7b685361094b4ff420
:101f2c0025429a800123fb73fb7b18461437bd4670
:101f3c005df8047b704700bfff3f800000428000cb
:101f4c00340800200040004180b483b000af0c4b3b
:101f5c001b8afb800b4b1b889ab2fb8813439ab2eb
:101f6c00084b1a80064b074a128892b21a82054b0c
:101f7c001b889bb218460c37bd465df8047b704736
:101f8c00004000413408002080b483b000af054b02
:101f9c005b8afb80fb8818460c37bd465df8047bda
:101fac00704700bf0040004180b400af074b5b8a14
:101fbc009bb203f00103002b0cbf01230023dbb207
:101fcc001846bd465df8047b704700bf00400041d9
:101fdc0080b483b000af7860064a7b685361054bd0
:101fec004af211529a8000bf0c37bd465df8047b53
:101ffc00704700bf0040004180b483b000af7860f0
:10200c00064a7b685361054b4af212529a8000bf14
:10201c000c37bd465df8047b704700bf00400041a3
:10202c0080b400af034b9b691846bd465df8047b3a
:10203c00704700bf0040004180b400af044b4af22f
:10204c0016529a8000bfbd465df8047b704700bff6
:10205c000040004180b400af064bdb6a03f0040380
:10206c00002b14bf01230023dbb21846bd465df8dc
:10207c00047b70470040004180b483b000af054b37
:10208c00db6a7b607b6818460c37bd465df8047bc9
:10209c00704700bf0040004180b400af074b1b8a63
:1020ac009bb203f48073002b14bf01230023dbb21b
:1020bc001846bd465df8047b704700bf00400041e8
:1020cc0080b400af044b4af217529a8000bfbd4651
:1020dc005df8047b704700bf0040004180b400af46
:1020ec00044b4af232529a8000bfbd465df8047b25
:0820fc00704700bf00400041e5
:020000040000fa
:0421040003f026b806
:020000040000fa
:102108002de9f04f2ded028bd2e9008997b0cde98a
:102118000c138b6808930b690f90d1e900b61493e0
:10212800cd68002200234046494603f00bfc40b925
:102138001bf0040f32d11bf00803059330d0202385
:1021480003e089f0004399462d232b70089b03f187
:10215800ff3a012305934c4929f0004300208b42a4
:1021680008bf80451fd10d9b413b192b059b94bf90
:10217800464947492b44184603f07ffe284603f09a
:102188003bfecdf800b00246089b0f98294602f0a6
:102198003cfe17b0bdec028bbde8f08f2b23d4e7d3
:1021a800ddf820a0d7e7994208bf404509d20d9b2a
:1021b800413b192b059b94bf364937492b44184698
:1021c800dae7002200234046494603f00bfc9fed66
:1021d8002c7b8ded027b48b300240d9803f033fe71
:1021e800002ec3b20993c0f2e781672b5ad1002ea3
:1021f80008bf0126231d02dbb442c0f2ca8165274d
:1022080061e09ded067b8ded027b01340022234bbe
:10221800dde9020102f0b6fa42464b46cde9060175
:1022280003f074fb0028ecd000271fe00446ede71c
:1022380014f5967f11da87b90022194b40464946b2
:1022480002f0a0fa002280468946154bdde902011a
:1022580002f098facde902010127dde90201002226
:102268000e4b01f024fccde90201013cdde902231b
:102278004046494603f066fb0028d9d1ade700bfc8
:10228800000000000000f03f0000f07f305e00001a
:10229800345e0000385e00003c5e00000000244010
:1022a80000005043099f662f06f101060bd1002c50
:1022b80004da9fedbb7b8ded027b0024099b672b25
:1022c80018bf361966279ded027bcde906898ded8d
:1022d8000a7b00230e93dde90a23dde9060101f0fc
:1022e800e6fb41ec100b02f0f3fb51ec100bb0eee7
:1022f800408af0ee608a03f0b1f9b0ee480af0eed9
:10230800680a069b1093079b159083f0004311936e
:102318009ded0a1b9ded102b03f03afc53ec102b9e
:1023280083f000430793dde90a01a14b8ded060a0e
:10233800002201f0bcfb0e9b01339e42cde90a014d
:102348000e93c8d100229b4b02f01cfacde90a017a
:1023580002460b46dde9060103f0f4fa002840f0d6
:102368008580dde90a23dde9060103f03bfb10b1b6
:10237800159bda077ad5dde90a234046494601f07c
:1023880077fa0022cde90601894bdde9020102f066
:10239800f9f9dde90623cde90a0103f028fa002856
:1023a80069d0662f04f1010469d10136a146a9eb71
:1023b800060310934ff000080bf01003059ecdf8ac
:1023c80008801593109b994540f08380029b002b51
:1023d80000f0c9800022652f05eb0600aa5529d117
:1023e800149b1499013b9442ea54c1f1030ebcbffb
:1023f800644201220a21002c40f0bc800eeb030c41
:10240800bcf1000f00f3b680002a03f1ff3114bfbe
:102418002d222b226a540d9a413a023b192a98bf61
:1024280045279e4205eb0301ef54aaf1020a01da9f
:1024380003f023fd0bf00303022b7ff49faebaf1e8
:10244800000f7ff79bae284603f0d6fc05eb0a0386
:10245800059a824240f39980059b2b4418465246c0
:10246800302103f0c1fc0023089387e69fed4e7be3
:102478008ded0a7b7fe79ded027b8ded0a7b652f55
:1024880014bfa1464ff0000991e7029a52b9b9f179
:10249800000f07da0e992e226a54012201360af13a
:1024a800ff3a029205eb0801aa19314403e04ff004
:1024b800300002f8010b9142f9d108eb06023033e3
:1024c800aaeb080808f1ff3a561cab544ff0000875
:1024d80027e00c9b0e961b69053bb3427ff676af4f
:1024e800dde90a23dde9060101f0e1fa41ec100b10
:1024f80002f0eefa51ec100bb0ee408af0ee608a72
:1025080003f0acf8159a09280346a8bf092302432b
:10251800bbd1099a672ab8d1b9f1000fc2da08f11c
:102528000108069b1293079bb0ee480af0ee680a72
:1025380083f0004313939ded0a1b9ded122b03f0ce
:1025480027fb53ec102b83f000430793dde90a01c6
:102558000022174b8ded060a01f0a9fa09f1ff399f
:10256800cde90a012ee71bf0100f1ebf2e23ab5535
:1025780001362fe7b4fbf1fc013b01fb1c4430346e
:10258800ec540af1ff3a644635e72a5c1a540138dc
:102598005ee7002cbff696ae662784e6062629e697
:1025a800000000000000f03f0000000000000000f4
:1025b8000000244000001440099b672beed01f4602
:0425c800062670e68d
:020000040000fa
:0425cc000020704734
:020000040000fa
:1025d0002de9f04f95b0cde912030b68089392ed09
:1025e000007b4b680a938b6809930b690d93cc6849
:1025f0000022002351ec170b8ded047b03f0a6f9ac
:1026000040b9089b580734d4089b13f0080732d010
:10261000202306e0dde9042181f00043cde9042315
:102620002d232370099b01275a1edde90403dff8df
:10263000f8b223f000414ff0000a594508bf504559
:102640001bd1139b413b192b04eb070094bfb049ee
:10265000b04903f016fcaf4803f0d2fb089b00938f
:102660000246099b1298214602f0d3fb15b0bde843
:10267000f08f2b23d5e7099ad7e7139b8b45a3f15e
:10268000410308bf82450b9309d2192b04eb0700c5
:1026900094bfa149a14903f0f4fba048dce7302135
:1026a000e1550b997b1c1a2934bf58217821e1543c
:1026b000931e079300220023dde90401023703f093
:1026c00095f9002800f07b819fed8f7b8ded027bdb
:1026d00000260a9bdde90289002bdde904abb8bfc7
:1026e00018230e93002542464b465046594601f0aa
:1026f000e2f941ec100b02f0eff942464b4651ec87
:10270000100b8ded100b02f041f802460b465046bf
:10271000594603f0d9fb824b82468b4640464946d8
:10272000002202f033f86b1c0c930a9b002b8046ae
:10273000894606da002200235046594603f056f92e
:1027400028b90e9bab4200f3408101330c93002269
:10275000744b4046494602f019f8804689460246c5
:102760000b465046594603f0f1f8002840f02f81ff
:1027700042464b465046594603f038f930b1dde940
:10278000100102f06fffc10740f1218142464b4624
:10279000dde9040101f070f8cde90401dde904216f
:1027a00021f00043604900208b4208bf82423ff481
:1027b00048af4ff000083d46c246c1460d9b053b61
:1027c000ab42ab4633d9dde90223dde9040101f078
:1027d00072f941ec100b02f07ff951ec100b8ded0a
:1027e0000e0b02f03fff002840f0f680b9f1000f19
:1027f00000f0f28008f10108dde90223dde90e01b5
:1028000001f0c4ff02460b46dde9040103f05cfb66
:10281000434bcde904010022dde9020101f0b6ffde
:102820000c9b09f101094b45cde90201c6d1baf172
:10283000000f1dd1b8f1000f00f015810a9b002b8d
:1028400040f31181089bda0700f10d812e2308eb7c
:102850000502635522446319302103f8011f9a428f
:10286000fbd1079b45446fea0808434401350793b1
:102870000d9b0d990022013b9642625504eb050029
:10288000e254bcbf76420122c1f1020e4ff00a08a9
:10289000002e40f0d8800eeb030cbcf1010f00f0cd
:1028a000d280002a03f1ff3114bf2d222b22625463
:1028b0000b9a023b1a2a34bf502270229d4204eb2d
:1028c0000301e25401da03f0dcfa089b03f003038e
:1028d000022b14d1079ba3f10208b8f1000f0edd03
:1028e000204603f08dfa04eb0803b84280f2b7806b
:1028f00042463021e01903f07bfa00230993204679
:10290000aae600bfaff30080000000000000f03f27
:10291000205e0000245e0000285e00002c5e0000a7
:102920000000b03f000020400000f07fcde90289a8
:102930000136dde902231046194600f09dff80466e
:10294000894602460b46dde9040102f0ffff00283c
:10295000ecd0dff82cb1dff82c914ff0000a4ff0eb
:102960000008dde90223dde9040102f0efff0028a1
:102970003ff4afae52465b46dde9020101f006ffcf
:102980000022002303f032f878b142464b46dde9dd
:10299000020101f0fbfe4246cde902014b46dde9b2
:1029a000040101f0f3fecde90401dde90201524624
:1029b0005b4601f0ebfe013ecde90201d1e79fed60
:1029c0002e7b06468ded027bb3e70c9d8be64ff028
:1029d00000084ff00009d9e6baf1000f0bd1b9f1a8
:1029e000000f08d02e2304f80b30079b013b013564
:1029f00007934ff0010a04eb080362192b4403e02c
:102a00004ff0300102f8011b9a42f9d1079b05eb08
:102a1000080ba3eb08080b9b0928d4bf30305730b4
:102a2000192b06d840f02003613b192b01d803f085
:102a300015fa08f1ff330bf1010504f80b000793b9
:102a40004ff00008d8e60799b6fbf8fc013b08fbfd
:102a50001c6630360139e6540791664618e7225c59
:102a60001a54013841e7089bdb067ff501af2e239e
:102a700063550135fce600bf000000000000f03f98
:082a80000000e03f000050439c
:020000040000fa
:102a880080b400af194b01221a8000bf174b1b6995
:102a980003f00103012bf9d0144b48f280121a807d
:102aa80000bf124b1b6903f40043b3f5004ff8d085
:102ab8000e4b4ff400721a6200bf0c4b1b6903f0f7
:102ac8002003202bf9d0094b00225a6200bf074b84
:102ad8001b6903f04003402bf9d0044b4ff480727c
:102ae8005a8100bfbd465df8047b70470024004052
:102af80080b400af0b4b1b889bb20a4a6fea434372
:102b08006fea53439bb2138000bf064b1b6903f463
:102b18000043b3f5004ff8d000bfbd465df8047b15
:102b2800704700bf0024004080b400af0a4b1b88e8
:102b38009bb2094ac3f30e039bb2138000bf064b36
:102b48001b6903f40043b3f5004ff8d000bfbd463e
:102b58005df8047b704700bf0024004080b400afdc
:102b6800094b1b889bb2084a43f002039bb21380af
:102b780000bf054b1b6903f00203022bf9d000bf0d
:102b8800bd465df8047b70470024004080b400af68
:102b9800094b1b889bb2084a23f002039bb213809f
:102ba80000bf054b1b6903f00203022bf9d000bfdd
:102bb800bd465df8047b70470024004080b483b0b4
:102bc80000af7860074a7b68936100bf054b1b69bb
:102bd80003f00803082bf9d000bf0c37bd465df899
:102be800047b70470024004080b483b000af786055
:102bf800074a7b68136200bf054b1b6903f020037b
:102c0800202bf9d000bf0c37bd465df8047b704718
:102c18000024004080b483b000af7860074a7b6826
:102c2800536200bf054b1b6903f04003402bf9d0ea
:102c380000bf0c37bd465df8047b70470024004098
:102c480080b400af124b1b889bb21bb2002b11db68
:102c58000f4b1b889bb20e4a6fea43436fea5343fc
:102c68009bb2138000bf0a4b1b6903f40043b3f502
:102c7800004ff8d000bf064b1b6903f00803082b70
:102c8800f9d0034b9b691846bd465df8047b704735
:102c98000024004080b400af4ff0ff331846bd4613
:102ca8005df8047b704780b400af4ff4806318462a
:102cb800bd465df8047b704780b483b000af786090
:102cc800044b7a6892b25a8100bf0c37bd465df852
:102cd800047b70470024004080b483b000af786064
:102ce800044b7a6892b21a8100bf0c37bd465df872
:102cf800047b70470024004080b483b000af0346d3
:102d08003960fb710549fb7920333a6841f8232083
:102d180000bf0c37bd465df8047b704700240040b7
:102d280080b483b000af0346fb71054afb792033ba
:102d380052f8233018460c37bd465df8047b7047bf
:102d48000024004080b400af034b9b6edbb21846f2
:102d5800bd465df8047b70470024004080b400af96
:102d6800034b5b6e1846bd465df8047b704700bf99
:102d78000024004080b483b000af78603960064a10
:102d88007b681360044a3b68936000bf0c37bd46fc
:102d98005df8047b704700bf1008002080b582b042
:102da80000af0f4b9b899bb21a460e4b5a600c4bd7
:102db8004cf2ff329a810a4b9b890a4b1b68002b05
:102dc8000ad0084b5b687b60064b9b683b60054bf1
:102dd8001b6839687868984700bf0837bd4680bdca
:082de800002400401008002047
:020000040000fa
:102df0002de9f04fadb00027dff8e4a203910646bd
:102e00001546b8464ff0ff3903990b78002b00f0b8
:102e1000f9800cabcde907890a938023cdf8248093
:102e20000b9300240b5d0bb1252b26d134b1224628
:102e3000304602f0fefc039b23440393039b1a7865
:102e4000252a40f0d78003f1010bcdf80cb0039890
:102e500003782b2b1ad025d8202b1bd0232b1dd049
:102e60002a2b27d002f023fc0990039b1a78303ad2
:102e7000092a2ed801330393f7e70134d2e7079be1
:102e800043f00103013007930390e0e7079b43f011
:102e90000403f7e7079b43f00803f3e7079b43f0be
:102ea0001003efe72d2bead0302bd9d1079b43f04d
:102eb0000203e7e72b681a1d1b682a600130002b0c
:102ec0000390099305da079a5b4282f001020792a8
:102ed0000993079bda0744bf23f002030793039b80
:102ee0001a782e2a0dd1581ccdf8208003905a78dc
:102ef0002a2a25d1023303932b681a1d1b682a60e6
:102f0000089303a802f0eafc039b0190187802f0f2
:102f10009eff6928019979d032dc632800f0c680d1
:102f200019dc252800f0d080612853d025238df8a6
:102f30001030cdf80cb0cdf81c80cde90898c0e079
:102f400002f0b5fb0890039b1a78303a092ad8d8ca
:102f500001330393f7e7642858d06728e6dc2a4654
:102f600004a802f045fe002800f09c80039b5a1c38
:102f700003921b7804aa07a93046fff7c5f838e08a
:102f8000702873d015dc6e2800f087806f28cdd1b3
:102f90002b46002204a801f005fe002800f08280e4
:102fa000039b04aa013307a93046039302f065f896
:102fb0001fe075283ad0782848d07328b6d18029e8
:102fc00070d1039b2a6801330393131d2b60126891
:102fd00000235be02a4604a802f00afe002861d024
:102fe000039b5a1c03921b7804aa07a93046fff7db
:102ff000effa04443c44a7426edd384b4f221a607e
:103000004ff0ff3738462db0bde8f08f2b46012238
:1030100004a801f0c7fd002844d0039b04aa013393
:1030200007a93046039301f013fee2e72b46002286
:1030300004a801f0b7fd002834d0039b04aa013393
:1030400007a93046039302f0f7f9d2e72b46002296
:1030500004a801f0a7fd28b3039b5a1c03921b7818
:1030600004aa07a9304601f029fcc2e72b4600223a
:10307000f02104a801f096fda0b1039b0133039356
:10308000dde90423134306d10023524607a9304645
:1030900002f0a6f9ade77823e2e72b463a1904a837
:1030a00001f036ff039b01330393a3e78029f9d195
:1030b000039b013303932b681a1d1b682a608df84c
:1030c0001030012304aae1e78029ebd1039b8df89e
:1030d000100001330393f4e7274695e62808002003
:0430e000425d00004d
:020000040000fa
:1030e4002de9f04f099f154604468e461e46002bd7
:1030f40040f0cc808a42b2fa82fc4cd9bcf1000f79
:103104000bd0ccf1200801fa0cfe20fa08f802fae0
:103114000cf548ea0e0e00fa0cf44fea15491ffab2
:1031240085f8befbf9fa210c09fb1ae30afb08fb3c
:1031340041ea03439b452ad9eb180af1ff3004d234
:103144009b4502d9aaf102002b44a3eb0b03a4b2c2
:10315400b3fbf9f209fb123302fb08f844ea034417
:10316400a04516d92c1902f1ff3303d2a04501d989
:10317400931e2c44a4eb080443ea004027b124fa2c
:103184000cf400233c607b603146bde8f08f504670
:10319400dbe71346eee702b9ffdebcf1000f2ed1e8
:1031a4008b1a01264fea154eaab2b3fbfef8210c86
:1031b4000efb183308fb02f941ea0343994561d930
:1031c400eb1808f1ff3004d2994502d9a8f10200a6
:1031d4002b44a3eb0903a4b2b3fbfef10efb1133a2
:1031e4004a4344ea0344a2424ed92c1901f1ff3365
:1031f40003d2a24201d98b1e2c44a41abce7ccf101
:10320400200e02fa0cf521fa0ef901fa0cf320fa59
:103214000efe4eea03034fea154800fa0cf4b9fb1c
:10322400f8f11ffa85fe08fb1192180c01fb0ef64b
:1032340040ea0242964221d9aa1801f1ff3003d292
:10324400964201d9881e2a44921b9bb2b2fbf8f91c
:1032540008fb192209fb0efe43ea02439e450fd9df
:10326400eb1809f1ff3604d29e4502d9a9f10206f2
:103274002b44a3eb0e0346ea004693e70846e3e734
:103284004e46f6e74046a4e70b46b6e78b4206d91e
:10329400002f7ed00026c7e90001304674e7b3fa58
:1032a40083fcbcf1000f0fd18b4201d3824209d8b9
:1032b400841a61eb030e0120002f6dd0c7e9004e84
:1032c400002661e76046f7e7ccf1200e03fa0cf321
:1032d40022fa0ef521fa0ef41d4301fa0cf320fa3a
:1032e4000ef10b434fea154a00fa0cf6b4fbfaf957
:1032f4001ffa85f80afb19401c0c09fb08f144ea83
:103304000044a14202fa0cf23fd92c1909f1ff3012
:1033140004d2a14202d9a9f102002c44641a9bb23e
:10332400b4fbfaf90afb194409fb08f843ea04411f
:1033340088452cd9691809f1ff3304d2884502d98c
:10334400a9f10203294443ea0040a1eb0801a0fbd0
:1033540002894945c2464c4602d306d1464504d2a9
:10336400b8eb020a69eb05040138afb1b6eb0a0306
:1033740061eb040606fa0efe23fa0cf34eea03038d
:1033840026fa0cf6c7e900369ae74846c6e74b46e4
:0c339400d9e73e463846f7e63e46f5e62f
:020000040000fa
:1033a000840900200400000001000000000000006b
:1033b000f40700201c000000000000009807002017
:1033c000300000000000000014060020c0000000d3
:1033d000000000003408002002000000000000008f
:1033e000100800200c00000000000000c8070020aa
:1033f0002c00000000000000360800200200000041
:103400000100000001050000d4060020700000004b
:1034100000000000940700200400000000000000ed
:103420004407002050000000000000003808002081
:103430006c0000000100000044080020400800204b
:1034400044080020000000002500000008000020c3
:103450000004000000000000000000000000000068
:10346000000000000000000000000000000000005c
:1034700000000000cd25000000000000000000005a
:103480000000000000000000b55100000000000036
:10349000000000000000000000000000000000002c
:1034a00000000000000000200804000000000000f0
:1034b000640900202000000001000000010000005d
:1034c00003000000000000000000000000000000f9
:1034d00000000000000000001c0800201c08002064
:1034e0000800000000000000240800200400000084
:1034f0000000000028080020040000000000000078
:10350000080400200c02000000000000a4080020b5
:103510006000000001000000010000000300000046
:10352000000000000000000000000000000000009b
:10353000000000002d53000000000000000000000b
:1035400000000000d95e0000af5a0000000000003b
:10355000000000000000000000000000000000006b
:10356000000000000000000000000000000000005b
:1035700000000000000000002c08002004000000f3
:1035800000000000040900206000000001000000ad
:103590000100000003000000000000000000000027
:1035a0000000000000000000000000002d5300009b
:1035b000000000000000000000000000d95e0000d4
:1035c000af5a0000000000000000000000000000f2
:1035d00000000000000000000000000000000000eb
:1035e00000000000000000000000000000000000db
:1035f00030080020040000000000000088090020be
:1036000004000000010000000000000000000000b5
:10361000000000004444444444444444444444447a
:020000040000fa
:1036200080b400af1c4b012283f8cc201a4b01223e
:1036300083f8cd20184b222283f8b620164b4ff486
:103640000012c3f80021144b002283f85521124bbd
:10365000002283f83a21104b0322c3f890210e4b2d
:10366000052283f8c0210c4b052283f8c1210a4ba7
:10367000012283f8c821084b012283f8c921064b97
:10368000002283f8b021044b332283f8b42100bf19
:10369000bd465df8047b70470080004180b483b074
:1036a00000af78607b681b6a18460c37bd465df832
:1036b000047b704780b485b000aff860b9607a6071
:1036c000fb681a69bb68db4302ea0301ba687b68de
:1036d0001a40fb680a431a6100bf1437bd465df803
:1036e000047b704780b483b000af78607b681b694f
:1036f00018460c37bd465df8047b704780b483b034
:1037000000af786039607b683a689a6100bf0c3717
:10371000bd465df8047b704780b483b000af78602d
:1037200039607b683a685a6100bf0c37bd465df866
:10373000047b704780b483b000af786039607b68e9
:103740003a68da6100bf0c37bd465df8047b70470c
:1037500080b483b000af786039607b683a685a60a3
:1037600000bf0c37bd465df8047b704780b483b062
:1037700000af786039607b683a689a6000bf0c37a8
:10378000bd465df8047b704780b487b000af034648
:103790000a46fb8013467b717b793b61fb885b09a2
:1037a0009bb203f5020303f58073db01fb60fb882a
:1037b00003f01f03bb60fa68bb685b08134493f80f
:1037c0003030dbb27b61bb6803f00103002b07d014
:1037d0007b6923f0f0023b691b0113437b6105e029
:1037e0007b6923f00f033a6913437b61fa68bb6876
:1037f0005b087969c9b213440a4683f83020fa6835
:10380000bb68134440331b78dbb2fa6843f0010312
:10381000d9b2bb68134440330a461a7000bf1c3744
:10382000bd465df8047b704780b485b000af0346a9
:10383000fb80fb885b099bb203f5020303f58073f1
:10384000db01fb60fb8803f01f03bb60fa68bb6809
:10385000134440331b78dbb2fa6823f00103d9b27a
:10386000bb68134440330a461a7000bf1437bd4684
:083870005df8047b704700bf06
:020000040000fa
:1038780030b591ea030f00f18280841a71eb030cd2
:1038880005d2121953eb0c03001b71eb0c0140f22b
:10389800000ccff6e07c1cea430f52d0bceb410f82
:1038a8005fd90c0da4eb135e5ff0010c6cf31f5194
:1038b8006cf31f53def1200c2ad303fa0cf54019e0
:1038c80041f1000122fa0ef5401923fa0ef569417b
:1038d80012fa0cf2cd0208d349085fea30005fea19
:1038e800320228bf42f001020134013c5fea500c69
:1038f80072f1004250f1000051eb04514ff40013f3
:1039080013eb410f38bf30bd6ff31301002030bdfa
:10391800bef1200ebef1200f1ed223fa0ef540197b
:1039280041f10001cef1200c124218bf012203fa26
:103938000cf52a43cee711ea5c0f04bf00200021f2
:1039480030bd1cea410f04bf01f00041002030bd2a
:1039580001f00041002030bd21f4801101eb045139
:1039680030bd004218bf41f00101bceb410f08bf58
:1039780030bd4ff0fe4141f47801002030bd83f0a6
:103988000043841a71eb030e07d28ef0004e001b21
:1039980071eb0e01121953eb0e0340f2000ccff637
:1039a800e07c1cea430fc6d0bceb410f72d90c0d6a
:1039b800a4eb135ec90241ea5051c00241f0004134
:1039c800db0243ea5253d20243f00043def1200cfb
:1039d80041d312fa0cf522fa0ef203fa0cf542ea78
:1039e800050218bf42f0010223fa0ef3801a99412a
:1039f800e30ac4f30a0411f0404f03d418d0013c81
:103a080040004941013c23d44205c00a40ea4150e4
:103a1800c90a51eac3715fea500c72f1004250f1d1
:103a2800000051eb045130bd01002fd00020203c94
:103a38000029f9d0b1fa81fcdcf1200e11fa0cf161
:103a480030fa0ef510fa0cf02943a4eb0c04d9e770
:103a58000020d90730bdaef1200ebef1200f0dd2e7
:103a6800cef1200c03fa0cf533fa0ef32a4318bff3
:103a780043f00103c01a61f10001b9e721f00041e8
:103a8800c00a40ea4150c90a01eb045130bd002088
:103a9800002130bd004218bf41f00101bceb410fcd
:0e3aa8007ff467afbceb430f3ff463af30bd5c
:020000040000fa
:103ab600f0b581ea030e0ef0004e40f20007cff695
:103ac600e07717ea41051ebf95ea070f17ea430498
:103ad60094ea070f00f0c5806d0da5eb545707f566
:103ae60080674ff0004646eac12444ea5054c002bb
:103af60046eac32343ea5253d202801a9c4104d2b7
:103b06000018644180185c41013f5b084fea3202ad
:103b16000025002140f001004ff0070604e0801a5e
:103b26009c4136d340416441801a9c4136d3404182
:103b36006441801a9c4136d340416441801a9c41bd
:103b460036d340416441801a9c4136d3404164419a
:103b5600013e17d0801a9c4136d340416441801af9
:103b66009c4136d340416441801a9c4136d3404142
:103b76006441090201eb156190ea052520f0ff007a
:103b86004540cce7801a9c4156d335e080185c410d
:103b9600c8d20018644180185c41c8d2001864413c
:103ba60080185c41c8d20018644180185c41c8d2b4
:103bb6000018644180185c41c8d200186441013e77
:103bc60017d080185c41c8d20018644180185c4147
:103bd600c8d20018644180185c41c8d200186441fc
:103be600090201eb156190ea052520f0ff0045402a
:103bf600cce780185c411fd3420918bf44f001048a
:103c0600490101ebd56100f01f0000eb451021f4de
:103c1600801141ea0e01013041f10001244208bf42
:103c260020f00100b7f5006f3eda013f49dd01ebf8
:103c36000751bde8f0407047490101ebd56100f03e
:103c46001f0000eb451021f4801141ea0e01b7f583
:103c5600006f29da013f34dd01eb0751bde8f04082
:103c66007047004218bf41f00101124218bf43f0ed
:103c76000103b7eb410f2cbfb7eb430f1ce0b7ebcb
:103c8600410f04bfb7eb430f16e017ea410f04bf1d
:103c960017ea430f10e017ea410f12d017ea430f55
:103ca60002d0b7eb430f0cd04ef0fe4141f4700149
:103cb6000020bde8f04070474ff0fe4141f4780126
:063cc600f6e77146f4e789
:020000040000fa
:103ccc0080b400af364b1b78dbb2354a43f00103ae
:103cdc00dbb2137000bf324b5b6803f00103012ba6
:103cec00f9d02f4b9922da612d4b00221a622c4b02
:103cfc0003221a632a4b00225a63294b03221a61ae
:103d0c00284b00221a81274b01229a82254b102224
:103d1c001a84244b10229a85224b10221a87214b8d
:103d2c001022a3f844201f4b1022a3f850201d4b47
:103d3c001022a3f85c201b4b1022a3f86820194b0f
:103d4c001022a3f87420174b1022a3f88020154bd7
:103d5c001022a3f88c20134b1022a3f89820114b9f
:103d6c001022a3f8a4200f4b1022a3f8b0200d4b67
:103d7c001022a3f8bc200a4b1b78dbb2084a43f094
:103d8c000203dbb2137000bf054b5b6803f0020348
:103d9c00022bf9d000bfbd465df8047b704700bf15
:103dac00002800401406002080b483b000af034606
:103dbc00fb80fb88054a012101fa03f3136100bf64
:103dcc000c37bd465df8047b704700bf00280040ef
:103ddc0080b483b000af0346fb80fb88054a012109
:103dec0001fa03f3d36000bf0c37bd465df8047bca
:103dfc00704700bf0028004080b485b000af034678
:103e0c00b9607a60fb81fa89124913465b0013444e
:103e1c009b000b4408331b889bb2fa899a4212d13f
:103e2c00fa890c4913465b0013449b000b44ba6897
:103e3c001a60fa89074913465b0013449b000b4434
:103e4c0004337a681a6000bf1437bd465df8047bf2
:103e5c00704700bf1406002080b582b000af094b3c
:103e6c0001225a61084b1b68002b06d0064b5b687d
:103e7c007b60054b1b687868984700bf0837bd46c8
:103e8c0080bd00bf002800401406002080b582b021
:103e9c0000af094b02225a61084bdb68002b06d09d
:103eac00064b1b697b60054bdb687868984700bf45
:103ebc000837bd4680bd00bf002800401406002016
:103ecc0080b485b000af78607b6803f00703fb60bb
:103edc000c4bdb68bb60ba684ff6ff031340bb604a
:103eec00fb681a02bb68134343f0bf6343f400330f
:103efc00bb60044abb68d36000bf1437bd465df895
:103f0c00047b704700ed00e080b483b000af034643
:103f1c00fb80b7f90630002b0bdbfb8803f01f028c
:103f2c000749b7f906305b09012000fa02f241f8a3
:103f3c00232000bf0c37bd465df8047b704700bfe3
:103f4c0000e100e080b483b000af03463960fb8031
:103f5c00b7f90630002b0adb3b68dab20c49b7f92b
:103f6c0006305201d2b20b4483f800230ae03b68be
:103f7c00dab20849fb8803f00f03043b5201d2b2ba
:103f8c000b441a7600bf0c37bd465df8047b7047b6
:103f9c0000e100e000ed00e080b500af0020fff78d
:103fac008fffbff35f8f62b607210b20fff7caffad
:103fbc000b20fff7a9ff07210c20fff7c3ff0c20f4
:103fcc00fff7a2ff07210d20fff7bcff0d20fff725
:103fdc009bff07211f20fff7b5ff1f20fff794ff62
:103fec0007214620fff7aeff4620fff78dff072184
:103ffc004720fff7a7ff4720fff786ff0721482040
:10400c00fff7a0ff4820fff77fff07214920fff7ac
:10401c0099ff4920fff778ff0c4b5b6a0b4a43f47e
:10402c0080235362094b5b69084a43f010035361c8
:10403c00064b5b6a054a43f400335362034b5b6add
:10404c00024a43f48033536200bf80bd00ed00e0b0
:10405c0080b400afbff35f8f62b600bfbd465df8a2
:10406c00047b704780b483b000afeff310833b60e8
:10407c003b68002b0cbf01230023fb7172b6bff30e
:10408c005f8ffb7918460c37bd465df8047b704793
:10409c0080b483b000af0346fb71fb79002b03d0d7
:1040ac00bff35f8f62b602e072b6bff35f8f00bfe3
:0c40bc000c37bd465df8047b704700bf68
:020000040000fa
:1040c800353030206d696c6c695365636f6e64734d
:1040d8000000000031205365636f6e64000000002b
:1040e800000000000000000032205365636f6e641a
:1040f8007300000000000000000000003420536539
:10410800636f6e6473000000000000000000000090
:104118002a2a2a2a2a2a2a2a2a2a2a2a2a20507293
:10412800696e74696e672054656d70657261747527
:104138007265202a2a2a2a2a2a2a2a2a2a2a2a2a5e
:104148000d0a00002a2a2a2a2a2a2a2a2a2a2a2a58
:104158002a205072696e74696e6720546f67676ca5
:10416800696e67204c45442072617465202a2a2aaa
:104178002a2a2a2a2a2a2a2a2a2a0d0a000000bfbd
:10418800546f67676c696e67204c454420617420e2
:10419800353030206d696c6c697365636f6e64735c
:1041a8002072617465200d0a000000bf546f6767b4
:1041b8006c696e67204c4544206174202573207219
:1041c800617465200d0a00004c454420546f6767f0
:1041d8006c696e6720726174652069732063686119
:1041e8006e67656420746f2025730d0a000000bf98
:1041f80054656d7065726174757265203d20253057
:10420800326420460d0a000053616d706c696e6758
:104218002054656d70657261747572652065766588
:1042280072792031207365636f6e64200d0a000077
:1042380053616d706c696e672054656d706572614d
:1042480074757265206576657279203220736563ae
:104258006f6e6473200d0a0053616d706c696e6730
:104268002054656d70657261747572652065766538
:1042780072792034207365636f6e6473200d0a00b1
:1042880053616d706c696e672054656d70657261fd
:104298007475726520657665727920353030206dc9
:0842a80073200d0a000000bfa5
:020000040000fa
:1042b00080b400af00bfbd465df8047b704780b49a
:1042c00000af044b00221a7400bfbd465df8047baa
:1042d000704700bf0014004080b400af174b42226b
:1042e000c3f8842000bf154bd3f8843003f040039b
:1042f000402bf8d1124b00229a63114b77225a635c
:1043000000bf0f4bdb6b03f00403042bf9d00c4b05
:10431000022283f8302000bf094bdb6b03f002035d
:10432000022bf9d000bf064b1b6c03f00303032bd9
:10433000f9d100bfbd465df8047b7047001c00400a
:104340000010004080b400af00bfbd465df8047ba4
:10435000704780b400af0d4b01225a7100bf0b4b68
:10436000db78dbb203f00103012bf8d1084b094adb
:104370001a6200bf064b5b6803f00403042bf9d0fc
:1043800000bfbd465df8047b704700bf00080040d9
:10439000001c00400701010080b400af074b084a31
:1043a0005a6200bf054b5b6803f00803082bf9d085
:1043b00000bfbd465df8047b704700bf001c004095
:1043c0000701020080b400af074b084a9a6200bfa1
:1043d000054b5b6803f01003102bf9d000bfbd46fe
:1043e0005df8047b704700bf001c004006013000f0
:1043f00080b500affff75cfffff761fffff7a2ff9b
:10440000fff7e0fffff768fffff7a3fffff7c4ff29
:10441000184b4122c3f8902000bf164bd3f89030c0
:1044200003f04003402bf8d1124b4122c3f808217e
:1044300000bf104bd3f8083103f04003402bf8d1f4
:104440000c4b4122c3f8102100bf0a4bd3f81031a6
:1044500003f04003402bf8d1074b6ff07f421a6105
:10446000054b40f2ff725a61034b05221a6200bfee
:0c44700080bd00bf001c004000080040a0
:020000040000fa
:10447c002de9f04f87b0039003a801f077f90028dd
:10448c0003da002007b0bde8f08f039b1b095d1e0b
:10449c00202d0fd9023b5e4ab3f5007f35bf02ebee
:1044ac00d30302ebd31313f8045c13f8045c34bf8e
:1044bc00013511350123a5f12001c5f1200203fac4
:1044cc0001f923fa02f203fa05f8d8f1000849ead7
:1044dc00020969eb4909cde90089dff84081dff871
:1044ec0030914746d8e90023009902ea010a019964
:1044fc0003ea010b5aea0b0342d1039b05a81033c4
:10450c00059301f040fc18b9424b0c221a60b9e734
:10451c00d8f80852a84206d0059b103b05930123fe
:10452c0000f110058360059bea18012143f001039b
:10453c00b5f1080442f8083c42f8041cc7f80822fc
:10454c0045f8043c9dd0204601f07bfa88b155f823
:10455c00083c55f8041c23f00103e31a5a6822f0b6
:10456c0001020a445a6055f8041c21f00101625002
:10457c001c462046039901f0c5fa04f1080081e7b6
:10458c005446254bbaf1000f34d1cbf1000000eab0
:10459c000b00434309ebd36393f83c602036304661
:1045ac0001f092fb731c57f8334007ebc303083b35
:1045bc009c4297d0272e26dd0235ae4201dc3f2ee1
:1045cc0021d16268039922f00102551a284601f0a4
:1045dc0047f9864217d1e068a6686318d8609e60d8
:1045ec0083609868c36041f0010060505d60a55025
:1045fc006060bee7caf100002040434309ebd3637f
:10460c0093f83c60cbe73146204600f0b7feb0e7ac
:10461c00d05200002808002029e66b07080400206f
:020000040000fa
:10462c0080b400af084b9b68074a23f001039360ea
:10463c0000bf054bdb6803f00103012bf9d000bf71
:10464c00bd465df8047b70470060004180b400af4c
:10465c000d4b9b680c4a23f00103936000bf0a4b7f
:10466c00db6803f00103012bf9d0074b5b68064aaa
:10467c0023f002035360044b01229a6000bfbd4635
:10468c005df8047b704700bf0060004180b400af50
:10469c000d4b9b680c4a23f00103936000bf0a4b3f
:1046ac00db6803f00103012bf9d0074b5b68064a6a
:1046bc0043f002035360044b01229a6000bfbd46d5
:1046cc005df8047b704700bf0060004180b400af10
:1046dc000d4b9b680c4a23f00103936000bf0a4bff
:1046ec00db6803f00103012bf9d0074b5b68064a2a
:1046fc0023f004035360044b01229a6000bfbd46b3
:10470c005df8047b704700bf0060004180b400afcf
:10471c000d4b9b680c4a23f00103936000bf0a4bbe
:10472c00db6803f00103012bf9d0074b5b68064ae9
:10473c0043f004035360044b01229a6000bfbd4652
:10474c005df8047b704700bf0060004180b400af8f
:10475c000a4b9b68094a23f00103936000bf074b87
:10476c00db6803f00103012bf9d0044b01221a6220
:10477c0000bfbd465df8047b704700bf0060004180
:020000040000fa
:10478c00f0b540f2ff7681ea030c16ea115e1ebf0b
:10479c00b64516ea1355b54252d021ea465141f4ba
:1047ac008011a1fb024723ea465343f48013ae4425
:1047bc00a0fb03650cf0004c36197d41a1fb0347af
:1047cc0047f10003a0fb0217f619654153f10003f2
:1047dc00094218bf46f0010640f2fe74b3f5007fa3
:1047ec0013d2aef5806ea64523d24cea03312803d2
:1047fc0041ea155140ea16503203450872f1004265
:10480c0050f1000051eb0e51f0bdaef2ff3ea6454b
:10481c000fd24ceac321e80241ea555140ea565006
:10482c00f202450872f1004250f1000051eb0e51ba
:10483c00f0bd1eea0e0f2dd50cf000410020f0bd8e
:10484c0016ea115f04bf01f000410020004218bfbe
:10485c0041f0010116ea135f04bf03f0004300228c
:10486c00124218bf43f0010306ea1354b44218bfb6
:10487c00b64503d00cf000410020f0bd21f0004102
:10488c0023f00043b1eb065f0cd8b3eb065f09d8fd
:10489c0041b13bb10cf0004141f0fe4141f47001db
:1048ac000020f0bd40f20001c7f6f8710020f0bd09
:020000040000fa
:1048bc002de9f04fd1e901590e68d1f80c808bb07d
:1048cc00002da8bf26f002060393b8bf012516f0f1
:1048dc00100302900f460493d2e900ab37d05aea8a
:1048ec000b0334d0a9f102033c6916f0080104f162
:1048fc00ff3405914ff0000108f8041006f0020196
:10490c000691039918bf03f1ff335b1b4139012c4e
:10491c001fdc049b002b4cd1059b1bb1013c2023bd
:10492c0008f804303a690096013a4b46121b08eb22
:10493c000401029800f067fa029b5b68db0503d563
:10494c007b689842b8bf18460bb0bde8f08f4b4659
:10495c00cae75aea0b0007d1002d05dc58190028cc
:10496c00d7dd06980028d4d00af00f000928d4bf50
:10497c0030305730192904f1ff340ed840f0200c98
:10498c00acf1610cbcf1190f07d8cde908310792d5
:10499c0001f05efadde90831079a08f804004feae5
:1049ac001a1040ea0b704fea1b1c013d8246e3468d
:1049bc00ade7d2e900231343aed008eb0403039a0e
:0e49cc0003f8012c023c302308f80430a4e765
:020000040000fa
:0249da00fee7f6
:020000040000fa
:1049dc002de9f84300286ad050f8043ca0f10804f3
:1049ec0023f00106a719a259934200d0ffde7a6882
:1049fc0023681340da070fd4204601f022f8002870
:104a0c0057d1384601f095f80028f0d07b6823f098
:104a1c0001031e441f44eae746f00103636030467d
:104a2c003b6000f01dff054601f04ef923687a68e3
:104a3c001340db07e0d5dff88ce0dee90089c5f137
:104a4c00200ca5f1200228fa05f009fa0cfc29fa31
:104a5c0002f240ea0c001043012100ea010200239b
:104a6c001343c5f120007346a5f1200212d121fa9f
:104a7c0000f001fa02f2a94042ea00021ebfdef881
:104a8c0000000143cef8001022b1def804100a43f6
:104a9c00cef80420681c03ebc003a3f10802666087
:104aac003e60a2605a68e2605c60e3689c60bde8ae
:104abc00f883236823f00103e41a636823f00103ed
:084acc001e449ee708040020cf
:020000040000fa
:044ad4000020704707
:020000040000fa
:104ad80053ec102bc3f30a512de9f04140f2fd705d
:104ae8004e1e86421d4645d8a1f2ff30002835db10
:104af800332831dc284bc0f120084ff0ff3c03fa83
:104b080008f2a1f21f412cfa00fc10ee104a4cea00
:104b1800020c23fa01f24cea020c23fa00fe04ea22
:104b28000c0605ea0e0724ea0c0256ea070425eaf1
:104b38000e030fd0002a73f100040bda4ff480152e
:104b480005fa08f425fa01f10c43121925fa00f0c8
:104b580040eb030343ec102bbde8f081002a73f10e
:104b6800000303db9fed080bbde8f0819fed080b08
:104b7800bde8f0810029efd10a4603f0004343ec79
:104b8800102be9e7aff300800000000000000000f0
:0c4b9800000000000000f0bfffff0f0055
:020000040000fa
:104ba400882910b536d012dc812943d003dc802952
:104bb40040d0002010bd82290ed08429f9d1196873
:104bc40002b30a1d1a60b1f90020d3171ee0a02910
:104bd4002bd00bdc9029ecd11968073121f00701a7
:104be40001f108021a60d1e900230fe0c02901d0c5
:104bf400f029ded11a68111d1960136803600023bf
:104c0400436005e00a1d1a600a880023c0e90023f6
:104c14000120cfe7196822b10a1d1a6091f900201a
:104c2400d3e70a1d1a600a78efe71a68111d1960a4
:104c34001268cae719681ab10a1d1a600a68c4e73b
:0c4c44000c1d1c600b68c0e90032e1e7a9
:020000040000fa
:104c50002de9f041d2e900230c4686b007465fea11
:104c6000d37820684968a5680590e66841d052422b
:104c700063eb4303002908db20f002000590b8f144
:104c8000000f02d1059948072ad5691e05a8029090
:104c90000a20cde90010204600f078f9b8f1000fa5
:104ca00002d1059b59071fd5b8f1000f00f1ff3065
:104cb00014bf2d232b2333542269059b0093013a03
:104cc0002b46121a3118384600f0a3f87b68db0532
:104cd00003d563689842b8bf184606b0bde8f081b6
:104ce0000807d2d42946d1e71a07e5d50138202391
:084cf000e1e70029c0dac5e785
:020000040000fa
:104cf800f7b50446019130b90846fff7bbfb0646f5
:104d0800304603b0f0bd01a800f032fd002835dbc5
:104d180054f8043ca4f1080723f001057e197a59d8
:104d2800934200d0ffde019bab4215d9304600f01c
:104d380002ff88b1726822f00102531916440199e2
:104d480043f001028b4244f8042c326006d3384603
:104d580000f0dafe2646d3e72b46f0e7a1f108007b
:104d6800fff788fb06460028cad0a5f108022146ad
:104d780001f020f82046fff72dfec1e70026bfe727
:020000040000fa
:104d88002de9ff41836946690093f61acde901616f
:104d980004461746039216444ff002086d464246f1
:104da8002946206800f067feb04209d1d4e90232f2
:104db800c4e905331a44a262384604b0bde8f0815c
:104dc80000280dda6268002342f01002b8f1020fe1
:104dd800a362c4e90533626015d06b68ff1aebe77c
:104de8006b68984288bf0835a6eb000688bfc01ad2
:104df8002b6803442b606b68a3eb000088bf08f1a5
:0a4e0800ff386860cbe71f46d6e7cd
:020000040000fa
:104e12002de9ff471d460c9b13f0010906468a4601
:104e2200144601d195420bd822465146304600f035
:104e3200fffca54204d82546284604b0bde8f08709
:104e42002f1b102f3a464ff0200128bf1022684630
:104e5200b84600f0ccffb8f10f0f11d83b096ff044
:104e62000f0202fb03726946304600f0e1fcb9f121
:104e7200000fe1d122465146304600f0d9fcdbe773
:104e820010226946304600f0d3fca8f11008e2e790
:020000040000fa
:104e920080b586b000aff860b9607a6000237b61ac
:104ea2000023fb74fb68002b10d17b68002b0dd014
:104eb2000121b868fcf765fb0346fb74fb7c83f0b9
:104ec2000103dbb2002bf3d101237b617b6918461e
:104ed2001837bd4680bd80b586b000aff860b960b6
:104ee2007a600023fb75fb68012b0bd17968b868e7
:104ef200fcf798fa0346fb75fb7d83f00103dbb2f6
:0e4f0200002bf3d17b6818461837bd4680bde2
:020000040000fa
:104f1000842910b523d00cdc812903d0822913d039
:104f200080290bd119680c1d1c600b6803601a6086
:104f300013e0902921d003dc882917d0002010bd70
:104f4000a029efd0c029ece719680c1d1c600b6884
:104f50000360d1171046c3e900010120efe719688b
:104f60000c1d1c600b6803601a80f6e719680c1da5
:104f70001c600b6803601a70efe719680c1d1c6059
:0c4f800009680160d317c1e90023e6e7cf
:020000040000fa
:104f8c002de9f84f04460c9f6668d4f80cb02469e0
:104f9c0010463a68013c002502f0020a0b9a0bf805
:104fac000450002e1946b8bf0126012390464fea43
:104fbc00e279002c03dcd3b12046bde8f88f50ea2f
:104fcc00010209d1721b002a06dc0a9a521b002a24
:104fdc00f1ddbaf1000feed042464b4600f07afdff
:104fec00013c134630320bf804200135e1e73b68f5
:084ffc0023f010033b60dfe726
:020000040000fa
:10500400f8b5846a05460f46164654b1ab6a6a6918
:105014009b1ab3420bd2324639462846fff7b2fefa
:10502400f8bd00f09cfe0028f0d02046f8e7002ee2
:10503400f1d095f93430002b1bdbdbb23446621e11
:10504400b95c994212d1224639462846fff79afea6
:10505400a042e5d32744341b22463946686900f050
:10506400abfe6b691c446c613046d9e71446002ad8
:06507400e5d13446f0e72f
:020000040000fa
:10507a00f0b50c4649682368a768e56887b0002937
:10508a000593a4bf23f00203059305ab02930823fb
:10509a00cde900730646d2e900232046fff771ffe7
:1050aa00059bd90642bf00f1ff3030232b54059be4
:1050ba001a0742bf00f1ff3020232b542269059bb7
:1050ca000093013a3b46121a29183046fff79cfe14
:1050da007368db0503d563689842b8bf184607b002
:0250ea00f0bd17
:020000040000fa
:1050ec0080b500af074b1b681b680021184600f009
:1050fc0071fe054b1b681b680021184600f06afe08
:10510c0000bf80bd3c0800208009002080b582b023
:10511c0000af7860fcf74cfdfff7e2fffef77afa80
:10512c00fff760f900f086fefbf7aaf8fbf734fcfa
:10513c00fbf7c8fffef7c4fdfdf7a0fcfef72cff44
:08514c0000bf0837bd4680bd1d
:020000040000fa
:1051540070b5144b144a0021934206d3134a002518
:10516400d2e9003123b919b970bd03f8011bf3e783
:10517400946858180c3294b11446834208d111f043
:10518400030318bf012303eb910102eb8102e7e75c
:1051940014f8016b03f8016befe703f8015b83423a
:1051a400fbd1dde70000002000000020a033000058
:020000040000fa
:1051b4007fb5c36800911546002b18bf013a0192d0
:1051c40082680446cde902230e460222694600683d
:1051d40000f023fc002808dc00f0180383f0080228
:1051e40063681343636005460fe0019a8242fad272
:1051f400a368e363801ae268184420642ab15a1c45
:10520400e2632e441b7806f8013c284604b070bdc6
:020000040000fa
:10521400f0b59bb004460d46164600214c2207a863
:105224001f4600f0e3fd4ff0ff33029303f2031334
:10523400039304b901accde9044555b16a1e002db0
:10524400069208da094b4f221a604ff0ff301bb068
:10525400f0bd2a46f3e7002323703a46314602a8fc
:10526400cde9074400f044fdf1e700bf2808002021
:020000040000fa
:105274000e4a38b5002313600d4a0e4c13600e4ad3
:105284000e4d13600e4a13600e4a13600e4a5362a9
:1052940013610123936000f0b9fd00f0f6f8ac420d
:1052a40000d338bd54f8043b9847f8e7240800209d
:1052b40050070020700200004c0700207402000018
:0c52c40044070020480700205407002089
:020000040000fa
:1052d000202122232424252526262727282828287c
:1052e000292929292a2a2a2a2b2b2b2b2c2c2c2c16
:1052f0002c2c2c2c2d2d2d2d2d2d2d2d2e2e2e2ede
:105300002e2e2e2e2f2f2f2f2f2f2f2f0001170253
:105310001d1813031e1b190b1408040d1f161c1255
:0c5320001a0a070c1511090610050f0ee3
:020000040000fa
:10532c0038b50d46044608b9002038bd43689b06c5
:10533c0007d5d0e905239a4216d80023c4e90533d2
:10534c00a362d4e90f13994204d20122c91a20682e
:10535c0000f0d4fd0023c4e90f33002de4d0206805
:10536c00bde8384000f0b5bd0022c36a114698472d
:0c537c006369002be1d14ff0ff30d6e751
:020000040000fa
:1053880070b5d0e90245a54217d10122a1f1200349
:10539800c1f1200622fa06f602fa03f333438a40e3
:1053a800db43d6431ab10b490a6832400a605a1cdb
:1053b8001fbf084a51680b4053604368ac6043f014
:1053c800010223f00103e5604260c25842f0010285
:0853d800c25070bd0804002062
:020000040000fa
:1053e0002de9ff41134dd1f80080af88adf80c7066
:1053f00006462868029002aca8798df80e00002ab3
:1054000018bf1446d1e901571a461bb9204600f0cf
:10541000f7fc0246002d02dbaa4228bf2a46cdf83f
:1054200000803b4621463046fff7f3fc04b0bde860
:08543000f08100bfd05e000016
:020000040000fa
:10543800f0b50c4649682368a668e76887b0002974
:105448000593a4bf23f00203059305ab02930a2337
:10545800cde900630546d2e900232046fff792fd17
:105468002269059b0093013a3346121a39182846d7
:10547800fff7cbfc6b68db0503d563689842b8bfc0
:06548800184607b0f0bd5c
:020000040000fa
:02548e00704765
:020000040000fa
:10549000074a936823f001039360d36813f0010f68
:1054a000fbd1034b24225a6001229a60704700bf4f
:1054b00000600041eff3108172b6074ad2f88830dd
:1054c00043f47003c2f88830bff34f8fbff36f8f80
:1054d00001b962b6704700bf00ed00e0704700bf41
:020000040000fa
:1054e00008b50c4b98470c4b9847fff7e3fffff7c5
:1054f000cffffcf707fe094b23f07f03084a9360b8
:10550000084b9847084b9847084b9847fcf7d8f941
:10551000fee700bfdd540000dd5400000000000085
:1055200000ed00e075520000dd540000dd54000085
:020000040000fa
:1055300013b5836a8df80710044673b16369a26ad4
:10554000934212d3e36a01220df1070120469847e6
:10555000012806d19df8070005e000f002fc0028b4
:10556000ecd04ff0ff3002b010bd9df8070094f969
:0e55700034209042e6d05a1c62611870f3e7b6
:020000040000fa
:10557e0001f000428b1aa3f16051b1f5801f0adbd6
:10558e00b1f17f6f09d242eac102c10071f100414f
:10559e0042eb507070471046704701285b4113f57f
:1055ae00001f02d842f0ff407047c90041ea507018
:0c55be00104340f4800040f08040704733
:020000040000fa
:0255ca00704728
:020000040000fa
:1055cc00022a70b5044616461d461ad043689b063f
:1055dc0017d441b9002d08bf4ff4806505f10800c0
:1055ec00fef746ff01466368012e43f0200363601b
:1055fc00c4e9021514bfff230a2384f83430024b8c
:0c560c00e362002070bd00bf05500000ec
:020000040000fa
:1056180010b54ff48d60fef72dff0446a0b160224f
:10562800002100f0e1fb094be362094b2363094bbe
:10563800e361094b6364ff2384f8343004f16803a1
:10564800a3604ff48063e360204610bdd95e00007c
:0c565800cd2500002d530000b5510000ce
:020000040000fa
:10566400c1f30a5340f21e42d21a0edd202a0ad890
:10567400cb0243ea505040f00040d04090eae17041
:10568400b0ebe1707047002070474b00004218bf38
:1056940043f0010313f5001f88bf21f0004111f00e
:0a56a400004058bf6ff0004070474f
:020000040000fa
:1056ae0010b50278202a034600f10100f9d0a2f1cc
:1056be0009010429f5d92b2a07d02d2a11d1012150
:1056ce000133013b00200a2403e00021f8e7604388
:1056de00801a13f8012f303a092af8d901b940423d
:0656ee0010bd0021ede7f4
:020000040000fa
:1056f40038b50d46044608b9002038bd43689b06fa
:105704000ad40023a362c4e90533002df4d0206831
:10571400bde8384000f0e1bbd0e905239a42f0d956
:105724000022c36a114698476369002be9d14ff000
:04573400ff30e2e779
:020000040000fa
:1057380010b5054c227832b9044b13b10448aff3c5
:1057480000800123237010bdf40700200000000032
:105758000000000008b5034b1bb103490348aff331
:10576800008008bd00000000f807002000000000cd
:020000040000fa
:105778000c4a036810b5546a0b4a591e121b8a4218
:105788000ad22bb1094b0c221a604ff0ff3010bd22
:10579800102202600020fae7173323f00f0303609a
:1057a800f8e700bf54070020efffff7f280800201c
:020000040000fa
:1057b80010b44c68a40602460b4603d45df8044bab
:1057c80000f06cb891f93410c0b2814203d0596925
:1057d8009c6aa14205d3114618465df8044bfff7b1
:0e57e800a3be4c1c5c610a705df8044b704758
:020000040000fa
:1057f6004ff4001c1ceb410f98bf1ceb430f11d854
:1058060051ea030c50ea4c0c5cea020c0cd004d2b0
:1058160082428b41804101307047904299418041dc
:0c582600013070470020704701207047df
:020000040000fa
:1058320038b5436813f4807f0446154610d00369d7
:1058420040699a4228bf1d462a4600f0b6fa6269ac
:105852005319636123695b1b23610023535538bdd0
:0a586200db06fcd400f088faf9e739
:020000040000fa
:10586c0000090138202813d9b0f5007f05d2094b67
:10587c0003ebd00010f8040c7047b0f5e05f06d8cd
:10588c00044b03ebd01010f8040c103070473f2081
:08589c00704700bfd05200006c
:020000040000fa
:1058a40007b54a68c0b2d2050b468df8070006d585
:1058b4004a69511c5961107003b05df804fb012260
:1058c4000df10701184600f056fa10b19df80700d3
:0858d400f2e74ff0ff30efe7af
:020000040000fa
:1058dc0030b50c4a002312f8134024b902eb4303f1
:1058ec005b78184630bd01680d78a54209bf02eb04
