:020000040000fa
:10000000f0ff032079ef040003290500233e0500db
:10001000f34d0500376005002b6c05000000000063
:10002000000000000000000000000000b7240500f0
:10003000cb47050000000000b7240500b7240500e9
:10004000b7240500b7240500b7240500b724050030
:10005000b7240500b7240500b7240500b724050020
:10006000b7240500b7240500b7240500b724050010
:10007000b7240500b7240500b7240500b724050000
:10008000b7240500b7240500b7240500b7240500f0
:10009000b7240500b7240500b7240500b7240500e0
:1000a000b7240500b7240500b7240500b7240500d0
:1000b000b7240500b7240500b7240500a5a2050054
:1000c000afa20500b9a20500b7240500b7240500ba
:1000d000b7240500b7240500b7240500b7240500a0
:1000e000b7240500b7240500000000000000000050
:1000f00000000000b7240500b7240500b724050060
:10010000b7240500b7240500b7240500b72405006f
:10011000b7240500b7240500b7240500b72405005f
:10012000b7240500b7240500b7240500b72405004f
:10013000b7240500b724050019340400193404005d
:100140001934040019340400b7240500b72405004d
:10015000b7240500b7240500e13e0400e13e040099
:10016000e13e0400e13e0400b7240500b724050089
:10017000b7240500b7240500b7240500b7240500ff
:10018000ed9c0500fd9c05000d9d05001d9d0500d5
:10019000b7240500b7240500b7240500b7240500df
:1001a000b7240500b7240500b7240500b7240500cf
:1001b000b7240500b7240500b7240500b7240500bf
:1001c000b7240500b7240500b7240500b7240500af
:1001d000b7240500b7240500b7240500b72405009f
:1001e000b7240500b7240500b72405009971050060
:1001f000b7240500b7240500b7240500b72405007f
:10020000b7240500b7240500b7240500b72405006e
:10021000b7240500b7240500b7240500b72405005e
:10022000b7240500b7240500b7240500b72405004e
:10023000b7240500b7240500b7240500b72405003e
:10024000b7240500b7240500b7240500b72405002e
:10025000b7240500b7240500b7240500b72405001e
:0402600051d3040072
:020000040000fa
:10026400f8b500bff8bc08bc9e467047a153050012
:10027400f8b500bff8bc08bc9e4670477d53050026
:020000040000fa
:08028400241204000100000037
:020000040000fa
:10028c000000000000000000000000000000000062
:10029c000000000000000000000000000000000052
:1002ac000000000000000000000000000000000042
:1002bc000000000000000000000000000000000032
:100d0c00ffffff06ffffff62ffffffddffffffd4ca
:100d1c00ffffff52ffffff03000000000000000078
:100d2c0000000000000000000000000000000000b7
:100d3c0000000000000000000000000000000000a7
:100d4c000000000000000000000000000000000097
:100d5c000000000000000000000000000000000087
:100f5c0000000000ffffff2dffffffb0fffffffcb5
:100f6c00fffffffffffffffffffffff9ffffff9feb
:100f7c00ffffff2200000000000000000000000046
:100f8c000000000000000000000000000000000055
:100f9c000000000000000000000000000000000045
:100fac000000000000000000000000000000000035
:100fbc000000000000000000000000000000000025
:10119c00000000000000000000000000ffffff1036
:1011ac00ffffff7effffffeefffffffeffffffffd6
:1011bc00ffffffffffffffffffffffffffffffff33
:1011cc00fffffffffffffffffffffffffffffffd25
:1011dc00ffffffe5ffffff6cffffff0900000000b2
:1011ec0000000000000000000000000000000000f3
:1011fc0000000000000000000000000000000000e3
:10120c0000000000000000000000000000000000d2
:10121c0000000000000000000000000000000000c2
:10122c0000000000000000000000000000000000b2
:10123c0000000000000000000000000000000000a2
:10124c000000000000000000000000000000000092
:10125c000000000000000000000000000000000082
:10126c000000000000000000000000000000000072
:10127c000000000000000000000000000000000062
:10128c000000000000000000000000000000000052
:10129c000000000000000000000000000000000042
:1012ac000000000000000000000000000000000032
:1012bc000000000000000000000000000000000022
:1012cc000000000000000000000000000000000012
:1012dc000000000000000000000000000000000002
:1012ec0000000000000000000000000000000000f2
:1012fc0000000000000000000000000000000000e2
:10130c0000000000000000000000000000000000d1
:10131c0000000000000000000000000000000000c1
:10132c0000000000000000000000000000000000b1
:10133c0000000000000000000000000000000000a1
:10134c000000000000000000000000000000000091
:10135c000000000000000000000000000000000081
:10136c000000000000000000000000000000000071
:10137c000000000000000000000000000000000061
:10138c000000000000000000000000000000000051
:10139c000000000000000000000000000000000041
:1013ac000000000000000000000000000000000031
:1013bc000000000000000000000000000000000021
:1013cc000000000000000000000000000000000011
:1013dc000000000000000000000000000000000001
:1013ec0000000000ffffff02ffffff4cffffff901c
:1013fc00fffffff5fffffffffffffffffffffffffb
:10140c00ffffffffffffffffe8e5c6ffb1a73effb1
:10141c00978a00ff978a01ffb3a943ffeae7cbff46
:10142c00ffffffffffffffffffffffffffffffffc0
:10143c00ffffffffffffffeeffffff7effffff3c05
:10144c000000000000000000000000000000000090
:10145c000000000000000000000000000000000080
:10146c000000000000000000000000000000000070
:10147c000000000000000000000000000000000060
:10148c000000000000000000000000000000000050
:10149c000000000000000000000000000000000040
:1014ac000000000000000000000000000000000030
:1014bc000000000000000000000000000000000020
:1014cc000000000000000000000000000000000010
:1014dc000000000000000000000000000000000000
:1014ec0000000000000000000000000000000000f0
:1014fc0000000000000000000000000000000000e0
:10150c0000000000000000000000000000000000cf
:10151c0000000000000000000000000000000000bf
:10152c0000000000000000000000000000000000af
:10153c00000000000000000000000000000000009f
:10154c00000000000000000000000000000000008f
:10155c00000000000000000000000000000000007f
:10156c00000000000000000000000000000000006f
:10157c00000000000000000000000000000000005f
:10158c00000000000000000000000000000000004f
:10159c00000000000000000000000000000000003f
:1015ac00000000000000000000000000000000002f
:1015bc00000000000000000000000000000000001f
:1015cc00000000000000000000000000000000000f
:1015dc0000000000000000000000000000000000ff
:1015ec0000000000000000000000000000000000ef
:1015fc0000000000000000000000000000000000df
:10160c0000000000000000000000000000000000ce
:10161c0000000000000000000000000000000000be
:10162c0000000000000000000000000000000000ae
:10163c00ffffff05ffffff5dffffffdcffffffff6d
:10164c00ffffffffffffffffffffffffffffffff9e
:10165c00f9f9f1ffccc681ffb0a63cff978a00ffd9
:10166c00988b00ff988b00ff988b00ff988b00ffe6
:10167c00988b00ff988a00ff978a01ffb2a941ff5f
:10168c00cec887fffafaf3ffffffffffffffffff54
:10169c00ffffffffffffffffffffffffffffffce7f
:1016ac00ffffff4cffffff020000000000000000e6
:1016bc00000000000000000000000000000000001e
:1016cc00000000000000000000000000000000000e
:1016dc0000000000000000000000000000000000fe
:1016ec0000000000000000000000000000000000ee
:1016fc0000000000000000000000000000000000de
:10170c0000000000000000000000000000000000cd
:10171c0000000000000000000000000000000000bd
:10172c0000000000000000000000000000000000ad
:10173c00000000000000000000000000000000009d
:10174c00000000000000000000000000000000008d
:10175c00000000000000000000000000000000007d
:10176c00000000000000000000000000000000006d
:10177c00000000000000000000000000000000005d
:10178c00000000000000000000000000000000004d
:10179c00000000000000000000000000000000003d
:1017ac00000000000000000000000000000000002d
:1017bc00000000000000000000000000000000001d
:1017cc00000000000000000000000000000000000d
:1017dc0000000000000000000000000000000000fd
:1017ec0000000000000000000000000000000000ed
:1017fc0000000000000000000000000000000000dd
:10180c0000000000000000000000000000000000cc
:10181c0000000000000000000000000000000000bc
:10182c0000000000000000000000000000000000ac
:10183c00000000000000000000000000000000009c
:10184c00000000000000000000000000000000008c
:10185c00000000000000000000000000000000007c
:10186c00000000000000000000000000000000006c
:10187c00000000000000000000000000ffffff312e
:10188c00ffffffb4fffffffdffffffffffffffffa9
:10189c00fffffffffffffffffffffffff9f8f0ff68
:1018ac00cbc57fff9e910eff978900ff988b00ffa1
:1018bc00988b00ff988b00ff988b00ff988b00ff94
:1018cc00988b00ff988b00ff988b00ff988b00ff84
:1018dc00988b00ff988b00ff988b00ff978900ff77
:1018ec009f9311ffcec785fffaf9f3ffffffffffb0
:1018fc00ffffffffffffffffffffffffffffffffec
:10190c00fffffffaffffffa2ffffff230000000015
:10191c0000000000000000000000000000000000bb
:10192c0000000000000000000000000000000000ab
:10193c00000000000000000000000000000000009b
:10194c00000000000000000000000000000000008b
:10195c00000000000000000000000000000000007b
:10196c00000000000000000000000000000000006b
:10197c00000000000000000000000000000000005b
:10198c00000000000000000000000000000000004b
:10199c00000000000000000000000000000000003b
:1019ac00000000000000000000000000000000002b
:1019bc00000000000000000000000000000000001b
:1019cc00000000000000000000000000000000000b
:1019dc0000000000000000000000000000000000fb
:1019ec0000000000000000000000000000000000eb
:1019fc0000000000000000000000000000000000db
:101a0c0000000000000000000000000000000000ca
:101a1c0000000000000000000000000000000000ba
:101a2c0000000000000000000000000000000000aa
:101a3c00000000000000000000000000000000009a
:101a4c00000000000000000000000000000000008a
:101a5c00000000000000000000000000000000007a
:101a6c00000000000000000000000000000000006a
:101a7c00000000000000000000000000000000005a
:101a8c00000000000000000000000000000000004a
:101a9c00000000000000000000000000000000003a
:101aac00000000000000000000000000000000002a
:101abc00000000000000000000000000000000001a
:101acc00000000000000000000000000ffffff0eff
:101adc00ffffff79ffffffebffffffffffffffffa4
:101aec00fffffffffffffffffffffffff9f8f0ff16
:101afc00cbc47effafa53aff978a00ff988b00ffff
:101b0c00988b00ff988b00ff988b00ff988b00ff41
:101b1c00988b00ff978a00ff988b01ff988a01ff32
:101b2c00978a00ff988b00ff988b00ff988b00ff23
:101b3c00988b00ff988b00ff988b00ff978a00ff13
:101b4c00b1a83fffcdc784fffaf9f2fffffffffffb
:101b5c00ffffffffffffffffffffffffffffffff89
:101b6c00ffffffe1ffffff65ffffff070000000025
:101b7c000000000000000000000000000000000059
:101b8c000000000000000000000000000000000049
:101b9c000000000000000000000000000000000039
:101bac000000000000000000000000000000000029
:101bbc000000000000000000000000000000000019
:101bcc000000000000000000000000000000000009
:101bdc0000000000000000000000000000000000f9
:101bec0000000000000000000000000000000000e9
:101bfc0000000000000000000000000000000000d9
:101c0c0000000000000000000000000000000000c8
:101c1c0000000000000000000000000000000000b8
:101c2c0000000000000000000000000000000000a8
:101c3c000000000000000000000000000000000098
:101c4c000000000000000000000000000000000088
:101c5c000000000000000000000000000000000078
:101c6c000000000000000000000000000000000068
:101c7c000000000000000000000000000000000058
:101c8c000000000000000000000000000000000048
:101c9c000000000000000000000000000000000038
:101cac000000000000000000000000000000000028
:101cbc000000000000000000000000000000000018
:101ccc000000000000000000000000000000000008
:101cdc0000000000000000000000000000000000f8
:101cec0000000000000000000000000000000000e8
:101cfc0000000000000000000000000000000000d8
:101d0c0000000000000000000000000000000000c7
:101d1c0000000000ffffff01ffffff48ffffffcbac
:101d2c00ffffffffffffffffffffffffffffffffb7
:101d3c00fffffffffffffffff9f8efffcac37cffb8
:101d4c009d910dff978900ff988b00ff988b00ffea
:101d5c00988b00ff988b00ff988b00ff988b00ffef
:101d6c00978a00ff998c04ffbbb256ffefedd7ffab
:101d7c00ffffffffffffffffedebd3ffb9b051fffc
:101d8c00998c03ff978a00ff988b00ff988b00ffbc
:101d9c00988b00ff988b00ff988b00ff988b00ffaf
:101dac00978900ff9e920fffcdc682fffaf9f2ffd2
:101dbc00ffffffffffffffffffffffffffffffff27
:101dcc00fffffffffffffffeffffffbaffffff3725
:101ddc0000000000000000000000000000000000f7
:101dec0000000000000000000000000000000000e7
:101dfc0000000000000000000000000000000000d7
:101e0c0000000000000000000000000000000000c6
:101e1c0000000000000000000000000000000000b6
:101e2c0000000000000000000000000000000000a6
:101e3c000000000000000000000000000000000096
:101e4c000000000000000000000000000000000086
:101e5c000000000000000000000000000000000076
:101e6c000000000000000000000000000000000066
:101e7c000000000000000000000000000000000056
:101e8c000000000000000000000000000000000046
:101e9c000000000000000000000000000000000036
:101eac000000000000000000000000000000000026
:101ebc000000000000000000000000000000000016
:101ecc000000000000000000000000000000000006
:101edc0000000000000000000000000000000000f6
:101eec0000000000000000000000000000000000e6
:101efc0000000000000000000000000000000000d6
:101f0c0000000000000000000000000000000000c5
:101f1c0000000000000000000000000000000000b5
:101f2c0000000000000000000000000000000000a5
:101f3c000000000000000000000000000000000095
:101f4c000000000000000000000000000000000085
:101f5c000000000000000000000000000000000075
:101f6c00ffffff21ffffff9effffffd8ffffffffdb
:101f7c00ffffffffffffffffffffffffffffffff65
:101f8c00ffffffffe5e2bfffaea437ff978a00ff1c
:101f9c00978a00ff988b00ff988b00ff988b00ffaf
:101fac00988b00ff988b00ff988b00ff968900ffa1
:101fbc00a99e29ffddd9abfff3f1e1ffffffffff86
:101fcc00fffffffff8f7edffcbc47dffccc682ff10
:101fdc00f9f8effffffffffffffffffff2f0deff5f
:101fec00dbd6a5ffa79c25ff968900ff988b00ffe9
:101ffc00988b00ff988b00ff988b00ff988b00ff4d
:10200c00988b00ff978900ff978a00ffb0a63cffd2
:10201c00e7e4c4ffffffffffffffffffffffffff32
:10202c00ffffffffffffffffffffffffffffffc9ea
:10203c00ffffff89ffffff150000000000000000fc
:10204c000000000000000000000000000000000084
:10205c000000000000000000000000000000000074
:10206c000000000000000000000000000000000064
:10207c000000000000000000000000000000000054
:10208c000000000000000000000000000000000044
:10209c000000000000000000000000000000000034
:1020ac000000000000000000000000000000000024
:1020bc000000000000000000000000000000000014
:1020cc000000000000000000000000000000000004
:1020dc0000000000000000000000000000000000f4
:1020ec0000000000000000000000000000000000e4
:1020fc0000000000000000000000000000000000d4
:10210c0000000000000000000000000000000000c3
:10211c0000000000000000000000000000000000b3
:10212c0000000000000000000000000000000000a3
:10213c000000000000000000000000000000000093
:10214c000000000000000000000000000000000083
:10215c000000000000000000000000000000000073
:10216c000000000000000000000000000000000063
:10217c000000000000000000000000000000000053
:10218c000000000000000000000000000000000043
:10219c000000000000000000000000000000000033
:1021ac000000000000000000ffffff09ffffff2df3
:1021bc00ffffffaffffffffcffffffffffffffff76
:1021cc00fffffffffffffffffffffffff8f7eeff33
:1021dc00c9c278ffaea336ff978a00ff988b00ff29
:1021ec00988b00ff988b00ff988b00ff988b00ff5b
:1021fc00988b00ff978900ff9d900cffada334ffd7
:10220c00e3dfb9fffefefefffffffffffefefdff5b
:10221c00f4f3e5ffc3bc6bff9b8f09ff978a00ffac
:10222c00988b00ff988b00ff978a00ff9c900bff08
:10223c00c6bf71fff6f5e8fffefefdffffffffffd7
:10224c00fefefdffe0ddb3ffaba130ff9c8f0aff6c
:10225c00978a00ff988b00ff988b00ff988b00ffec
:10226c00988b00ff988b00ff988b00ff978a00ffdc
:10227c00b0a63affcbc47efff9f8f0ffffffffffdb
:10228c00ffffffffffffffffffffffffffffffff52
:10229c00fffffff8ffffff9bffffff1fffffff0488
:1022ac000000000000000000000000000000000022
:1022bc000000000000000000000000000000000012
:1022cc000000000000000000000000000000000002
:1022dc0000000000000000000000000000000000f2
:1022ec0000000000000000000000000000000000e2
:1022fc0000000000000000000000000000000000d2
:10230c0000000000000000000000000000000000c1
:10231c0000000000000000000000000000000000b1
:10232c0000000000000000000000000000000000a1
:10233c000000000000000000000000000000000091
:10234c000000000000000000000000000000000081
:10235c000000000000000000000000000000000071
:10236c000000000000000000000000000000000061
:10237c000000000000000000000000000000000051
:10238c000000000000000000000000000000000041
:10239c000000000000000000000000000000000031
:1023ac000000000000000000000000000000000021
:1023bc000000000000000000000000000000000011
:1023cc000000000000000000000000000000000001
:1023dc0000000000000000000000000000000000f1
:1023ec0000000000000000000000000000000000e1
:1023fc0000000000ffffff10ffffff7dffffffed60
:10240c00ffffffffffffffffffffffffffffffffd0
:10241c00fffffffffffffefff8f7edffc8c177ffdf
:10242c009c900bff978a00ff988b00ff988b00ff06
:10243c00988b00ff988b00ff988b00ff978a00ff0a
:10244c00968900ff9f9312ffcdc784fff9f9f1ff26
:10245c00fffffffffffffffffdfdfaffd9d5a2ff36
:10246c00a69b23ff968900ff978a00ff988b00ff9d
:10247c00988b00ff978a00ffa89d28ffa99e2aff32
:10248c00978a00ff988b00ff988b00ff978a00ffbc
:10249c00968900ffa89d27ffdcd7a8fffdfdfbff59
:1024ac00fffffffffffffffff8f7eeffcbc47eff40
:1024bc009e9210ff978900ff978a00ff988b00ff70
:1024cc00988b00ff988b00ff988b00ff988b00ff78
:1024dc00978900ff9d910dffcac47dfff9f8efffae
:1024ec00fffffffffffffffffffffffffffffffff0
:1024fc00ffffffffffffffffffffffe2ffffff6795
:10250c00ffffff08000000000000000000000000ba
:10251c0000000000000000000000000000000000af
:10252c00000000000000000000000000000000009f
:10253c00000000000000000000000000000000008f
:10254c00000000000000000000000000000000007f
:10255c00000000000000000000000000000000006f
:10256c00000000000000000000000000000000005f
:10257c00000000000000000000000000000000004f
:10258c00000000000000000000000000000000003f
:10259c00000000000000000000000000000000002f
:1025ac00000000000000000000000000000000001f
:1025bc00000000000000000000000000000000000f
:1025cc0000000000000000000000000000000000ff
:1025dc0000000000000000000000000000000000ef
:1025ec0000000000000000000000000000000000df
:1025fc0000000000000000000000000000000000cf
:10260c0000000000000000000000000000000000be
:10261c0000000000000000000000000000000000ae
:10262c00000000000000000000000000000000009e
:10263c00000000000000000000000000000000008e
:10264c0000000000ffffff14ffffff43ffffffc769
:10265c00ffffffffffffffffffffffffffffffff7e
:10266c00fffffffffffffffff7f7ecffc8c176ff8f
:10267c00ada234ff978a00ff988b00ff988b00ff68
:10268c00988b00ff988b00ff988b00ff988b00ffb6
:10269c00968900ffa19516ffb5ac48ffeae8ccff80
:1026ac00fffffffffffffffffcfcf8ffefedd6ff86
:1026bc00bab255ff998c03ff978a00ff988b00ffe5
:1026cc00988b00ff988b00ff988b00ff9e9210ff59
:1026dc00f5f4e7fff6f5eaffa19517ff988b00ffdd
:1026ec00988b00ff988b00ff988b00ff978a00ff58
:1026fc00998d04ffbdb45afff0eedafffdfdfaff31
:10270c00ffffffffffffffffe9e6c7ffb3a943ff92
:10271c00a09413ff968900ff988b00ff988b00ff05
:10272c00988b00ff988b00ff988b00ff988b00ff15
:10273c00978a00ffafa538ffcac37cfff9f8effffb
:10274c00ffffffffffffffffffffffffffffffff8d
:10275c00fffffffffffffffdffffffb4ffffff3198
:10276c00ffffff0b00000000000000000000000055
:10277c00000000000000000000000000000000004d
:10278c00000000000000000000000000000000003d
:10279c00000000000000000000000000000000002d
:1027ac00000000000000000000000000000000001d
:1027bc00000000000000000000000000000000000d
:1027cc0000000000000000000000000000000000fd
:1027dc0000000000000000000000000000000000ed
:1027ec0000000000000000000000000000000000dd
:1027fc0000000000000000000000000000000000cd
:10280c0000000000000000000000000000000000bc
:10281c0000000000000000000000000000000000ac
:10282c00000000000000000000000000000000009c
:10283c00000000000000000000000000000000008c
:10284c00000000000000000000000000000000007c
:10285c00000000000000000000000000000000006c
:10286c00000000000000000000000000000000005c
:10287c00000000000000000000000000000000004c
:10288c00000000000000000000000000000000003c
:10289c00ffffff1effffff99fffffff7ffffffff8b
:1028ac00ffffffffffffffffffffffffffffffff2c
:1028bc00fffffefff7f6ecffc7c074ff9c900aff0a
:1028cc00978a00ff988b00ff988b00ff988b00ff76
:1028dc00988b00ff988b00ff978a00ff968900ff6a
:1028ec00a4991fffd7d29bfffcfcf8ffffffffff53
:1028fc00fffffffffafaf3ffd0ca8bffa19515ff7c
:10290c00968900ff978a00ff988b00ff988b00ff39
:10291c00988b00ff988b00ff988b00ff988b00ff23
:10292c00988b00ffd4cf95ffffffffffffffffff4a
:10293c00dcd8a8ff988b00ff988b00ff988b00ffca
:10294c00988b00ff988b00ff988b00ff988b00fff3
:10295c00978a00ff968900ffa29619ffd2cd91ffae
:10296c00fbfbf5fffffffffffffffffffcfbf7ff8c
:10297c00d5cf96ffa3971bff968900ff978a00ff80
:10298c00988b00ff988b00ff988b00ff988b00ffb3
:10299c00988b00ff978a00ff9d900cffc9c27affad
:1029ac00f8f7eeffffffffffffffffffffffffff4b
:1029bc00fffffffffffffffffffffffffffffff02a
:1029cc00ffffff82ffffff1200000000000000006d
:1029dc0000000000000000000000000000000000eb
:1029ec0000000000000000000000000000000000db
:1029fc0000000000000000000000000000000000cb
:102a0c0000000000000000000000000000000000ba
:102a1c0000000000000000000000000000000000aa
:102a2c00000000000000000000000000000000009a
:102a3c00000000000000000000000000000000008a
:102a4c00000000000000000000000000000000007a
:102a5c00000000000000000000000000000000006a
:102a6c00000000000000000000000000000000005a
:102a7c00000000000000000000000000000000004a
:102a8c00000000000000000000000000000000003a
:102a9c00000000000000000000000000000000002a
:102aac00000000000000000000000000000000001a
:102abc00000000000000000000000000000000000a
:102acc0000000000000000000000000000000000fa
:102adc000000000000000000ffffff07ffffff6683
:102aec00ffffffe1fffffffcffffffffffffffff0b
:102afc00fffffffffffffffffffffffffffffeffdb
:102b0c00e2dfb8ffaca131ff978900ff978a00ff85
:102b1c00988b00ff988b00ff988b00ff988b00ff21
:102b2c00988b00ff978a00ff9b8e07ffc1b965ff4a
:102b3c00f3f1e1fffefdfcfffffffffffffffeffd8
:102b4c00e5e2beffafa53aff9e920eff978900ff0c
:102b5c00988b00ff988b00ff988b00ff988b00ffe1
:102b6c00988b00ff988b00ff988b00ff988b00ffd1
:102b7c00988b00ff988b00ff988b00ffa09414ff9c
:102b8c00f9f8f0fffaf9f2ffa3981dff988b00fffc
:102b9c00988b00ff988b00ff988b00ff988b00ffa1
:102bac00988b00ff988b00ff988b00ff988b00ff91
:102bbc00988b00ff988b00ff968900ff9f9311ff65
:102bcc00b1a73effe7e4c3ffffffffffffffffffdf
:102bdc00fdfdfbfff2f0deffbeb65fff9a8d06ff38
:102bec00978a00ff988b00ff988b00ff988b00ff53
:102bfc00988b00ff988b00ff978a00ff978a00ff45
:102c0c00aea335ffe5e1bdfffffffeffffffffffba
:102c1c00ffffffffffffffffffffffffffffffffb8
:102c2c00fffffff6ffffffd2ffffff50ffffff0389
:102c3c000000000000000000000000000000000088
:102c4c000000000000000000000000000000000078
:102c5c000000000000000000000000000000000068
:102c6c000000000000000000000000000000000058
:102c7c000000000000000000000000000000000048
:102c8c000000000000000000000000000000000038
:102c9c000000000000000000000000000000000028
:102cac000000000000000000000000000000000018
:102cbc000000000000000000000000000000000008
:102ccc0000000000000000000000000000000000f8
:102cdc0000000000000000000000000000000000e8
:102cec0000000000000000000000000000000000d8
:102cfc0000000000000000000000000000000000c8
:102d0c0000000000000000000000000000000000b7
:102d1c0000000000000000000000000000000000a7
:102d2c0000000000ffffff38ffffff78ffffffeb05
:102d3c00ffffffffffffffffffffffffffffffff97
:102d4c00fffffffffffffffff6f5eaffc5be70ffb9
:102d5c00aba12fff978900ff988b00ff988b00ff8a
:102d6c00988b00ff988b00ff988b00ff988b00ffcf
:102d7c00978a00ffada334ffc7c074fff6f5eaffd6
:102d8c00fffffffffffffffff5f3e5ffdfdbb1ff09
:102d9c00aaa02eff978900ff988b00ff988b00ff4d
:102dac00988b00ff988b00ff988b00ff988b00ff8f
:102dbc00988b00ff988b00ff988b00ff988b00ff7f
:102dcc00988b00ff988b00ff988b00ff988b00ff6f
:102ddc00988b00ff988b00ff978a00ff978900ff64
:102dec00988b00ff988b00ff988b00ff988b00ff4f
:102dfc00988b00ff988b00ff988b00ff988b00ff3f
:102e0c00988b00ff988b00ff988b00ff988b00ff2e
:102e1c00988b00ff988b00ff988b00ff988b00ff1e
:102e2c00978a00ffaca232ffe1deb6fff6f5e8ffb1
:102e3c00fffffffffffffffff5f4e7ffc5bd6fffcf
:102e4c00aba130ff978a00ff988b00ff988b00ff97
:102e5c00988b00ff988b00ff988b00ff988b00ffde
:102e6c00978a00ffada334ffc8c176fff8f7edffda
:102e7c00ffffffffffffffffffffffffffffffff56
:102e8c00ffffffffffffffffffffffdeffffff6105
:102e9c00ffffff2600000000000000000000000003
:102eac000000000000000000000000000000000016
:102ebc000000000000000000000000000000000006
:102ecc0000000000000000000000000000000000f6
:102edc0000000000000000000000000000000000e6
:102eec0000000000000000000000000000000000d6
:102efc0000000000000000000000000000000000c6
:102f0c0000000000000000000000000000000000b5
:102f1c0000000000000000000000000000000000a5
:102f2c000000000000000000000000000000000095
:102f3c000000000000000000000000000000000085
:102f4c000000000000000000000000000000000075
:102f5c000000000000000000000000000000000065
:102f6c00000000000000000000000000ffffff0157
:102f7c00ffffff47ffffffcbffffffffffffffff41
:102f8c00ffffffffffffffffffffffffffffffff45
:102f9c00fefefefff6f5e9ffc5bd6eff9b8f08ff39
:102fac00978a00ff988b00ff988b00ff988b00ff8f
:102fbc00988b00ff988b00ff968900ff978a01ff82
:102fcc00b2a941ffe8e5c6ffffffffffffffffffd0
:102fdc00fffffffff1efdcffbdb55cff9a8d05ff36
:102fec00978a00ff988b00ff988b00ff988b00ff4f
:102ffc00988b00ff988b00ff988b00ff988b00ff3d
:10300c00988b00ff988b00ff988b00ff988b00ff2c
:10301c00988b00ff988b00ff988b00ff988b00ff1c
:10302c00988b00ff988b00ff988b00ff988b00ff0c
:10303c00988b00ff988b00ff988b00ff988b00fffc
:10304c00988b00ff988b00ff988b00ff988b00ffec
:10305c00988b00ff988b00ff988b00ff988b00ffdc
:10306c00988b00ff988b00ff988b00ff988b00ffcc
:10307c00988b00ff988b00ff988b00ff988b00ffbc
:10308c00988b00ff978a00ff9a8e06ffc0b862ffec
:10309c00f2f1dffffffffffffffffffffffffeff70
:1030ac00e6e3c1ffb0a63cff978a00ff978900ffbb
:1030bc00988b00ff988b00ff988b00ff988b00ff7c
:1030cc00988b00ff978a00ff9c900affc7c074ff83
:1030dc00f7f6ecfffffffeffffffffffffffffff19
:1030ec00fffffffffffffffffffffffffffffffde6
:1030fc00ffffffb6ffffff330000000000000000e1
:10310c0000000000000000000000000000000000b3
:10311c0000000000000000000000000000000000a3
:10312c000000000000000000000000000000000093
:10313c000000000000000000000000000000000083
:10314c000000000000000000000000000000000073
:10315c000000000000000000000000000000000063
:10316c000000000000000000000000000000000053
:10317c000000000000000000000000000000000043
:10318c000000000000000000000000000000000033
:10319c000000000000000000000000000000000023
:1031ac000000000000000000000000000000000013
:1031bc00000000000000000000000000ffffff0204
:1031cc00ffffff4fffffff94fffffff6ffffffff27
:1031dc00fffffffffffffffffffffffffffffffff3
:1031ec00fffffffff6f5e8ffc4bd6effaaa02dffa1
:1031fc00978900ff988b00ff988b00ff988b00ff3e
:10320c00988b00ff988b00ff978a00ff988b01ff2b
:10321c00b5ac48ffd1cb8cfffafaf4fffffffffff0
:10322c00ffffffffefedd6ffd6d19affa4991eff4b
:10323c00968900ff988b00ff988b00ff988b00fffe
:10324c00988b00ff988b00ff988b00ff988b00ffea
:10325c00988b00ff988b00ff988b00ff988b00ffda
:10326c00988b00ff988b00ff988b00ff988b00ffca
:10327c00988b00ff988b00ff988b00ff988b00ffba
:10328c00988b00ff988b00ff988b00ff988b00ffaa
:10329c00988b00ff988b00ff988b00ff988b00ff9a
:1032ac00988b00ff988b00ff988b00ff988b00ff8a
:1032bc00988b00ff988b00ff988b00ff988b00ff7a
:1032cc00988b00ff988b00ff988b00ff988b00ff6a
:1032dc00988b00ff988b00ff988b00ff988b00ff5a
:1032ec00988b00ff968900ffa69a22ffd9d4a0ffe5
:1032fc00f0eedafffffffffffffffffffaf9f1ff30
:10330c00cec886ffb3a943ff988a01ff978a00ffb6
:10331c00988b00ff988b00ff988b00ff988b00ff19
:10332c00988b00ff978900ffaca232ffc7bf73ffd9
:10333c00f7f6ebffffffffffffffffffffffffffb6
:10334c00ffffffffffffffffffffffffffffffed93
:10335c00ffffff7cffffff3a0000000000000000b1
:10336c000000000000000000000000000000000051
:10337c000000000000000000000000000000000041
:10338c000000000000000000000000000000000031
:10339c000000000000000000000000000000000021
:1033ac000000000000000000000000000000000011
:1033bc000000000000000000000000000000000001
:1033cc0000000000000000000000000000000000f1
:1033dc0000000000000000000000000000000000e1
:1033ec0000000000000000000000000000000000d1
:1033fc0000000000000000000000000000000000c1
:10340c0000000000000000000000000000000000b0
:10341c0000000000ffffff24ffffffffffffffff87
:10342c00fffffffffffffffffffffffffefefdffa4
:10343c00f5f4e7ffc3bc6cff9b8e08ff978a00ff77
:10344c00988b00ff988b00ff988b00ff988b00ffe8
:10345c00988b00ff968900ff998c04ffbbb256ff36
:10346c00efedd7ffffffffffffffffffffffffffaa
:10347c00eae7cbffb5ab47ff988b01ff978a00ffbc
:10348c00988b00ff988b00ff988b00ff988b00ffa8
:10349c00988b00ff988b00ff988b00ff988b00ff98
:1034ac00988b00ff988b00ff988b00ff988b00ff88
:1034bc00988b00ff988b00ff988b00ff988b00ff78
:1034cc00988b00ff988b00ff988b00ff988b00ff68
:1034dc00988b00ff988b00ff988b00ff988b00ff58
:1034ec00988b00ff988b00ff988b00ff988b00ff48
:1034fc00988b00ff988b00ff988b00ff988b00ff38
:10350c00988b00ff988b00ff988b00ff988b00ff27
:10351c00988b00ff988b00ff988b00ff988b00ff17
:10352c00988b00ff988b00ff988b00ff988b00ff07
:10353c00988b00ff988b00ff988b00ff988b00fff7
:10354c00988b00ff988b00ff978a00ff988b02ffe7
:10355c00b7ae4cffece9cfffffffffffffffffff14
:10356c00ffffffffedebd3ffb9b050ff998c03ffca
:10357c00968900ff988b00ff988b00ff988b00ffbb
:10358c00988b00ff988b00ff978a00ff9c8f09ff98
:10359c00c6bf72fff7f6eafffffffeffffffffff5c
:1035ac00ffffffffffffffffffffffffffffffff1f
:1035bc00ffffff0200000000000000000000000000
:1035cc0000000000000000000000000000000000ef
:1035dc0000000000000000000000000000000000df
:1035ec0000000000000000000000000000000000cf
:1035fc0000000000000000000000000000000000bf
:10360c0000000000000000000000000000000000ae
:10361c00000000000000000000000000000000009e
:10362c00000000000000000000000000000000008e
:10363c00000000000000000000000000000000007e
:10364c00000000000000000000000000000000006e
:10365c00000000000000000000000000000000005e
:10366c00000000000000000000000000ffffff0b46
:10367c00ffffffffffffffffffffffffdfdbb1ffe0
:10368c00a99f2bff968900ff978a00ff988b00ff5c
:10369c00988b00ff988b00ff988b00ff988b00ff96
:1036ac00968900ffa89e29ffddd8aafffefdfcff2e
:1036bc00fffffffffffffffff8f7edffcac37bff24
:1036cc009e920eff978a00ff988a00ff988b00ff4e
:1036dc00988b00ff988b00ff988b00ff988b00ff56
:1036ec00988b00ff988b00ff988b00ff988b00ff46
:1036fc00988b00ff988b00ff988b00ff988b00ff36
:10370c00988b00ff988b00ff988b00ff988b00ff25
:10371c00988b00ff988b00ff988b00ff988b00ff15
:10372c00988b00ff988b00ff988b00ff988b00ff05
:10373c00988b00ff988b00ff988b00ff988b00fff5
:10374c00988b00ff988b00ff988b00ff988b00ffe5
:10375c00988b00ff988b00ff988b00ff988b00ffd5
:10376c00988b00ff988b00ff988b00ff988b00ffc5
:10377c00988b00ff988b00ff988b00ff988b00ffb5
:10378c00988b00ff988b00ff988b00ff988b00ffa5
:10379c00988b00ff988b00ff988b00ff988b00ff95
:1037ac00988b00ff988b00ff988b00ff978a00ff87
:1037bc00978a01ff9f9311ffccc681fff9f8f0ffa8
:1037cc00fffffffffffffffffdfdfbffdbd6a5ffac
:1037dc00a79c25ff968900ff988b00ff988b00ff14
:1037ec00988b00ff988b00ff988b00ff978a00ff47
:1037fc00978900ffaba02fffe2deb6ffffffffffb4
:10380c00ffffffffffffffff0000000000000000b4
:10381c00000000000000000000000000000000009c
:10382c00000000000000000000000000000000008c
:10383c00000000000000000000000000000000007c
:10384c00000000000000000000000000000000006c
:10385c00000000000000000000000000000000005c
:10386c00000000000000000000000000000000004c
:10387c00000000000000000000000000000000003c
:10388c00000000000000000000000000000000002c
:10389c00000000000000000000000000000000001c
:1038ac00000000000000000000000000000000000c
:1038bc0000000000000000000000000000000000fc
:1038cc000000000000000000fffffffffffffffff4
:1038dc00ffffffff968900ff988b00ff988b00ff7e
:1038ec00988b00ff988b00ff978900ff9d900cff31
:1038fc00c7c074ffe2dfb8fffefefeffffffffff55
:10390c00fefefdffdfdbb1ffc4bc6cff9b8f09ff2c
:10391c00978a00ff988b00ff988b00ff988b00ff15
:10392c00988b00ff988b00ff988b00ff988b00ff03
:10393c00988b00ff988b00ff988b00ff988b00fff3
:10394c00988b00ff988b00ff988b00ff988b00ffe3
:10395c00988b00ff988b00ff988b00ff988b00ffd3
:10396c00988b00ff988b00ff988b00ff988b00ffc3
:10397c00988b00ff988b00ff988b00ff988b00ffb3
:10398c00988b00ff988b00ff988b00ff988b00ffa3
:10399c00988b00ff988b00ff988b00ff988b00ff93
:1039ac00988b00ff988b00ff988b00ff988b00ff83
:1039bc00988b00ff988b00ff988b00ff988b00ff73
:1039cc00988b00ff988b00ff988b00ff988b00ff63
:1039dc00988b00ff988b00ff988b00ff988b00ff53
:1039ec00988b00ff988b00ff988b00ff988b00ff43
:1039fc00988b00ff988b00ff988b00ff988b00ff33
:103a0c00988b00ff988b00ff988b00ff988b00ff22
:103a1c00988b00ff978a00ff9c900bffc6bf72ff2c
:103a2c00e2deb6fffefefdfffffffffffefefdff29
:103a3c00e0ddb3ffc5bd6eff9c8f0aff978a00ffc8
:103a4c00988b00ff988b00ff988b00ff988b00ffe2
:103a5c00968900fffffffffffffffffffffffff84f
:103a6c00000000000000000000000000000000004a
:103a7c00000000000000000000000000000000003a
:103a8c00000000000000000000000000000000002a
:103a9c00000000000000000000000000000000001a
:103aac00000000000000000000000000000000000a
:103abc0000000000000000000000000000000000fa
:103acc0000000000000000000000000000000000ea
:103adc0000000000000000000000000000000000da
:103aec0000000000000000000000000000000000ca
:103afc0000000000000000000000000000000000ba
:103b0c0000000000000000000000000000000000a9
:103b1c000000000000000000000000000000000099
:103b2c00ffffffffffffffffffffffff988b00ff73
:103b3c00988b00ff988b00ff988b00ffcec785fffa
:103b4c00f9f8f1fffffffffffffffffffdfdfaff9d
:103b5c00d9d5a2ffa69b23ff968900ff988b00ff67
:103b6c00988b00ff988b00ff988b00ff988b00ffc1
:103b7c00988b00ff988b00ff988b00ff988b00ffb1
:103b8c00988b00ff988b00ff988b00ff988b00ffa1
:103b9c00988b00ff988b00ff988b00ff988b00ff91
:103bac00988b00ff988b00ff988b00ff988b00ff81
:103bbc00988b00ff988b00ff988b00ff988b00ff71
:103bcc00988b00ff988b00ff988b00ff988b00ff61
:103bdc00988b00ff988b00ff988b00ff988b00ff51
:103bec00988b00ff988b00ff988b00ff988b00ff41
:103bfc00988b00ff988b00ff988b00ff988b00ff31
:103c0c00988b00ff988b00ff988b00ff988b00ff20
:103c1c00988b00ff988b00ff988b00ff988b00ff10
:103c2c00988b00ff988b00ff988b00ff988b00ff00
:103c3c00988b00ff988b00ff988b00ff988b00fff0
:103c4c00988b00ff988b00ff988b00ff988b00ffe0
:103c5c00988b00ff988b00ff988b00ff988b00ffd0
:103c6c00988b00ff988b00ff988b00ff988b00ffc0
:103c7c00988b00ff988b00ff988b00ff968900ffb4
:103c8c00a89d27ffdcd7a8fffdfdfbffffffffff73
:103c9c00fffffffff8f7eeffcbc57fff978a00ff12
:103cac00988b00ff988b00ff998c03ffffffffffa1
:103cbc00ffffffffffffffe300000000000000001c
:103ccc0000000000000000000000000000000000e8
:103cdc0000000000000000000000000000000000d8
:103cec0000000000000000000000000000000000c8
:103cfc0000000000000000000000000000000000b8
:103d0c0000000000000000000000000000000000a7
:103d1c000000000000000000000000000000000097
:103d2c000000000000000000000000000000000087
:103d3c000000000000000000000000000000000077
:103d4c000000000000000000000000000000000067
:103d5c000000000000000000000000000000000057
:103d6c000000000000000000000000000000000047
:103d7c000000000000000000fffffffaffffffff44
:103d8c00ffffffff9a8d05ff988b00ff988b00ffbc
:103d9c00978a00fffffffffffffffffffcfcf8ff10
:103dac00d6d19bffbab255ff998c03ff978a00ffbf
:103dbc00988b00ff988b00ff988b00ff988b00ff6f
:103dcc00988b00ff988b00ff988b00ff988b00ff5f
:103ddc00988b00ff988b00ff988b00ff988b00ff4f
:103dec00988b00ff988b00ff988b00ff988b00ff3f
:103dfc00988b00ff988b00ff988b00ff988b00ff2f
:103e0c00988b00ff988b00ff988b00ff988b00ff1e
:103e1c00988b00ff988b00ff988b00ff988b00ff0e
:103e2c00988b00ff988b00ff988b00ff988b00fffe
:103e3c00988b00ff988b00ff988b00ff988b00ffee
:103e4c00988b00ff988b00ff988b00ff988b00ffde
:103e5c00988b00ff988b00ff988b00ff988b00ffce
:103e6c00988b00ff988b00ff988b00ff988b00ffbe
:103e7c00988b00ff988b00ff988b00ff988b00ffae
:103e8c00988b00ff988b00ff988b00ff988b00ff9e
:103e9c00988b00ff988b00ff988b00ff988b00ff8e
:103eac00988b00ff988b00ff988b00ff988b00ff7e
:103ebc00988b00ff988b00ff988b00ff988b00ff6e
:103ecc00988b00ff988b00ff988b00ff988b00ff5e
:103edc00988b00ff988b00ff978a00ff998d04ff49
:103eec00bdb45bffd9d4a0fffdfdfaffffffffffc0
:103efc00ffffffff968900ff988b00ff988b00ff58
:103f0c009c900bffffffffffffffffffffffffd3a7
:103f1c000000000000000000000000000000000095
:103f2c000000000000000000000000000000000085
:103f3c000000000000000000000000000000000075
:103f4c000000000000000000000000000000000065
:103f5c000000000000000000000000000000000055
:103f6c000000000000000000000000000000000045
:103f7c000000000000000000000000000000000035
:103f8c000000000000000000000000000000000025
:103f9c000000000000000000000000000000000015
:103fac000000000000000000000000000000000005
:103fbc0000000000000000000000000000000000f5
:103fcc0000000000000000000000000000000000e5
:103fdc00ffffffe6ffffffffffffffffa3971bffa6
:103fec00988b00ff988b00ff968900fffefefdff6b
:103ffc00d8d39fff968900ff988b00ff988b00ff0a
:10400c00988b00ff988b00ff988b00ff988b00ff1c
:10401c00988b00ff988b00ff988b00ff988b00ff0c
:10402c00988b00ff988b00ff988b00ff988b00fffc
:10403c00988b00ff988b00ff988b00ff988b00ffec
:10404c00988b00ff988b00ff988b00ff988b00ffdc
:10405c00988b00ff988b00ff988b00ff988b00ffcc
:10406c00988b00ff988b00ff988b00ff988b00ffbc
:10407c00988b00ff988b00ff988b00ff988b00ffac
:10408c00988b00ff988b00ff988b00ff988b00ff9c
:10409c00988b00ff988b00ff988b00ff988b00ff8c
:1040ac00988b00ff988b00ff988b00ff988b00ff7c
:1040bc00988b00ff988b00ff988b00ff988b00ff6c
:1040cc00988b00ff988b00ff988b00ff988b00ff5c
:1040dc00988b00ff988b00ff988b00ff988b00ff4c
:1040ec00988b00ff988b00ff988b00ff988b00ff3c
:1040fc00988b00ff988b00ff988b00ff988b00ff2c
:10410c00988b00ff988b00ff988b00ff988b00ff1b
:10411c00988b00ff988b00ff988b00ff988b00ff0b
:10412c00988b00ff988b00ff988b00ff988b00fffb
:10413c00988b00ff988b00ff988b00ff988b00ffeb
:10414c00968900ffdfdbb0fffcfcf8ff968900ffcf
:10415c00988b00ff988b00ffa79c25ffffffffffac
:10416c00ffffffffffffffaa0000000000000000a0
:10417c000000000000000000000000000000000033
:10418c000000000000000000000000000000000023
:10419c000000000000000000000000000000000013
:1041ac000000000000000000000000000000000003
:1041bc0000000000000000000000000000000000f3
:1041cc0000000000000000000000000000000000e3
:1041dc0000000000000000000000000000000000d3
:1041ec0000000000000000000000000000000000c3
:1041fc0000000000000000000000000000000000b3
:10420c0000000000000000000000000000000000a2
:10421c000000000000000000000000000000000092
:10422c000000000000000000ffffffc4ffffffffc5
:10423c00ffffffffb1a73eff988b00ff988b00ff9d
:10424c00978a00fff7f6ebffe9e6c7ff988b00ffb4
:10425c00988b00ff988b00ff988b00ff988b00ffca
:10426c00988b00ff988b00ff988b00ff988b00ffba
:10427c00988b00ff988b00ff988b00ff988b00ffaa
:10428c00988b00ff988b00ff988b00ff988b00ff9a
:10429c00988b00ff988b00ff988b00ff988b00ff8a
:1042ac00988b00ff988b00ff988b00ff988b00ff7a
:1042bc00988b00ff988b00ff988b00ff988b00ff6a
:1042cc00988b00ff988b00ff988b00ff988b00ff5a
:1042dc00988b00ff988b00ff988b00ff988b00ff4a
:1042ec00988b00ff988b00ff988b00ff988b00ff3a
:1042fc00988b00ff988b00ff988b00ff988b00ff2a
:10430c00988b00ff988b00ff988b00ff988b00ff19
:10431c00988b00ff988b00ff988b00ff988b00ff09
:10432c00988b00ff988b00ff988b00ff988b00fff9
:10433c00988b00ff988b00ff988b00ff988b00ffe9
:10434c00988b00ff988b00ff988b00ff988b00ffd9
:10435c00988b00ff988b00ff988b00ff988b00ffc9
:10436c00988b00ff988b00ff988b00ff988b00ffb9
:10437c00988b00ff988b00ff988b00ff988b00ffa9
:10438c00988b00ff988b00ff988b00ff988b00ff99
:10439c00988b00ff988b00ff978a00ffeeecd5ffff
:1043ac00f3f2e1ff978a00ff988b00ff988b00ffd8
:1043bc00b7ae4effffffffffffffffffffffff7ad0
:1043cc0000000000000000000000000000000000e1
:1043dc0000000000000000000000000000000000d1
:1043ec0000000000000000000000000000000000c1
:1043fc0000000000000000000000000000000000b1
:10440c0000000000000000000000000000000000a0
:10441c000000000000000000000000000000000090
:10442c000000000000000000000000000000000080
:10443c000000000000000000000000000000000070
:10444c000000000000000000000000000000000060
:10445c000000000000000000000000000000000050
:10446c000000000000000000000000000000000040
:10447c000000000000000000000000000000000030
:10448c00ffffff98ffffffffffffffffc4bd6dffa6
:10449c00988b00ff988b00ff988b00ffeae8cbff0e
:1044ac00f6f5e8ff978a00ff988b00ff988b00ffca
:1044bc00988b00ff988b00ff9c900affa3971bff23
:1044cc00a3971bffa3971bffa3971bffa3971aff91
:1044dc00988b00ff988b00ff988b00ff988b00ff48
:1044ec00988b00ff988b00ff988b00ffa3971bff06
:1044fc00a3971bffa3971bffa3971bffa3971bff60
:10450c009c8f09ff988b00ff9a8d04ffa3981cffca
:10451c00a3971bffa3971bffa3971bffa3971bff3f
:10452c00a3971bffa3971bffa3971bffa29618ff34
:10453c00978a00ff988b00ff988b00ff988b00ffe9
:10454c00a29619ffa3971bffa3971bffa3981cff11
:10455c00988b01ff988b00ff988b00ff988b00ffc6
:10456c00988b00ff988b00ff988b00ff988b00ffb7
:10457c00988b00ff988b00ff988b00ffa3981cff73
:10458c00a3971bffa3971bffa3971bffa3981cffcd
:10459c00988b00ff988b00ff988b00ff988b00ff87
:1045ac00988b00ffa19617ffa3971bffa3971bffe8
:1045bc00a3971bffa3971bffa3971bffa3971bff9f
:1045cc00a3981bffa2971aff988b01ff988b00fff3
:1045dc00988b00ffa19517ffaea438ff9b8e08ffa8
:1045ec00988b00ff988b00ff988b00ff988b00ff37
:1045fc00978900fff9f9f1ffe4e1bdff988b00ff0b
:10460c00988b00ff988b00ffcbc580ffffffffff4f
:10461c00fffffff9ffffff4b000000000000000050
:10462c00000000000000000000000000000000007e
:10463c00000000000000000000000000000000006e
:10464c00000000000000000000000000000000005e
:10465c00000000000000000000000000000000004e
:10466c00000000000000000000000000000000003e
:10467c00000000000000000000000000000000002e
:10468c00000000000000000000000000000000001e
:10469c00000000000000000000000000000000000e
:1046ac0000000000000000000000000000000000fe
:1046bc0000000000000000000000000000000000ee
:1046cc0000000000000000000000000000000000de
:1046dc000000000000000000ffffff67ffffffff6e
:1046ec00ffffffffd9d4a0ff988b00ff988b00ff32
:1046fc00988b00ffd8d4a0fffefdfbff968900ff2e
:10470c00988b00ff988b00ff988b00ff988b00ff15
:10471c00beb65effffffffffffffffffffffffffc8
:10472c00ffffffffffffffff978a00ff988b00ff43
:10473c00988b00ff988b00ff988b00ff988b00ffe5
:10474c00978a00ffffffffffffffffffffffffff49
:10475c00ffffffffffffffffbbb357ff988b00ff6f
:10476c00a89d28ffffffffffffffffffffffffffdd
:10477c00ffffffffffffffffffffffffffffffff3d
:10478c00fffffffffffffffffefefdffa69a23ffcb
:10479c00978a00ff978a00fff5f4e7ffffffffff02
:1047ac00ffffffffffffffff9c8f0aff988b00ffaf
:1047bc00988b00ff988b00ff988b00ff988b00ff65
:1047cc00988b00ff988b00ff988b00ff988b00ff55
:1047dc00a09415ffffffffffffffffffffffffff91
:1047ec00ffffffffffffffff9e920fff988b00ff65
:1047fc00988b00ff988b00ff978a00fff0eed9ff93
:10480c00ffffffffffffffffffffffffffffffffac
:10481c00ffffffffffffffffffffffffffffffff9c
:10482c00ffffffffb4aa46ffa29618ffcac47cff85
:10483c00cfc988ffd2cc8fff978a00ff988b00ffdf
:10484c00988b00ff988b00ff968900fffffffffffe
:10485c00d1cb8eff988b00ff988b00ff988b00ffbd
:10486c00dfdbb1ffffffffffffffffe5ffffff24d3
:10487c00000000000000000000000000000000002c
:10488c00000000000000000000000000000000001c
:10489c00000000000000000000000000000000000c
:1048ac0000000000000000000000000000000000fc
:1048bc0000000000000000000000000000000000ec
:1048cc0000000000000000000000000000000000dc
:1048dc0000000000000000000000000000000000cc
:1048ec0000000000000000000000000000000000bc
:1048fc0000000000000000000000000000000000ac
:10490c00000000000000000000000000000000009b
:10491c00000000000000000000000000000000008b
:10492c00000000000000000000000000000000007b
:10493c00ffffff50fffffffbffffffffe2deb8ffb3
:10494c00988b00ff988b00ff988b00ffcec887ffd9
:10495c00ffffffff968900ff988b00ff988b00ffed
:10496c00988b00ff988b00ffbeb65effffffffff2a
:10497c00ffffffffffffffffffffffffffffffff3b
:10498c009c8f09ff988b00ff988b00ff988b00ff82
:10499c00988b00ff988b00ff9d900cffffffffff93
:1049ac00ffffffffffffffffffffffffffffffff0b
:1049bc00bbb357ff988b00ffa89d28ffffffffff9d
:1049cc00ffffffffffffffffffffffffffffffffeb
:1049dc00ffffffffffffffffffffffffffffffffdb
:1049ec00ffffffffd9d4a0ff9a8e06ff978a00ff26
:1049fc00f5f4e7ffffffffffffffffffffffffffe8
:104a0c009c8f0aff988b00ff988b00ff988b00ff00
:104a1c00988b00ff988b00ff988b00ff988b00ff02
:104a2c00988b00ff988b00ffaca232ffffffffffbb
:104a3c00ffffffffffffffffffffffffffffffff7a
:104a4c00a89e29ff988b00ff988b00ff988b00ff86
:104a5c00978a00fff0eed9ffffffffffffffffff7c
:104a6c00ffffffffffffffffffffffffffffffff4a
:104a7c00ffffffffffffffffffffffffece9d0ff92
:104a8c00ada335ffbfb761ffdbd7a7ffb7ad4effb7
:104a9c00998d03ff988b00ff988b00ff988b00ff7c
:104aac00978900ffffffffffc7c074ff988b00ffc3
:104abc00988b00ff988b00ffe8e5c6ffffffffff18
:104acc00ffffffd5ffffff160000000000000000f5
:104adc0000000000000000000000000000000000ca
:104aec0000000000000000000000000000000000ba
:104afc0000000000000000000000000000000000aa
:104b0c000000000000000000000000000000000099
:104b1c000000000000000000000000000000000089
:104b2c000000000000000000000000000000000079
:104b3c000000000000000000000000000000000069
:104b4c000000000000000000000000000000000059
:104b5c000000000000000000000000000000000049
:104b6c000000000000000000000000000000000039
:104b7c000000000000000000000000000000000029
:104b8c000000000000000000ffffff28ffffffe80f
:104b9c00fffffffff2f0deff978a00ff988b00ff0c
:104bac00988b00ffbab255ffffffffff988b00fff9
:104bbc00988b00ff988b00ff988b00ff988b00ff61
:104bcc00beb65effffffffffffffffffffffffff14
:104bdc00ffffffffffffffffb8af4fff968900fffe
:104bec00988b00ff988b00ff988b00ff968900ff35
:104bfc00bbb256fffffffffffffffffffffffffff3
:104c0c00ffffffffffffffffbbb357ff988b00ffba
:104c1c00a89d28ffffffffffffffffffffffffff28
:104c2c00ffffffffffffffffffffffffffffffff88
:104c3c00fffffffffffffffffffffffffaf9f2ff90
:104c4c00afa539ff978a00fff5f4e7ffffffffffe1
:104c5c00ffffffffffffffff9c8f0aff988b00fffa
:104c6c00988b00ff988b00ff988b00ff988b00ffb0
:104c7c00988b00ff988b00ff988b00ff988b00ffa0
:104c8c00cfc989ffffffffffffffffffffffffff04
:104c9c00ffffffffffffffffcac37cff988b00ffe6
:104cac00988b00ff988b00ff978a00fff0eed9ffde
:104cbc00fffffffffffffffffffffffffffffffff8
:104ccc00ffffffffffffffffffffffffffffffffe8
:104cdc00ffffffffffffffff978a00ffd8d39eff68
:104cec00b7ae4effdcd7a8ff978a00ff988b00ff6a
:104cfc00988b00ff988b00ff998d04ffffffffff3f
:104d0c00b4aa45ff988b00ff988b00ff978a00ff91
:104d1c00f6f5e8ffffffffffffffffadffffff040e
:104d2c000000000000000000000000000000000077
:104d3c000000000000000000000000000000000067
:104d4c000000000000000000000000000000000057
:104d5c000000000000000000000000000000000047
:104d6c000000000000000000000000000000000037
:104d7c000000000000000000000000000000000027
:104d8c000000000000000000000000000000000017
:104d9c000000000000000000000000000000000007
:104dac0000000000000000000000000000000000f7
:104dbc0000000000000000000000000000000000e7
:104dcc0000000000000000000000000000000000d7
:104ddc0000000000000000000000000000000000c7
:104dec00ffffff0dffffffc7fffffffffcfbf6ff01
:104dfc00968900ff988b00ff988b00ffaa9f2cffd1
:104e0c00ffffffff9e910eff988b00ff988b00ff1a
:104e1c00988b00ff988b00ffbeb65effffffffff75
:104e2c00ffffffffffffffffffffffffffffffff86
:104e3c00e2dfb8ff9b8f08ff988b00ff988b00ff79
:104e4c00988b00ff9c900bffe5e1beffffffffff7f
:104e5c00ffffffffffffffffffffffffffffffff56
:104e6c00bbb357ff988b00ffa89d28ffffffffffe8
:104e7c00ffffffffffffffffe8e5c5ff9f9210ff5d
:104e8c009f9311ff9f9311ffe0dcb1ffffffffff2a
:104e9c00fffffffffaf9f3ffafa53aff978a00ff78
:104eac00f5f4e7ffffffffffffffffffffffffff33
:104ebc009c8f0aff988b00ff988b00ff988b00ff4c
:104ecc00988b00ff988b00ff988b00ff988b00ff4e
:104edc00988b00ff978a00fff0eedaffffffffffd1
:104eec00fffffffff8f7eeffffffffffffffffffe6
:104efc00edead2ff978a00ff988b00ff988b00ff9a
:104f0c00978a00fff0eed9ffffffffffffffffffc7
:104f1c00ffffffffa79c24ff9f9311ff9d910dffa7
:104f2c00ffffffffffffffffffffffffffffffff85
:104f3c00968900ff978900ff978a00ff978a00ffe8
:104f4c00988b00ff988b00ff988b00ff988b00ffcd
:104f5c00a19517ffffffffffa59920ff988b00ff7e
:104f6c00988b00ff968900fffefdfcffffffffff03
:104f7c00ffffff7d000000000000000000000000ab
:104f8c000000000000000000000000000000000015
:104f9c000000000000000000000000000000000005
:104fac0000000000000000000000000000000000f5
:104fbc0000000000000000000000000000000000e5
:104fcc0000000000000000000000000000000000d5
:104fdc0000000000000000000000000000000000c5
:104fec0000000000000000000000000000000000b5
:104ffc0000000000000000000000000000000000a5
:10500c000000000000000000000000000000000094
:10501c000000000000000000000000000000000084
:10502c000000000000000000000000000000000074
:10503c00000000000000000000000000ffffff9bcc
:10504c00ffffffffffffffff968900ff988b00ff1c
:10505c00988b00ff9e920fffffffffffa99e2aff78
:10506c00988b00ff988b00ff988b00ff988b00ffac
:10507c00beb65effffffffffffffffffffffffff5f
:10508c00fffffffffffffffffcfcf9ffb7ae4dff7b
:10509c00988b00ff988b00ff988b00ffb9b052ffe4
:1050ac00fdfdfaffffffffffffffffffffffffff0d
:1050bc00ffffffffffffffffbbb357ff988b00ff06
:1050cc00a89d28ffffffffffffffffffffffffff74
:1050dc00e6e3c1ff988b00ff988b00ff988b00ffd5
:1050ec00ddd9abfffffffffffffffffffaf9f3ff77
:1050fc00afa53aff978a00fff5f4e7ffffffffff2c
:10510c00ffffffffffffffff9c8f0aff988b00ff45
:10511c00988b00ff988b00ff988b00ff988b00fffb
:10512c00988b00ff988b00ff988b00ff968900ffef
:10513c00ffffffffffffffffffffffffdfdbb0ff06
:10514c00fffffffffffffffffefefdff968900ff45
:10515c00988b00ff988b00ff978a00fff0eed9ff29
:10516c00ffffffffffffffffffffffffa09415fff7
:10517c00988b00ff968900ffffffffffffffffffeb
:10518c00ffffffffffffffff968900ff988b00ffdb
:10519c00988b00ff988b00ff988b00ff988b00ff7b
:1051ac00988b00ff988b00ffafa539ffffffffff27
:1051bc009b8f08ff988b00ff988b00ff978a00ff4e
:1051cc00ffffffffffffffffffffff4e0000000090
:1051dc0000000000000000000000000000000000c3
:1051ec0000000000000000000000000000000000b3
:1051fc0000000000000000000000000000000000a3
:10520c000000000000000000000000000000000092
:10521c000000000000000000000000000000000082
:10522c000000000000000000000000000000000072
:10523c000000000000000000000000000000000062
:10524c000000000000000000000000000000000052
:10525c000000000000000000000000000000000042
:10526c000000000000000000000000000000000032
:10527c000000000000000000000000000000000022
:10528c000000000000000000000000000000000012
:10529c0000000000ffffff6affffffffffffffffa3
:1052ac00998c02ff988b00ff988b00ff988b00ff66
:1052bc00ffffffffbab154ff988b00ff988b00ffe4
:1052cc00988b00ff988b00ffbeb65effffffffffc1
:1052dc00fffffffffffffffffefefdffffffffffd6
:1052ec00ffffffffe1deb6ff988b00ff988b00fffe
:1052fc00988b00ffe3e0baffffffffffffffffff0c
:10530c00fefefdffffffffffffffffffffffffffa5
:10531c00bbb357ff988b00ffa89d28ffffffffff33
:10532c00ffffffffffffffffe6e3c1ff988b00ffce
:10533c00988b00ff988b00ffddd9abffffffffffc1
:10534c00fffffffffaf9f3ffafa53aff978a00ffc3
:10535c00f5f4e7ffffffffffffffffffffffffff7e
:10536c009c8f0aff988b00ff988b00ff988b00ff97
:10537c00988b00ff988b00ff988b00ff988b00ff99
:10538c00988b00ff9d900cffffffffffffffffffbf
:10539c00ffffffffc7c075ffffffffffffffffff12
:1053ac00ffffffff9b8e07ff988b00ff988b00ff82
:1053bc00978a00fff0eed9ffffffffffffffffff13
:1053cc00ffffffffa09415ff988b00ff968900ff4d
:1053dc00ffffffffffffffffffffffffffffffffd1
:1053ec00968900ff988b00ff988b00ff988b00ff2d
:1053fc00988b00ff988b00ff988b00ff988b00ff19
:10540c00c1b966ffffffffff978a00ff988b00ff73
:10541c00988b00ff9a8e06ffffffffffffffffff39
:10542c00ffffff270000000000000000000000004c
:10543c000000000000000000000000000000000060
:10544c000000000000000000000000000000000050
:10545c000000000000000000000000000000000040
:10546c000000000000000000000000000000000030
:10547c000000000000000000000000000000000020
:10548c000000000000000000000000000000000010
:10549c000000000000000000000000000000000000
:1054ac0000000000000000000000000000000000f0
:1054bc0000000000000000000000000000000000e0
:1054cc0000000000000000000000000000000000d0
:1054dc0000000000000000000000000000000000c0
:1054ec00000000000000000000000000ffffff5360
:1054fc00ffffffffffffffff9b8f09ff988b00ff54
:10550c00988b00ff978a00ffffffffffc4bc6cff66
:10551c00988b00ff988b00ff988b00ff988b00fff7
:10552c00beb65effffffffffffffffffffffffffaa
:10553c00f2f0defffffffffffffffffff2f0dfffe8
:10554c00978a00ff988b00ff978a00fff3f2e2ff27
:10555c00fffffffffffffffff2f1dfffffffffff8a
:10556c00ffffffffffffffffbbb357ff988b00ff51
:10557c00a89d28ffffffffffffffffffffffffffbf
:10558c00e6e3c1ff988b00ff988b00ff988b00ff20
:10559c00ddd9abfffffffffffffffffffaf9f3ffc2
:1055ac00afa53aff978a00fff5f4e7ffffffffff77
:1055bc00ffffffffffffffff9c8f0aff988b00ff91
:1055cc00988b00ff988b00ff988b00ff988b00ff47
:1055dc00988b00ff988b00ff978a00ffa69b24fff7
:1055ec00fffffffffffffffffdfdfaffbcb45afffb
:1055fc00fffffeffffffffffffffffffa3971bff58
:10560c00988b00ff988b00ff978a00fff0eed9ff74
:10561c00ffffffffffffffffffffffff9f9315ff44
:10562c00978a00ff988b03ffffffffffffffffff31
:10563c00ffffffffffffffff968900ff988b00ff26
:10564c00988b00ff988b00ff988b00ff988b00ffc6
:10565c00988b00ff988b00ffcbc57ffffffffffff0
:10566c00968900ff988b00ff988b00ff9e920fff8e
:10567c00ffffffffffffffffffffff180000000011
:10568c00000000000000000000000000000000000e
:10569c0000000000000000000000000000000000fe
:1056ac0000000000000000000000000000000000ee
:1056bc0000000000000000000000000000000000de
:1056cc0000000000000000000000000000000000ce
:1056dc0000000000000000000000000000000000be
:1056ec0000000000000000000000000000000000ae
:1056fc00000000000000000000000000000000009e
:10570c00000000000000000000000000000000008d
:10571c00000000000000000000000000000000007d
:10572c00000000000000000000000000000000006d
:10573c00000000000000000000000000000000005d
:10574c0000000000ffffff2affffffffffffffff2e
:10575c00a59a21ff988b00ff988b00ff968900ff7c
:10576c00fefefcffd8d39eff988b00ff988b00ffaa
:10577c00988b00ff988b00ffbeb65effffffffff0c
:10578c00ffffffffffffffffd4ce94ffffffffffe4
:10579c00ffffffffffffffff978a00ff988b00ffc3
:1057ac00978a00ffffffffffffffffffffffffffd9
:1057bc00d6d19affffffffffffffffffffffffffa9
:1057cc00bbb357ff988b00ffa89d28ffffffffff7f
:1057dc00ffffffffffffffffe6e2c1ff968900ff1f
:1057ec00978900ff988b00fff1f0ddffffffffffb3
:1057fc00fffffffff7f6ebffaaa02dff978a00ff34
:10580c00f5f4e7ffffffffffffffffffffffffffc9
:10581c009c8f0aff988b00ff988b00ff988b00ffe2
:10582c00988b00ff988b00ff988b00ff988b00ffe4
:10583c00968900ffc7c075ffffffffffffffffff4b
:10584c00f4f2e3ffaa9f2cfff7f6ecffffffffff3c
:10585c00ffffffffc1ba67ff988b00ff988b00ff1b
:10586c00978a00fff0eed9ffffffffffffffffff5e
:10587c00fffffffff8f7edfff7f6ecfffefefdff75
:10588c00ffffffffffffffffffffffffe6e3c2ff8e
:10589c00988a00ff988b00ff988b00ff988b00ff75
:1058ac00988b00ff988b00ff988b00ff988b00ff64
:1058bc00dfdbb0fffcfbf7ff968900ff988b00ff46
:1058cc00988b00ffaa9f2dffffffffffffffffff3d
:1058dc00ffffff04000000000000000000000000bb
:1058ec0000000000000000000000000000000000ac
:1058fc00000000000000000000000000000000009c
:10590c00000000000000000000000000000000008b
:10591c00000000000000000000000000000000007b
:10592c00000000000000000000000000000000006b
:10593c00000000000000000000000000000000005b
:10594c00000000000000000000000000000000004b
:10595c00000000000000000000000000000000003b
:10596c00000000000000000000000000000000002b
:10597c00000000000000000000000000000000001b
:10598c00000000000000000000000000000000000b
:10599c00000000000000000000000000ffffff0fef
:1059ac00ffffffffffffffffb5ab48ff988b00ff2a
:1059bc00988b00ff978a00fff6f5e9ffeae7caff2c
:1059cc00988b00ff988b00ff988b00ff988b00ff43
:1059dc00beb65efffffffffffffffffffffffffff6
:1059ec00cbc57fffffffffffffffffffffffffffa9
:1059fc00a4991fff988b00ffa59a20ffffffffffc4
:105a0c00ffffffffffffffffcfc989ffffffffff76
:105a1c00ffffffffffffffffbbb357ff988b00ff9c
:105a2c00a89d28ffffffffffffffffffffffffff0a
:105a3c00ffffffffffffffffffffffffffffffff6a
:105a4c00ffffffffffffffffffffffffcdc783ff40
:105a5c00988b00ff978a00fff5f4e7ffffffffff2d
:105a6c00ffffffffffffffff9c8f0aff988b00ffdc
:105a7c00988b00ff988b00ff988b00ff988b00ff92
:105a8c00988b00ff988b00ff9f9311ffeae8ccffe7
:105a9c00ffffffffffffffffe3e0bbff9e910eff49
:105aac00e9e6c8ffffffffffffffffffe6e2c0ffd5
:105abc00988b00ff988b00ff978a00fff0eed9ffc0
:105acc00ffffffffffffffffffffffffffffffffda
:105adc00ffffffffffffffffffffffffffffffffca
:105aec00ffffffff9a8d07ff988b00ff988b00ff3d
:105afc00988b00ff988b00ff988b00ff988b00ff12
:105b0c00988b00ff978a00ffefedd8fff2f0dfffd4
:105b1c00978a00ff988b00ff988b00ffbbb358ff50
:105b2c00ffffffffffffffff000000000000000071
:105b3c000000000000000000000000000000000059
:105b4c000000000000000000000000000000000049
:105b5c000000000000000000000000000000000039
:105b6c000000000000000000000000000000000029
:105b7c000000000000000000000000000000000019
:105b8c000000000000000000000000000000000009
:105b9c0000000000000000000000000000000000f9
:105bac0000000000000000000000000000000000e9
:105bbc0000000000000000000000000000000000d9
:105bcc0000000000000000000000000000000000c9
:105bdc0000000000000000000000000000000000b9
:105bec0000000000000000000000000000000000a9
:105bfc000000000000000000ffffffffffffffffa1
:105c0c00c8c278ff988b00ff988b00ff988b00ff21
:105c1c00e9e6c8fff7f6eaff978a00ff988b00ffca
:105c2c00988b00ff988b00ffbeb65effffffffff57
:105c3c00ffffffffffffffffccc682ffefedd7ff9b
:105c4c00ffffffffffffffffcac37bff988b00ff27
:105c5c00cbc47dffffffffffffffffffedebd3ff8b
:105c6c00d0ca8bffffffffffffffffffffffffff10
:105c7c00bbb357ff988b00ffa89d28ffffffffffca
:105c8c00ffffffffffffffffffffffffffffffff18
:105c9c00ffffffffffffffffffffffffffffffff08
:105cac00eeecd5ff978a00ff988b00ff978a00ffd8
:105cbc00f5f4e7ffffffffffffffffffffffffff15
:105ccc009c8f0aff988b00ff988b00ff988b00ff2e
:105cdc00988b00ff988b00ff988b00ff988b00ff30
:105cec00bab154fffdfdfbfffffffffffffffffffe
:105cfc00cec885ff988b00ffd5cf97ffffffffff26
:105d0c00fffffffffcfbf7ff968900ff988b00ff5e
:105d1c00978a00fff0eed9ffffffffffffffffffa9
:105d2c00ffffffffffffffffffffffffffffffff77
:105d3c00fffffffffffffffffffffffffafaf3ff7d
:105d4c00978a00ff988b00ff988b00ff988b00ffc1
:105d5c00988b00ff988b00ff988b00ff978900ffb2
:105d6c00faf9f3ffe3dfb9ff988b00ff988b00ff84
:105d7c00988b00ffd0ca8afffffffffffffffffbde
:105d8c000000000000000000000000000000000007
:105d9c0000000000000000000000000000000000f7
:105dac0000000000000000000000000000000000e7
:105dbc0000000000000000000000000000000000d7
:105dcc0000000000000000000000000000000000c7
:105ddc0000000000000000000000000000000000b7
:105dec0000000000000000000000000000000000a7
:105dfc000000000000000000000000000000000097
:105e0c000000000000000000000000000000000086
:105e1c000000000000000000000000000000000076
:105e2c000000000000000000000000000000000066
:105e3c000000000000000000000000000000000056
:105e4c000000000000000000000000000000000046
:105e5c00ffffffffffffffffddd8aaff988b00ffbe
:105e6c00988b00ff988b00ffd7d29cfffefefcffa7
:105e7c00968900ff988b00ff988b00ff988b00ff92
:105e8c00beb65effffffffffffffffffffffffff41
:105e9c00cdc783ffcac37bffffffffffffffffffe1
:105eac00f0efdbff968900fff1efdcffffffffff58
:105ebc00ffffffffc8c176ffd1cb8dffffffffffb8
:105ecc00ffffffffffffffffbbb357ff988b00ffe8
:105edc00a89d28ffffffffffffffffffffffffff56
:105eec00fffffffffffffffffffffffffefefdffba
:105efc00f1efdcffb8af4fff978a00ff988b00ffe4
:105f0c00988b00ff978a00fff5f4e7ffffffffff78
:105f1c00ffffffffffffffff9c8f0aff988b00ff27
:105f2c00988b00ff988b00ff988b00ff988b00ffdd
:105f3c00988b00ff988b00ffdfdbb0ffffffffffac
:105f4c00ffffffffffffffffe4e1bdffd5d098ff90
:105f5c00e7e4c3ffffffffffffffffffffffffffb4
:105f6c00998c02ff988b00ff978a00fff0eed9ff07
:105f7c00ffffffffffffffffffffffffa3981cffcb
:105f8c009b8e08ff9d910dfff6f4e8ffffffffffce
:105f9c00ffffffffffffffffada335ff988b00ff57
:105fac00988b00ff988b00ff988b00ff988b00ff5d
:105fbc00988b00ff968900ffffffffffd0ca89ff77
:105fcc00988b00ff988b00ff988b00ffe3e0bbffe2
:105fdc00ffffffffffffffe80000000000000000d4
:105fec0000000000000000000000000000000000a5
:105ffc000000000000000000000000000000000095
:10600c000000000000000000000000000000000084
:10601c000000000000000000000000000000000074
:10602c000000000000000000000000000000000064
:10603c000000000000000000000000000000000054
:10604c000000000000000000000000000000000044
:10605c000000000000000000000000000000000034
:10606c000000000000000000000000000000000024
:10607c000000000000000000000000000000000014
:10608c000000000000000000000000000000000004
:10609c0000000000000000000000000000000000f4
:1060ac000000000000000000fffffffcffffffffef
:1060bc00e6e3c1ff988b00ff988b00ff988b00ffe5
:1060cc00cdc783ffffffffff968900ff988b00ff72
:1060dc00988b00ff988b00ffbeb65effffffffffa3
:1060ec00ffffffffffffffffcdc783ffb6ac4affeb
:1060fc00fffffffffffffffffbfbf6ff958800ff95
:10610c00fbfbf6ffffffffffffffffffb4ab46fffc
:10611c00d1cb8dffffffffffffffffffffffffff57
:10612c00bbb357ff988b00ffa89d28ffffffffff15
:10613c00fffffffffffffffff0eed9ffc0b864ffca
:10614c00c0b862ffbbb256ffa4981dff978900ff31
:10615c00988b00ff988b00ff988b00ff978a00ffad
:10616c00f5f4e7ffffffffffffffffffffffffff60
:10617c009c8f0aff988b00ff988b00ff988b00ff79
:10618c00988b00ff988b00ff988b00ff978a00ff7d
:10619c00eeecd6ffffffffffffffffffffffffff50
:1061ac00fffffffffffffffffffffffffffffffff3
:1061bc00ffffffffffffffff9e9210ff988b00ff7a
:1061cc00978a00fff0eed9fffffffffffffffffff5
:1061dc00ffffffffa09415ff988b00ff988a00ff2c
:1061ec00dad5a3ffffffffffffffffffffffffff5e
:1061fc00b6ad4bff988b00ff988b00ff988b00ff80
:10620c00988b00ff988b00ff988b00ff978a00fffc
:10621c00ffffffffc5be70ff988b00ff988b00ff40
:10622c00988a00ffece9cfffffffffffffffffdacb
:10623c000000000000000000000000000000000052
:10624c000000000000000000000000000000000042
:10625c000000000000000000000000000000000032
:10626c000000000000000000000000000000000022
:10627c000000000000000000000000000000000012
:10628c000000000000000000000000000000000002
:10629c0000000000000000000000000000000000f2
:1062ac0000000000000000000000000000000000e2
:1062bc0000000000000000000000000000000000d2
:1062cc0000000000000000000000000000000000c2
:1062dc0000000000000000000000000000000000b2
:1062ec0000000000000000000000000000000000a2
:1062fc000000000000000000000000000000000092
:10630c00ffffffebfffffffff4f3e5ff978a00ffb2
:10631c00988b00ff988b00ffb9b052ffffffffff77
:10632c00988b01ff988b00ff988b00ff988b00ffd8
:10633c00beb65effffffffffffffffffffffffff8c
:10634c00cdc783ff9c8f09ffffffffffffffffff00
:10635c00ffffffff9c8f0affffffffffffffffff09
:10636c00ffffffff9b8f08ffd1cb8dffffffffffd0
:10637c00ffffffffffffffffbbb357ff988b00ff33
:10638c00a89d28ffffffffffffffffffffffffffa1
:10639c00e6e3c1ff988b00ff988b00ff988b00ff02
:1063ac00988b00ff988b00ff988b00ff988b00ff59
:1063bc00988b00ff978a00fff5f4e7ffffffffffc4
:1063cc00ffffffffffffffff9c8f0aff988b00ff73
:1063dc00988b00ff988b00ff988b00ff988b00ff29
:1063ec00988b00ff968900fffffffeffffffffff6a
:1063fc00ffffffffffffffffffffffffffffffffa1
:10640c00ffffffffffffffffffffffffffffffff90
:10641c00b9b052ff968900ff978a00fff0eed9ffc2
:10642c00ffffffffffffffffffffffffa09415ff24
:10643c00988b00ff988b00ffd4ce94ffffffffffdb
:10644c00ffffffffffffffffb8af4fff988b00ff71
:10645c00988b00ff988b00ff988b00ff988b00ffa8
:10646c00988b00ff9a8d05ffffffffffb2a941ff3c
:10647c00988b00ff988b00ff978a00fff8f7eeffd0
:10648c00ffffffffffffffb3000000000000000054
:10649c0000000000000000000000000000000000f0
:1064ac0000000000000000000000000000000000e0
:1064bc0000000000000000000000000000000000d0
:1064cc0000000000000000000000000000000000c0
:1064dc0000000000000000000000000000000000b0
:1064ec0000000000000000000000000000000000a0
:1064fc000000000000000000000000000000000090
:10650c00000000000000000000000000000000007f
:10651c00000000000000000000000000000000006f
:10652c00000000000000000000000000000000005f
:10653c00000000000000000000000000000000004f
:10654c00000000000000000000000000000000003f
:10655c000000000000000000ffffffccffffffff6a
:10656c00fdfdfaff968900ff988b00ff988b00ffca
:10657c00a99e29ffffffffff9e9210ff988b00ff43
:10658c00988b00ff988b00ffbeb65effffffffffee
:10659c00ffffffffffffffffcdc783ff968900ffc3
:1065ac00fefefcffffffffffffffffffcdc784ffd9
:1065bc00fffffffffffffffffefdfcff968900ffc3
:1065cc00d1cb8dffffffffffffffffffffffffffa3
:1065dc00bbb357ff988b00ffa89d28ffffffffff61
:1065ec00ffffffffffffffffe6e3c1ff988b00fffc
:1065fc00988b00ff988b00ff988b00ff988b00ff07
:10660c00988b00ff988b00ff988b00ff978a00fff8
:10661c00f5f4e7ffffffffffffffffffffffffffab
:10662c009a8e0aff968900ff968900ff968900ffd3
:10663c00968900ff978a00ff988b00ff9c8f09ffbb
:10664c00fffffffffffffffffffffffffffffeff4f
:10665c00fcfcf8fffcfcf8fffcfcf8ffffffffff65
:10666c00ffffffffffffffffdedaadff9a8d04ff98
:10667c00978a00fff0eed9ffffffffffffffffff40
:10668c00ffffffff9f9315ff968900ff968900ff80
:10669c00e4e0bbffffffffffffffffffffffffff7c
:1066ac00b4ab46ff988b00ff988b00ff988b00ffd4
:1066bc00988b00ff988b00ff978a00ffa29619ff1a
:1066cc00ffffffffa4981dff988b00ff988b00ff26
:1066dc00968900fffffffeffffffffffffffff8418
:1066ec00000000000000000000000000000000009e
:1066fc00000000000000000000000000000000008e
:10670c00000000000000000000000000000000007d
:10671c00000000000000000000000000000000006d
:10672c00000000000000000000000000000000005d
:10673c00000000000000000000000000000000004d
:10674c00000000000000000000000000000000003d
:10675c00000000000000000000000000000000002d
:10676c00000000000000000000000000000000001d
:10677c00000000000000000000000000000000000d
:10678c0000000000000000000000000000000000fd
:10679c0000000000000000000000000000000000ed
:1067ac0000000000000000000000000000000000dd
:1067bc00ffffffa1ffffffffffffffff978900ff18
:1067cc00988b00ff988b00ff9d910dffffffffff43
:1067dc00aaa02dff978a00ff988b00ff988b00ffd3
:1067ec00beb65effffffffffffffffffffffffffd8
:1067fc00cdc783ff988b00ffe9e7c9ffffffffffc1
:10680c00ffffffffffffffffffffffffffffffff8c
:10681c00e9e6c8ff988b00ffd1cb8dffffffffff90
:10682c00ffffffffffffffffbbb357ff988b00ff7e
:10683c00a89d28ffffffffffffffffffffffffffec
:10684c00e6e3c1ff988b00ff988b00ff988b00ff4d
:10685c00988b00ff988b00ff988b00ff988b00ffa4
:10686c00988b00ff978a00fff5f4e7ffffffffff0f
:10687c00fffffffffffffffffcfbf7fffcfbf6ff3b
:10688c00fcfbf6fffcfbf6fffcfbf6ffbbb256ff76
:10689c00988b00ffb2a941ffffffffffffffffff37
:1068ac00ffffffffe3dfb9ff968900ff968900ff2a
:1068bc00968900ffe7e4c5ffffffffffffffffff27
