:020000040000fa
:10000000f0ff03206d1200001b1a0000431b0000cc
:100010004b1e0000531f0000e12100000000000003
:100020000000000000000000000000006b1600004f
:10003000831c0000000000006b1600006b1600001f
:100040006b1600006b1600006b1600006b160000ac
:100050006b1600006b1600006b1600006b1600009c
:100060006b1600006b1600006b1600006b1600008c
:100070006b1600006b1600006b1600006b1600007c
:100080006b1600006b1600006b1600006b1600006c
:100090006b1600006b1600006b1600006b1600005c
:1000a0006b1600006b1600006b160000a51f000009
:1000b0006b1600006b1600006b1600006b1600003c
:1000c0006b1600006b1600006b1600006b1600002c
:1000d0006b1600006b1600006b1600006b1600001c
:1000e0006b1600006b16000000000000000000000e
:1000f000000000006b1600006b1600006b1600007d
:100100006b1600006b1600006b1600006b160000eb
:100110006b1600006b1600000d0a00000d0a0000af
:100120000d0a00000d0a00006b1600006b1600009f
:100130006b1600006b1600006b1600006b160000bb
:100140006b1600006b1600006b1600006b160000ab
:100150006b1600006b16000000000000000000009d
:10016000000000000000000000000000000000008f
:1001700000000000000000006b1600006b1600007d
:100180006b1600006b1600006b1600006b1600006b
:10019000000000006b1600006b1600006b160000dc
:1001a0006b1600006b1600006b1600006b1600004b
:1001b0006b1600006b1600006b1600006b1600003b
:1001c0006b1600006b1600006b1600006b1600002b
:1001d0006b1600006b1600006b1600006b1600001b
:1001e0006b1600006b1600006b1600006b1600000b
:1001f0006b1600006b1600006b1600006b160000fb
:100200006b16000000000000000000006b160000ec
:100210006b1600006b1600006b1600006b160000da
:100220006b1600006b1600006b1600006b160000ca
:100230006b1600006b1600006b1600006b160000ba
:100240006b1600006b1600006b1600006b160000aa
:100250006b1600006b1600006b1600006b1600009a
:020000040000fa
:10026000f8b500bff8bc08bc9e467047ad1b000047
:10027000f8b500bff8bc08bc9e467047891b00005b
:020000040000fa
:08028000fc0200000100000077
:020000040000fa
:100288002de9f04fadb00027dff8e4a20391064650
:100298001546b8464ff0ff3903990b78002b00f04c
:1002a800f9800cabcde907890a938023cdf8248027
:1002b8000b9300240b5d0bb1252b26d134b12246bc
:1002c800304601f0bdfc039b23440393039b1a783b
:1002d800252a40f0d78003f1010bcdf80cb0039824
:1002e80003782b2b1ad025d8202b1bd0232b1dd0dd
:1002f8002a2b27d001f0fefb0990039b1a78303a8d
:10030800092a2ed801330393f7e70134d2e7079b74
:1003180043f00103013007930390e0e7079b43f0a4
:100328000403f7e7079b43f00803f3e7079b43f051
:100338001003efe72d2bead0302bd9d1079b43f0e0
:100348000203e7e72b681a1d1b682a600130002b9f
:100358000390099305da079a5b4282f0010207923b
:100368000993079bda0744bf23f002030793039b13
:100378001a782e2a0dd1581ccdf8208003905a786f
:100388002a2a25d1023303932b681a1d1b682a6079
:10039800089303a801f072fc039b0190187801f000
:1003a800e5fe6928019979d032dc632800f0c6801f
:1003b80019dc252800f0d080612853d025238df83a
:1003c8001030cdf80cb0cdf81c80cde90898c0e00d
:1003d80001f090fb0890039b1a78303a092ad8d884
:1003e80001330393f7e7642858d06728e6dc2a46e8
:1003f80004a801f095fd002800f09c80039b5a1c7e
:1004080003921b7804aa07a9304601f0dffe38e002
:10041800702873d015dc6e2800f087806f28cdd146
:100428002b46002204a800f083fe002800f08280fa
:10043800039b04aa013307a93046039301f0d8f8b7
:100448001fe075283ad0782848d07328b6d180297b
:1004580070d1039b2a6801330393131d2b60126824
:1004680000235be02a4604a801f05afd002861d069
:10047800039b5a1c03921b7804aa07a9304601f073
:10048800a5fe04443c44a7426edd384b4f221a6057
:100498004ff0ff3738462db0bde8f08f2b460122cc
:1004a80004a800f045fe002844d0039b04aa0133a9
:1004b80007a93046039300f0e7fde2e72b46002248
:1004c80004a800f035fe002834d0039b04aa0133a9
:1004d80007a93046039301f071fad2e72b460022b0
:1004e80004a800f025fe28b3039b5a1c03921b782e
:1004f80004aa07a9304600f037fcc2e72b460022c1
:10050800f02104a800f014fea0b1039b013303936b
:10051800dde90423134306d10023524607a93046d8
:1005280001f0f4f9ade77823e2e72b463a1904a87d
:1005380000f0a9ff039b01330393a3e78029f9d1b6
:10054800039b013303932b681a1d1b682a608df8df
:100558001030012304aae1e78029ebd1039b8df831
:10056800100001330393f4e7274695e67c08002042
:040578007a200000e5
:020000040000fa
:10057c002de9f047089e04468846002b40f0858004
:10058c008a42154648d9b2fa82f24ab1c2f1200722
:10059c0001fa02f320fa07f7954047ea0308944062
:1005ac004fea154e230cb8fbfef71ffa85fc0efb29
:1005bc00178843ea084307fb0cf1994209d9eb1859
:1005cc0007f1ff3080f0e380994240f2e080023f77
:1005dc002b445b1aa4b2b3fbfef00efb103344eabf
:1005ec00034400fb0cfca44509d92c1900f1ff3382
:1005fc0080f0cb80a44540f2c88002382c4440eafd
:10060c000740a4eb0c0400271eb1d4400023c6e91c
:10061c0000433946bde8f087002a53d0b2fa82f283
:10062c00002a40f0b680491b4fea154e1ffa85f898
:10063c000127b1fbfefc230c0efb1c1143ea01430a
:10064c0008fb0cf1994207d9eb180cf1ff3002d2e0
:10065c00994200f2ec808446591aa3b2b1fbfef029
:10066c000efb101443ea044408fb00f8a04507d91c
:10067c002c1900f1ff3302d2a04500f2dc801846a1
:10068c00a4eb080440ea0c40bee78b4208d9002ecc
:10069c0078d00027c6e9000138463946bde8f08716
:1006ac00b3fa83f77fb98b4202d3824200f2bd804a
:1006bc00841a61eb030301209846002ea9d0c6e9e9
:1006cc000048a6e7ffdec7f12005bb4022fa05fc77
:1006dc004cea030c01fa07f420fa05f821fa05f3a9
:1006ec004fea1c4e48ea0404b3fbfef9210c0efb46
:1006fc0019331ffa8cf841ea034309fb08fa9a45af
:10070c0002fa07f200fa07f10bd91ceb030309f10b
:10071c00ff3080f088809a4540f28580a9f102096b
:10072c006344a3eb0a03a4b2b3fbfef00efb10333d
:10073c0044ea034400fb08f8a04508d91ceb040468
:10074c0000f1ff336bd2a04569d90238644440ea0a
:10075c000940a4eb0804a0fb02894c45c6464b4655
:10076c0054d351d0002e69d0b1eb0e0264eb0304cc
:10077c0004fa05f522fa07f3fc401d43c6e90054c0
:10078c00002746e73746304643e7184637e7074623
:10079c001fe7c2f1200320fa03f7954001fa02f09b
:1007ac0021fa03f34fea154e3843010cb3fbfef765
:1007bc001ffa85f80efb173341ea034107fb08f3d8
:1007cc008b4204fa02f407d9691807f1ff3c28d2ce
:1007dc008b4226d9023f2944cb1a81b2b3fbfef0df
:1007ec000efb103341ea034100fb08f38b4207d99f
:1007fc00691800f1ff3c10d28b420ed90238294403
:10080c00c91a40ea074714e74145abd2b8eb020ed0
:10081c0069eb0c0201381346a4e76046f0e7184672
:10082c0095e76746d8e781467be7384645e7acf164
:10083c00020c2b4410e702382c4421e73746e8e63b
:020000040000fa
:10084c00540800201c0000000000000014060020ca
:10085c00c000000000000000080800202c00000070
:10086c0000000000840800200100000000000000cf
:10087c00d40600200400000000000000b80700208f
:10088c005000000000000000d80600207800000096
:10089c0001000000e8060020e0060020e806002029
:1008ac0000000000000000002500000008000020ef
:1008bc000004000000000000000000000000000028
:1008cc00000000000000000000000000000000001c
:1008dc0000000000c9210000000000000000000022
:1008ec000000000000000000a11700000000000044
:1008fc0000000000000000000000000000000000ec
:10090c0000000000000000000000000000000020bb
:10091c000804000000000000340800202000000043
:10092c0001000000010000000300000000000000b6
:10093c0000000000000000000000000000000000ab
:10094c007008002070080020080000000000000063
:10095c007808002004000000000000007c08002043
:10096c000400000000000000080400200c0200003d
:10097c00000000005007002068000000010000008b
:10098c000100000003000000000000000000000057
:10099c00000000000000000000000000dd16000058
:1009ac00000000000000000000000000cf2100004b
:1009bc00e921000000000000000000000000000021
:1009cc00000000000000000000000000000000001b
:1009dc00000000000000000000000000000000000b
:1009ec00000000000000000080080020040000004f
:1009fc000000000000000000000000002222222263
:020000040000fa
:100a0c006a4b9b7d002b00f0d08010b5674b5b8b45
:100a1c0013f0020f16d0664bff2283f8202002221f
:100a2c0083f82120624b93f820305bb2b3f1ff3f87
:100a3c0000f08b805e4b93f820305bb2062b00f0fd
:100a4c009c8010bd594b5b8b13f0010f07d0584b9a
:100a5c00ff2283f82020022283f82120e2e7534b67
:100a6c005b8b13f0040f07d0514bff2283f820202f
:100a7c00012283f82120d5e74d4b93f820305bb24f
:100a8c00032b42d0042b10d0022bcbd1484b1b692b
:100a9c002bb10021464b988800f0baffc2e7012128
:100aac00434b988800f0b4ffbce7414a9369126944
:100abc0093420bd03e4a9168581c9061ca5c3b4be8
:100acc009a621a46d369002bfcd1abe7384b5b69b1
:100adc0073b1374b9b885b0043f00103334a53627d
:100aec00d369002bfcd1324b032283f8202099e7e9
:100afc002e4a536843f440335360d369002bfcd126
:100b0c002b4b062283f820208ce7294a5369013ba2
:100b1c00d2699a420cd0254ad369002bfcd1234bc5
:100b2c00986a234bd968da69541cdc61885479e7dc
:100b3c001e4a536843f4e0235360d369002bfcd165
:100b4c001b4b062283f82020e5e7194b002283f883
:100b5c002020164a536843f440335360d369002b6a
:100b6c00fcd1124b83221a76114b5b6a002b3ff49b
:100b7c0068af0f4a906a984763e70d4b002283f8e1
:100b8c00202083f82120094b83221a761a46538b96
:100b9c0003f03003102bfad1054b5b6a002b3ff4aa
:100bac0050af034a906a98474be7704700200141c9
:040bbc000808002005
:020000040000fa
:100bc0002de9f04f87b0039003a800f0fdff002847
:100bd00003da002007b0bde8f08f039b1b095d1e00
:100be000202d0fd9023b5e4ab3f5007f35bf02ebe3
:100bf000d30302ebd31313f8045c13f8045c34bf83
:100c0000013511350123a5f12001c5f1200203fab8
:100c100001f923fa02f203fa05f8d8f1000849eacb
:100c2000020969eb4909cde90089dff84081dff865
:100c300030914746d8e90023009902ea010a019958
:100c400003ea010b5aea0b0342d1039b05a81033b8
:100c5000059301f052fa18b9424b0c221a60b9e719
:100c6000d8f80852a84206d0059b103b05930123f3
:100c700000f110058360059bea18012143f0010390
:100c8000b5f1080442f8083c42f8041cc7f80822f1
:100c900045f8043c9dd0204601f090f888b155f805
:100ca000083c55f8041c23f00103e31a5a6822f0ab
:100cb00001020a445a6055f8041c21f001016250f7
:100cc0001c462046039901f0a9f804f1080081e7c9
:100cd0005446254bbaf1000f34d1cbf1000000eaa5
:100ce0000b00434309ebd36393f83c602036304656
:100cf00001f08cf9731c57f8334007ebc303083b32
:100d00009c4297d0272e26dd0235ae4201dc3f2ed5
:100d100021d16268039922f00102551a284600f099
:100d2000cdff864217d1e068a6686318d8609e6040
:100d300083609868c36041f0010060505d60a55019
:100d40006060bee7caf100002040434309ebd36373
:100d500093f83c60cbe73146204600f007feb0e751
:100d6000b81800007c08002029e66b070804002062
:020000040000fa
:100d70002de9f04f89461946d9e90153d9f8008089
:100d8000d9f80ca0002d8bb0a8bf28f0020883462c
:100d9000b8bf012518f010009646d2e9006702900e
:100da00051d056ea07024ed0981e18f0080403945a
:100db000d9f8104018bf00f1ff30401b013c4ff044
:100dc000000c049008f0020005900af804c0a1f19c
:100dd00041000690012c0add56ea070235d1002dac
:100de00033dc049a5019002801dd059a6abb029a87
:100df00062b1dee9006756ea070207d00aeb040297
:100e0000023c02f8011c30220af80420039a1ab1ad
:100e1000013c20220af80420d9f81020cdf80080e7
:100e2000013a121b0aeb0401584600f0f1fadbf814
:100e30000430db0504d5d9f804309842b8bf184611
:100e40000bb0bde8f08f1846afe706f00f00069a2a
:100e50000928d4bf30305730192a04f1ff340ed896
:100e600040f0200cacf1610cbcf1190f07d8cde9b2
:100e700008e1079301f085f9dde908e1079b0af82d
:100e80000400300940ea07704fea171c013d06468e
:040e900067469fe72b
:020000040000fa
:100e9400384b00221a7403f50063374a9a621a46e3
:100ea400536813f0100ffbd1344b4222c3f8842053
:100eb4001a46d2f8843013f0400ffad0304b002297
:100ec4009a6377225a631a46d36b13f0040ffbd14b
:100ed4002b4b022283f830201a46d36b13f0020ff7
:100ee400fbd1274a136c03f00303032bfad1254be0
:100ef40001225a711a46d37813f0010ffbd01f4b0d
:100f0400214a1a621a46536813f0040ffbd11b4b93
:100f14001e4a5a621a46536813f0080ffbd1174b46
:100f24004122c3f890201a46d2f8903013f0400fb3
:100f3400fad0124b4122c3f8dc201a46d2f8dc3036
:100f440013f0400ffad00d4b4122c3f80c211a467e
:100f5400d2f80c3113f0400ffad00a4b6ff07f42f5
:100f64001a6140f2ff725a61094a9a6102221a62b6
:100f7400704700bf0014004006013000001c004010
:100f840000100040000800400701010007010200b2
:040f94005682010080
:020000040000fa
:100f98002de9f84300286ad050f8043ca0f1080471
:100fa80023f00106a719a259934200d0ffde7a6800
:100fb80023681340da070fd4204600f0fbfe002810
:100fc80057d1384600f06aff0028f0d07b6823f03c
:100fd80001031e441f44eae746f0010363603046fc
:100fe8003b6000f067fe054601f00cf823687a685c
:100ff8001340db07e0d5dff88ce0dee90089c5f1b6
:10100800200ca5f1200228fa05f009fa0cfc29faaf
:1010180002f240ea0c001043012100ea0102002319
:101028001343c5f120007346a5f1200212d121fa1d
:1010380000f001fa02f2a94042ea00021ebfdef8ff
:1010480000000143cef8001022b1def804100a4374
:10105800cef80420681c03ebc003a3f10802666005
:101068003e60a2605a68e2605c60e3689c60bde82c
:10107800f883236823f00103e41a636823f001036b
:081088001e449ee7080400204d
:020000040000fa
:101090002de9f041d2e900230c4686b007465fea0d
:1010a000d37820684968a5680590e66841d0524227
:1010b00063eb4303002908db20f002000590b8f140
:1010c000000f02d1059948072ad5691e05a802908c
:1010d0000a20cde90010204600f017fab8f1000f01
:1010e00002d1059b59071fd5b8f1000f00f1ff3061
:1010f00014bf2d232b2333542269059b0093013aff
:101100002b46121a3118384600f082f97b68db054d
:1011100003d563689842b8bf184606b0bde8f081b1
:101120000807d2d42946d1e71a07e5d5013820238c
:08113000e1e70029c0dac5e780
:020000040000fa
:10113800882930b534d012dc81293fd003dc8029de
:101148003cd0002030bd82290ed08429f9d11c68fa
:1011580054f8041b1c60f2b10ab2d3171de0a02991
:1011680027d00cdc9029ecd11968073121f0070150
:10117800f1e802451960c0e900450120e2e7c0290d
:1011880001d0f029ddd11a68111d196013680360b8
:1011980000234360f1e78ab20023c0e90023ece7ab
:1011a8001c6854f8041b1c600ab14ab2d5e7cab2dd
:1011b800f2e71a68111d19601268cee719680c1d4c
:1011c8001c600ab10a68c8e70b68c0e90032d4e7b6
:020000040000fa
:1011d800224a137843f001031370536813f0010f88
:1011e800fbd11e490b7843f010030b704ff42023fa
:1011f800cb614ff010430b624ff400430b630022a6
:101208004a630b61164b10221a721a7583f8202054
:1012180083f82c2083f8382083f8442083f8502062
:1012280083f85c2083f8682083f8742083f8802092
:1012380083f88c2083f8982083f8a42083f8b020c2
:101248000f2283f8bc200b7843f002030b700a4688
:10125800536813f0020ffbd1704700bf002800400d
:041268001406002048
:020000040000fa
:10126c0008b51b4b98471b4b9847eff3108172b690
:10127c00194ad2f8883043f47003c2f88830bff3af
:10128c004f8fbff36f8f01b962b6144c202363608c
:10129c0000f074f8124b23f07f030f4a9360114b4c
:1012ac009847a36823f00103a3602346da6812f081
:1012bc00010ffbd1094b5a6842f004025a6001221b
:1012cc009a60094b9847094b984700f059fdfee787
:1012dc00e3210000e321000000ed00e0006000418c
:1012ec00000000005d180000e3210000e321000075
:020000040000fa
:1012fc002de9ff41836946690093f61acde9016136
:10130c0004461746039216444ff002086d464246b7
:10131c002946206800f0d6fdb04209d1d4e902324a
:10132c00c4e905331a44a262384604b0bde8f08122
:10133c0000280dda6268002342f01002b8f1020fa7
:10134c00a362c4e90533626015d06b68ff1aebe742
:10135c006b68984288bf0835a6eb000688bfc01a98
:10136c002b6803442b606b68a3eb000088bf08f16b
:0a137c00ff386860cbe71f46d6e794
:020000040000fa
:021386007047ae
:020000040000fa
:101388001e4b1f4a9342f0b438bf002103d203f822
:10139800011b9342fbd11b4ad2e9000150ea010329
:1013a8004ff0000610d09468034602f10c076cb9a0
:1013b80021b1014403f8016b9942fbd13a46d2e9c5
:1013c800000150ea0103eed1f0bc704759b101f1b8
:1013d8000c030c38801a1a443b461c1813f8015b9e
:1013e80025709342f9d111f0030318bf012303ebd1
:1013f800910107eb81073a46e1e700bf00000020b2
:08140800000000204c08000068
:020000040000fa
:101410002de9ff471d460c9b13f00108074689463e
:10142000144624d1aa4222da2e1b102e32464ff047
:10143000200128bf10226846b24600f083fe0f2e1e
:101440001edc4fea1a136ff00f0202fb03a269467b
:10145000384600f0f9fbb8f1000f04d122464946a6
:10146000384600f0f1fb284604b0bde8f08722467c
:101470004946384600f0e8fbac42d5db2546f2e7aa
:0e14800010226946384600f0dffb103ed7e729
:020000040000fa
:10148e00842910b523d00cdc812903d0822913d0f6
:10149e0080290bd119680c1d1c600b6803601a6043
:1014ae0013e0902921d003dc882917d0002010bd2d
:1014be00a029efd0c029ece719680c1d1c600b6841
:1014ce000360d1171046c3e900010120efe7196848
:1014de000c1d1c600b6803601a80f6e719680c1d62
:1014ee001c600b6803601a70efe719680c1d1c6016
:0c14fe0009680160d317c1e90023e6e78c
:020000040000fa
:10150a002de9f84f04460c9f6668d4f80cb024699c
:10151a0010463a68013c002502f0020a0b9a0bf8c1
:10152a000450002e1946b8bf0126012390464feaff
:10153a00e279002c03dcd3b12046bde8f88f50eaeb
:10154a00010209d1721b002a06dc0a9a521b002ae0
:10155a00f1ddbaf1000feed042464b4600f041fcf5
:10156a00013c134630320bf804200135e1e73b68b1
:08157a0023f010033b60dfe7e2
:020000040000fa
:10158200f8b5846a05460f46164654b1ab6a6a69d5
:101592009b1ab3420bd2324639462846fff7adfebc
:1015a200f8bd00f07afd0028f0d02046f8e7002ec2
:1015b200f1d095f93430002b1bdbdbb23446621ece
:1015c200b95c994212d1224639462846fff795fe68
:1015d200a042e5d32744341b22463946686900f00d
:1015e20080fd6b691c446c613046d9e71446002ac1
:0615f200e5d13446f0e7ec
:020000040000fa
:1015f800f0b50c4649682368a768e56887b00029f4
:101608000593a4bf23f00203059305ab02930823b7
:10161800cde900730646d2e900232046fff771ffa3
:10162800059bd90642bf00f1ff3030232b54059ba0
:101638001a0742bf00f1ff3020232b542269059b73
:101648000093013a3b46121a29183046fff7dcfe90
:101658007368db0503d563689842b8bf184607b0be
:02166800f0bdd3
:020000040000fa
:02166a00fee799
:020000040000fa
:10166c0000b585b003238df80b3000f06dfc00281d
:10167c00fbd10223009303ab01220df10b0140209f
:10168c0000f032fbc8b100f05ffc0028fbd100f089
:10169c0079fdb8b99df80c209df80d3043ea022372
:1016ac009b1013f4005f1cbf6fea83436fea9343f4
:1016bc0000ee103abaeeed0a01e09fed040a05b017
:1016cc005df804fb9fed010af9e700bf0000000084
:020000040000fa
:1016dc0037b50d46044610b9002003b030bd436841
:1016ec009b0607d5d0e905239a4219d80023c4e9f3
:1016fc000533a362d4e90f239a4206d2d21a0123ee
:10170c0000932068d31700f063fd0023c4e90f3366
:10171c00002de1d0206803b0bde8304000f046bd9c
:10172c000022c36a114698476369002bded14ff043
:04173c00ff30d2e7c1
:020000040000fa
:10174000144b01221a601a46d369002bfcd1114bad
:101750004ff480725a601a46d369002bfcd10d4bae
:10176000ff22da600c4a1a601a46d369002bfcd1ba
:10177000084b10225a831a46d369002bfcd1074b21
:10178000002283f8212083f82020024b83229a75bf
:10179000704700bf0020014116001000080800201b
:020000040000fa
:1017a0007fb5c36800911546002b18bf013a01921e
:1017b00082680446cde902230e460222694600688b
:1017c00000f05afb002808dc00f0180383f0080240
:1017d00063681343636005460fe0019a8242fad2c0
:1017e000a368e363801ae268184420642ab15a1c93
:1017f000e2632e441b7806f8013c284604b070bd15
:020000040000fa
:10180000144ad36823f4e0631b041b0c43f0bf634a
:1018100043f40033d360bff35f8f62b60e4be02218
:1018200083f81b234ff00061196083f836234ff4cf
:101830008001596083f837234ff40001596083f821
:1018400038234ff08071596083f839234ff00072cc
:0c1850005a60704700ed00e000e100e08d
:020000040000fa
:10185c000e4a38b5002313600d4a0e4c13600e4a25
:10186c000e4d13600e4a13600e4a13600e4a5362fb
:10187c0013610123936000f06ffc00f0adfcac42ef
:10188c0000d338bd54f8043b9847f8e7780800209b
:10189c00c40700206c020000c0070020700200008a
:0c18ac00b8070020bc070020c80700207f
:020000040000fa
:1018b80020212223242425252626272728282828ce
:1018c800292929292a2a2a2a2b2b2b2b2c2c2c2c68
:1018d8002c2c2c2c2d2d2d2d2d2d2d2d2e2e2e2e30
:1018e8002e2e2e2e2f2f2f2f2f2f2f2f00011702a6
:1018f8001d1813031e1b190b1408040d1f161c12a8
:0c1908001a0a070c1511090610050f0e35
:020000040000fa
:101914002de9ff41134dd1f80080af88adf80c706c
:1019240006462868029002aca8798df80e00002ab9
:1019340018bf1446d1e901571a461bb9204600f0d6
:1019440007fc0246002d02dbaa4228bf2a46cdf836
:1019540000803b4621463046fff758fd04b0bde801
:08196400f08100bfc02100006a
:020000040000fa
:10196c0070b5d0e90245a54217d10122a1f120039f
:10197c00c1f1200622fa06f602fa03f333438a4039
:10198c00db43d6431ab10b490a6832400a605a1c31
:10199c001fbf084a51680b4053604368ac6043f06a
:1019ac00010223f00103e5604260c25842f00102db
:0819bc00c25070bd08040020b8
:020000040000fa
:1019c400f0b50c4649682368a668e76887b0002923
:1019d4000593a4bf23f00203059305ab02930a23e6
:1019e400cde900630546d2e900232046fff78bfdcd
:1019f4002269059b0093013a3346121a3918284686
:101a0400fff704fd6b68db0503d563689842b8bf34
:061a1400184607b0f0bd0a
:020000040000fa
:021a1a00fee7e5
:020000040000fa
:101a1c00104b00229a61da610f4b83221a765a68b6
:101a2c0022f480225a601a46d369002bfcd161b192
:101a3c00084b032283f8202041ea4001064b5962ef
:101a4c001a46d369002bfcd17047024b042283f851
:0c1a5c002020f1e70808002000200141d4
:020000040000fa
:101a6800022a70b5044616461d461ad043689b06de
:101a780017d441b9002d08bf4ff4806505f108005f
:101a8800fff79af801466368012e43f0200363606c
:101a9800c4e9021514bfff230a2384f83430024b2b
:0c1aa800e362002070bd00bf8315000049
:020000040000fa
:101ab400e0b110b40446d9b10e4a03e034f8023b55
:101ac400936279b10139137e13f0010ffbd053688f
:101ad40003f00703012bf1d0204610f8013b936279
:101ae4000446eee701205df8044b70470020704780
:081af4000120f8e700040043a3
:020000040000fa
:101afc0010b50278202a034600f10100f9d0a2f1ba
:101b0c0009010429f5d92b2a07d02d2a11d101213d
:101b1c000133013b00200a2403e00021f8e7604375
:101b2c00801a13f8012f303a092af8d901b940422a
:061b3c0010bd0021ede7e1
:020000040000fa
:021b4200fee7bc
:020000040000fa
:101b440008b500f0edfa0d4b1b680021186800f091
:101b5400effa0b4b1b680021186800f0e9fa00f05b
:101b6400fbf8fff795f9fff7e9fdfff70afc00f032
:101b7400d9f8fff72ffbfff741fe08bddc06002074
:041b840050080020e5
:020000040000fa
:101b880010b5054c237833b9044b13b10448aff3af
:101b980000800123237010bd5408002000000000bd
:101ba8000000000008b5034b1bb103490348aff31d
:101bb800008008bd00000000580800200000000058
:020000040000fa
:101bc8000c4a036810b5546a0b4a591e121b8a4204
:101bd8000ad22bb1094b0c221a604ff0ff3010bd0e
:101be800102202600020fae7173323f00f03036086
:101bf800f8e700bfc8070020efffff7f7c08002040
:020000040000fa
:101c080070b5b9b115460ab1022801d9284670bd88
:101c18000a4b2bb108461146aff30080284670bd29
:101c28000c468e1814f8010b00f00afab442f9d1e8
:101c3800284670bd0d46284670bd00bf0000000054
:020000040000fa
:101c480038b5436813f4807f0446154610d00369fd
:101c580040699a4228bf1d462a4600f03ffa626949
:101c68005319636123695b1b23610023535538bdf6
:0a1c7800db06fcd400f026faf9e7c1
:020000040000fa
:021c8200fee77b
:020000040000fa
:101c840030b50c4a002312f8134024b902eb430385
:101c94005b78184630bd01680d78a54209bf02eb98
:101ca400430301335b78013114bfdbb201600a2bbb
:081cb400e9d9eee7642000000d
:020000040000fa
:101cbc0000090138202813d9b0f5007f05d2094b53
:101ccc0003ebd00010f8040c7047b0f5e05f06d8b9
:101cdc00044b03ebd01010f8040c103070473f206d
:081cec00704700bfb8180000aa
:020000040000fa
:101cf40010b50b4c94f8204064b20cb1002010bd18
:101d0400074ca080e360029b6361a1602261002113
:101d1400a170217084f82110fff77efe0120eee708
:041d2400080800208b
:020000040000fa
:101d28000a4b0b4a1a604ff622029a814ff440324e
:101d38005a601a46d369002bfcd1044a136843f051
:101d480002031360d369002bfcd1704700040043e1
:041d58000401104032
:020000040000fa
:101d5c000a4b4ff400421a61012283f84c2083f89d
:101d6c004d20052183f84f10222183f8361083f87b
:101d7c00d02083f8d12083f8b81070470080004140
:020000040000fa
:101d8c0008b50020fff7d8fe002207490f2000f00d
:101d9c0057f8064c002502e0257000f041f9237835
:101dac00002bfcd0f8e700bf9d2100008408002028
:020000040000fa
:101dbc0070b505462c68e30701d500200fe02046de
:101dcc00fff776ff064600f01bf92868a042f1d118
:101ddc0020f00100281a3146fff7c2fd012070bd2a
:020000040000fa
:101dec0053b94ab9002908bf00281cbf4ff0ff3176
:101dfc004ff0ff3000f0eab9adf1080c6de904cefc
:101e0c00fef7b6fbddf804e0dde9022304b0704711
:020000040000fa
:101e1c00426822f00102531a102b30b40dd9441829
:101e2c0041f0010543f00103455063608350456068
:0e1e3c0004f1080030bcfff7a9b830bc7047b5
:020000040000fa
:021e4a00fee7b1
:020000040000fa
:101e4c0030b400eb4004084b03eb84031b7a834251
:101e5c0001d030bc7047044b4400251843f82510c2
:0c1e6c0003eb85035a60f4e71406002025
:020000040000fa
:101e78002de9f0410024804617460d462646be420d
:101e880005f1080502db2046bde8f08155e902129c
:0c1e9800404600f089f901360444f0e7f0
:020000040000fa
:101ea40070b505466c68e30701d500200de02046b7
:101eb400fff702ff064600f0a7f86b68a342f1d1d2
:0c1ec40028463146fff750fd012070bd9c
:020000040000fa
:101ed0002de9f0410024804617460d462646be42b5
:101ee00005f1080502db2046bde8f08155e9021244
:0c1ef0004046fff789fe01360444f0e78d
:020000040000fa
:101efc00074a136843b10749184488428cbf4ff016
:101f0c00ff33106018467047034b1360f3e700bfb4
:0c1f1c0080080020880a002088080020af
:020000040000fa
:101f2800802910db812901dd83290cd1136807334f
:101f380023f0070303f108011160d3e90023c0e986
:0a1f480000230120704700207047bd
:020000040000fa
:021f5200fee7a8
:020000040000fa
:101f5400074b93f820305bb23bb9064b588b00f02b
:101f64003000103818bf012070470120704700bfaf
:081f74000808002000200141d3
:020000040000fa
:101f7c0090f948305a1e1343426880f8483012f0ea
:101f8c0004031bbf42f010024260c0e90f334ff054
:081f9c00ff3008bf1846704732
:020000040000fa
:101fa40008b5064b4ff400425a61054bd3f8b430e0
:101fb4001bb1034ad2f8b800984708bd0028004076
:041fc40014060020df
:020000040000fa
:101fc8000fb407b5064b04aa1b6852f8041b18681f
:101fd800019200f051f803b05df804eb04b07047cb
:041fe800500800207d
:020000040000fa
:101fec004f626a6563742054656d706572747572a6
:101ffc0065203d20256c64204320090d0a0000bf9c
:020000040000fa
:10200c00064b013053f830203ab9c100a1f1080257
:10201c001a44194443f830204a60704708040020e1
:020000040000fa
:10202c0008b5fff71dfbfdeec07a17ee901a0248bb
:0c203c00fff7c4ff08bd00bfec1f000050
:020000040000fa
:1020480010b582b08df80700012421460df1070074
:0c205800fff72cfd0028f8d002b010bdee
:020000040000fa
:1020640068076c094c836a9074a07ac00080688801
:0c20740000846c820081286e696c2900d9
:020000040000fa
:1020800013b50446019201aafef7fef8636813f047
:0c209000100f18bf4ff0ff3002b010bd61
:020000040000fa
:10209c0010b50446fff76cff28b9a368e268c4e9e1
:0820ac0005331344a36210bdcb
:020000040000fa
:1020b40010f5805f81bf034b404218604ff0ff3042
:0820c400704700bf7c080020fa
:020000040000fa
:1020cc0010b4c46a1cb123465df8044b1847006871
:0820dc005df8044bfff792bd13
:020000040000fa
:1020e40010b5431e0a44914200d110bd11f8014bb2
:0620f40003f8014ff7e7bd
:020000040000fa
:1020fa000068002808b501da002008bdfff7f9fedc
:06210a00431cfad1f8e7c6
:020000040000fa
:1021100008b500f049f8024b1860586008bd00bfd0
:042120007008002023
:020000040000fa
:10212400024b40f204521a80704700bf0040004145
:020000040000fa
:1021340000294ff480630cbf02220022fff792bcf7
:020000040000fa
:1021440002440346934200d1704703f8011bf9e7a8
:020000040000fa
:1021540003461a46013311780029fad1101a704740
:020000040000fa
:1021640008b5fff7d3ff00f03cf800f03af808bddb
:020000040000fa
:0e217400a0f14103192b98bf40f020007047e6
:020000040000fa
:0e218200a0f16103192b98bf00f05f007047b9
:020000040000fa
:0c219000014b93f8210070470808002064
:020000040000fa
:0c219c00014b01221a70704784080020db
:020000040000fa
:0821a8000048704750070020b9
:020000040000fa
:0821b0006ff00800fff77ebf8d
:020000040000fa
:0821b8004ff0ff30704700bf3b
:020000040000fa
:0721c000286e756c6c29000c
:020000040000fa
:0621c80000200021704719
:020000040000fa
:0621ce000068fff71abdd6
:020000040000fa
:0421d4000020704730
:020000040000fa
:0421d800704700bf8d
:020000040000fa
:0421dc000020704728
:020000040000fa
:0221e000fee718
:020000040000fa
:0221e200704744
:020000040000fa
:0621e400704770477047d0
:020000040000fa
:0200000400807a
:044000003912003c35
:020000040000fa
:0200000400807a
:044004008000a82a66
:020000040000fa
:0200000400807a
:04400800ffffffffb8
:00000001FF
