:020000040000fa
:10000000f0ff032059160000271e00004b1f0000c0
:10001000272200008323000081260000000000004a
:100020000000000000000000000000000f1c0000a5
:10003000c3200000000000000f1c0000cd230000c2
:100040000f1c00000f1c00000f1c00000f1c000004
:100050000f1c00000f1c00000f1c00000f1c0000f4
:100060000f1c00000f1c00000f1c00000f1c0000e4
:100070000f1c00000f1c00000f1c00000f1c0000d4
:100080000f1c00000f1c00000f1c00000f1c0000c4
:100090000f1c00000f1c00000f1c00000f1c0000b4
:1000a0000f1c00000f1c00000f1c00008523000027
:1000b0000f1c00000f1c00000f1c00000f1c000094
:1000c0000f1c00000f1c00000f1c00000f1c000084
:1000d0000f1c00000f1c00000f1c00000f1c000074
:1000e0000f1c00000f1c00000000000000000000ba
:1000f000000000000f1c00000f1c00000f1c00007f
:100100000f1c00000f1c00000f1c00000f1c000043
:100110000f1c00000f1c00000f1c00000f1c000033
:100120000f1c00000f1c00000f1c00000f1c000023
:100130000f1c00000f1c00004d0d00004d0d0000b5
:100140004d0d00004d0d00000f1c00000f1c0000a5
:100150000f1c00000f1c0000000000000000000049
:10016000000000000000000000000000000000008f
:1001700000000000000000000f1c00000f1c000029
:100180000f1c00000f1c00000f1c00000f1c0000c3
:10019000000000000f1c00000f1c00000f1c0000de
:1001a0000f1c00000f1c00000f1c00000f1c0000a3
:1001b0000f1c00000f1c00000f1c00000f1c000093
:1001c0000f1c00000f1c00000f1c00000f1c000083
:1001d0000f1c00000f1c00000f1c00000f1c000073
:1001e0000f1c00000f1c00000f1c00000f1c000063
:1001f0000f1c00000f1c00000f1c00000f1c000053
:100200000f1c000000000000000000000f1c000098
:100210000f1c00000f1c00000f1c00000f1c000032
:100220000f1c00000f1c00000f1c00000f1c000022
:100230000f1c00000f1c00000f1c00000f1c000012
:100240000f1c00000f1c00000f1c00000f1c000002
:100250000f1c00000f1c00000f1c00000f1c0000f2
:020000040000fa
:10026000f8b500bff8bc08bc9e467047711f00007f
:10027000f8b500bff8bc08bc9e4670474d1f000093
:020000040000fa
:08028000fc0200000100000077
:020000040000fa
:100288002de9f04fadb00027dff8e4a20391064650
:100298001546b8464ff0ff3903990b78002b00f04c
:1002a800f9800cabcde907890a938023cdf8248027
:1002b8000b9300240b5d0bb1252b26d134b12246bc
:1002c800304601f0ddfe039b23440393039b1a7819
:1002d800252a40f0d78003f1010bcdf80cb0039824
:1002e80003782b2b1ad025d8202b1bd0232b1dd0dd
:1002f8002a2b27d001f002fe0990039b1a78303a86
:10030800092a2ed801330393f7e70134d2e7079b74
:1003180043f00103013007930390e0e7079b43f0a4
:100328000403f7e7079b43f00803f3e7079b43f051
:100338001003efe72d2bead0302bd9d1079b43f0e0
:100348000203e7e72b681a1d1b682a600130002b9f
:100358000390099305da079a5b4282f0010207923b
:100368000993079bda0744bf23f002030793039b13
:100378001a782e2a0dd1581ccdf8208003905a786f
:100388002a2a25d1023303932b681a1d1b682a6079
:10039800089303a801f092fe039b0190187802f0dd
:1003a8002ff96928019979d032dc632800f0c680da
:1003b80019dc252800f0d080612853d025238df83a
:1003c8001030cdf80cb0cdf81c80cde90898c0e00d
:1003d80001f094fd0890039b1a78303a092ad8d87e
:1003e80001330393f7e7642858d06728e6dc2a46e8
:1003f80004a801f099ff002800f09c80039b5a1c78
:1004080003921b7804aa07a9304602f02ff938e0b6
:10041800702873d015dc6e2800f087806f28cdd146
:100428002b46002204a801f07bf8002800f0828007
:10043800039b04aa013307a93046039301f048fb44
:100448001fe075283ad0782848d07328b6d180297b
:1004580070d1039b2a6801330393131d2b60126824
:1004680000235be02a4604a801f05eff002861d063
:10047800039b5a1c03921b7804aa07a9304602f072
:10048800f5f804443c44a7426edd384b4f221a600d
:100498004ff0ff3738462db0bde8f08f2b460122cc
:1004a80004a801f03df8002844d0039b04aa0133b6
:1004b80007a93046039300f0dfffe2e72b4600224e
:1004c80004a801f02df8002834d0039b04aa0133b6
:1004d80007a93046039301f077fcd2e72b460022a8
:1004e80004a801f01df828b3039b5a1c03921b783b
:1004f80004aa07a9304600f0ddfdc2e72b4600221a
:10050800f02104a801f00cf8a0b1039b0133039378
:10051800dde90423134306d10023524607a93046d8
:1005280001f0fafbade77823e2e72b463a1904a875
:1005380001f0dff9039b01330393a3e78029f9d185
:10054800039b013303932b681a1d1b682a608df8df
:100558001030012304aae1e78029ebd1039b8df831
:10056800100001330393f4e7274695e6200f002097
:0405780086240000d5
:020000040000fa
:10057c002de9f047089e04468846002b40f0858004
:10058c008a42154648d9b2fa82f24ab1c2f1200722
:10059c0001fa02f320fa07f7954047ea0308944062
:1005ac004fea154e230cb8fbfef71ffa85fc0efb29
:1005bc00178843ea084307fb0cf1994209d9eb1859
:1005cc0007f1ff3080f0e380994240f2e080023f77
:1005dc002b445b1aa4b2b3fbfef00efb103344eabf
:1005ec00034400fb0cfca44509d92c1900f1ff3382
:1005fc0080f0cb80a44540f2c88002382c4440eafd
:10060c000740a4eb0c0400271eb1d4400023c6e91c
:10061c0000433946bde8f087002a53d0b2fa82f283
:10062c00002a40f0b680491b4fea154e1ffa85f898
:10063c000127b1fbfefc230c0efb1c1143ea01430a
:10064c0008fb0cf1994207d9eb180cf1ff3002d2e0
:10065c00994200f2ec808446591aa3b2b1fbfef029
:10066c000efb101443ea044408fb00f8a04507d91c
:10067c002c1900f1ff3302d2a04500f2dc801846a1
:10068c00a4eb080440ea0c40bee78b4208d9002ecc
:10069c0078d00027c6e9000138463946bde8f08716
:1006ac00b3fa83f77fb98b4202d3824200f2bd804a
:1006bc00841a61eb030301209846002ea9d0c6e9e9
:1006cc000048a6e7ffdec7f12005bb4022fa05fc77
:1006dc004cea030c01fa07f420fa05f821fa05f3a9
:1006ec004fea1c4e48ea0404b3fbfef9210c0efb46
:1006fc0019331ffa8cf841ea034309fb08fa9a45af
:10070c0002fa07f200fa07f10bd91ceb030309f10b
:10071c00ff3080f088809a4540f28580a9f102096b
:10072c006344a3eb0a03a4b2b3fbfef00efb10333d
:10073c0044ea034400fb08f8a04508d91ceb040468
:10074c0000f1ff336bd2a04569d90238644440ea0a
:10075c000940a4eb0804a0fb02894c45c6464b4655
:10076c0054d351d0002e69d0b1eb0e0264eb0304cc
:10077c0004fa05f522fa07f3fc401d43c6e90054c0
:10078c00002746e73746304643e7184637e7074623
:10079c001fe7c2f1200320fa03f7954001fa02f09b
:1007ac0021fa03f34fea154e3843010cb3fbfef765
:1007bc001ffa85f80efb173341ea034107fb08f3d8
:1007cc008b4204fa02f407d9691807f1ff3c28d2ce
:1007dc008b4226d9023f2944cb1a81b2b3fbfef0df
:1007ec000efb103341ea034100fb08f38b4207d99f
:1007fc00691800f1ff3c10d28b420ed90238294403
:10080c00c91a40ea074714e74145abd2b8eb020ed0
:10081c0069eb0c0201381346a4e76046f0e7184672
:10082c0095e76746d8e781467be7384645e7acf164
:10083c00020c2b4410e702382c4421e73746e8e63b
:020000040000fa
:10084c002de9f04f85b0974b1c88a4b2964b1b78c2
:10085c00002b33d0944b00221a70924b1a88934b76
:10086c001b681344b3f5a06f44d38e4d28882a8897
:10087c008f4e904fc2f5a0623946304401f062feb3
:10088c0029882a88894b1b68a3f5a063c1f5a06150
:10089c001a443944304601f055fe844b1b68814a9a
:1008ac0011880b449bb2138013889bb2b3f5a06fd5
:1008bc0004d31388a3f5a0639bb213807e4b1b88d3
:1008cc00a34288bf4ff4a0647c4a12787c49b1f8eb
:1008dc0000b07c4908787c490e78002102918a4648
:1008ec00019188468e4672494ff0010c6746cdf84f
:1008fc000ca02ce06b4b1b886c4a12686d496c4841
:10090c00184401f01ffec8e7cd5cedb2312d0cd0c0
:10091c0001339db2abb29c420dd911f805e05ffae0
:10092c008efe0135bef1310ff4d101339bb2e2469c
:10093c003e46be460be0e64609e0cd5cedb2352df9
:10094c000cbf0226002601339bb2e246be46a342f0
:10095c0080f08580042efad801a555f826f000bf4a
:10096c0015090000470900008109000097090000e3
:10097c00170a0000cd5cedb23b2d0cbf0326002600
:10098c0001339bb2e246be46e1e71d4610e001335f
:10099c009bb2e246042601970022b8460398be4655
:1009ac00d5e701339bb201351ffa85fe74450dd98d
:1009bc00abb211f805e05ffa8efebef13b0ff0d141
:1009cc000130c0b20328e2d0b846eae7e646bee7fb
:1009dc00cdf804c0be46bae7bef1000f01d03649cf
:1009ec000b80b8f1000f01d0364b1870019b0bb186
:1009fc00324b1a700023344a1370314a1380334a35
:100a0c0013702e4b93f9000049e09946cd5cedb282
:100a1c003b2d18d001339db211f8093002eb820244
:100a2c0003eb4202303ad2b2abb29c42d0d9a946c7
:100a3c0011f805e05ffa8efe0135bef13b0febd1ec
:100a4c00cdf804c0be460bf1010b1ffa8bfbbbf1ba
:100a5c00640fc1d0cdf808c0ba46002677e7bef1c6
:100a6c00000f01d014490b80b8f1000f01d01549cb
:100a7c000870019909b111490a70baf1000f01d03f
:100a8c00114a1670029a12b10d4aa2f800b0b3f5d1
:100a9c00a06f02bf084b00221a804ff0ff3005b048
:100aac00bde8f08f2a0f0020310f0020540d0020dc
:100abc0000000020d40b00202c0f00202e0f002053
:100acc00280f0020330f00202f0f0020320f0020a2
:020000040000fa
:100adc00e80e00201c000000000000002e0f00207b
:100aec0001000000000000002f0f0020010000009a
:100afc0000000000280f0020020000000000000091
:100b0c00300f00200100000000000000310f002019
:100b1c000100000000000000320f00200100000066
:100b2c0000000000540d0020040000000000000034
:100b3c000000002000050000000000002a0f00202b
:100b4c0002000000000000002c0f0020020000003a
:100b5c0000000000d40b002080000000000000000a
:100b6c00330f00200100000000000000140b0020d7
:100b7c00c000000000000000540c002080000000a9
:100b8c0000000000d40c00208000000000000000d9
:100b9c00880e00204000000000000000040f002020
:100bac000c00000000000000340f002001000000c9
:100bbc0000000000180f00200400000000000000de
:100bcc00380e00205000000000000000580d0020de
:100bdc007800000001000000680d0020600d00206e
:100bec00680d00200000000000000000250000003f
:100bfc0008050020000400000000000000000000b8
:100c0c0000000000000000000000000000000000d8
:100c1c000000000000000000692600000000000039
:100c2c00000000000000000000000000af1b0000ee
:100c3c0000000000000000000000000000000000a8
:100c4c000000000000000000000000000000000098
:100c5c00000500200804000000000000c80e002061
:100c6c002000000001000000010000000300000053
:100c7c000000000000000000000000000000000068
:100c8c0000000000100f0020100f002008000000d2
:100c9c00000000001c0f00200400000000000000f9
:100cac00200f0020040000000000000008090020b4
:100cbc000c02000000000000d00d002068000000b5
:100ccc000100000001000000030000000000000013
:100cdc000000000000000000000000000000000008
:100cec004b1b000000000000000000000000000092
:100cfc006f260000892600000000000000000000a4
:100d0c0000000000000000000000000000000000d7
:100d1c0000000000000000000000000000000000c7
:100d2c00000000000000000000000000240f002064
:100d3c0004000000000000000000000000000000a3
:020000040000fa
:100d4c004ff086439b7d002b00f0d3802de9f041c2
:100d5c004ff08642137edbb2927d12f0800f41d1b0
:100d6c004ff08642137edbb2927d12f0010f00f041
:100d7c00ae8013f0010f00f0aa804ff086455d4c59
:100d8c005d4e2b7e13f0010f00f0a180a368e2688a
:100d9c00934200f098806b6803f00703012b02f17b
:100dac00010314bfb25c36f812202169994298bf36
:100dbc000023e3606b6803f00703012b18bfd2b26a
:100dcc00aa62237d002bdcd001f0d2fb2368002b20
:100ddc00d7d0227f5ab3a2699042d2d36168032044
:100dec009847cee713f0800fbad04ff086435b8b59
:100dfc0013f00703b4d03f4ad3874ff086438022c9
:100e0c001a7607225a831b7e13f0040f06d04ff07c
:100e1c0086439a6a1a7e12f0040ffad1354b1b6a7c
:100e2c00002b9dd0334a516a0220984798e7a2695b
:100e3c009042a6d1616803209847a2e7226a002a53
:100e4c002dd0616a40469047a36a0133226b9342ce
:100e5c0028bf002323e001f039fb236a002b2fd09d
:100e6c0094f83c2032b1a26b904229d3616a0020e5
:100e7c00984725e0a26b904222d1616a00209847e6
:100e8c001ee02b7e13f0040f31d0ae6aa36a01333f
:100e9c00226b934228bf0023e26a9a42ced0e26ac8
:100eac009a42eed06a6802f00702012aa26a14bfc5
:100ebc00be5427f81260a36294f83430002bcad1c8
:100ecc004ff00108dde74ff0864301221a754ff011
:100edc008642137edbb2927d12f0040f07d013f022
:100eec00040f04d0034c054f4ff08645e8e7bde8ee
:100efc00f0817047880e0020d40c0020540c002088
:020000040000fa
:100f0c002de9f04f87b0039003a801f059f80028a1
:100f1c0003da002007b0bde8f08f039b1b095d1eb0
:100f2c00202d0fd9023b5e4ab3f5007f35bf02eb93
:100f3c00d30302ebd31313f8045c13f8045c34bf33
:100f4c00013511350123a5f12001c5f1200203fa69
:100f5c0001f923fa02f203fa05f8d8f1000849ea7c
:100f6c00020969eb4909cde90089dff84081dff816
:100f7c0030914746d8e90023009902ea010a019909
:100f8c0003ea010b5aea0b0342d1039b05a8103369
:100f9c00059301f0e2fa18b9424b0c221a60b9e73a
:100fac00d8f80852a84206d0059b103b05930123a4
:100fbc0000f110058360059bea18012143f0010341
:100fcc00b5f1080442f8083c42f8041cc7f80822a2
:100fdc0045f8043c9dd0204601f0d8f888b155f86e
:100fec00083c55f8041c23f00103e31a5a6822f05c
:100ffc0001020a445a6055f8041c21f001016250a8
:10100c001c462046039901f0f1f804f1080081e731
:10101c005446254bbaf1000f34d1cbf1000000ea55
:10102c000b00434309ebd36393f83c602036304606
:10103c0001f0faf9731c57f8334007ebc303083b74
:10104c009c4297d0272e26dd0235ae4201dc3f2e86
:10105c0021d16268039922f00102551a284601f049
:10106c0047f8864217d1e068a6686318d8609e607e
:10107c0083609868c36041f0010060505d60a550ca
:10108c006060bee7caf100002040434309ebd36324
:10109c0093f83c60cbe73146204600f067feb0e7a2
:1010ac006c1c0000200f002029e66b0708090020ab
:020000040000fa
:1010bc002de9f04f89461946d9e90153d9f800803a
:1010cc00d9f80ca0002d8bb0a8bf28f002088346dd
:1010dc00b8bf012518f010009646d2e900670290bf
:1010ec0051d056ea07024ed0981e18f0080403940b
:1010fc00d9f8104018bf00f1ff30401b013c4ff0f5
:10110c00000c049008f0020005900af804c0a1f14c
:10111c0041000690012c0add56ea070235d1002d5c
:10112c0033dc049a5019002801dd059a6abb029a37
:10113c0062b1dee9006756ea070207d00aeb040247
:10114c00023c02f8011c30220af80420039a1ab15e
:10115c00013c20220af80420d9f81020cdf8008098
:10116c00013a121b0aeb0401584600f081fbdbf834
:10117c000430db0504d5d9f804309842b8bf1846c2
:10118c000bb0bde8f08f1846afe706f00f00069adb
:10119c000928d4bf30305730192a04f1ff340ed847
:1011ac0040f0200cacf1610cbcf1190f07d8cde963
:1011bc0008e1079301f029fadde908e1079b0af839
:1011cc000400300940ea07704fea171c013d06463f
:0411dc0067469fe7dc
:020000040000fa
:1011e000374b00221a7403f50063364a9a621a4696
:1011f000536813f0100ffbd1334b4222c3f8842005
:101200001a46d2f8843013f0400ffad02f4b002248
:101210009a6377225a631a46d36b13f0040ffbd1fb
:101220002a4b022283f830201a46d36b13f0020fa8
:10123000fbd1264a136c03f00303032bfad1244b92
:1012400001225a711a46d37813f0010ffbd01e4bbe
:10125000204a1a621a46536813f0040ffbd11a4b46
:101260001d4a5a621a46536813f0080ffbd1164bf9
:101270004122c3f890201a46d2f8903013f0400f64
:10128000fad0114b4122c3f808211a46d2f808318e
:1012900013f0400ffad00c4b4122c3f80c211a4630
:1012a000d2f80c3113f0400ffad0094b6ff07f42a7
:1012b0001a6140f2ff725a6103221a62704700bf3e
:1012c0000014004006013000001c004000100040e7
:0c12d000000800400701010007010200b7
:020000040000fa
:1012dc002de9f84300286ad050f8043ca0f108042a
:1012ec0023f00106a719a259934200d0ffde7a68b9
:1012fc0023681340da070fd4204600f047ff00287c
:10130c0057d1384600f0ccff0028f0d07b6823f092
:10131c0001031e441f44eae746f0010363603046b4
:10132c003b6000f0e5fe054601f07ef823687a6824
:10133c001340db07e0d5dff88ce0dee90089c5f16e
:10134c00200ca5f1200228fa05f009fa0cfc29fa68
:10135c0002f240ea0c001043012100ea01020023d2
:10136c001343c5f120007346a5f1200212d121fad6
:10137c0000f001fa02f2a94042ea00021ebfdef8b8
:10138c0000000143cef8001022b1def804100a432d
:10139c00cef80420681c03ebc003a3f108026660be
:1013ac003e60a2605a68e2605c60e3689c60bde8e5
:1013bc00f883236823f00103e41a636823f0010324
:0813cc001e449ee70809002001
:020000040000fa
:1013d40038b5224b1b787bb1214b1b784bb3214b87
:1013e4001988214a214813889bb28b4202d1037881
:1013f400002bf8d0012038bd00211d4801f016f95a
:101404004ff4a0611b4800f02bfb0a2001f008f9ff
:101414000021012001f06af801f0b8f8164c80258b
:101424006561012000f0b0fda5610c4b01221a702a
:10143400d2e741f2883000f0a7fd4ff4a06200210a
:101444000c4801f0c7f8064b01221a700023064a23
:101454001380044a1380054a1370c0e7300f00203c
:10146400320f00202c0f00202a0f0020310f002003
:0c14740029220000000000200080004140
:020000040000fa
:101480002de9f041d2e900230c4686b007465fea19
:10149000d37820684968a5680590e66841d0524233
:1014a00063eb4303002908db20f002000590b8f14c
:1014b000000f02d1059948072ad5691e05a8029098
:1014c0000a20cde90010204600f055fab8f1000fcf
:1014d00002d1059b59071fd5b8f1000f00f1ff306d
:1014e00014bf2d232b2333542269059b0093013a0b
:1014f0002b46121a3118384600f0c0f97b68db051c
:1015000003d563689842b8bf184606b0bde8f081bd
:101510000807d2d42946d1e71a07e5d50138202398
:08152000e1e70029c0dac5e78c
:020000040000fa
:10152800882930b534d012dc81293fd003dc8029ea
:101538003cd0002030bd82290ed08429f9d11c6806
:1015480054f8041b1c60f2b10ab2d3171de0a0299d
:1015580027d00cdc9029ecd11968073121f007015c
:10156800f1e802451960c0e900450120e2e7c02919
:1015780001d0f029ddd11a68111d196013680360c4
:1015880000234360f1e78ab20023c0e90023ece7b7
:101598001c6854f8041b1c600ab14ab2d5e7cab2e9
:1015a800f2e71a68111d19601268cee719680c1d58
:1015b8001c600ab10a68c8e70b68c0e90032d4e7c2
:020000040000fa
:1015c800214a137843f001031370536813f0010f95
:1015d800fbd11d490b7843f010030b700022ca6140
:1015e8004ff010430b624ff400430b634a630b61e7
:1015f800164b10221a721a7583f8202083f82c20b3
:1016080083f8382083f8442083f8502083f85c203e
:1016180083f8682083f8742083f8802083f88c206e
:1016280083f8982083f8a42083f8b0200f2283f849
:10163800bc200b7843f002030b700a46536813f082
:10164800020ffbd1704700bf00280040140b002098
:020000040000fa
:1016580008b51b4b98471b4b9847eff3108172b6a0
:10166800194ad2f8883043f47003c2f88830bff3bf
:101678004f8fbff36f8f01b962b6144c202363609c
:1016880000f074f8124b23f07f030f4a9360114b5c
:101698009847a36823f00103a3602346da6812f091
:1016a800010ffbd1094b5a6842f004025a6001222b
:1016b8009a60094b9847094b984700f051fdfee79f
:1016c800832600008326000000ed00e00060004152
:1016d80000000000111c0000832600008326000083
:020000040000fa
:1016e8002de9ff41836946690093f61acde9016146
:1016f80004461746039216444ff002086d464246c8
:101708002946206800f0e4fdb04209d1d4e902324c
:10171800c4e905331a44a262384604b0bde8f08132
:1017280000280dda6268002342f01002b8f1020fb7
:10173800a362c4e90533626015d06b68ff1aebe752
:101748006b68984288bf0835a6eb000688bfc01aa8
:101758002b6803442b606b68a3eb000088bf08f17b
:0a176800ff386860cbe71f46d6e7a4
:020000040000fa
:021772007047be
:020000040000fa
:101774001e4b1f4a9342f0b438bf002103d203f832
:10178400011b9342fbd11b4ad2e9000150ea010339
:101794004ff0000610d09468034602f10c076cb9b0
:1017a40021b1014403f8016b9942fbd13a46d2e9d5
:1017b400000150ea0103eed1f0bc704759b101f1c8
:1017c4000c030c38801a1a443b461c1813f8015bae
:1017d40025709342f9d111f0030318bf012303ebe1
:1017e400910107eb81073a46e1e700bf00000020c2
:0817f40000000020dc0a0000e7
:020000040000fa
:1017fc004ff086431c4a1a604ff622029a814ff42e
:10180c0040325a601a46d369002bfcd14ff0864205
:10181c00136843f002031360d369002bfcd1134b04
:10182c0000221a629a62da6283f8342083f83c2030
:10183c009a63da871a609a60da601a751a779a6175
:10184c004ff086435b6803f00703012b074b14bf73
:10185c00802240221a631a614ff0864380229a75c7
:10186c0004229a75704700bf04011040880e0020b6
:020000040000fa
:10187c002de9ff471d460c9b13f0010807468946ce
:10188c00144624d1aa4222da2e1b102e32464ff0d7
:10189c00200128bf10226846b24600f097fe0f2e9a
:1018ac001edc4fea1a136ff00f0202fb03a269460b
:1018bc00384600f0e3fbb8f1000f04d1224649464c
:1018cc00384600f0dbfb284604b0bde8f087224622
:1018dc004946384600f0d2fbac42d5db2546f2e750
:0e18ec0010226946384600f0c9fb103ed7e7cf
:020000040000fa
:1018fa00842910b523d00cdc812903d0822913d086
:10190a0080290bd119680c1d1c600b6803601a60d2
:10191a0013e0902921d003dc882917d0002010bdbc
:10192a00a029efd0c029ece719680c1d1c600b68d0
:10193a000360d1171046c3e900010120efe71968d7
:10194a000c1d1c600b6803601a80f6e719680c1df1
:10195a001c600b6803601a70efe719680c1d1c60a5
:0c196a0009680160d317c1e90023e6e71b
:020000040000fa
:101976002de9f84f04460c9f6668d4f80cb024692c
:1019860010463a68013c002502f0020a0b9a0bf851
:101996000450002e1946b8bf0126012390464fea8f
:1019a600e279002c03dcd3b12046bde8f88f50ea7b
:1019b600010209d1721b002a06dc0a9a521b002a70
:1019c600f1ddbaf1000feed042464b4600f0f9fbce
:1019d600013c134630320bf804200135e1e73b6841
:0819e60023f010033b60dfe772
:020000040000fa
:1019ee00f8b5846a05460f46164654b1ab6a6a6965
:1019fe009b1ab3420bd2324639462846fff76dfe8c
:101a0e00f8bd00f07afd0028f0d02046f8e7002e51
:101a1e00f1d095f93430002b1bdbdbb23446621e5d
:101a2e00b95c994212d1224639462846fff755fe37
:101a3e00a042e5d32744341b22463946686900f09c
:101a4e0080fd6b691c446c613046d9e71446002a50
:061a5e00e5d13446f0e77b
:020000040000fa
:101a64002de9f041194ce36aa46a51b30d46a3422f
:101a74002ad0164a176b02464ff08646c0f1010e73
:101a8400dff84cc0c0f10008716801f007010129ba
:101a94000eeb020019bf1cf8031011703cf8131070
:101aa40028f8121001339f4298bf0023a84203d2a2
:101ab4000132a342e8d100e01c46044bdc62bde8dd
:101ac400f0811c460846f8e70020f6e7880e00205f
:041ad400540c00208e
:020000040000fa
:101ad800f0b50c4649682368a768e56887b000290f
:101ae8000593a4bf23f00203059305ab02930823d3
:101af800cde900730646d2e900232046fff737fff9
:101b0800059bd90642bf00f1ff3030232b54059bbb
:101b18001a0742bf00f1ff3020232b542269059b8e
:101b28000093013a3b46121a29183046fff7a2fee5
:101b38007368db0503d563689842b8bf184607b0d9
:021b4800f0bdee
:020000040000fa
:101b4a0037b50d46044610b9002003b030bd4368ce
:101b5a009b0607d5d0e905239a4219d80023c4e980
:101b6a000533a362d4e90f239a4206d2d21a01237b
:101b7a0000932068d31700f07cfd0023c4e90f33db
:101b8a00002de1d0206803b0bde8304000f05fbd11
:101b9a000022c36a114698476369002bded14ff0d1
:041baa00ff30d2e74f
:020000040000fa
:101bae007fb5c36800911546002b18bf013a01920c
:101bbe0082680446cde902230e4602226946006879
:101bce0000f057fb002808dc00f0180383f0080231
:101bde0063681343636005460fe0019a8242fad2ae
:101bee00a368e363801ae268184420642ab15a1c81
:101bfe00e2632e441b7806f8013c284604b070bd03
:020000040000fa
:021c0e00fee7ef
:020000040000fa
:101c10000e4a38b5002313600d4a0e4c13600e4a6d
:101c20000e4d13600e4a13600e4a13600e4a536243
:101c300013610123936000f0dffc00f023fdac4250
:101c400000d338bd54f8043b9847f8e71c0f002038
:101c5000440e00206c020000400e002070020000c4
:0c1c6000380e00203c0e0020480e002032
:020000040000fa
:101c6c002021222324242525262627272828282816
:101c7c00292929292a2a2a2a2b2b2b2b2c2c2c2cb0
:101c8c002c2c2c2c2d2d2d2d2d2d2d2d2e2e2e2e78
:101c9c002e2e2e2e2f2f2f2f2f2f2f2f00011702ee
:101cac001d1813031e1b190b1408040d1f161c12f0
:0c1cbc001a0a070c1511090610050f0e7e
:020000040000fa
:101cc800134ad36823f4e0631b041b0c43f0bf637f
:101cd80043f40033d360bff35f8f62b60d4be0224d
:101ce80083f81b234ff00061196083f83e234ff0ff
:101cf8008041596083f83f234ff00041596083f8d1
:101d080040230121996083f8412302229a60704799
:081d180000ed00e000e100e035
:020000040000fa
:101d20002de9ff41134dd1f80080af88adf80c705c
:101d300006462868029002aca8798df80e00002aa9
:101d400018bf1446d1e901571a461bb9204600f0c6
:101d50004bfc0246002d02dbaa4228bf2a46cdf8e2
:101d600000803b4621463046fff788fd04b0bde8c1
:081d7000f08100bf60260000b5
:020000040000fa
:101d780070b5d0e90245a54217d10122a1f120038f
:101d8800c1f1200622fa06f602fa03f333438a4029
:101d9800db43d6431ab10b490a6832400a605a1c21
:101da8001fbf084a51680b4053604368ac6043f05a
:101db800010223f00103e5604260c25842f00102cb
:081dc800c25070bd08090020a3
:020000040000fa
:101dd000f0b50c4649682368a668e76887b0002913
:101de0000593a4bf23f00203059305ab02930a23d6
:101df000cde900630546d2e900232046fff7bbfd8d
:101e00002269059b0093013a3346121a3918284675
:101e1000fff734fd6b68db0503d563689842b8bff4
:061e2000184607b0f0bdfa
:020000040000fa
:021e2600fee7d5
:020000040000fa
:101e2800022a70b5044616461d461ad043689b061a
:101e380017d441b9002d08bf4ff4806505f108009b
:101e4800fff760f801466368012e43f020036360e2
:101e5800c4e9021514bfff230a2384f83430024b67
:0c1e6800e362002070bd00bfef19000015
:020000040000fa
:101e7400e0b110b40446d9b10e4a03e034f8023b91
:101e8400936279b10139137e13f0010ffbd05368cb
:101e940003f00703012bf1d0204610f8013b9362b5
:101ea4000446eee701205df8044b704700207047bc
:081eb4000120f8e700040043df
:020000040000fa
:101ebc0008b500f07bfb0e4b1b680021186800f086
:101ecc007dfb0c4b1b680021186800f077fb00f0c1
:101edc00b7f8fff77ff9fff746fc00f05ffa00f068
:101eec0023f9fff785fcfff769fbfff7e7fe08bd59
:081efc005c0d0020e40e002043
:020000040000fa
:101f040010b50278202a034600f10100f9d0a2f1ad
:101f140009010429f5d92b2a07d02d2a11d1012131
:101f24000133013b00200a2403e00021f8e7604369
:101f3400801a13f8012f303a092af8d901b940421e
:061f440010bd0021ede7d5
:020000040000fa
:021f4a00fee7b0
:020000040000fa
:101f4c0010b5054c237833b9044b13b10448aff3e7
:101f5c0000800123237010bde80e0020000000005b
:101f6c000000000008b5034b1bb103490348aff355
:101f7c00008008bd00000000ec0e002000000000f6
:020000040000fa
:101f8c0070b40d4b5e681b6813f0010f12d00b4b35
:101f9c0003fb00f0084b9b6860b10021064c013636
:101fac00a2689a4292bf9b1ab51a5b191944134640
:101fbc008842f5d870bc704710e000e0c0d4010036
:020000040000fa
:101fcc000c4a036810b5546a0b4a591e121b8a42fc
:101fdc000ad22bb1094b0c221a604ff0ff3010bd06
:101fec00102202600020fae7173323f00f0303607e
:101ffc00f8e700bf480e0020efffff7f200f002006
:020000040000fa
:10200c0070b5b9b115460ab1022801d9284670bd80
:10201c000a4b2bb108461146aff30080284670bd21
:10202c000c468e1814f8010b00f00efab442f9d1dc
:10203c00284670bd0d46284670bd00bf000000004c
:020000040000fa
:10204c000d4b80221a6048f280021a61002283f83c
:10205c004720052283f84f20012283f8cc2083f8f7
:10206c00cd2083f8d02083f8d120222283f8b6200b
:0c207c0083f8b820704700bf00800041ce
:020000040000fa
:1020880038b5436813f4807f0446154610d00369b9
:1020980040699a4228bf1d462a4600f055fa6269ef
:1020a8005319636123695b1b23610023535538bdb2
:0a20b800db06fcd400f03cfaf9e767
:020000040000fa
:0220c200fee737
:020000040000fa
:1020c40030b50c4a002312f8134024b902eb430341
:1020d4005b78184630bd01680d78a54209bf02eb54
:1020e400430301335b78013114bfdbb201600a2b77
:0820f400e9d9eee770240000b9
:020000040000fa
:1020fc0000090138202813d9b0f5007f05d2094b0f
:10210c0003ebd00010f8040c7047b0f5e05f06d874
:10211c00044b03ebd01010f8040c103070473f2028
:08212c00704700bf6c1c0000ad
:020000040000fa
:102134000a4b0b4a1a604ff622029a814ff440323e
:102144005a601a46d369002bfcd1044a136843f041
:1021540002031360d369002bfcd1704700040043d1
:042164000401104022
:020000040000fa
:1021680008b50020fff7a6fe002207490f2000f05f
:102178006df8064c002502e0257000f047f9237839
:10218800002bfcd0f8e700bf3d260000340f0020ec
:020000040000fa
:1021980070b505462c68e30701d500200fe02046fe
:1021a800fff7a8ff064600f041f92868a042f1d1e0
:1021b80020f00100281a3146fff7dafd012070bd32
:020000040000fa
:1021c80053b94ab9002908bf00281cbf4ff0ff3196
:1021d8004ff0ff3000f04cbaadf1080c6de904ceb9
:1021e800fef7c8f9ddf804e0dde9022304b0704722
:020000040000fa
:1021f800426822f00102531a102b30b40dd944184a
:1022080041f0010543f00103455063608350456088
:0e22180004f1080030bcfff75db830bc704721
:020000040000fa
:02222600fee7d1
:020000040000fa
:1022280000b1704708b500f053f901460448fff7bc
:1022380015fc044b1860044b01221a7008bd00bf3e
:0c224800d40b0020540d0020310f0020aa
:020000040000fa
:1022540030b400eb4004084b03eb84031b7a834245
:1022640001d030bc7047044b4400251843f82510b6
:0c22740003eb85035a60f4e7140b002014
:020000040000fa
:102280002de9f0410024804617460d462646be4201
:1022900005f1080502db2046bde8f08155e9021290
:0c22a000404600f0d5f901360444f0e798
:020000040000fa
:1022ac0070b505466c68e30701d500200de02046ab
:1022bc00fff71eff064600f0b7f86b68a342f1d19a
:0c22cc0028463146fff752fd012070bd8e
:020000040000fa
:1022d8002de9f0410024804617460d462646be42a9
:1022e80005f1080502db2046bde8f08155e9021238
:0c22f8004046fff787fe01360444f0e783
:020000040000fa
:10230400074a136843b10749184488428cbf4ff009
:10231400ff33106018467047034b1360f3e700bfa8
:0c232400240f002038110020380f00208a
:020000040000fa
:10233000802910db812901dd83290cd11368073343
:1023400023f0070303f108011160d3e90023c0e97a
:0a23500000230120704700207047b1
:020000040000fa
:10235a0090f948305a1e1343426880f8483012f008
:10236a0004031bbf42f010024260c0e90f334ff072
:08237a00ff3008bf1846704750
:020000040000fa
:02238200fee774
:020000040000fa
:1023840008b5064b4ff400425a61054bd3f8b430fc
:102394001bb1034ad2f8b800984708bd0028004092
:0423a400140b0020f6
:020000040000fa
:1023a800054a0023136093600449516006211160b7
:1023b800034a93601360704710e000e0bfd4010047
:0423c800040f0020de
:020000040000fa
:1023cc0008b5064b1b68064b9a6801329a601b686d
:1023dc0013b1034a5068984708bd00bf10e000e0f5
:0423ec00040f0020ba
:020000040000fa
:1023f0000fb407b5064b04aa1b6852f8041b1868f3
:10240000019200f043f803b05df804eb04b07047ac
:04241000e40e0020b6
:020000040000fa
:1024140008b5fef7ddff40b1fef716fab0f1ff3f55
:10242400fad0c1b20148fff7e1ff08bda8240000bb
:020000040000fa
:10243400064b013053f830203ab9c100a1f108022b
:102444001a44194443f830204a60704708090020b0
:020000040000fa
:1024540010b582b08df80700012421460df1070064
:0c246400fff706fd0028f8d002b010bd04
:020000040000fa
:1024700068076c094c836a9074a07ac000806888f1
:0c24800000846c820081286e696c2900c9
:020000040000fa
:10248c0013b50446019201aafdf7f8fe636813f038
:0c249c00100f18bf4ff0ff3002b010bd51
:020000040000fa
:1024a800486561727472617465203d2025642062fc
:0824b800706d20090d0a0000ff
:020000040000fa
:1024c000044a9368d06883423ebf024a12699b184f
:0824d000181a7047880e002065
:020000040000fa
:1024d800044bd86a9b6a984282bf024a126b9b18c7
:0824e800181a7047880e00204d
:020000040000fa
:1024f000044b93f8342083f8340083f83c101046e2
:08250000704700bf880e0020a7
:020000040000fa
:1025080010b50446fff725ff28b9a368e268c4e9b7
:0825180005331344a36210bd5a
:020000040000fa
:1025200010f5805f81bf034b404218604ff0ff30d1
:08253000704700bf200f0020de
:020000040000fa
:1025380010b4c46a1cb123465df8044b1847006800
:082548005df8044bfff75ebdd6
:020000040000fa
:1025500010b5431e0a44914200d110bd11f8014b41
:0625600003f8014ff7e74c
:020000040000fa
:102566000068002808b501da002008bdfff7c7fe9d
:06257600431cfad1f8e756
:020000040000fa
:10257c0010b5034b1c69fff79dff013c201a10bde1
:04258c00880e002095
:020000040000fa
:10259000034b00229a601a6842f001021a607047e9
:0425a00010e000e067
:020000040000fa
:1025a40008b500f04ff8024b1860586008bd00bf32
:0425b400100f0020e4
:020000040000fa
:1025b800024b40f204521a80704700bf00400041ad
:020000040000fa
:1025c80000294ff480630cbf02220022fff728bcc9
:020000040000fa
:1025d80002440346934200d1704703f8011bf9e710
:020000040000fa
:1025e80003461a46013311780029fad1101a7047a8
:020000040000fa
:1025f80008b5fff7d3ff00f042f800f040f808bd37
:020000040000fa
:0e260800a0f14103192b98bf40f0200070474d
:020000040000fa
:0e261600a0f16103192b98bf00f05f00704720
:020000040000fa
:0c26240008b1014a90637047880e002046
:020000040000fa
:0c263000014b186259627047880e0020b0
:020000040000fa
:0c263c00014b01221a707047340f00207f
:020000040000fa
:0826480000487047d00d00208e
:020000040000fa
:082650006ff00800fff764bf02
:020000040000fa
:082658004ff0ff30704700bf96
:020000040000fa
:07266000286e756c6c290067
:020000040000fa
:0626680000200021704774
:020000040000fa
:06266e000068fff7ccbc80
:020000040000fa
:04267400002070478b
:020000040000fa
:04267800704700bfe8
:020000040000fa
:04267c000020704783
:020000040000fa
:02268000fee773
:020000040000fa
:0226820070479f
:020000040000fa
:062684007047704770472b
:020000040000fa
:0200000400807a
:044000003912003c35
:020000040000fa
:0200000400807a
:044004008000a82a66
:020000040000fa
:0200000400807a
:04400800ffffffffb8
:00000001FF
