:020000040000fa
:10000000f07f002025cd0000039d0000dba500004f
:1000100000000000000000000000000000000000e0
:100020000000000000000000000000003785000014
:100030000000000000000000378500003785000048
:1000400037850000378500003785000037850000c0
:10005000378500003785000011b900001de700005a
:1000600037850000497300003785000037850000a0
:100070003785000037850000378500003785000090
:10008000378500003785000045db0000378500001c
:100090003785000037850000378500003785000070
:1000a0003785000037850000378500003785000060
:020000040000fa
:1000b000f8b5c046f8bc08bc9e4670472dcc000081
:1000c000f8b5c046f8bc08bc9e46704705cc000099
:020000040000fa
:0800d000109300000100000084
:020000040000fa
:1000d800f0b5d6464f464646c0b582b00400a426c1
:1000e8004643db4d75192b0074331b78012b0ed05a
:1000f800a4226243d64b9b185e6d65331a78192a81
:1001080001d901f0f4f99300d249cb589f462b004e
:100118002a0074320021117063331a78042a00d936
:1001280046e19300cc4ad3589f46a4234343c84e84
:10013800f618b36d98b2032108f08cfbf065431ce8
:1001480000d135e12a00c5490df0a6f9a422624381
:10015800bf4b9b18633301221a7029e1a422424342
:10016800bb4b9b18d96b28000df098fc002800d1d8
:100178001ee1a4226243b64b9b18633302221a7015
:1001880016e1a4224243b24b9b1822331b78002b62
:1001980000d10de1a4224243ad4b9b181a00223234
:1001a80000211170633303221a7001e1a422424333
:1001b800a74b9b1866331a78072a00d9b3e1930036
:1001c800a74ad3589f46a4224243a14b9b181a0022
:1001d800693201211170603300229a56a149280022
:1001e8000df076fe002807d0a4226243984b9b1896
:1001f800663301221a700de0a4226243944b9b18c7
:10020800693300221a7005e0012128000ef056fb20
:1002180000282bd1a42262438d4b9b181a0044322c
:100228000021117045331b78002b00d1afe1a422c7
:100238006243874b9b18453300221a70a4226243fd
:10024800834b9b181a006332012111704633002238
:100258001a706e6d002e00d191e1ff2399465b3b29
:1002680063437b4a90469844002775e1a422624381
:10027800774b9b181a00693201211170d96a0a223a
:1002880028000cf08dfb0028c4d0a4226243704bd8
:100298009b18663303221a70bce7a42242436c4bb6
:1002a8009b1862331b78012b19d0a4224243684b58
:1002b8009b1862331b78022bacd1654eb6183300fd
:1002c800603300229a56674928000df001fe33007a
:1002d800663301221a706936002333709ae75c4e40
:1002e800b6183300603300229a565e4928000df094
:1002f800effd6636022333708ce70022002102f0fe
:100308003bf8a4226243524b9b1867331b780c2b93
:100318000ed00b2b00d07de7a42262434c4b9b18d8
:100328001a00693200211170663301221a7071e7d0
:10033800a4226243464b9b181a00693200211170af
:100348006c331b78012b07d0a4226243404b9b18c7
:10035800663301221a705de7a42262433c4b9b1866
:10036800663308221a7007e0a4224243384b9b18d0
:1003780069331b78022b23d1a4226243344b9b1888
:100388001a0044320121117045331b78012b00d12a
:10039800fde0a42262432e4b9b181a00453201212e
:1003a8001170633304221a70002128000ef086fab7
:1003b800a4226243264b9b18743300221a7097e6d6
:1003c800012128000ef07afa0028d5d0a422624331
:1003d8001f4b9b181a0069320121117066330522e0
:1003e8001a70c9e70022042101f0c6ffa422624363
:1003f800174b9b1867331b780c2b0dd00b2bbbd1dd
:10040800a4226243124b9b181a0069320021117012
:10041800663301221a70fde6a42262430c4b9b1836
:100428006c331b78002b07d1a4226243084b9b181e
:10043800663306221a709fe7a4226243044b9b1876
:100448001a00693200211170663301221a70e1e640
:10045800d41e0020608b0000c88b000055d300001c
:10046800dc8b0000801a0600810009188900c74b40
:100478005918142228000df0a8fa002807d0a42241
:100488006243c34b9b18663307221a7074e7a42291
:100498006243bf4b9b181a00693200211170663302
:1004a80001221a70b6e6a4224243b94b9b18623364
:1004b8001b78012b14d0a4224243b54b9b186233fe
:1004c8001b78022b00d057e7a4224243b04b9b185d
:1004d8001a00693200211170663301221a7099e6f8
:1004e800a4224243aa4b9b181a00693200211170ba
:1004f800810009188900a54a5118586b13220df07c
:10050800d7fe002807d1a4226243a14b9b1866336b
:1005180004221a7030e7a42262439d4b9b1866336d
:1005280001221a7076e6a4224243994b9b181a00be
:1005380044320021117045331b78002b27d0a422a8
:100548004243934b9b18453300221a7076e6376274
:1005580037706e6d002e12d0336a6b6573684a4629
:1005680013401b0142465268944663445a689246b7
:10057800002aecd09a68f1680120d047e7e7a42266
:100588006243834b9b18663300221a700ce7a4223f
:1005980062437f4b9b1869331b78002b00d007e719
:1005a800002128000ef08af9a4226243784b9b1898
:1005b800633301221a70fbe6a4224243744b9b1852
:1005c80068331a78172a00d9f6e09300714ad3588d
:1005d8009f46a42242436e4b9b1800221a641900be
:1005e80048310a70683301321a70e1e6a4224243a6
:1005f800674b9b18d96a0a2228000cf0d1f9002809
:1006080007d0a4226243624b9b18683303221a70f6
:10061800cee6a42262435e4b9b18683317221a70f9
:1006280059e3a42242435a4b9b1862331b78012b8f
:1006380016d0a4224243564b9b1862331b78022bd8
:1006480000d0b5e6524eb6183300603300229a56f1
:10065800514928000df03cfc6836172333703ae303
:100668004b4eb6183300603300229a564a49280088
:100678000df02efc68360423337099e60022002121
:1006880001f07afea4226243414b9b1867331b7822
:100698000c2b0ad00b2b00d08ee0a42262433c4bdb
:1006a8009b18683317221a7015e3a4226243384b4b
:1006b8009b186c331b78012b07d0a4226243344b60
:1006c8009b18683301221a7072e6a4226243304be9
:1006d8009b18683305221a706ae6d5225200022157
:1006e80001f04afea4226243294b9b1867331b780a
:1006f8000c2b09d00b2b5fd1a4226243244b9b18ef
:10070800683317221a70e6e2a4226243204b9b1832
:100718001b6f1b051b0dd521490000228b420ad0f7
:10072800a42161431a4b5b18190023310a706833fe
:1007380006221a703ce6a4326243154b9b186833b4
:100748001b799b0801229a43eae70022102101f055
:1007580013fea42262430e4b9b1867331b780c2ba5
:1007680009d00b2b28d1a4226243094b9b1868336c
:1007780017221a70afe2a4226243054b9b181a0095
:100788006832072111700022da7411e698250020da
:10079800d41e0020fc8b0000801a060000220f21c6
:1007a80001f0eafda4226243d44b9b1867331b78ff
:1007b8000c2b3ad00b2b40d0a4226243cf4b9b1872
:1007c80068331b78162b00d081e2cc48a4236343fe
:1007d800c3181a004732002111701a6c1f008c3799
:1007e80080218900396004373a600437396004375a
:1007f8003a60043739601900a0310a601a0078326b
:10080800182111700122da67190080310a60043159
:100818000a6004318c3636180e6042390a7020316d
:100828000420087063331a70c2e5a4226243b34bf4
:100838009b18683308221a70bae599336343af4f9f
:10084800ff183b00683317221a7028000df025fea8
:100858000023fb74b0e7a4234343a84fff183b00d1
:1008680023331a789207122101f086fd67373b7807
:100878000c2b0ed00b2b9fd128000df00efea422be
:1008880062439e4b9b180022da74683317321a7041
:1008980021e2a4226243994b9b186c331b78002bee
:1008a80019d0a4226243954b9b18db7c002b1ed0e9
:1008b800a4226243914b9b1821331b78002b2cd028
:1008c800a42262438d4b9b181a00683217211170bd
:1008d8000022da74ffe1894fbf183b006833092210
:1008e8001a7028000df0d9fd0023fb7464e7fa2183
:1008f800890028000df0faf8002807d1a4226243e5
:100908007e4b9b18683317221a70e4e1a4226243d5
:100918007a4b9b180122da74cae7a4226243774b08
:100928009b18683307221a7042e50022102101f053
:1009380023fda4226243714b9b1867331b780c2b51
:100948000ad00b2b00d037e7a42262436b4b9b18cd
:10095800683317221a70bee1a4226243674b9b18c2
:10096800190048311a6f5200d20f0a7068330a22f0
:100978001a701de5a4234343604ef6183300603314
:1009880000229a56b16b28000df0a2fa0a22b16a29
:1009980028000df01af868360b23337008e5a422f6
:1009a8004243564b9b1862331b78012b10d0a4226c
:1009b8004243524b9b1862331b78022b00d0f7e45a
:1009c800a42242434d4b9b18683317221a7082e1c8
:1009d800012128000df072ff002800d1ece6a422c6
:1009e8006243464b9b1868330c221a70e0e40022dd
:1009f800032101f0c1fca4226243404b9b186733da
:100a08001b780c2b0ad00b2b00d0d5e6a42262430e
:100a18003a4b9b18683317221a705ce1a422624390
:100a2800364b9b186c331b78002b07d1a4226243ea
:100a3800324b9b1868330d221a70b9e4a422624322
:100a48002e4b9b18683317221a7044e1a4224243a4
:100a58002a4b9b18196b142228000cf0b6ff0028ab
:100a680007d0a4226243254b9b18683310221a70c2
:100a78009ee4a4226243214b9b18683317221a7004
:100a880029e1a42242431d4b9b1862331b78012b9a
:100a980010d0a4224243194b9b1862331b78022bb7
:100aa80000d085e4a4224243144b9b1868331722d4
:100ab8001a7010e1a4224243104b9b181a6b13784a
:100ac800fe3b59424b41d21813783f218b4317d034
:100ad800d3791b04fc2189030b40117a09020b43cb
:100ae800527a134301339b02a4216143034a5218eb
:100af80013646832112313705ae4c046d41e0020d0
:100b08009079032318400002d37918438000517a62
:100b1800490006231940137a9b0903430133907a4d
:100b2800c009014302318b40190052790f231a4042
:100b3800093a80235b0293401b0c4b43d4e7002205
:100b4800042101f019fca4226243e04b9b1867338f
:100b58001b780c2b0ad00b2b00d02de6a422624365
:100b6800da4b9b18683317221a70b4e0a422624348
:100b7800d64b9b186c331b78002b07d1a4226243f9
:100b8800d24b9b18683312221a7011e4a4226243d4
:100b9800ce4b9b18683317221a709ce0a42242435c
:100ba800ca4b9b18596b142228000cf00eff002822
:100bb80008d0a4226243c54b9b18683313221a70cd
:100bc800fff7f6fba4226243c04b9b186833172239
:100bd8001a7080e0a4224243bc4b9b1862331b78f6
:100be800012b11d0a4224243b84b9b1862331b78c7
:100bf800022b01d0fff7dcfba4224243b34b9b1826
:100c0800683317221a7066e0002128000df056fe9e
:100c1800a4226243ad4b9b18683314221a70fff765
:100c2800c7fb0022112101f0a7fba4226243a74bb6
:100c38009b1867331b780c2b0ad00b2b00d0bbe515
:100c4800a4226243a14b9b18683317221a7042e012
:100c5800a42262439d4b9b18683315221a70fff734
:100c6800a7fb80229200072101f086fba4226243a1
:100c7800964b9b1867331b780c2b0ad00b2b00d094
:100c88009ae5a4226243914b9b18683317221a7085
:100c980021e0a42262438d4b9b18683316221a70f8
:100ca80093e5a4224243894b9b18683300221a70ab
:100cb800fff77efb002128000df000fea42262430e
:100cc800824b9b18683300221a70fff771fb172bb1
:100cd80001d0fff76dfba42262437c4b9b181900df
:100ce800453100220a7001390a7022310a706333d3
:100cf80001321a70fff75cfba4226243734b9b1806
:100d080046331b78012b00d0f1e3a42262436f4bda
:100d18009b1869331b78002b00d0e8e3002e27d0fe
:100d2800012128000df0cafd002800d1dfe3a4222c
:100d38006243664b9b181900693102220a703272ad
:100d480048331b78002b02d173695b027361737f90
:100d5800002b15d1b369013b5a1e934108333377f1
:100d6800a4226243594b9b18653302221a70bee3d2
:100d7800a4226243554b9b18653300221a70b6e3d0
:100d8800b369013b5a1e93410a333377a422624365
:100d98004e4b9b18653303221a70a8e37269317fa2
:100da800200001f0e9faa4226243484b9b186733fc
:100db8001b780c2b0ad00b2b00d098e3a42262439b
:100dc800424b9b18653319221a7090e3a4226243a0
:100dd8003e4b9b186c331b78002b09d1a42262432d
:100de8003a4b9b180022da74653305321a707ee399
:100df800a4226243354b9b18653319221a7076e397
:100e0800a4226243314b9b1862331b78012b10d00c
:100e1800a42262432d4b9b1862331b78022b00d00f
:100e280065e3a4226243294b9b18653319221a7083
:100e38005de3a4226243254b9b181a006532643394
:100e48001b78137053e3a4226243204b9b18996ac2
:100e5800012228000cf0b9fd00280bd0a42262431f
:100e68001a4b9b181a00643206211170653304224c
:100e78001a703ce3a4226243144b9b180022da74d4
:100e8800653319321a7032e3a42262430f4b9b1860
:100e98009b6a1b78fe2b1bd0a42262430b4b9b182a
:100ea800db7c002b20d0a4226243084b9b18213303
:100eb8001b78002b2dd0a4226243044b9b180022e0
:100ec800da74653319321a7011e3c046d41e002053
:100ed800dc4eb6183300653307221a7028000df06f
:100ee800dcfa0023f37402e3fa2128000cf0fefd7b
:100ef800002807d1a4226243d24b9b1865331922dc
:100f08001a70f4e2a4226243ce4b9b180122da74d1
:100f1800c9e7a4226243cb4b9b18653305221a709c
:100f2800e5e280223169920028000cf04efd00288d
:100f38000bd0a4226243c34b9b181a0064320821c9
:100f48001170653304221a70d1e2a4226243bd4baa
:100f58009b18653319221a70c9e2a4226243b94b5f
:100f68009b18996a022228000cf02ffd00280bd04c
:100f7800a4226243b34b9b181a00643209211170f2
:100f8800653304221a70b2e2a4226243ad4b9b1867
:100f9800653319221a70aae2337f092b07d0a422dd
:100fa8006243a84b9b1865330b221a709fe2b36902
:100fb800013bb361002b07d1a4226243a14b9b18cc
:100fc80065330a221a7092e23369802292009446ad
:100fd800634433615d3aff3a62439a4b9b18653329
:100fe80005221a7083e2a4226243964b9b18996ae1
:100ff800012228000cf0e9fc00280bd0a42262434f
:10100800904b9b181a006432182111706533042222
:101018001a706ce2a42262438a4b9b18653319222a
:101028001a7064e200220521200001f0a5f9a4222b
:101038006243844b9b1867331b780c2b0ad00b2b0d
:1010480000d054e2a42262437e4b9b1865331922d8
:101058001a704ce2a42262437a4b9b1865330b2228
:101068001a7044e27269317f200001f085f9a422e8
:101078006243744b9b1867331b780c2b0ad00b2bdd
:1010880000d034e2a42262436e4b9b1865331922c8
:101098001a702ce2a42262436a4b9b186c331b78ab
:1010a800002b07d1a4226243664b9b1865330c22a0
:1010b8001a701ce2a4226243624b9b186533192202
:1010c8001a7014e2337f0b2b1dd0a42262435d4bb0
:1010d8009b189b6afe221a70a4226243594b9b18e4
:1010e800996a012228000cf05bfc002813d0a42286
:1010f8006243544b9b181a0064320d2111706533fa
:1011080004221a70f3e1a42262434e4b9b189b6a97
:10111800fc221a70e0e7a42262434a4b9b1865330d
:1011280019221a70e3e180223169920028000cf03c
:1011380037fc00280bd0a4226243424b9b181a00ac
:1011480064320e211170653304221a70cfe1a42293
:1011580062433c4b9b18653319221a70c7e1a422dd
:101168006243384b9b18d96a022228000cf018fcfd
:1011780000280bd0a4226243324b9b181a00643219
:101188000f211170653304221a70b0e1a422624362
:101198002c4b9b18653319221a70a8e1a4226243cc
:1011a800284b9b18996a012228000cf00efc002895
:1011b8000bd0a4226243234b9b181a0064321021df
:1011c8001170653304221a7091e1a42262431d4b09
:1011d8009b18653319221a7089e1a4226243194bbe
:1011e8009b189b6a1a781f231340052b07d0a4224b
:1011f8006243144b9b18653319221a7077e1a422b5
:101208006243104b9b181a0065321121117000229d
:10121800da746ce1a42262430a4b9b18996a012292
:1012280028000cf0d2fb00280ed0a4226243054b04
:101238009b181a00643212211170653304221a7047
:1012480055e1c046d41e0020a4226243b04b9b182f
:10125800653319221a704ae1a4226243ac4b9b18e9
:101268009b6a1b78002b35d1a4226243a84b9b189c
:10127800db7c002b11d0a4226243a54b9b182133a1
:101288001b78002b1ed0a4226243a14b9b1800227e
:10129800da74653319321a7029e1fa2128000cf042
:1012a80025fc002807d1a4226243994b9b1865337b
:1012b80019221a701be1a4226243954b9b18012244
:1012c800da74d8e7a4226243914b9b186533112244
:1012d8001a700ce128000df0e0f8a42262438c4b50
:1012e8009b180022da74653313321a70ffe0337fdb
:1012f8000b2b07d0a4226243854b9b1865330b2226
:101308001a70f4e0b369013bb361002b07d1a42242
:1013180062437f4b9b18653314221a70e7e03369e8
:10132800802292009446634433615d3aff3a6243f7
:10133800774b9b1865330c221a70d8e0a4226243bd
:10134800734b9b18fd22996a0a70996afc3a280027
:101358000cf026fb00280dd0a42262436c4b9b188e
:101368001a006432152111700132113911700022ee
:10137800da74bce0a4226243654b9b1865331922da
:101388001a70b4e0a4226243614b9b18996a012247
:1013980028000cf01afb00280bd0a42262435c4bf7
:1013a8009b181a00643216211170653304221a70d2
:1013b8009de0a4226243564b9b18653319221a708c
:1013c80095e0a4226243524b9b18996a0122280097
:1013d8000cf0fbfa00280bd0a42262434c4b9b185c
:1013e8001a00643217211170653304221a707ee0e6
:1013f800a4226243464b9b18653319221a7076e083
:10140800a4226243424b9b189b6a1b78002b35d160
:10141800a42262433e4b9b18db7c002b11d0a422f4
:1014280062433b4b9b1821331b78002b1ed0a42210
:101438006243374b9b180022da74653319321a70ed
:1014480055e0fa2128000cf051fb002807d1a4220e
:1014580062432f4b9b18653319221a7047e0a42268
:1014680062432b4b9b180122da74d8e7a42262430b
:10147800274b9b18653316221a7038e028000df0a8
:101488000cf8a4226243224b9b180022da746533bd
:1014980018321a702be0182a36d001235b42012239
:1014a80001923372002128000df008fa33791b01ec
:1014b800a4216143164a521852689b185f68002f8e
:1014c80003d09a68f1680198b8476b6d002b04d077
:1014d8001a6a6a6500221a621a70a42262430c4bc7
:1014e8009b181900693100220a7065331a70a42309
:1014f8006343074ce41874340123237002b01cbc06
:1015080090469946a246f0bd002300220192c8e702
:04151800d41e0020bd
:020000040000fa
:10151c00f0b5de4657464e464546e0b599b01390b9
:10152c000d000092019313a80af044ff002800da82
:10153c00abe38300c24a9b58002b01d000221a70e7
:10154c00c04b4000c25c0292181843789b461000b6
:10155c000df02ef9c30700d599e3430700d59ee3a0
:10156c00002d01d100f0ecfb6b681793002b01d11f
:10157c0000f0e9fb179b5a1eb3498a4201d81a4264
:10158c0001d0012317936b789846013b012b01d9ad
:10159c0001239846ae68721eab4b9a4204d83307af
:1015ac0004d08026b60001e08026b600ec688023cb
:1015bc005b049c4200d9a0e0631e23405a42534175
:1015cc005b421c40a14b019a9a4200d869e30099f6
:1015dc00002900d167e32b789946002316935b46cc
:1015ec00002b00d18be0012300220d0002980cf09f
:1015fc00b7fa002800d058e3944b2900ea5c120299
:10160c00013beb5c1343924a1bb2934200d04ee376
:10161c005b461d01af35ff358c466544042b00d964
:10162c0047e32b79002b00d145e3280008300cf060
:10163c0048ff049028000c300cf043ff1690169bca
:10164c007f2b00d83be3834b802203929c4201d832
:10165c00630a039302234a461a400d9264d0013b5d
:10166c004a4613405a42534102339a464346059325
:10167c000df066f91290169a0692130b0f937301e4
:10168c005b0a0b93049901310e918c4663440a93c7
:10169c00179b591e08915b420993530c10934346b8
:1016ac001193b0465346032b00d11fe3039b1c1e22
:1016bc0058d02100069809f0fdfd674b984266d979
:1016cc00871c7f00614b9c4667447f0a05990d007f
:1016dc007d430a9b9c466544089b5e19099b1e40f2
:1016ec00761b300009f022fe002958d0013e049be5
:1016fc0002330c930223079355e0002462e716aae9
:10170c00012102980bf094fb002800d0d5e20023b5
:10171c0004934b461b0792d4169b3f2b8fd93f3b10
:10172c0016933f2304938ae74b46db0700d4c8e2a9
:10173c0002239a469ae70394b4e7484b069a9a42d6
:10174c000ed9474b1a1d0224022310998b4200d943
:10175c00d0e264000232931e1b88002bf6d1c9e242
:10176c000124c7e2069b1a003e4b9a420dd93e4b10
:10177c001a1d022404230f998b429ad8640002325a
:10178c00931e1b88002bf7d193e7012491e74700a8
:10179c003f1801377f08033701239a4692e70e9bc7
:1017ac000c93012307930599300009f083fdc719a9
:1017bc000b9e2301049aad1a5b19069a9a4200d229
:1017cc0083e2079b9819101a059b7b43c01a2100d2
:1017dc0009f070fd5346032b13d0022b48d1234b39
:1017ec0098421ed9039b002b00d07ce26400402c55
:1017fc00a1d90d9b002b00d078e2802c0fd803943c
:10180c0050e71a4b984233d8039b002b00d05ee272
:10181c00012c02d96308039344e70e2038e20e2012
:10182c0036e20d4b984200d9c1e0039b002b00d04f
:10183c004fe263000393802b00d833e70e2027e29e
:10184c005424002078260020ff7f0000ff010000b8
:10185c0055aaffffff010100f50f0000ffff01007b
:10186c009ce70000ff0f00008ce70000f5ff000074
:10187c0008964646119b984605005346012b00d00e
:10188c00b4e0e44b984200d925e28022920000217a
:10189c0000980cf0c5ffe0490b22203100980cf0a9
:1018ac001dff0023009ad372023313735473079bea
:1018bc0093739bb21b0ad37343461374009a5674ea
:1018cc00b6b2360a9674d54b0699994200d9ade05a
:1018dc00d1748bb21b0a1375019b5b0a9846129b41
:1018ec00069a944663441e00f82300994b75b93b45
:1018fc000b7600234b76ff228a76cb7608001c30c1
:10190c0004990cf02dff5346032b00d194e03100c9
:10191c00009d280027300cf023ffaf75bbb21b0acb
:10192c00eb7524238022ea540233573aea54ba491d
:10193c00163a403128002b300cf0d0feff235b0010
:10194c005522ea54b64b5532ea54ff3bff3b049afe
:10195c00290002980bf0b6fe002800d0bde1019bd7
:10196c005a0a5202002100980cf05aff059b002bda
:10197c0000d11be15346013b5a1e93415b421b06af
:10198c00a84a944663440693002303934346019369
:10199c0004974746c846a1460c9c5346032b00d1de
:1019ac00cce0069900980cf0dbfe049deae008966a
:1019bc004646119b98460500802292000021009813
:1019cc000cf02eff94490b22203100980cf086fe6f
:1019dc000023009ad372023313735473079b9373cf
:1019ec009bb21b0ad3734346137467e780229200a1
:1019fc00002100980cf014ff87490b22203100982d
:101a0c000cf06cfe0023009ad372023313735473e0
:101a1c00079b93739bb21b0ad373434613745346b1
:101a2c00033b5a1e93415b421e4047e7009820300f
:101a3c0006990cf095fe4fe73100009e30004330c4
:101a4c000cf08efe3000243039000cf089fe300092
:101a5c002c3002210cf084fe30230122f25400239e
:101a6c003032b35401320621b1540132b3544033f5
:101a7c004d32f2540233573af2546749163a2c312c
:101a8c00300047300cf02afeff235b005522f25445
:101a9c00634b5532f254ff3bff3b049a31000298e2
:101aac000bf010fe03000120002b00d0f0e0049b93
:101abc009a1d0123009e310002980bf003fe802238
:101acc009200002130000cf0abfe574930000cf0b6
:101adc0047fe3000e530ff3054490cf041fe691ee2
:101aec003500e935ff3528000cf03afe3000ed30ba
:101afc00ff3002210cf034feff235b005522350031
:101b0c00f254474b5532f254049bda1d0123310039
:101b1c00029e30000bf0d6fd01230e9a29003000f6
:101b2c000bf0d0fd019b5a0a5202002128000cf048
:101b3c0077fe059b002b00d01ce733e008214942bf
:101b4c00009d28000cf00cfe01212b1d49421800b1
:101b5c000cf006fe2800083035490cf001fe24e795
:101b6c0033002200009902980bf0acfd002800d045
:101b7c00b5e080229200002100980cf051fea419cf
:101b8c00ad1b04d02e00bd42ead9019ee8e7039bb1
:101b9c0001330393059a9a4200d9fee60c944c4605
:101bac00c146b8465346032b00d108944546089cc1
:101bbc000c9f0be033003a00009902980bf082fd69
:101bcc00002800d08de0bf19a41b04d0260044458a
:101bdc00f0d92e00eee75346032b09d00f4b0634f9
:101bec00169a9a4205d85346022b11d0053c00e0b8
:101bfc000c245b46002b1dd14b461b0738d500220d
:101c0c00110002980bf014f9431e9841c0b23fe04a
:101c1c000424eee7f50f0000ccc60000ffff000027
:101c2c00ff010000f8ffff005252614172724161e6
:101c3c00ffffff0f01230022009d2900029e3000b0
:101c4c000bf08eff03000120002b21d15b46013be2
:101c5c001b01ac466344c333ff331c7003000022ea
:101c6c00290030000bf02efd0028c8d001200fe019
:101c7c00169b149300231593009b220014a9029821
:101c8c0003f0caff0028bad002e00b2000e00320ca
:101c9c0019b03cbc90469946a246ab46f0bd0a2012
:101cac00f6e71120f4e71120f2e70120f0e70e200f
:101cbc00eee70e20ece70e20eae70120e8e70e2025
:101ccc00e6e71320e4e70e20e2e70e20e0e70e2023
:101cdc00dee70e20dce70e20dae70120d8e7012052
:101cec00d6e70120d4e70d9b002b27d0039b1c1ead
:101cfc0000d122e52100069809f0dcfa8700154b8b
:101d0c009c4667447f0a144b9c466044134b984294
:101d1c00d9d8049a2032059d7d43ad18089b5b19d8
:101d2c0009990b405b1b20218c469c446146079112
:101d3c00d3180c93002603239a463ae50e20a7e706
:101d4c0000231793064d17aa032102980bf070f885
:101d5c00fff710fc070200000a00fffffffffe0f59
:041d6c00ace70000e0
:020000040000fa
:101d7000382500201c000000000000007025002015
:101d80001400000000000000142600200c000000d9
:101d900000000000d425002010000000000000001a
:101da000842500201400000000000000d41e002044
:101db000a40000000000000098250020140000008e
:101dc00000000000c421002074000000000000009a
:101dd000c41400200400000000000000d81c0020f3
:101de0001001000000000000f82200208000000028
:101df000000000003424002020000000000000004b
:101e0000a827002050000000010000001ddb00009a
:101e10008fe600002de700005de800006be80000a1
:101e2000a1e60000e9df000061b4000021690000c4
:101e300041770000558e0000817e0000d9d500005a
:101e4000d5dc0000513e0000e9a9000071ac0000a3
:101e50003de70000cf79000000000000582400207a
:101e60006000000000000000372500200100000095
:101e700000000000b82300202c000000000000003b
:101e80002c26002008000000000000001126002081
:101e900001000000000000005424002004000000a5
:101ea00000000000b8240020200000000000000016
:101eb000d22500200200000000000000d8160020fb
:101ec000000200000000000034260020080000008e
:101ed000000000007a260020010000000000000041
:101ee0003c2600200800000000000000d82400204c
:101ef0002000000000000000a412002020020000ca
:101f000000000000e4250020100000000000000098
:101f10004426002008000000000000007b2600206e
:101f200001000000000000007826002002000000f0
:101f30000000000000000020000800000000000079
:101f4000d81800200002000000000000e423002058
:101f50002800000000000000542500201c000000a4
:101f600000000000182800201800000001000000f8
:101f7000e42300205425002020260020000000003b
:101f8000d818002000000000382200207000000057
:101f900000000000000800206004000000000000b5
:101fa000681000203c020000000000007c26002099
:101fb0000100000000000000782300204000000025
:101fc00000000000781f0020a000000000000000ba
:101fd0007e26002002000000010000000100000039
:101fe000382100208c00000000000000c0250020e7
:101ff0001200000000000000302800201400000043
:1020000001000000f9d8000019b10000097b0000b0
:10201000914e000000000000e81d0020ec000000d0
:1020200000000000f8240020200000000000000054
:102030001820002090000000000000000c24002068
:102040002800000000000000a820002090000000f0
:1020500000000000ac25002014000000000000007b
:10206000202600200c0000000000000018250020a1
:102070001f00000000000000042600200d000000ea
:1020800000000000d81a002000020000000000003c
:102090004c2700205c000000010000000000000050
:1020a00000020000d81a002000000000000000001c
:1020b000008004021f0000004d6963726f63687046
:1020c0004d6173732053746f726167652020202007
:1020d000303030311dd80000fd920000a9ad000065
:1020e00085e1000027e500003be500001dd300006e
:1020f0004fe50000000000005c2600200400000006
:102100000000000012260020020000000000000075
:10211000f425002010000000000000004c260020e4
:102120000800000000000000602600200c000000f5
:1021300000000000a8220020500000000000000065
:10214000802600206c000000010000008c2600208a
:10215000882600208c2600200000000025000000ba
:10216000680c0020000400000000000000000000d7
:10217000000000000000000000000000000000005f
:10218000000000000000000025ea00000000000040
:102190000000000000000000000000008dbe0000f4
:1021a000000000000000000000000000000000002f
:1021b0000000000000000000600c00200804000087
:1021c00000000000f82700202000000001000000af
:1021d00001000000030000000000000000000000fb
:1021e0000000000000000000000000005426002055
:1021f0005426002008000000000000006c2600208b
:102200000400000000000000c814002010020000bc
:1022100000000000ec26002060000000010000002b
:1022200001000000030000000000000000000000aa
:1022300000000000000000000000000009c30000d2
:1022400000000000000000000000000033e9000072
:1022500053bf00000000000000000000000000006c
:10226000000000000000000000000000000000006e
:10227000000000000000000000000000000000005e
:102280007026002008000000000000000000000090
:04229000000000004a
:020000040000fa
:1023800070b506000d00a4244443c04be41823009c
:10239000673319780c292bd88b00bd49cb589f4641
:1023a000a4235e43b94b9e190023b374b94bed00cf
:1023b000e95c40200143b06a0170110eb06a4170bf
:1023c0001102090eb06a81701104090eb06ac17061
:1023d000b16a0a715b195b78b26a5371ff23b26a02
:1023e0009371330024330a221a7067360123337045
:1023f00070bd012120000cf065fa0028f8d0a4225d
:102400007243a24b9b18996a062220000bf0ccfa6b
:10241000002807d1a42373439c4ef61867360a237d
:102420003370e5e7052d07d0a4237343974ef618c4
:10243000673603233370dbe7a4237343934ef61808
:10244000673602233370d3e7a42242438f4b9b1895
:1024500062331b78012b0dd0a42242438b4b9b1877
:1024600062331b78022bc3d1884eb61867360a2315
:102470003370bde7a4224243844b9b18996a012222
:1024800020000bf0a6fa002807d0a42373437f4e48
:10249000f618673603233370aae7a42373437b4ef1
:1024a000f61867360a233370a2e7a4224243774b1b
:1024b0009b1862331b78012b0ed0a4224243734b2e
:1024c0009b1862331b78022b00d091e76f4eb61831
:1024d00067360a2333708be7a42242436b4b9b1869
:1024e000996a012220000bf074fa002807d0a42377
:1024f0007343664ef61867360423337078e7a423d7
:102500007343624ef61867360a23337070e7a422cd
:1025100042435e4b9b1862331b78012b0ed0a422e2
:1025200042435a4b9b1862331b78022b00d05fe763
:10253000564eb61867360a23337059e7a422424331
:10254000524b9b18996a0a786c331a70ff2a1ad07a
:10255000ed00504b5d19ab78012b61d0002b2dd0d5
:10256000022b41d0042b00d042e7042220000bf0c4
:1025700030fa00286ad0a4235e43444b9b1967338a
:1025800006221a7034e7a4234343404ad218243267
:102590001378013bdbb21370002b07d1a433434304
:1025a0003a4ef61867360a23337021e7a4234343d3
:1025b000364ef61867360323337019e701222000e0
:1025c0000bf007fa002807d0a4235e432f4b9b197a
:1025d000673308221a700be7a4235e432b4b9b1929
:1025e00067330a221a7003e7a4207043274b1b1895
:1025f0006d331a70012220000bf0ebf9002807d090
:10260000a4235e43214b9b19673305221a70efe622
:10261000a4235e431d4b9b1967330a221a70e7e619
:10262000012220000bf0d5f9002807d0a4235e4337
:10263000164b9b19673307221a70d9e6a4235e4311
:10264000124b9b1967330a221a70d1e6a4235e430a
:102650000e4b9b1967330a221a70c9e6a422424323
:102660000a4b9b1862331b78012b15d0a4224243de
:10267000064b9b1862331b78022b00d0b8e6034e42
:10268000b61867360a233370b2e6c046d41e00205f
:102690006cd4000030ab0000a4224243944b9b1842
:1026a0009a6a12786c331a70002a17d1a422424316
:1026b0008f4b9b189b7c002b30d0a42272438c4bf9
:1026c0009b1820331b78002b3dd0894eb618330061
:1026d00067330a221a700023b37489e620000bf0d6
:1026e000d5fea4227243824b9b1800229a74d96aa9
:1026f000013220000bf058f9002807d1a4237343be
:102700007b4ef61867360a23337071e6a4237343b1
:10271000774ef61867360823337069e66421200087
:102720000bf0d4f9002807d1a4235e43704b9b190a
:1027300067330a221a705be6a42272436c4b9b1823
:1027400001229a74b9e7a4227243694b9b18996ad3
:10275000012220000bf03df9002807d0a4235e439e
:10276000634b9b19673307221a7041e620000bf078
:102770008dfea42373435e4ef6180023b3746736b0
:102780000a33337034e6a4224243594b9b18623318
:102790001b78012b0ed0a4224243554b9b18623369
:1027a0001b78022b00d023e6514eb61867360a2359
:1027b00033701de6a42242434d4b9b189a6a117850
:1027c0001a006d321170d96a012220000bf0ecf86a
:1027d000002807d1a4237343454ef61867360a2311
:1027e000337005e6a4237343414ef6186736082379
:1027f0003370fde5a42242433d4b9b1862331b78a6
:10280000012b0ed0a4224243394b9b1862331b7814
:10281000022b00d0ece5364eb61867360a2333702b
:10282000e6e5a4224243324b9b189a6ad0781900fd
:10283000703108709078013108705078013108705b
:1028400011781a0073321170d96a012220000bf03e
:10285000abf8002807d1a4237343254ef61867363a
:102860000a233370c4e5a4237343214ef618673658
:1028700008233370bce5a42242431d4b9b186233ee
:102880001b78012b0ed0a4224243194b9b186233b4
:102890001b78022b00d0abe5154eb61867360a231d
:1028a0003370a5e5124eb6186736092333709fe5dd
:1028b000a42343430e4ef61867360c2333700021d1
:1028c00020000bf0ffff93e5a4234343084ef618c6
:1028d00067360b233370002120000bf0f3ff87e5f0
:1028e000a4234343024ef6186736002333707fe576
:0428f000d41e0020d2
:020000040000fa
:1028f400f0b5c64600b582b005004378002b00d180
:102904009ee2836b002b00d19ae2446aa38b9b0561
:1029140005d5238b9b0502d580239b00a383a38b22
:10292400db0505d5238bdb0502d580235b00a38360
:10293400a38b1b0604d5238b1b0601d58023a383fd
:10294400a38b5b0604d5238b5b0601d54023a383ad
:10295400a38b9b0604d5238b9b0601d52023a3833d
:10296400a38bdb070dd5238bdb070ad50123a383b8
:10297400a3820f33a383238300220421686bab6bf0
:102984009847a38bdb060dd5238bdb060ad51023d2
:10299400a383a3820f3ba383238300220321686bb9
:1029a400ab6b9847a38b5b0709d5238b5b0706d5d5
:1029b4000423a38300220721686bab6b9847a38b86
:1029c4001b0702d5238b1b0735d40823ff33e35c95
:1029d400db065dd50a23ff33e35cdb0658d56e6c5a
:1029e400f37902229343f371f37b9343f3733768d0
:1029f400002f47d0e96c063238680bf073fe0823c9
:102a0400ff331022e254033b3032e2543a689179a6
:102a1400d3791b020b432ad121330722ea54022320
:102a24003b7206337b60bb693360fb68002b2fd09d
:102a3400380098472ce021230022ea54237b1b070b
:102a44009b0fc14ad25c3023ea5428004c30402208
:102a540000210bf0e9feab6b002b03d00022022116
:102a6400686b98478023a372783ba383ade7137800
:102a74007f2b03d821230222ea54d0e72123062204
:102a8400ea54cce721230122ea54e7330f32e2541b
:102a94000823ff33e35c9b0737d50a23ff33e35c4a
:102aa4009b0732d56b6c9e68002e2ed02122aa5c27
:102ab400082a1ad0316a002971d1327c51b2002916
:102ac4005ddb21220521a95400223272b2699a6089
:102ad400f368002b01d0300098470823ff3302220b
:102ae400e254033b3e32e2540fe0002221216a54b7
:102af4003272b16999607260f368002b01d03000c2
:102b040098470823ff330222e2540823ff33e35c8f
:102b1400db0700d4a3e00a23ff33e35cdb0700d424
:102b24009de06b6c98462123eb5c052b59d0434602
:102b34001e68002e74d02f6dbf04bf0c306a7368fa
:102b44003a189a4201d91f1abfb2e96c33689c46fd
:102b540060443a000bf0c6fd336afb1833627268b6
:102b6400934264d241468988b94260d882235b008b
:102b74004022e2540823ff333f3ae2546fe07f23bc
:102b84001a4032742b6e9b0b9b032b660823ff3376
:102b94000222e2540623ff337e32e254b5e79f89d2
:102ba400b94200d88fb2e86d7368591a33689c46ed
:102bb40061443a000bf096fd336adb1b33622b6ee3
:102bc4009b0b9b032b662b6ebf04bf0c1f432f660e
:102bd4000823ff330222e2540623ff337e32e254f9
:102be40093e743461868002813d000230372212278
:102bf400ab540822ff320121a154033a3f31a154be
:102c04004246816911604360c368002b27d098470e
:102c140025e021230422ea54e733033ae2541ee078
:102c240021230322ea54e733023ae25417e09342a1
:102c34009b415b42337221230722ea540823ff336a
:102c4400063ae254033b3f32e2544346b2691a6007
:102c5400336a7360f368002b01d030009847238ceb
:102c64009b0700d494e02a23ff33e35cdbb2019397
:102c74002823ff33e35cdbb20093009b1b070fd5d3
:102c8400019b1b070cd58623eb5c9b0708d586228a
:102c9400ab5c02218b43ab542823ff337e3ae254ce
:102ca400009b9b0774d5019b9b0771d5ae6cb068e4
:102cb40000286dd0026a002a48d1037c5ab2002a47
:102cc4002adb002303728369b360c368002b00d03e
:102cd4009847b268002a2fd0116ab389994200d864
:102ce4008bb25068411a106884466144e967116ade
:102cf400c91a11628022a958890b8903a950a958bd
:102d04009b049b0c0b43ab502823ff330a21e15453
:102d14002623ff33e2543be07f2213400374013245
:102d2400ab589b0b9b03ab502823ff330a21e15480
:102d34002623ff33e2542be00a232932ff32a35423
:102d44002822ff32a35423e000ea0000b3899a4208
:102d540000d893b241688a1a01688c466244ea67d3
:102d6400026ad21a02628022a958890b8903a950e7
:102d7400a9589b049b0c0b43ab502823ff330a2117
:102d8400e1542a23ff330839e1542623ff33e25464
:102d9400238c9b0754d52a23ff33e35cdbb20193d6
:102da4002823ff33e35cdbb20093009b5b070cd565
:102db4007623eb5c9b0704d57622ab5c02218b4324
:102dc400ab542823ff330422e254009bdb0737d59e
:102dd400019bdb0734d5ae6c3068002830d02b6ff4
:102de4009b049b0c026a9a18026241688a420dd2c3
:102df400b188994228d803689a18ea662823ff33d1
:102e04000522e254033b3b32e25419e000230372ef
:102e140083693360036a4360c368002b00d098471a
:102e24003368002b13d01b68eb6605232822ff327e
:102e3400a3542a22ff32a3542033ff33e93ae25445
:102e440002b004bc9046f0bd01230372e0e7052301
:102e540094225200a3542822ff32a354f0e7c04620
:020000040000fa
:102e6400f0b5de4657464e464546e0b585b0bf4b05
:102e74001c68187d002809d12378002b30d105b0b7
:102e84003cbc90469946a246ab46f0bd2378002b45
:102e940000d0f8e1210028310022531cdbb2984213
:102ea400edd028310d00283d2d78002d01d11a00d8
:102eb400f3e70232d2b2012a00d1e5e1ab490a7547
:102ec400ff2bdcd09a00d318db00e4186379012bc4
:102ed40008d0237b042bd2d89b00a54ad3589f4605
:102ee4000300efe7237b042b10d00023237320235c
:102ef400e35c012b00d19ae1002323702022a35428
:102f04006371a370e37063702371b8e7974b002279
:102f14005a75eae7e088a3685b6a03219847606111
:102f2400431cacd0a3681b69220092499847022332
:102f34002373a4e7a3681b686069984700280ed030
:102f44002023e35c002b06d1a3685b686069984783
:102f540060620323237320230122e2548fe720239a
:102f6400e35c012b03d020230022e25487e72000f6
:102f74000bf030f900232371f5e77c4b5b7d002bcc
:102f840000d07ce7794b01225a75636a1b69196882
:102f9400794b0126994204d88020800008f08ef9ec
:102fa4000600724d80229200002128690bf03cfc3f
:102fb40021230222e2542a6921001c316069a3689a
:102fc40000969d680023a847e369013302d00423d7
:102fd400237354e7654b00225a7550e72123e356c7
:102fe400022b07d0002b0dd0604b00225a7503230f
:102ff400237344e7a368db6a002b00d13fe7206911
:1030040098473ce7594b1d6900236370ff33ff3336
:10301400eb5c00229046552b67d0c146ff239a46ad
:10302400524b5d682b78002b59d1504b1b699b4642
:10303400237901332371237e9b00504a9b580393c9
:1030440018000bf0f9fbc6b2ff270740a81c3a0092
:1030540003990bf047fba378ef19bb70731cdbb229
:10306400eb18227930329a700236f6b2ae19002388
:10307400b370ac6153466b704b464a46002b23d069
:10308400db0700d4bce000235246ff2a1cd05a00c0
:103094003b49525a5946895c69705a44d17a0906a7
:1030a400907a00040918107a0918507a0002091855
:1030b4006961d17909069079000409181079091811
:1030c400527912028a182a614246002a00d1a8e0e5
:1030d4002c4ae17811700133537001232b70234b78
:1030e40000225a7502232373c9e6234beb5caa2bf7
:1030f40093d12b78eb2b47d0e1235b00e85c0bf0fa
:1031040063f9002867d16378002291466370e9234c
:103114005b00e85c0bf058f9002806d002234a460d
:103124001a439146637801336370f1235b00e85cd2
:103134000bf04af9002856d004234a461a43914614
:10314400637801336370f9235b00e85c0bf03cf9ae
:10315400002844d008234a461a4391466378013331
:103164006370012398469a465ae7c04618280020ff
:10317400f0e50000d5d40000ff01000004e60000e3
:1031840064e90000782600206b783c2b03d0582b90
:1031940001d0fe2bb0d1ab78902badd18f3b6370b7
:1031a4005133eb5c462b46d05323eb5c412b48d088
:1031b4005423eb5c542b4ad03623eb5c462b4cd087
:1031c4003723eb5c412b4ed03823eb5c542b50d08f
:1031d4000023984621e701230122914696e7012323
:1031e40098469a461ce7f9235b00e85c0bf0ecf880
:1031f4000028afd14b46002b41d1013398460ce750
:103204004b469b0701d501233ee74b465b0701d59f
:10321400022339e708231a40131e00d134e703239d
:1032240032e71b4be2781a7000225a7055e72000ef
:103234000af0d0ff60e60023984699460b339a467d
:10324400eee60023984699460b339a46e8e60023b7
:10325400984699460b339a46e2e6002398469946e7
:1032640006339a46dce600239846994606339a4686
:10327400d6e600239846994606339a46d0e60123bb
:1032840098469a46cce60023024a0021117519e6b5
:08329400782600201828002014
:020000040000fa
:10329c00f0b5de4657464e464546e0b589b00f00c0
:1032ac00150000230b6009f085f8061e00da2ee1ec
:1032bc008300ae4a9c58002c00d131e13c600123c4
:1032cc009d432f002378002b0dd060780bf098fbda
:1032dc00c30708d4002d00d11ae10427074000d100
:1032ec0016e10a2714e10023237060780bf060fad2
:1032fc0001250540019500d014e1002f02d04307b1
:10330c0000d511e176009a4b9e19757800212000aa
:10331c0004f062ff022802d032d8002d36d0042de2
:10332c0000d921e12600ff36ff36924b9946a14485
:10333c0004afa0464c4630000bf0c3f801c7103662
:10334c00a642f8d144462e00731e9e41ae1bb60019
:10335c0004ab9c46664408af0be0200004f03cff35
:10336c00002d0dd1012801d810e003200436be42f7
:10337c0006d031680029f0d1002df6d00d27c7e01a
:10338c00042800d1d2e0012800d9d1e04423e25c2a
:10339c001202013be35c1343802292001bb2934266
:1033ac0000d0c7e04f23e65c3602013be35c1e43d2
:1033bc0004d120005c300bf084f80600636b9b4654
:1033cc0026624823e35c9846e370013b012b00d94d
:1033dc00b2e04523e75cbbb26381002b00d1ade0ca
:1033ec007b1e1f4200d0abe04a23e25c1202013b81
:1033fc00e35c13431bb202939bb29a4623811b07d7
:10340c0000d09fe04c23e05c0002013be35c1843de
:10341c0003d1200058300bf054f84723e35c1b0217
:10342c004622a25c1a43914600d18de04346734379
:10343c00039352461109494498468844404500d2aa
:10344c0084e04346c51a3900280007f033ffbd421b
:10345c0000d27de0484b984200d99be0474b0325b6
:10346c00984200d997e0464b0225984200d994e047
:10347c00831c1800e3615b4663624b465b44a362aa
:10348c005946414421630d275246002a40d0039ae5
:10349c0094466344e36201254300844663445b081d
:1034ac0001270740df19374b9c4667447f0ab74218
:1034bc0056d801235b4263612361813363712570ac
:1034cc00314a138801339bb21380e3802f4be360a6
:1034dc000023a3612e4b1b68a34210d02c4b1b69fd
:1034ec009c4210d0019f13e05246002a36d0039a1a
:1034fc0094466344e362022dced17f00d3e7244b84
:10350c0000221a60eae7224b00221a61eae70b2735
:10351c00380009b03cbc90469946a246ab46f0bd7b
:10352c000c27f5e70327f3e70a27f1e70127efe775
:10353c000d27ede70d27ebe70d27e9e70d27e7e76b
:10354c000d27e5e70d27e3e70d27e1e70d27dfe77b
:10355c000d27dde70d27dbe70d27d9e70d27d7e78b
:10356c000d27d5e70d27d3e70d27d1e754240020ed
:10357c00782600203e020000f5ffff0ff5ff00004b
:10358c00f50f0000ff010000d2250020d816002006
:10359c00b82400200025002de4d0871c3800e761fa
:1035ac005b4663624b465b44a36242465a442263c9
:1035bc00032d99d16323e25c1202013be35c1343bc
:1035cc00029a1a4313b2002bc4d1200064300af0c3
:1035dc0078ffe062bf00244b9c4667447f0ab742e9
:1035ec00bad801235b426361236181336371173b5a
:1035fc00e25c1202013be35c1343012b00d05ee75b
:10360c0059460131200009f00fff002800d056e781
:10361c0000236371154be25c1202154be35c134300
:10362c00144a1bb2934200d049e7200038300af00c
:10363c0048ff114b984200d041e787239b00e018cc
:10364c000af03fff0d4b984200d038e788239b00cf
:10365c00e0180af036ff606189239b00e0180af03d
:10366c0030ff20612be7c046ff010000370200004d
:10367c003602000055aaffff52526141727241613d
:020000040000fa
:10368c00f0b5d6464f464646c0b505000e008c2216
:10369c004243c74b9b185868447b5c21614384337d
:1036ac001f687f18bb68984600233370c37b2f2b91
:1036bc0000d9a7e19b00bf4ad3589f46027a437ab0
:1036cc001b021343827a12041343c27a12061a4362
:1036dc0002d0037b7f2b02d8012333708ce1232a89
:1036ec0000d924228c206843b14b1b181a6192b26a
:1036fc0084331b685918143128000af0e1f87be177
:10370c00027a437a1b021a43837a1b041343c27a4c
:10371c0012061a43914602d0037b7f2b02d8012359
:10372c00337069e163001b19db008c226a439b1820
:10373c009f4ad31822331b78002b02d101333370ec
:10374c005ae14b46032b01d904239946984a63004e
:10375c001b19db008c2169435b18d3185c6a521867
:10376c004b4613614a46002140460bf059f803239f
:10377c00424613700023537093703b6d20009847a2
:10378c00002802d080234246937000234246d37017
:10379c004b469ab2414628000af092f82ce163009d
:1037ac001b19db008c226a439b18814ad3182233e5
:1037bc001b78002b24d19246631c9c465b0062460e
:1037cc009a18d2008c276f43d219524452689046f3
:1037dc0092780f218a430221894649460a43414681
:1037ec008a7062469a18d200d219524452683a2111
:1037fc0011736344db00db1953445b6800225a737a
:10380c00027a437a1b021343827a12041343c27a5c
:10381c0012061a4302d0037b7f2b02d8012333708c
:10382c00eae0112a00d91222614f8c266e43b04671
:10383c00bb191a6192b2013466003319db004344a0
:10384c00fb18596828000af03bf83619f600464474
:10385c000123f355d0e0037a427a12021a43837a99
:10386c001b041a43c37a1b06134302d00123337083
:10387c00c2e063001c19e4008c235d4365194c4cb9
:10388c00651922352b78002b00d0b5e0013333704d
:10389c00b2e0037a427a12021343827a12041a4378
:1038ac00c37a1b0613431f1e02d0037b7f2b02d847
:1038bc0001233370a0e063001b19db008c226a43e8
:1038cc009b183b4ad31822331b78002b02d10133af
:1038dc00337091e0072f00d90827354a8c216943b2
:1038ec0053181f6163001b19db005b18d318db6acc
:1038fc009a68002a34d01e69f06863001b19db003b
:10390c005b182b4ad318198c884223d907f0d2fca8
:10391c00b3685843013863001c19e4008c236b43d3
:10392c00e418234b1c19238c020e41460a70020228
:10393c00120e4a700204120e8a70c8701a0e0a71a6
:10394c0000224a711a0a8a71cb71bab2280009f0a6
:10395c00b7ff51e0b368584307f0acfc0138dae725
:10396c001e69706863001b19db008c226a439b186c
:10397c000f4ad318198c884205d907f09bfc336881
:10398c0058430138c7e73368584307f093fc0138b4
:10399c00c1e763001c19e4008c235d436519044cda
:1039ac00651922352b78002b26d10133337023e097
:1039bc0038210020c8a000002949013463001a19dd
:1039cc00d2008c20684312188a185568aa780f27e1
:1039dc00ba4305273a43aa701a19d20012188a184a
:1039ec005268202515731d19ed002d184d196b68a3
:1039fc0000225a730123337006201cbc9046994652
:103a0c00a246f0bd164b9846631c99465f00fb1806
:103a1c00db008c246c431b194344586809f030f8c4
:103a2c004b46fb18db001b1943445a6893780f2153
:103a3c008b4305210b4393704b46fb18db001b1982
:103a4c0043445b6820221a733d004d44ed002d1950
:103a5c0045446b6800225a7301233370cce7c0468f
:043a6c0038210020dd
:020000040000fa
:103a7000f0b5de4657464e464546e0b589b083462a
:103a80000f00036899460b782f2b06d05c2b04d0cf
:103a90004a469269826008e001373b782f2bfbd0c1
:103aa0005c2bf9d000235a4693603b781f2b0ad930
:103ab000be4b0c330093bd4b18330593ca463b00f5
:103ac0005f469b4620e12f2380225946ca5400219d
:103ad000584606f015fc9be1fe2c00d9a7e16300d7
:103ae0005e53013407a80af067f9431c00d19ee138
:103af000af4b984203d96300020c5a53013486b28b
:103b00001f2e29d92f2e0dd05c2e0bd07f2ee3d85f
:103b10000004010c00980af0a7fd0028dcd086e123
:103b200001330793079b1a782f2af9d05c2af7d024
:103b300000261f2393427641b3000193079b9b46c7
:103b4000012c0cd0022c22d0002c00d16de1994b1d
:103b5000e3185b00eb1826e004230193eee72b88c3
:103b60002e2bf4d1630000225a530e203900243149
:103b7000a2429b41034020338b5401320b2af7d1e0
:103b80002026019b33431e002f23fe54a3e06b88a5
:103b90002e2bdcd12b882e2bd9d1e3e7013c023b25
:103ba000002c00d141e11a88202af7d02e2af5d026
:103bb00063000022ea52002c00d138e12a88202a32
:103bc00044d1002601367200aa5a202afad0002ecb
:103bd0003dd0032201991143cab20192ea18023a78
:103be0001288043beb182e2a06d0013c002c03d08f
:103bf000023b5a882e2af8d1380024300b2220218b
:103c00000af014fe08230293002303930493a846aa
:103c10002500741c76004346f65a002e31d0202e23
:103c20001ad02e2e16d0039b029a93421bd2ac427e
:103c300000d1fee07f2e7cd8310005980af014fdfb
:103c4000002800d1bae0019b994685e000262e2a83
:103c5000c4d1bee7ac42e6d00323019a1a43d3b2e3
:103c600001932600d5e7029b0b2b53d0ac4200d129
:103c7000e3e00323019a1a43d3b20193ac4200d884
:103c8000dbe02423fb5ce52b4fd0029b082b00d10b
:103c9000aee00c23049a13400c2b02d0d3439b07b5
:103ca00004d10223019e1e43f3b20193019a9307ac
:103cb0000ed4049bdb0703d510231a43d3b2019320
:103cc000049b5b0704d50823019e1e43f3b20193b6
:103cd0002f23019afa54380001f0c0fe2f23fb5c19
:103ce000002800d089e05b0700d591e0bb79db06b6
:103cf00000d498e0534638337a69d105c90d591874
:103d000050460af00bf9b8605b4607933b68dd68e4
:103d10000024e7e60323019e1e43f3b2019324230c
:103d2000fb5ce52bb5d10b23029324230522fa5427
:103d3000abe70223019a1343dbb29946b621ff3168
:103d4000300008f0cbff0600030613d57f23184090
:103d5000194b1e5c002e26d103234a461a43d3b2c8
:103d60000193039b5f265a1c0392fb1824331e7099
:103d700026004ee7ff28edd9029b013b039a9a42a9
:103d800008d2039a531cba182432000a10704a460b
:103d90000192e8e70323019a1a43d3b20193260064
:103da000029b039335e74b46019345e7ccc60000e1
:103db000ffff0000ffffff7f90b800003300413b92
:103dc0009bb2192b05d80223049a1a430492039b31
:103dd000c9e73300613b9bb2192b07d80123049a32
:103de0001a430492203eb6b2039bbce7039bbae79a
:103df000049b9b00dbb204934be7042808d19a068e
:103e00000dd55b0700d47fe72f238022fa540020d2
:103e100009b03cbc90469946a246ab46f0bd5b0754
:103e2000f6d40520f4e70520f2e700232b800620d6
:103e3000eee7029b0b2b00d16ce7049b9b00dbb2ef
:103e400004932e000b230293033b0393e1e6c04649
:020000040000fa
:103e5000f8b5de4657464e464546e0b50400150027
:103e60000f260e404fb2431e033300d9c3e108238f
:103e7000d356022b00ddc1e10e230b4200d0c0e17e
:103e8000436a9846330010339b00c31859683a11af
:103e9000082313408a469a445346db79db0700d453
:103ea000b2e16b68994653469988484607f044fa50
:103eb00000294cd0002f00dba9e1e378002b4cd087
:103ec0000023ab6103332b72002399466968296292
:103ed00053461a68002a00d072e104232b72002393
:103ee000eb6153461d60002e00d02be1002f00da5d
:103ef000e8e02123e35c032b6ad0042b00d1c7e068
:103f0000012b00d061e1e16c083228680af0ecfb7b
:103f100082235b0040224146ca54f43b0822ff3210
:103f20008b540a22ff328b542b689a79002a44d191
:103f300021230732e2545346aa691a6002232b72e6
:103f4000eb68002b00d140e1280098473de1002fad
:103f50000edbe378002b00d05ce1a37b012b1bd0b0
:103f60007f2040423cbc90469946a246ab46f8bdf5
:103f70002b7cda0706d54a46002a03d0802252421b
:103f800013432b74e378002be7d00023ab6103339a
:103f90002b720023994699e700239b46a3730a20be
:103fa000205609f043f981465b46ab6103332b721f
:103fb0000021002f00db8ae788e71b787f2b03d8de
:103fc00021230222e254b6e721230622e254b2e77b
:103fd000266db604b60c286a6b6832189a4201d96d
:103fe0001e1ab6b2e16c2b689c46604432000af09f
:103ff0007bfb2b6af3182b626a6893421bd3002366
:104000002b7221330822e254203bff3241468b546d
:104010000a22ff328b540433ff33c93aca542b6a45
:104020006b605346aa691a60eb68002b00d1cce0a4
:1040300028009847c9e053469b88b3421bd9012307
:104040002b7221220821a1540822ff3241468b54b1
:104050000a22ff328b540433ff33c93aca542b6a05
:104060006b605346aa691a60eb68002b00d1ace084
:1040700028009847a9e001230822ff3241468b54cb
:104080000a22ff328b540433ff33c93aca549ce0ee
:1040900000232122a3542b7201330822ff32414610
:1040a0008b540a22ff328b540433ff33c93aca546b
:1040b0005346aa691a60eb68002b00d185e02800fe
:1040c000984782e02123e35c062b14d0072b7cd198
:1040d00021230822e254236e9b0b9b0323660223b9
:1040e000ff3241468b540a22ff328b540623ff33a2
:1040f000893aca5469e02b6a52469688b34200d284
:104100009eb2e06d320029680af0eefa2b6a9b1b22
:104110002b6221230922e254236e9b0b9b0323660f
:10412000226eb3049b0c1343236602230822ff3242
:1041300041468b540a22ff328b540623ff33893abf
:10414000ca5442e0002f12db29687301e218d164df
:104150001e00464405220821ff31725433000a3301
:10416000ff331a7082235b003b32f2542de0286a41
:104170009b88984200d883b26a68101a2a689446cd
:1041800060447201a118c865286ac01a2862086ec6
:10419000800b80030866086e9b049b0c03430b6630
:1041a000160046440a230821ff31735432000a32b4
:1041b000ff3213700623ff338022f25405e01a0009
:1041c0009369002bfbd19561ea61e3780020002b15
:1041d00000d0c7e64b46002b09d0a37a5ab2002a7a
:1041e00005db1f221a40012393400e4a136001236e
:1041f000a3730020b6e67d204042b3e67b20404218
:10420000b0e67c204042ade676204042aae67d2022
:104210004042a7e60023ab6103332b72002399468b
:0842200055e6c04600e100e094
:020000040000fa
:10422800f0b5de4657464e464546e0b58fb0050028
:104238000e00069101235b420d930990b64b8c2228
:10424800424399184f6808977c7b84315c2060430f
:104258000968884680444046806881464046c06870
:104268000390002131700b910c9166003619f6000d
:10427800b6189e19736a04930caa0ba938000af0a1
:1042880032f8f36a1b699a6892461b689b46318c20
:104298000126914203d8100007f00ef8c6b20b9f12
:1042a80007963100380007f007f8059063001b19de
:1042b800db008c226a439b18974ad31828331b7853
:1042c800012b0bd0032b33d0002b36d005200fb099
:1042d8003cbc90469946a246ab46f0bd0c9b002bd1
:1042e80000d173e18c226a438b4b9b189b7d002b7a
:1042f80000d0c7e063001b19db008c226a439b18bf
:10430800854ad318283300221a70012e1dd0f71bb6
:10431800059b7343db19dbb20c9a9a426cd9012bcb
:1043280064d98c226a437c4b9b1801225a7515e08c
:10433800023b069a13700620c9e78c226a43764b23
:104348009b189b7d002b11d1dfe70c9b012b47d9d4
:104358008c226a43704b9b1801225a758c226a433f
:104368006d4b9b185a7d9a7500221a758c226a43e8
:10437800694b9b185b7d002b4dd1012e77d08c2289
:104388006a43654b9b189b7db34270d063001b1931
:10439800db008c226a439b185f4ad3182833022219
:1043a8001a705946504606f087ff059b4343009014
:1043b800039a0da904984746bf6cb8470d9b013373
:1043c80000d1a3e063001b19db008c226a439b1811
:1043d800514ad31828331b78012b55d0052076e78e
:1043e8008c2169434c4a52185375b7e78c216943ad
:1043f800494a52185375b1e7012a06d98c226a43f3
:10440800454b9b1801225a75a8e78c216943424bfa
:104418005b185a75a2e74048110087183b7d5b027c
:104428004b44fb6563001b19db009b189b468344c8
:104438005b461b8c3b663b006c331a0002231370ef
:104448000a005c3212183b0031331b7808581900f7
:1044580009f075fc3b7d01333b757b7d013b7b752a
:104468005b4628331b78012b0cd005202fe763000f
:104478001b19db008c226a439b18274ad318283360
:1044880001221a70012e49d08c226a43224b9b18b4
:104498009a7db24242d063001b19db008c2169432c
:1044a8005b181d49cb181b8c059f07994f430b9927
:1044b800cf1b5f43bfb25a43002a79dd002305931f
:1044c8000022154966003619f6008c20099b5843ce
:1044d80036188e19091816239c468c44039b9b4654
:1044e80000236146a44634004e46a9460d00f15cff
:1044f8005a44d15501339bb21a00208c2978414384
:104508008b42f4db64464d46012612e00123069aed
:1045180013700620dbe6c046382100208c226a434f
:104528002b4b9b18987d310006f0c6fec6b24b4651
:1045380003930b9f63001b19db008c226a439b18b3
:10454800234ad318188c504534d80799380006f0f8
:10455800b3fe030062001419e4008c226a43a41815
:104568001b4a141928340222227000964246d46c41
:10457800039a0da90498a0470d9b013321d08c23e1
:104588006b43134ded18ab7d5a0229698c46624482
:104598002a610b9ad2180b920c9ad31a0c930caa74
:1045a8000ba9089809f0acfe0023ab7505208ee630
:1045b8000126bee7514606f07ffe464303007b43d3
:1045c800c8e70123069a1370062080e606207ee6d7
:0445d8003821002066
:020000040000fa
:1045dc00f0b5de4657464e464546e0b5a1b0040060
:1045ec008b460192232304aa9446634400221a703a
:1045fc00483200210ea80af013f90d9404ab9a4628
:10460c0033e101239c46e3440da808f091fd2ce115
:10461c005a46d11c029393780022914639e15b46ad
:10462c00d91c9b78202202921e3a914631e10a0055
:10463c000026180030388b46092800d932e11900c1
:10464c00b3009b195b005b18303b1e00531c1178a8
:10465c001a00080030380928f2d99b460b0021e1da
:10466c005b461b782a2b08d1019a20ca5b465b78e3
:10467c00019202229446e34419e101229446e34458
:10468c005a46002519003039092900d90fe11900c3
:10469c00ab005b195b005b18303b1d00531c1178a1
:1046ac001a00080030380928f2d99b460b00fee0ae
:1046bc00683b4a461a4391465b461b780122944656
:1046cc00e344f7e0019c02ccc9b20da808f030fd20
:1046dc000194cae0019b80cb9846002f1ed03978fc
:1046ec00002920d0002401343b5d002bfbd1002d90
:1046fc0002dbac4200d92c004b469b071cd4a642d3
:10470c0006d902990da808f013fd0134a642f8d180
:10471c003978002912d143460193a6e0233704ab24
:10472c009c466744dbe70024e1e74c46651ca64247
:10473c0018d84346019398e00029f7d0b946002dcc
:10474c00f4d04b46a1462c001d0001350da808f0f5
:10475c00effc29780029e8d02b1bbb42f5d14c4645
:10476c00e4e71d0020210da808f0e2fc6b1cae4212
:10477c00f7d14346019378e019000da808f0d8fc56
:10478c0073e00a22100001e0102210004a46520782
:10479c0000d4b2e0019a80ca0192642b00d0b2e03e
:1047ac00002f00dbafe07f420122494611438946ce
:1047bc00a9e0019a80ca0192f2e72722a7e0731cb4
:1047cc00303404aa013ad454bd4216d80700202b29
:1047dc000ed01e002900380006f0a8fdccb229002e
:1047ec00380006f067fd092ce9d94444e4b2e6e749
:1047fc00039e1d00013b190002e03100039e1d00c9
:10480c004b46db0704d52d2304aa53550d00023566
:10481c004b469b0710d4b54210d22c00029f390096
:10482c000da808f085fc0134a642f8d1013d04ab7b
:10483c009c466544574604e02c00f7e72c00f5e74e
:10484c001d0029780da808f073fc6b1eaf42f7d140
:10485c00ba46651ca64201d807e01d0020210da810
:10486c0008f066fc6b1cae42f7d15b461978002948
:10487c0054d0252900d0c4e65b78302b00d1c7e694
:10488c002d2b00d1cbe65946023120220292002278
:10489c0091462a2b00d0cae6019a40ca4b1c9b4673
:1048ac000b7801922e2b00d1dae601256d426c2b90
:1048bc0000d1fde6002b31d01a00583ad1b2202994
:1048cc0000d959e78a001a498a5897464a4652072e
:1048dc0002d40822100013e0019a80ca0192082227
:1048ec00100010e04a46520705d5019a80ca019281
:1048fc000222100007e002221000642b00d158e7be
:10490c00019a80ca01920722782b00d155e7d3b2c5
:10491c0098460023050003961e005be70da808f0df
:10492c0025fc21b03cbc90469946a246ab46f0bd56
:04493c0080b6000041
:020000040000fa
:10494000f0b5de4657464e464546e0b58bb081464b
:104950002f23c35c1a0001935f239a4300d0f0e039
:1049600003689a46da681388002b24d000270137a1
:104970007b00d35a002bfad1494624310c2207a8d8
:1049800009f0b2fe019bdb0769d52f23402249467f
:10499000ca540b3b4b449846353a07a9180009f016
:1049a000a3fe0124012305ad4246b84617000722a5
:1049b0000f218c4619e00027dee7013900293dd0a0
:1049c0005b0058461040c318520860460342f4d0ba
:1049d0008d484340f1e7013a50194170002a00d157
:1049e000d2e00f2b00d8d3e033006046184001001e
:1049f00030311e093929eed90731ece7f95401337a
:104a0000072b05d82021072af8d8a95c0132f5e741
:104a1000484601f023f8002816d10134642c43d015
:104a20005346de680b2207a9380009f05dfe23001b
:104a3000052cbcd901229346120494463288002ae0
:104a4000b5d002361021bbe747460600642c00d1e2
:104a500080e0042876d12f234a460199d154019b46
:104a60009b0700d4a5e00c370d21380006f028fc88
:104a70008346411c484607f049ff061e62d10c2fb1
:104a800000d89ce05b4659014b465b69591a484681
:104a900005f036fc061e55d14846243009f08efb41
:104aa00003904b46019322e007264be0290058e093
:104ab0004546564a934203d049004b5b002b03d135
:104ac000402362461a43944663463b700123524694
:104ad00013710021019804f03ffe002800d090e0ff
:104ae00001235b429c46e3445b46002b26d0019c9d
:104af000e36902931900504608f09cfc002800d09e
:104b00007de05346dd68276a5b46dbb29c46039b2b
:104b10007b730f23fb7200233b73bb76fb765b46f4
:104b2000ff221340013b5900c9188900c918384aaf
:104b300016000d3600233548a84615e0019b99461e
:104b40003de0062630000bb03cbc90469946a2469c
:104b5000ab46f0bd0726f5e715787d19ff242c70cc
:104b60006c700132b242a3d08342f5d04d1c490093
:104b70004346cb5a117879180b701c0a4c70002be5
:104b800094d129000300ece77e232b70130039e752
:104b90007e23ab545a3b4946c95c0023202900d1ef
:104ba00030e701339a4200d82ce7f95c2029f8d18c
:104bb00028e70121484607f0a9fe061ec2d14b4650
:104bc000d969504608f036fc061ebbd120220021d0
:104bd0004b46186a09f02afe494624310b224b46ff
:104be000186a09f081fd4b461a6a2f234946c95cb1
:104bf000173b0b401373012352461371a2e70600c3
:104c0000a0e706009ee7c04621100100ffff00005c
:044c10007ce700003d
:020000040000fa
:104c1400f0b5d6464f464646c0b592b0050003915e
:104c24001700002800d1efe03f261640320004a907
:104c340003a8fef731fb041e08d000232b602000dc
:104c440012b01cbc90469946a246f0bd049b059345
:104c5400039905a8fef70aff002800d0e8e005aa9a
:104c64002f23d35c7f2b00d9e7e001233100994344
:104c74004b1e9941100006f075f91c223a4259d096
:104c8400002800d0f0e005ab9b7911221a4200d035
:104c9400cae07b0709d50824cfe705a8fff74efe35
:104ca400002800d0bee008231e43330750d509f086
:104cb4004bfe07000d9b019318000e30390009f0dc
:104cc40053fd0d9b019318001630390009f04cfd7b
:104cd400049b0d9f39000193180009f01df98146ca
:104ce4002023fb720d9a029200220299019809f086
:104cf400effa0d981c30002109f036fd049b0122c7
:104d04001a714a46002a21d05f6b0022494605a841
:104d140006f01afb002801d004008ee7390004983d
:104d240008f086fb4b46013b049a136100280dd022
:104d3400040082e7002879d105ab9b79da066dd4ab
:104d4400ba0701d5db076bd43b0701d540231e43cb
:104d5400049b5b6b6b620d9b0193ab62012331007f
:104d640099434b1e994105a805f08efc2861002843
:104d74004cd0049b99460d9b98461900484609f06f
:104d8400cbf80700a86040461c3009f09efb804623
:104d9400e8604b462b60db88ab802e7500236b7577
:104da4002b62ab612c339a46aa44802292000021e4
:104db400504609f039fdb30600d440e74346002bc2
:104dc40000d13ce7ab614b465e897602b04540d8e2
:104dd400ef614346db0500d131e7049e3900300022
:104de40009f0e6fa002801d1022413e043465a0ae6
:104df40012182a6270780123514608f0b5fe002883
:104e040000d11ce7012405e0092418e7022414e773
:104e14000224ef61286907f017ff0ee704240ce76a
:104e240007240ae7040008e7072406e7040004e768
:104e34001c233b4218d10400ffe61c230624062051
:104e44003b4200d0f9e6f6e743469b1b98469e4258
:104e5400bed23900280004f032fb07000128d7d95c
:104e6400431cf1d10124d4e704280bd1064b1b6861
:104e7400002b00d111e7044b1b69002b00d10ce778
:0c4e84001224dae60400d8e6b82400206e
:020000040000fa
:104e900070b582b004006b460022da718c32424356
:104ea000954b9b185a7a072a12d89300934ad358e5
:104eb0009f46914e8c235c4335192b003033197873
:104ec000a05909f0c1f931352978a05909f0bcf988
:104ed00002b070bd88488c236343c2183132117808
:104ee000185809f0e1f80028f2d183488c23634375
:104ef000c21830321178185809f0d6f80028e7d1d6
:104f00007d488c231e00664385196a68ea656a8eaf
:104f10002a662a006c320221117032005c321218ab
:104f20002b0031331978305808f00dff01236b72d4
:104f3000cee78c224243704b9b1864331b78012bc5
:104f40000cd98c2262436c4b9b1864331b787f2beb
:104f5000bed9694ca41800236372b9e766481300f0
:104f6000821831321178185809f09ef80028e8d1db
:104f70006b46d91d200001f0d9f88c2262435e4bac
:104f80009b18587202280dd0042816d005281fd06f
:104f90008c236343584ce418e3686a46073212785e
:104fa0001a7395e76b46d91d2000fef76ffb8c2224
:104fb0006243514b9b185872eae76b46d91d20009b
:104fc00001f0e4fb8c2262434b4b9b185872dfe7e5
:104fd0006b46d91d2000fff727f98c226243464b10
:104fe0009b185872d4e78c224243434b9b184033a2
:104ff0001b785bb2012b00dd6ae73f481300821883
:1050000030321178185809f04ff8002800d05fe7c7
:105010006b46dd1d2900200001f0b8fb8c236343a3
:10502000354ce4186072e3682a781a7350e78c22d2
:105030004243314b9b1864331b785bb2012b00dd7c
:1050400046e72d481300821831321178185809f0bc
:105050002bf8002800d03be76b46dd1d290020001f
:10506000fff7e2f88c236343234ce4186072e36893
:105070002a781a732ce78c2242431f4b9b1840332b
:105080001b785bb2012b00dd22e703f0e9fc8c22e8
:105090006243194b9b1807225a728c226243164bab
:1050a0009b1840331b785bb2012b00dd10e71248e0
:1050b0001300821830321178185808f0f5ff0028d4
:1050c00000d005e70c488c231e0066438519ea686a
:1050d000aa630d22ea632a004832022111703200cd
:1050e000383212182b0030331978305808f02bfe64
:1050f00000236b72ece6c0463821002088e00000f7
:020000040000fa
:10510000f0b5de4657464e464546e0b587b004004a
:105110000f0016009a46002352461360039005a91b
:1051200007f08efc009000284dd1637d0093002b8a
:1051300049d1237d9b0700d4d6e0a3699a199342f5
:1051400000d9de43002e00d1c9e02c239c46a444a4
:105150006346019380235b429b46b8469ce0e1692d
:10516000039803f05bf9002800d1b8e0012832d0a1
:10517000431c34d0e061a368002b00d1a060237de4
:105180007f2b30d8059b9946e169180009f012f988
:1051900000283ad02f18564b9e424fd9720a0292dd
:1051a0004b465b89aa189a4201d95b1b02934b4676
:1051b0005878029b3a00414608f08afa002828d025
:1051c000012363750093009807b03cbc9046994654
:1051d000a246ab46f0bd022363750093f3e70123bb
:1051e00063750093efe7059b58780123226a0199c4
:1051f00008f06efa002804d1227d7f231340237526
:10520000c0e7012363750093dde702236375009314
:10521000d9e7236adf1b029b9f4202d3029b5d02f8
:1052200028e07f023900414480229200019809f071
:105230005bfa227d7f2313402375efe7236abb428d
:1052400003d0a369e26893423cd32762a369d805df
:10525000c00d80239b001d1ab54200d93500019b6b
:105260009c4660442a00414609f03efa237d5a4696
:1052700013432375761b53461b685b195246136014
:10528000a844a3699c466544a561e368ab4200d28b
:105290002b00e360002e22d0a369da05d6d1059a4f
:1052a0005589013d5a0a154000d068e7002b00d00f
:1052b00055e7a068002800d058e70021039803f0c4
:1052c000adf850e74b46587801233a00019908f0b1
:1052d0004dfc0028b9d001236375009373e7237d4b
:1052e0004022134323756ee7072300936be7c04604
:0452f000ff010000ba
:020000040000fa
:1052f40061001a03e0001703f8000703ff00010030
:1053040078010001300132010601390110014a011e
:105314002e017901060180014d00430281018201c1
:1053240082018401840186018701870189018a0140
:105334008b018b018d018e018f01900191019101ef
:1053440093019401f60196019701980198013d0299
:105354009b019c019d0120029f01a001a001a201cb
:10536400a201a401a401a601a701a701a901aa0100
:10537400ab01ac01ac01ae01af01af01b101b201af
:10538400b301b301b501b501b701b801b801ba0160
:10539400bb01bc01bc01be01f701c001c101c201d6
:1053a400c301c401c501c401c701c801c701ca01c1
:1053b400cb01ca01cd011001dd0101008e01de0126
:1053c4001201f3010300f101f401f401f8012801d1
:1053d400220212013a020900652c3b023b023d0203
:1053e400662c3f0240024102410246020a01530276
:1053f400400081018601550289018a0158028f010a
:105404005a0290015c025d025e025f029301610236
:1054140062029401640265026602670297019601c2
:105424006a02622c6c026d026e029c0170027102af
:105434009d01730274029f01760277027802790259
:105444007a027b027c02642c7e027f02a601810226
:105454008202a9018402850286028702ae01440207
:10546400b101b20145028d028e028f0290029102b7
:10547400b7017b030300fd03fe03ff03ac03040039
:105484008603880389038a03b1031103c20302005c
:10549400a303a303c4030803cc0303008c038e03f8
:1054a4008f03d8031801f2030a00f903f303f4038a
:1054b400f503f603f703f703f903fa03fa033004d9
:1054c400200350041007600422018a043601c10439
:1054d4000e01cf040100c004d00444016105260478
:0454e4000000c046be
:020000040000fa
:1054e800f0b5de4657464e464546e0b585b00190d4
:1054f8000c000391914602930f9b002b28d00123a7
:105508005b420f9a136007f071fa061e20d04b46d3
:10551800002b24d0002c22d0378874227a43644b85
:105528009b1864331b78002b07d074227a43604b96
:105538009b181b6e019a93420ad174237b439b46a6
:105548005b4b5b449a46180004f074fb00280dd1ad
:1055580005b03cbc90469946a246ab46f0bd0e9bb2
:10556800002bf5d0029b002bd6d1f1e73388984663
:105578007423424653434e4ad2189069d36ed16978
:1055880000290ed000228b42a4412340dc00e418fd
:10559800a40004192578002d07d001320133914267
:1055a800f1d1504604f0bbffd2e70122227000225d
:1055b80022627421424651433d4a5118888c0004a6
:1055c800327812020243ff2018400243e261898cbc
:1055d800013189b2374a91421dd074204246504366
:1055e800334a121891840133d366029b6360039b8c
:1055f800a3600123637500232375019ba361b3692d
:10560800002b0ad0082b1dd84b465d00e5600e9b89
:105618005b00236105e00121dfe74b46e3600e9b59
:1056280023610f9be2691a6053461b6a002b10d056
:105638001f4b5b441b6a002b31d01a6a002a2ad1ff
:105648001a002be04b469b00e3600e9b9b002361f6
:10565800e7e753461c6202236375200004f04ef905
:1056680074227a43124b9b18db6a013306d07422ea
:105678007a430f4b9b181b6b013314d12369626863
:10568800e168a06874257d43094c641964696468fd
:10569800a04704e01a00136a002bfbd1146250469d
:1056a80004f03dff54e7200000f06cfcf7e7c0462b
:0856b800c4210020ffff0000e7
:020000040000fa
:1056c000f0b5de4657464e464546e0b585b00190fa
:1056d0000c00150002930eab80cb1e78002902d07f
:1056e00001235b420b60002d27d0002f25d00198ad
:1056f00006f030fc002820d00388a4215943614ad9
:10570000521846321278012a17d1002e1cd1c278c5
:10571000d20712d5029ab918a4225a439446594a7c
:10572000624490321268914207d8a4215943554ae5
:10573000521874321278012a1cd005b03cbc904635
:105740009946a246ab46f0bdc2789207f5d5029abb
:10575000b918a4225a4394464a4a624498321268bd
:105760009142ead86146474a521847321278002ad5
:10577000dbd0e2e7434a9146a42294460a004a4419
:1057800074320021117002889046624641464a43b5
:105790004a441100126d9446c96c8b46002969d0a9
:1057a00011788a462432002103915146002912d0f3
:1057b00084460399a146aa465d460131a94259d0c3
:1057c000100024320478002cf7d1020060460391c7
:1057d0004c4655469446012261460a7000220a62f0
:1057e000a43241464a4327498a465244118a090451
:1057f0000078000208438146ff2103980840010019
:10580000484601436046c160128a013292b21e4985
:105810008a4224d0a420414648431a4909180a82e2
:1058200062460199516015610299516197615677fd
:10583000012261460a72002c01d0ca682260a422ab
:105840005a4310495118486d00280ad00f498a5808
:10585000002a0fd0116a002907d1110008e00122a7
:10586000d8e762464a6505e011000a6a002afbd1c2
:1058700062460a62a4225a43024b9b1874330122e7
:105880001a705ae7d41e0020ffff0000281f0020d6
:020000040000fa
:10589000f0b5de4657464e464546e0b589b0039121
:1058a00002921e00002800d0cfe0694b1c68656999
:1058b0006b1c31d0636a1b699b68984680239b00f0
:1058c000984510d943465f0a012f18d0604b01223a
:1058d0009a75002e00d1a3e080231b0106935d4b37
:1058e0000793c14664e080239b00984507d041465a
:1058f000180005f0e5fc039b434303934643212333
:105900000222e25421001c31a3680096de68039b4a
:10591000029a2800b047e569280009b03cbc9046cf
:105920009946a246ab46f0bd21230222e2544a4bdf
:10593000994501d84b46069321001c316069a36844
:10594000069a00929b689b46059b4a465343414af0
:10595000d84721239b465b46e256022a06d1a3681c
:10596000db6a002bf9d020699847f4e7002a0bd1b5
:1059700043465802374b9c4660446a02029908f03d
:10598000b3fe079b049328e0314b00229a75012552
:105990006d42c1e7002a3dd1761b039b9c46ac4477
:1059a000634603936d02029b9c46ac44634602939c
:1059b0003900039d280005f083fc0590390028007c
:1059c00005f0bafc88467b1a9a461d00b34200d9fe
:1059d0003500029b0493af42a6d1b24523d22123c6
:1059e0000221e15421001c316069a3680122009268
:1059f000db689846059b049ac04721239846434696
:105a0000e256022ac6d1a368db6a002bf9d02069ce
:105a10009847f4e70e4b00229a7501256d427be70b
:105a20000596029b04930a4b0021997521230231ac
:105a3000e15421001c316069a36801250095dd68ef
:105a4000059b049aa847e56966e701256d4263e76f
:0c5a50001828002000000020ff070000c4
:020000040000fa
:105a5c00f0b5de4657464e464546e0b587b00400e5
:105a6c0003680193002104f045fc051e00d0b9e049
:105a7c0001235b4223630133ff339b4698463f2748
:105a8c000ce001235b4223630133ff339846002172
:105a9c00200003f05bfe051e00d0a3e0e169019835
:105aac0007f0c2fc051e00d09ce0266a3578002d5c
:105abc0000d196e0f37a3a001a40a271e52de0d0bd
:105acc001b0732d50f2adcd12f23e35c5b06ded417
:105adc006b0648d5737b9b4640239d4363692363c8
:105aec00737bff2290465b45d1d1f27e1202b37ece
:105afc00134300d082e0019bdb68049333783b4076
:105b0c00013b5a00d218920092469a44404b984658
