:020000040000fa
:10000000f0ff03206d7702001fdb0100d7e801003d
:10001000bf13020027180200b71a020000000000f8
:100020000000000000000000000000003f3002005f
:1000300007020200000000003f3002003f300200d3
:100040003f3002003f3002003f3002003f300200ec
:100050003f3002003f3002003f3002003f300200dc
:100060003f3002003f3002003f3002003f300200cc
:100070003f3002003f3002003f3002003f300200bc
:100080003f3002003f3002003f3002003f300200ac
:100090003f3002003f3002003f3002003f3002009c
:1000a0003f3002003f3002003f3002003f3002008c
:1000b0003f3002003f3002003f300200e5420300c3
:1000c000ef4203003f3002003f3002003f300200a9
:1000d0003f3002003f3002003f3002003f3002005c
:1000e0003f3002003f30020000000000000000002e
:1000f000000000003f3002003f3002003f300200ad
:100100003f3002003f3002003f3002003f3002002b
:100110003f3002003f3002008dbb02008dbb020069
:100120008dbb02008dbb02003f3002003f30020059
:100130003f3002003f300200c5b30100c5b30100eb
:10014000c5b30100c5b301003f3002003f300200db
:100150003f3002003f3002003f3002003f300200db
:100160003f3002003f3002003f3002003f300200cb
:100170003f3002003f3002003f3002003f300200bb
:100180003f3002003f3002003f3002003f300200ab
:10019000390f03003f3002003f3002003f300200c1
:1001a0003f3002003f3002003f3002003f3002008b
:1001b0003f3002003f3002003f3002003f3002007b
:1001c0003f3002003f3002003f3002003f3002006b
:1001d0003f3002003f3002003f3002003f3002005b
:1001e0003f3002003f3002003f300200c5100300e4
:1001f0003f3002003f3002003f3002003f3002003b
:100200003f3002003f3002003f3002003f3002002a
:100210003f3002003f3002003f3002003f3002001a
:100220003f3002003f3002003f3002003f3002000a
:100230003f3002003f3002003f3002003f300200fa
:100240003f3002003f3002003f3002003f300200ea
:100250003f3002003f3002003f3002003f300200da
:040260003f30020029
:020000040000fa
:10026400f8b500bff8bc08bc9e46704739e40200ec
:10027400f8b500bff8bc08bc9e46704715e4020000
:020000040000fa
:08028400283c0100010000000c
:020000040000fa
:10028c006d69696d206f70656e3a206661696c6589
:10029c0064210d0a000000004c696d6974656400ee
:1002ac00446972656374656400000000557361678e
:1002bc00653a20616e6e6f756e636520302f310d5f
:1002cc000a000000257320626361737420737562e9
:1002dc006d69747465643a2025640d0a0000000091
:1002ec0073756363657373006661696c65640000a4
:1002fc006f6e00006f6666007463702074726163c9
:10030c006520257320666f7220736f636b65743a7a
:10031c002025642025730d0a0000000075736167a9
:10032c00653a207463707472616365206f6e2f6f11
:10033c006666206e0d0a0000696e666f0000000094
:10034c0054435020736f636b6574733a202564209b
:10035c000d0a000009736b7449783a2025642c202f
:10036c00616464547970653a2025642c2072656d43
:10037c006f7465506f72743a2025642c206c6f6317
:10038c00616c506f72743a2025642c20666c616726
:10039c00733a203078253032780d0a000972785380
:1003ac00697a653a2025642c20747853697a653a09
:1003bc002025642c2073746174653a2025642c20ec
:1003cc00727850656e643a2025642c2074785065e0
:1003dc006e643a2025640d0a000000007573616795
:1003ec00653a2074637020696e666f203c6e3e0d1a
:1003fc000a000000756e6b6e6f776e006d69696d2b
:10040c003a20416e6f74686572206f70657261740a
:10041c00696f6e206f6e676f696e672e2052657400
:10042c007279210d0a0000006d69696d2025733aff
:10043c0020616e206572726f72206f6363757272c9
:10044c0065643a202564210d0a000000557361672c
:10045c00653a206d69696d203c6e65746978206e13
:10046c003e203c61646420613e202d205365742045
:10047c00746865206e6574776f726b20696e746535
:10048c00726661636520696e64657820616e6420b4
:10049c0050485920616464726573730d0a00000042
:1004ac0055736167653a206d69696d203c737461a1
:1004bc00727420723e203c656e6420723e202d20aa
:1004cc005365747320746865207374617274206151
:1004dc006e6420656e642072656769737465722042
:1004ec0028646563696d616c2920666f72206120d8
:1004fc0064756d70206f700d0a0000005573616794
:10050c00653a206d69696d203c7265616420726981
:10051c00783e202d20526561647320726567697383
:10052c00746572207269782028646563696d616cea
:10053c00290d0a0055736167653a206d69696d2054
:10054c003c77726974652072697820776461746194
:10055c003e202d205772697465732072656769732c
:10056c00746572207269782028646563696d616caa
:10057c00292077697468203136206269742064619f
:10058c0074612028686578290d0a0000557361672d
:10059c00653a206d69696d203c64756d703e202d47
:1005ac002044756d707320616c6c20726567697383
:1005bc0074657273205b7253746172742c20724573
:1005cc006e645d0d0a00000055736167653a206d1d
:1005dc0069696d203c73657475703e202d205065e3
:1005ec0072666f726d732074686520504859207361
:1005fc00657475700d0a000055736167653a206d5e
:10060c0069696d2077726974655f736d69207269b1
:10061c0078207764617461202d20457874656e6450
:10062c0065642033322062697420534d49207772ff
:10063c00697465207573696e672072697820286803
:10064c0065782920616e642077646174612868651f
:10065c0078290d0a0000000055736167653a206d1a
:10066c0069696d20726561645f736d692072697868
:10067c00202d20457874656e6465642033322062c9
:10068c00697420534d492072656164207573696edd
:10069c0067207269782028686578290d0a000000a7
:1006ac0064756d7000000000736574757000000057
:1006bc006d69696d207365747570206661696c6510
:1006cc00643a202564210d0a000000006d69696df3
:1006dc0020736574757020737563636573733a2545
:1006ec00640d0a007265616400000000726561644b
:1006fc005f736d690000000077726974650000001b
:10070c0077726974655f736d6900000061646400e1
:10071c006d69696d2077726974653a206d697373c0
:10072c00696e672077446174610d0a006d69696dab
:10073c003a205365742041646420746f3a20256418
:10074c000d0a00006e657469780000006d69696db2
:10075c003a20496e636f727265637420496e7465da
:10076c00726661636520696e6465780d0a0000002d
:10077c006d69696d3a20536574204e6574776f729c
:10078c006b20496e7465726661636520696e646581
:10079c007820746f3a2025640d0a0000737461721e
:1007ac00740000006d69696d3a20536574205374b0
:1007bc006172742052656720746f3a2025640d0aab
:1007cc0000000000656e64006d69696d3a20536528
:1007dc007420456e642052656720746f3a2025643e
:1007ec000d0a00006d69696d3a20556e6b6e6f775e
:1007fc006e206f7074696f6e0d0a0000557361671f
:10080c00653a206d6163696e666f200d0a00000009
:10081c0045783a206d6163696e666f200d0a0000a1
:10082c00496e746572666163653a20257320447263
:10083c006976657220537461746973746963730d9e
:10084c000a0000000d0a2052656365697665205325
:10085c007461746973746963730d0a0009206e52b4
:10086c00784f6b5061636b6574733a2025640d0a85
:10087c0009206e527850656e6442756666657273b7
:10088c003a2025640d0a09206e527853636865641a
:10089c00427566666572733a2025640d0a00000085
:1008ac0009206e52784572726f725061636b657479
:1008bc00733a2025640d0a09206e527846726167de
:1008cc006d656e744572726f72733a2025640d0af1
:1008dc0009206e5278427566664e6f744176616976
:1008ec006c61626c653a2025640d0a000d0a205477
:1008fc0072616e736d697420537461746973746979
:10090c0063730d0a0000000009206e54784f6b5081
:10091c0061636b6574733a2025640d0a09206e546b
:10092c007850656e64427566666572733a2025640c
:10093c000d0a09206e54784572726f725061636ba8
:10094c006574733a2025640d0a09206e547851752c
:10095c0065756546756c6c3a2025640d0a0d0a00a8
:10096c00096e6f7420737570706f727465640d0a04
:10097c0000000000496e746572666163653a20255b
:10098c007320486172647761726520526567697380
:10099c00746572205374617475730d0a0000000045
:1009ac00092025733a20307825780d0a00000000c4
:1009bc00656e61626c656400656e61626c650000f9
:1009cc0064697361626c6564000000006469736142
:1009dc00626c650055736167653a202573203c692c
:1009ec006e746572666163653e203c6f6e2f6f6638
:1009fc00663e200d0a00000045783a2025732050f1
:100a0c0049433332494e54206f6e200d0a000000ca
:100a1c00556e6b6e6f776e20696e7465726661636e
:100a2c00650d0a00556e6b6e6f776e206f70746972
:100a3c006f6e0d0a0000000025732025730d0a004f
:100a4c004661696c656420746f2025732025730dd5
:100a5c000a000000556e6b6e6f776e2073657276b0
:100a6c006963652025730d0a000000006e6f6e65ca
:100a7c0000000000042200000100000044030000fc
:100a8c0002000000fc020000030000000003000054
:100a9c000300000008220000040000005573616789
:100aac00653a20646e7363203c64656c2f696e66d6
:100abc006f2f6f6e2f6f66662f6c6f6f6b75703e3e
:100acc00200d0a0055736167653a202573203c6f31
:100adc006e2f6f66663e203c696e7465726661634c
:100aec00653e203c7374726963742f707265663e48
:100afc002f3c636c6561723e200d0a0045783a20ec
:100b0c002573206f6e20657468300d0a000000009c
:100b1c007374726963740000707265660000000083
:100b2c00636c65617200000055736167653a2064ff
:100b3c006e7363206c6f6f6b7570203c747970658d
:100b4c003e203c686f73744e616d653e200d0a004b
:100b5c0048656c703a203c686f73744e616d653eed
:100b6c002855524c29202d206c6f6f6b20757020ee
:100b7c00666f7220686f73746e616d650d0a00008c
:100b8c0048656c703a203c747970653e203a20615f
:100b9c00206f72204120666f72204950763420619c
:100bac00646472657373206c6f6f6b75700d0a00e3
:100bbc0048656c703a203c747970653e203a20612f
:100bcc00616161206f72204141414120666f72204a
:100bdc00495076362061646472657373206c6f6f54
:100bec006b75700d0a00000048656c703a203c74ff
:100bfc007970653e203a20616e7920666f722062b2
:100c0c006f7468204950763420616e6420495076a8
:100c1c00362061646472657373206c6f6f6b7570d2
:100c2c000d0a0000646e7363206c6f6f6b75703a05
:100c3c0020636f6d6d616e6420696e2070726f67da
:100c4c00726573732e205265747279206c617465b1
:100c5c00722e0d0a0000000041000000610000002f
:100c6c0041414141000000006161616100000000f0
:100c7c00414e5900616e7900646e7363206c6f6f26
:100c8c006b75703a205b25735d204c6f6f6b7570c4
:100c9c002054797065206e6f7420737570706f724c
:100cac007465642e0d0a0000646e7363206c6f6fa4
:100cbc006b75703a20486f7374206e616d6520748b
:100ccc006f6f206c6f6e672e2052657472792e0dcb
:100cdc000a000000646e7363206c6f6f6b75703a62
:100cec00207265736f6c76696e6720686f73743ae7
:100cfc0020257320666f7220747970653a257320f5
:100d0c000d0a000055736167653a20646e736320a9
:100d1c0064656c203c686f73744e616d653e7c61dc
:100d2c006c6c200d0a00000048656c703a203c6821
:100d3c006f73744e616d653e2855524c29202d20e1
:100d4c0052656d6f76652074686520656e74727976
:100d5c0020696620657869737473200d0a000000a1
:100d6c0048656c703a20616c6c202d2052656d6f5b
:100d7c00766520616c6c20746865207265736f6c8d
:100d8c0076656420656e747279200d0a000000008f
:100d9c00616c6c005b25735d206e6f7420706172ea
:100dac0074206f662074686520444e532043616341
:100dbc00686520656e747279200d0a00496e636f48
:100dcc006d706c65746520636f6d6d616e64200d64
:100ddc000a00000055736167653a20646e736320e6
:100dec00696e666f200d0a0048656c703a20646964
:100dfc0073706c61792074686520444e5320636174
:100e0c0063686520656e7472792064657461696cc1
:100e1c0073200d0a00000000444e5320436c69659a
:100e2c006e7420697320646f776e210d0a000000c8
:100e3c00444e5320436c69656e74204946202d2026
:100e4c005374726963743a2025732c205072656652
:100e5c0065727265643a2025730d0a00444e532066
:100e6c00436c69656e74202d2074696d653a20257c
:100e7c00642c2070656e64696e673a2025642c20a2
:100e8c0063757272656e743a2025642c20746f74cd
:100e9c00616c3a2025640d0a00000000486f7374e1
:100eac006e616d65203d202573200d0a54696d65ba
:100ebc006f7574203d202564200d0a00495076344e
:100ecc00203d25730d0a000049507636203d202523
:100edc00730d0a002d2d2d2d2d2d2d2d2d2d2d2d60
:100eec002d2d2d2d2d2d2d2d2d2d2d2d2d2d2d2d26
:100efc002d2d2d2d2d2d2d2d2d2d2d2d2d2d2d2d16
:100f0c002d2d2d2d2d2d2d2d0d0a00004e6f204435
:100f1c004e5320436c69656e742043616368652091
:100f2c00656e7472696573200d0a0000496e7661f6
:100f3c006c696420496e70757420436f6d6d616ec1
:100f4c0064203a5b202573205d200d0a0000000010
:100f5c0055736167653a20646e73732064656c2009
:100f6c003c686f73744e616d653e203c49505479fa
:100f7c0070653e203c782e782e782e783e20200d01
:100f8c000a00000048656c703a20686f73744e61fb
:100f9c006d65202d2055524c202c204950547970d1
:100fac0065202d203420666f7220497076342061c4
:100fbc0064647265737320616e64203620666f7290
:100fcc0020497076362061646472657373200d0a53
:100fdc000000000048656c703a204f6e6520495047
:100fec002061646472657373207065722055524c75
:100ffc0020617420612074696d652077696c6c20a8
:10100c0062652064656c65746564200d0a000000df
:10101c0045783a20646e73732064656c207777771b
:10102c002e78797a2e636f6d20342031302e323049
:10103c002e33302e343020200d0a000045783a2013
:10104c00646e73732064656c207777772e616263ae
:10105c002e636f6d203620323030313a3a313031d8
:10106c0020200d0a0000000055736167653a20646a
:10107c006e737320616464203c686f73744e616d91
:10108c00653e203c4950547970653e203c782e7862
:10109c002e782e783e203c6c69666554696d653ef1
:1010ac00200d0a0048656c703a204c6966655469dd
:1010bc006d65202d20546865206c69666520746907
:1010cc006d6520696e205365636f6e6420666f7268
:1010dc00206561636820656e74727920746f20627c
:1010ec00652075736564200d0a00000048656c70fe
:1010fc003a204f6e652049502061646472657373a9
:10110c00207065722055524c2061742061207469e6
:10111c006d652077696c6c20626520616464656420
:10112c00200d0a0045783a20646e73732061646464
:10113c00207777772e78797a2e636f6d2034203173
:10114c00302e32302e33302e343020313230200dd0
:10115c000a00000045783a20646e73732061646461
:10116c00207777772e6162632e636f6d2036203285
:10117c003030313a3a31303120313230200d0a00e2
:10118c0020486f73746e616d65206c656e67746852
:10119c002073686f756c64206e6f74206265206daf
:1011ac006f7265207468616e205b25645d0d0a00aa
:1011bc00496e76616c6964204950763420616464b0
:1011cc007265737320737472696e67200d0a000068
:1011dc00496e76616c69642049507636206164648e
:1011ec007265737320737472696e67200d0a000048
:1011fc005468652041646472657373206973206e52
:10120c006f742070617274206f662074686520445e
:10121c004e5320436163686520656e747279200dae
:10122c000a0000004e6f206d656d6f72792061763b
:10123c0061696c61626c65200d0a00004e6f207351
:10124c007061636520746f20616464205b25735d3d
:10125c0020656e747279200d0a0000004661696c7d
:10126c00656420746f20616464205b25735d206568
:10127c006e747279200d0a00fc210000030000003e
:10128c00180700000000000004220000010000000c
:10129c00440300000200000055736167653a206446
:1012ac006e7373203c736572766963652f61646439
:1012bc002f64656c2f696e666f3e200d0a0000006e
:1012cc0055736167653a646e7373207365727669e2
:1012dc006365203c696e746572666163653e203c93
:1012ec006f6e2f6f66663e200d0a000045783a201f
:1012fc00646e73732073657276696365205049431d
:10130c003332494e54206f6e200d0a002573202570
:10131c00732020666f7220696e74657266616365f6
:10132c00205b25735d200d0a000000004661696c8e
:10133c00656420746f20257320257320666f7220de
:10134c00696e74657266616365205b25735d0d0a59
:10135c000000000055736167653a20646e73736515
:10136c00727620696e666f203c686f73746e616d67
:10137c00653e207c203c616c6c3e0d0a0000000038
:10138c00486f73744e616d65202020202020202032
:10139c00495076342f49507636436f756e740d0a6a
:1013ac000000000025732020202020202025640d23
:1013bc000a0000004e6f20444e5320536572766530
:1013cc007220436163686520656e747279200d0a22
:1013dc00000000004e6f204d656d6f7279206973af
:1013ec0020617661696c61626c65200d0a000000f9
:1013fc00486f73744e616d650909495076344164c8
:10140c006472657373090954544c54696d65200ded
:10141c000a0000002573090925642e25642e256415
:10142c002e2564090925640d0a0000005b25735df7
:10143c00204e6f204970763420416464726573735a
:10144c00207769746820696e20444e532043616391
:10145c00686520656e747279200d0a000d0a000013
:10146c00486f73744e616d65202020202020202051
:10147c0049507636416464726573732020202020b5
:10148c00202020202020202054544c54696d6520ad
:10149c000d0a0000257320202020202020257320f9
:1014ac00202020202025640d0a0000005b25735da0
:1014bc00204e6f20497076362041646472657373d8
:1014cc0020444e5320436163686520656e747279c5
:1014dc00200d0a0055736167653a20646863707368
:1014ec00696e666f203c696e746572666163653ef9
:1014fc00200d0a0045783a206468637073696e6643
:10150c006f205049433332494e54200d0a000000dd
:10151c00556e6b6e6f776e20696e74657266616363
:10152c006520737065636966696564200d0a000047
:10153c004d414320416464726573730909495041fc
:10154c00646472657373090952656d61696e696ec5
:10155c00674c6561736554696d65200d0a00000068
:10156c00200d0a204e6f206d6f726520656e7472af
:10157c00792070726573656e74200d0a000000008e
:10158c002573000009257320000000000925642044
:10159c00536563730d0a0000556e6b6e6f776e208a
:1015ac006865617020747970652e205573653a20da
:1015bc005b312c2025645d0d0a0000004e6f206805
:1015cc0065617020696e666f20657869737473202d
:1015dc00666f7220747970653a202573210d0a00ac
:1015ec004865617020747970653a2025732e204906
:1015fc006e697469616c20637265617465642068de
:10160c006561702073697a653a202564204279748b
:10161c0065730d0a00000000416c6c6f6361626cb5
:10162c006520626c6f636b20686561702073697aea
:10163c00653a2025642042797465730d0a00000018
:10164c00416c6c20617661696c61626c65206865c7
:10165c0061702073697a653a20256420427974653b
:10166c00732c20686967682077617465726d61728c
:10167c006b3a2025640d0a004c6173742068656117
:10168c0070206572726f723a20307825780d0a00de
:10169c004e6f20547261636520696e666f206578a9
:1016ac00697374732e0d0a00537461636b2075702b
:1016bc00206661696c65640d0a00000053746163f7
:1016cc006b207570207375636365656465640d0ac2
:1016dc000000000055736167653a20737461636b99
:1016ec00203c75702f646f776e3e203c7072657372
:1016fc00657276653e0d0a0045783a207374616315
:10170c006b20646f776e2070726573657276650df1
:10171c000a00000075700000537461636b20616ceb
:10172c007265616479207570210d0a005475726eb2
:10173c0020537461636b20646f776e20616e64203c
:10174c007468656e207570210d0a00005265737403
:10175c00617274696e672074686520737461636b61
:10176c00207769746820256420696e7465726661df
:10177c0063652873290d0a00646f776e0000000002
:10178c00537461636b20646f776e3a2063616e6e85
:10179c006f7420676574206120737461636b2068bb
:1017ac00616e646c650d0a00537461636b20646f29
:1017bc00776e20646f6e650d0a00000055736167cb
:1017cc00653a206966203c696e7465726661636572
:1017dc003e203c646f776e2f75703e200d0a000022
:1017ec0045783a206966205049433332494e54209b
:1017fc00646f776e200d0a005468697320696e74eb
:10180c0065726661636520616c72656164792075cf
:10181c00700d0a004f7065726174696f6e2066619d
:10182c00696c65642e204e6f20636f6e66696775f8
:10183c00726174696f6e0d0a0000000066756c6c45
:10184c00000000005468697320696e7465726661eb
:10185c00636520616c726561647920646f776e0dcd
:10186c000a00000057726f6e6720706172616d65bf
:10187c0074657220737065636966696564200d0a0e
:10188c00000000004f7065726174696f6e20737593
:10189c00636365737366756c210d0a004f70657216
:1018ac006174696f6e206661696c6564210d0a0054
:1018bc0055736167653a207365746d6163203c698b
:1018cc006e746572666163653e203c783a783a784e
:1018dc003a783a783a783e200d0a000045783a205a
:1018ec007365746d6163205049433332494e542003
:1018fc0061613a62623a63633a64643a65653a6676
:10190c0066200d0a00000000617267765b325d3a5a
:10191c002025730d0a000000496e76616c69642005
:10192c004d414320616464726573732073747269f2
:10193c006e67200d0a000000536574204d41432052
:10194c0061646472657373206661696c65640d0a09
:10195c00000000005365742042494f53204e616dc6
:10196c0065204f4b0d0a00005365742042494f53bc
:10197c00204e616d65206661696c65640d0a00001e
:10198c0055736167653a2073657462696f73203ca7
:10199c00696e746572666163653e203c782e782ea4
:1019ac00782e783e200d0a0045783a2073657462d3
:1019bc00696f73205049433332494e54204d43488c
:1019cc0050424f4152445f3239200d0a0000000052
:1019dc005365742067617465776179206164647202
:1019ec00657373204f4b0d0a000000005365742083
:1019fc0067617465776179206164647265737320c3
:101a0c006661696c65640d0a0000000055736167be
:101a1c00653a207365746777203c696e74657266ed
:101a2c006163653e203c697076342f3620616464b6
:101a3c00726573733e203c76616c696454696d65a4
:101a4c003e200d0a0000000045783a20736574674b
:101a5c0077205049433332494e54203139322e319c
:101a6c0036382e302e31200d0a000000496e76617a
:101a7c006c696420495020616464726573732073cf
:101a8c007472696e67200d0a0000000053657420a3
:101a9c0069702061646472657373204f4b0d0a008a
:101aac005365742069702061646472657373206679
:101abc0061696c65640d0a0055736167653a207342
:101acc0065746970203c696e746572666163653e0d
:101adc00203c697076342f362061646472657373b0
:101aec003e203c697076346d61736b2f697076366d
:101afc0020707265666978206c656e3e0d0a000078
:101b0c0045783a20736574697020504943333249e3
:101b1c004e54203139322e3136382e302e38203278
:101b2c0035352e3235352e3235352e30200d0a0016
:101b3c004e6f207375636820696e7465726661639d
:101b4c00652069732075700d0a000000416e2061dc
:101b5c00646472657373207365727669636520695a
:101b6c007320616c72656164792072756e6e696e3a
:101b7c00672e2053746f7020444843502c205a43d6
:101b8c004c4c2c206574632e2066697273740d0a9c
:101b9c0000000000496e76616c6964204950206d2c
:101bac0061736b20737472696e67200d0a000000fc
:101bbc0055736167653a20736574646e7320312fb9
:101bcc0032203c696e746572666163653e203c78b8
:101bdc002e782e782e783e200d0a000045783a207b
:101bec00736574646e7320312065746830203235ef
:101bfc00352e3235352e3235352e30200d0a00007b
:101c0c00556e6b6e6f776e20444e5320696e646513
:101c1c00780d0a0053657420444e532025642061ce
:101c2c006464726573732025730d0a006e6f7420e3
:101c3c00676976656e0000004e6f6e6500000000ef
:101c4c006661696c0000000055736167653a202578
:101c5c0073203c696e746572666163653e203c6fef
:101c6c006e2f6f66662f72656e65772f7265717554
:101c7c006573742f696e666f3e200d0a00000000bc
:101c8c0072656e657700000072657175657374001e
:101c9c0052657175657374206e6565647320616e31
:101cac0020495020616464726573730d0a00000052
:101cbc0044484350207374617475733a2025642032
:101ccc0028202564203d3d20426f756e64292c2010
:101cdc0074696d653a2025640d0a00004448435030
:101cec00206c656173652073746172743a2025648d
:101cfc002c206475726174696f6e3a202564730dc3
:101d0c000a000000444843502072656e65772074c9
:101d1c00696d653a2025642c20726562696e6420b9
:101d2c0074696d653a2025640d0a000044484350df
:101d3c0020616464726573733a2025730d0a000088
:101d4c0044484350207365727665723a2025730db2
:101d5c000a0000004448435020626f6f74206e618b
:101d6c006d653a2025730d0a00000000444843506d
:101d7c002054696d6520736572766572733a2025ff
:101d8c00642c2025730d0a0044484350204e5450b7
:101d9c0020736572766572733a2025642c20257346
:101dac000d0a0000444843503a206661696c656432
:101dbc0020746f2067657420696e666f0d0a0000d1
:101dcc0025732025732025730d0a0000737563633a
:101ddc0065737366756c00006661696c65642100df
:101dec00736574006765740044656661756c742076
:101dfc00696e746572666163652073657420257302
:101e0c000d0a000044656661756c7420696e74651a
:101e1c0072666163652069733a2025730d0a0000b0
:101e2c0055736167653a206465666e6574207365e9
:101e3c00742f676574203c696e74657266616365a6
:101e4c003e0d0a0045783a206465666e6574207311
:101e5c00657420657468300d0a0000005550000050
:101e6c00444f574e00000000526561647900000039
:101e7c004e6f742052656164790000006468637071
:101e8c007300000064656661756c742049502061b4
:101e9c00646472657373000055736167653a206ef4
:101eac006574696e666f0d0a0000000045783a2073
:101ebc006e6574696e666f0d0a0000002d2d2d2d58
:101ecc002d2d2d2d2d2d20496e7465726661636547
:101edc00203c25732f25733e202d2d2d2d2d2d2da2
:101eec002d2d2d200d0a0000496e746572666163fc
:101efc006520697320646f776e0d0a00486f7374e8
:101f0c00204e616d653a202573202d204e424e5394
:101f1c002064697361626c6564200d0a0000000026
:101f2c004950763420416464726573733a2025738a
:101f3c000d0a00004d61736b3a2025730d0a0000e9
:101f4c00476174657761793a2025730d0a000000aa
:101f5c00444e53313a2025730d0a0000444e53323f
:101f6c003a2025730d0a00004d41432041646472f0
:101f7c006573733a2025730d0a00000049507636bc
:101f8c0020556e6963617374206164647265737348
:101f9c0065733a0d0a0000002020202025730d0add
:101fac000000000020202020556e6b6e6f776e0da8
:101fbc000a00000049507636204d756c74696361d7
:101fcc007374206164647265737365733a0d0a00ef
:101fdc00646863702069732025730d0a000000008b
:101fec004c696e6b2069732025730d0a000000008c
:101ffc005374617475733a2025730d0a0000000048
:10200c002573206973204f4e0d0a000064686370bd
:10201c00000000004d69696d2025733a2030782549
:10202c003034782c206e657449783a2025642c2045
:10203c006164643a2025642c2076616c3a203078f7
:10204c00253038780d0a00004d69696d2025733aea
:10205c002025642c206e657449783a2025642c2048
:10206c006164643a2025642c2076616c3a203078c7
:10207c002534780d0a000000444e53204c6f6f6bd2
:10208c0075703a20444e53206661696c75726520f8
:10209c00666f722025732c206572723a2025640db0
:1020ac000a000000444e53204c6f6f6b75703a2041
:1020bc00726571756573742074696d656f75742eb6
:1020cc000d0a00004c6f6f6b757020416e73776555
:1020dc00723a0d0a2d2d2d2d2d2d2d2d2d2d2d2d15
:1020ec002d2d2d2d2d2d2d2d2d2d0d0a000000000b
:1020fc004e6f204c6f6f6b757020656e747279200b
:10210c00666f72205b25735d0d0a00005b25735da5
:10211c0020412049507634204164647265737320e9
:10212c003a2025642e25642e25642e25640d0a0084
:10213c005b25735d20414141412049507636204159
:10214c00646472657373203a25730d0a00000000f5
:10215c004d69696d202573206572726f723a202566
:10216c00640d0a003a20737461636b20636f6d6dac
:10217c00616e64730000000074637069700000008d
:10218c004661696c656420746f2063726561746567
:10219c0020544350495020436f6d6d616e64730d34
:1021ac000a000000544350495020636f6d6d616efe
:1021bc006473207461736b207265676973747261e8
:1021cc0074696f6e206661696c65640d0a000000ad
:1021dc00696e7465726e616c00000000706f6f6cdc
:1021ec000000000065787465726e616c0000000080
:1021fc00736572766963650064656c006c6f6f6bf8
:10220c00757000006e6574696e666f003a204765e4
:10221c0074206e6574776f726b20696e666f726d69
:10222c006174696f6e0000006465666e6574000011
:10223c003a205365742f4765742064656661756c2c
:10224c007420696e74657266616365003a20444857
:10225c00435020636c69656e7420636f6d6d616ea5
:10226c00647300007a636c6c000000003a205475b3
:10227c00726e205a434c4c206f6e2f6f66660000b6
:10228c00736574646e7300003a2053657420444e79
:10229c005320616464726573730000007365746924
:1022ac00700000003a20536574204950206164642a
:1022bc007265737320616e64206d61736b00000036
:1022cc0073657467770000003a205365742047618a
:1022dc0074657761792061646472657373000000c2
:1022ec0073657462696f73003a2053657420686f6c
:1022fc0073742773204e657442494f53206e616d81
:10230c00650000007365746d616300003a205365cd
:10231c0074204d4143206164647265737300000046
:10232c00696600003a204272696e6720616e20690e
:10233c006e746572666163652075702f646f776e5d
:10234c0000000000737461636b0000003a2053744a
:10235c0061636b207475726e206f6e2f6f666600f2
:10236c0068656170696e666f000000003a20436812
:10237c0065636b206865617020737461747573009c
:10238c003a205475726e204448435020736572761f
:10239c006572206f6e2f6f66660000006468637054
:1023ac0073696e666f0000003a20446973706c614b
:1023bc0079204448435020536572766572204c65f1
:1023cc006173652044657461696c7300646e73732a
:1023dc00000000003a20444e5320736572766572fb
:1023ec0020636f6d6d616e6473000000646e7363c7
:1023fc00000000003a20444e5320636c69656e74f3
:10240c0020636f6d6d616e64730000006d616369b4
:10241c006e666f003a20436865636b204d41432024
:10242c007374617469737469637300006d69696da9
:10243c00000000003a204d49494d20636f6d6d61dd
:10244c006e647300746370003a2054435020636fc1
:10245c006d6d616e6473000074637074726163659a
:10246c00000000003a20456e61626c6520544350b8
:10247c002074726163650000616e6e6f756e6365ca
:10248c00000000003a20416e6e6f756e63650000af
:020000040000fa
:10249c002de9f04fadf2445d0c461a2801f2ca84c6
:1024ac00dfe810f01b00350071005c01bf00320347
:1024bc008202c1022d03550a030b4b0b4203d70baf
:1024cc005d0ca2078202d1005701cc0ccc0ccc0cb9
:1024dc00690cbe0cfc02fc02690c91f8423043f012
:1024ec0001036ff3410381f842300123cb73496937
:1024fc0039b10a2204f1430031f094fd012501f0b9
:10250c009ebc002384f84330012501f098bc91f85f
:10251c00423013f0010f04d10623cb73012501f0d7
:10252c008ebcbf4b1b684bb34d69be4b1b68cb1aa3
:10253c001b11bd4a02fb03f3adf870314ff6ff736c
:10254c00adf87231b1f90400adf874015ea929f04f
:10255c00bffab34b1e68b54b1b685caa294604f145
:10256c004300b047054648b194f8423043f00203ab
:10257c0084f842300223e37301f061bc0623e37359
:10258c00012501f05cbc8b7b012b23d05ab222b10c
:10259c00082b2dd0002501f052bcb1f90600b0f18a
:1025ac00ff3f10d0c96b09b123f078f9206843695b
:1025bc00616b9847b4f9060022f0a6f80123a373c7
:1025cc00002501f03cbc0323cb7308238b7300253f
:1025dc0001f035bcb1f9060029f0caf9054600280e
:1025ec0041f032840323e3730823a37301f027bc67
:1025fc0000220121b4f904001bf004fe10b90025df
:10260c0001f01dbcb4f9040029f0b2f9054600280c
:10261c0001f01584b4f9040020f0e6fb002501f06c
:10262c000ebc486a2bf009fc0546c3b22381a06a94
:10263c002bf003fcc0b240ea052020810c23e3738d
:10264c00012501f0fcbbdcad40f211120021284643
:10265c0031f074fb764b0fcb85e80f00284631f038
:10266c0075fb002281b2b4f904001bf0cbfd30b92c
:10267c001723e37302232373012501f0e0bbdca8cd
:10268c0031f064fb82b2dca9b4f9040023f0defd66
:10269c00b4f9040029f048fa40f211120021dca828
:1026ac0031f04cfb634b93e80300dc90adf87413f2
:1026bc00090c8df87613dca831f048fb002281b2ae
:1026cc00b4f904001bf09efd30b91723e373022309
:1026dc002373012501f0b3bbdca831f037fb82b2c8
:1026ec00dca9b4f9040023f0b1fdb4f9040029f01d
:1026fc001bfa40f211120021dca831f01ffb4e4aec
:10270c00dcab07ca03c31a80dca831f01ffb002224
:10271c0081b2b4f904001bf075fd30b91723e373d3
:10272c0002232373012501f08abbdca831f00efbd8
:10273c0082b2dca9b4f9040023f088fdb4f90400da
:10274c0029f0f2f91723e37302232373012501f017
:10275c0076bb1423cb73012501f071bb8b7b012b52
:10276c0034d05ab2b2b1022b40f018814e6bb4f98e
:10277c00060029f0fdf8054600285fd0226b002ae0
:10278c005cd0b6f1ff3f42d02068056a0023314689
:10279c00a84758e091f8423013f0020f09d013f01b
:1027ac00040f0bd00e23e3730123a373002501f058
:1027bc0046bb0623cb73012501f041bb08461ff035
:1027cc00fbfd0028eed1012501f039bbb1f9060063
:1027dc0029f0cef80546002801f03183236b002b3d
:1027ec0040f0df8020680368012261699847064643
:1027fc00b0f1ff3f03d060630223a373b7e70d234f
:10280c00e37320462ef02cfc002501f018bb13239b
:10281c00e3730023236320462ef022fc01f00fbb50
:10282c00b47c0020bc7c00203dcff33cb07c00206d
:10283c00c4990000d4990000dc990000b4f906009a
:10284c0029f096f888b394f8423013f0080f1cbfa7
:10285c0043f0100384f842304ff400780027b4f9a9
:10286c00060021f0a7ff0546002835d04246394620
:10287c005ca831f063fab5f5007f28bf4ff4007502
:10288c00aab25ca9b4f906001cf0f8fb03460028b8
:10289c0056d02068056b5caa3146a847b0f1ff3fc3
:1028ac0065d02ef0fdffe062d9e720684369314620
:1028bc0098474ff0ff336363002222631023e373c6
:1028cc0094f8423062f3820384f8423020462ef0b2
:1028dc00c7fb012501f0b3ba94f8423013f0100f86
:1028ec000cd12068436a31469847b0f1ff3f07bfcf
:1028fc00002525632063002501f0a1ba94f842302d
:10290c006ff3041384f84230606b26f087fd4ff0b0
:10291c00ff336363002525630923e37394f8423086
:10292c0065f3820384f8423020462ef099fb94f82c
:10293c00423065f3c30384f84230012501f07fbabd
:10294c0020684369314698474ff0ff336363002298
:10295c0022630923e37394f8423062f3820384f810
:10296c00423020462ef07cfb012501f068ba20682d
:10297c004369314698474ff0ff336363002222636b
:10298c000923e37394f8423062f3820384f84230f3
:10299c0020462ef065fb012501f051ba002501f00f
:1029ac004eba002501f04bba4ff4807200215ca89e
:1029bc0031f0c4f92068836bff225ca9984720b1e1
:1029cc000d23e373012501f03aba40f211120021f4
:1029dc00dca831f0b3f95caab949dca830f033fbc0
:1029ec00dca831f0b3f9002281b2b4f904001bf079
:1029fc0009fc20b91723e37302232373e2e7dca855
:102a0c0031f0a4f982b2dca9b4f9040023f01efc65
:102a1c00b4f9040029f088f81723e3730223237315
:102a2c00012501f00cba0868436b4969984740b915
:102a3c002068836bff225ca9984738b10d23e373a0
:102a4c0001e00d23e373012501f0f9b95caa9d495e
:102a5c00dca830f0f8fadca831f078f9002281b269
:102a6c00b4f904001bf0cefb20b91723e373022347
:102a7c002373e8e7dca831f069f982b2dca9b4f978
:102a8c00040023f0e3fbb4f9040029f04df81723fc
:102a9c00e37302232373012501f0d1b9086803699c
:102aac004969984740b220b10d23e373012501f029
:102abc00c6b9626984495ca830f0c5fa5ca831f0eb
:102acc0045f9002281b2b4f904001bf09bfb20b93c
:102adc001723e37302232373e8e75ca831f036f97c
:102aec0082b25ca9b4f9040023f0b0fbb4f9040081
:102afc0029f01af81723e37302232373d6e70c2368
:102b0c00cb73012501f09bb90c23cb73b1f90630c3
:102b1c00b3f1ff3f02d1012501f091b908462ef027
:102b2c009ffa012501f08bb94ff4907200215ca83b
:102b3c0031f004f90bab654a07ca03c31a80a37bb7
:102b4c00082b00f24584dfe813f009002a00430447
:102b5c007e00c900d901ef01fa02330494f8423027
:102b6c0013f0040f0bd094f8423013f0020f0ed078
:102b7c000823e3730123a373002501f060b92046f9
:102b8c001ff01afc0028eed1012501f058b90623dc
:102b9c00e37320462ef064fa012501f050b9b4f924
:102bac00060028f0e5fe0546002801f048810323c5
:102bbc00a37367693b7823b90523a373002501f040
:102bcc003eb9dff814810026b2464ff0ff0b5ffad6
:102bdc0086f94146384630f08ffd90b13c4b83f876
:102bec0000a03c4b83f800b0013608f10508032e19
:102bfc00edd1384631f0aaf8ff281ad8002501f09b
:102c0c001eb9334b01221a70324b83f80090a06925
:102c1c0031f09cf8ff2802d8002501f010b90d23e3
:102c2c00e37320462ef01cfa294b00221a7001f097
:102c3c0006b90d23e37320462ef012fa244b002222
:102c4c001a7001f0fcb8224b1d78e5b1206843687e
:102c5c005caaa1699847b0f1ff3f0ad09df8783182
:102c6c0013f0100f0cbf04230523a373002501f0f0
:102c7c00e6b80d23e37320462ef0f2f9144b002234
:102c8c001a7001f0dcb8206843685caa6169984747
:102c9c00b0f1ff3f09d09df8783113f0100f0cbf45
:102cac0004230523a37301f0cab80d23e373204654
:102cbc002ef0d6f9064b00221a70012501f0bfb890
:102ccc00e8990000fc990000109a0000309a00006e
:102cdc009d760020547f0020207f0020b84e304687
:102cec0031f034f8012281b2b4f906001bf08afaf3
:102cfc0005464ff497720021304631f01ff8b14b66
:102d0c001b78ff2b18d0236b002b55d0ae4b1e8895
:102d1c00b54240d2aa4f384631f018f8811b2a46ea
:102d2c003944b4f9060023f091faa74a13885d1bc5
:102d3c001580002501f083b8236b002be6d1626966
:102d4c00a249304630f07ff9304630f0ffff06b232
:102d5c00ae4219dd002e12dd994fa846b4f906904b
:102d6c00384630f0f3ff85422cbf82b242463946da
:102d7c00484623f06bfa761b36b2002eeedc0823a5
:102d8c00a373002501f05bb882b28d49b4f906003b
:102d9c0023f05cfaf3e78a4d284630f0d7ff811b0d
:102dac0032462944b4f9060023f050fa0025864b2c
:102dbc001d80256301f043b8dff804824ff497724d
:102dcc000021404630f0baff4646814f0fcf0fc668
:102ddc000fcf0fc63b683370404630f0b7ff8542cb
:102dec0018d801232363b4f90660754830f0aeffa0
:102dfc0085422cbf82b22a46714c2146304623f0c4
:102e0c0025fa204630f0a2ff401b6f4b188000259e
:102e1c0001f015b8474682b24146b4f9060023f0da
:102e2c0015fa0026684b1e80266315961696179683
:102e3c00189619961a968df86c600f961096119636
:102e4c00bdf87431bdf87611c3f34312dff88c81f1
:102e5c00480000f03e000390c1f345100290c90aef
:102e6c000191590a01f2bc71009103f01f03013a60
:102e7c0008f1a40115a830f0e6f85c9a08f1c40139
:102e8c000fa830f0e0f84ff497723146384630f026
:102e9c0055ffa36900930fab15aa08f1c80138467a
:102eac0030f0d1f8384630f051ff854218d8012364
:102ebc002363b4f90660424830f048ff85422cbfca
:102ecc0082b22a463e4c2146304623f0bff92046ba
:102edc0030f03cff401b3c4b1880002500f0afbf8e
:102eec0082b23749b4f9060023f0b0f90025364b0d
:102efc001d8025630823a37300f0a1bf4ff49772c4
:102f0c0000212f4830f01aff2e4b1b78ff2b2ed0b0
:102f1c002068c368a1699847b0f1ff3f33d0606364
:102f2c00002323630623a373254830f00fff0122ef
:102f3c0081b2b4f906001bf065f90746236b002b30
:102f4c004ed0214b1d88a84228d21d4e304630f061
:102f5c00fdfe411b3a463144b4f9060023f076f9e4
:102f6c00194a1388df1b1780002500f068bf6169c0
:102f7c000b7823b92068c36816499847cce72068ba
:102f8c00c3689847c8e70d23e37320462ef068f812
:102f9c00114b00221a70012500f051bf084e30462b
:102fac0030f0d4fe411b2a463144b4f9060023f01c
:102fbc004df90025044b1d80256300f040bf00bf78
:102fcc00f46a0020547f0020807d00203c9a000091
:102fdc00449a0000a09a00009d760020c49900003d
:102fec00dff83c824ff497720021404630f0a6fe89
:102ffc0045468a4e0fce0fc50fce0fc533682b70ca
:10300c00404630f0a3fe874218d801232363b4f95d
:10301c000650834830f09afe87422cbf82b23a4663
:10302c007f4c2146284623f011f9204630f08efec5
:10303c00c01b7c4b1880002500f001bf82b24146ba
:10304c00b4f9060023f002f90023764a13802363b7
:10305c001caba293ff23a393d4f8349072482ff0a7
:10306c00b8fb054600285ed006f1400bdff8bca18a
:10307c000027cdf88671cdf88a71cdf88e718df858
:10308c009271ff2239461ca830f058fe5cab20220e
:10309c005946484619f02cffb0f1ff3f46d04ff48b
:1030ac009472daf8001060482ff0c2fd0646002832
:1030bc005ed09df878310373bdf874310381bdf88f
:1030cc007631438100f11a084ff48072394640463c
:1030dc0030f034fe0df5c371404630f09dff5c9b23
:1030ec007360a39bc6f82031a29830f02ffec6f86f
:1030fc001c7183b2002bbcd01f46daf800309b68e1
:10310c007a1c0121daf800009847002841d0c6f853
:10311c001c013a46a29930f0eefcd6f81c0138445a
:10312c0000234370a4e7012500f089be2068836961
:10313c00494698474ff0ff3363630723a3733a4b19
:10314c001f68374830f002fe012281b2b4f9060044
:10315c001bf058f80646002f57d0002800f03b8192
:10316c00dff8c0b0dff8c89009f1a4030793d7e0eb
:10317c0020688369494698474ff0ff3363630d23fa
:10318c00e37320462df06cff27482df0d2f800f0a9
:10319c0056be20688369494698474ff0ff336363f6
:1031ac000d23e37320462df05bff1f4b9b68002b18
:1031bc0013dd1e4c1c4f08e038462bf0f5fd06467f
:1031cc002068c368314698473eb1d6f81c110029d7
:1031dc00f2d02068c3689847eee713482df0a9f8a1
:1031ec0000f02dbe0e4d284630f0b0fda0eb0801ce
:1031fc0032462944b4f9060023f028f8094a13880a
:10320c009e1b1680002f40f0e98007482df091f8a6
:10321c000823a373002500f012be00bf449a0000df
:10322c00f46a0020807d0020c07a0020c47c00203d
:10323c00c4990000002515951695179518951995a4
:10324c001a958df86c500f95109511954ff4977a3f
:10325c0052462946ae4830f071fd3a897b895900b7
:10326c0001f03e010391c3f345110291db0a019376
:10327c00530a03f2bc73009302f01f03c2f3431210
:10328c00079915a82ff0dffe7a6809f1c4010fa881
:10329c002ff0d9fe97f80c80c8f300185246294637
:1032ac009b4830f04bfdd7f81c21002a63d00baba8
:1032bc0003eb880301920faa0092434415aa09f16b
:1032cc00e40193482ff0bffe924b1868c368d7f8ff
:1032dc001c1198478e4830f039fd85b2b54259d251
:1032ec002a46b54228bf324692b28949b4f9060043
:1032fc0022f0acff0023abf800302363761bb6b290
:10330c00854d28462bf050fd824b1b68da68014630
:10331c00184690472f68002f3ff477af002e60d0ef
:10332c00236b002b86d0bbf80080b0453ff65aaf1c
:10333c00774d284630f00afda0eb0801424629449f
:10334c00b4f9060022f082ffbbf80030f61ab6b2d0
:10335c000023abf8003023636f4d28462bf024fd7f
:10336c006c4b1b68da680146184690472f68002f93
:10337c007ff460af49e70bab03eb88031a37019777
:10338c000faa0092434415aa09f1e40160482ff0fa
:10339c005afe9fe70123236332465d49b4f90600c8
:1033ac0022f054ffad1b5d4b1d80002500f047bd86
:1033bc0020462df055fe1023e373594bff221a7053
:1033cc000023564a1380574a1370012500f037bd6d
:1033dc00002500f034bd002500f031bd002500f0c3
:1033ec002ebd002500f02bbd4ff4907200215ca87f
:1033fc0030f0a4fc0fad4c4e0fce0fc596e8030079
:10340c0045f8040b2980a37b082b00f29882dfe897
:10341c0013f009002a009602960296023700430028
:10342c003f018f0294f8423013f0040f0bd094f844
:10343c00423013f0020f0ed00823e3730123a37361
:10344c00002500f0fcbc20461ef0b6ff0028eed193
:10345c00012500f0f4bc0623e37320462df000fe9a
:10346c00012500f0ecbcb4f9060028f081fa054601
:10347c00002800f0e4840523a373002500f0dfbcd2
:10348c002068c36829499847b0f1ff3f27d0606393
:10349c00002323630623a373254830f057fc012235
:1034ac0081b2b4f906001af0adfe0746236b002b6f
:1034bc0042d0204b1d88a84219d21d4e304630f008
:1034cc0045fc411b3a463144b4f9060022f0befedd
:1034dc00184a1388df1b1780002500f0b0bc0d23a1
:1034ec00e37320462df0bcfd012500f0a8bc104e66
:1034fc00304630f02bfc411b2a463144b4f906000f
:10350c0022f0a4fe00250b4b1d80256300f097bc18
:10351c00f46a0020c47c0020c07a0020807d00204a
:10352c00547f00209d760020bc9a0000a09a0000d9
:10353c00a86900207e7d0020dff830824ff4a6724f
:10354c000021404630f0fafb4546874e0fce0fc5a2
:10355c000fce0fc533682b70404630f0f7fb874217
:10356c0018d801232363b4f90650804830f0eefbe1
:10357c0087422cbf82b23a467c4c2146284622f028
:10358c0065fe204630f0e2fbc01b794b188000250d
:10359c0000f055bc0021764b198021631caeff2531
:1035ac002a46304630f0cafba296a395d4f8349044
:1035bc0070482ff00ef9054600285ed0dff8bcb13c
:1035cc00dff8b4a10027cdf88671cdf88a71cdf85b
:1035dc008e718df89271ff2239461ca830f0aefb2b
:1035ec005cab3a465946484619f082fcb0f1ff3fb5
:1035fc0045d04ff49472daf800105e482ff018fba7
:10360c00064600285dd09df878310373bdf87431ff
:10361c000381bdf87631438100f11a084ff48072b2
:10362c003946404630f08afb0df5c371404630f008
:10363c00f3fc5c9b7360a39bc6f82031a29830f01e
:10364c0085fbc6f81c7183b2002bbcd01f46daf880
:10365c0000309b687a1c0121daf80000984700289a
:10366c003fd0c6f81c013a46a29930f044fad6f87d
:10367c001c01384400234370a4e70125dfe32068d4
:10368c008369494698474ff0ff3363630723a3735d
:10369c00384b1f68354830f059fb012281b2b4f920
:1036ac0006001af0affd0646002f55d0002800f09a
:1036bc004881dff8bca0dff8c89009f58873079340
:1036cc00e6e020688369494698474ff0ff3363630f
:1036dc000d23e37320462df0c3fc26482cf029fe65
:1036ec00ade320688369494698474ff0ff33636325
:1036fc000d23e37320462df0b3fc1e4b9b68002b6f
:10370c0013dd1d4c1b4f08e038462bf04dfb0646d5
:10371c002068c368314698473eb1d6f81c11002981
:10372c00f2d02068c3689847eee712482cf001feef
:10373c0085e30e4d284630f009fba0eb080132461c
:10374c002944b4f9060022f081fd094a13889e1b16
:10375c001680002f40f0f78006482cf0eafd082375
:10376c00a37300256be300bf449a0000a8690020f6
:10377c007e7d0020c07a0020c47c0020a49a00002a
:10378c00c49900000025159516951795189519954f
:10379c001a958df86c500b950c950d958df838503d
:1037ac00089509950a954ff4a67b5a462946ae48ca
:1037bc0030f0c4fa3b89c3f34312013a590a01f2bf
:1037cc00bc71009103f01f03a84951f822200799fe
:1037dc0015a82ff038fc7a89c2f34513d20a09f5e3
:1037ec0090710ba82ff02ffc7a6809f1c40108a87e
:1037fc002ff029fc97f80c80c8f300185a4629467c
:10380c00994830f09bfad7f81c1100296cd009f5b7
:10381c0094734fea8802424408eb4202049115a9c2
:10382c00039108a90291019300930fa90a4409f589
:10383c0096718d482ff007fc8d4b1868c368d7f82c
:10384c001c119847884830f081fa85b2b54262d293
:10385c002a46b54228bf324692b28349b4f90600d3
:10386c0022f0f4fc0023aaf800302363761bb6b2d6
:10387c00804d28462bf098fa7d4b1b68da68014680
:10388c00184690472f68002f3ff466af002e5cd08f
:10389c00236b002b3ff476afbaf800804645fff45b
:1038ac0048af714d284630f051faa0eb0801424662
:1038bc002944b4f9060022f0c9fcbaf80030f61a13
:1038cc00b6b20023aaf8003023636a4d28462bf0c9
:1038dc006bfa674b1b68da680146184690472f68ed
:1038ec00002f7ff44faf37e709f594734fea880246
:1038fc00424408eb42021a37049715a9039108a910
:10390c000291019300930fa90a4409f59671564848
:10391c002ff099fb96e70123236332465249b4f901
:10392c00060022f093fcae1b534b1e80002586e252
:10393c0020462df095fb1023e37301257fe2002533
:10394c007de200257be2002579e2002577e20b6b16
:10395c005bb9086803680022496998470146b0f1d1
:10396c00ff3f0bd0206843699847a37b012b22d0e3
:10397c005ab23ab1032b2ad0002560e20d23e3732f
:10398c0001255ce294f8423013f0020f08d013f0da
:10399c00040f09d00e23e3730123a37300254ee219
:1039ac000623e37301254ae220461ef005fd00289c
:1039bc00f0d1012543e2b4f9060027f0d9ff054602
:1039cc00002800f03c820323a373002537e2226b0e
:1039dc00002a3dd120680368616998478046b0f1a0
:1039ec00ff3f00f0338260630023236301224ff416
:1039fc000071b4f906001af005fc0546d0b1474633
:103a0c002068c66a2b46b5f5007f28bf4ff40073bb
:103a1c005caa3946b047064600282fd082b25ca972
:103a2c00b4f9060022f012fcad1b2df039ffe06258
:103a3c00002de5d12068436a41469847b0f1ff3f1d
:103a4c0006bf002323632063236b0bb30025f6e131
:103a5c00616b8846b1f1ff3f00f0f8812068056a80
:103a6c000023a847c2e700bfa8690020380703005d
:103a7c00c47c0020c07a00207e7d00202068436931
:103a8c00394698474ff0ff33636300232363dbe72a
:103a9c0020462df0e5fa0923e37394f842306ff3d6
:103aac00820384f842300125c9e1086803680022ca
:103abc00496998470646b0f1ff3f21d02068c36999
:103acc003146984700258df884540246c2490df2c0
:103adc0084402ff0b8fa0df2844030f037f92a46c2
:103aec0081b2b4f904001af08dfb68b91723e373a3
:103afc0002232373206843693146984701259ee1d0
:103b0c000d23e37301259ae10df2844030f01ef988
:103b1c0082b20df28441b4f9040022f097fbb4f99f
:103b2c00040028f001f81723e373022323732068a1
:103b3c00436931469847012581e1002001900090ae
:103b4c0003460122062112f075fee080b0f1ff3f22
:103b5c0040d00023a14a40f2046122f07bf8e063dc
:103b6c0000283bd00df5a161b4f9040027f0b0ff9b
:103b7c000df59a61b4f9060027f0aaff00258df81f
:103b8c009054bdf8f634dab203921b0a02939df8f6
:103b9c001f3501939df81e3500939df81d359df83a
:103bac001c258f490df592602ff04dfabdf8f634b7
:103bbc0023810df5926030f0c9f82a4681b2b4f930
:103bcc0004001af01ffb88b91723e3730223237335
:103bdc00012534e10a23e373012530e1b4f9060031
:103bec0020f092fd0a23e373012528e10df5926084
:103bfc0030f0acf882b20df59261b4f9040022f009
:103c0c0025fbb4f9040027f08fff1723e37302237d
:103c1c002373744bda8852b9724b1a8982b994f8af
:103c2c00423043f0040384f84230012507e10321bc
:103c3c00b4f9060027f070fe05460028ecd1fee032
:103c4c000221b4f9060027f067fe05460028e6d1ec
:103c5c00f5e091f84130012b03d91223cb730125e8
:103c6c00ede00df5a161b4f9040027f031ff00205f
:103c7c000190009003469df80825062112f0dafd0c
:103c8c00e080b0f1ff3f2bd00023544a40f2046196
:103c9c0021f0e0ffe06338b30df59a61b4f906004a
:103cac0027f016ff00258df89054bdf8f6244e49e8
:103cbc000df592602ff0c7f9bdf8f63423810df5a0
:103ccc00926030f043f82a4681b2b4f904001af03d
:103cdc0099fa88b91723e373022323730125aee005
:103cec000a23e3730125aae0b4f9060020f00cfdc9
:103cfc000a23e3730125a2e00df5926030f026f85b
:103d0c0082b20df59261b4f9040022f09ffab4f975
:103d1c00040027f009ff1723e37302232373314bad
:103d2c00da8852b92f4b1a8982b994f8423043f091
:103d3c00040384f84230012581e00321b4f9060024
:103d4c0027f0eafd05460028ecd178e00221b4f911
:103d5c00060027f0e1fd05460028e6d16fe0486932
:103d6c002af06bf86081e0692af067f820810c2357
:103d7c00e373012563e091f8423013f0020f03d195
:103d8c000623cb7301255ae0086883684969984774
:103d9c00b0f1ff3f04d0d8b91523e37301254ee0f1
:103dac0030f00af90546802200215ca82ff0c6ffee
:103dbc00072d1bd0102d1fd05ca82ff0c7ff0022a1
:103dcc0081b2b4f904001af01dfad8b90223237396
:103ddc000d23e373012532e0109b000075b802003f
:103dec001c9b0000487b00204c9b000062691f4913
:103dfc005ca82ff028f9dfe762691d495ca82ff059
:103e0c0022f9d9e75ca82ff0a1ff82b25ca9b4f922
:103e1c00040022f01bfab4f9040027f085fed7e762
:103e2c0091f8423013f0020f14bf0c230623cb730e
:103e3c00012504e00523cb73012500e0012528466c
:103e4c000df2445dbde8f08f0025f8e71023e37315
:103e5c000025256320462df003f994f8423065f3d4
:103e6c00820384f842300125e9e700bf7c9b000007
:043e7c00a09b000007
:020000040000fa
:103e80002de9f8430446c42606fb00f6be4d354432
:103e900095f89430012b25d0bb4ac42303fb04239f
:103ea000596d93f88530192b01f23181dfe813f059
:103eb00087059005cd051b07fc0520063f068506f6
:103ec0009f06bc06fc06df06480771078b07aa079a
:103ed000c707e207ff07440867088908a608c30860
:103ee0000a090a09002285f8942095f88330032beb
:103ef00015d8dfe813f004001c002e00e101a24aef
:103f0000c42303fb0023d96b28462df0f5fe30b106
:103f10009d4ac42303fb0423012283f883209a4a89
:103f2000c42303fb0423002283f89420b4e7964ab9
:103f3000c42303fb002393f82230002befd0c423cb
:103f400003fb0023002283f82220022283f883202f
:103f5000e5e78d4ac42303fb002393f88630072b43
:103f600000f26b81dfe813f008004a008300600074
:103f7000b600de0014012f01834ac42303fb002393
:103f8000012283f889208149284629f067fe68b319
:103f90007d4ac42303fb0423012283f886207a4a46
:103fa000c42303fb0423002283f8442093f8453004
:103fb000002b00f07181744ac42303fb0423002208
:103fc00083f84520704ac42303fb0423002283f8ae
:103fd000832083f846206e6d002e00f055816a4bd9
:103fe000c42707fb04374ff001083de1664ac423ac
:103ff00003fb0423002283f88920d0e7624ac4230c
:1040000003fb0023012283f889200a22d96a28466b
:1040100027f0c8ff0028c2d05b4ac42303fb042357
:10402000032283f88620bae7574ac42303fb002300
:1040300093f88230dbb2012b12d0534ac42303fb26
:10404000002393f88230dbb2022ba8d1c42303fbf8
:104050000023012283f88620002283f889209ee72e
:10406000c42303fb0023022283f8862097e7002263
:10407000114607f071fc444ac42303fb042393f860
:1040800087300c2b0cd00b2b89d13f4ac42303fb68
:104090000423002283f88920012283f886207ee70a
:1040a000c42303fb0423002283f8892093f88c3077
:1040b000012b07d0344ac42303fb0423012283f8d5
:1040c00086206ce7304ac42303fb0423082283f8cc
:1040d000862010e02c4ac42303fb002393f8893088
:1040e000022b08d0c42303fb0023012283f889207c
:1040f000052283f88620244ac42303fb04230122db
:1041000083f8442093f84530934200f0c5801e4a5e
:10411000c42303fb0423012283f84520032283f8f0
:104120008320fce60022042107f016fc164ac42373
:1041300003fb042393f887300c2b0cd00b2bdad124
:10414000114ac42303fb0423002283f8892001229f
:1041500083f8862023e7c42303fb042393f88c30e1
:1041600033b9c42303fb0423062283f88620c2e765
:10417000054ac42303fb0423002283f8892001227b
:1041800083f886200be700bff46d0020801a06003c
:104190001422b94901eb4011284620f013fd38b133
:1041a000b64ac42303fb0423072283f88620a2e730
:1041b000b24ac42303fb0423002283f8892001228e
:1041c00083f88620ebe6ad4ac42303fb002393f873
:1041d0008230dbb2012b12d0a84ac42303fb002398
:1041e00093f88230dbb2022b85d1c42303fb00237a
:1041f000002283f88920012283f88620cfe6c42399
:1042000003fb0023002283f8892013229a4901eb43
:104210004011586b2ef0c8fd38b9984ac42303fbef
:104220000423042283f8862065e7944ac42303fb11
:104230000423012283f88620b1e6904ac42303fbbd
:104240000023002283f8442093f8453023b38b4a9f
:10425000c42303fb0023002283f84520b2e6002399
:10426000336233706e6d7eb1336a6b6532797b6811
:1042700003eb0213d3f80490b9f1000fefd09a6862
:10428000f1684046c847eae77c4ac42303fb04239d
:10429000002283f8862042e6784ac42303fb0423e5
:1042a00093f88930002b7ff43aaec42303fb042338
:1042b000002283f8832032e6704ac42303fb0023e4
:1042c00093f88830172b00f20a81dfe813f018000a
:1042d00037000801510072009f00db00fa00510115
:1042e000b101d501e60107023402080108014f02bd
:1042f000ac02d902f4021603350354035d035f4b8d
:10430000c42606fb00360023336486f8483096f94d
:10431000803003f01f010127c3f34a1303f50200a5
:1043200000f5807007fa01f1c00130f015f9544929
:10433000284629f093fc86f88870f0e54f4ac4239c
:1043400003fb00230a22d96a284627f02bfe38b146
:104350004a4ac42303fb0423032283f88820dee5b2
:10436000464ac42303fb0423172283f8882017e35b
:10437000424ac42303fb002393f88230dbb2012bb3
:1043800010d03e4ac42303fb002393f88230dbb2f3
:10439000022b7ff4c4adc42303fb0023172283f850
:1043a0008820fde2c42303fb0023042283f8882035
:1043b000b5e50022114607f0cffa304ac42303fbcb
:1043c000042393f887300c2b0ad00b2b40f0878006
:1043d0002a4ac42303fb0423172283f88820dfe240
:1043e000c42303fb042393f88c30012b07d0234a0a
:1043f000c42303fb0423012283f888208fe5c42310
:1044000003fb0423052283f8882088e54ff4d57246
:10441000022107f0a1fa194ac42303fb042393f8ed
:1044200087300c2b09d00b2b59d1144ac42303fb22
:104430000423172283f88820b2e2c42303fb042359
:10444000d3f89030c3f30b03b3f5d57f0ad0002324
:104450000a49c42202fb041282f82330062382f8a0
:1044600088305ce5c42303fb042393f88c3083f08d
:104470000403c3f38003ebe7a0780020f46d002071
:10448000801a06000022102107f066fac44ac423ed
:1044900003fb042393f887300c2b09d00b2b1ed180
:1044a000bf4ac42303fb0423172283f8882077e242
:1044b000c42303fb0423072283f888200022da7434
:1044c0002de500220f2107f047fab54ac42303fb6c
:1044d000042393f887300c2b36d00b2b3bd0b04afb
:1044e000c42303fb042393f88830162b40f0558235
:1044f000ab49c42303fb0413002783f847701a6ced
:104500004ff40070c3f8ac00c3f8b020c3f8b40097
:10451000c3f8b820c3f8bc00c3f8c020182283f841
:1045200098200122c3f89c20c3f8a020c3f8a4203f
:10453000ac360e44c3f8a86083f84620042283f802
:10454000862083f88370eae4c42303fb0423082253
:1045500083f88820e3e4924bc42707fb0437172332
:1045600087f8883028462ff007f80023fb74b6e759
:104570008b4bc42707fb003797f8232092071221a3
:1045800007f0eaf997f887300c2b0ed00b2ba6d149
:1045900028462ef0f1ff824ac42303fb04230022a5
:1045a000da74172283f88820fae17d4a97f88c3074
:1045b000abb17b4ac42303fb0423db7cdbb1784a29
:1045c000c42303fb042393f821304bb3c42303fb20
:1045d0000423172283f888200022da74e0e1c4273c
:1045e00007fb0427092387f8883028462ef0c4ffec
:1045f0000023fb7473e74ff47a7128462df0a0fb7b
:1046000038b9674ac42303fb0423172283f88820a0
:10461000c6e1634ac42303fb04230122da74cee714
:104620005f4ac42303fb0423072283f8882076e42f
:104630000022102107f090f9594ac42303fb0423f8
:1046400093f887300c2b0ad00b2b7ff448af544ad9
:10465000c42303fb0423172283f88820a0e1c4238a
:1046600003fb0423d3f89020c2f3807283f8482020
:104670000a2283f8882052e4494bc42606fb003600
:10468000b16b284629f0eafa0a22b16a284620f0de
:1046900099fa0b2386f8883041e4414ac42303fb8e
:1046a000002393f88230dbb2012b10d03c4ac423a4
:1046b00003fb002393f88230dbb2022b7ff42fac94
:1046c000c42303fb0023172283f8882068e1c42356
:1046d00003fb00230c2283f8882020e4002203211e
:1046e00007f03af92e4ac42303fb042393f88730da
:1046f0000c2b0ad00b2b7ff4f2ae294ac42303fb08
:104700000423172283f888204ae1c42303fb0423ef
:1047100093f88c303bb9c42303fb04230d2283f8a8
:104720008820fff7fcbb1e4ac42303fb0423172287
:1047300083f8882034e11a4ac42303fb002314229f
:10474000196b284620f03efa40b1154ac42303fbfa
:104750000423102283f88820fff7e1bb104ac4230a
:1047600003fb0423172283f8882019e10c4ac42391
:1047700003fb002393f88230dbb2012b12d0084aee
:10478000c42303fb002393f88230dbb2022b7ff4b7
:10479000c6abc42303fb0023172283f88820ffe065
:1047a000f46d0020c42303fb00231a6b1378fe2b47
:1047b00008bf0132137813f0c00f14d0d3791b0453
:1047c00003f47c13117a43ea0123527a1343013331
:1047d0009b02c649c42202fb04121364112382f80f
:1047e0008830fff79cbb907900f00300d37943ea4f
:1047f0000020517a490001f00601137a9b0943ea2f
:1048000080030133907a41ead011023103fa01f1b9
:10481000537903f00f03a3f10902012393409bb2e4
:1048200003fb01f3d5e70022042107f095f8af4a16
:10483000c42303fb042393f887300c2b0ad00b2be3
:104840007ff44daea94ac42303fb0423172283f847
:104850008820a5e0c42303fb042393f88c303bb9e4
:10486000c42303fb0423122283f88820fff757bbdd
:104870009e4ac42303fb0423172283f888208fe079
:104880009a4ac42303fb00231422596b284620f0c4
:1048900099f940b1954ac42303fb0423132283f8fa
:1048a0008820fff73cbb914ac42303fb0423172253
:1048b00083f8882074e08d4ac42303fb002393f817
:1048c0008230dbb2012b10d0884ac42303fb0023c3
:1048d00093f88230dbb2022b7ff421abc42303fbbd
:1048e0000023172283f888205ae0c42303fb002307
:1048f000142283f88820fff712bb0022112107f051
:104900002bf87a4ac42303fb042393f887300c2b3b
:104910000ad00b2b7ff4e3ad744ac42303fb0423ba
:10492000172283f888203be0c42303fb04231522cd
:1049300083f88820fff7f3ba4ff40072072107f0dd
:104940000bf86a4ac42303fb042393f887300c2b2b
:104950000ad00b2b7ff4c3ad644ac42303fb0423aa
:10496000172283f888201be0c42303fb04231622ac
:1049700083f88820bce55d4ac42303fb00230022a2
:1049800083f88820fff7cbba584ac42303fb0023df
:10499000002283f88820fff7c2ba172b7ff4bfaa42
:1049a000524ac42303fb0423002283f8452083f8e2
:1049b000442083f8862083f88320fff7b0ba4b4a5f
:1049c000c42303fb042393f84630012b40f09f835c
:1049d000464ac42303fb042393f88930002b40f09c
:1049e0009683e9b1414ac42303fb0423022283f8de
:1049f00089200a7293f8483013b94b695b024b6106
:104a00004b7fa3b98b69012b0cbf082309230b77bc
:104a1000364ac42303fb0423022283f8852076e36d
:104a2000c42303fb0423002283f885206fe38b69f2
:104a3000012b0cbf0a230b230b772c4ac42303fb47
:104a40000423032283f8852061e34a69097f204615
:104a500006f082ff254ac42303fb042393f8873022
:104a60000c2b0ad00b2b40f05283204ac42303fbab
:104a70000423192283f8852049e3c42303fb04237c
:104a800093f88c3043b9c42303fb04230022da7467
:104a9000052283f885203ae3144ac42303fb042348
:104aa000192283f8852032e3104ac42303fb042330
:104ab00093f88230dbb2012b10d00c4ac42303fbe5
:104ac000042393f88230dbb2022b40f02083c4230e
:104ad00003fb0423192283f8852018e3c42303fb76
:104ae000042393f8842083f8852010e3f46d0020dc
:104af000bf4ac42303fb04230122996a284620f0fd
:104b000061f850b1ba4ac42303fb0423062283f898
:104b10008420042283f88520f9e2b54ac42303fbec
:104b200004230022da74192283f88520efe2b04ac8
:104b3000c42303fb04239b6a1b78fe2b15d0ac4acd
:104b4000c42303fb0423db7cdbb1a94ac42303fb9e
:104b5000042393f8213043b3c42303fb042300222e
:104b6000da74192283f88520d1e2c42606fb0426d4
:104b7000072386f8853028462ef0fefc0023f374c8
:104b8000c5e2fa2128462df0dbf838b9984ac4234b
:104b900003fb0423192283f88520b8e2944ac42336
:104ba00003fb04230122da74cfe7914ac42303fbf9
:104bb0000423052283f88520a9e24ff400720969d5
:104bc00028461ff0ffff50b1894ac42303fb04238a
:104bd000082283f88420042283f8852097e2844aff
:104be000c42303fb0423192283f885208fe2804a23
:104bf000c42303fb04230222996a28461ff0e2ff24
:104c000050b17b4ac42303fb0423092283f8842088
:104c1000042283f885207ae2754ac42303fb042327
:104c2000192283f8852072e20b7f092b07d0704a86
:104c3000c42303fb04230b2283f8852067e28b69de
:104c4000013b8b613bb96a4ac42303fb04230a225c
:104c500083f885205be20b6903f500730b61644afe
:104c6000c42303fb0423052283f885204fe2604a16
:104c7000c42303fb04230122996a28461ff0a2ffe4
:104c800050b15b4ac42303fb0423182283f8842019
:104c9000042283f885203ae2554ac42303fb042307
:104ca000192283f8852032e200220521204606f0f1
:104cb00053fe4f4ac42303fb042393f887300c2b85
:104cc0000ad00b2b40f02382494ac42303fb042360
:104cd000192283f885201ae2c42303fb04230b2244
:104ce00083f8852013e24a69097f204606f034fee6
:104cf0003f4ac42303fb042393f887300c2b0ad0cc
:104d00000b2b40f004823a4ac42303fb04231922ec
:104d100083f88520fbe1c42303fb042393f88c3044
:104d200033b9c42303fb04230c2283f88520eee16e
:104d30002f4ac42303fb0423192283f88520e6e1cc
:104d40000b7f0b2b2a4a4ff0c40303fb04239b6aff
:104d50000cbffc22fe221a70254ac42303fb042345
:104d60000122996a284620f08ffe50b1204ac423c0
:104d700003fb04230d2283f88420042283f885207a
:104d8000c5e11b4ac42303fb0423192283f88520b1
:104d9000bde14ff400720969284620f075fe50b15c
:104da000134ac42303fb04230e2283f88420042225
:104db00083f88520abe10e4ac42303fb04231922a8
:104dc00083f88520a3e10a4ac42303fb04230222bb
:104dd000d96a284620f058fe60b1054ac42303fb77
:104de00004230f2283f88420042283f885208ee197
:104df000f46d0020b24ac42303fb0423192283f874
:104e0000852084e1ae4ac42303fb04230122996a6e
:104e100028461ff0d7fe50b1a94ac42303fb042340
:104e2000102283f88420042283f885206fe1a44aad
:104e3000c42303fb0423192283f8852067e1a04ad9
:104e4000c42303fb04239b6a1b7803f01f03052b79
:104e500006d0c42303fb0423192283f8852056e1de
:104e6000974ac42303fb0423112283f885200022e0
:104e7000da744ce1924ac42303fb04230122996aa9
:104e800028461ff09ffe50b18d4ac42303fb042324
:104e9000122283f88420042283f8852037e1884a8f
:104ea000c42303fb0423192283f885202fe1844abd
:104eb000c42303fb04239b6a1b7883bbc42303fb2b
:104ec0000423db7c7bb17e4ac42303fb042393f8d9
:104ed0002130e3b1c42303fb04230022da74192236
:104ee00083f8852013e1fa2128462cf029ff38b9f0
:104ef000734ac42303fb0423192283f8852006e1a7
:104f00006f4ac42303fb04230122da74dbe76c4af3
:104f1000c42303fb0423112283f88520f7e02846ed
:104f20002ef02afb664ac42303fb04230022da7412
:104f3000132283f88520eae00b7f0b2b07d0604a11
:104f4000c42303fb04230b2283f88520dfe08b6955
:104f5000013b8b613bb95a4ac42303fb042314224f
:104f600083f88520d3e00b6903f500730b61544a85
:104f7000c42303fb04230c2283f88520c7e0504a96
:104f8000c42303fb04239a6afd2111700122996a4c
:104f9000284620f079fd60b1494ac42303fb04236d
:104fa000152283f88420042283f885200022da74f5
:104fb000ade0434ac42303fb0423192283f8852070
:104fc000a5e03f4ac42303fb04230122996a284633
:104fd0001ff0f8fd50b13a4ac42303fb0423162204
:104fe00083f88420042283f8852090e0344ac42387
:104ff00003fb0423192283f8852088e0304ac42368
:1050000003fb04230122996a28461ff0dbfd50b1ff
:105010002b4ac42303fb0423172283f88420042291
:1050200083f8852073e0264ac42303fb0423192256
:1050300083f885206be0224ac42303fb04239b6a88
:105040001b7883bbc42303fb0423db7c7bb11c4a9a
:10505000c42303fb042393f82130e3b1c42303fbef
:1050600004230022da74192283f885204fe0fa2104
:1050700028462cf065fe38b9114ac42303fb0423eb
:10508000192283f8852042e00d4ac42303fb042340
:105090000122da74dbe70a4ac42303fb0423162245
:1050a00083f8852033e028462ef066fa044ac423ac
:1050b00003fb04230022da74182283f8852026e0fb
:1050c000f46d0020182b19bf4ff0ff33012000238f
:1050d00018460b720e79124bc42202fb043253683d
:1050e00003eb06135e6816b19a68c968b0476b6d2a
:1050f00023b11a6a6a6500221a621a70084ac42328
:1051000003fb0423002283f8892083f88520044ac6
:10511000c42303fb0424012384f89430bde8f883fe
:04512000f46d00200a
:020000040000fa
:10512400607900201c000000000000003c660020a4
:105134000400000000000000ac7300200400000024
:10514400000000003074002068000000000000002f
:105154008c7d002001000000000000009c7d0020e8
:10516400d4000000010000006cb702000000000041
:10517400000000000000000000000000000000002b
:10518400000000000000000000000000000000001b
:10519400000000000000000000000000000000000b
:1051a40000000000000000000000000000000000fb
:1051b40000000000000000000000000000000000eb
:1051c40000000000000000000000000000000000db
:1051d40000000000000000000000000000000000cb
:1051e40000000000000000000000000000000000bb
:1051f40000000000000000000000000000000000ab
:10520400000000000000000000000000000000009a
:10521400000000000000000000000000000000008a
:10522400000000000000000000000000000000007a
:105234000000000000000000000000009b7d002032
:105244000100000001000000ff000000847b00203a
:105254000400000000000000b07300208000000083
:1052640000000000607700202c0000000000000017
:10527400887b00200400000000000000786f0020fc
:10528400a40000000000000060780020200000005e
:1052940000000000007a0020200000000000000050
:1052a400807800202000000000000000f46d002041
:1052b400c400000000000000a078002020000000ce
:1052c40000000000207a0020100000000000000010
:1052d400226c002002000000000000005278002030
:1052e4000200000000000000907500204100000052
:1052f400000000008c7b002004000000000000007f
:10530400d475002041000000000000001876002041
:105314004100000000000000787d00200200000031
:1053240000000000707e0020540000000100000016
:1053340000000000ffff000000000000000000006b
:105344000000000000000000000000000000000059
:10535400000000000000000000000000bb0103008a
:10536400d10101004b020100330203007c0203005f
:10537400dd030300de030300e0030300e103010097
:10538400b3220100547800200c000000000000004b
:10539400187b00200c00000000000000fc710020bd
:1053a4009000000000000000907b00200c00000032
:1053b40000000000b8770020280000000000000072
:1053c4009c7b00200400000000000000307a0020d4
:1053d4001000000000000000a07b0020140000006a
:1053e40000000000407a00202000000000000000bf
:1053f400b47b00200800000000000000607a002058
:105404001000000000000000bc7b00200800000029
:1054140000000000e07700202800000000000000e9
:10542400c47b002004000000000000004875002038
:105434004800000000000000447f00200600000037
:1054440001000000ffffffffffff0000c87b0020fa
:105454000800000000000000707a00201000000026
:1054640000000000d07b00200400000000000000c9
:10547400527b00200200000000000000d47b0020ca
:10548400040000000000000030510020d00700009c
:1054940000000000d87b0020100000000000000085
:1054a400767d00200200000000000000e87b002060
:1054b40008000000000000003078002022000000f6
:1054c40000000000f07b0020040000000000000049
:1054d400284900200800000000000000f47b0020a0
:1054e40004000000000000002f7f002001000000e5
:1054f4000100000003000000527f002001000000b2
:1055040001000000070000008c72002090000000e1
:10551400000000000059002070020000000000009c
:10552400f87b00202800000000000000247b0020fd
:105534000c00000000000000d079002018000000da
:10554400000000007c7900201c0000000000000026
:10555400207c002004000000000000005f7900208f
:105564000100000000000000247c00200400000072
:10557400000000004c7f0020040000000100000037
:10558400ffffffff287c0020100000000000000047
:10559400307b00200c00000000000000807a002016
:1055a4001000000000000000d1750020030000007e
:1055b4000000000016760020020000000000000039
:1055c400387c00200400000000000000907a0020d5
:1055d40010000000000000003c7c002004000000db
:1055e40000000000e879002018000000000000001e
:1055f400407c00200c000000000000005c760020cd
:1056040041000000000000004c7c00200400000069
:10561400000000005a760020020000000000000094
:10562400507c002010000000000000009e76002046
:105634000200000000000000607c00200800000060
:10564400000000006e7d0020020000000000000049
:10565400687c002010000000000000001576002087
:105664000100000000000000537f00200100000042
:105674000100000001000000787c0020040000000c
:1056840000000000727d0020020000000000000005
:105694007a7d002002000000000000007c7c0020d5
:1056a4000c00000000000000a07a002010000000a0
:1056b400000000007c7d00200200000000000000cb
:1056c400887c00200400000000000000a076002078
:1056d40040000000000000008c7c00200800000056
:1056e40000000000597600200100000000000000c6
:1056f400947c00201c00000000000000b07a002010
:105704002000000000000000b07c00200800000021
:10571400000000009d760020010000000000000051
:10572400a86900207a02000000000000487b0020e5
:105734000a00000000000000b87c00200400000003
:10574400000000007e7d0020040000000000000036
:10575400bc7c00200c00000000000000207f002022
:105764000f000000010000002d680000002d610002
:1057740000002d6861000000547f0020010000003b
:1057840001000000ff000000c87c002004000000ad
:10579400000000006d7d00200100000000000000fa
:1057a400c07800202000000000000000cc7c002015
:1057b4000400000000000000717d002001000000d2
:1057c40000000000d07a002010000000000000005b
:1057d400d07c002008000000000000008a7d00202a
:1057e4000100000000000000d87c0020040000003c
:1057f40000000000407900201f00000000000000ad
:10580400dc7c002004000000000000008b7d0020f0
:105814000100000000000000e07c002010000000f7
:10582400000000004a7f0020020000000100000088
:10583400ffff0000f07c00200800000000000000d2
:10584400e07a00201000000000000000f87c002036
:105854000c00000000000000827d00200200000017
:1058640000000000047d002008000000000000008b
:105874008d7d002001000000000000000c7d002050
:105884000c00000000000000847d002004000000e3
:1058940000000000187d00200c0000000000000043
:1058a4008e7d00200100000000000000247d002007
:1058b4000400000000000000c05d0020340200006d
:1058c40000000000406800206801000000000000a3
:1058d400e078002060000000000000008f7d0020c0
:1058e40001000000000000008c7700202c00000064
:1058f40000000000801600200020000000000000ce
:10590400e07600204000000000000000547b0020ee
:105914001000000000000000287d002004000000aa
:1059240000000000907d0020010000000000000045
:105934002041002008080000000000002c7d002009
:105944000400000000000000b86e0020c000000049
:1059540000000000647b002008000000000000003c
:105964003c7b00200c000000000000002c6d002097
:10597400c800000000000000917d0020030000002a
:1059840000000000307d0020040000000000000042
:10599400947d00200100000000000000347d002000
:1059a40004000000000000001c700020a0000000a3
:1059b40000000000887d00200200000000000000bc
:1059c4003c6400200002000000000000107b002066
:1059d4000800000000000000747d002002000000a8
:1059e40000000000957d0020010000000000000080
:1059f4006c7b0020080000000000000030490020fb
:105a040000080000000000004066002000020000c2
:105a140000000000087800202800000000000000ba
:105a2400987900201c00000000000000e47e0020a3
:105a34001800000001000000087800209879002078
:105a4400e83f030000000000406600200000000062
:105a54000060002030020000000000000000002070
:105a64008016000000000000705b0020500200005f
:105a740000000000967d00200200000000000000ed
:105a8400747b00200800000000000000bc700020af
:105a9400a00000000000000080360020a00a0000e2
:105aa40000000000f07a0020100000000000000058
