:020000040000fa
:020000040040ba
:10000000f8ff4520f10e4000932740008330400068
:1000100063334000a7364000733840000000000002
:10002000000000000000000000000000c137400098
:10003000b331400000000000b12d40007135400098
:100040006f1440006f1440006f1440006f144000a4
:100050006f1440006f1440006f1440006f14400094
:100060006f144000000000006f1440006f14400047
:100070006f1440006f144000492d40006f14400081
:100080006f1440006f1440006f144000b50b400027
:100090006f1440006f1440006f1440006f14400054
:1000a0006f1440006f1440006f1440006f14400044
:1000b0006f1440006f1440006f1440006f14400034
:1000c0006f1440006f1440006f1440006f14400024
:1000d0006f1440006f1440006f1440006f14400014
:1000e0006f1440006f1440006f1440006f14400004
:1000f0006f1440006f1440006f1440006f144000f4
:100100006f1440006f1440006f1440006f144000e3
:100110006f1440000000000000000000000000001c
:100120006f1440006f1440006f1440006f144000c3
:100130006f1440006f144000000000006f14400076
:100140006f1440006f1440006f1440006f144000a3
:100150006f1440006f1440006f1440006f14400093
:080160006f1440006f14400011
:020000040000fa
:020000040040ba
:10016800f8b500bff8bc08bc9e467047893340000c
:10017800f8b500bff8bc08bc9e4670476533400020
:020000040000fa
:020000040040ba
:0801880010030000010000005b
:020000040000fa
:020000040040ba
:100190002de9f041aeb006461546059100270599b8
:1001a0000b78002b00f0fa8000244ff0ff33cde9ec
:1001b00009430eab0c9380230b940d930b5d0bb195
:1001c000252b26d134b12246304603f0d0fa059bc8
:1001d00023440593059b1a78252a40f0d78003f124
:1001e0000108cdf81480059803782b2b1ad025d858
:1001f000202b1bd0232b1dd02a2b27d003f08ef8c9
:100200000b90059b1a78303a092a2ed801330593b2
:10021000f7e70134d2e7099b43f00103013009936a
:100220000590e0e7099b43f00403f7e7099b43f0df
:100230000803f3e7099b43f01003efe72d2bead007
:10024000302bd9d1099b43f00203e7e72b681a1d35
:100250001b682a600130002b05900b9305da099a80
:100260005b4282f0010209920b93099bda0744bfbb
:1002700023f002030993059b1a782e2a0dd1002240
:10028000581c0a9205905a782a2a25d102330593e0
:100290002b681a1d1b682a600a9305a803f0fef854
:1002a000059b0390187803f0b8fc6928039979d06e
:1002b00032dc632800f0cb8019dc252800f0d980df
:1002c000612853d000234ff0ff32cdf814800993fa
:1002d0000b930a920093d4e003f020f80a90059b58
:1002e0001a78303a092ad8d801330593f7e76428f9
:1002f00058d06728e6dc2a4606a803f0abf90028a8
:1003000000f0a180059b5a1c05921b7806aa09a93a
:10031000304603f0e8fc38e0702873d015dc6e2816
:1003200000f08c806f28cdd12b46002206a801f06a
:10033000ebfd002800f08780059b06aa013309a980
:100340003046059303f0cdfc1fe075283ad078289d
:1003500048d07328b6d1802975d1059b2a6801330e
:100360000593131d2b60126800237de02a4606a822
:1003700003f070f9002866d0059b5a1c05921b7883
:1003800006aa09a9304603f0aefc04443c44a74247
:100390007add3e4b4f221a604ff0ff3738462eb0c1
:1003a000bde8f0812b46012206a801f0adfd002832
:1003b00049d0059b06aa013309a93046059301f0ef
:1003c000a1fee2e72b46002206a801f09dfd0028d1
:1003d00039d0059b06aa013309a93046059303f0dd
:1003e00080fcd2e72b46002206a801f08dfd50b319
:1003f000059b5a1c05921b7806aa09a9304603f0f2
:1004000072fcc2e72b460022f02106a801f07cfd19
:10041000c8b1059b01330593dde9062313430bd1d6
:100420001b4803f0ebfb099b009319490b9b024609
:10043000304602f0f1f8a8e77823dde72b463a19b9
:1004400006a802f068f9059b013305939ee7802911
:10045000f9d1059b013305932b681a1d1b682a608f
:100460008df8183006aa012309a9304603f03dfc97
:100470008be78029e7d1059b01330593099b009306
:100480000b9b04490122d3e7274688e66ca3402052
:08049000263940002c39400020
:020000040000fa
:020000040040ba
:100498002de9f04f099f154604468e461e46002b4f
:1004a80040f0cc808a42b2fa82fc4cd9bcf1000ff1
:1004b8000bd0ccf1200801fa0cfe20fa08f802fa59
:1004c8000cf548ea0e0e00fa0cf44fea15491ffa2b
:1004d80085f8befbf9fa210c09fb1ae30afb08fbb5
:1004e80041ea03439b452ad9eb180af1ff3004d2ad
:1004f8009b4502d9aaf102002b44a3eb0b03a4b23b
:10050800b3fbf9f209fb123302fb08f844ea03448f
:10051800a04516d92c1902f1ff3303d2a04501d901
:10052800931e2c44a4eb080443ea004027b124faa4
:100538000cf400233c607b603146bde8f08f5046e8
:10054800dbe71346eee702b9ffdebcf1000f2ed160
:100558008b1a01264fea154eaab2b3fbfef8210cfe
:100568000efb183308fb02f941ea0343994561d9a8
:10057800eb1808f1ff3004d2994502d9a8f102001e
:100588002b44a3eb0903a4b2b3fbfef10efb11331a
:100598004a4344ea0344a2424ed92c1901f1ff33dd
:1005a80003d2a24201d98b1e2c44a41abce7ccf179
:1005b800200e02fa0cf521fa0ef901fa0cf320fad2
:1005c8000efe4eea03034fea154800fa0cf4b9fb95
:1005d800f8f11ffa85fe08fb1192180c01fb0ef6c4
:1005e80040ea0242964221d9aa1801f1ff3003d20b
:1005f800964201d9881e2a44921b9bb2b2fbf8f995
:1006080008fb192209fb0efe43ea02439e450fd957
:10061800eb1809f1ff3604d29e4502d9a9f102066a
:100628002b44a3eb0e0346ea004693e70846e3e7ac
:100638004e46f6e74046a4e70b46b6e78b4206d996
:10064800002f7ed00026c7e90001304674e7b3fad0
:1006580083fcbcf1000f0fd18b4201d3824209d831
:10066800841a61eb030e0120002f6dd0c7e9004efc
:10067800002661e76046f7e7ccf1200e03fa0cf399
:1006880022fa0ef521fa0ef41d4301fa0cf320fab2
:100698000ef10b434fea154a00fa0cf6b4fbfaf9cf
:1006a8001ffa85f80afb19401c0c09fb08f144eafb
:1006b8000044a14202fa0cf23fd92c1909f1ff308b
:1006c80004d2a14202d9a9f102002c44641a9bb2b7
:1006d800b4fbfaf90afb194409fb08f843ea044198
:1006e80088452cd9691809f1ff3304d2884502d905
:1006f800a9f10203294443ea0040a1eb0801a0fb49
:1007080002894945c2464c4602d306d1464504d221
:10071800b8eb020a69eb05040138afb1b6eb0a037e
:1007280061eb040606fa0efe23fa0cf34eea030305
:1007380026fa0cf6c7e900369ae74846c6e74b465c
:0c074800d9e73e463846f7e63e46f5e6a7
:020000040000fa
:020000040040ba
:1007540074a240201c00000000000000c0a1402042
:10076400380000000000000064a040205000000099
:10077400000000002ca2402028000000000000001f
:10078400f8a14020340000000000000054a24020e2
:10079400200000000000000048a140203c000000b0
:1007a4000000000004a34020180000000000000026
:1007b40070a340200400000001000000aaaaaaaa15
:1007c4001ca34020040000000000000000004020a2
:1007d40000a000000000000020a340201000000042
:1007e4000000000000a040206400000000000000a1
:1007f40030a34020140000000000000090a240201c
:10080400280000000000000044a340201000000065
:1008140000000000b8a24020140000000000000006
:1008240054a340200400000000000000cca240209b
:10083400280000000000000058a340200800000029
:100844000000000074a34020040000000100000028
:100854000400000084a140203c00000000000000cf
:1008640004a140204400000000000000f4a2402045
:10087400100000000000000060a3402008000000f9
:1008840000000000b4a04020500000000000000060
:1008940068a34020080000000000000000000000e1
:1008a400000000006666666666666666666666667c
:020000040000fa
:020000040040ba
:1009c4002de9f84307460e4698469500284601f05f
:1009d40059fd002800f0c8808146542001f052fde2
:1009e4000446002854d05422002103f0fdf8c4f832
:1009f40030902a46a521484603f0f6f8043d236bbf
:100a04001d4425f007058eb1337884f8343053b192
:100a1400334604f134010f3613f8012f01f8012f86
:100a24000ab1b342f8d1002384f84330089b042b65
:100a340028bf04239946e3626364261d304603f00d
:100a44004bf904f1180003f047f92461c9f10503d7
:100a5400a361646242463946284602f0e3fd206001
:100a6400099b03b11c6002f0bbfe434a13680133c7
:100a74001360424b1b688bb1414b1b689bb93f4bc6
:100a84001b68da6ae36a9a420dd83c4b1c600ae0a0
:100a9400484603f02cf84ff0ff3067e0374b1c60fa
:100aa4001368012b36d0374a136801331360e36aa5
:100ab4003549086801229a4002430a60334a03eb2d
:100ac400830302eb83035b68a3609968e1604e6073
:100ad4009e60e06a830019188900551865615158b1
:100ae400013103449b00d15003f016f8244b1b68da
:100af400002b3dd0214b1b68da6ae36a9a4239d253
:100b0400234b4ff080521a60bff34f8fbff36f8fa8
:100b140001202be01d4d284602f0d3ff05f11400ff
:100b240002f0cfff05f1280002f0cbff05f13c00f5
:100b340002f0c7ff05f1500002f0c3ff154f38461d
:100b440002f0bfff144d284602f0bbff134802f029
:100b5400b8ff134802f0b5ff124802f0b2ff124b7f
:100b64001f60124b1d609ee74ff0ff30bde8f88315
:100b74000120fbe70120f9e730a3402024a3402013
:100b840054a340203ca3402040a3402000a0402088
:100b940004ed00e090a24020a4a24020b8a240208e
:100ba400e0a24020cca2402028a340202ca3402037
:020000040000fa
:020000040040ba
:100bb40038b5664b5c6a664b1b6a13f4807f04d0bd
:100bc400624aff2111770121517713f0010106d008
:100bd4005f4a08201060042010600720906213f41c
:100be400007f02d0594a01201077584a527f8ab9af
:100bf400564a127f52b2013a032a0bd8dfe802f0b8
:100c040002561c7b514bdb6883b1504b1888002182
:100c140001f05af84d4b1b7f5bb2b3f1ff3f70d02c
:100c24004a4b1b7f5bb2052b7cd038bd474b1888e1
:100c3400012101f049f8ede713f0040fead043492c
:100c44004d69ca680969013aaa4200d179b93f4a93
:100c5400d268013aaa4216d03c4a5268515d3c4ad5
:100c640051630135394b5d61394b1b6ad2e772b66a
:100c7400374a0421916235494968495d5163013518
:100c840002f026fceee7314a5268515d304a516366
:100c940001350223136004239362136a13f0010fd6
:100ca4002a4b14bf052204221a77dbe713f0020f44
:100cb400b0d0264a93691269023a9a420bd0244a68
:100cc400106b224a9168c854013312699a4206d0c3
:100cd4001e4a93619ee71e4a02211160efe71c4af7
:100ce40002219162126a12f0010f184a14bf052101
:100cf40004211177ece700298cd0144b05221a77d4
:100d040088e7124a00231377114b072199620821bf
:100d1400196004211960136a002b81d0136a2046dc
:100d240098477de7094b00225a771a77084a07212a
:100d3400916208211160042111601b6a002b3ff4a9
:100d440074af024b1b6a204698476ee72ca24020e2
:040d540000800140da
:020000040000fa
:020000040040ba
:100d58002de9f84f594b1b68002b40f0a880584be1
:100d68001c6801341c60b4b1564b1b68a3421fd9e0
:100d78000020554b1b68db6a03eb83039b00534a37
:100d8800d358022b28bf0120514b1b68002b18bfda
:100d98000120bde8f88f4f4a11684f4b1868106062
:100da80019604e4a13680133136002f0b5fcdbe7a3
:100db8000020484983464a4d4ff0010e434adff868
:100dc80008c145e03f4b4ff0ff321a60d1e73d4b79
:100dd8001e60cee7de68c8f8046050e01e6ac8f8f6
:100de8000460c3f828b0d8f80060013ec8f8006075
:100df800de6ad5f800a00efa06f848ea0a08c5f82f
:100e0800008006eb860602eb860676689e60d6f8ba
:100e18000880c3f80c80c8f80490c6f80890d3f886
:100e28002c904fea890606eb090802eb880ac3f8fa
:100e380014a052f8288008f101084e4442f8268090
:100e4800dcf80080de6ad8f82c309e4288bf01208a
:100e58000b681b68002bb5d00b68db68db685e6825
:100e6800b442b4d3d3f81480de689f68be609f682c
:100e7800776003f10409d8f804604e45aad0c3f896
:100e880014b0d8f80060013ec8f80060d3f8288094
:100e9800b8f1000facd01e6adf69be60df69776009
:100ea80003f1180ad8f8046056459ad196e70d4a16
:100eb80013680133136000206be700bf38a340209c
:100ec80058a3402048a3402024a3402000a040204d
:100ed8005ca3402028a340202ca340204ca3402002
:080ee80040a3402050a340206c
:020000040000fa
:020000040040ba
:100ef00008b54f4b98474f4b9847eff3108172b6a8
:100f00004d4ad2f8883043f47003c2f88830bff3fa
:100f10004f8fbff36f8f01b962b6484b484a5a6092
:100f20009a6812f0010ffbd0444bdb6813f4c07fca
:100f300013d0444b0c221a60404b434a5a609a68c3
:100f400012f0010ffbd03d4b404a5a609a6812f0f4
:100f5000010ffbd03e4b3f4a1a60bff34f8fbff3e8
:100f60006f8f354cd4f8903223f00103c4f89032df
:100f7000d4f8943223f00103c4f89432bff34f8fb6
:100f8000bff36f8f02f0caf8334b23f07f03a360e7
:100f9000324b9847636913f4003f12d1bff34f8f70
:100fa000bff36f8f0022c4f85022bff34f8fbff3ff
:100fb0006f8f626942f400326261bff34f8fbff3fb
:100fc0006f8f1d4b5b6913f4803f29d11a4b0022b0
:100fd000c3f88420bff34f8fd3f88030c3f3c90622
:100fe000c3f34e335a0143f6e075134802ea050491
:100ff000334644ea8371c0f86012013bb3f1ff3f0e
:10100000f7d1203a12f1200ff0d1bff34f8f0a4ae7
:10101000536943f480335361bff34f8fbff36f8f36
:101020000f4b98470f4b984702f0f0fdfee700bfcb
:101030003b3a40003b3a400000ed00e0000c0e401f
:101040000d00005a0ca340200c08005a0c07005a4f
:1010500000180e40010000a500004000312f4000a4
:081060003b3a40003b3a40001e
:020000040000fa
:020000040040ba
:101068002de9f04702f0bafb514b1a68013a1a60b1
:101078001b68002b40f095804e4b1b684bb9002431
:1010880090e01d6acef8045020e0dd68c8f80450ee
:101098002fe0002348491c4648480126484adff803
:1010a80030a1dff824c10d68002d59d0cb68db686a
:1010b800d3f828e0dd691f6aaf601d6adf696f60d9
:1010c80003f11808def804504545dad09c62def8d2
:1010d8000050013dcef80050d3f81480dd689f68b9
:1010e800bd609f686f6003f1040ed8f80450754521
:1010f800cbd05c61d8f80050013dc8f80050dd6adb
:10110800d0f8009006fa05f848ea0908c0f8008007
:1011180005eb850502eb85056d689d60d5f80880af
:10112800c3f80c80c8f804e0c5f808e0d3f82c80b0
:101138004fea880505eb080e02eb8e09c3f81490f8
:1011480052f82ee00ef1010e454442f825e0daf897
:101158000050ed6adf6aaf42a5d3ccf80060a2e781
:101168000bb102f0d9fa174b1c686cb1164e012569
:1011780001e0013c05d0fff7ebfd0028f9d0356010
:10118800f7e7104b00221a600f4b1c6854b10f4b45
:101198004ff080521a60bff34f8fbff36f8f012457
:1011a80000e0002402f0b6fc2046bde8f08700bf4e
:1011b80038a3402030a34020b8a2402040a34020bc
:1011c80000a0402050a340205ca3402004ed00e094
:0411d80024a34020ec
:020000040000fa
:020000040040ba
:1011dc002de9f04184b0044601914ff000084646d9
:1011ec004546504f49e0013ba36323684bb123694b
:1011fc005bb902f08dfc4ff00108404604b0bde82d
:10120c00f08102f0c7fba060f1e704f1100000f0e0
:10121c00abfb0028edd0434b4ff080521a60bff36c
:10122c004f8fbff36f8fe4e702f072fc4ff00008b2
:10123c00e3e702a802f008fc29e084f8445032e00d
:10124c0084f8455035e002f0c7faa06800f09cfd28
:10125c00804602f05dfc3ce0204601f017fafff7f7
:10126c00fdfe09e0204601f011fafff7f7fe2046db
:10127c0002f02efc002840d1012602f0adfaa36b3f
:10128c00002bb0d1019b002bced0002ed1d002f080
:10129c003ffc02f09dfc02f09ffa94f844305bb2e4
:1012ac00b3f1ff3fc9d094f845305bb2b3f1ff3fc7
:1012bc00c6d002f02dfc01a902a801f0a5fd002862
:1012cc00d0d1204602f004fc0028c5d02368002ba6
:1012dc00b9d0019904f1240002f04efb204601f034
:1012ec00d5f9fff7bbfe0028c6d14ff080533b6009
:1012fc00bff34f8fbff36f8fbee7b8f1000f3ff412
:10130c007caf02f069fa616a19b1236b1968c1f1fb
:10131c000501a06800f044ff02f0fafb4ff0000852
:08132c006be700bf04ed00e0d7
:020000040000fa
:020000040040ba
:101334002de9f04f83b08a46914698469df838408f
:1013440001f036ff002800f08c800646012c0ed0f8
:10135400082c18bf022c0cbf012500251cd1b8f1a4
:10136400000f02d0b9f1000f07d1002510e00d9b4a
:10137400002b78d00c9b002b75d0376807f12c0b11
:101384004ff6ff71584602f0b2fa012814d0002536
:10139400284603b0bde8f08fb9fa89f35b09b8f1c8
:1013a400000f08bf0123002bf2d10d9a12b10c9a41
:1013b400002ae2d11d46ebe7002373717e62ba690d
:1013c400f3689a4207d03b695b69002106f10c007f
:1013d4009847f368bb61022c23d0042c2ad0012c3b
:1013e4000dd03b691b69984770717379002b33d119
:1013f400002587f82850584602f011fbc8e73b69de
:101404001b680d9a0c99504698470028e9d04ff66e
:10141400ff7107f1340002f05bfa012816d00025b1
:10142400e9e73b695b6842464946504698470028cd
:10143400edd1d6e73b690d9a00929c680c9b42461d
:1014440049465046a0470028cbd0e0e797f82850fb
:10145400b5fa85f56d09cee7012387f82830002514
:0a146400c9e7002594e7002592e790
:020000040000fa
:020000040040ba
:02146e00fee797
:020000040000fa
:020000040040ba
:101470002de9f04784b00446884601921d464ff09e
:1014800000094e46434f39e02a464146204601f0c6
:10149000a9fa636a73b938b13e4b4ff080521a60b3
:1014a000bff34f8fbff36f8f02f038fb012004b002
:1014b000bde8f08704f1240000f05cfa0028f3d0c6
:1014c000344b4ff080521a60bff34f8fbff36f8fd2
:1014d000eae702f023fb0020e9e702a802f0bafaeb
:1014e0001ae084f8446023e084f8456026e0204652
:1014f00001f0d2f8fff7b8fd4ff0010902f072f9e0
:10150000a26be36b9a42bfd3022dbdd0019b002b8f
:10151000dfd0b9f1000fe0d002f000fb02f05efb7b
:1015200002f060f994f844305bb2b3f1ff3fd8d0d9
:1015300094f845305bb2b3f1ff3fd5d002f0eefa3c
:1015400001a902a801f066fce8b902f04bf9d4f851
:1015500038a0d4f83c9002f0e1faca45c7d101990d
:1015600004f1100002f00efa204601f095f8fff7a2
:101570007bfd0028c0d14ff080533b60bff34f8ffd
:10158000bff36f8fb8e7204601f086f8fff76cfdd8
:0815900000208ce704ed00e0ef
:020000040000fa
:020000040040ba
:101598002de9f04385b00446884601920026354679
:1015a800dff8fc903be04146204602f029f97b1e1b
:1015b800a36323692bb902f0adfa012005b0bde899
:1015c800f08304f1100000f0d1f90028f3d0344b77
:1015d8004ff080521a60bff34f8fbff36f8feae767
:1015e80002f098fa0020e9e702a802f02ffa20e0ba
:1015f80084f8445029e084f845502ce0204601f056
:1016080047f8fff72dfd09e0204601f041f8fff704
:1016180027fd204602f05efa00283ed1012602f09e
:10162800ddf8a76b002fbed1019b002bd8d0002e70
:10163800dad002f06ffa02f0cdfa02f0cff894f89f
:1016480044305bb2b3f1ff3fd2d094f845305bb27f
:10165800b3f1ff3fcfd002f05dfa01a902a801f073
:10166800d5fb0028d0d1204602f034fa0028c5d096
:10167800019904f1240002f081f9204601f008f8ec
:10168800fff7eefc0028c9d14ff08053c9f80030ad
:10169800bff34f8fbff36f8fc0e700208ee700bf07
:0416a80004ed00e06d
:020000040000fa
:020000040040ba
:1016ac00002861d1394b93f90d30022b5fd1374ba8
:1016bc001b7b002b5ed070b50e464ff6ff71344885
:1016cc0002f011f9002858d0304b1b78002b3cd17c
:1016dc002e4b5b68002b3ed12c4b9d68002d4fd0c0
:1016ec00da69144693794bb1103200230133ab42c3
:1016fc0046d014461032a0790028f7d10122a271ed
:10170c00224a22602671002161715269e26016f052
:10171c00080f02d01d4a012111701c4a5168013179
:10172c005160118cdbb243ea0143a360138c01338b
:10173c009bb24ff6ff72934208bf012313480384f8
:10174c00303002f068f9a06870bd114802f063f9fe
:10175c004ff0ff30f8e716f0080fbdd00c4802f040
:10176c005af94ff0ff30efe74ff0ff3070474ff072
:10177c00ff3070474ff0ff3070474ff0ff30e3e71a
:10178c00034802f048f94ff0ff30dde7c0a14020dc
:04179c00f0a1402058
:020000040000fa
:020000040040ba
:1017a00030b585b0374b1b7883b1364c4ff0ff32e4
:1017b00004f11001344b1868fff7eefe237c0bb3e5
:1017c000304b1b7c012b45d005b030bd03210020e0
:1017d000fff76cff2b4b5860b0f1ff3f0bd100219e
:1017e000084600f055f8274bd860b0f1ff3fdcd039
:1017f00001221a70d9e71946244b41f8083f02f03c
:10180000a5f8ece794f8423063776369a377022385
:1018100004f11d025021606802f034f950b12546f0
:10182000012423460df10f025021686802f02af9c5
:101830000028f6d0134b93f842300133dbb2042b6f
:1018400003d8104a82f84230bae70e4b002283f8e0
:101850004220b5e70b480246002302f81d3f05234e
:10186000019300f11803009301235021406802f016
:10187000c0f80028a8d0034890f84210183000f0b3
:10188000edfba1e704a1402060a34020801a0600e0
:020000040000fa
:020000040040ba
:1018900000285ed1354b93f90c30022b02d04ff06b
:1018a000ff30704770b50e464ff6ff71304802f0ba
:1018b00020f8002850d02d4b5b78002b3ad12b4bd1
:1018c0005b68002b3cd1294b9d68002d47d05a699d
:1018d0001446137c4bb1143200230133ab423ed08b
:1018e00014461432207c0028f7d1012222741f4aaa
:1018f000226026710022a26016f0080f02d01b4a57
:1019000001215170194a516801315160118bdbb2cc
:1019100043ea0143e360138b01339bb24ff6ff723e
:10192000934208bf012311480383283002f079f85d
:10193000e06870bd0e4802f074f84ff0ff30f8e731
:1019400016f0080fbfd00a4802f06bf84ff0ff30d6
:10195000efe74ff0ff3070474ff0ff30e9e7044802
:1019600002f05ff84ff0ff30e3e700bf64a04020d3
:041970008ca04020e7
:020000040000fa
:020000040040ba
:1019740030b4c368db689a6ad869196a8160d86927
:10198400486003f11800516881423ed000219962f9
:10199400116801391160274a1268002a3bd15a693b
:1019a4009868d968816098684860181d51688142b8
:1019b4002ed000215961116801391160da6a1e4c78
:1019c400256801219140294321601c4902eb8202d0
:1019d40001eb820252689a609468dc6060609060f7
:1019e400dc6aa200101980000d185d6108580130ee
:1019f400224492008850124a1168da6acb6a9a42e9
:101a040015d901200f4b186012e0196a5160bde727
:101a1400d9685160cde70c4a5168d9618c681c6261
:101a2400606088609a62116801311160e3e7002008
:101a340030bc704738a3402040a3402000a0402081
:0c1a440024a340205ca34020b8a2402056
:020000040000fa
:020000040040ba
:101a5000002846d12d4b1b78002b45d110b52b48c3
:101a6000012202700b6803618b6843614b688360dd
:101a700000234360c361036243700283cb68c36386
:101a80000b6903644b6943648b698364cb69c364ea
:101a9000283001f0baff50b31d4801f0b6ff48b33b
:101aa0001c4801f0b2ff40b300231a4619461a48f9
:101ab00001f06cfa20b300231a461946174801f0ca
:101ac00065fa00b3114c23695b69214614489847b5
:101ad00023691b682146134898470223237300207b
:101ae00007e04ff0ff3070474ff0ff3070474ff086
:101af000ff3010bd4ff0ff30fbe74ff0ff30f8e74d
:101b00004ff0ff30f5e74ff0ff30f2e764a04020e0
:101b100090a0402094a0402098a040209ca040206d
:081b20007d3b40003530400020
:020000040000fa
:020000040040ba
:101b280010b4304b0022c3f81421d3f8141141f03b
:101b38001001c3f814112c492c4b4b602c4b0b6033
:101b48004ff0ff334b650b66c1f89030c1f8a030f9
:101b5800202008616ff020044c618863c1f81821c7
:101b680001f5007110200867486748606ff01000a1
:101b780008604b650b66c1f89030c1f8a0300a6167
:101b88004b618a63c1f8182101f500710b604b6540
:101b98000b66c1f89030c1f8a0300a614b618a63c6
:101ba800c1f8182101f500710b604b650b66c1f88f
:101bb8009030c1f8a0300a614b618a63c1f81821de
:101bc80001f500710b604b650b66c1f89030c1f8e8
:101bd800a0300a614b618a63c1f818215df8044b93
:101be800704700bf00800840000e0e40180020001b
:041bf800e7ffdfff25
:020000040000fa
:020000040040ba
:101bfc0030b585b000238df80f302c4b1b78c3b15a
:101c0c004ff47a7001f094fc294a936b83f0200313
:101c1c00936326480223019300f1180300930123d8
:101c2c000df10f024b21406801f0ddfee8b905b063
:101c3c0030bd03210020fff733fd1c4b5860b0f181
:101c4c00ff3f0bd100210846fff71cfe174bd86055
:101c5c00b0f1ff3fd4d001221a70d1e71946154bd1
:101c6c0041f8083f01f06cfeece7104c04f1180051
:101c7c0000f08cfc84f838000023237460614ff072
:101c8c00ff3204f110010c480068fff7ebfb04f184
:101c9c001a0594f938200949284601f097fec2b27a
:101cac002946e06800f0e8fdc1e700bf84a14020b0
:101cbc00000e0e40a086010060a340206c3a40004c
:020000040000fa
:020000040040ba
:101ccc0008b57f281fd9030203f4fe0343f4807385
:101cdc002b4a5360c0b2d0602a4b00225a619a61e1
:101cec00002948d1db68012b11d0264b03221a772f
:101cfc005a68127822494a635a6901325a6105239b
:101d0c004b62012008bd00041d4b5860e4e71d4bdd
:101d1c001b6973b91b4b04221a775a681178184a3d
:101d2c0051635969013159610223136001235362d4
:101d3c00e7e772b6134b5a681078114a50635a6928
:101d4c0001325a610e4a136a13f0050ffbd10c4b8a
:101d5c001b6a13f0040f0ed14ef660230848026a7a
:101d6c0012f0040f07d1013bf9d1064b02225a772e
:101d7c0062b60846c6e701f0a7fb0120c2e700bf28
:081d8c00008001402ca2402060
:020000040000fa
:020000040040ba
:101d9400002856d070b50446c26a2b490968c96a3e
:101da4008a4245d28169002905db27490968c96a45
:101db400c1f10501816102eb8202244901eb820237
:101dc4006169914205d0204a1268d26ae262012018
:101dd40036e0251d284601f0b5fc38b91c490b68ce
:101de400e06a0122824023ea02030b60164b1b685f
:101df400db6ae36216490e68012000fa03f23243fb
:101e04000a60124a03eb830302eb83035b68a3605b
:101e14009968e1604d609d60e56aab0059198900dd
:101e240056186661515801442b449b00d15007e079
:101e3400054a1268406cd36a98422cbf00200120e6
:101e440070bd0020704700bf24a3402000a04020a4
:041e540040a3402047
:020000040000fa
:020000040040ba
:101e580070b504460e46234b1d68234b18680430a2
:101e680001f06efc48b9204b1a6820490b68d06a0b
:101e78000122824023ea02030b60b4f1ff3f14d130
:101e88009eb11b4a5168184b1868816018688c68a5
:101e9800c4601868043060601868043088601b6883
:101ea8005a6113680133136070bd2c440e4b1b68d4
:101eb8005c60a54207d90f4b18680b4b19680431b1
:101ec80001f01efbf0e70c4b1868074b196804314a
:101ed80001f016fb094b1b68a342e5d9074b1c60b0
:101ee800e2e700bf58a3402024a3402040a340209d
:101ef800cca240202ca3402028a3402048a3402067
:020000040000fa
:020000040040ba
:101f0800882910b536d012dc812943d003dc80291a
:101f180040d0002010bd82290ed08429f9d119683b
:101f280002b30a1d1a60b1f90020d3171ee0a029d8
:101f38002bd00bdc9029ecd11968073121f007016f
:101f480001f108021a60d1e900230fe0c02901d08d
:101f5800f029ded11a68111d196013680360002387
:101f6800436005e00a1d1a600a880023c0e90023bf
:101f78000120cfe7196822b10a1d1a6091f90020e3
:101f8800d3e70a1d1a600a78efe71a68111d19606d
:101f98001268cae719681ab10a1d1a600a68c4e704
:0c1fa8000c1d1c600b68c0e90032e1e772
:020000040000fa
:020000040040ba
:101fb400244b1b681bb1244b01221a60704710b5d7
:101fc400214b00221a60214b1b681b6b1a68b2f16b
:101fd400a53f03d15a68b2f1a53f23d01b4b186823
:101fe4001968343101f057fd194b1b68b3fa83f3b8
:101ff400dbb2c3f11f03174a9900c81802eb800033
:10200400446864684460194402460832944212d019
:1020140003eb83030f4a02eb83035b68da680b4b21
:102024001a6010bd9a68b2f1a53fd7d1db68b3f14d
:10203400a53fd3d1d8e760680a46064901eb82027e
:102044005060e5e738a340205ca3402024a340204f
:0820540040a3402000a0402041
:020000040000fa
:020000040040ba
:10205c002de9f04780460e46234a244b03cbc2f8a9
:10206c001f00c2f82310042e3cd808eb060508f11b
:10207c000107bb19c6f1040753fa87f70724dff8e9
:10208c0074a002f11f0915f9012b514609eb04004c
:10209c0001f09cfc0444e4b2bd42f4d18eb108f1d1
:1020ac00ff35013e58fa86f6dff84880104f15f9d7
:1020bc00012f4146381901f089fc0444e4b2b542c1
:1020cc00f5d1094800f11f010a19084b33f8105fcc
:1020dc009b780d539370a21cd2b2c06800f0ccfb5d
:1020ec00bde8f0870724d9e704a14020303b40002d
:0820fc0023a14020383b400005
:020000040000fa
:020000040040ba
:102104002de9f041d2e900230c4686b007465fea88
:10211400d37820684968a5680590e66841d05242a2
:1021240063eb4303002908db20f002000590b8f1bb
:10213400000f02d1059948072ad5691e05a8029007
:102144000a20cde90010204600f05efbb8f1000f34
:1021540002d1059b59071fd5b8f1000f00f1ff30dc
:1021640014bf2d232b2333542269059b0093013a7a
:102174002b46121a3118384600f04cfa7b68db05fe
:1021840003d563689842b8bf184606b0bde8f0812d
:102194000807d2d42946d1e71a07e5d50138202308
:0821a400e1e70029c0dac5e7fc
:020000040000fa
:020000040040ba
:1021ac00002846d038b50446426c914238bf1146df
:1021bc00c26a8a4202d0806c012800d038bde1622c
:1021cc00a069002802dbc1f10501a16102eb8202ca
:1021dc00184901eb820261699142efd1251d284615
:1021ec0001f0acfa38b914490b68e06a012282405c
:1021fc0023ea02030b60e36a0f49086801229a4044
:10220c0002430a600b4a03eb830302eb83035b6814
:10221c00a3609968e1604d609d60e06a83001918c5
:10222c008900551865615158013103449b00d15008
:0c223c00c4e7704700a0402040a34020f1
:020000040000fa
:020000040040ba
:10224800002830d11f4b93f90d30022b2ed010b53a
:102258001c48012202730b6803614b68c3618b68d9
:10226800836000234360436202840370cb68436148
:10227800cb688361303001f0c4fbd0b1124801f063
:10228800c0fbc8b100231a461946104800f07afe70
:10229800a8b10c4c23699b6921460d489847022335
:1022a8006373002007e04ff0ff3070474ff0ff30b6
:1022b80070474ff0ff3010bd4ff0ff30fbe74ff095
:1022c800ff30f8e7c0a14020eca14020f4a1402055
:0422d8007f3640000d
:020000040000fa
:020000040040ba
:1022dc00204b93f82c30002b34d1f0b403f0ff04d6
:1022ec001c4b1b7d83f0010300280cbf002303f063
:1022fc00010313b91846f0bc70470268164d00294b
:10230c0008bf294615018d4214d8b1fbf5f1002602
:10231c00b1f5803f1bd2114c6768826845682a432f
:10232c000f4d3d402a43c06802433243626089b27c
:10233c002162dfe7d2008a4207d8b1fbf2f14ff4f9
:10234c000026e5e70023184670472346d2e72346cc
:10235c00d0e700bff8a1402080d1f00800800240f7
:04236c003fc1f5ff79
:020000040000fa
:020000040040ba
:1023700000283ed038b50446c36b002b3bd0006c20
:10238000a0fb03230bb1002036e00d4601f02afa32
:102390002268216ce36b03fb01f3d018a0600020de
:1023a000a06362605b1a1344e360ff2384f8443047
:1023b00084f84530a5b923691bb901f0affb0120b2
:1023c0001ae004f11000fff7d5fa0028f5d00b4b06
:1023d0004ff080521a60bff34f8fbff36f8fece75f
:1023e00004f1100001f06ffb04f1240001f06bfb1d
:1023f000e3e700207047002038bd00bf04ed00e097
:020000040000fa
:020000040040ba
:10240000002836d003681d4a934234d810b41c4ac1
:10241000002908bf11465b00b1fbf3f10339ff2926
:1024200024d9002340f2ff1400e011460133dbb24f
:102430004a08a14294bf00200120062b88bf00203b
:102440000028f2d1b1f5007f0dd20e4c2069d1b237
:1024500041ea022200f07c510a431b0403f4e0230a
:102460001343236101205df8044b70470a460023a3
:10247000ebe7002070470020704700bf00093d00d7
:0824800080d1f008008001404a
:020000040000fa
:020000040040ba
:1024880038b5044610f0070f05d020f007030833cd
:10249800834225d91c4601f09dfb184b1b686bb184
:1024a80024b3174b1b681c4449f6f77294420bd8a7
:1024b800a3420cd3fef7d4fd1ae000240f4a114bb7
:1024c80023f007031360ebe7fef7cafd10e00b4aa1
:1024d80015681d440a4b1c60fef7c2fd5db907e094
:1024e80001f078fb054b1b68002be6d0fef7b8fd22
:1024f80001f0dafa0025284638bd00bf1ca34020a9
:0825080020a340200700402041
:020000040000fa
:020000040040ba
:1025100000283bd070b50446826c013a8264c06ae0
:10252000616c884200d00ab1002070bd251d28468c
:1025300001f00af938b916490b68e06a01228240b5
:1025400023ea02030b60636ce362c3f10502a2613c
:102550000f490e68012000fa03f232430a600d4a67
:1025600003eb830302eb83035b68a3609968e1607c
:102570004d609d60e56aab00591989005618666187
:10258000515801442b449b00d150cee700207047a6
:0825900040a3402000a0402000
:020000040000fa
:020000040040ba
:1025980082b00278437843ea02231bb2002b21db86
:1025a800db1107ee103abaeeef7bbdeec77b17eef4
:1025b800103a1bb207ee103ab8eec77af2ee027a7a
:1025c80027ee277af1ee046ac7ee267a9fed0f7a96
:1025d80077ee877afdeee77acded017a9df9040072
:1025e80002b070475b4243f3c8131bb207ee103ac0
:1025f800b8eec77bbeee006b27ee067bbdeec77b51
:1026080017ee103a1bb207ee103ad5e70000004269
:020000040000fa
:020000040040ba
:102618002de9ff471d460c9b13f0010906468a4623
:10262800144601d195420bd822465146304601f056
:102638009af8a54204d82546284604b0bde8f08794
:102648002f1b102f3a464ff0200128bf1022684652
:10265800b84601f0c7fab8f10f0f11d83b096ff06f
:102668000f0202fb03726946304601f07cf8b9f1ab
:10267800000fe1d122465146304601f074f8dbe7fd
:1026880010226946304601f06ef8a8f11008e2e71a
:020000040000fa
:020000040040ba
:1026980070b5054601f0a2f895f8454064b2002ce3
:1026a80011dd6b6a7bb105f1240606e001f0eefa54
:1026b800013c64b23cb16b6a2bb13046fff756f966
:1026c8000028f5d0f2e7ff2385f8453001f022fa1b
:1026d80001f084f895f8444064b2002c11dd2b69b0
:1026e8007bb105f1100606e001f0d0fa013c64b2b6
:1026f8003cb12b692bb13046fff738f90028f5d0eb
:0e270800f2e7ff2385f8443001f004fa70bdbb
:020000040000fa
:020000040040ba
:10271600842910b523d00cdc812903d0822913d05b
:1027260080290bd119680c1d1c600b6803601a60a8
:1027360013e0902921d003dc882917d0002010bd92
:10274600a029efd0c029ece719680c1d1c600b68a6
:102756000360d1171046c3e900010120efe71968ad
:102766000c1d1c600b6803601a80f6e719680c1dc7
:102776001c600b6803601a70efe719680c1d1c607b
:0c27860009680160d317c1e90023e6e7f1
:020000040000fa
:020000040040ba
:02279200fee760
:020000040000fa
:020000040040ba
:10279400002830d010b40446194b1b7d002b2cd1db
:1027a400174b1860596000229a6001221a75586804
:1027b4009b68144a526912f0020f13d0984211d93f
:1027c40010494a6812f4003f14bf34f81320e25c45
:1027d400c2f30802ca6101334a6912f0020f01d040
:1027e4009842eed8064a9360064b02229a60012072
:1027f4005df8044b7047002070470020f8e700bfe5
:08280400f8a140200080024011
:020000040000fa
:020000040040ba
:10280c002de9f84f04460c9f6668d4f80cb0246987
:10281c0010463a68013c002502f0020a0b9a0bf8ac
:10282c000450002e1946b8bf0126012390464feaea
:10283c00e279002c03dcd3b12046bde8f88f50ead6
:10284c00010209d1721b002a06dc0a9a521b002acb
:10285c00f1ddbaf1000feed042464b4600f09afe85
:10286c00013c134630320bf804200135e1e73b689c
:08287c0023f010033b60dfe7cd
:020000040000fa
:020000040040ba
:102884002de9f0410d46164600f0fafb2c1c18bf4a
:102894000124002e08bf0024002808bf002414b916
:1028a4002046bde8f0810746046804f12c084ff681
:1028b400ff71404601f01bf8012801d00024efe726
:1028c4000023bb60276223699b69314628469847e9
:1028d4004ff6ff7104f1340000f0faff012804d030
:1028e4000024404601f09bf8dae794f82440b4fa57
:0628f40084f46409f5e71d
:020000040000fa
:020000040040ba
:1028fa002de9f0410d46164600f0bffb2c1c18bf0f
:10290a000124002e08bf0024002808bf002414b99f
:10291a002046bde8f0810746046804f130084ff606
:10292a00ff71404600f0e0ff012801d00024efe7e4
:10293a000023bb60e76123695b68314628469847f4
:10294a004ff6ff7104f1380000f0bfff012804d0f0
:10295a000024404601f060f8dae794f82540b4fa1a
:06296a0084f46409f5e7a6
:020000040000fa
:020000040040ba
:1029700038b51a4b1c681d681b7d002b2cd0174bdb
:1029800058689b68164a526912f0020f13d0984299
:1029900011d913494a6812f4003f14bf35f81320c7
:1029a000e25cc2f30802ca6101334a6912f0020f05
:1029b00001d09842eed8094a9360936883420bd3c2
:1029c000134600221a75064a0221d160db681bb14a
:1029d000024b1869db68984738bd00bff8a140205a
:0429e0000080024031
:020000040000fa
:020000040040ba
:1029e40070b504461646856b026c5ab903681bb170
:1029f40000200135a56370bd8068fff787fd0023c3
:102a0400a360f6e76eb9406801f0a4f86368226c2d
:102a140013446360a268934219d323686360304609
:102a2400e7e7c06801f096f8226c5242e368134469
:102a3400e36021688b4202d2a3681a44e2600db1bc
:102a4400022e01d00020d4e7013d0020d1e730461a
:022a5400cfe7ca
:020000040000fa
:020000040040ba
:102a5600f8b5eff311864ff0200372b683f31188b1
:102a6600bff36f8fbff34f8f62b6836bc26b9a4211
:102a76001fd90f46044690f845506db20133836363
:102a8600b5f1ff3f0bd1436a0bb9012012e02430a8
:102a9600fef76dff8fb180b1012038600ae001f0ca
:102aa600f0f885420bd201356db284f8455001200d
:102ab60000e0002086f31188f8bd0120fae7012026
:022ac600f8e72f
:020000040000fa
:020000040040ba
:102ac80080b5164c164f174edff860802368bbb1ef
:102ad80000f084fefb68dd68281d00f031fe3368d5
:102ae800013b33602368013b236001f013f8286b36
:102af80000f0fbff284600f0f8ff2368002be7d121
:102b0800094b1b68012be1d94ff08053c8f80030fe
:102b1800bff34f8fbff36f8fd8e700bf34a34020b8
:102b2800e0a2402030a3402000a0402004ed00e0b7
:020000040000fa
:020000040040ba
:102b380000b583b0134b0193002300938022124900
:102b48001248fdf73bff012804d0114b1b6803b066
:102b58005df804fb4ff0200372b683f31188bff3ce
:102b68006f8fbff34f8f62b60a4b4ff0ff321a6078
:102b7800094b01221a60094b00221a6000f0a6fbdb
:102b8800e3e700bf44a34020d43c4000c92a4000ea
:102b980074a3402048a3402054a3402058a34020b9
:020000040000fa
:020000040040ba
:102ba80030b583b0124c134b0193012500950023d7
:102bb8004ff4806221461048fdf700ff0f4b019348
:102bc800009500234ff4806204f118010c48fdf7ca
:102bd800f5fe0c4b0193009500234ff4806204f13d
:102be80030010948fdf7eafefff7a2ff03b030bd48
:102bf800d030400014a34020cd3c400010a340201a
:0c2c0800c53c400018a34020b937400034
:020000040000fa
:020000040040ba
:102c1400164b174a9a629a6e12f0020ffbd0134aaf
:102c2400136b23f07003136313469a6e12f0080fac
:102c3400fbd00e4a136b23f4407343f48073136385
:102c440013469a6e12f0080ffbd0084a136b23f058
:102c5400030343f00203136313469a6e12f0080f42
:102c6400fbd0024b034a1a61704700bf00060e40b6
:082c7400013f1820005c0b0079
:020000040000fa
:020000040040ba
:102c7c0070b5174b9d699e6993f82c303bb3144b80
:102c8c00dc691b6a13494a6912f0010f0dd09c4292
:102c9c000bd98a69c2f30802486810f4003f14bfcc
:102cac0026f81320ea540133ede7094a1362136a3c
:102cbc00a3420cd31346002283f82c20054ae121b1
:102ccc00d1605b6a1bb1024b986a5b6a984770bd16
:082cdc00f8a140200080024035
:020000040000fa
:020000040040ba
:102ce400154bd96821f4e0610904090c134a0a431d
:102cf400da60bff35f8f62b6e02183f82310104ad5
:102d040082f80e134ff48040106082f813134ff4ce
:102d1400002111605a6a42f480225a625a6942f0d0
:102d240010025a615a6a42f400325a625a6a42f4f0
:102d340080325a62704700bf00ed00e00000fa05df
:042d440000e100e0ca
:020000040000fa
:020000040040ba
:102d480010b5164b5b6913f0e0030fd1134b5b69a9
:102d580013f0010f1bd1114b5b6913f0020f04d064
:102d68000e4b1b6913f0020f14d110bd0c4c2363da
:102d780000f02afc094be122da60002384f82c30a9
:102d8800636a002be2d0a06a636a9847dee7fff720
:102d980071ffe0e7fff7e8fde7e700bf00800240ca
:042da800f8a140202e
:020000040000fa
:020000040040ba
:042dac00002070474c
:020000040000fa
:020000040040ba
:102db000eff30980bff36f8f154b1a681ef0100fe9
:102dc00008bf20ed108a20e9f04f10602de90900be
:102dd0004ff0200072b680f31188bff34f8fbff31e
:102de0006f8f62b6fff7e6f84ff0000080f31188ae
:102df00009bc19680868b0e8f04f1ef0100f08bf52
:102e0000b0ec108a80f30988bff36f8f704700bf62
:042e100024a3402097
:020000040000fa
:020000040040ba
:102e140070b505460c4600f0e3fc134b1a682368b2
:102e2400b3f1ff3f1ad06968104800682e688642e3
:102e340001d0914206d9501a834207d80023236057
:102e440001240ce000232360012408e09b1a0b44b6
:102e54002360284600f0fcfd002400e0002400f07c
:102e64005bfe204670bd00bf58a340204ca3402009
:020000040000fa
:020000040040ba
:102e740000b583b0144b1b7853b101220df1070147
:102e8400114b5868fff737fd70b903b05df804fbc8
:102e940000210846fef7fafc0b4b5860b0f1ff3fe7
:102ea400ebd001221a70e8e7074901230b729df861
:102eb4000730cb6000234ff0ff320831034800682d
:102ec400fef7d4fae1e700bff4a2402060a340205b
:020000040000fa
:020000040040ba
:102ed40010b500f059fefff79bfefef723fe4ff4fa
:102ee40000430e4a5360b03a536000f059fa00f0c0
:102ef400b5fa0b490020fff7a5f90a4c20600a49ee
:102f04000020fef7a3fd606000f0c8fe00f0ccfed8
:102f140000f0cefcfff7e4fe10bd00bf00190e4028
:0c2f2400cc3b400004a340209438400047
:020000040000fa
:020000040040ba
:102f30000e4a38b5002313600d4a0e4c13600e4a3a
:102f40000e4d13600e4a13600e4a13600e4a536210
:102f500013610123936000f0cafe00f0c8feac428a
:102f600000d338bd54f8043b9847f8e768a34020e5
:102f7000c0a0402074014000bca040207801400067
:0c2f8000b4a04020b8a04020c4a0402015
:020000040000fa
:020000040040ba
:102f8c0038b504461d4631b101291bd0002303601e
:102f9c004ff0ff301fe0012d01d900201be0032270
:102fac000021012000f0daf82060012d0fd170b162
:102fbc0000231a461946fef755fa012814bf0020c3
:102fcc00012008e02946104600f03cfc20602068f7
:082fdc00003018bf012038bdd0
:020000040000fa
:020000040040ba
:102fe40030b589b015464ff0ff32019202f2031258
:102ff400029200b96846cde9030151b14c1e002983
:10300400059408da094b4f221a604ff0ff3009b0db
:1030140030bd0c46f3e700220270cde906001a46e3
:10302400294601a800f0c8fcf1e700bf6ca34020ca
:020000040000fa
:020000040040ba
:1030340038b50446c56903695b6a984740b90023fb
:10304400ab6084f8253004f1380000f0e9f938bdac
:10305400a26c116888420fd0516888420ad09268e5
:10306400904205d00023ab60012384f82530eae7c1
:0e307400022302e0012300e000230133f3e712
:020000040000fa
:020000040040ba
:02308200fee767
:020000040000fa
:020000040040ba
:10308400431e13f1030f16d810f47f4f15d1c3b2aa
:103094000d4a9268934212d203eb83020a4b5b6996
:1030a40003eb8203da6882420bd11a7c002a08bf40
:1030b4000023184670470023fbe70023f9e70023a9
:0c30c400f7e70023f5e700bf64a0402000
:020000040000fa
:020000040040ba
:1030d0004150505f53454e534f525f544852454103
:1030e000445f5461736b73004150505f45455052cb
:1030f0004f4d5f5448524541445f5461736b7300b8
:103100004150505f555345525f494e5055545f549e
:0c31100048524541445f5461736b7300ea
:020000040000fa
:020000040040ba
:10311c0070b50e4b0e4a0021934208d30d480e4d4c
:10312c004ff6ff76016829b943681bb970bd03f8e7
:10313c00011bf1e783684268334000f10c0455f839
:10314c0023302046984704eb8000ebe7000040203a
:0c315c000000402054074000443b4000ad
:020000040000fa
:020000040040ba
:1031680070b5d8b10546a0fb0132d2b901fb00f019
:1031780010f1490f17d80c464830fff781f9064679
:1031880068b114b100f1480300e003463360f56309
:10319800346401213046fff7e7f800e000263046a6
:0a31a80070bd0026fbe70026f9e7e2
:020000040000fa
:020000040040ba
:0231b200fee736
:020000040000fa
:020000040040ba
:1031b400431e13f1030f14d810f47f4f13d1c2b27e
:1031c4000c4b9b689a4210d20a4bdb6903eb021347
:1031d4009a6882420bd19a79002a08bf00231846c4
:1031e40070470023fbe70023f9e70023f7e70023f8
:0831f400f5e700bfc0a1402077
:020000040000fa
:020000040040ba
:1031fc0008b50f4b1b7f5bb2bbb90e4b1b6a03f0c0
:10320c004073b3f1407f04d0094b02225a7700205f
:10321c0008bd074b188099601a6100225a60da6069
:10322c005a770121fef74cfdf2e70020f0e700bfd2
:08323c002ca24020008001409b
:020000040000fa
:020000040040ba
:103244000f4b1b7f5bb2c3b90e4b1b6a03f0407379
:10325400b3f1407f04d00a4b02225a770020704712
:1032640010b50b46064c20800021a16021616360eb
:10327400e2606177fef728fd10bd0020704700bfb3
:083284002ca240200080014053
:020000040000fa
:020000040040ba
:10328c0010b50f4c247f64b2bcb90e4c246a04f008
:10329c004074b4f1407f04d0094b02225a770020cd
:1032ac0010bd074c2080a360029b23616160e2602b
:1032bc0000216177fef704fdf2e70020f0e700bf84
:0832cc002ca24020008001400b
:020000040000fa
:020000040040ba
:1032d40010b50e4b1a6842f460021a601a6842f084
:1032e40060421a6000f006fa0024094b1c6000f0ea
:1032f40009fc084a136843f04043136000f0e6f900
:10330400fef756fe00f044fa204610bd20ed00e022
:0833140070a3402034ef00e03b
:020000040000fa
:020000040040ba
:10331c0010b50278202a034600f10100f9d0a2f181
:10332c0009010429f5d92b2a07d02d2a11d1012105
:10333c000133013b00200a2403e00021f8e760433d
:10334c00801a13f8012f303a092af8d901b94042f2
:06335c0010bd0021ede7a9
:020000040000fa
:020000040040ba
:02336200fee784
:020000040000fa
:020000040040ba
:1033640010b5054c227832b9044b13b10448aff3bd
:1033740000800123237010bd74a2402000000000cf
:103384000000000008b5034b1bb103490348aff329
:10339400008008bd0000000078a24020000000006a
:020000040000fa
:020000040040ba
:1033a4000d4b80221a6028221a60196901f07c51a1
:1033b4004bf2c0120a431a614ff080721a6007225e
:1033c4009a624ff440725a6204221a60034b00223c
:1033d4005a771a77704700bf008001402ca2402022
:020000040000fa
:020000040040ba
:1033e400b8b138b505460c4a92f82c200ab1002031
:1033f40038bd0c4600f0eaf8074b00221a639d61c1
:10340400dc611a62012083f82c00044be1229a60eb
:10341400eee70020704700bff8a140200080024082
:020000040000fa
:020000040040ba
:1034240000b583b00023019301a90068fff711fbe5
:1034340018b9002003b05df804fb019b4bb1064ba7
:103444004ff080521a60bff34f8fbff36f8f01208c
:0c345400f0e70120eee700bf04ed00e00f
:020000040000fa
:020000040040ba
:103460000c4b4ff486721a6050221a604ff40c62b3
:103470005a6051221a62084b00229a61da611a627c
:1034800083f82c205a621a605a609a601a75da60c2
:0c3490001a63704700800240f8a1402041
:020000040000fa
:020000040040ba
:10349c0030b50c4a002312f8134024b902eb430355
:1034ac005b78184630bd01680d78a54209bf02eb68
:1034bc00430301335b78013114bfdbb201600a2b8b
:0834cc00e9d9eee710394000d8
:020000040000fa
:020000040040ba
:1034d4000a4a022313770a494b6843f480534b602a
:1034e4001369012b07d0064b01221a6062b6044b04
:1034f40003225a62704703220a60f7e72ca2402095
:043504000080014002
:020000040000fa
:020000040040ba
:1035080030b40d68b5f1ff3f02d000f1080202e0c7
:10351800026904e01a4653681c68ac42fad9536839
:103528004b6099608a6051600861036801330360e9
:0435380030bc7047ec
:020000040000fa
:020000040040ba
:10353c0010b540b90a4b4ff080521a60bff34f8f51
:10354c00bff36f8f10bd044600f042fb00212046f4
:10355c00fef77cfcfdf782fd0028f3d1eae700bf03
:04356c0004ed00e08a
:020000040000fa
:020000040040ba
:1035700008b54ff0200372b683f31188bff36f8f45
:10358000bff34f8f62b6fdf7e7fb18b1034b4ff067
:1035900080521a60002383f3118808bd04ed00e017
:020000040000fa
:020000040040ba
:1035a00053b94ab9002908bf00281cbf4ff0ff31aa
:1035b0004ff0ff3000f09cbbadf1080c6de904ce7c
:1035c000fcf76affddf804e0dde9022304b0704790
:020000040000fa
:020000040040ba
:1035d000094b5b6913f0e00f0dd0074b4ff480727d
:1035e0001a605b6913f0010f05d0034b9a695a69a1
:0c35f00012f0010ffad170470080024079
:020000040000fa
:020000040040ba
:1035fc00353c4000e53340004d3c4000653c40000c
:10360c00a9364000293c400095274000413c400031
:0c361c00593c4000bd3b4000dd22400056
:020000040000fa
:020000040040ba
:103628004ff0807340f8043c21f0010140f8081c79
:10363800054b40f80c3c40f8202c6ff0020340f892
:0c364800243c4438704700bf9537400018
:020000040000fa
:020000040040ba
:10365400802910db812901dd83290cd1136807330c
:1036640023f0070303f108011160d3e90023c0e943
:0a367400002301207047002070477a
:020000040000fa
:020000040040ba
:10367e0038b50446456a03691b69984768716b79ca
:10368e0033b984f8283004f13400fff7c4fe38bd96
:08369e00012384f82830f6e74f
:020000040000fa
:020000040040ba
:0236a600fee73d
:020000040000fa
:020000040040ba
:1036a800074b93f82c3043b1064be122da60044b08
:1036b800002283f82c201a62da610120704700bfcb
:0836c800f8a14020008002403f
:020000040000fa
:020000040040ba
:1036d00008480068006880f308884ff0000080f315
:1036e000148862b661b6bff34f8fbff36f8f00dff0
:0836f00000bf000008ed00e03e
:020000040000fa
:020000040040ba
:1036f800054b00221a6005490a60054a0549116010
:1037080007221a60704700bf10e000e018e000e0f0
:0837180014e000e0df9304005f
:020000040000fa
:020000040040ba
:10372000074b1b681b6823b9064b4ff0ff321a602a
:103730007047034b1b68db681a68024b1a607047be
:0837400028a3402048a340200b
:020000040000fa
:020000040040ba
:103748000369416882688a60416851605a688242a8
:1037580006d0002202611a68013a1a601868704798
:0637680082685a60f5e7db
:020000040000fa
:020000040040ba
:10376e0038b505699542044628bf15462a46406974
:10377e0000f0ebf9636922692b44551b002263614b
:06378e0025611a7038bd30
:020000040000fa
:020000040040ba
:1037940082b0002301934ff0200372b683f31188a3
:1037a400bff36f8fbff34f8f62b6019b002bfcd02a
:0437b40002b07047a8
:020000040000fa
:020000040040ba
:0837b80008b5fff75bfbfce71d
:020000040000fa
:020000040040ba
:1037c000074b19680868b0e8f04f80f30988bff329
:1037d0006f8f4ff0000080f311887047aff30080c7
:0437e00024a34020be
:020000040000fa
:020000040040ba
:1037e4004ff0200372b683f31188bff36f8fbff3da
:1037f4004f8f62b6024a136801331360704700bfeb
:0438040070a340204d
:020000040000fa
:020000040040ba
:10380800026c72b110b5c3681344c3608468a342e4
:1038180001d30368c3600c46c168204600f098f9dc
:0438280010bd704718
:020000040000fa
:020000040040ba
:10382c0010b5024600210120fff798fc044638b180
:10383c00002181600160c1600b460a46fdf712fe53
:04384c00204610bd45
:020000040000fa
:020000040040ba
:1038500060b188420ad310b50c4602220021fff75e
:1038600083fc034600b18463184610bd002318464c
:0238700070479f
:020000040000fa
:020000040040ba
:02387200fee76f
:020000040000fa
:020000040040ba
:10387400054b00225a771a77044b07229a620822d2
:103884001a6004221a6070472ca240200080014074
:020000040000fa
:020000040040ba
:10389400fc3540000300000048a14020f43a4000f9
:1038a4003c3a40007c3c4000703c40000300000077
:020000040000fa
:020000040040ba
:1038b40008b50022044b1a7008210320fff752fcbc
:1038c400024b186008bd00bff4a2402060a3402052
:020000040000fa
:020000040040ba
:1038d40008b54ff6ff73994208bf4ff0ff310068f7
:0e38e400fdf77afc012814bf0020012008bd6a
:020000040000fa
:020000040040ba
:1038f20008b54ff6ff73994208bf4ff0ff310068d9
:0e390200fdf76bfc012814bf0020012008bd5a
:020000040000fa
:020000040040ba
:1039100068076c094c836a9074a07ac0008068883c
:0e39200000846c820081286e696c29002500ed
:020000040000fa
:020000040040ba
:10392e0010b50023934206d113f0030018bf0120f7
:0e393e0000eb930010bdc45ccc540133f2e7e3
:020000040000fa
:020000040040ba
:10394c0041b110b50c46fff72ffc28b12268c260bc
:0c395c00012010bd002070470020fae799
:020000040000fa
:020000040040ba
:10396800fd314000453240008d324000753840003e
:0c397800ad3b4000012440009d3b40009e
:020000040000fa
:020000040040ba
:1039840010b50c46044b19681831fff7bbfd012133
:0c3994002046fef75ffa10bd24a340207f
:020000040000fa
:020000040040ba
:1039a000054b1b6823b1044b1a68936c0133936475
:0c39b000014b1868704700bf24a34020a2
:020000040000fa
:020000040040ba
:1039bc0013b50446019201aafcf7e4fb636813f00b
:0c39cc00100f18bf4ff0ff3002b010bd0c
:020000040000fa
:020000040040ba
:1039d8000eb403b503aa52f8041b019200f068f96b
:0a39e80002b05df804eb03b0704775
:020000040000fa
:020000040040ba
:1039f20010b584b004240294079c0194069c0094a0
:083a0200fdf797fc04b010bdb4
:020000040000fa
:020000040040ba
:103a0a0003680bb10020704710b504460120fff788
:083a1a0008ff2060012010bd2f
:020000040000fa
:020000040040ba
:103a220008b500231a4619460068fdf720fd012853
:083a320014bf0020012008bdb3
:020000040000fa
:020000040040ba
:023a3a007047d3
:020000040000fa
:020000040040ba
:103a3c00000800000000000000020000000600006a
:083a4c0000040000000c000062
:020000040000fa
:020000040040ba
:103a5400034b1b680360034b1b684360704700bf44
:083a64004ca3402058a34020b0
:020000040000fa
:020000040040ba
:103a6c0054656d7065726174757265203d202564b6
:083a7c0020460d0a000000bf06
:020000040000fa
:020000040040ba
:103a840010b584b002240294002401940094fdf73c
:063a94004ffc04b010bd60
:020000040000fa
:020000040040ba
:103a9a004ff0200372b683f31188bff36f8fbff321
:063aaa004f8f62b6fee73b
:020000040000fa
:020000040040ba
:103ab0004ff0200372b683f31188bff36f8fbff30b
:063ac0004f8f62b6fee725
:020000040000fa
:020000040040ba
:103ac60000f1080343604ff0ff328260c360036178
:063ad600002303607047ad
:020000040000fa
:020000040040ba
:103adc0010b50446fff780fea46b00f019f8b4fa99
:063aec0084f0400910bd4a
:020000040000fa
:020000040040ba
:023af20070471b
:020000040000fa
:020000040040ba
:103af400000000004000000080000000c000000042
:043b040000000200bb
:020000040000fa
:020000040040ba
:103b0800dff80c00016841f47001016070470000a3
:043b180088ed00e054
:020000040000fa
:020000040040ba
:103b1c00034a1368013b13600bb983f31188704798
:043b2c0070a3402022
:020000040000fa
:020000040040ba
:103b3000454550524f4d3a002564467c0000000038
:043b40000d0a00006a
:020000040000fa
:020000040040ba
:103b44006b3b40002f394000ad2d4000ad2d4000af
:043b5400ad2d400053
:020000040000fa
:020000040040ba
:103b580010b500239a4200d110bdcc5cc454013387
:023b6800f8e77c
:020000040000fa
:020000040040ba
:103b6a000a440023914201d10020704701f8013b29
:023b7a00f8e76a
:020000040000fa
:020000040040ba
:103b7c0008b5002380f824303430fff74dfc08bd25
:020000040000fa
:020000040040ba
:103b8c00014b024a1a607047000c0e4000060004fc
:020000040000fa
:020000040040ba
:103b9c0010b1024b18625962704700bf2ca2402032
:020000040000fa
:020000040040ba
:103bac00024b587f00225a77704700bf2ca240204e
:020000040000fa
:020000040040ba
:103bbc00024b186b00221a63704700bff8a140201b
:020000040000fa
:020000040040ba
:103bcc006839400054a2402002000000801a060010
:020000040000fa
:020000040040ba
:103bdc00024a136801331360704700bf38a34020ba
:020000040000fa
:020000040040ba
:103bec0002440346934200d1704703f8011bf9e7e6
:020000040000fa
:020000040040ba
:103bfc0003461a46013311780029fad1101a70477e
:020000040000fa
:020000040040ba
:0e3c0c0008b50020fff760f9fef7c8fffce7df
:020000040000fa
:020000040040ba
:0e3c1a00a0f14103192b98bf40f02000704725
:020000040000fa
:020000040040ba
:0c3c2800014bd86019617047f8a14020e2
:020000040000fa
:020000040040ba
:0c3c3400014b586299627047f8a14020d3
:020000040000fa
:020000040040ba
:0c3c4000014b187d704700bff8a1402028
:020000040000fa
:020000040040ba
:0c3c4c00014b93f82c007047f8a14020b9
:020000040000fa
:020000040040ba
:0c3c5800014b9868704700bff8a14020a5
:020000040000fa
:020000040040ba
:0c3c6400014b186a704700bff8a1402017
:020000040000fa
:020000040040ba
:0c3c700020000000800000004000000068
:020000040000fa
:020000040040ba
:0c3c7c000000000000100000002000000c
:020000040000fa
:020000040040ba
:0c3c8800014b1868704700bf30a34020bb
:020000040000fa
:020000040040ba
:0c3c9400014b01221a6070475ca3402025
:020000040000fa
:020000040040ba
:0c3ca000014b00221a70704784a14020e4
:020000040000fa
:020000040040ba
:0c3cac00014b00221a70704704a1402058
:020000040000fa
:020000040040ba
:0c3cb80013460a466ff00041fff790b978
:020000040000fa
:020000040040ba
:083cc40008b5fdf76bfdfce7fc
:020000040000fa
:020000040040ba
:083ccc0008b5fdf795fffce7c8
:020000040000fa
:020000040040ba
:083cd40049444c45000000bf0b
:020000040000fa
:020000040040ba
:063cdc00002303617047a4
:020000040000fa
:020000040040ba
:043ce2000020704707
:020000040000fa
:020000040040ba
:043ce6000020704703
:020000040000fa
:020000040040ba
:043cea0000207047ff
:020000040000fa
:020000040040ba
:023cee0070471d
:020000040000fa
:020000040040ba
:043cf000704700bf5a
:020000040000fa
:02000004d0002a
:0400000002000000fa
:00000001FF
