:020000040000fa
:10000000f8ff032029180000572100006322000098
:100010006b2400001b2500007b2500000000000071
:100020000000000000000000000000001f1b000096
:10003000f7230000000000001f1b00001f1b000032
:100040001f1b00001f1b00001f1b00001f1b0000c8
:100050001f1b00001f1b00001f1b00001f1b0000b8
:100060001f1b00001f1b00001f1b0000f5220000cb
:100070001f1b00001f1b00001f1b00001f1b000098
:100080001f1b00001f1b00001f1b00001f1b000088
:100090001f1b00001f1b00001f1b00001f1b000078
:1000a0001f1b00001f1b00001f1b0000f923000086
:1000b0001f1b00001f1b00001f1b0000c5260000a7
:1000c0001f1b00001f1b00001f1b00001f1b000048
:1000d0001f1b00001f1b00001f1b00001f1b000038
:1000e0001f1b00001f1b000000000000000000009c
:1000f000000000001f1b00001f1b00001f1b000052
:100100001f1b00001f1b00001f1b00001f1b000007
:100110001f1b00001f1b00001f1b00001f1b0000f7
:100120001f1b00001f1b0000010d0000010d00003f
:10013000010d0000010d00001f1b00001f1b00002f
:100140001f1b00001f1b00001f1b00001f1b0000c7
:100150001f1b00001f1b00001f1b00001f1b0000b7
:100160001f1b00001f1b00001f1b00001f1b0000a7
:100170001f1b00001f1b00001f1b00001f1b000097
:100180001f1b00001f1b00001f1b00001f1b000087
:100190001f1b00001f1b00001f1b00001f1b000077
:1001a0001f1b00001f1b00001f1b00001f1b000067
:1001b0001f1b00001f1b00001f1b00001f1b000057
:1001c0001f1b00001f1b00001f1b00001f1b000047
:1001d0001f1b00001f1b00001f1b00001f1b000037
:1001e0001f1b00001f1b00001f1b00001f1b000027
:1001f0001f1b00001f1b00001f1b00001f1b000017
:100200001f1b00001f1b00001f1b00001f1b000006
:100210001f1b00001f1b00001f1b00001f1b0000f6
:100220001f1b00001f1b00001f1b00001f1b0000e6
:100230001f1b00001f1b00001f1b00001f1b0000d6
:100240001f1b00001f1b00001f1b00001f1b0000c6
:100250001f1b00001f1b00001f1b00001f1b0000b6
:040260001f1b000060
:020000040000fa
:10026400f8b500bff8bc08bc9e467047c12000002a
:10027400f8b500bff8bc08bc9e4670479d2000003e
:020000040000fa
:08028400e0050000010000008c
:020000040000fa
:10028c002de9f041aeb006461546059100270599bb
:10029c000b78002b00f0fa8000244ff0ff33cde9ef
:1002ac0009430eab0c9380230b940d930b5d0bb198
:1002bc00252b26d134b12246304601f029ff059b6f
:1002cc0023440593059b1a78252a40f0d78003f127
:1002dc000108cdf81480059803782b2b1ad025d85b
:1002ec00202b1bd0232b1dd02a2b27d001f08bfecb
:1002fc000b90059b1a78303a092a2ed801330593b6
:10030c00f7e70134d2e7099b43f00103013009936d
:10031c000590e0e7099b43f00403f7e7099b43f0e2
:10032c000803f3e7099b43f01003efe72d2bead00a
:10033c00302bd9d1099b43f00203e7e72b681a1d38
:10034c001b682a600130002b05900b9305da099a83
:10035c005b4282f0010209920b93099bda0744bfbe
:10036c0023f002030993059b1a782e2a0dd1002243
:10037c00581c0a9205905a782a2a25d102330593e3
:10038c002b681a1d1b682a600a9305a801f0defe73
:10039c00059b0390187802f069f96928039979d0c4
:1003ac0032dc632800f0cb8019dc252800f0d980e2
:1003bc00612853d000234ff0ff32cdf814800993fd
:1003cc000b930a920093d4e001f01dfe0a90059b5a
:1003dc001a78303a092ad8d801330593f7e76428fc
:1003ec0058d06728e6dc2a4606a801f0bfff002893
:1003fc0000f0a180059b5a1c05921b7806aa09a93e
:10040c00304602f070f938e0702873d015dc6e2895
:10041c0000f08c806f28cdd12b46002206a801f06d
:10042c007ff8002800f08780059b06aa013309a9f4
:10043c003046059302f055f91fe075283ad078281c
:10044c0048d07328b6d1802975d1059b2a68013311
:10045c000593131d2b60126800237de02a4606a825
:10046c0001f084ff002866d0059b5a1c05921b786e
:10047c0006aa09a9304602f036f904443c44a742c6
:10048c007add3e4b4f221a604ff0ff3738462eb0c4
:10049c00bde8f0812b46012206a801f041f80028a6
:1004ac0049d0059b06aa013309a93046059301f0f2
:1004bc008df8e2e72b46002206a801f031f800285f
:1004cc0039d0059b06aa013309a93046059302f0e1
:1004dc0008f9d2e72b46002206a801f021f850b308
:1004ec00059b5a1c05921b7806aa09a9304602f0f6
:1004fc00faf8c2e72b460022f02106a801f010f80a
:10050c00c8b1059b01330593dde9062313430bd1d9
:10051c001b4802f09bf8099b009319490b9b024660
:10052c00304601f001faa8e77823dde72b463a19ab
:10053c0006a801f039fa059b013305939ee7802943
:10054c00f9d1059b013305932b681a1d1b682a6092
:10055c008df8183006aa012309a9304602f0c5f817
:10056c008be78029e7d1059b01330593099b009309
:10057c000b9b04490122d3e7274688e61c08002080
:08058c00a2240000a8240000d5
:020000040000fa
:10059400b40700204c0000000000000014060020f6
:1005a400c000000000000000000800200c00000053
:1005b40000000000880700202c000000000000005c
:1005c400260800200100000000000000240800208c
:1005d40002000000000000002708002005000000c1
:1005e40000000000d40600206400000000000000a9
:1005f4001408002004000000000000003807002058
:1006040050000000000000002c0800206c000000d6
:1006140001000000380800203408002038080020b9
:100624000000000025000000080000200004000075
:1006340000000000000000000000000000000000b6
:1006440000000000000000000000000000000000a6
:10065400fb26000000000000000000000000000075
:1006640000000000811b00000000000000000000ea
:100674000000000000000000000000000000000076
:10068400000000200804000000000000f80800201a
:100694002000000001000000010000000300000031
:1006a4000000000000000000000000000000000046
:1006b400000000000c0800200c08002008000000c6
:1006c40000000000180800200800000000000000de
:1006d400080400200c02000000000000980800201c
:1006e40060000000010000000100000003000000a1
:1006f40000000000000000000000000000000000f6
:1007040000000000f51c00000000000000000000d4
:1007140000000000df2600000927000000000000a0
:1007240000000000000000000000000000000000c5
:1007340000000000000000000000000000000000b5
:100744000000000000000000200800200400000059
:1007540000000000000000000000000066666666fd
:020000040000fa
:100864002de9f04f099f154604468e461e46002b7f
:1008740040f0cc808a42b2fa82fc4cd9bcf1000f21
:100884000bd0ccf1200801fa0cfe20fa08f802fa89
:100894000cf548ea0e0e00fa0cf44fea15491ffa5b
:1008a40085f8befbf9fa210c09fb1ae30afb08fbe5
:1008b40041ea03439b452ad9eb180af1ff3004d2dd
:1008c4009b4502d9aaf102002b44a3eb0b03a4b26b
:1008d400b3fbf9f209fb123302fb08f844ea0344c0
:1008e400a04516d92c1902f1ff3303d2a04501d932
:1008f400931e2c44a4eb080443ea004027b124fad5
:100904000cf400233c607b603146bde8f08f504618
:10091400dbe71346eee702b9ffdebcf1000f2ed190
:100924008b1a01264fea154eaab2b3fbfef8210c2e
:100934000efb183308fb02f941ea0343994561d9d8
:10094400eb1808f1ff3004d2994502d9a8f102004e
:100954002b44a3eb0903a4b2b3fbfef10efb11334a
:100964004a4344ea0344a2424ed92c1901f1ff330d
:1009740003d2a24201d98b1e2c44a41abce7ccf1a9
:10098400200e02fa0cf521fa0ef901fa0cf320fa02
:100994000efe4eea03034fea154800fa0cf4b9fbc5
:1009a400f8f11ffa85fe08fb1192180c01fb0ef6f4
:1009b40040ea0242964221d9aa1801f1ff3003d23b
:1009c400964201d9881e2a44921b9bb2b2fbf8f9c5
:1009d40008fb192209fb0efe43ea02439e450fd988
:1009e400eb1809f1ff3604d29e4502d9a9f102069b
:1009f4002b44a3eb0e0346ea004693e70846e3e7dd
:100a04004e46f6e74046a4e70b46b6e78b4206d9c6
:100a1400002f7ed00026c7e90001304674e7b3fa00
:100a240083fcbcf1000f0fd18b4201d3824209d861
:100a3400841a61eb030e0120002f6dd0c7e9004e2c
:100a4400002661e76046f7e7ccf1200e03fa0cf3c9
:100a540022fa0ef521fa0ef41d4301fa0cf320fae2
:100a64000ef10b434fea154a00fa0cf6b4fbfaf9ff
:100a74001ffa85f80afb19401c0c09fb08f144ea2b
:100a84000044a14202fa0cf23fd92c1909f1ff30bb
:100a940004d2a14202d9a9f102002c44641a9bb2e7
:100aa400b4fbfaf90afb194409fb08f843ea0441c8
:100ab40088452cd9691809f1ff3304d2884502d935
:100ac400a9f10203294443ea0040a1eb0801a0fb79
:100ad40002894945c2464c4602d306d1464504d252
:100ae400b8eb020a69eb05040138afb1b6eb0a03af
:100af40061eb040606fa0efe23fa0cf34eea030336
:100b040026fa0cf6c7e900369ae74846c6e74b468c
:0c0b1400d9e73e463846f7e63e46f5e6d7
:020000040000fa
:100b200080b582b0002001f0ddf90021604801f0bd
:100b3000b1fd00225f49104601f06efd00215e48c4
:100b400001f0a2fd00225d490f2001f08bfb01f0b6
:100b5000e5fc5b4c00265b4ddff88c91dff88ca147
:100b60003ee02670022300934346012239464f207f
:100b700001f02afb2b781bb92378002bfad0f0e781
:100b80002e70514b1b787bbb504b1a78587840ea3b
:100b9000022040f3c81001f057fc00224c4b00f03b
:100ba0005ffa01f011fa00b200ebc000494b83fb81
:100bb0000023c217c2eb63022032d2b24649484634
:100bc00001f09efc454b4ff48022c3f81c2148469f
:100bd00001f042fd034652464946304600f0d4fb40
:100be000dff8e8803e4fc7e7374b1e703d4b1b7860
:100bf000d3b1012b31d0022b44d0032be7d1394b99
:100c00001e704f46dff8e8c0bce80f000fc7bce815
:100c10000f000fc79ce8030047f8040b39704ff42e
:100c2000007001f0abfcd2e72e4b01221a704f4648
:100c3000dff8c0c0bce80f000fc7bce80f000fc74b
:100c40009ce8030047f8040b27f8021b090c3970d5
:100c50004ff4806001f092fcb9e7224b02221a7037
:100c60004f46dff894c0bce80f000fc7bce80f0088
:100c70000fc79ce8030087e803004ff4006001f011
:100c80007dfca4e7174b03221a704f46dff86cc0b7
:100c9000bce80f000fc7bce80f000fc79ce80300bb
:100ca00087e803004ff4805001f068fc8fe700bf35
:100cb000b9250000a525000091250000ad26000003
:100cc00028080020290800202608002024080020e9
:100cd0000000e03f67666666741400000080004113
:100ce000270800202b080020d406002028200141de
:100cf000041500008c140000b4140000dc14000083
:020000040000fa
:100d00006c4b9b7d002b00f0d38010b56a4b9c6a26
:100d1000684b5b8b13f0020f16d0674bff2283f8f2
:100d20002020022283f82120634b93f820305bb20d
:100d3000b3f1ff3f00f08a805f4b93f820305bb245
:100d4000062b00f09c8010bd5a4b5b8b13f0010ffb
:100d500007d0594bff2283f82020022283f821205c
:100d6000e2e7544b5b8b13f0040f07d0524bff228a
:100d700083f82020012283f82120d5e74e4b93f8f9
:100d800020305bb2032b42d0042b10d0022bcbd1ee
:100d9000494b1b692bb1484b9888002101f07cf826
:100da000c2e7454b9888012101f076f8bce7424a3a
:100db000936912699a420bd03f4a9268d15c3d4ace
:100dc0009162591cd369002bfcd13b4b9961abe775
:100dd000394b5b6973b1384b9b885b0043f001036f
:100de000344a5362d369002bfcd1334b032283f87e
:100df000202099e72f4a536843f440335360d36966
:100e0000002bfcd12c4b062283f820208ce72a4ba8
:100e1000d9695b69013b8b420bd0264ad369002b11
:100e2000fcd1244b986a244bda6850540131d961c3
:100e30007ae7204a536843f4e0235360d369002bd8
:100e4000fcd11d4b062283f82020e6e71a4b002236
:100e500083f82020174a536843f440335360d36922
:100e6000002bfcd1134b83221a76134b5b6a002ba9
:100e70003ff469af104b5b6a2046984763e70e4b1f
:100e8000002283f8202083f821200a4b83221a763f
:100e90001a46538b03f03003102bfad1064b5b6ad2
:100ea000002b3ff450af044b5b6a204698474ae75b
:0c0eb000704700bf00400141880700208f
:020000040000fa
:100ebc002de9f04f85b0019001a801f009f9002847
:100ecc0003da002005b0bde8f08f019b1b095d1e05
:100edc00202d0fd9023b5b4ab3f5007f35bf02ebe7
:100eec00d30302ebd31313f8045c13f8045c34bf84
:100efc00013511350123a5f12001c5f1200203faba
:100f0c0001f923fa02f203fa05f849ea0209d8f1c9
:100f1c0000084d4f69eb4909d7e9002302ea080a9a
:100f2c0003ea090b5aea0b0342d1019b03a81033c5
:100f3c00039301f011fb18b9444b0c221a60c1e762
:100f4c00d7f80852a84206d0039b103b0393012309
:100f5c0000f110058360039bea18012143f00103a3
:100f6c00b5f1080442f8083c42f8041cc7f8082202
:100f7c0045f8043ca5d0204601f086f988b155f817
:100f8c00083c55f8041c23f00103e31a5a6822f0bc
:100f9c0001020a445a6055f8041c21f00101625008
:100fac001c462046019901f03df904f1080089e73f
:100fbc005046244a264bbaf1000f34d1cbf1000134
:100fcc0001ea0b014b4302ebd36393f83c602036f0
:100fdc00304601f045fa731c57f8334007ebc30356
:100fec00083b9c4298d0272e26dd0235ae4201dc10
:100ffc003f2e21d16168019a21f001018d1a2846fa
:10100c0001f0c0f8864217d1a318e068a668d86032
:10101c009e608360986842f00102c360c3e90025ba
:10102c0065506260bde7caf1000101404b4302eb21
:10103c00d36393f83c60cbe73146204600f0f8fdd3
:10104c00afe700bf981c0000080400201c0800201b
:04105c0029e66b070f
:020000040000fa
:10106000f0b540f2ff7681ea030c16ea115e1ebf6e
:10107000b64516ea1355b54252d021ea465141f41d
:101080008011a1fb024723ea465343f48013ae4488
:10109000a0fb03650cf0004c36197d41a1fb034712
:1010a00047f10003a0fb0217f619654153f1000355
:1010b000094218bf46f0010640f2fe74b3f5007f06
:1010c00013d2aef5806ea64523d24cea0331280335
:1010d00041ea155140ea16503203450872f10042c8
:1010e00050f1000051eb0e51f0bdaef2ff3ea645af
:1010f0000fd24ceac321e80241ea555140ea56506a
:10110000f202450872f1004250f1000051eb0e511d
:10111000f0bd1eea0e0f2dd50cf000410020f0bdf1
:1011200016ea115f04bf01f000410020004218bf21
:1011300041f0010116ea135f04bf03f000430022ef
:10114000124218bf43f0010306ea1354b44218bf19
:10115000b64503d00cf000410020f0bd21f0004165
:1011600023f00043b1eb065f0cd8b3eb065f09d860
:1011700041b13bb10cf0004141f0fe4141f470013e
:101180000020f0bd40f20001c7f6f8710020f0bd6c
:020000040000fa
:10119000374b00221a7403f50063364a9a621a46e6
:1011a000536813f0100ffbd1334b4222c3f8842055
:1011b0001a46d2f8843013f0400ffad02f4b002299
:1011c0009a6377225a631a46d36b13f0040ffbd14c
:1011d0002a4b022283f830201a46d36b13f0020ff9
:1011e000fbd1264a136c03f00303032bfad1244be3
:1011f00001225a711a46d37813f0010ffbd01e4b0f
:10120000204a1a621a46536813f0040ffbd11a4b96
:101210001d4a5a621a46536813f0080ffbd1164b49
:101220004122c3f890201a46d2f8903013f0400fb4
:10123000fad0114b4122c3f8dc201a46d2f8dc3038
:1012400013f0400ffad00c4b4122c3f8e0201a46ad
:10125000d2f8e03013f0400ffad0094b6ff07f4224
:101260001a6140f2ff725a61084a9a61704700bfe2
:101270000014004006013000001c00400010004037
:101280000008004007010100070102005686010026
:020000040000fa
:101290002de9f84300286ad050f8043ca0f1080476
:1012a00023f00107e6193268934200d0ffde72682e
:1012b00023681340da070fd4204600f0ebff002824
:1012c00057d1304601f02cf80028f0d0736823f095
:1012d00001031f441e44eae747f0010363603846f8
:1012e000336000f055ff054601f0c0f823687268ce
:1012f0001340db07e0d5dff88ce0dee90089c5f1bb
:10130000200ca5f1200228fa05f009fa0cfc29fab4
:1013100002f240ea0c001043012100ea010200231e
:101320001343c5f120007346a5f1200212d121fa22
:1013300000f001fa02f2a94042ea00021ebfdef804
:1013400000000143cef8001022b1def804100a4379
:10135000cef80420681c03ebc003a3f10802676009
:101360003760a2605a68e2605c60e3689c60bde838
:10137000f883236823f00103e41a636823f0010370
:081380001f449ee70804002051
:020000040000fa
:1013880070b40401364d25442d7b04f1824404f5e4
:10139800204494f84e4014f0030f02d1edb2002d12
:1013a80057d1040104f1824505f52045032685f847
:1013b8004e602b4d254401262e732a4d2c5b14f4c8
:1013c800806f31d0194405eb001461600101254c90
:1013d800615a11f4006f2cd01a4404eb00118a6092
:1013e800204902018c18895a9bb2c1f301210b4193
:1013f8009bb2638002f1824303f520431a6c42f0ea
:1014080002021a641a6c12f4fe4f24d193f8463083
:1014180013f0400f22d114490c69012202fa00f39b
:1014280023430b61104617e00e4c04eb0014616077
:10143800cce70d49498811f4404f04d1094901eb23
:1014480000118a60cce71168064a02eb001291602d
:10145800c6e7002000e0012070bc70470120fbe7d0
:0c146800e0070020d007002000a0004199
:020000040000fa
:1014740054656d7065726174757265203d20253008
:10148400326420460d0a000053616d706c696e670a
:101494002054656d7065726174757265206576653a
:1014a40072792031207365636f6e64200d0a000029
:1014b40053616d706c696e672054656d70657261ff
:1014c4007475726520657665727920322073656360
:1014d4006f6e6473200d0a0053616d706c696e67e2
:1014e4002054656d706572617475726520657665ea
:1014f40072792034207365636f6e6473200d0a0063
:1015040053616d706c696e672054656d70657261ae
:101514007475726520657665727920353030206d7a
:0815240073200d0a000000bf56
:020000040000fa
:10152c00882910b536d012dc812943d003dc802900
:10153c0040d0002010bd82290ed08429f9d1196821
:10154c0002b30a1d1a60b1f90020d3171ee0a029be
:10155c002bd00bdc9029ecd11968073121f0070155
:10156c0001f108021a60d1e900230fe0c02901d073
:10157c00f029ded11a68111d19601368036000236d
:10158c00436005e00a1d1a600a880023c0e90023a5
:10159c000120cfe7196822b10a1d1a6091f90020c9
:1015ac00d3e70a1d1a600a78efe71a68111d196053
:1015bc001268cae719681ab10a1d1a600a68c4e7ea
:0c15cc000c1d1c600b68c0e90032e1e758
:020000040000fa
:1015d8002de9f041d2e900230c4686b007465feac0
:1015e800d37820684968a5680590e66841d05242da
:1015f80063eb4303002908db20f002000590b8f1f3
:10160800000f02d1059948072ad5691e05a802903e
:101618000a20cde90010204600f006fab8f1000fc4
:1016280002d1059b59071fd5b8f1000f00f1ff3013
:1016380014bf2d232b2333542269059b0093013ab1
:101648002b46121a3118384600f070f97b68db0512
:1016580003d563689842b8bf184606b0bde8f08164
:101668000807d2d42946d1e71a07e5d5013820233f
:08167800e1e70029c0dac5e733
:020000040000fa
:1016800010b4224ad36823f4e0631b041b0c43f01c
:10169000bf6343f40033d360bff35f8f62b61c4b6c
:1016a000e02183f80b134ff40060186083f81b13dc
:1016b0004ff00060186083f81f134ff000441c6067
:1016c00083f83a134ff080645c6083f83b135860f2
:1016d00083f83c134ff08050586083f83d134ff06f
:1016e00000515960536a43f480235362536943f0b5
:1016f00010035361536a43f400335362536a43f453
:10170000803353625df8044b704700bf00ed00e08a
:0417100000e100e014
:020000040000fa
:101714002de9ff41836946690093f61acde9016119
:1017240004461746039216444ff002086d4642469b
:101734002946206800f048feb04209d1d4e90232bb
:10174400c4e905331a44a262384604b0bde8f08106
:1017540000280dda6268002342f01002b8f1020f8b
:10176400a362c4e90533626015d06b68ff1aebe726
:101774006b68984288bf0835a6eb000688bfc01a7c
:101784002b6803442b606b68a3eb000088bf08f14f
:0a179400ff386860cbe71f46d6e778
:020000040000fa
:02179e00704792
:020000040000fa
:1017a0001f4a137843f001031370536813f0010fbd
:1017b000fbd11b490b7843f010030b700022ca6168
:1017c0004ff080530b624ff400430b634a630b618d
:1017d000144b10221a819a821a849a851a87a3f8c8
:1017e0004420a3f85020a3f85c20a3f86820a3f8b5
:1017f0007420a3f88020a3f88c20a3f89820a3f8e5
:10180000a420a3f8b0200f22a3f8bc200b7843f04b
:1018100002030b700a46536813f0020ffbd17047a6
:0818200000280040140600201e
:020000040000fa
:1018280008b5194b9847194b9847eff3108172b6d2
:10183800174ad2f8883043f47003c2f88830bff3ef
:101848004f8fbff36f8f01b962b6124a936823f0c6
:10185800010393601346da6812f0010ffbd10d4bb8
:1018680024225a6001229a6000f05efb0a4b23f0a2
:101878007f03074a9360094b9847094b9847094be0
:101888009847fff749f9fee78726000087260000fa
:1018980000ed00e00060004100000000e11b0000d6
:0818a8008726000087260000de
:020000040000fa
:1018b00010b582b000230193030103f1824303f5c5
:1018c000204393f84e30dbb20193019b13f0020fdb
:1018d0000dd0010101f1824202f52042022382f87b
:1018e0004e30134b0b4400221a73012400e00224f3
:1018f000019b13f0010f0cd0010101f1824202f5ae
:101900002042012382f84e30094b0b4400221a7307
:101910000224074b03eb00135b6833b1044a02eb6c
:10192000001399685b682046984702b010bd00bf5d
:04193000e0070020ac
:020000040000fa
:101934002de9ff471d460c9b13f0010906468a4614
:10194400144601d195420bd822465146304600f048
:10195400e3fba54204d82546284604b0bde8f08739
:101964002f1b102f3a464ff0200128bf1022684643
:10197400b84600f067feb8f10f0f11d83b096ff0bd
:101984000f0202fb03726946304600f0c5fbb9f151
:10199400000fe1d122465146304600f0bdfbdbe7a3
:1019a40010226946304600f0b7fba8f11008e2e7c0
:020000040000fa
:1019b400842910b523d00cdc812903d0822913d0cb
:1019c40080290bd119680c1d1c600b6803601a6018
:1019d40013e0902921d003dc882917d0002010bd02
:1019e400a029efd0c029ece719680c1d1c600b6816
:1019f4000360d1171046c3e900010120efe719681d
:101a04000c1d1c600b6803601a80f6e719680c1d36
:101a14001c600b6803601a70efe719680c1d1c60ea
:0c1a240009680160d317c1e90023e6e760
:020000040000fa
:101a30002de9f84f04460c9f6668d4f80cb0246971
:101a400010463a68013c002502f0020a0b9a0bf896
:101a50000450002e1946b8bf0126012390464fead4
:101a6000e279002c03dcd3b12046bde8f88f50eac0
:101a7000010209d1721b002a06dc0a9a521b002ab5
:101a8000f1ddbaf1000feed042464b4600f01afcf1
:101a9000013c134630320bf804200135e1e73b6886
:081aa00023f010033b60dfe7b7
:020000040000fa
:101aa800f8b5846a05460f46164654b1ab6a6a69aa
:101ab8009b1ab3420bd2324639462846fff726fe18
:101ac800f8bd00f033fd0028f0d02046f8e7002ede
:101ad800f1d095f93430002b1bdbdbb23446621ea3
:101ae800b95c994212d1224639462846fff70efec4
:101af800a042e5d32744341b22463946686900f0e2
:101b080075fd6b691c446c613046d9e71446002aa0
:061b1800e5d13446f0e7c0
:020000040000fa
:021b1e00fee7e0
:020000040000fa
:101b2000144b01221a601a46d369002bfcd1114bc9
:101b30004ff480725a601a46d369002bfcd10d4bca
:101b4000ff22da600c4a1a601a46d369002bfcd1d6
:101b5000084b10225a831a46d369002bfcd1074b3d
:101b6000002283f8212083f82020024b83229a75db
:101b7000704700bf00400141160010008807002098
:020000040000fa
:101b80007fb5c36800911546002b18bf013a01923a
:101b900082680446cde902230e46022269460068a7
:101ba00000f0fffb002808dc00f0180383f00802b7
:101bb00063681343636005460fe0019a8242fad2dc
:101bc000a368e363801ae268184420642ab15a1caf
:101bd000e2632e441b7806f8013c284604b070bd31
:020000040000fa
:101be0000e4a38b5002313600d4a0e4c13600e4a9e
:101bf0000e4d13600e4a13600e4a13600e4a536274
:101c000013610123936000f02ffd00f060fdac42f2
:101c100000d338bd54f8043b9847f8e71808002073
:101c200044070020700200004007002074020000fa
:0c1c3000380700203c0700204807002077
:020000040000fa
:101c3c0070b5d0e90245a54217d10122a1f12003cc
:101c4c00c1f1200622fa06f602fa03f333438a4066
:101c5c00db43d6431ab10c490a6832400a605a1c5d
:101c6c001fbf094a51680b4053604368ac6043f096
:101c7c00010223f00103e56042601844036843f05d
:0c1c8c000103036070bd00bf08040020cd
:020000040000fa
:101c980020212223242425252626272728282828ea
:101ca800292929292a2a2a2a2b2b2b2b2c2c2c2c84
:101cb8002c2c2c2c2d2d2d2d2d2d2d2d2e2e2e2e4c
:101cc8002e2e2e2e2f2f2f2f2f2f2f2f00011702c2
:101cd8001d1813031e1b190b1408040d1f161c12c4
:0c1ce8001a0a070c1511090610050f0e52
:020000040000fa
:101cf40038b50d46044608b9002038bd43689b0634
:101d040007d5d0e905239a4216d80023c4e9053340
:101d1400a362d4e90f13994204d20122c91a20689c
:101d240000f0eefc0023c4e90f33002de4d020685a
:101d3400bde8384000f0d4bc0022c36a114698477d
:0c1d44006369002be1d14ff0ff30d6e7bf
:020000040000fa
:101d500010b4104a002111705160916011730e4c43
:101d60000e4b5c630e489863586940f081305861af
:101d70000c48186440f20940208083f84510012186
:101d80001170032283f84d2040f602721a805df82c
:101d9000044b7047e0070020d007002000a000415e
:081da000f007002000092000fb
:020000040000fa
:101da800134b01221a801a46136913f0010ffbd155
:101db8000f4b48f280121a801a46136913f4004f29
:101dc800fbd10b4b4ff400721a621a46136913f0d9
:101dd800200ffbd1064b00225a621a46136913f0f2
:101de800400ffbd1024b4ff480725a81704700bffd
:041df8000024004083
:020000040000fa
:101dfc0030b589b015464ff0ff32019202f2031252
:101e0c00029200b96846cde9030151b14c1e00297c
:101e1c00059408da094b4f221a604ff0ff3009b0d5
:101e2c0030bd0c46f3e700220270cde906001a46dd
:101e3c00294601a800f050fbf1e700bf1c08002068
:020000040000fa
:101e4c00114b012283f8562083f85720222183f866
:101e5c003b104ff00041c3f8901083f8d9200522b5
:101e6c0083f8df20302283f8bc20002283f8bf20c7
:101e7c004ff48021c3f80011c3f8101183f85221dc
:0c1e8c0083f83921704700bf008000413e
:020000040000fa
:101e9800104b00229a61da610f4b83221a765a6836
:101ea80022f480225a601a46d369002bfcd161b112
:101eb800084b032283f8202041ea4001064b59626f
:101ec8001a46d369002bfcd17047024b042283f8d1
:0c1ed8002020f1e78807002000400141b5
:020000040000fa
:101ee40008b500f09ffb0f4b1b680021186800f039
:101ef400a1fb0d4b1b680021186800f09bfbfff74a
:101f0400a3fffff743f9fff709fe00f075f9fff7a8
:101f140044fcfff71bfffff741fcfff743fffff70c
:0c1f2400adfb08bd3008002014090020af
:020000040000fa
:101f300070b50e4b0e4a0021934208d30d480e4d4a
:101f40004ff6ff76016829b943681bb970bd03f8e5
:101f5000011bf1e783684268334000f10c0455f837
:101f600023302046984704eb8000ebe70000002078
:0c1f70000000002094050000cc250000bb
:020000040000fa
:101f7c00022a70b5044616461d461ad043689b06c5
:101f8c0017d441b9002d08bf4ff4806505f1080046
:101f9c00fef78eff01466368012e43f02003636059
:101fac00c4e9021514bfff230a2384f83430024b12
:0c1fbc00e362002070bd00bfa91a000005
:020000040000fa
:101fc800c1f30a5340f21e42d21a0edd202a0ad863
:101fd800cb0243ea505040f00040d04090eae17014
:101fe800b0ebe1707047002070474b00004218bf0b
:101ff80043f0010313f5001f88bf21f0004111f0e1
:0a200800004058bf6ff00040704721
:020000040000fa
:1020120010b50278202a034600f10100f9d0a2f19e
:1020220009010429f5d92b2a07d02d2a11d1012122
:102032000133013b00200a2403e00021f8e760435a
:10204200801a13f8012f303a092af8d901b940420f
:0620520010bd0021ede7c6
:020000040000fa
:10205800d0b110b40446c9b1084421460c4a6442c0
:10206800137e13f0010ffbd0536803f00703012b15
:1020780014bf0b7834f81130936201318142efd1eb
:1020880001205df8044b7047002070470120f8e7f5
:0420980000200141e2
:020000040000fa
:10209c0010b5054c227832b9044b13b10448aff398
:1020ac0000800123237010bdb40700200000000045
:1020bc000000000008b5034b1bb103490348aff304
:1020cc00008008bd00000000b807002000000000e0
:020000040000fa
:1020dc000c4a036810b5546a0b4a591e121b8a42eb
:1020ec000ad22bb1094b0c221a604ff0ff3010bdf5
:1020fc00102202600020fae7173323f00f0303606d
:10210c00f8e700bf48070020efffff7f1c08002006
:020000040000fa
:10211c0038b5436813f4807f0446154610d0036924
:10212c0040699a4228bf1d462a4600f05dfa636951
:10213c0022692b44551b0022636125611a7038bd3e
:0a214c00db06fcd400f0fcf9f9e713
:020000040000fa
:02215600fee7a2
:020000040000fa
:1021580030b50c4a002312f8134024b902eb4303ac
:102168005b78184630bd01680d78a54209bf02ebbf
:10217800430301335b78013114bfdbb201600a2be2
:08218800e9d9eee78c24000008
:020000040000fa
:1021900000090138202813d9b0f5007f05d2094b7a
:1021a00003ebd00010f8040c7047b0f5e05f06d8e0
:1021b000044b03ebd01010f8040c103070473f2094
:0821c000704700bf981c0000ed
:020000040000fa
:1021c80010b50b4c94f8204064b20cb1002010bd3f
:1021d800074ca080e360029b6361a160226100213b
:1021e800a170217084f82110fff752fe0120eee75c
:0421f8008807002034
:020000040000fa
:1021fc000a4b0b4a1a604ff622029a814ff4803236
:10220c005a601a46d369002bfcd1044a136843f078
:10221c0002031360d369002bfcd1704700200141ed
:04222c000401104059
:020000040000fa
:10223000426822f00102531a102b10b40ed9441830
:1022400043f0010341f0010121606360835041606c
:1022500004f108005df8044bfff71ab85df8044b71
:022260007047c5
:020000040000fa
:02226200fee795
:020000040000fa
:1022640030b400eb4004094b03eb84031b899bb29d
:10227400834201d030bc7047044b44002518ad00a4
:102284005951204403eb80035a60f3e714060020fd
:020000040000fa
:1022940070b505462c68e30701d500200fe0204601
:1022a400fff774ff064600f0dff82868a042f1d17a
:1022b40020f00100281a3146fff7befc012070bd52
:020000040000fa
:1022c40053b94ab9002908bf00281cbf4ff0ff3199
:1022d4004ff0ff3000f012baadf1080c6de904cef6
:1022e400fef7befaddf804e0dde9022304b070472e
:020000040000fa
:1022f40008b5084b9a8992b207494a604cf2ff32fa
:102304009a819b890b6823b10b46486889681b68ce
:0c231400984708bd00240040000800208d
:020000040000fa
:1023200070b505466c68e30701d500200de0204636
:10233000fff72eff064600f099f86b68a342f1d133
:0c23400028463146fff77afc012070bdf2
:020000040000fa
:10234c00074b1968024609b906491960186806490d
:10235c0002448a4294bf1a604ff0ff30704700bfae
:0c236c002008002020090020200b002089
:020000040000fa
:10237800802910db812901dd83290cd113680733fb
:1023880023f0070303f108011160d3e90023c0e932
:0a2398000023012070470020704769
:020000040000fa
:1023a2002de9f0410024804617460e462546bd42df
:1023b20002db2046bde8f081726856f8081b4046f1
:0a23c20000f089f901350444f1e749
:020000040000fa
:1023cc002de9f0410024804617460e462546bd42b5
:1023dc0002db2046bde8f081726856f8081b4046c7
:0a23ec0000f06cf801350444f1e73d
:020000040000fa
:0223f600fee700
:020000040000fa
:1023f80008b5074b4ff400425a61064bd3f8b43086
:102408002bb1044bd3f8b800d3f8b430984708bdc3
:0824180000280040140600201a
:020000040000fa
:1024200090f948305a1e1343426880f8483012f041
:1024300004031bbf42f010024260c0e90f334ff0ab
:08244000ff3008bf1846704789
:020000040000fa
:1024480010f0004160b148bf40420a0d02f21d423f
:10245800b0fa80f3d21a9840c30a400503eb025140
:022468007047bb
:020000040000fa
:02246a00fee78b
:020000040000fa
:10246c00064b013053f830203ab9c100a1f10802f3
:10247c001a44194443f830204a607047080400207d
:020000040000fa
:10248c0068076c094c836a9074a07ac000806888d5
:0e249c0000846c820081286e696c2900250086
:020000040000fa
:1024aa0010b50023934206d113f0030018bf012090
:0e24ba0000eb930010bdc45ccc540133f2e77c
:020000040000fa
:1024c80038b50d461446012801d0204638bd2146ae
:0c24d8002846fff7bdfd0028f9d0f6e70c
:020000040000fa
:1024e40013b50446019201aafdf7cefe636813f00a
:0c24f400100f18bf4ff0ff3002b010bdf9
:020000040000fa
:102500000eb403b503aa52f8041b019200f0d4f8ec
:0a25100002b05df804eb03b0704761
:020000040000fa
:02251a00fee7da
:020000040000fa
:10251c00044a138843f002031380136913f0020f6b
:08252c00fbd1704700240040c0
:020000040000fa
:1025340010b50446fff772ff28b9a368e268c4e93e
:0825440005331344a36210bd2e
:020000040000fa
:10254c0010b4c46a1cb123465df8044b18470068ec
:08255c005df8044bfff7b2bf6c
:020000040000fa
:102564000068002808b501da002008bdfff7ecfe7a
:06257400431cfad1f8e758
:020000040000fa
:02257a00fee77a
:020000040000fa
:10257c00034b18621a46136913f0200ffbd17047f6
:04258c0000240040e7
:020000040000fa
:1025900010f4807f02d0024b01221a70704700bff6
:0425a00028080020e7
:020000040000fa
:1025a400012800d07047024b01221a70fae700bfdd
:0425b4002a080020d1
:020000040000fa
:1025b80008b500f071f810b9014b01221a7008bd76
:0425c80029080020be
:020000040000fa
:1025cc0007260000ab240000eb260000eb260000e1
:0425dc00eb260000ea
:020000040000fa
:1025e00008b500f075f8024b1860586008bd00bfd0
:0425f0000c080020b3
:020000040000fa
:1025f40010b500239a4200d110bdcc5cc454013301
:02260400f8e7f5
:020000040000fa
:102606000a440023914201d10020704701f8013ba2
:02261600f8e7e3
:020000040000fa
:10261800024b03eb0010416082607047e007002026
:020000040000fa
:10262800024b40f204521a80704700bf004000413c
:020000040000fa
:1026380000294ff480630cbf02220022fff79abce6
:020000040000fa
:1026480002440346934200d1704703f8011bf9e79f
:020000040000fa
:1026580003461a46013311780029fad1101a704737
:020000040000fa
:1026680008b5fff7b9ff00f046f800f044f808bdd8
:020000040000fa
:0e267800a0f14103192b98bf40f020007047dd
:020000040000fa
:0226860070479b
:020000040000fa
:0c268800014b18609960704700080020aa
:020000040000fa
:0c269400014b58629962704788070020d3
:020000040000fa
:0c26a000014b93f82100704788070020d0
:020000040000fa
:0c26ac00014b01221a7070472608002024
:020000040000fa
:0c26b80013460a466ff00041fff79cbb80
:020000040000fa
:0a26c40008b50020fff7f2f808bd8a
:020000040000fa
:0226ce00704753
:020000040000fa
:0826d000004870479808002043
:020000040000fa
:0626d8004ff0ff307047d7
:020000040000fa
:0626de000068fff7f2bee8
:020000040000fa
:0626e4004ff0ff307047cb
:020000040000fa
:0426ea000020704715
:020000040000fa
:0426ee000020704711
:020000040000fa
:0426f200002070470d
:020000040000fa
:0426f6000020704709
:020000040000fa
:0426fa000020704705
:020000040000fa
:0226fe00704723
:020000040000fa
:04270000704700bf5f
:020000040000fa
:0427040000207047fa
:020000040000fa
:02270800704718
:020000040000fa
:0200000400807a
:044000003912003c35
:020000040000fa
:0200000400807a
:044004008000a82a66
:020000040000fa
:0200000400807a
:04400800ffffffffb8
:00000001FF
