:020000040000fa
:10000000f83f002011300000771c00005321000051
:1000100000000000000000000000000000000000e0
:10002000000000000000000000000000830d000040
:100030000000000000000000830d0000830d0000a0
:10004000830d0000830d0000830d0000830d000070
:10005000830d0000830d0000830d00002d2a000099
:10006000830d0000830d0000830d0000a12500001a
:10007000830d0000830d0000830d0000830d000040
:10008000830d0000830d0000830d0000830d000030
:10009000830d0000830d0000830d0000830d000020
:1000a000830d0000830d00009d1000009d100000d6
:1000b0009d1000009d100000830d0000830d0000c6
:1000c000830d0000830d0000830d0000830d0000f0
:1000d000830d0000a7360000830d0000830d000093
:1000e000830d0000830d0000830d0000830d0000d0
:0400f000830d00007c
:020000040000fa
:1000f400f8b5c046f8bc08bc9e467047e53200001f
:10010400f8b5c046f8bc08bc9e467047c132000032
:020000040000fa
:08011400540900000100000085
:020000040000fa
:10011c00f0b59bb013930b6815900a938b680d91f7
:10012c000b930b694d681893cb6802931368089373
:10013c0053680898069300220023069903f078f977
:10014c0060b90a9b5b0738d408200a9b03400993cb
:10015c000b9b0393099b7bb1202306e080221206a4
:10016c009446069b634406932d23029a13700b9bb3
:10017c00013b039301230993069b08995b005b08e1
:10018c008f4af1b993421cd10299139b8c46099a60
:10019c00413b624410008b49192b10d803f06dfdc4
:1001ac00029803f055fd0a9b0200009302990b9be9
:1001bc00159802f0f8fb1bb0f0bd2b23d5e70431ea
:1001cc00ece7934202d80fd1089b6bb10299139bb9
:1001dc008c46099a413b624410007a49192b01d88c
:1001ec000831dbe70c31d9e7002200230898069987
:1001fc0003f098fa0026744f0024e8bb040002e0d8
:10020c000134049e059f0022704b3000390001f030
:10021c0083fc089a069b0490059103f0eaf80028e9
:10022c00eed0002304931fe0694b9c4213da049b2d
:10023c008bb90022674b0898069901f06dfc654b51
:10024c000890069130003900002201f065fc012372
:10025c0006000f0004933000390000225b4b01f0c4
:10026c00d9ff06000f00013c32003b0008980699ac
:10027c0003f0def80028d7d1139803f0f0fcc3b2da
:10028c000c93002d00da8be10493672b00d0a7e0d0
:10029c00002d00d180e1231d02dbac4200da9be093
:1002ac006523abe0002200230e920f93f7e0069635
:1002bc000797049b2600652b00d00ee100260ce16d
:1002cc00129b5bb9002e09da029a14992e335354ff
:1002dc00039b0137013b039301231293ea193b0063
:1002ec009446302102e0029ad15401339c45fad154
:1002fc00039aeb19551b029a30305f1cd0546b1ebd
:10030c000393002522e00d9b14971b691093053b6a
:10031c00bb4200d8eae0069a079b08980e9901f0b8
:10032c0079ff01f0d7ff1090119103f084f909289f
:10033c0000dd092010230a9a13400343002bbfd180
:10034c000c9b672bbcd1002ec8da0135802000062f
:10035c0084460e99089a61440b00109811990092ea
:10036c000193069a079b03f04ffc80231b06cb18c6
:10037c0008900e93069807990022144b01f04aff3f
:10038c00013e06900791ade00a9bdb0600d4b1e07c
:10039c002e23029ad3550137ace094fbf6fc614650
:1003ac007143611a029c3031013be154039964465c
:1003bc0001390391b1e0029a125c1a540138dbe066
:1003cc000000f07f023c00000000f03f00002440e1
:1003dc00d4feffff00005043002c0eda662304937a
:1003ec00049b0135662b0ad1002c02da002600246e
:1003fc006e4f0c9b672b00d02d1966230493089b22
:10040c000e960f971293069b1093002314930e9a3b
:10041c000f9b1298109901f0fdfe01f05bff1690f6
:10042c00179103f008f91990802000068446109962
:10043c00129a61440b0016981799009201930e9a28
:10044c000f9b03f0e1fb80231b06cb18129010933b
:10045c000e980f99564b002201f0dcfe149b0e9067
:10046c000f91013314939d42d1d10022514b01f0d5
:10047c0053fb0e900f9102000b001298109902f092
:10048c00d7ff002800d00de70e9a0f9b12981099f9
:10049c0003f048f918b1199bdb0700d402e70e9a58
:1004ac000f9b0898069901f039fa002208900e91da
:1004bc003f4b3000390001f02ffb089a0e9b069041
:1004cc00079102f0b3fe002800d1f0e6049b013442
:1004dc00662b00d0ede626000135731b0025099f25
:1004ec0016931295169b9e4200d00ce7129b002b84
:1004fc0000d149e70022029bd819049b0270652b9e
:10050c002ad1189b0299013bca54944201da6442e5
:10051c00013203250a2618996d1a002c00d03ce7ed
:10052c00e918002900dd38e75d1e2d2102b90239da
:10053c00029a023b5155139a413a192a01d8452285
:10054c000492029ad118049a0a70039a023a0392fe
:10055c009f4201da03f091fb03230a9a1340022b0a
:10056c0000d01de6039b002b00dc19e6029803f07b
:10057c006ffb029b039a9b18099a824200dc1ae7d4
:10058c001300029a3021944663441800039a03f036
:10059c001afb00230b9303e601257ce606257ae67d
:1005ac000c9b672bfad00493062519e70000f03f4b
:0805bc0000002440000014407f
:020000040000fa
:1005c400f0b599b015930b6814900b934b680d9389
:1005d4008b680c930b691193cb680393136809938d
:1005e40053680998089300220023089902f024ff15
:1005f40068b90b9b5b073ad408200b9b0c9d034006
:1006040006938bb12023039a013d13700ae08022e4
:1006140012069446089b634408932d23039a13708f
:100624000c9b5d1e01230693089b099a5b005b08e3
:10063400fab9b64a93421cd10399159b8c46069a83
:10064400b34c6244413b10002100192b00d9211df9
:1006540003f017fb201d03f0fffa0b9b020000932d
:1006640003990c9b149802f0a2f919b0f0bd2b2346
:10067400d4e7a64a934202d814d1099b93b10399b3
:10068400159b8c46069aa24c6244413b1000210003
:10069400192b05d8083103f0f4fa20000c30dae7fe
:1006a4000c31f8e7069b03995a1c302306980b5427
:1006b400159b413b0e930e995823192900d92033d9
:1006c400069909980231069103998b54ab1e0a933b
:1006d40000220023089903f029f8002800d164e1de
:1006e40000238c4c0793049305940d9b1093002bcb
:1006f40001da182310930023049e059f099d089c8a
:100704003200129328003b00210001f087fd01f024
:10071400e5fd32003b001690179101f001fa02004a
:100724000b002800210003f039fa7b4b05000c0074
:1007340030003900002201f0f3f9129b0600013366
:100744000f930d9b0f00002b06da002200232800d4
:10075400210002f0ebff30b9109b129a934200dda6
:1007640029e101330f9300226c4b3000390001f072
:10077400d7f906000f0002000b002800210002f048
:100784005bfe002800d018e132003b002800210065
:1007940002f0ccff30b11698179902f050ffc3074e
:1007a40000d40ae1089932003b00099801f0baf834
:1007b400109149000890490818b9544b994200d146
:1007c4003ae700252f00069c0995119b2600053b5e
:1007d400a3422dd9049a059b0898109901f01efd97
:1007e40001f07cfd1290139102f029ff0300002810
:1007f40000d0e5e0002f00d1e2e00135049a059b2a
:100804001298139901f08cf902000b0008981099c2
:1008140003f0c4f9404b0890109100220498059904
:1008240001f07ef90f9b013704900591bb42ccd1b6
:10083400099be3b9002d00d104e10d9b002b00dce2
:1008440000e10b9bdb0700d5fce02e22039b039900
:100854001b191a702a198a183021597001339a42c7
:10086400fbd12c19ed430a9b0134eb180a930022a7
:10087400039b03991819119b0270013bca540799f1
:10088400914202da4a4207920122022511990a266c
:10089400691a8c460799002900d0bee06146c91840
:1008a400012900d1b9e05d1e2d2102b90239039a54
:1008b400023b51550e995022192900d9203203992f
:1008c400c9180a709c4201da03f0dbf903230b9a7e
:1008d4001340022b17d10a9d023d002d13dd03980e
:1008e40003f0baf9039b5b19069a904200dba4e07b
:1008f4001300039a30219446634418002a0003f03d
:1009040066f900230c930398a5e6c0460000f07f27
:10091400f23b00000000f03f0000b03f0000204028
:10092400079b0494059501330793049a059b1000d3
:10093400190000f0f7ff04000d0002000b000998f5
:10094400089902f079fd0028ead0049a059b0998d9
:10095400089902f071fd002800d1c6e604980599b3
:1009640000223d4b01f0dcf80022002302f0defe01
:1009740078b1049805990022384b01f0d1f800228f
:1009840004900591354b0998089901f0c9f809902c
:100994000891314b04980599002201f0c1f8079b96
:1009a40004900591013b0793cfe700232c4c07905b
:1009b40004930594b9e70f9ba2e600260027f1e60d
:1009c400099a4ab947b103992e328a550a9a0134d1
:1009d400013a0a92012209922e1903e03021039a66
:1009e40011550134b442f9d118000a9a5730551bf5
:1009f400092b01dc303318000e9b192b06d8202359
:100a04000343613b192b01d803f034f9039b741c95
:100a140098556b1e0a930025f0e60799079d91fbf4
:100a2400f6f731007943691a039d3031013be954eb
:100a34000a99079701390a912ce7039a125c1a5410
:100a4400013851e70b9bdb0600d410e72e23039af1
:100a5400135501340be7c0460000e03f000050434b
:040a64000000f03f5f
:020000040000fa
:100a6800f0b585b000930393009b02900c0016002c
:100a7800150001900f00002b00d0c9e08a424ad926
:100a8800100002f033fd48b12023019f1b1adf40fc
:100a9800019b84408340854027430193aab22b0cd5
:100aa800b7fbf3f1160094461a004a434e43bf1aa7
:100ab800019a3f04140c27430a00be4207d97f1944
:100ac800013abd4203d8be4201d98a1e7f19be1b16
:100ad800b6fbf3f14b436446f61a6b464c439b88ce
:100ae80036041e430f00b44207d97619013fb542b8
:100af80003d8b44201d98f1e76191204341b3a4325
:100b08000a9b23b1c4401c6000230a994b60100063
:100b1800009905b0f0bd02b9ffde100002f0e6fc56
:100b2800b8bb0123a41b00932b0cb4fbf3f21f00ea
:100b380011005743aeb27143e41b019f24043f0cdc
:100b48003c439446a1420ad9012764197f42bc4418
:100b5800a54204d8a14202d9023a94466419641afb
:100b6800b4fbf3f77b43e41a6b467e439b8824046b
:100b78001c433900a64207d964190139a54203d894
:100b8800a64201d9b91e641963461a04a41b0a4374
:100b9800b6e7202223000199121ad3408440d1409d
:100ba800019a8540824021438c46290cb3fbf1f41d
:100bb80001920a00624326009b1a6246afb27e4346
:100bc800120c1b04134322009e4207d95b19013af9
:100bd8009d4203d89e4201d9a21e5b199b1bb3fb01
:100be800f1f671435b1a614677438cb21b041c43d0
:100bf8003100a74207d964190139a54203d8a74291
:100c080001d9b11e641912040a43e41b00928be750
:100c1800009b8b420ad90a9b002b00d1abe0029ab9
:100c280059601a60002300931a0070e7039802f0d5
:100c38005dfcd8b9039ba34203d3029b02009e42ea
:100c48000ad8029b01229e1b039b0196e41a029b71
:100c5800b342ad416d42671b0a9b0093002b00d144
:100c680055e7019982c30023009350e720231b1afc
:100c780001933300019a039fd34087401f43230009
:100c88000199d340029a8440ca4022439446029a6a
:100c9800390c8240b3fbf1f402920a0086406243a9
:100ca800009626009b1a6246bdb26e43120c1b04c6
:100cb800134322009e4207d9db19013a9f4203d809
:100cc8009e4201d9a21edb199e1bb6fbf1f46346b6
:100cd80061436543761a360499b20e432300b54240
:100ce80007d9f619013bb74203d8b54201d9a31e6b
:100cf800f61912041a436b461c88009b711b8c461c
:100d0800190c230096b2150c6c4373434d43714381
:100d18001e0c091971188c4202d9802464022d19fd
:100d28000c0c9bb209046519c918ac4503d30bd147
:100d3800029b8b4208d2009b013ace1ab1428941ec
:100d48004942cf193100ed1b0a9b0093002b00d1bb
:100d5800dde6029b019c591a63465d1b029b8b4290
:100d68009b415b42ed1a2b00c140a340c54019438b
:0a0d78000a9b22c377e70a9b55e7a8
:020000040000fa
:020d8200fee78a
:020000040000fa
:100d84000023f0b506001500afb005910193059955
:100d94000b78002b00d10ce101235b420a930eabcc
:100da40000240c93802309940b940d930b5d0bb1d9
:100db400252b29d134b12200300002f0d3fb059b4e
:100dc4001b190593059b1a78252a00d0e6e040f20a
:100dd400020c102108270133029305930598037828
:100de4002b2b1bd025d8202b1bd0232b1dd02a2bfb
:100df4002ad002f0e3fa0b90059b1a78303a092abc
:100e040033d801330593f7e70134cfe70122099b77
:100e140080180393134309930590dfe70423099a89
:100e24000ee0099b03933b430be0099b03930b43a5
:100e340007e02d2bead0302bd9d16246099b0393ce
:100e4400134309930130e7e72b6801301a1d1b682f
:100e540005902a600b93002b07da099a5b420392f0
:100e6400012203990b934a400992099bda0702d5a0
:100e7400022293430993059b1a782e2a0ed100224d
:100e8400581c0a9205905a782a2a28d102330593cd
:100e94002b681a1d1b682a6003930a9305a802f0a5
:100ea4007dfb059b0700187802f0ddfe692800d160
:100eb40082e035dc632800d1d2e01bdc252800d198
:100ec400dbe0612859d0252306aa1370029b059301
:100ed400002309930b93013b0a930233aee002f023
:100ee4006dfa0a90059b1a78303a092ad6d801334c
:100ef4000593f7e764285fd06728e4dc2a0039000b
:100f040006a802f06bfc002800d1a5e0059b09a906
:100f14005a1c05921b7806aa3000fff7fdf83ce046
:100f2400702800d17ae016dc6e2800d18de06f289d
:100f3400c9d12b000022390006a801f02dfa00289f
:100f440000d189e0059b06aa013309a93000059365
:100f540001f018fe21e075283fd078284dd0732881
:100f6400b1d1802f00d077e0059b2a680133059327
:100f7400131d2b601268002360e02a00390006a8c4
:100f840002f02cfc002867d0059b09a95a1c059285
:100f94001b7806aa3000fff713fb2418019b1c19c9
:100fa400a34200dc71e04f22394b1a6001235b42fb
:100fb400019301982fb0f0bd2b000122390006a83f
:100fc40001f0eaf9002847d0059b06aa013309a9d4
:100fd4003000059301f03bfadfe72b0000223900d3
:100fe40006a801f0d9f9b8b3059b06aa013309a9eb
:100ff4003000059301f0b5ffcfe72b000022390044
:1010040006a801f0c9f938b3059b5a1c05921b7850
:1010140006aa09a9300000f0e7febee72b00002273
:10102400f02106a801f0b8f9b0b1059b079a013385
:101034000593069b134333b9164a163209a93000a7
:1010440002f0d2f8a9e77823e2e7019b39001a19e4
:1010540006a82b0001f038fe059b013305939de79c
:10106400802ff9d1059b013305932b681a1d1b684a
:101074002a6006aa13700123e0e7802fecd1059bb8
:1010840006aa013305931070f5e701947fe6c04684
:08109400bc070020043a000033
:020000040000fa
:10109c0070b540f60003c4f200239b7d43b340f2cd
:1010ac002c73c2f200039c6a40f60003c4f20023c6
:1010bc005b8b9b071dd540f22c73c2f200032022e0
:1010cc00ff2199540132fd39995440f22c73c2f22c
:1010dc00000320229b5c5bb2013300d1e6e040f2be
:1010ec002c73c2f2000320229b5c062b00d109e179
:1010fc0070bd40f60003c4f200235b8bdb070ad5fe
:10110c0040f22c73c2f200032022ff2199540132c9
:10111c00fd399954d9e740f60003c4f200235b8be8
:10112c005b070ad540f22c73c2f200032022ff2188
:10113c0099540132fe399954c7e740f22c73c2f22c
:10114c00000320229b5c5bb2032b78d0042b1bd0ba
:10115c00022bbad140f22c73c2f200031b694bb1c3
:10116c0040f22c73c2f20003988880b2002101f087
:10117c0093fcaae740f22c73c2f20003988880b269
:10118c00012101f089fca0e740f22c73c2f20003ac
:10119c009a691b69934219d040f22c73c2f2000376
:1011ac009b68985c40f60003c4f200232821585435
:1011bc00511c40f60002c4f20022d369002bfcd172
:1011cc0040f22c73c2f2000399617ee740f22c735b
:1011dc00c2f200035b69d3b140f22c73c2f200037c
:1011ec009b885b0001221343d202c4f2002253629b
:1011fc0040f60002c4f20022d369002bfcd140f26d
:10120c002c73c2f200032022032199545de740f6af
:10121c000003c4f200235968c02292020a435a60a8
:10122c0040f60002c4f20022d369002bfcd140f23c
:10123c002c73c2f2000320220621995445e740f298
:10124c002c73c2f20003d9695b69013b8b4215d048
:10125c0040f60002c4f20022d369002bfcd140f20c
:10126c002c73c2f20003d86840f60002c4f20022cc
:10127c002825525d42540131d96126e740f600031e
:10128c00c4f200235868e022d20202435a6040f6ae
:10129c000002c4f20022d369002bfcd140f22c7363
:1012ac00c2f20003202206209854d1e740f22c739e
:1012bc00c2f200030021995440f60003c4f200234b
:1012cc005968c02292020a435a6040f60002c4f2e6
:1012dc000022d369002bfcd140f60003c4f200239a
:1012ec0083221a7640f22c73c2f200035b6a002b45
:1012fc0000d1fde640f22c73c2f200035b6a2000c1
:10130c009847f5e640f22c73c2f20003002220212c
:10131c005a5401315a5440f60003c4f2002383326c
:10132c001a7640f60002c4f200220f31538b0b40a8
:10133c00102bfbd140f22c73c2f200035b6a002b22
:10134c0000d1d5e640f22c73c2f200035b6a200098
:04135c009847cde6fb
:020000040000fa
:10136000580700201c00000000000000a807002013
:1013700008000000000000007807002010000000b6
:10138000000000008807002010000000000000009e
:101390009807002010000000000000007c060020dc
:1013a00060000000000000002c0700202c0000005e
:1013b00000000000c4070020020000000000000040
:1013c000c60700200100000000000000c707002041
:1013d0000100000000000000c8070020010000001c
:1013e00000000000c907002001000000000000000c
:1013f000ca070020010000000000000018060020bd
:1014000064000000000000007407002004000000d9
:1014100000000000dc06002050000000000000007a
:10142000cc0700206c00000001000000d80700205d
:10143000d4070020d807002000000000250000008d
:101440000800002000040000000000000000000070
:10145000000000000000000000000000000000008c
:101460000000000000000000c33c0000000000007d
:10147000000000000000000000000000352d00000a
:10148000000000000000000000000000000000005c
:101490000000000000000000000000200804000020
:1014a000000000009808002020000000010000005b
:1014b0000100000003000000000000000000000028
:1014c000000000000000000000000000b007002045
:1014d000b00700200800000000000000b80700204e
:1014e0000400000000000000bc0700200400000011
:1014f00000000000080400201002000000000000ae
:101500003808002060000000010000000100000019
:1015100003000000000000000000000000000000c8
:1015200000000000000000000d2f0000000000007f
:101530000000000000000000933c0000b7300000f5
:10154000000000000000000000000000000000009b
:10155000000000000000000000000000000000008b
:10156000000000000000000000000000c007002094
:101570000400000000000000000000000000000067
:020000040000fa
:101580000d0a5468657265207765726520616e206a
:101590006572726f7220647572696e67204932439a
:1015a000205472616e736d69742e20506c65617386
:1015b0006520656e73757265207468617420746847
:1015c0006520492f4f312058706c61696e65642029
:1015d00050726f20697320636f6e6e65637465640b
:1015e00020746f2074686520626f6172642e0a0a2d
:1015f0000d0000000d0a2d2d2d2d2d2d2d2d2d2d05
:101600002d2d2d2d2d2d2d2d2d2d2d2d2d2d2d2d0a
:101610002d2d2d2d2d2d2d2d2d2d2d2d2d2d2d2dfa
:101620002d2d2d2d2d2d2d2d2d2d2d2d2d2d2d0d0a
:10163000000000000d0a2020202020202020202053
:10164000204c6f772d706f776572204170706c69d8
:10165000636174696f6e206f6e2053414d204c3171
:1016600030205870726f2020202020202020202041
:10167000200d00000d0a456e74657220696e2053be
:1016800074616e64627920736c656570206d6f643f
:10169000650a0a0d000000000d0a4144435f5749e6
:1016a0004e4d4f4e20496e746572727570742044b1
:1016b000657465637465642e2057616b652d757064
:1016c0002066726f6d20736c656570206d6f646548
:1016d0002e0d00000d0a54656d706572617475728f
:1016e00065203d20253032642046200d0a00000090
:1016f0000d0a444d41207472616e736665722063f9
:101700006f6d706c657465642e20456e7465722013
:10171000696e205374616e64627920736c656570c4
:10172000206d6f64652e0d000d0a535730206275d1
:1017300074746f6e20707265737365642e20456ecd
:1017400074657220696e2049646c6520736c6565f0
:0c17500070206d6f64652e0d0000c04617
:020000040000fa
:10175c00f0b583b0002001f07ffa43f64f41c0f2a0
:10176c0000010022052001f031ff43f6ab00c0f26e
:10177c000000002102f057fa43f61d31c0f20001bf
:10178c000022002002f0a6f943f64140c0f200000e
:10179c00002102f041fa02f094f802f0a3f841f2b1
:1017ac008055c0f200057435280002f029f841f28a
:1017bc000064c0f200042000343002f021f828004c
:1017cc0002f01ef82000743002f0aef802f0cbf8f4
:1017dc0041f28067c0f200073e0018360024002555
:1017ec00c3f6e07540f2c773c2f200031b7863bb0b
:1017fc0040f2c973c2f200031b78002b43d140f2b4
:10180c00c873c2f200031b78002b74d140f2ca7368
:10181c00c2f200031b78002be4d040f2ca73c2f270
:10182c00000300221a7043f20004c4f200044023a7
:10183c00e36141f20070c0f20000283001f0e0ffdb
:10184c008023a36102f080f8c8e740f2c773c2f2ac
:10185c00000300221a7043f20003c4f2000380322a
:10186c005a61300001f0ccff40f2c473c2f20003a5
:10187c0040f2c671c2f2000102220092013a4f20de
:10188c0001f038fdb4e740f2c973c2f20003002244
:10189c001a7040f2c473c2f200031a78120258781c
:1018ac001043c00902f08bf822002b0000f034f931
:1018bc0001f00aff80b2c2001218052392fbf3f26a
:1018cc002032d2b23900543140f21860c2f200001a
:1018dc0002f0eaf802f06ff90028fbd040f228423f
:1018ec00c4f2002240f21861c2f20001642300200d
:1018fc0000f00ffb83e740f2c873c2f20003002232
:10190c001a703800703001f07bff43f20003c4f210
:0c191c00000380229a6102f026f877e7b1
:020000040000fa
:10192800f0b40125ed070f005f405ad48b4200d177
:10193800824205d950404240504059404b4059409e
:101948004e18760ddf187f0d3bd0741c640529d026
:10195800f41b352c26d80e0ddb022b43db0ac902fb
:101968002943c9121700202c1ed2e741e2405740f4
:10197800e3415a40a340e3405a40002480185941ab
:101988000ad3b21c520521d0c207012f62411700a9
:101998004008cb0718434908013636054208af41cd
:1019a80060417141f0bc7047203c06d01f00e74100
:1019b800e3405f400024012a6741c0186141ebd32e
:1019c800dfe7002eeed129400020ebe70136310594
:1019d8000020e7e7e742e5d10020c143090dc9042b
:1019e800e0e76b400e00871a9e4104d26e40c01b90
:1019f800b141d21973414e18df18ac0ae642e9d258
:101a0800760d7f0d31d0f41b362ccbd8b4460e0d95
:101a1800db022b43db0ac9022943c90a012c32d84d
:101a280004d1d4075208df073a435b08ef0a64423f
:101a3800904199411ed0002239424dd1241940418c
:101a480049410124394204d101340018494139423d
:101a5800fad06246a24204d9361b013e36058919de
:101a6800a0e7f10ac90700209ce736429ad1002076
:101a7800002197e70200224394d0b842ded2010049
:101a880020002024e3d1202c13dd203ce241170064
:101a9800a240e2405740e3415a40a340e3405a4045
:101aa800012fbf410137174300227c4298419141e1
:101ab8000ce01700e741e2405740e3415a40a34099
:101ac800e3405a407c429041994100220f0303d2df
:101ad800013e241940414941013e36054708ac41c1
:081ae80050417141f0bc704750
:020000040000fa
:101af00006d128b9f54203d800d30ab96d0d09d132
:101b00000020c143090dc904f0bdf9d11242f7d13b
:101b1000640df5d00020c14349054908a6e0002026
:101b20006146f0bdf0b50127ff070e005e403e4064
:101b3000b446be0a4c18dd18f442d9d2f542e4d2bc
:101b4000640decd06d0dead06419c9023943460d1d
:101b5000c0023143db023b43db0a10b48e4685b240
:101b600097b26f43140c6c433e0ca419260c24044a
:101b7000bfb227439cb26c43a419190c6943250cce
:101b8000a4b249190d04090c6419000c95b245431f
:101b90003e0c76193743bfb2360c150c4543ad19d0
:101ba000a6b2240cad192e0437432e0c36199db263
:101bb0004543ad19acb22e0c89191d0c45436d1867
:101bc0002e04290c3443704680b295b245433e0c36
:101bd00076193743bfb2360c150c4543ad19a6b282
:101be000ad19240c2e0437432e0c36199db24543f3
:101bf000ad19acb22e0c89191d0c45436d182e047d
:101c00003443290c75462d0c90b268433e0c801964
:101c10000604bfb23e43070ca0b23f18120c6a4341
:101c2000d019020c80b2240ca4189ab26a4312197b
:101c300014042043120c89181b0c6b43c91810bce8
:101c400001273d05294203d1b61940414941013cd4
:101c5000ff077d0d013d641b0bdb6d00ac4209da13
:101c6000240500254208be41684161416646314372
:061c7000f0bd54e74ee751
:020000040000fa
:021c7600fee787
:020000040000fa
:101c7800f0b587b0039003a801f05efb002802daf4
:101c8800002007b0f0bd039b1b095d1e202d0ad95b
:101c980040f2ff12023b934224d84d4adb089b18be
:101ca800043b1d7801352a000120002101f0f2fed5
:101cb800002443428c4100930194464c00982268ca
:101cc80063681040020001990b401a43f2bb039b62
:101cd80005a81033059301f0f4fe50b90c223e4bd1
:101ce8001a60cee73a4adb099b18043b1d78113588
:101cf800d9e73a490c68a04206d0059b0400103b7e
:101d080005930123103483600125059be2180a60be
:101d18002b43083a083c28c26360002cb0d020004e
:101d280001f0a5fc58b123686168ab43e31a5a680f
:101d3800aa4352185a606168a94362501c002000e7
:101d4800039901f09bfd200008309ae7204a2449b6
:101d58003c3290bb584203404b43db0ed65c2036e6
:101d6800300001f03dfe731cdb001a4ae458083bc2
:101d78009b189c42a1d0272e25dd0235ae4201dcfe
:101d88003f2e20d101226368039f9343dd1b280067
:101d9800009301f06ffb864215d1e268a168e31950
:101da800da60996093609a68d360012217431f60d4
:101db8005d60009be5506760c1e7434203404b43c9
:101dc800db0ed65ccce73100200001f071f9b6e7f4
:101dd800b02e000010040020bc07002008040020da
:041de80029e66b0776
:020000040000fa
:101dec00f0b58fb00d934b680c9006938b680d007b
:101dfc000793cb6816000393069b0f68002b42dbfe
:101e0c0002239f4310233b400a93079b04930a9b96
:101e1c003bb1726833681343079a13b11300023b4a
:101e2c00049308233b400b935a1e9341049ad31af4
:101e3c0004933368039a0893736809932b695c1ea7
:101e4c0000231355069b0593012c1fdc0a9b002bca
:101e5c0051d10b9b1bb12023039a013c13552b69c9
:101e6c0000975a1e039b121b19190c98079b00f024
:101e7c009afd0c9b5b68db0503d56b68984200da16
:101e8c0018000fb0f0bd01230693bbe7089b099a1d
:101e9c00134363b9059b002b09dc069a049b9b1a20
:101eac00059a9b18002bd1dd02231f42ced00f22a6
:101ebc00089b013c134018005730092b01dc3033d0
:101ecc0018000d9b413b192b06d820230343613b83
:101edc00192b01d801f0cafe039b1855059b013b39
:101eec000593099b1a07089b1b091a43099b089227
:101efc001b090993a8e70cce1343002ba9d0039b15
:101f0c000d9a1b19013b1a703023039a023c13558e
:021f1c009fe73d
:020000040000fa
:101f1e00f0b5040140f28875c2f20005ac46644487
:101f2e00267bf6b246f20004c4f200143f27e55dac
:101f3e00edb2e0550f37e45da40702d10024002e68
:101f4e005cd146f20004c4f200144e260327a755b6
:101f5e00060140f28874c2f200043419023f27735e
:101f6e0040f27874c2f20004345b64054ed5c91891
:101f7e00340040f27876c2f20006b44664446160e2
:101f8e0040f27871c2f200010401615a090546d58a
:101f9e00d218210040f27874c2f20004a4466144c3
:101fae008a6040f27872c2f2000201018a5a9205ea
:101fbe00920fd3409bb240f27872c2f20002944666
:101fce0061444b8046f20002c4f200124021535c81
:101fde00022423435354516c536cdb04db0e082252
:101fee000a40134301244bb946f20002c4f2001218
:101ffe001169012383400b431361012446f2000350
:10200e00c4f200133f229d542000f0bd040140f2a3
:10201e007876c2f20006b44664446160b0e701010e
:10202e0040f27874c2f20004a44661448a60b8e7b4
:020000040000fa
:10203e0041f20043c4f2000300221a7441f6004339
:10204e00c4f200030632ff32c0f201021a6241f6f8
:10205e000042c4f20002042153681942fcd141f639
:10206e000043c4f2000342f20512c0f204025a62a7
:10207e0041f60042c4f20002082153681942fcd115
:10208e0041f60043c4f2000342f20312c0f2010211
:10209e009a6241f60042c4f20002102153681942be
:1020ae00fcd141f60043c4f200038c224121995029
:1020be0041f60042c4f200028c2001391358194235
:1020ce00fcd041f60043c4f20003982241219950fe
:1020de0041f60042c4f20002982001391358194209
:1020ee00fcd041f60043c4f20003ac2241219950ca
:1020fe0041f60042c4f20002ac20013913581942d5
:10210e00fcd041f60043c4f20003b02241219950a5
:10211e0041f60042c4f20002b020013913581942b0
:10212e00fcd041f60043c4f20003c0224121995075
:10213e0041f60042c4f20002c02001391358194280
:04214e00fcd070470a
:020000040000fa
:02215200fee7a6
:020000040000fa
:10215400f7b5002856d00838436801221e0096437c
:1021640085192a680400934200d0ffde22686b6858
:102174001340012213420fd1200001f07afa002803
:1021840041d1280001f0bbfa0028efd001226b688e
:102194009343f618ed18e9e70123334363603000f5
:1021a4002b6001f069f9019001f01cfc22686b6856
:1021b400134001221342dfd0174f019a386879681f
:1021c40001f05efc012318420dd1019a0120002187
:1021d40001f062fc0b0010b13a6802433a6013b19b
:1021e4007b680b437b60019b0b4a0133db009b182c
:1021f4001a005b68083a66602e60e360a260d460ef
:10220400e3689c60f7bd012223689343e41a636882
:0c2214009343f618b5e7c0461004002004
:020000040000fa
:10222000f0b40125ed070c005c402c40a446ae0a3a
:102230004c18df18f4423dd2f74244d2640d4ad024
:102240007f0d3bd0e41bc9022943cf0adb022b439d
:10225000db0a0600b61a9f4104d2013cb6197f4141
:10226000b6185f416812800d241836dd00188442cc
:1022700024d8e80c0021b6197f41b61a9f4103d338
:1022800040414941f7d304e0b6185f410018494185
:10229000f1d32405b6197f41b61a9f4105d33743c0
:1022a000c20717430022012f50416141624611438a
:1022b000f0bc70470ad148b9f74207d20020c143a9
:1022c000490d0905f2e70ab9f74206d00020c143db
:1022d000090dc904ece77f0df8d000206146e7e75f
:020000040000fa
:1022e00040f2fd724b005b0df0b55c1e944242d88b
:1022f000284a9e182ad4332e27dc274a9b182ed42e
:10230000120cc0f20f02da404ff6ff730700c0f262
:102310000f039743f3403c000f00024019409f43d6
:102320000a433d007ab1002f0dda20235b42f118f9
:1023300029d480204003c840020080214903f14095
:102340000b00a4185d4120002900f0bd00200029e9
:1023500001db0021f9e70021cbf6f071f5e720223f
:102360004ff6ff73921bc0f20f03934001225242bb
:10237000f2401a43c8e7002be7d10022c90fcb0770
:1023800010001900e1e720218020891b40038840cc
:0c2390000200d2e701fcffffe1fbffffb1
:020000040000fa
:10239c0010b588293ad014dc81294ad003dc802975
:1023ac0047d0002010bd822910d08429f9d119689a
:1023bc002ab30a1d1a6000228b5e0360db17436090
:1023cc0010e0a0292ed00fdc9029ead1196807243f
:1023dc006ab30919a1430a0008321a600b684c68e9
:1023ec00036044600120dde7c02901d0f029d8d179
:1023fc001a68111d1960136803600023dfe70c1db8
:10240c001c600b689bb203604260ebe7196822b159
:10241c000a1d1a600023cb56cfe70c1d1c600b68fd
:10242c00dbb2f0e71a68111d19601368c5e70731b4
:10243c00d0e719681ab10a1d1a600b68bde70c1dac
:06244c001c600b68dfe7d5
:020000040000fa
:10245200f0b54b6889b005930b6807009c4607935b
:10246200cb680c008e6810685168cd0f0493002d64
:1024720041d00b000200002150429941059b002be4
:1024820007db022263469343079315b9079b5a075a
:1024920028d5731e07aa02920a22009301920b000a
:1024a2000200200000f008f915b9079b5a071dd554
:1024b20001382d2305b9023b049a135423695a1e8d
:1024c200049b121a1918079b38000093330000f07e
:1024d2006ffa7b68db0503d56368984200da18005f
:1024e20009b0f0bd1b07db0ff31ad3e71b07e5d5d5
:0e24f20001382023e0e7059b002bc2dac6e785
:020000040000fa
:1025000030b5bff35f8f62b64ef20013cef2000318
:1025100040f204301a581202120ac02109060a4376
:102520001a5080221a6004301a581202120a0a4302
:102530001a5040f600021a6010301a58164c144017
:10254000c022120422431a508022d2041a601a5860
:102550001202120a11431950802212051a60043027
:102560001a58ff218a433f390a431a5080225205e4
:102570001a601958094d29404cf2000421431950a2
:1025800052001a6040f224315a582a4022435a50cd
:1025900020225a6030bdc046ffff00ffff00ffff52
:020000040000fa
:1025a00010b582b00021019146f20003c4f200137d
:1025b0003f229c5ce4b299540f329b5cdbb20193e6
:1025c000019b02209b070cd546f20003c4f20013c6
:1025d0000231995440f28873c2f2000300221a7348
:1025e0000138019bdb070dd546f20003c4f200134e
:1025f0004e220121995440f28873c2f20003002256
:102600001a73022040f28873c2f200035b6833b190
:1026100040f28873c2f2000399685b68984746f2fb
:0e2620000003c4f200133f229c5402b010bd10
:020000040000fa
:10262e0040f60003c4f2002301221a60d202c4f263
:10263e000022d369002bfcd140f60003c4f2002324
:10264e0040f200125a60d200c4f20022d369002b6d
:10265e00fcd140f60003c4f200230122da601532e9
:10266e00c0f210021a6040f60002c4f20022d369d2
:10267e00002bfcd140f60003c4f2002310225a8333
:10268e00d201c4f20022d369002bfcd140f22c738c
:10269e00c2f20003002221215a5401395a5440f645
:0c26ae000003c4f2002383329a757047c9
:020000040000fa
:1026ba00f0b5050085b019000c9b100001931a684b
:1026ca002b696c68013bef681d00002c00da0124bd
:1026da0040f2000c664640f2020cfe540a9e0123a8
:1026ea00361b0296664616400b9ad2170392002da5
:1026fa0003dcbbb1280005b0f0bd02000a433ab9b9
:10270a00002c05dc029a1219002af2dd002ef0d004
:10271a000b9a039b00f02ffe013d130030327a55cd
:10272a00013ce4e71023019a12689a431300019ac4
:04273a001360dfe762
:020000040000fa
:10273e00f0b51600050002278369426987b002933f
:10274e00d31a03939b1904910596019302ac3a0098
:10275e002100286801f07bf8019b984208d1ab68f4
:10276e00ea68ab619a18aa626b61300007b0f0bddf
:10277e0000280cda102200236968ab620a43ab61b1
:10278e006b616a60022f12d06368f61aede7019b47
:10279e001b1a01936368984202d9c01a0834013f8c
:1027ae0023681b1823606368181a6060cfe71e0049
:0227be00dbe757
:020000040000fa
:1027c00041f60043c4f2002301221a7041f6004290
:1027d000c4f200220121138c0b42fcd146f22003eb
:1027e000c0f280031b681a0240f200710a409b0687
:1027f0005b0f1a4341f60043c4f200239a8500227e
:102800005a7003215973023199701a81fb31598131
:102810001a8240f6b832da8107229a7104225a717c
:10282000023ada701a7840390a431a7041f60042c7
:0e283000c4f20022138c9bb2002bfbd1704728
:020000040000fa
:10283e0010b542f60003c4f200031a7801210a43d0
:10284e001a7042f60002c4f20002012153681942c6
:10285e00fcd142f60002c4f20002137810211020bf
:10286e000343137090231b04d361202090611061e9
:10287e0040f27c63c2f200031972197519540c30c0
:10288e0019540c3019540c3005241c540c301954a6
:10289e000c301954137802210b43137042f60002c8
:0e28ae00c4f20002022153681942fcd110bd91
:020000040000fa
:1028bc00f8b5846a05000f00160054b1ab6a6a695a
:1028cc009b1ab3420cd2320039002800fff731ffbb
:1028dc0005e001f0c4f803002000002beed0f8bd99
:1028ec00002ef0d02b0034331b785bb2002b1bdb9b
:1028fc003400dbb2621eb95c994212d1220039005d
:10290c002800fff716ffa042e9d33f19341b220021
:10291c003900686901f023f96b6930001c196c618e
:0c292c00dde71400002ae5d13400f0e7dc
:020000040000fa
:1029380010b541f60003c4f200031c691a690221ac
:102948008a431a611a691e20c0f23f00024040f211
:10295800001002431a6121421dd041f60003c4f25f
:1029680000031a690a431a6141f60002c4f2000220
:102978000231d3681942fcd041f60003c4f20003c7
:102988001b69db0507d441f60002c4f200020121ed
:10299800d3681942fcd041f60003c4f2000340f2a8
:0a29a80022329a610022da6110bdac
:020000040000fa
:1029b200f0b51d00012389b014000e9a06001a40da
:1029c200039102920ab9a5420ad822000399300063
:1029d20000f0c9fda54203d82500280009b0f0bdca
:1029e2002f1b01973a00102f00d91022202104a892
:1029f20001f0eef8019b0f2b0ed80f2204a93a40ea
:102a0200300000f0b0fd029b002be6d122000399ba
:102a1200300000f0a8fde0e7102204a9300000f029
:0a2a2200a2fd019b103b0193e4e7c5
:020000040000fa
:102a2c00f0b5c64600b5042442f60005c4f2000514
:102a3c00012740f27c66c2f2000605e043466b615a
:102a4c006b690134082c23d063001b199b0040f2e6
:102a5c007c61c2f200018c4663441b7adbb2e1b2aa
:102a6c008b42eed16b693900a14088461942e8d0ff
:102a7c0063001b199b009b59002bdfd063001919b5
:102a8c008900614448681b199b009b599847d5e7fe
:062a9c0004bc9046f0bdf1
:020000040000fa
:022aa20070477b
:020000040000fa
:102aa40010b540f22c73c2f2000300229a61da617d
:102ab40040f60003c4f2002383321a765a68144c99
:102ac40022405a6040f60002c4f20022d369002b6f
:102ad400fcd1a9b140f22c73c2f2000320220324da
:102ae4009c544000084340f60003c4f2002358629b
:102af40040f60002c4f20022d369002bfcd110bdc1
:102b040040f22c73c2f20003202204249c54e8e710
:042b1400fffffbffc5
:020000040000fa
:102b18000021f0b5174b184a934208d340f20b0c2a
:102b28000027164a1368516823b919b9f0bd1970fe
:102b38000133f1e7100095680c305c18b5b16546b3
:102b4800ed1a5219a3420ad10b00032213405a1e50
:102b5800934189085918890040180200e2e75d1c72
:102b6800ae5c1e702b00ede71f700133a342fbd152
:102b7800f3e7c046000000200000002060130000ba
:020000040000fa
:102b8800f0b50b680c008f68cd68496887b00600ff
:102b98000593002902db02218b43059305a953689d
:102ba800126802910821009701912000fff781fd2a
:102bb800059bdb0602d5302301382b54059b1b07e8
:102bc80002d5202301382b54236929185a1e059b46
:102bd800121a009330003b00fff7e7fe7368db052d
:0e2be80003d56368984200da180007b0f0bd0c
:020000040000fa
:022bf600704726
:020000040000fa
:102bf80042f20043c4f2000301221a8042f200426a
:102c0800c4f20002012113691942fcd142f20043c7
:102c1800c4f20003104a1a8042f20042c4f20002d1
:102c280048f2000113691942fcd142f20043c4f290
:102c3800000340f200221a6242f20042c4f200028b
:102c4800202113691942fcd142f20043c4f2000367
:0c2c580040f200125a6070478081ffffbc
:020000040000fa
:102c640010b544f20003c4f2001304225a6000f0c9
:102c740049ff40f2d073c2f200031b6818680021b8
:102c840000f068ff40f6b403c2f200031b68186842
:102c9400002100f05fff00f08ff9fff7cef900f09c
:102ca400cafefff7c2fc00f023ff00f02bfa00f08d
:102cb40070f8fff783fdfff73dfefff7befdfff75a
:082cc40099fffff71bfc10bd96
:020000040000fa
:102ccc0010b584291fd007dc812915d0822922d088
:102cdc00802911d0002010bd90291cd008dc882937
:102cec00f8d119680c1d1c600b6803601a7010e099
:102cfc00a02901d0c029edd119680c1d1c600b68ee
:102d0c0003601a6005e019680c1d1c600b680360f9
:102d1c001a800120dfe719680c1d1c600b6803602a
:082d2c001a60d2175a60f4e7a7
:020000040000fa
:102d34007fb51600c2680d0013000091591e8b4127
:102d4400f31a01938368040003926946022200681f
:102d5400029300f06dfd002808dc182208230240cd
:102d6400534062681343636006000fe0019b834293
:102d7400fad2a268c01ae3681018e26320642bb187
:102d8400531ce3631378ad19013d2b70300004b07c
:022d940070bd10
:020000040000fa
:102d960010b540f28872c2f2000200211170516033
:102da6009160117340f27870c2f2000046f200039f
:102db600c4f20013586340f29874c2f200049c6394
:102dc60048f28114c8f281145c613f24195540f21f
:102dd6000051c0f28001596440f20941018001218d
:102de60011704d220231995440f602721a8010bdbc
:020000040000fa
:022df600704724
:020000040000fa
:102df80000230e4a10b513600d4a0e4c13600e4a9c
:102e080013600e4a13600e4a13600e4a5362136130
:102e18000133936000f0e1fefff7e9fe0a4b9c42a4
:102e280000d310bd08cc9847f8e7c046b807002083
:102e3800e806002000010000e4060020dc0600206f
:0c2e4800e0060020ec0600200401000061
:020000040000fa
:102e5400f0b59bb004000d00160000214c2207a819
:102e64001f0000f0b4fe01235b4202930433ff33de
:102e7400039304b901ac04940595002305b16b1eba
:102e84000693002d06da4f220120074b40421a60b8
:102e94001bb0f0bd00233a002370310002a808944f
:0c2ea400079400f0d4fdf3e7bc07002009
:020000040000fa
:102eb00020212223242425252626272728282828c0
:102ec000292929292a2a2a2a2b2b2b2b2c2c2c2c5a
:102ed0002c2c2c2c2d2d2d2d2d2d2d2d2e2e2e2e22
:102ee0002e2e2e2e2f2f2f2f2f2f2f2f0001170298
:102ef0001d1813031e1b190b1408040d1f161c129a
:0c2f00001a0a070c1511090610050f0e27
:020000040000fa
:102f0c0070b504000d0008b9002070bd43689b0625
:102f1c0007d543698269934215d80023a362a36144
:102f2c006361e16b236c994204d2c91a01222068b7
:102f3c0000f0c6fe00232364e363002de4d0206878
:102f4c0000f0b6fee1e70022c36a110098476369fe
:0a2f5c00002be2d101204042d7e72c
:020000040000fa
:102f6600f0b50b680c008f68cd68496887b006001d
:102f76000593002902db02218b43059305a95368bb
:102f8600126802910a21009701912000fff792fb37
:102f9600236929185a1e059b121a009330003b001c
:102fa600fff704fd7368db0503d56368984200da12
:062fb600180007b0f0bd99
:020000040000fa
:102fbc0010b543f20003c4f20003c0221a60403a79
:102fcc00c0f600021a61012242215a540021462007
:102fdc0019540130195409301a5401301a5407305d
:102fec001a5401301a54023005241c542a381a542d
:102ffc0032329954113a07301a5404301a541b3295
:04300c00995410bd06
:020000040000fa
:1030100010b542f6a323c0f20003984742f6a3235b
:10302000c0f20003984700f039fe40f20003c0f2fe
:1030300000037f2293434ef60052cef200029360cb
:1030400042f6f953c0f20003984742f6a323c0f2b8
:103050000003984742f6a323c0f200039847fef707
:043060007dfbfee70f
:020000040000fa
:10306400f8b505000c00002015b300f05ffad4b1e8
:10307400002040f20042c4f200220421072605e0a9
:10308400178d4300ef52013084420dd0137e0b4262
:10309400fcd0538b334207d153683340012befd01c
:1030a400138d2b54efe72000201a44426041c0b234
:0230b400f8bd65
:020000040000fa
:0230b600704761
:020000040000fa
:1030b80070b5c668856804000a00ae4211d10120c7
:1030c800002100f0e7fcc043c943431c03d00b4b6d
:1030d8001a68104018604b1c03d0084a53681940fe
:1030e8005160012319006268b56011439a43ee608c
:1030f8006160a41822681343236070bd1004002087
:020000040000fa
:1031080040f20043c4f2002344f20412c4f2310234
:103118001a6041f212429a81c02292025a6040f229
:103128000042c4f20022d369002bfcd140f20043d4
:10313800c4f200231a6802210a431a6040f20042ce
:0c314800c4f20022d369002bfcd17047b8
:020000040000fa
:1031540070b5040016001d00022a1ad043689b06ad
:1031640017d439b90db940f2004528000830fef7ec
:1031740081fd010020236268a16013436360230082
:10318400e5603433ff22012e00d10a221a70024b6b
:0c319400e362002070bdc046bd280000b2
:020000040000fa
:1031a00037b56b46dd1d836a0400297063b163691e
:1031b000a26a93420fd3e36a0122290020009847b4
:1031c000012805d1287805e000f04ffc0028eed05a
:1031d000012040423ebd220034321278287852b29b
:0c31e0009042e8d05a1c62611870f3e7be
:020000040000fa
:1031ec00f0b50f00150087b0039007220e4904a814
:1031fc001c0000f0b4fcbb687e6802933f6805b904
:10320c0004ad1cb9280000f023fd0400002e02dbe5
:10321c00b44200d934000097029b22002900039885
:0c322c00fff7c1fb07b0f0bdb43c000090
:020000040000fa
:1032380030b401256d054c00e54215d85c00e54227
:1032480012d80c001c436400044314430fd005d269
:1032580082428b418041013030bc70479042994195
:103268008041013030bc7047002030bc70470120dd
:0432780030bc7047af
:020000040000fa
:10327c0070b5d0b1d9b1002540f20042c4f20022a1
:10328c000124072605e06b00c35a13850135a942ba
:10329c0009d0137e2342fcd053683340012bf2d06b
:1032ac00435d1385f2e7012070bd0020fce701208f
:0232bc00fae72f
:020000040000fa
:1032c00010b5054c227832b9044b13b1044800e024
:1032d00000bf0123237010bd58070020000000002c
:1032e00000000000034b10b51bb10349034800e088
:1032f00000bf10bd000000005c07002000000000bf
:020000040000fa
:1033000070b5050040f22c74c2f200042020245c49
:10331000002004b170bd40f22c74c2f20004a580fc
:10332000e360049b6361a16022610023a3702370aa
:103330002122a35400212800fff7b4fb0120e9e774
:020000040000fa
:103340000c4a036810b5546a0b4a591e121b91426d
:103350000ad92bb10c220120084b40421a6010bd43
:10336000102202600020fae70f2217339343036014
:10337000f8e7c046ec060020efffff7fbc07002007
:020000040000fa
:10338000002b11d1002a0fd1002900d1002802d032
:103390000021c943081c07b4024802a1401802904a
:1033a00003bdc0462509000003b4684601b5029874
:1033b000fdf75afb019b9e4602b00cbc7047c0460d
:020000040000fa
:1033c000030010b51a78202a0dd0110009390429fc
:1033d00009d900212b2a02d02d2a01d10131013334
:1033e00000200a2404e00133ece760430133801a33
:0e33f0001a78303a092af8d901b9404210bdc6
:020000040000fa
:1033fe0030b401256d054c00e54215d85c00e54260
:10340e0012d80c001c436400044314430cd005d2a4
:10341e0082428b418041404230bc7047904299417c
:0e342e008041404230bc7047002030bc7047e7
:020000040000fa
:10343c0030b401256d054c00e54215d85c00e54221
:10344c0012d80c001c436400044314430cd005d266
:10345c00904299418041404230bc704782428b413e
:0e346c008041404230bc7047002030bc7047a9
:020000040000fa
:10347c000309013b1800202b08d940f2ff1293429c
:10348c0005d8094adb089b18043b1878704741f6ad
:10349c0000423f209342f9d8034adb099b18043bb6
:0c34ac0018781030f2e7c046b02e000087
:020000040000fa
:1034b8000b00496810b50200890603d4190000f012
:1034c800a2f810bd190034310978c0b249b281425e
:1034d80007d059699c6aa14203d24c1c5c610a70ee
:0c34e800efe711001800fff757feeae7bd
:020000040000fa
:1034f4001c2101231b04984201d3000c10391b0a20
:10350400984201d3000a08391b09984201d30009e3
:10351400043902a2105c40187047c046040302023a
:0c35240001010101000000000000000097
:020000040000fa
:1035300040f20043c4f200235b8b5b0713d040f2e0
:103540000043c4f2002380221a76793a5a831b7e04
:103550005b0708d540f20043c4f2002304211a8d12
:083560001a7e0a42fbd17047fc
:020000040000fa
:10356800436870b50400d80510d52569954200d97f
:1035780015002a00606900f0f4fa226963695b1992
:10358800551b0022636125611a7070bddb06fcd4ef
:08359800200000f0effaf8e753
:020000040000fa
:1035a000f0b5040000200b4e4200955d1db9094b9b
:1035b000d2185078f0bd216801300f78c0b2af4208
:1035c00004d1044b0131d218507821600a28ebd97c
:0835d000f0e7c046043a0000d8
:020000040000fa
:1035d80030b543001b189b0040f27c64c2f2000423
:1035e800a44663441b7adbb2834200d030bd40f26c
:1035f8007c64c2f2000443001d18ad002951280064
:0636080060444260f2e79d
:020000040000fa
:10360e0013b50b006a46d41d5a68c1b22170d2059b
:10361e0005d55a69c0b2541c5c61117016bd0122e9
:10362e002100180000f0a3fa08b12078f6e7012077
:04363e004042f3e72c
:020000040000fa
:10364200f4464a1805d200f046f801d5c0174008e2
:10365200604701235b05d34206d200f03cf801d556
:103662000120c0074042604701d10042f5d0d01787
:043672004008704755
:020000040000fa
:10367600f8b5050001262c68344201d000200ee082
:103686002000fff7f8fe070000f0abf92868a0421b
:10369600f1d1b043281a3900fff70bfd0120f8bd20
:020000040000fa
:1036a60010b541f60043c4f200239879c0b2062251
:1036b6009a7140f2a873c2f200031b6833b140f25c
:0e36c600a873c2f2000359681b68984710bd34
:020000040000fa
:1036d4004a0010d2520d03231b02ff33d21a0ad41c
:1036e40052421f3209d4400dc90208430123db07ab
:0e36f4001843d040704700207047d017704731
:020000040000fa
:10370200f8b5050001276c683c4201d000200de0ad
:103712002000fff7b2fe060000f065f96b68a342d5
:0e372200f1d128003100fff7c6fc0120f8bdf0
:020000040000fa
:1037300070b4012676054c005d00e6420cd8ee42de
:103740000ad825430543154303d0994204d190423a
:0e37500002d1012070bc7047002070bc704791
:020000040000fa
:10376000074b0200196809b906491960186806492b
:1037700082188a4201d81a60704701204042fbe754
:0c378000c0070020c0080020c00a002084
:020000040000fa
:10378c00020000234832d356591e0b4313700423f6
:10379c00426813402bb11023134343600120404275
:0a37ac0070470364c3631800fae7d6
:020000040000fa
:1037b60070b5140016000a004e430d00511e8a41d2
:1037c6005242144001003200180000f0d4f986423b
:0a37d60001d0b0fbf5f4200070bd37
:020000040000fa
:1037e000002380290fdb812901dd83290bd10721eb
:1037f000136807338b431900083111601a685b683e
:0a38000002604360012318007047c6
:020000040000fa
:10380c0010b5084c2368196800f07df801230028d6
:10381c0005db23680a20196800f03efac30f5842f2
:08382c0010bdc046b4080020e5
:020000040000fa
:10383400f7b5002507000c002e000192019b9e4263
:1038440001db2800febd62682168380000f09ef8a4
:0838540001362d180834f1e7dc
:020000040000fa
:10385c00f7b5002507000c002e000192019b9e423b
:10386c0001db2800febd62682168380000f099f881
:08387c0001362d180834f1e7b4
:020000040000fa
:10388400012370b544689c43651a102d0ad9421867
:1038940019432b43116053600832035141601000f7
:0638a400fef756fc70bdaa
:020000040000fa
:1038aa0010b500f081f930b940f2c973c2f20003d1
:1038ba0001221a7010bd41f28050c0f2000000f0df
:0438ca0034f8f7e7f0
:020000040000fa
:1038ce0041f60043c4f200231a7802210a431a700b
:1038de0041f60042c4f20022138c9bb2002bfbd1a6
:0238ee00704721
:020000040000fa
:1038f00042f20043c4f200031a8802210a431a80ec
:1039000042f20042c4f20002022113691942fcd1c2
:023910007047fe
:020000040000fa
:1039120070b50e00050000f0a0f9330004000200ab
:1039220001212800fff746ff001b431e9841404239
:0239320070bd66
:020000040000fa
:103934000fb407b5054b04aa1b6802ca18680192a4
:1039440000f085f803b008bc04b01847b4080020a0
:020000040000fa
:1039540040f20043c4f2000302225a705202c4f23d
:0e3964000002022153780b42fcd030bf7047a6
:020000040000fa
:1039720040f20043c4f2000304225a701202c4f25d
:0e3982000002042153780b42fcd030bf704786
:020000040000fa
:1039900010b503000c00002043b9180032b101211a
:0e39a0002000fff75ffb0028f9d0012010bdca
:020000040000fa
:1039ae0070b50d001400012801d0200070bd21005b
:0c39be002800fff75cfc0028f9d0f6e7b9
:020000040000fa
:1039ca0043f62123c0f20003004206d5404200b567
:0c39da00984708bc0122d207114318478f
:020000040000fa
:1039e800054a0130c00083582bb90300083b9b18d7
:0c39f80081184b608350704710040020c1
:020000040000fa
:103a040068076c094c836a9074a07ac00080688847
:0c3a140000846c820081286e696c29001f
:020000040000fa
:103a200040f21d42010007d002d4013a0018fcd533
:0a3a30001205c30a400599187047fb
:020000040000fa
:103a3a0044f20003c4f2001340f20212c0f204027c
:083a4a005a6001221a72704754
:020000040000fa
:103a520013b50400019201aafdf793f96368db062e
:083a620001d50120404216bd10
:020000040000fa
:103a6a0010b50400fff78dfe28b9a368e268a361c8
:083a7a0063619b18a36210bdfb
:020000040000fa
:103a8400d0400b1cd1409c46203ad34018435242ac
:103a940063469340184370479140031c90409c46f2
:103aa400203a9340194352426346d3401943704726
:020000040000fa
:103ab4000eb403b503aa02ca019200f041f802b0a1
:063ac40008bc03b0184726
:020000040000fa
:103aca00006810b5002801da002010bdfff743fe98
:063ada00431cfad1f8e7dd
:020000040000fa
:103ae000000140f28873c2f200039c4660444160ca
:043af0008260704739
:020000040000fa
:103af4008423db0540f22e12012199544cf20c224e
:043b04001a6270478a
:020000040000fa
:103b080040f20043c4f2000341f291421a8180223c
:043b18009a707047e8
:020000040000fa
:103b1c00012800d0704740f2c873c2f200030122a2
:043b2c001a70f7e72d
:020000040000fa
:103b300010b500f0bbf8024b1860586010bdc046cd
:043b4000b0070020aa
:020000040000fa
:103b440010b513000a000249fff782f910bdc04600
:043b5400ffffff7ff1
:020000040000fa
:103b58004a424a4110b5520040f20043fff7f6fad4
:023b680010bd8e
:020000040000fa
:103b6a00002310b59a4200d110bdcc5cc454013375
:023b7a00f8e76a
:020000040000fa
:103b7c00c36a10b50bb1984710bd0068fff711ff71
:023b8c00fae756
:020000040000fa
:103b8e0003000a7818001a7001310133002af8d1a7
:023b9e0070476e
:020000040000fa
:103ba000f0b40125ed076b4041f62f14c0f200047c
:023bb0002047ac
:020000040000fa
:103bb20040f22c73c2f200032122985cc0b270471b
:020000040000fa
:103bc20040f20043c4f20023187e012318407047dc
:020000040000fa
:103bd20003001218934200d1704719700133f9e7bc
:020000040000fa
:103be20010b5fff7a4fffff705f9fff703f910bdc2
:020000040000fa
:103bf200494e4600696e66004e414e006e616e008f
:103c0200494e4600696e66004e414e006e616e007e
:020000040000fa
:103c140010b5fdf785ff029a039bfdf783fe10bde7
:020000040000fa
:0e3c240040f2a873c2f20003186059607047a6
:020000040000fa
:0e3c320040f22c73c2f2000358629962704790
:020000040000fa
:0e3c400040f2c773c2f2000301221a707047ef
:020000040000fa
:0e3c4e0040f2ca73c2f2000301221a707047de
:020000040000fa
:0e3c5c0003001a780ab9181a70470133f9e705
:020000040000fa
:0e3c6a000300413b192b01d82023184370475b
:020000040000fa
:0e3c78000300613b192b01d85f2318407047f1
:020000040000fa
:0c3c860010b50400fff780ff200010bd07
:020000040000fa
:0a3c920010b50068fff78afe10bdb0
:020000040000fa
:083c9c0010b5fef73bff10bd5f
:020000040000fa
:083ca40010b5fff707fc10bd8d
:020000040000fa
:083cac000048704738080020b1
:020000040000fa
:073cb400286e756c6c2900fd
:020000040000fa
:063cbc00012040427047a8
:020000040000fa
:043cc2000020704727
:020000040000fa
:043cc8007047c0463b
:020000040000fa
:043ccc00002070471d
:020000040000fa
:0200000400807a
:044000007f438fb0bb
:020000040000fa
:0200000400807a
:04400400bbfcffff03
:020000040000fa
:0200000400807a
:04c0040000ffffff3b
:020000040000fa
:0200000400807a
:04c04000ffffffff00
:020000040000fa
:0200000400807a
:04c04400fffffffffc
:020000040000fa
:0200000400807a
:04c04800fffffffff8
:020000040000fa
:0200000400807a
:04c04c00fffffffff4
:00000001FF
