:020000040000fa
:10000000f07f002045300000f73500004f38000039
:1000100000000000000000000000000000000000e0
:10002000000000000000000000000000eb310000b4
:100030000000000000000000eb310000eb31000088
:10004000eb310000eb310000eb310000eb31000040
:10005000eb310000eb310000eb310000eb31000030
:10006000eb310000eb310000eb310000eb31000020
:10007000eb310000eb310000eb310000eb31000010
:10008000eb310000eb310000eb310000eb31000000
:10009000eb310000eb310000eb310000eb310000f0
:1000a000eb310000eb310000eb310000eb310000e0
:0c00b000eb310000e5360000eb310000f1
:020000040000fa
:1000bc00f8b5c046f8bc08bc9e467047952f0000aa
:1000cc00f8b5c046f8bc08bc9e4670476d2f0000c2
:020000040000fa
:1000dc00f0b557464e464546de46e0b50c030600e5
:1000ec00480087b092469846240b400dcf0f00284d
:1000fc0000d178e07b4b984200d190e0730fe40084
:10010c001c438023784a1b041c439446030063441d
:10011c000093002399469b46f500434642461e0336
:10012c00d20f5b005046360b5b0d904600d180e041
:10013c006c4a93421dd06c49420f8c460099634423
:10014c00f6008c46164380229c44120463461643e8
:10015c00c200002000930099434601318c46494669
:10016c007b4001930f2900d9c6e0604b8900595898
:10017c008f465c4952468c46009b32436344009345
:10018c00002a00d08de049460223194389460026f7
:10019c000220e0e7434601933400150083465b469a
:1001ac00022b64d0032b00d1f1e1012b00d05ee1d6
:1001bc0000220026002500213603340b0e0d3605d7
:1001cc0026434b4c120534401443019b6400db075f
:1001dc0064081c432800210007b03cbc904699469b
:1001ec00a246ab46f0bd2500354352d0002c00d1c1
:1001fc0076e1200003f054f802000b3a1d230100b5
:10020c009b1a3200350008398c40da408d4014437b
:10021c00384b1b1a0093002399469b467de735000b
:10022c0025432fd108239946063b002400909b467a
:10023c0073e7524632431ed0002e00d142e130000b
:10024c0003f02ef802000b3a1d2301009b1a5246b4
:10025c000839da408e40164352468a40009b2549a5
:10026c00181a03008c4663440093002073e71d4a60
:10027c00002600259fe7494601231943894600269d
:10028c00012068e70c239946093b350000909b46fa
:10029c0043e70423994600230093013300249b4633
:1002ac003be74a4603231a4391460320524652e742
:1002bc00019774e700238026019336030025094a31
:1002cc0079e780231b031c4200d1f3e01e4200d0cf
:1002dc00f0e01e43434636031500360b0193014aea
:1002ec0069e7c046ff07000001fcffff6c3200000d
:1002fc00ffff0f800dfcffff2f0c2d042d0c2b008e
:10030c00110c1204120c53439846130028007b4323
:10031c00994648434844834640460b00000c8246ad
:10032c0058467b4350440293814506d99a46802314
:10033c005b029946ca4453460293030c9b464346c0
:10034c001b0400041b0c9846030043440493330c19
:10035c0099462b003604360c7343984633007b4386
:10036c009a464b465d435f4343465544180c40192f
:10037c00824503d980235b029a465744050ceb193e
:10038c00059343461d042d0c00044019250c240430
:10039c00240c270057436a4390462a003b0c9a468c
:1003ac004a436143414451448344884503d98023e3
:1003bc005b02984642443f040b0c3f0c0904c919dc
:1003cc00270098464b4677435c436e435d433b0c9a
:1003dc009946a4194c4442440395a64204d980235f
:1003ec005b02984645440395029b3f045b441e0008
:1003fc008342804123049846059b3f0c4744984612
:10040c0076188e428941474440423d18a8464942dd
:10041c0093468a46c344da449f42bf41804580419b
:10042c00039b934592418a458941984653464042e5
:10043c007f420743240c524249420a433c19a418f8
:10044c00da0d049b75021d43681e854153464444d6
:10045c006402f60d144335435a021543e30173d578
:10046c0001216a080d401543e207154364084b4a05
:10047c006244002a43dd6b0709d00f21294004296f
:10048c0005d0291da942ad416d4264190d00e3014f
:10049c0004d5434a14408022d200624441498a4226
:1004ac0000dde4e66107ed08640252050d43260bfe
:1004bc00520d80e68026360326433603360b019711
:1004cc00394a78e602f0ecfe03001a0015322030af
:1004dc001c2a00dcb8e65646083b00229e40bde6ce
:1004ec00300002f0ddfe03001a00153220301c2a09
:1004fc0000dc83e63400083b00259c4088e60121a3
:10050c00891a382900dd53e61f2920dc27482200f0
:10051c0060442e0085408240ce40681e85413243a7
:10052c002a43cc40530709d00f211140042905d090
:10053c00111d914292415242a4180a0023021fd568
:10054c0001220026002536e6009b9c468fe71f20e3
:10055c004042821a2000d040202903d0144a624421
:10056c00944025436a1e95412a00072502431540f5
:10057c000026002d07d00f21002411400429d7d1cb
:10058c0065076402260bd2081543002213e6802669
:10059c00360326433603360b034a0ce6ff030000f2
:1005ac00fffffffefe070000ff0700001e04000017
:0405bc003e040000f9
:020000040000fa
:1005c000f0b51f0000230c00dfb00e930f931eab9d
:1005d0001093b04b01901c93af4b1d931678002ed7
:1005e00000d1ece00821ad4d531c0293ab5d0b40f4
:1005f0001bd06368002b11dd082123681a78aa5ce0
:100600000a4201d1029ae9e70f9a013304920132ba
:100610000f9262682360013a6260eae72100019864
:100620001d9b98470028e7d0ece7252e72d10d934b
:100630000b9353782a2b03d11a3b0b93931c0293f1
:10064000029d29786b1c02930b00303b092b20d9ab
:100650000322934803f020f9002807d0904b0b9a0f
:10066000c01a01238340029d13430b936b1c02931a
:100670002b78642b00d1a5e020d8582b3dd010d882
:10068000002b65d0252b45d00323119307330c9302
:1006900065e00a220d9b04935343303b5b180d9396
:1006a000cee75b2b00d192e0632bedd10b9b049343
:1006b0004023049a13430b9300234fe06f2b4ad03f
:1006c0000ed8692b00d17fe06e2bddd10b99cb06c4
:1006d00098d408cf0f9ac80700d483e01a8091e716
:1006e000752b00d16ee0782b07d0702bccd10b9af4
:1006f0000492202204990a430b9280220b999200c3
:100700000a430b9210220c926e229a429b415b424a
:10071000033323e06368002b0ddd23681a78b242af
:100720004dd10133626823600f9b013a049301337a
:1007300062600f9366e71d9b210001980493984720
:100740000028ead00e98002802d0a3895b0637d58e
:100750000120404234e008230c93043b119363686a
:10076000002b41dd0b9b04935b0606d423684b49a9
:100770001a788a5c08210a423ed1119a022a00ddc9
:1007800090e00d9b0493002b04d10133002a00d08c
:10079000023b0d930b9bdb0601d408cf039300258e
:1007a0001026119b002b44d0012b39d12368109abd
:1007b0001b780492d35c002b3bd1002d58d10e98ae
:1007c0005fb0f0bd0a229ee700230c93a0e70299d8
:1007d0001ea802f0c9fa40230b9a029013430b9310
:1007e0000123bbe71a600de71d9b210001980493cc
:1007f00098470028b6d0a5e70f9a049201320f92cd
:100800006268013a6260002a02dd01332360ade7cd
:100810001d9b21000198049398470028a6d091e7da
:10082000022b25d123681d4a1b78d35c0822134272
:100830001ed10b9b0135334206d12368039a1b78e6
:10084000137013000133039322686368013222603e
:100850000d9a013b0492013a63600d92002a07d081
:10086000002b9edc1d9b210001989847002898d002
:1008700010230b9a134008d10e9a01320e92119a4e
:100880000492002a01d0039a13700f9b5d19049300
:100890000f95b7e67d1f00000d1a0000791e0000bd
:1008a000f0340000042a00ddace66f4b08a90433e5
:1008b00061cb61c16d4b0693032a01d06c4b06934b
:1008c00000210d9b05915a1e262a03d9273b05932b
:1008d00027230d93d02300260b9a1b0113430b9360
:1008e00012ab0493236808a81978b30002221858a1
:1008f00002f0d2ff00282ad0012e63d10c9b07936f
:10090000002b08d10b9b8022079308230c93079b95
:10091000920013430b93574b0b9a13400b930d9b71
:100920005a1e0d92002b12d023685a1c22601b788d
:10093000049a13706368551c013b63600495002b97
:1009400005dc1d9b210001989847002877d10136ce
:10095000032ec7d10c9b0793002b01d10a330c93b4
:100960000c9b41491098c91a2031079302f0fcf9f9
:100970000023049d04930d9a0b99002a3ed023680e
:10098000109e18780796365c002e37d0302828d174
:1009900080200001014224d004990131049105997d
:1009a000002903d00139013205910d926268013aa4
:1009b0006260002a1cdd013323600d9b0793013b1d
:1009c0000d93d8e7022eaad1c02380210b9adb0019
:1009d000134089008b42bdd110230c931b0113439c
:1009e0009ce7254a0a400b921a782a700135dde708
:1009f000210001981d9b98470028ded00b9bdb054a
:100a00000cd512ab9d4205d9013d29781c9b2200d3
:100a10000198984712ab9d4200d1d0e610220b9b63
:100a20001a4018d12a7012a90c9b0198069eb04753
:100a30000b9a391d930605d53b68186006e0002324
:100a40000493dbe73b68d607f7d518800f000e9bb1
:100a5000059301330e9312abed1a049bee180f9b16
:100a6000f61804930f96cde5f03400009539000098
:0c0a70009d390000fffafffffff6ffffba
:020000040000fa
:100a7c00f0b59db00490029105920393002805d027
:100a8c0083690693002b01d102f034f9974b029a3b
:100a9c009a4263d1049b5b680293029b9b891b0760
:100aac006ad5029b1b690693002b65d000220aab0a
:100abc000f9220325a7610329a76059e3378002b9c
:100acc0001d0252b62d1059bf41a0cd02300059a7a
:100adc000299049802f0f8fa431c00d17de10f9bb7
:100aec001c1905930f943378002b00d175e101226a
:100afc0000230aac5242626006a954327c4f521851
:100b0c000a93e360a3600136137022373178052213
:100b1c00380002f0bbfe751c002839d12168cb06c9
:100b2c0004d5532306aa9b1820221a700b0704d550
:100b3c00532306aa9b182b221a7033782a2b2fd0fa
:100b4c00350000210a20e3682a786e1c303a092a05
:100b5c0000d86ce0002929d0e36027e0654b029aad
:100b6c009a4202d1049b9b6896e7634b029a9a4285
:100b7c0093d1049bdb688fe70299049801f0f6fa95
:100b8c00002893d0012040421db0f0bd013695e7fe
:100b9c000123c01b834022682e0013432360b5e75a
:100bac00039a08ca002b3cdbe36003922b782e2bb4
:100bbc0009d16b782a2b42d1039b023504cb002a36
:100bcc003adb626003934a4e2978283603223000c0
:100bdc0002f05cfe002806d04023801b8340226874
:100bec00013513432360424f297838006b1c0622d1
:100bfc002c300593217602f049fe5322237e06a960
:100c0c005218692b32d042d8582b77d02ad8002bc7
:100c1c0000d1f0e0522106a809180b7001230e93a5
:100c2c005ee05b42e36002230b432360bde743437a
:100c3c0001219b18350087e701225242c1e70023ae
:100c4c000a201a000135636029786e1c3039092995
:100c5c0003d9002bb7d06260b5e742430123521889
:100c6c003500f1e7632b32d0642bd3d103990a9b67
:100c7c0020c90391190602d45b0600d52db21c4f76
:100c8c00002d02da2d236d4213700a2655e0702bcd
:100c9c0000d1a9e010d86f2bbcd103990a9a20c9b6
:100cac000391110602d4520600d5adb2104f0a269c
:100cbc006f2b3dd108263be0752beed0782ba9d1bc
:100ccc00552306aa9b18782211371a701ae0522164
:100cdc00039b06ad01cb49190870012103932161d7
:100cec0000235224137006abe41859e0f0010020e5
:100cfc000434000010020020d0010020552206a967
:100d0c0052181370039a0a9b20ca03921a0602d433
:100d1c005a0600d5adb20122134202d01f32134342
:100d2c000a931026002d03d120230a9a9a430a9283
:100d3c00532306aa9b1800221a700b9b0c93002bb2
:100d4c0003db04220a9991430a91002d05d1532209
:100d5c0006a952181400002b0cd0532306aa9b187a
:100d6c001c003100280000f0fbff7b5c013c237071
:100d7c00ae423ed9082e0ed101220a9b13420ad054
:100d8c000b9b06930e9b0793079a069b934202dce0
:100d9c003023013c2370532306aa9b181b1b0e9374
:100dac00234b09aa00930aa9029b049801f0c2faea
:100dbc00431c12d00e9b22000299049802f084f975
:100dcc00431c0ad00a9b06939b0729d4099a0d9bb6
:100ddc00934200da13005a1c24d1029b9b895b06b8
:100dec0000d5cfe60f98cfe620232268134323606b
:100dfc0066e70500b5e723611400d1e7292206a9af
:100e0c00012352180498029902f05ef9431ce4d0b5
:100e1c0001340d9b099a06939b1a9c42eedbd5e795
:100e2c000024f6e70f9ad31806920f9345e6c046b6
:040e3c00d5300000ad
:020000040000fa
:100e4000f8b543025b0ada00de4693464a02520acc
:100e5000454690464e4657464446e0b54a00470050
:100e60003f0ee400120ea1469c463e00c50fc90f7e
:100e7000bc1aff2a00d177e001208246504641404b
:100e80008d4200d180e0002c51dd002a00d073e0bb
:100e90004b46002b00d1dde0013c002c0fd0ff2f92
:100ea00000d1a5e001231b2c09dc20224946121b9e
:100eb00091404b460a00e340511e8a4113435a4673
:100ec000d31a5a0100d4c0e09b019c09200002f013
:100ed000edf9230005388340864200ddc4e0861b1f
:100ee0001a0020200136f240861bb3405c1ea3414d
:100ef000002613435a0704d00f221a40042a00d0b8
:100f000004335a0100d4a3e00136f7b2ff2e00d11a
:100f1000a7e09b015b0a5802ff05400aed07384332
:100f200028433cbc90469946a246ab46f8bd002cef
:100f30004fd1fe247a1c144200d099e05a46002f6b
:100f400000d000e1002a00d1f1e04a46002ae2d0b8
:100f50004b465a46d31a5a0100d402e14b465a4630
:100f60000d009b1a0026c5e74846002800d183e7fc
:100f70008d4251d0002cdaddff2f39d080234a4634
:100f8000db041a4391468de7002c45dd002a3ad058
:100f9000ff2f2dd080234a46db041a4391460123bc
:100fa0001b2c09dc20224946121b91404b460a00ab
:100fb000e340511e8a4113435b445a0145d5013633
:100fc000ff2e4ed001226e491a405b080b4013439e
:100fd00090e7d41b0d00002f6fd15b46002b00d192
:100fe0008fe0013c002c00d1c2e0ff2a6cd1c44646
:100ff0006346002b35d080236246db0313435b023c
:101000005b0aff2787e74b46002b23d0013c002ccf
:1010100074d0ff2fc3d1ebe7002c35d1fe227e1c0c
:10102000324200d089e05a46002f6dd1002a00d10b
:10103000a3e04a46002a00d16de75b464b440026f8
:101040005a0102d54f4a013613405a0700d053e7e0
:10105000db089c46ff2ecbd063465b025b0af7b2ef
:1010600059e7ff27002356e7464a361a134041e75f
:101070004b465a46d41a63016fd4002c00d025e7a2
:1010800000250027002346e7d11b002f2cd0ff2a84
:10109000add080235846db041843834601231b2927
:1010a00008dc5b4620245846cb40611a8840411e2c
:1010b000884103434b4416007fe7ff2a97d08023e3
:1010c0005946db0419438b4601231b2c08dc2021e5
:1010d0005b465846e3400c1ba040411e8841034339
:1010e00049461600cb1aece65b46002b09d00139c5
:1010f0000029dfd0ff2ad1d1c44679e75b464b44b3
:101100005be7c4461600a5e7002a00d16fe74a4610
:10111000002a00d16ce78022d203134200d167e796
:101120004346134200d063e70d00c44660e74b46d8
:10113000002b1ad00d004346ede6ff2e91d05b4602
:101140004b445b0881e7002ae1d14b46002bebd1f1
:1011500080230025db03ff27dde64b460d009c1aac
:10116000b4e60026002b00d06fe700250023d2e66e
:101170004b46594616005b1aa3e64346cbe6c046eb
:08118000ffffff7dfffffffbf5
:020000040000fa
:10118800300200201c000000000000004c0200207b
:1011980008000000000000005402002004000000c5
:1011a800000000007602002001000000000000009e
:1011b8007002002002000000000000005802002019
:1011c80004000000010000006f128340720200203a
:1011d800020000000100000040000000740200202e
:1011e8000200000001000000001000005c02002066
:1011f800040000000000000060020020040000005d
:101208000100000070010020700100206000000053
:101218000100000000000000f00100201002002082
:10122800d0010020000000000000000000000000c5
:1012380000000000000000000000000000000000a6
:101248000000000000000000000000000000000096
:101258000000000000000000000000000000000086
:101268000000000000000000000000000000000076
:1012780000000000d0010020200000000000000055
:10128800f0010020200000000000000010020020f3
:101298002000000000000000040000206c01000095
:1012a80001000000430000000000000000000000f2
:1012b8000000000000000000000000000000000026
:1012c80000000000430000000000000000000000d3
:1012d8000000000000000000000000000000000006
:1012e80000000000430000000000000000000000b3
:1012f80000000000000000000000000000000000e6
:101308000000000043000000000000000000000092
:1013180000000000000000000000000000000000c5
:101328000000000043000000000000000000000072
:1013380000000000000000000000000000000000a5
:101348000000000043000000000000000000000052
:101358000000000000000000000000000000000085
:101368000000000043000000000000000000000032
:101378000000000000000000000000000000000065
:10138800000000008138000009370000000000005c
:10139800781e000091390000903900009039000053
:1013a8009039000090390000903900009039000011
:1013b800903900009039000090390000ffffffffce
:1013c800ffffffffffffffffffff0000010041538a
:1013d8004349490000000000000000000000000030
:1013e8000000000000000000000000000000415361
:1013f8004349490000000000000000000000000010
:1014080000000000000000000000000000000000d4
:1014180064020020040000000000000068020020b0
:10142800040000000000000000000020040000008c
:10143800000000006c020020040000000000000012
:101448000000000000000000222222222222222284
:020000040000fa
:10145800f0b54f464646d64644024500c0b5640a34
:101468000f1c2d0ec60f002d4fd0ff2d55d08023f9
:10147800e400db041c43002399469a467f3d7b0227
:1014880078005b0a9846000eff0f002831d0ff282d
:1014980010d08022db00d2041a43904600217f3806
:1014a8002d1a4b4632000b4371489b00c3587a40b3
:1014b800d2b29f46ff3d002b54d10223494619431f
:1014c80032000b007a40033bd2b20c2b04d8694996
:1014d8009b00cb589f463a00002000246402c305b5
:1014e800600ad207184310431cbc90469946a2468e
:1014f800f0bd002b2bd101234946320019438b0044
:101508005d497a40cb58d2b29f46002c13d10423b0
:101518009946033b00259a46b1e7002c05d10823dc
:101528009946063bff259a46a9e70c239946093bad
:10153800ff259a46a3e7200001f0b4fe7625431f55
:101548009c4000236d422d1a99469a4697e7180049
:1015580001f0a8fe4246431f9a402d189046763562
:1015680000219ee703219ce717003a00ff20002492
:10157800b4e780240022e403ff20afe7320053469b
:10158800022bf1d0032b6cd0012ba5d028007f3083
:10159800002846dd630704d00f232340042b00d026
:1015a8000434230103d52800344b80301c40fe2826
:1015b800dcdca401640ac0b290e78023db031c4290
:1015c80027d042461a4224d144461c436402640a86
:1015d8003a00ff2082e73a0044468a46cfe7414670
:1015e80063014c01a34235d21b200021013d012794
:1015f8001e0049005b00002e01db9c4201d81b1b2a
:10160800394301380028f3d11c00631e9c410c4368
:10161800bce78023db031c436402640a3200ff201a
:101628005ce70123181a1b2800dd55e79e352300c7
:10163800ac40c340611e8c411c43630704d00f2398
:101648002340042b00d00434630107d4a401640aa6
:10165800002043e71b1b1a200121c8e701200024b2
:101668003ce78023db031c436402640aff2035e760
:1016780074260000b4260000e8260000fffffff7ec
:10168800f0b54f464646d64644024500c0b58846a2
:10169800640a2d0ec70f002d49d0ff2d4fd080238f
:1016a800e400db041c43002399469a467f3d4346e9
:1016b80042465e02d20f5b00760a1b0e904646d069
:1016c800ff2b12d080220020f600d2047f3b164365
:1016d800ed186a1c434694464a467b400f2a00d9b7
:1016e80074e0704992008a589746ff35002e54d10d
:1016f8004a4602231a4391460220eae74346340049
:1017080082465246022a2ad0032a00d1c3e0012a7f
:1017180000d082e0002200246402d205600adb07c0
:10172800104318431cbc90469946a246f0bd002cb5
:1017380027d104239946033b00259a46b7e7002c96
:1017480019d108239946063bff259a46afe7002e94
:1017580008d14a4601231a4391460120b9e7ff22de
:101768000024d9e7300001f09dfd431f2d1a9e404b
:10177800763d0020ade70c239946093bff259a46a4
:1017880095e7200001f08efd7625431f9c4000233d
:101798006d422d1a99469a4689e74a4603231a4309
:1017a8009146032095e73b00abe780240023e40340
:1017b800ff22b1e78023db031c4245d01e4243d100
:1017c80033435c02640a4346ff22a5e7200c240445
:1017d800210c0f00320c3604360c77435143464334
:1017e800504389193a0c5218964203d9802149026c
:1017f800884640443f0411043f0cc9198c01661ef9
:10180800b441890e2143140c2418a4010c4322016d
:101818003cd50122610814400c4360467f30002803
:101828001add620704d00f222240042a00d00434b3
:10183800220103d560461c4a80301440fe288edc05
:10184800a401640ac2b267e78020c00304436402ab
:10185800640a3b00ff225fe70122101a1b2800dd03
:1018680058e762469e3221009440c140621e94416e
:101878000c43620704d00f222240042a00d004340b
:10188800620105d4a401640a002245e7ac46c4e716
:101898000122002440e78022d20314436402640a30
:0c18a800ff2239e7ec310000fffffff7e2
:020000040000fa
:1018b400f0b51e004f4b85b01d6804000f00009268
:1018c400002d05d0ab69002b02d1280001f016fad7
:1018d400494b9c424fd16c68009b022b05d0012bd5
:1018e40000d983e0002e00da80e02100280001f016
:1018f400c1fa616b002908d023004433994202d015
:10190400280000f0f1ff002363630023a3616360f8
:10191400a3891b0603d52169280000f0e5ffa389ec
:10192400364a1340a381009b022b59d003ab02aa71
:101934002100280001f0cafaa3890343a381002ee1
:1019440023d1029e300001f0bbff071e43d1029b4e
:101954000193b34239d1012040420223a2891343a7
:10196400a3810023a3602300473323602361012361
:10197400636105b0f0bd224b9c4201d1ac68abe77a
:10198400204b9c42a8d1ec68a6e7002fdad0ab69c3
:10199400002b02d1280001f0b1f9009b012b03d1e7
:1019a400a389009a1a43a2810820a389276027618a
:1019b4006661184018d0012018400023984211d0c5
:1019c4007642a360a6611800d3e7019801f078ff7e
:1019d400019e071ebfd08023a2891343a381d6e7ab
:1019e4000020bae7a660c4e7a060c2e70120404235
:1019f400bfe7c04660020020f00100205cf3ffff57
:081a040010020020d0010020b7
:020000040000fa
:101a0c00f8b505000c00002804d08369002b01d127
:101a1c0001f070f9444b9c4216d16c680c23e25ec9
:101a2c0080239b011a4205d11343a381226e3f4ba5
:101a3c0013402366002363600c23e25e93b2990685
:101a4c000cd50120404269e0394b9c4201d1ac6875
:101a5c00e4e7384b9c42e1d1ec68dfe759074bd403
:101a6c00d90605d409232b6037331343a381e8e748
:101a7c00082633420ad02100280001f0f7f900288b
:101a8c00dfd1a389a060b343a381a0610423a28901
:101a9c001343a3812369002b03d12100280000f0fc
:101aac00d5fe0c23e75ebeb2b3070fd00123a38192
:101abc00214b2249186801f067fc0923a7811e40bd
:101acc009e4203d12100280000f03af823692269d4
:101adc00236028006369216a656aa8470200606078
:101aec00002082421adc0c23e15e824217d12023b3
:101afc000b43a381013811e0616b0029cad023008c
:101b0c004433994202d0280000f0eafe0020236cf6
:101b1c00606363608342bdd0e36b2360f8bd4023f8
:101b2c0060600b43a2e7c046f0010020ffdfffff1f
:101b3c0010020020d0010020e039000069380000bc
:020000040000fa
:101b4c00f7b58a8905000c0013075dd44b68002b90
:101b5c0004dc0b6c002b01dc0020febde76a002fbf
:101b6c00fad000232e682b6080235b011a4034d0fe
:101b7c00606da3895b0706d56368c01a636b002b85
:101b8c0001d0236cc01a0200216a00232800e76ae6
:101b9c00b847a189431c06d12b681d2b31d82c4a80
:101bac00da40d3072dd50023636023692360cb046f
:101bbc0005d5431c02d12b68002b00d16065616bed
:101bcc002e600029c8d023004433994202d028004b
:101bdc0000f086fe00206063bfe70123216a280025
:101bec00b847431cc5d12b68002bc2d01d2b01d08c
:101bfc00162b01d12e60afe74023a2891343a3819a
:101c0c00abe740230b43fae70f69002fa4d00b6816
:101c1c000f60db1b01930023920700d14b69a3607b
:101c2c00019b002b00dc97e7019b3a00216a2800fe
:101c3c00a66ab047002806dc40230120a289404256
:101c4c001343a38189e7019b3f181b1a0193e7e714
:041c5c000100402023
:020000040000fa
:101c6000002243088b4274d303098b425fd3030adb
:101c70008b4244d3030b8b4228d3030c8b420dd3ee
:101c8000ff22090212ba030c8b4202d3121209027c
:101c900065d0030b8b4219d300e0090ac30b8b42ba
:101ca00001d3cb03c01a5241830b8b4201d38b0368
:101cb000c01a5241430b8b4201d34b03c01a52410d
:101cc000030b8b4201d30b03c01a5241c30a8b4250
:101cd00001d3cb02c01a5241830a8b4201d38b023b
:101ce000c01a5241430a8b4201d34b02c01a5241df
:101cf000030a8b4201d30b02c01a5241cdd2c30951
:101d00008b4201d3cb01c01a524183098b4201d3cc
:101d10008b01c01a524143098b4201d34b01c01ab7
:101d2000524103098b4201d30b01c01a5241c3082f
:101d30008b4201d3cb00c01a524183088b4201d39e
:101d40008b00c01a524143088b4201d34b00c01a8a
:101d50005241411a00d20146524110467047ffe7f6
:101d600001b5002001f03afe02bdc0460029f7d0bf
:041d700076e770475b
:020000040000fa
:101d7400f0b51e003e4b85b0039017009c4608202a
:101d840001910a00634614784d1c1b5d2900034031
:101d9400f7d12d2c37d12c780133951c0093002ecc
:101da40061d0102e09d1302c07d120222b789343f7
:101db400582b53d110266c78023501203100404253
:101dc400fff74cff0290012031004042fff7ccffa7
:101dd400002301228c46180052422100303909297f
:101de40016d80c00a64221dd002b1ddb029913003e
:101df400814205d301d1a44502db0123704320189d
:101e04002c780135e9e72b2cc8d12c78951cc5e733
:101e140021004139192901d8373ce3e72100613910
:101e2400192903d8573cdde71300e9e7002b08da4a
:101e340022230120039a40421360002f09d105b0e8
:101e4400f0bd009a002a00d04042002ff7d0002baa
:101e540001d06b1e0193019b3b60f0e73024002e00
:101e6400abd10836a9e7302c9fd00a26a5e7c04697
:041e7400791e0000d3
:020000040000fa
:101e78000020202020202020202028282828282052
:101e8800202020202020202020202020202020204a
:101e980020881010101010101010101010101010b2
:101ea80010040404040404040404041010101010a2
:101eb800101041414141414101010101010101016c
:101ec80001010101010101010101010110101010be
:101ed800101042424242424202020202020202023e
:101ee8000202020202020202020202021010101092
:101ef80020000000000000000000000000000000ba
:101f080000000000000000000000000000000000c9
:101f180000000000000000000000000000000000b9
:101f280000000000000000000000000000000000a9
:101f38000000000000000000000000000000000099
:101f48000000000000000000000000000000000089
:101f58000000000000000000000000000000000079
:101f68000000000000000000000000000000000069
:011f78000068
:020000040000fa
:021f7a007047ae
:020000040000fa
:101f7c00f8b505000e0014004b1c03d10126764267
:101f8c003000f8bd002804d08369002b01d100f08b
:101f9c00b1fe334b9c4239d16c680c23e25e80233a
:101fac009b011a4205d11343a381226e2d4b134082
:101fbc0023662022a38993431bb2a3819bb25a07a9
:101fcc0013d4da06dad508273b420ad021002800c0
:101fdc0000f04cff0028d1d1a389a060bb43a381a2
:101fec00a0610423a2891343a381626bf7b26368d7
:101ffc00f6b2002a1bd0a26b9a4211dd2368013b7a
:10200c0023601f70636801336360b9e7164b9c4211
:10201c0001d1ac68c1e7154b9c42bed1ec68bce762
:10202c002100280000f0f2fd0028e7d0a6e7216986
:10203c002268002907d0914205d2511e0878b0427f
:10204c0001d12160dfe7236423004433636303235e
:10205c00a36323004633e2631f7023600123d3e79d
:10206c00f0010020ffdfffff10020020d001002054
:020000040000fa
:10207c00f0b587b0019102921f000a00082105906b
:10208c00384813001c78551c065d2a000e40f8d108
:10209c002d2c34d12c7801369d1c002f5ed0102fa6
:1020ac0009d1302c07d120222b789343582b50d1b7
:1020bc0010276c7802352c4b3900f3181800039359
:1020cc00fff74efe049101210023494202008c4689
:1020dc00180021003039092916d80c00a7421fdd41
:1020ec00591c09d06346824206d302d10499a142fd
:1020fc0002db0123784320182c780135e9e72b2cdf
:10210c00cbd12c789d1cc8e721004139192901d865
:10211c00373ce3e721006139192901d8573cdde749
:10212c005a1c08d1059a23331360029b0398002b89
:10213c0009d107b0f0bd002e00d04042029a002a0f
:10214c00f7d0002b01d06b1e0193029b019a1a60f1
:10215c00efe73024002faed10837ace7302ca2d0fb
:0c216c000a27a8e7791e0000ffffff7f94
:020000040000fa
:10217800364b70b51d6806000c00002d05d0ab6904
:10218800002b02d1280000f0b7fd314b9c420fd143
:102198006c680c23e25e93b219072dd4d90611d4ca
:1021a80009230120336037331343a381404270bdb4
:1021b800284b9c4201d1ac68ebe7274b9c42e8d105
:1021c800ec68e6e75b0713d5616b002908d02300ac
:1021d8004433994202d0300000f084fb002363634b
:1021e8002422a3899343a381002363602369236086
:1021f8000823a2891343a3812369002b0bd1a021b3
:102208008022a389890092000b40934203d02100c9
:10221800300000f01dfb0123a289134011d00023d8
:10222800a36063695b42a361002023698342bed136
:102238000c23e25e1306bad540231343a381013869
:10224800b5e7920700d46369a360ede76002002058
:0c225800f001002010020020d001002046
:020000040000fa
:1022640070b505000e00002804d08369002b01d14d
:1022740000f044fdab69ac68002b02d1280000f0eb
:102284003dfd2a4b9c421bd16c680c23e25e8023eb
:102294009b011a4205d11343a381226e244b1340a0
:1022a4002366a3891b0702d52369002b1fd12100b4
:1022b4002800fff75fff002819d00120404270bdbd
:1022c4001c4b9c4201d1ac68dfe71b4b9c42dcd128
:1022d400ec68dae70136a360002b04daa2699a42bb
:1022e40016dc0a2914d023685a1c22601970a368ca
:1022f4003178013b0029edd1a360002b0fda2200d5
:102304000a31280000f0f0f8431cd6d00a20d6e7a2
:102314002200280000f0e8f8431ce8d1cde70a20a9
:1023240023685a1c22601870c9e7c046f0010020d7
:0c233400ffdfffff10020020d00100209e
:020000040000fa
:10234000f7b5150001938a680b6900900c00934261
:1023500000da130022002b6043321278002a01d0e9
:1023600001332b6023689b0602d52b6802332b6058
:10237000062723681f4027d0230043331b785a1eab
:1023800093412268920630d422000199433200988a
:10239000089eb047431c25d0062320682a68e168c0
:1023a00003400025042b03d18d1aeb43db171d409e
:1023b000a3682269934201dd9b1aed180027bd42f4
:1023c00020d1002010e00137e3682a689b1abb4245
:1023d000d2dd22000123193201990098089eb047ee
:1023e000431cf0d101204042febd3020e1184331b2
:1023f000087021005a1c45310978a2184332023373
:102400001170c1e7220001231a3201990098089e39
:0a241000b047431ce6d00137d1e7c6
:020000040000fa
:02241a00704709
:020000040000fa
:10241c00f0b585b002ab0022da71002000f0e8fdc7
:10242c00254a537880210b4353700021234801f037
:10243c008dfa00f0fbff224c5834224e3700204b13
:10244c005c3301932ae000233b7001f051fa80b217
:10245c001d4b18801d4b184000f0d4fa1c4b19680a
:10246c00fff70cf91b49fef7f1ff051c1a4b18601e
:10247c0000f0d6fe009000f0c5fa011c281cfef7f7
:10248c00d9fc00f047f90022144bfdf721fe00f0b7
:10249c00fbfb02000099019801f08af902abdd1deb
:1024ac002900200001f094f92b78722bf8d13378a5
:1024bc00002bfdd0c7e7c046004c00426539000038
:1024cc00a02a00007602002070020020ff7fffff90
:1024dc005802002000feff46540200200000594024
:020000040000fa
:1024ec00f8b505000e001400002804d08369002bf9
:1024fc0001d100f0fffb294b9c4234d16c68a369dd
:10250c00a360a3891b0738d52369002b35d00c2376
:10251c00e25e80239b01f7b2f6b21a4236d02368f2
:10252c002269981a6369834205dc2100280000f0b7
:10253c009dfc002827d1a3680130013ba3602368d0
:10254c005a1c22601f706369834204d0a389db0785
:10255c0007d50a2e05d12100280000f087fc0028a1
:10256c0011d13000f8bd0e4b9c4201d1ac68c6e7ce
:10257c000c4b9c42c3d1ec68c1e721002800fff74b
:10258c00f5fd0028c3d001267642eae71343a38168
:10259c00226e054b13402366c1e7c046f0010020b4
:0c25ac0010020020d0010020ffdfffff24
:020000040000fa
:1025b800f8b50323cd1c9d43083506000c2d1fd20a
:1025c8000c25a9421ed83000fff7d3fc25490a681c
:1025d8001400002c1ad1244f3b68002b04d1210091
:1025e800300001f09ff838602900300001f09af8b7
:1025f800431c2ad10c233000336001f0f3f903e0c7
:10260800002ddeda0c2333600020f8bd23685b1b45
:1026180018d40b2b03d92360e418256003e0636802
:10262800a2420dd10b60300001f0dcf92000072236
:102638000b30231d9043c21ae7d01b1aa350e4e7be
:102648005360f0e722006468c3e70323c41c9c437b
:10265800a042e2d0211a300001f064f8431cdcd11a
:0c266800c8e7c0466402002068020020a1
:020000040000fa
:10267400e615000074150000e0140000de150000eb
:10268400e01400007a150000e0140000de150000dc
:1026940074150000741500007a150000de150000a2
:1026a400841500008415000084150000c215000084
:1026b40072150000e01400007a150000e014000018
:1026c40072150000e2140000e21400007a15000004
:1026d40072150000841500008415000084150000a4
:1026e400c21500007415000074150000e014000009
:1026f400de140000e01400007a150000e01400006d
:10270400de14000074150000741500007a15000032
:0c271400de140000841500008415000095
:020000040000fa
:1027200070b541004602c40ffe20090e4b1c750a0d
:10273000184214d0e0239b006d07360bcb18002104
:102740000a0d280012051c4d32435b052a405b0828
:1027500013435b00e4075b082343190070bd0029a5
:1027600014d1002d1ed0280000f0a0fd0a281cdc8a
:102770000b232a001b1ada40030015339d400f4b30
:1027800012031b1a5b05160b5b0dd8e7002d06d054
:10279000320b802636036d071643094bcfe7084bf3
:1027a0000026cce700230026c9e703002a000b3be4
:1027b0009a400025e3e7c046ffff0f808903000031
:0427c000ff0700000f
:020000040000fa
:1027c4001d4b5a6852031b68db0c13439b029b0a84
:1027d4001a4a936300235375110004228b691a4229
:1027e400fcd116491022cb681a42fcd0144b0022ab
:1027f4009a611a61134b144a1a62190004224b6835
:102804001a42fcd10f4adc234021d15010009c31e4
:10281400402243581a42fcd00a4a86235b004021d6
:10282400d15010001900402243581a42fcd0074be3
:10283400074ada617047c0462060800000100040fb
:1028440000140040001c0040060101000008004084
:042854002000080058
:020000040000fa
:10285800f7b502268b8905000c00334206d00b0021
:1028680047330b600b6101234b61f7bd01ab6a462f
:1028780000f02afb009907002800fff799fe0028be
:102888000ed10c22a35e9a05efd4032293431e4374
:1028980023004733236023610123a6816361e4e7b2
:1028a8000f4bab628023a28920601343a381009b56
:1028b80020616361019b002b0dd00e23e15e28008f
:1028c80000f066ff002806d00322a38993431a006c
:1028d80001231343a381a0893843a081c5e7c046db
:0428e8000d390000a6
:020000040000fa
:1028ec0070b50500002910d00c1f2368002b00daee
:1028fc00e4182800fff73bfb1d4a1368002b05d199
:10290c0063601460280001f06bf870bda34209d914
:10291c00216860188342f3d118685b684118216004
:10292c00eee713005a68002a01d0a242f9d91968bf
:10293c005818a0420bd12068091858181960824207
:10294c00e0d110685268411819605a60dae7a04269
:10295c0002d90c232b60d5e721686018824203d181
:10296c00106852684118216062605c60cae7c0461a
:04297c0064020020d1
:020000040000fa
:10298000f0b5c6461f4a204b00b50021934203d242
:10299000197001339342fbd10b231c4a9c46083b20
:1029a00098461368546819000026214311d0170077
:1029b00091680c3700290fd11a19002c03d01e7012
:1029c00001339342fbd13a00136854681900214344
:1029d000edd104bc9046f0bd6146c91a1d195118cd
:1029e000002c05d05a1c505c187013009542f9d188
:1029f000434623405a1e9341a4081c19a4003f19c2
:102a00003a00e1e7040000200000002088110000e7
:020000040000fa
:102a100070b5002812d0c317c5185d40c40f280038
:102a200000f044fc9e22121a962a11dcd2b2082829
:102a300001dd083885406802400a02e000240022d7
:102a400000204002d205400ae4071043204370bd35
:102a5000992a0bdd052329001b1ad94003001b33db
:102a60009d402b005d1eab4119430d00052801dd83
:102a7000431f9d402b0009490b406e0709d00f26cc
:102a80003540042d05d004335d0102d59f220b4053
:102a9000121a9b01580ad2b2d3e7c046fffffffbd0
:020000040000fa
:102aa0000d0a436f6e76657273696f6e2072616e88
:102ab00067653a202564206d560d0a004f766572d1
:102ac00073616d706c696e6720526174696f3a2032
:102ad00025640d0a000000000d0a50726573732012
:102ae0007220746f2072656164207468652072655d
:102af00073756c740d000000256300000a0d2053ef
:102b00004441444320492f5020766f6c74616765bf
:102b1000203d2025642e253032642056200a0d00e9
:020000040000fa
:102b2000f8b51c4b07001e68b369002b02d13000ba
:102b300000f0e6f84836b4687368013b04d53368a2
:102b4000002b1cd03668f6e70c22a55e002d14d1b0
:102b50002000114b256625606560a560e360256156
:102b60006561a56108222900583000f0dffe656329
:102b7000a563a564e5642000f8bd6434dde70421a5
:102b8000380000f0cbfc041e3060dbd10c233b602e
:0c2b9000f1e7c046e03900000100ffff43
:020000040000fa
:102b9c00f0b585b001900e00140000f0b9fe0128cc
:102bac000bd1731efe2b08d8050002ab1e7100273b
:102bbc00af4212d1300005b0f0bd230032005833c3
:102bcc0003a9019800f0d0fc0500431cefd1402371
:102bdc00a2891343a3810600ece703abd95da3687c
:102bec00013ba360002b04daa269934207db0a299c
:102bfc0005d023685a1c226019700137d8e72200cf
:0c2c0c000198fff76dfc431cf7d1e4e7d2
:020000040000fa
:102c18000b00f7b54d6b44330c009d421cd1802648
:102c2800f6003100fff7c4fc002802d10120404221
:102c3800febd23006063a66346331a78104bc25466
:102c4800230045331a780f4bc2542a780e4bc254ce
:102c5800c01820600020ebe78e6b290073001a0073
:102c6800019300f059f9051ee0d0871901003200e0
:102c7800380000f02dfe019b27606563a363e9e738
:0c2c8800ff030000fe030000fd0300003d
:020000040000fa
:102c940030b5144d0a034b00120b5b0dc90f002411
:102ca400ab4204dd104ca34203dd104bcc182000d2
:102cb40030bd8024640322430d4ce41a1f2c08dd2c
:102cc4000c48c31ada4013005c420029efd11c00ff
:102cd400ede7094de040ac4663449a4013000343da
:102ce400f2e7c046fe0300001d040000ffffff7f63
:0c2cf4003304000013040000edfbffffa0
:020000040000fa
:102d0000836913b50400002b28d18364c364036571
:102d1000134b144a1b6882620193984201d101232c
:102d200083612000fff7fcfe60602000fff7f8fee3
:102d3000a0602000fff7f4fe0022e060042160683c
:102d400000f0ecf901220921a06800f0e7f9022265
:102d50001221e06800f0e2f90123a36113bdc0462f
:082d6000e03900000d3900000c
:020000040000fa
:102d680070b50b7805005e2b18d04a1c002128008e
:102d78006c1cff3401700130a042fbd1501e002ba7
:102d88000bd001204140e9541478501c2d2c0cd054
:102d98005d2c02d0002c05d1100070bd8a1c4b7828
:102da8000121e4e723000200ede756785d2ef9d013
:102db800b342f7dc02320133e9549e42fbdce3e71d
:020000040000fa
:102dc80070b504000d000020002c21d000f076fb27
:102dd800002d18d000200f4a0421072605e0138d86
:102de80023800234013085420ed0137e0b42fcd082
:102df800538b334208d153683340012befd0138de6
:102e080023700134eee72800281a45426841c0b211
:082e180070bdc0460014004229
:020000040000fa
:102e2000f7b5114e040035680f000192002d05d052
:102e3000ab69002b02d12800fff762ff0b4b9c42cd
:102e400007d16c683a003068019b2100fdf7b8fba0
:102e5000febd074b9c4201d1ac68f3e7054b9c4299
:102e6000f0d1ec68eee7c04660020020f0010020df
:082e700010020020d001002037
:020000040000fa
:102e78000b6970b505000c00002b01d1002070bd56
:102e8800002804d08369002b01d1fff735ff0b4bd5
:102e98009c4209d16c680c22a35e002beed0210065
:102ea8002800fef74ffeeae7054b9c4201d1ac68cb
:102eb800f1e7044b9c42eed1ec68ece7f00100200e
:082ec80010020020d0010020df
:020000040000fa
:102ed00070b50e001d000e23c95e90b014000029cd
:102ee00007da00232b60b3891b0611d48023db0093
:102ef0000fe001aa00f03efc0028f2dbf022029b6a
:102f000012021340054a9b185a4253412b60ede7c9
:102f100040230020236010b070bdc04600e0ffffda
:020000040000fa
:102f2000f8b507000d001600002905d11100fff7c4
:102f300043fb04002000f8bd002a03d1fff7d6fcb4
:102f40003400f7e700f0fafc2c00b042f2d2310076
:102f50003800fff731fb041eecd02900320000f0ee
:0c2f6000bbfc29003800fff7c1fce3e7d0
:020000040000fa
:102f6c0010b5064c2378002b07d1054b002b02d053
:102f7c00044800e000bf0123237010bd3002002084
:102f8c000000000000000000044b10b5002b03d023
:102f9c000349044800e000bf10bdc046000000001b
:082fac003402002000000000c7
:020000040000fa
:102fb4000f4b01221a7019000b6a1a42fcd10c4bf8
:102fc400802292015a8080225a707f3a9a725a72f1
:102fd4000721d9719a71074a002111601a780221d8
:102fe4000a431a701a00136a002bfcd17047c046ba
:082ff400004c00424c020020d9
:020000040000fa
:102ffc0010b50f4b06225a600e4c236858680021fe
:10300c0000f06dfc23689868002100f068fc00f06b
:10301c0051fbfff7d1fb00f093fcfff7f8f900f040
:10302c007bf900f095f9fff7bfff00f02ffa10bd08
:08303c00004000416002002089
:020000040000fa
:1030440010b50a4b98470a4b9847fff797fc094b72
:10305400ff229343084a9360084b9847084b9847cc
:10306400084b9847fff7d8f9fee7c046af38000091
:10307400af3800000000000000ed00e08d300000db
:08308400af380000af38000076
:020000040000fa
:10308c0070b500260c4d0d4c641ba410a64209d142
:10309c000026fdf70df80a4d0a4c641ba410a6423d
:1030ac0005d170bdb300eb5898470136eee7b3007d
:1030bc00eb5898470136f2e7c8000000c800000042
:0830cc00c8000000cc00000068
:020000040000fa
:1030d400f8b50d00096e06001400d718890418d538
:1030e4009f08bf00d719bc4201d1002008e02a0084
:1030f40002cc300000f080fb431cf4d1012040429c
:10310400f8bd21782a00300000f05efa0134431c37
:08311400f4d0bc42f5d1e8e75c
:020000040000fa
:10311c00002310b504000360436083608181036663
:10312c00c28103614361836119000822583000f0a9
:10313c00f7fb054b24626362044ba362044be3620e
:10314c00044b236310bdc04621360000cd33000074
:08315c00493500007139000043
:020000040000fa
:1031640030b5002818d0002918d00d4a01240725ad
:1031740004e003881385023000290bd00139137e43
:103184002342fcd053682b40012bf2d003781385e3
:103194000130f1e7012030bd0020fce70120fae70f
:0431a40000140042d1
:020000040000fa
:1031a800f7b504000700002601914834002c01d12e
:1031b8003000febd6368a5680093009b013b009347
:1031c80001d52468f2e7ab89012b08d90e22ab5e42
:1031d800013304d029003800019b98470643643521
:0231e800ebe713
:020000040000fa
:0231ea00fee7fe
:020000040000fa
:1031ec00d417000006170000061700000417000093
:1031fc000a1700000a170000b2170000041700009d
:10320c000a170000b21700000a170000041700008c
:10321c00ae170000ae170000ae170000bc17000080
:020000040000fa
:10322c0041024200c30f490a120e00207e2a03d924
:10323c009d2a02d9094a981870478020000401433e
:10324c00952a07dc9620821ad1404842002bf3d1f4
:10325c000800f1e7963a9140f7e7c046ffffff7f81
:020000040000fa
:10326c0004030000a4010000a4010000a001000060
:10327c00aa010000aa010000c0020000a001000089
:10328c00aa010000c0020000aa010000a001000079
:10329c00bc020000bc020000bc020000ce02000018
:020000040000fa
:1032ac001c2101231b04984201d3000c10391b0a6a
:1032bc00984201d3000a08391b09984201d300092e
:1032cc00043902a2105c40187047c0460403020285
:0c32dc00010101010000000000000000e2
:020000040000fa
:1032e80070b50c1e0ed0002a0cd01500022801d98a
:1032f800280070bd084b002b06d01100200000e00c
:1033080000bff5e70025f3e78e182078013400f0b8
:0c3318008dfab442f9d1ebe70000000090
:020000040000fa
:103324000a4b0b4a1a600b4a9a81c02292025a60d5
:103334001a00d369002bfcd1044a136802210b4301
:103344001360d369002bfcd17047c04600140042bf
:08335400040131402bf6ffffdc
:020000040000fa
:10335c0010b50a4b18691a6902218a431a611a6955
:10336c00074c22401a61014203d01a001b690b431f
:10337c001361024b034ada6110bdc04600180040cd
:08338c001e003f0004000300d5
:020000040000fa
:10339400f7b54830040000260191002c01d130001b
:1033a400febda5686768013f01d52468f5e7ab89d0
:1033b400012b07d90e22ab5e013303d02800019bf9
:0833c400984706436435eee76b
:020000040000fa
:1033cc00f8b51f008b8905000c001600db0505d530
:1033dc000e23c95e0022022300f044f9a389054a9a
:1033ec0028001340a38132000e23e15e3b0000f065
:0833fc0025f9f8bdffefffff0a
:020000040000fa
:103404003031323334353637383941424344454616
:1034140000303132333435363738396162636465ac
:103424006600232d302b2000686c4c0065666745d0
:0334340046470008
:020000040000fa
:1034380010b5084b1988084c200000f0bbf9074b61
:10344800198820001c3000f0b5f92000383000f051
:103458002bfa10bd74020020a02a0000720200207e
:020000040000fa
:10346800084a1368002b09d007491818884202d85f
:1034780010601800704701235b42fae7034b1360a2
:10348800f2e7c0466c020020780400207802002091
:020000040000fa
:10349800bff35f8f62b6074bc72080001a580649f2
:1034a8001140c02212020a431a50802292051a6063
:0c34b8007047c04600e100e0ff00ffff8d
:020000040000fa
:1034c400094b5b8b5b070dd0074b80221a76793a48
:1034d4005a831b7e5b0705d5034b04211a8d1a7e84
:0c34e4000a42fbd17047c04600140042b1
:020000040000fa
:1034f000686c4c00123500001535000018350000ce
:10350000412d46612d663839303132333435363706
:0c3510005d002b2d0030300078580000ca
:020000040000fa
:10351c0070b564254a1e55430e0029007031fff723
:10352c0045f8041e08d000212a00016046600c30ca
:0c353c00a060643200f0f4f9200070bdc3
:020000040000fa
:1035480070b50c000e25495f00f08ef8a389421c67
:1035580003d1054a1340a38170bd80225201134351
:0c356800a3816065f8e7c046ffefffff9d
:020000040000fa
:103574007fb51d00084b0400e0331e682b000029b2
:1035840001d10a0001a9b047431c03d100232b60d9
:0c3594008a33236004b070bd04000020e6
:020000040000fa
:1035a00070b500290fd0002a0dd01500002808d1d1
:1035b0000c008e18012000f030f920700134b44264
:0c35c000f8d1280070bd0025fbe7c046d4
:020000040000fa
:1035cc00936810b5013b9360002b04da9469a34215
:1035dc0007db0a2905d01368581c10601970080005
:0a35ec0010bdfef77dff0100f9e7b6
:020000040000fa
:0235f600fee7ee
:020000040000fa
:1035f80010b5011e05d1054b05491868fff7d0fd28
:1036080010bd044b1868fff733fcf9e7e0390000f8
:08361800792e00006002002081
:020000040000fa
:1036200070b50c000e25495f00f036f8002803db6a
:10363000636d1b18636570bda389024a1340a381a3
:08364000f9e7c046ffefffffb0
:020000040000fa
:1036480070b50500080011000022064c22601a001f
:1036580000f0b8f9431c03d12368002b00d02b607d
:0836680070bdc0460000002007
:020000040000fa
:1036700070b50500080011000022064c22601a00f7
:1036800000f09cf9431c03d12368002b00d02b6071
:0836900070bdc04600000020df
:020000040000fa
:1036980070b50500080011000022064c22601a00cf
:1036a80000f08cf9431c03d12368002b00d02b6059
:0836b80070bdc04600000020b7
:020000040000fa
:1036c0008223db050122c8215a5401315a540131a9
:1036d0005a5401315a54b332ba3999540132223111
:0436e0009954704742
:020000040000fa
:1036e40010b5064bd879c0b20722da71044b1b68b7
:1036f400002b02d0024a5168984710bd004c00428a
:043704004c02002053
:020000040000fa
:1037080082b0002900d101a9101e06d0002b06d0d6
:1037180013780b601078431e984102b0704702205e
:043728004042fae73a
:020000040000fa
:10372c00002370b5064c050008002360fff796fed9
:10373c00431c03d12368002b00d02b6070bdc04606
:04374c000000002059
:020000040000fa
:10375000002370b5064c05000800236000f022f934
:10376000431c03d12368002b00d02b6070bdc046e2
:043770000000002035
:020000040000fa
:10377400002370b5064c050008001100236000f01a
:1037840013f9431c03d12368002b00d02b6070bdb8
:043794000000002011
:020000040000fa
:10379800002370b5064c05000800236000f006f908
:1037a800431c03d12368002b00d02b6070bdc0469a
:0437b80000000020ed
:020000040000fa
:1037bc000fb407b5054b04aa1b6802ca986801929e
:1037cc0000f040f803b008bc04b0184760020020b9
:020000040000fa
:1037dc000fb407b5054b04aa1b6802ca58680192be
:1037ec00fff718fb03b008bc04b0184760020020b8
:020000040000fa
:1037fc0010b50c23d45e80239b011c4204d11c43c6
:0e380c009481146e23431366fff7c2f910bdba
:020000040000fa
:10381a0000b583b000230193012101a8fff7cffa75
:0a382a000028f9d0019803b000bd9a
:020000040000fa
:1038340000b583b06b46d87101216b46d81dfff7e4
:0a3844008ffc0028f8d003b000bd8f
:020000040000fa
:02384e00fee793
:020000040000fa
:1038500010b513000a00010002480068fdf70ef9d8
:0838600010bdc046600200200b
:020000040000fa
:10386800092210b5838913400022092b02d1fff7e2
:08387800bffe0200100010bdac
:020000040000fa
:103880000b1e04d0ff2a04d98a2303608b3b180047
:0838900070470a700123fae7fa
:020000040000fa
:10389800c9b28218904201d10020704703788b4248
:0638a800fbd00130f6e741
:020000040000fa
:0238ae00704761
:020000040000fa
:1038b00010b5034b01001868fef7d4fc10bdc046dc
:0438c0006002002082
:020000040000fa
:1038c40010b5034b01001868fef774fe10bdc04626
:0438d400600200206e
:020000040000fa
:1038d800002310b59a4200d110bdcc5cc45401330a
:0238e800f8e7ff
:020000040000fa
:1038ea004a424a41802310b55200db00fdf7ddff52
:0238fa0010bdff
:020000040000fa
:1038fc00024b586a000a00b27047c046004c0042a6
:020000040000fa
:10390c0010b50249fff74afc10bdc046792e0000e5
:020000040000fa
:10391c009423024a5b00d05c7047c0460400002030
:020000040000fa
:10392c0003001218934200d1704719700133f9e764
:020000040000fa
:10393c000b1f1b68181f002b01da0b58c01870479f
:020000040000fa
:0c394c00014b84225a607047004000418b
:020000040000fa
:0c395800014b1860596070474c020020c1
:020000040000fa
:0c396400014b01221a707047760200200f
:020000040000fa
:0c39700010b50e23c95efff7ebfe10bd82
:020000040000fa
:0c397c0080239b0100204b607047c04678
:020000040000fa
:0b3988004300504f53495800002e0030
:020000040000fa
:0839940010b5fef771fb10bd38
:020000040000fa
:08399c0010b5fef7e9f910bdba
:020000040000fa
:0839a40010b500f015f810bd8c
:020000040000fa
:0839ac0010b5fff7e5ff10bda7
:020000040000fa
:0839b40010b500f015f810bd7c
:020000040000fa
:0839bc0010b500f013f810bd76
:020000040000fa
:0839c40010b5fff7ebfd10bd8b
:020000040000fa
:0839cc0010b5fff78bfc10bde4
:020000040000fa
:0839d400012040427047c0468b
:020000040000fa
:0439dc007047c0462a
:020000040000fa
:0439e0007001002052
:020000040000fa
:0439e4000120704707
:020000040000fa
:0439e8000020704704
:020000040000fa
:0239ec00704722
:020000040000fa
:0200000400807a
:04400000770800003d
:020000040000fa
:0200000400807a
:044004000000ffffba
:00000001FF
