:020000040000fa
:10000000f0ff03205d070700251607002b160700e9
:10001000371607003d1607004316070000000000d2
:1000200000000000000000000000000077ac0600a7
:10003000311607000000000077ac060077ac060020
:1000400077ac060077ac060077ac060077ac06000c
:1000500077ac060077ac060077ac060077ac0600fc
:1000600077ac060077ac060077ac060077ac0600ec
:1000700077ac060077ac060077ac060077ac0600dc
:1000800077ac060077ac060077ac060077ac0600cc
:1000900077ac060077ac060077ac060077ac0600bc
:1000a00077ac060077ac060077ac060077ac0600ac
:1000b00077ac060077ac060077ac0600613406002a
:1000c0006f34060077ac060077ac060077ac06000c
:1000d00077ac060077ac060077ac060077ac06007c
:1000e00077ac060077ac06000000000000000000be
:1000f0000000000077ac060077ac060077ac060085
:1001000077ac060077ac060077ac060077ac06004b
:1001100077ac060077ac0600c5e20500c5e2050035
:10012000c5e20500c5e2050077ac060077ac060025
:1001300077ac060077ac0600b5380600b538060087
:10014000b5380600b538060077ac060077ac060077
:1001500077ac060077ac060077ac060077ac0600fb
:1001600077ac060077ac060077ac060077ac0600eb
:1001700077ac060077ac060077ac060077ac0600db
:1001800077ac060077ac060077ac060077ac0600cb
:100190000567040077ac060077ac060077ac060074
:1001a00077ac060077ac060077ac060077ac0600ab
:1001b00077ac060077ac060077ac060077ac06009b
:1001c00077ac060077ac060077ac060077ac06008b
:1001d00077ac060077ac060077ac060077ac06007b
:1001e00077ac060077ac060077ac060081c6060047
:1001f00077ac060077ac060077ac060077ac06005b
:1002000077ac060077ac060077ac060077ac06004a
:1002100077ac060077ac060077ac060077ac06003a
:1002200077ac060077ac060077ac060077ac06002a
:1002300077ac060077ac060077ac060077ac06001a
:1002400077ac060077ac060077ac060077ac06000a
:1002500077ac060077ac060077ac060077ac0600fa
:0402600077ac060071
:020000040000fa
:10026400f8b500bff8bc08bc9e467047210a0700d9
:10027400f8b500bff8bc08bc9e467047fd090700ee
:020000040000fa
:08028400e8ac060001000000d7
:020000040000fa
:10028c0080b485b000af786039607b68fb6004e0b7
:10029c00fb685a1cfa6000221a703b685a1e3a60be
:1002ac00002bf5d100bf1437bd465df8047b7047b9
:1002bc0080b483b000af786039607a683b68934251
:1002cc0028bf134618460c37bd465df8047b7047b3
:1002dc0080b483b000af0346fb71fb79303b18460a
:1002ec000c37bd465df8047b704780b586b002af15
:1002fc00f860b9607a603b60012300933b687a68d0
:10030c00b968f86800f005f8034618461037bd4682
:10031c0080bd80b489b000aff860b9607a603b6092
:10032c000023fb61bb681b68bb617b6800221a6001
:10033c00bb6901333a689a4202d26ff083034ce0f6
:10034c00bb695a1cba61fa6813441b78fb7497f9a1
:10035c001330002b29dafb7c03f07f037b61ba6935
:10036c007b6913443a689a4202d26ff0830334e0fb
:10037c007b69042b0ed96ff08b032ee0bb695a1ce2
:10038c00ba61fa6813441b78fb74fb691a02fb7c94
:10039c001343fb617b695a1e7a61002beed1fb691a
:1003ac00002b04da6ff08b0317e0fb7cfb61bb6a5c
:1003bc00002b08d0fa69bb6913443a689a4202d2fe
:1003cc006ff0830309e0bb68ba691a60fb69002b04
:1003dc0002dd7b68fa691a60fb6918462437bd4652
:1003ec005df8047b704780b487b000aff860b960eb
:1003fc007a603b607b68002b05d0bb68002b02d079
:10040c00fb68002b02d16ff0ac0315e0bb681b68d6
:10041c007b617b6901333a689a4202d26ff08303a5
:10042c000ae0fa687b6913441a787b681a707b6956
:10043c005a1cbb681a60002318461c37bd465df871
:10044c00047b704780b58ab002aff8607a603b607d
:10045c000b46fb727b681b68fb6107f11b0207f103
:10046c001c01bb6af868fff7beff0346002b02d0e5
:10047c006ff08b031de0fb7efa7a9a4202d06ff08c
:10048c008b0316e007f1140207f11c01fb6a0093c1
:10049c00bb6af868fff73dff0346002b02da6ff0ea
:1004ac008b0306e07a693b681a60fa697b681a600c
:1004bc007b6918462037bd4680bd80b586b002af3b
:1004cc00f8607a603b600b46fb72f97a012301936a
:1004dc00bb6900933b687a68f868fff7b3ff034683
:1004ec0018461037bd4680bd80b588b002aff860a5
:1004fc00b9607a603b607b681b687b617b69013308
:10050c003a6a9a4202d26ff083031ee07b695a1c4e
:10051c007a61fa6813441a78bb681a7007f11002f2
:10052c0007f114017b6a00933b6af868fff7f1fe50
:10053c000346002b02da6ff08b0306e03a693b6846
:10054c001a607a697b681a603b6918461837bd4691
:10055c0080bd80b586b002aff860b9607a603b6050
:10056c003b6800937b68ba683021f868fff7a5fff9
:10057c00034618461037bd4680bd80b586b002af25
:10058c00f860b9607a603b60bb6901933b6800938b
:10059c007b68ba683021f868fff754ff03461846a9
:1005ac001037bd4680bd80b586b002aff860b9602b
:1005bc007a603b603b6800937b68ba683121f868cd
:1005cc00fff77bff034618461037bd4680bd80b54c
:1005dc0086b002aff860b9607a603b60bb6901938a
:1005ec003b6800937b68ba683121f868fff72afff3
:1005fc00034618461037bd4680bd80b487b000afa7
:10060c00f860b9607a60bb681b687b617b690233f8
:10061c007a689a4202d26ff083031be07b695a1c02
:10062c007a61fa6813441b78fb74fb7c052b02d0af
:10063c006ff090030ee07b695a1c7a61fa681344e0
:10064c001b78002b02d06ff0910303e0bb687a6932
:10065c001a60002318461c37bd465df8047b7047b2
:10066c0080b483b000af78607b6805221a707b6819
:10067c00013300221a70022318460c37bd465df870
:10068c00047b704780b487b000aff860b9607a60c3
:10069c00bb681b687b617b6903337a689a4202d220
:1006ac006ff0830327e07b695a1c7a61fa68134464
:1006bc001b78fb74fb7c012b02d06ff08b031ae0d0
:1006cc007b695a1c7a61fa6813441b78012b02d09f
:1006dc006ff08b030fe07b695a1c7a61fa68134444
:1006ec001b78002b14bf01230023dbb2fb74bb6807
:1006fc007a691a60fb7c18461c37bd465df8047b92
:10070c00704780b586b002aff860b9607a603b6024
:10071c003b6800937b68ba680421f868fff7cdfe4c
:10072c00034618461037bd4680bd80b588b002af71
:10073c00f860b9607a603b603b6800937b68ba688c
:10074c000221f868fff7b9fe78617b69002b01daaa
:10075c007b693fe07b681b68002b3add7b681b687c
:10076c00012b12ddbb681b68fa6813441b78ff2b46
:10077c000bd1bb681b680133fa6813441b785bb25e
:10078c00002b02da6ff08b0324e0bb681b68fa685d
:10079c0013441b78002b1cd17b681b68012b18ddc4
:1007ac00bb681b685a1cbb681a607b681b685a1ea6
:1007bc007b681a607b681b68002b0addbb681b68b2
:1007cc00fa6813441b785bb2002b02db6ff08b03cf
:1007dc0000e0002318461837bd4680bd80b586b0b2
:1007ec0000aff860b9607a60bb681b687b617b699d
:1007fc0003337a689a4202d26ff0830329e007f13f
:10080c00130207f114017b68f868fff7ecfd03464f
:10081c00002b02d06ff08b031be0fb7c022b02d071
:10082c006ff08b0315e07b695a1c7a61fa681344ec
:10083c001b78012b02d06ff08b030ae07b695a1cea
:10084c007a61fa6813441b78fb747a69bb681a6086
:10085c00fb7c18461837bd4680bd80b483b000af12
:10086c0078607b68b3f5227f21d07b68b3f5227f5b
:10087c000ddc7b6840f20b22934222d07b68b3f5ef
:10088c00037f20d07b68b3f5027f18d01de07b6816
:10089c0040f28f22934210d07b6840f29222934216
:1008ac0009d07b6840f28922934202d00de00a4bba
:1008bc000ce00a4b0ae00a4b08e00a4b06e00a4b34
:1008cc0004e00a4b02e00a4b00e00a4b18460c37d6
:1008dc00bd465df8047b7047385c0600505c060032
:1008ec00685c0600805c0600985c0600a45c060050
:1008fc00b45c0600c45c060080b586b000aff8603e
:10090c000b467a60fb7200237b617b68002b04d062
:10091c007a687b69134402221a707b6901337b610c
:10092c0097f90b30002b02dafb680133fb60f86897
:10093c007b68002b03d07a687b69134400e00023aa
:10094c00194602f00dff02467b6913447b6197f94f
:10095c000b30002b0ada7b68002b04d07a687b6999
:10096c00134400221a707b6901337b617b69184642
:10097c001837bd4680bd80b588b000aff860b9604f
:10098c007a600023fb61f8680cf014f8b861f86821
:10099c000bf0f1fe7861bb68002b0edb7b69013339
:1009ac00ba69002a14bf01220022d2b21344ba68d9
:1009bc009a4202da6ff083032de0bb69002b01d061
:1009cc00802300e000237a6819467869fff794ffca
:1009dc00f861bb68002b08dbfa697b691344ba68c1
:1009ec009a4202da6ff0830315e07b68002b0dd07e
:1009fc00fb697a6813441946f8680bf0d8fe386125
:100a0c003b69002b02d06ff0700304e0fa697b693c
:100a1c001344fb61fb6918462037bd4680bd80b589
:100a2c0086b000aff860b9607a603b60bb681b6849
:100a3c007b617b6903333a689a4202d26ff08b0375
:100a4c002ce007f1130207f114013b68f868fff77b
:100a5c00cafc0346002b02d06ff08b031ee0fb7c1c
:100a6c00022b02d06ff08b0318e07b695a1c7a6161
:100a7c00fa6813441b78012b02d06ff08c030de045
:100a8c007b695a1c7a61fa6813441b781a467b6896
:100a9c001a607a69bb681a607b681b68184618373d
:100aac00bd4680bd80b588b000aff860b9607a6093
:100abc003b60bb681b68bb6107f1170207f11801ab
:100acc003b68f868fff78ffc0346002b02d06ff0f1
:100adc008b0323e0fb7da02b1cd1bb690133bb61d5
:100aec00ba69bb681a603b687a68b968f868fff73e
:100afc0096fff861fb69002b0adb7b681b68032bf4
:100b0c0003dc7b681b68002b02da6ff08c03fb6143
:100b1c00fb6903e07b6800221a600023184620372b
:100b2c00bd4680bd80b588b000aff860b9607a6012
:100b3c003b607b681b68bb6107f1140207f118016d
:100b4c003b68b868fff7f1fdf861fb69002b01d039
:100b5c00fb691fe0f8680bf024fc0346002b02d065
:100b6c006ff06d0316e0bb69ba6813447a691946d5
:100b7c00f8680bf03afe0346002b05d0f8680bf032
:100b8c0090fc6ff08d0305e0bb697a691a447b68b1
:100b9c001a60002318462037bd4680bd80b588b04a
:100bac0000aff860b9607a603b60bb681b68fb61a2
:100bbc0007f1170207f11c013b68f868fff713fcfb
:100bcc000346002b02d06ff0920361e0fb7d032bf8
:100bdc0002d06ff092035be007f1180207f11c01e1
:100bec003b68f868fff781fb0346002b02da6ff0d5
:100bfc008b034de0bb69002b02dc6ff0830347e0f5
:100c0c00fb6901333a689a4202d26ff083033fe0ea
:100c1c00fb69fa6813441b78fb75bb6a002b05d083
:100c2c00fb7d002b02d06ff0910331e0fb7d072b95
:100c3c0002d96ff08b032be0fb7d002b12d0fb69ec
:100c4c00ba691344013bfa6813441b781a46fb7dbe
:100c5c00c3f1080302fa03f3dbb2002b02d06ff0ee
:100c6c008b0315e0fb690133fb61bb69013bbb6185
:100c7c00fa69bb681a607b68002b02d0ba697b6882
:100c8c001a60fb6a002b02d0fa7dfb6a1a700023f3
:100c9c0018462037bd4680bd80b586b000aff860e1
:100cac000b467a60fb7200237b617b68002b04d0bf
:100cbc007a687b69134403221a707b6901337b6168
:100ccc00fb68581c7b68002b03d07a687b69134443
:100cdc0000e00023194602f043fd02467b691344f1
:100cec007b617b68002b04d07a687b691344fa7aa9
:100cfc001a707b6901337b617b6918461837bd46d6
:100d0c0080bd80b586b000aff860b9607a60002312
:100d1c007b617b6800221a60bb68132b00f2ba83dc
:100d2c0001a252f823f000bf850d0000e50d000074
:100d3c00870e0000b70e0000c70e0000a1140000c3
:100d4c00291000004f120000651200007b120000f9
:100d5c00911200001b1300006d130000b313000070
:100d6c0033130000ef130000a1140000a1140000c5
:100d7c00a1140000a1140000fb68b3f5cf7f24d0b0
:100d8c00fb68b3f5cf7f03d8fb68582b11d083e3f6
:100d9c00fb6840f2a112934211d0fb6840f2892209
:100dac00934240f07983854b7b617b6808221a6003
:100dbc0011e0834b7b617b6805221a600be0814b51
:100dcc007b617b6809221a6005e07f4b7b617b6845
:100ddc0009221a6000bf5fe3fb68b3f5227f21d0c4
:100dec00fb68b3f5227f0dd8fb6840f20b229342cf
:100dfc0036d0fb68b3f5037f38d0fb68b3f5027fc0
:100e0c0028d039e0fb6840f28f2293421cd0fb685b
:100e1c0040f29222934211d0fb6840f28922934215
:100e2c0006d029e0694b7b617b6809221a6023e0bc
:100e3c00674b7b617b6809221a601de0654b7b6107
:100e4c007b6809221a6017e0634b7b617b6809227f
:100e5c001a6011e0614b7b617b6807221a600be022
:100e6c005f4b7b617b6808221a6005e05d4b7b6100
:100e7c007b6808221a6000bf1de3fb6840f2062263
:100e8c0093420ad0fb6840f2852293420bd1564b19
:100e9c007b617b6809221a6006e0544b7b617b689e
:100eac0007221a6000e000bf05e307f114037a681b
:100ebc001946f8681ef017f8fde2fb68b3f5db7f06
:100ecc0051d0fb68b3f5db7f19d8fb68b3f5d17f44
:100edc0043d0fb68b3f5d17f07d8fb68452b60d0b6
:100eec00fb68b3f5cf7f26d0e5e2fb6840f2a31296
:100efc00934244d0fb68b3f5d97f22d0dbe2fb6888
:100f0c00b3f5e57f35d0fb68b3f5e57f09d8fb6811
:100f1c0040f2b712934238d0fb68b3f5e37f16d09a
:100f2c00c9e2fb6840f2cb12934234d0fb68b3f5b4
:100f3c00237f3cd0bfe22e4b7b617b6809221a6079
:100f4c003be02c4b7b617b6809221a6035e02a4b15
:100f5c007b617b6809221a602fe0284b7b617b68e0
:100f6c0009221a6029e0264b7b617b6809221a60f2
:100f7c0023e0244b7b617b6809221a601de0224b25
:100f8c007b617b6809221a6017e0204b7b617b68d0
:100f9c0009221a6011e01e4b7b617b6809221a60e2
:100fac000be01c4b7b617b6805221a6005e01a4b39
:100fbc007b617b6808221a6000bf7ce2cc5c060077
:100fcc00d45c0600dc5c0600e85c0600045d0600f0
:100fdc00105d06001c5d0600285d0600345d0600f1
:100fec003c5d0600445d06004c5d0600585d060045
:100ffc00605d06006c5d0600785d0600845d060091
:10100c00905d06009c5d0600a85d0600b45d0600c0
:10101c00c05d0600cc5d0600d45d0600fb68453b58
:10102c00632b00f23b8201a252f823f0ed11000079
:10103c00a9140000a9140000a9140000a9140000b0
:10104c00a9140000a9140000a9140000a9140000a0
:10105c00a9140000a9140000a9140000a914000090
:10106c00a9140000a9140000a9140000a914000080
:10107c00a9140000a9140000a9140000a914000070
:10108c00a9140000a9140000a9140000a914000060
:10109c00a9140000a9140000a9140000a914000050
:1010ac00a9140000a9140000a9140000a914000040
:1010bc00a9140000a9140000a9140000a914000030
:1010cc00a9140000a9140000a9140000a914000020
:1010dc00a9140000a9140000a9140000a914000010
:1010ec00a9140000a9140000a9140000a914000000
:1010fc00a9140000a9140000a9140000a9140000f0
:10110c00a9140000a9140000a9140000a9140000df
:10111c00a9140000a9140000051200001d12000003
:10112c00a9140000d5110000a9140000c911000079
:10113c00a9140000a9140000a9140000a9140000af
:10114c00a9140000a9140000a9140000a91400009f
:10115c00a9140000a914000041120000e1110000c4
:10116c0011120000a9140000a9140000f9110000cc
:10117c00a914000035120000a9140000a9140000e5
:10118c00a9140000a9140000a9140000a91400005f
:10119c00a9140000a9140000a9140000a91400004f
:1011ac00a9140000a9140000a9140000a91400003f
:1011bc00a9140000a914000029120000944b7b61b3
:1011cc007b6803221a603be0924b7b617b680322b5
:1011dc001a6035e0904b7b617b6803221a602fe02c
:1011ec008e4b7b617b6808221a6029e08c4b7b61fb
:1011fc007b6803221a6023e08a4b7b617b680322a5
:10120c001a601de0884b7b617b6803221a6017e033
:10121c00864b7b617b6803221a6011e0844b7b61f7
:10122c007b6803221a600be0824b7b617b68032294
:10123c001a6005e0804b7b617b6803221a6000bf5b
:10124c002ce1fb68752b40f02b817c4b7b617b6820
:10125c0008221a6000bf23e1fb68922b40f0228128
:10126c00774b7b617b6804221a6000bf1ae1fb6834
:10127c004f2b40f01981734b7b617b6808221a60fd
:10128c0000bf11e1fb684a2b2ed0fb684a2b09d812
:10129c00fb68482b1cd0fb68482b1fd8fb68472bde
:1012ac0010d008e1fb684f2b2ad0fb68972b03d09a
:1012bc00fb684e2b1ed0fee0634b7b617b680422e7
:1012cc001a6023e0614b7b617b6808221a601de089
:1012dc005f4b7b617b6808221a6017e05d4b7b617a
:1012ec007b6808221a6011e05b4b7b617b680822eb
:1012fc001a600be0594b7b617b6808221a6005e091
:10130c00574b7b617b6808221a6000bfd3e0fb68f7
:10131c00b3f5257f40f0ca80524b7b617b68092274
:10132c001a6000bfc2e0fb68032b0cd0fb680d2bce
:10133c000fd0fb68022b40f0bb804b4b7b617b6872
:10134c0009221a600be0494b7b617b680a221a6008
:10135c0005e0474b7b617b6809221a6000bfa7e060
:10136c00fb6840f2b512934210d0fb6840f2c912f0
:10137c00934211d0fb6840f2a112934240f09a8044
:10138c003c4b7b617b6809221a600be03a4b7b611a
:10139c007b6809221a6005e0384b7b617b68092267
:1013ac001a6000bf86e0fb68bd2b13d0fb68b3f559
:1013bc00e87f03d0fb68bc2b06d07ce0304b7b6114
:1013cc007b6809221a600be02e4b7b617b6806223e
:1013dc001a6005e02c4b7b617b6806221a6000bf0b
:1013ec0069e0fb68b3f5237f05d0fb6840f28d22e2
:1013fc00934206d05fe0254b7b617b6808221a6024
:10140c0005e0234b7b617b6808221a6000bf52e029
:10141c001c5e0600205e0600245e0600285e0600a8
:10142c00305e0600345e0600385e06003c5e060048
:10143c00405e0600445e0600485e06004c5e0600f8
:10144c00545e0600585e0600605e0600645e060090
:10145c006c5e0600745e06007c5e0600845e060010
:10146c008c5e0600945e0600a05e0600b85e060068
:10147c00ac5e0600dc5d0600e85d0600f45d06006f
:10148c00005e06000c5e0600145e0600f45c0600ae
:10149c00fc5c060000bf0ee000bf0ce000bf0ae0e1
:1014ac0000bf08e000bf06e000bf04e000bf02e0a0
:1014bc0000bf00e000bf7b6918461837bd4680bdf1
:1014cc0080b588b000aff860b9607a603b60bb68eb
:1014dc001b68fb61fb6901333a689a4202d26ff0d8
:1014ec00830328e007f1170207f11c013b68f86839
:1014fc00fef779ff0346002b02d06ff08b031ae046
:10150c00fb7d062b02d06ff08f0314e007f118025d
:10151c0007f11c013b68f868fef7e7fe0346002b59
:10152c0002da6ff08b0306e0ba697b681a60fa691d
:10153c00bb681a60002318462037bd4680bd80b5b5
:10154c0084b000af786039600023fb603b68002bef
:10155c0008d0fb685a1cfa601a463b6813440622f2
:10156c001a7002e0fb680133fb6078683b68002b63
:10157c0003d0fb683a68134400e00023194602f0dc
:10158c00eff80246fb681344fb60fb681846103703
:10159c00bd4680bd80b58cb000aff860b9607a6094
:1015ac003b600023bb62bb681b68bb610023fb6212
:1015bc007b6800221a6007f11c0207f11801bb6b53
:1015cc00f868fff77dffb862bb6a002b01d0bb6add
:1015dc003fe0bb69fa6813447b62fb69002b0eddac
:1015ec00fb69fb620be07b681b68ba69f9680a440b
:1015fc0012781a447b681a60bb690133bb61fb69c2
:10160c005a1efa61002beed1ba69bb681a6000232e
:10161c003b623b68152b1bd07b681b6807f11402df
:10162c0039681846fff76dfb38623b6a002b0fd008
:10163c007b69fa6a9a4208d17b691a46396a786ad8
:10164c0070f0bcf80346002b02d06ff0930300e05f
:10165c00bb6a18463037bd4680bd80b588b000af38
:10166c00f860b9607a60bb681b68bb6107f1140253
:10167c0007f118017b68f868fff722fff861fb6936
:10168c00002b01d0fb6907e0bb697a691344bb618d
:10169c00ba69bb681a60002318462037bd4680bd66
:1016ac0080b58cb002aff860b9607a603b60bb6803
:1016bc001b68fb617b6800221a6007f1200207f1ae
:1016cc001c013b6bf868fef744ff0346002b02da63
:1016dc006ff08b0333e007f11c013b6b00933b680d
:1016ec007a68f868fff756ff0346002b02da6ff0b2
:1016fc008f0324e0fb693a6b9a421cd9fb69bb61ee
:10170c0007f1170207f118013b6bf868fef76bfe47
:10171c000346002b0fd1fb7d052b0cd107f11c03cd
:10172c003a6b1946f868fef768ff78627b6a002b03
:10173c0001d07b6a03e0fa69bb681a600023184683
:10174c002837bd4680bd80b586b000aff860b96063
:10175c007a603b60bb68002b05d0fb68002b02d085
:10176c007b68002b02d16ff0ac037ce007f1100218
:10177c003b68b968f868fef7ecfe0346002b02da0a
:10178c006ff08b036fe007f114023b68b968f868df
:10179c00fff745f90346002b02da6ff08b0362e08a
:1017ac007b6803f58a53083301221a6078683b681a
:1017bc00ba68f968fff7b6f90346002b2bdb7b6898
:1017cc0003f50a703b68ba68f968fff7abf9034692
:1017dc00002b20db7b6803f58a603b68ba68f968ec
:1017ec00fff7a0f90346002b15db7b6803f5cf60f0
:1017fc003b68ba68f968fff795f90346002b0adbda
:10180c007b6803f50a603b68ba68f968fff78af9e8
:10181c000346002b02da6ff08e0324e07b6803f69c
:10182c00c8203b68ba68f968fff77cf90346002bbf
:10183c0015db7b6803f54f603b68ba68f968fff706
:10184c0071f90346002b0adb7b6803f618703b68c2
:10185c00ba68f968fff766f90346002b02da6ff0f5
:10186c008e0300e0002318461837bd4680bd80b5b6
:10187c008cb002aff860b9607a603b60fb68002bfb
:10188c0002d0bb68002b02d16ff0ac0365e0bb68e3
:10189c001b683b6207f1180207f120017b68f868ae
:1018ac00fef757fe0346002b02da6ff08b0354e071
:1018bc0007f11c0207f120017b68f868fff7aff80d
:1018cc000346002b02da6ff08b0346e007f1200190
:1018dc007b68009302233a68f868fff7e1fe034641
:1018ec00002b02da6ff08b0337e007f1170207f1d8
:1018fc0020017b68f868fef776fd0346002b02dac0
:10190c006ff08b0329e03b6a013b3b62fb7d062bae
:10191c000cd107f120037a681946f868fff79dfe91
:10192c000346002b02da6ff08b0316e007f1180266
:10193c0007f120017b68f868fef7e3fe78627b6aaa
:10194c00002b06da7b6a13f1840f02d16ff08b0344
:10195c0003e03a6abb681a60bb6918462837bd4673
:10196c0080bd80b586b000aff860b9607a6007f1d1
:10197c0014037a68b968f868fff779ff03461846cc
:10198c001837bd4680bd80b586b000aff860b96031
:10199c007a6000233b61fb68002b02d16ff0ac0333
:1019ac001ee007f110017b68ba68f868fff75fff6b
:1019bc0078617b69002b01da7b6911e07a693b69fc
:1019cc001344ba689a4202d26ff0830308e03b6971
:1019dc00fa6813447a691946f8686ff023fa7b6940
:1019ec0018461837bd4680bd80b584b000af78600e
:1019fc00396007f10c031a4639687868fff7c3ffa2
:101a0c00034618461037bd4680bd80b586b000af82
:101a1c00f860b9607a60fb68002b07d0bb68002bbc
:101a2c0004d0bb681b687a689a4202d26ff0ac0390
:101a3c0008e007f110037a68b968f868fff717ff38
:101a4c0078617b6918461837bd4680bd80b588b073
:101a5c0000aff860b9607a603b600023fb61002343
:101a6c00bb61fb68002b14d1bb68002b11d03b6809
:101a7c0003f12802bb681a60fb6a002b06d0bb6816
:101a8c001a683b6b13445a1dbb681a606ff0c9038c
:101a9c00b2e07b68002b05d0fb68002b02d0bb6842
:101aac00002b02d16ff0ac03a6e0fb6a002b0ad02e
:101abc00bb681a6839683b6b0b442d339a420dd2c4
:101acc006ff0830398e000233b63bb681a683b68a4
:101adc0028339a4202d26ff083038de0fb69053301
:101aec00fb61fa68fb69134400221946002004f0dc
:101afc00d0f903467b61ba697b691344bb61fa690f
:101b0c007b691344fb6100237b61fb6a002b0cd0c7
:101b1c003b6b002b09d007f110031946386b01f011
:101b2c001ffe78617b6901337b61fa68fb69d11810
:101b3c003a6b7b6913440222b86a01f033ff786177
:101b4c00ba697b691344bb61fa697b691344fb6115
:101b5c00fb6a002b23d03b6b002b20d0386bfa6830
:101b6c00fb6913441946fff7eafc03467b61fa69eb
:101b7c007b691344fb61ba697b691344bb61fa68e6
:101b8c00fb6913443a6bf96a18466ff051fffa6916
:101b9c003b6b1344fb61ba693b6b1344bb61fa6842
:101bac00fb6913441946386801f042fe7861fa6902
:101bbc007b691344fb61ba697b691344bb61fa68a6
:101bcc00fb6913443a68796818466ff031ffba69bb
:101bdc003b681344bb61f968b86901f00dfe78618c
:101bec00fa687b69d018fb680533ba6919466ff03f
:101bfc0019f9ba697b69134418462037bd4680bd74
:101c0c0090b5adf50d5d8db002af07f128041c3c0d
:101c1c00206007f128002038016007f128012439e1
:101c2c000a6007f12802283a136007f128031c3bcd
:101c3c001b68002b05d007f12803243b1b68002be5
:101c4c0002d16ff0ac03b0e107f50d5303f138038b
:101c5c001b8840f28522934240f0c180002307f597
:101c6c000d5202f12002136007f12803183b0021ea
:101c7c00184645f0f1fa07f50d5303f124031860eb
:101c8c0007f50d5303f124031b68002b05da07f548
:101c9c000d5303f124031b6887e107f58e5303f101
:101cac000803143b0021184645f0d6fa07f50d53ee
:101cbc0003f12403186007f50d5303f124031b688b
:101ccc00002b0bda07f12803183b184645f05afb9a
:101cdc0007f50d5303f124031b6866e107f1280394
:101cec00203b07f12802183a07f50d5101f12001ac
:101cfc0007f128001c381b680068fff724fd07f566
:101d0c000d5303f12403186007f50d5303f124035d
:101d1c001b68002b54d1002307f50d5202f1200251
:101d2c00136007f12803283b07f58e5202f10802d5
:101d3c00143a07f50d5101f1200107f12800243860
:101d4c001b68006800f036fa07f50d5303f1240305
:101d5c00186007f50d5303f124031b68002b2fd1da
:101d6c0007f58e5202f10802143a07f12803183bca
:101d7c00114618460af0e3fc0346002b12d107f576
:101d8c008e5303f10803143b03f50a7207f1280381
:101d9c00183b03f50a73114618460af0d0fc0346ab
:101dac00002b07d06ff0770307f50d5202f12402d8
:101dbc00136005e0012307f50d5202f124021360b4
:101dcc0007f58e5303f10803143b184645f0dafa75
:101ddc0007f12803183b184645f0d4fae0e007f564
:101dec000d5303f138031b8840f20622934240f056
:101dfc00d180422307f50d5202f11c02136000231f
:101e0c0007f50d5202f11802136007f58e5303f11a
:101e1c000803143b18461af0cefa07f50d5303f1dc
:101e2c002403186007f50d5303f124031b68002be2
:101e3c0005da07f50d5303f124031b68b5e007f130
:101e4c002803203b07f58e5202f10802143a07f5dd
:101e5c000d5101f1180107f128001c381b680068ae
:101e6c0004f0f8ff07f50d5303f12403186007f590
:101e7c000d5303f124031b68002b40f0828007f5ff
:101e8c000d5202f11c0207f12801183907f58e5387
:101e9c0003f10803143b18461cf0b6fc07f50d5370
:101eac0003f12403186007f50d5303f124031b6899
:101ebc00002b66d107f58e5303f10803143b18462b
:101ecc001af048fe07f58e5303f10803143b18462d
:101edc001af071fa07f50d5303f12403186007f596
:101eec000d5303f124031b68002b1dd107f50d5373
:101efc0003f11c031c6807f12803283b07f1280297
:101f0c00243a07f12800183807f58e5101f1080121
:101f1c00143900911b68126821461cf025fd07f549
:101f2c000d5303f12403186007f50d5303f124033b
:101f3c001b68002b19d107f58e5303f10803143bd2
:101f4c0018461cf00bfa07f50d5303f12403186027
:101f5c0007f50d5303f124031b68002b05d1012356
:101f6c0007f50d5202f12402136007f50d5303f12e
:101f7c001c031a6807f12803183b11461846fef794
:101f8c007ff907f58e5303f10803143b18461af03a
:101f9c00e1fd05e0002307f50d5202f12402136068
:101fac0007f50d5303f124031b68184607f50d576d
:101fbc002c37bd4690bd80b586b002aff860b960d5
:101fcc007a60fb68002b02d07b68002b02d16ff08b
:101fdc00ac030de07b681a687b6859687b68db6929
:101fec009bb200930b46b968f868fff709fe0346ed
:101ffc0018461037bd4680bd80b58ab002aff86078
:10200c00b9607a603b600023fb610023bb61fb6815
:10201c00002b02d0bb68002b02d16ff0ac03c5e0e3
:10202c0007f118027b68b968f868fef792fa034664
:10203c00002b02da6ff08b03b8e0bb681b687b6186
:10204c0007f1130207f114017b68f868fef7cbf96e
:10205c000346002b02da6ff08303a7e0fb7c022b14
:10206c005bd007f118027b68b968f868fef771fa63
:10207c000346002b02da6ff08b0397e07a68b9689d
:10208c00f868fff7eafa0346002b02da6ff08b03cd
:10209c008ce0bb681b687a689a4202d86ff08303a5
:1020ac0084e0bb681b687b6107f1130207f1140124
:1020bc007b68f868fef797f90346002b02da6ff09d
:1020cc008b0373e0fb7c052b0ad17a68b968f8683e
:1020dc00fef793faf861fb69002b01d0fb6965e010
:1020ec0000230193012300937b680022b968f868f0
:1020fc00fef754fdf861fb69002b01d0fb6955e03c
:10210c0007f118027b68b968f868fef722fa0346f3
:10211c00002b02da6ff08b0348e007f118027b68a2
:10212c00b968f868fef701fbf861fb69002b02da6d
:10213c006ff08e033ae0bb6a002b03d0bb691a46e2
:10214c00bb6a1a603b68002b05d0bb681b68fa6839
:10215c001a443b681a60bb681b68ba691a44bb68ae
:10216c001a6007f118027b68b968f868fef7ddfaa7
:10217c00f861fb69002b02da6ff08e0316e03b6b03
:10218c00002b03d0bb691a463b6b1a60fb6a002b11
:10219c0005d0bb681b68fa681a44fb6a1a60bb68f6
:1021ac001b68ba691a44bb681a60fb691846203769
:1021bc00bd4680bd90b58fb004aff860b9607a6051
:1021cc003b6000233b620023fb610023bb610023c7
:1021dc007b617b68002b02d16ff0ac031fe007f131
:1021ec00200207f11403029307f11c03019307f17a
:1021fc001803009313463a68b968f868fff7fcfeb9
:10220c0078627b6a002b09d1386ab969fa697c69f2
:10221c007b680093234600f006f878627b6a1846c8
:10222c002c37bd4690bd80b584b000aff860b96066
:10223c007a603b60fb68002b05d07b68002b02d0da
:10224c00bb69002b02d16ff0ac0348e0bb6903f50e
:10225c008a53083300221a60bb6918460af0a1f8a9
:10226c000346002b02d06ff06d0338e0bb69ba68ef
:10227c00f96818460af0b9fa0346002b06d0bb6978
:10228c0018460af00ef96ff08d0328e0bb6903f5d0
:10229c000a7318460af085f80346002b06d0bb6972
:1022ac0018460af0fef86ff06d0318e0bb6903f5f1
:1022bc000a733a68796818460af097fa0346002bb5
:1022cc000cd0bb6918460af0ecf8bb6903f50a732d
:1022dc0018460af0e6f86ff08d0300e0002318466c
:1022ec001037bd4680bd80b584b000aff860b960d2
:1022fc007a603b60fb68002b2ad04ff453720021ac
:10230c00f8686ff0acfcfb680c2283f86c20fb685f
:10231c00002283f86d20fb68002283f86d21fb6896
:10232c00ba68c3f87422fb687a68c3f87c22fb682d
:10233c003a68c3f88022fb687f2283f8ed22fb68a1
:10234c0003f545736ff001023968184601f042fc41
:10235c0000bf1037bd4680bd80b586b000af786039
:10236c00396015e07b681b687b617b68db683b61cf
:10237c003b69002b02d038696cf078fd7b68fb6000
:10238c00fb68002b02d0f8686cf070fd7b697b60f9
:10239c007b68002be6d100bf1837bd4680bd80b5e9
:1023ac0086b000af7860396015e07b681b687b6194
:1023bc007b685b683b613b69002b02d038696cf031
:1023cc0055fd7b68fb60fb68002b02d0f8686cf055
:1023dc004dfd7b697b607b68002be6d100bf183715
:1023ec00bd4680bd80b584b000af78607b68002ba3
:1023fc006dd07b6893f8483303f00103dbb2002bfc
:10240c0008d07b685b6efb60fb68002b02d0f86821
:10241c006cf02cfd7b689b68012b08d17b681b68da
:10242c00bb60bb68002b02d0b8686cf01ffd7b68ea
:10243c0093f8483303f04003dbb2002b0cd07b68dd
:10244c005b6a002b08d07b685a6a7b68d3f88032b1
:10245c0019461046fff780ff7b689b6a002b08d05b
:10246c007b689a6a7b68d3f8803219461046fff76e
:10247c0073ff7b68db6a002b08d07b68da6a7b68a9
:10248c00d3f8803219461046fff766ff7b681b6b4a
:10249c00002b08d07b681a6b7b68d3f88032194606
:1024ac001046fff77cff7b685b6b002b08d07b68ca
:1024bc005a6b7b68d3f8803219461046fff76fffd2
:1024cc007b6803f54573184601f09cfb00e000bfe8
:1024dc001037bd4680bd90b587b002af7860002341
:1024ec00fb607b68d3f874027b6803f51e717b6814
:1024fc00d3f87c3207f10802fef72bf80346002bc9
:10250c0002da6ff08b035ce07b68d3f87832ba6840
:10251c001a447b68c3f87c227b68d3f878227b68ea
:10252c00da607b68d3f874027b6803f51e717b68f4
:10253c00d3f87c3207f10802fef70bf80346002ba8
:10254c0002da6ff08b033ce07b68d3f87832ba6820
:10255c001a447b681a617b681a697b68d3f87c32f1
:10256c009a4202d96ff08b032be07b68d3f874028c
:10257c007b6803f51e717b6803f120027b681b6985
:10258c00fef790fa0346002b02da6ff08b0318e08b
:10259c007b68d3f874027b6803f51e717b6803f5c6
:1025ac0021727b6803f529747b681b6900932346b1
:1025bc0003f016fd0346002b02da6ff08b0300e0ec
:1025cc00fb6818461437bd4690bd80b584b000af8b
:1025dc00786039607b68d3f87832fb607b68d3f81d
:1025ec0074027b6803f51e7107f108023b68fdf766
:1025fc00b0ff0346002b02da6ff08b032de07b68f3
:10260c00d3f87822fb68d31afb60bb681a46fb68c8
:10261c001344bb6006e07b68d3f878325a1e7b68a3
:10262c00c3f87822fb685a1efa60002bf3d1bb6802
:10263c001a467b685a607b68d3f874227b68d3f89f
:10264c0078321a447b681a607b68d3f87832ba689f
:10265c001a447b68c3f87822002318461037bd460d
:10266c0080bd80b584b000af78600023fb60002390
:10267c00bb6007f108031a46002178681cf033fc94
:10268c00f860fb68002b02dbbb68002b02d16ff0fb
:10269c008403fb60fb6818461037bd4680bd90b5bf
:1026ac008fb002af78607b68d3f87832fb627b68be
:1026bc00d3f874027b6803f51e717b68d3f87c3207
:1026cc0007f11802fdf745ff0346002b02da6ff005
:1026dc008b03cde07b68d3f874027b6803f51e7125
:1026ec007b6803f11c027b68d3f87c3200930223d5
:1026fc00fef7d6ff0346002b02da6ff08b03b7e030
:10270c007b68db6940f20622934227d040f2852297
:10271c00934240f0ab807b68d3f874027b6803f57e
:10272c001e717b68d3f87c4207f1180200230193d9
:10273c00012300932346fef731fab862bb6a002be3
:10274c0001d0bb6a94e07b68d3f87832ba69134441
:10275c0019467868fff739ff034689e0bb691a46ca
:10276c0007f110031946104600f0faff0246bb6948
:10277c00134401337b627b68d3f87832fb607b684f
:10278c00d3f874027b68d3f87c3207f10b0207f1a3
:10279c000c01fdf728fe0346002b02da6ff08b03c9
:1027ac0066e0fb7a302b39d07b68d3f874027b68f7
:1027bc0003f51e717b6803f53d727b68d3f87c32a0
:1027cc0000930323fef7e6fe0346002b02da6ff0bc
:1027dc008b034de07b68d3f8f4321846fff741ffca
:1027ec000346002b02da6ff0ab0341e07b68d3f8b1
:1027fc0074027b6803f51e717b68d3f87c4207f189
:10280c00180200230193012300932346fef7c6f917
:10281c0038623b6a002b01d03b6a29e07b6a184680
:10282c006bf02cf90346fb61fb69002b02d16ff0b6
:10283c007c031de07b68d3f87422fb6a13447a6a2c
:10284c001946f8696ff0f4f87b68fa691a607b68ce
:10285c0001229a607a6a7b685a60fa6a7b6a13442e
:10286c001a467b68c3f87822002301e06ff09303cb
:10287c0018463437bd4690bd80b586b000aff860c1
:10288c00b9607a607a68b968f8685ef032f9786194
:10289c007b6918461837bd4680bdb0b598b002affd
:1028ac00f860b9607a6000237b62bb68002b06d1ac
:1028bc00fb686d337b65fb684c333b6506e0fb685e
:1028cc0003f26d137b65fb6838333b65fb68d3f80b
:1028dc0078227b689a4202d36ff0830352e2fb6842
:1028ec00d3f878327b62fb68d3f874027b6807f10b
:1028fc00230207f12401fdf776fd0346002b02dad3
:10290c006ff08b033ee297f82330062b0fd1fb6858
:10291c00d3f87402fb6803f51e737a681946fef748
:10292c009cfe0346002b02da6ff08b032ae2fb6855
:10293c00d3f87832fb64fb68d3f87402fb6803f5b8
:10294c001e717b6807f12c02fdf703fe0346002b7a
:10295c0002da6ff08b0315e2fb68d3f87422fb6c80
:10296c00d018fb68d3f87832fa6a1a44fb6cd31a85
:10297c003a6d1946fff780ffb863bb6b002b01d093
:10298c00bb6bffe1fb68d3f87832fa6a1344fb6245
:10299c000023fb64bb68012b40f0e581fb68d3f896
:1029ac007422fb68d3f878321a44fb68c3f8082306
:1029bc00fb6a1a46fb68d3f87832d31a1a46fb68be
:1029cc00c3f80c23cfe1002387f82230002387f8cb
:1029dc004b3000237b6400233b6400237b6100238a
:1029ec0087f83f30fb68d3f87402fb6803f51e715f
:1029fc007b6807f12802fdf7d6fdfb68d3f874025b
:102a0c00fb6803f51e717b6807f12802fdf7a1fd39
:102a1c000346002b02dc6ff08b03b3e1fb68d3f8a9
:102a2c007402fb6803f51e717b6807f11802fef750
:102a3c0047fdb863bb6b002b01d0bb6ba2e1fb68fd
:102a4c00d3f87832da1c7b689a4202d96ff08b0388
:102a5c0098e1fb68d3f87422fb68d3f878321a44f7
:102a6c0007f11c031188927819809a703b7f552bc3
:102a7c0040f082807b7f042b7ed1fb68d3f87832c8
:102a8c00da1cfb68c3f87822bb7f87f83f30fb6801
:102a9c00d3f87402fb6803f51e747b6807f1140508
:102aac0007f122010122019200932b462246fdf7e9
:102abc001bfd0346002b02da6ff08b0362e197f8e3
:102acc003f30032b18d1bb68012b10d1fb68d3f816
:102adc007422fb68d3f878321a44fb685a667a6918
:102aec00fb689a6697f82220fb6883f86c20a74b4a
:102afc007b6404233b64fae097f83f30042b04d149
:102b0c00a34b7b6404233b64f1e097f83f30062b26
:102b1c0004d1a04b7b6403233b64e8e097f83f307f
:102b2c00072b04d19c4b7b6403233b64dfe097f8b9
:102b3c003f30082b04d1994b7b6404233b64d6e0d3
:102b4c0097f83f300a2b04d1954b7b6403233b64ed
:102b5c00cde097f83f300b2b04d1924b7b640423d0
:102b6c003b64c4e097f83f30052b40f0c0808e4b9f
:102b7c007b640e233b64bae0002387f83e300023cd
:102b8c0087f83d303b7f2a2b08d17b7f862b05d1e4
:102b9c00982387f83f30012387f83e303b7f092b81
:102bac0012d17b7f922b0fd1fb68d3f87422fb6878
:102bbc00d3f87832b9690b44013b13441b7887f87e
:102bcc003f30012387f83d30fb68d3f87832ba697f
:102bdc0013445a1cfb68c3f87822fb68d3f87402c0
:102bec00fb6803f51e717b6807f11402fdf77dfb92
:102bfc000346002b02da6ff08b03c3e0fb6cc3f5ca
:102c0c0080731a467b699a4202da012387f84b30ab
:102c1c0097f83e30002b52d00e233b647a693b6c04
:102c2c001344fa6cc2f58072934203dd012387f8da
:102c3c004b3001e05d4b7b6410206af01fff0346b4
:102c4c007b637b6b002b02d16ff07c039ae07b6b78
:102c5c0000225a607b69013318466af00fff034665
:102c6c001a467b6bda607b6bdb68002b0ad17b6bc3
:102c7c003b633b6b002b02d0386b6cf0f7f86ff0ba
:102c8c007c037fe07a697b6b9a607b6bd868fb680e
:102c9c00d3f87422fb68d3f8783213447a69194656
:102cac006ef0c6fe7b6bdb687a69134400221a70e7
:102cbc00fb689a6a7b6b1a60fb687a6b9a6297f86e
:102ccc003d30002b15d097f83f30012b02d0192b3b
:102cdc0005d009e0364b7b6405233b640ae0354b99
:102cec007b6404233b6405e06ff08b034ae000bf78
:102cfc0000e000bf7a693b6c1344fa6cc2f5807239
:102d0c00934202dd012387f84b307b6c002b22d0e1
:102d1c0097f84b30002b1ed17a6dfb6c13443a6c38
:102d2c00796c18466ef084fe3b6cfa6c1344fb64b1
:102d3c007a6dfb6cd018fb68d3f87422fb68d3f85f
:102d4c00783213447a6919466ef072fe7b691a4622
:102d5c00fb6c1344fb64fb68d3f878327a691a4431
:102d6c00fb68c3f87822fb68d3f87832fa6a93428e
:102d7c00fff429aefb6c5a1cfa647a6d13440022e2
:102d8c001a70002318465837bd46b0bdc45e060005
:102d9c00cc5e0600d45e0600d85e0600dc5e060043
:102dac00e45e0600e85e0600f05e0600005f0600ca
:102dbc00105f0600185f060080b586b000aff860a3
:102dcc00b9607a607b681b687b617b69ba68134465
:102ddc001b782f2b13d97b69ba6813441b78392bba
:102dec000dd87b690133ba6813441b782f2b06d995
:102dfc007b690133ba6813441b78392b02d96ff005
:102e0c008b032ae07b695a1c7a611a46bb6813440f
:102e1c001b781846fdf75cfa024613469b001344d8
:102e2c005b001a46fb681b6813441a46fb681a6061
:102e3c007b695a1c7a611a46bb6813441b78184686
:102e4c00fdf746fa0246fb681b6813441a46fb68fa
:102e5c001a607b687a691a60002318461837bd46d9
:102e6c0080bd80b584b000aff8607a603b600b46e3
:102e7c00fb722c22002178686ef0f1fefb7a172b86
:102e8c0015d13b681b681a46fb6813441b7818461f
:102e9c00fdf71efa0346042b04d97b6840f26c72d2
:102eac005a6117e07b684ff4fa625a6112e07b6852
:102ebc0014333a68f9681846fff77eff0346002b77
:102ecc0001d0002359e07b685b69642202fb03f2aa
:102edc007b685a617b6814333a68f9681846fff7c7
:102eec006bff0346002b01d0002346e07b685b6937
:102efc00a3f26c727b685a617b6810333a68f9688c
:102f0c001846fff759ff0346002b01d0002334e08d
:102f1c007b681b695a1e7b681a617b680c333a68a4
:102f2c00f9681846fff748ff0346002b01d0002331
:102f3c0023e07b6808333a68f9681846fff73cffd2
:102f4c000346002b01d0002317e07b6804333a685a
:102f5c00f9681846fff730ff0346002b01d0002319
:102f6c000be07b683a68f9681846fff725ff0346c3
:102f7c00002b01d0002300e0012318461037bd467a
:102f8c0080bd80b483b000af786039607b685a69cb
:102f9c003b685b699a4201dd012382e07b685a69d8
:102fac003b685b699a4207d17b681a693b681b696d
:102fbc009a4201dd012374e07b685a693b685b69c6
:102fcc009a420dd17b681a693b681b699a4207d1fa
:102fdc007b68da683b68db689a4201dd012360e0bc
:102fec007b685a693b685b699a4213d17b681a69a2
:102ffc003b681b699a420dd17b68da683b68db68d9
:10300c009a4207d17b689a683b689b689a4201ddbb
:10301c00012346e07b685a693b685b699a4219d187
:10302c007b681a693b681b699a4213d17b68da6822
:10303c003b68db689a420dd17b689a683b689b6859
:10304c009a4207d17b685a683b685b689a4201ddfb
:10305c00012326e07b685a693b685b699a421fd161
:10306c007b681a693b681b699a4219d17b68da68dc
:10307c003b68db689a4213d17b689a683b689b6813
:10308c009a420dd17b685a683b685b689a4207d1bb
:10309c007b681a683b681b689a4201dd012300e0db
:1030ac00002318460c37bd465df8047b704780b58d
:1030bc0082b000af7860396079683868fff761ffdb
:1030cc00034618460837bd4680bd80b598b000afa2
:1030dc00f8600b467a60fb720023fb610023fb65f2
:1030ec000023bb6100237b610023bb6500237b6550
:1030fc0000206ef0a8fc0346fb6407f11c0307f1eb
:10310c002002f97af868fff7acfe0346002b01d1d8
:10311c00002378e0fb691a46fb6813441b782b2bc1
:10312c0006d0fb691a46fb6813441b782d2b38d14b
:10313c00fb695a1cfa611a46fb6813441b782b2b4b
:10314c0001d1012301e04ff0ff33bb6507f11c02f5
:10315c0007f11803f9681846fff72efe0346002bfb
:10316c0001d000234fe007f11c0207f11403f968aa
:10317c001846fff721fe0346002b01d0002342e046
:10318c00ba6913461b019b1a9b001a467b691344b0
:10319c00ba6d02fb03f213461b019b1a9b00fb65e5
:1031ac0008e0fb691a46fb6813441b785a2b01d0c4
:1031bc00002328e0fa6cfb6dd31afb6407f14c0377
:1031cc0018466ef0ebfd38653b6d002b01d10023ea
:1031dc0019e07b68002b0ad107f120031946386de2
:1031ec00fff765ff0346002b0cd000230be007f123
:1031fc0020031946386dfff7c4fe0346002b01d09f
:10320c00002300e0012318466037bd4680bd80b521
:10321c0084b000af786039607b68fb607b68002b02
:10322c0002d16ff0ac030ce03b68032b02d86ff0bb
:10323c00830306e000206ef006fc0246fb681a6071
:10324c00002318461037bd4680bd80b586b000af50
:10325c00f860b9607a603b60fb68002b02d0bb68f9
:10326c00002b02d16ff0ac034ee0bb681b6801333e
:10327c007a6a9a4202d26ff0830345e0bb681b68fe
:10328c00fa6813441b78fb75bb681b685a1cbb6837
:10329c001a60fb7d172b05d0fb7d182b02d06ff02d
:1032ac00980331e007f110027b6ab968f868fdf702
:1032bc001cf80346002b02da6ff08b0324e03b6909
:1032cc00202b02dc3b690b2b02dc6ff094031be020
:1032dc003b68002b02d03b68fa7d1a707b68002b90
:1032ec0005d0bb681b68fa681a447b681a603b6a95
:1032fc00002b02d03a693b6a1a60bb681b683a69ba
:10330c001a44bb681a60002318461837bd4680bda6
:10331c0090b595b002aff860b9607a603b6000235d
:10332c00bb6300237b64bb68002b0ad1fb68d3f81a
:10333c007422fb68d3f878321a44fb68c3f8f8227d
:10334c0009e0fb68d3f87422fb68d3f878321a448e
:10335c00fb68c3f80023fb68d3f878327b64fb6806
:10336c00d3f87402fb6803f51e713b6807f1170470
:10337c0007f13802019307f13c0300932346fff752
:10338c0064ff38643b6c002b01da3b6c3ee007f1c8
:10339c0018032022002118466ef061fcb96bfb6b00
:1033ac001a4607f1180318466ef042fbbb68002b57
:1033bc0009d1fb68d3f878227b6cd31a1a46fb68c8
:1033cc00c3f8fc2208e0fb68d3f878227b6cd31a94
:1033dc001a46fb68c3f804237b68002b15d07b6866
:1033ec00052b12d0f97d07f11803ba681846fff7c0
:1033fc006cfe0346002b08d1bb68002b02d16ff08a
:10340c00950303e06ff0960300e0002318464c3759
:10341c00bd4690bd80b586b000aff860b9607a60eb
:10342c0000237b61fb68d3f87402fb6803f51e7103
:10343c007b6807f11002fdf78cf80346002b02dacb
:10344c006ff08b0323e0fb68d3f878323a691344ae
:10345c007b607b68ba680021f868fff759ff034668
:10346c00002b02da6ff095037b617b68ba6801214f
:10347c00f868fff74dff0346002b02da6ff0960356
:10348c0005e07b69002b01d07b6900e00023184626
:10349c001837bd4680bd80b588b002aff860b96002
:1034ac007a603b6000233b61bb6807f1100101931c
:1034bc003b6a00933b687a68f868fff7c6fe786150
:1034cc007b69002b01da7b6900e000231846183772
:1034dc00bd4680bd80b586b000aff860b9603b607a
:1034ec001346fb7100237b6107f11403f9793a68e9
:1034fc00f868fff7b6fc0346002b02d16ff0980377
:10350c0000e0002318461837bd4680bd80b588b052
:10351c0002aff860b9607a60fb68002b02d07b6860
:10352c00002b02d16ff0ac0349e07b6800221a60db
:10353c00f868fef7d0ff78617b69002b01da7b69b4
:10354c003de0fb68d3f87402fb6803f51e71fb6861
:10355c0003f11802fb681b6900930123fef7a0f826
:10356c0078617b69002b01da7b6928e0fb681b69b9
:10357c001a460021f868fff790f978617b69002bf7
:10358c0001da7b691be0fb681b691a46b968f868ad
:10359c00fff740ff78617b69002b02da7b687a6960
:1035ac001a60fb681b691a460121f868fff775f968
:1035bc0078617b69002b01da7b6900e07b69184636
:1035cc001837bd4680bd80b584b000af78603960d7
:1035dc000023bb6007f108031a4639687868fff7c7
:1035ec0095fff860fb68002b01dafb6824e07b6830
:1035fc0003f14c007b683833142219466ef0def868
:10360c000346002b0cbf01230023d9b27a6892f831
:10361c00493361f3861382f849337868fff73ff832
:10362c00f860fb68002b01dafb6805e0bb68002b37
:10363c0001d0bb6800e0fb6818461037bd4680bd62
:10364c0090b587b002af78607b68d3f874027b6862
:10365c0003f51e717b68d3f87c4207f10802002346
:10366c000193012300932346fdf798faf860fb6859
:10367c00002b01d0fb6821e0bb681a467b685a61bd
:10368c007b68d3f874227b68d3f878321a447b6851
:10369c001a667b68d3f878227b685b691a447b686e
:1036ac00c3f878227b68d3f878227b68d3f87c3215
:1036bc009a4202d06ff08b0300e0002318461437b7
:1036cc00bd4690bd80b483b000af786039603b6874
:1036dc0004221a703b6801337a68d2b21a70022342
:1036ec0018460c37bd465df8047b704780b586b034
:1036fc0000aff860b9607a607968b868fff7e2ffec
:10370c0078617a687b691344ba68f96818466ef078
:10371c008ff97a69bb68134418461837bd4680bdcb
:10372c0080b485b000af78600423fb600ce0fb68cc
:10373c0003f10053013bdb007a6822fa03f3002b00
:10374c0006d1fb68013bfb60fb68002befd100e06e
:10375c0000bffb6818461437bd465df8047b704704
:10376c0080b584b000af786039600023fb607b6863
:10377c007f2b0cd83b68002b05d03a68fb681344b0
:10378c007a68d2b21a70fb680133fb602fe03b6899
:10379c00002b0bd07868fff7c3ff0346dab2396809
:1037ac00fb680b4462f07f02d2b21a70fb680133e3
:1037bc00fb607868fff7b4ffb86015e03b68002b3e
:1037cc000cd0bb6803f10053013bdb007a6822fa92
:1037dc0003f13a68fb681344cab21a70fb680133f0
:1037ec00fb60bb68013bbb60bb68002be6d1fb6890
:1037fc0018461037bd4680bd80b582b000af7860ea
:10380c0039603b68002b02d03b6830221a703b6851
:10381c00002b02d03b68013300e000231946786886
:10382c00fff79eff0346013318460837bd4680bd9f
:10383c0080b582b000af786039603b6804221a70a2
:10384c003b68013319467868fff78aff034601335a
:10385c0018460837bd4680bd80b582b000af786091
:10386c0039603b6831221a703b680133194678681d
:10387c00fff776ff0346013318460837bd4680bd77
:10388c0080b584b000afba607b600346fb730b4617
:10389c00bb73fb7b102b02d0fb7b112b02d16ff087
:1038ac005f0201e06ff07f0297f90e3013435bb2b9
:1038bc00dab27b681a707b6801331946b868fff777
:1038cc004fff0346013318461037bd4680bd80b507
:1038dc0084b000af0346b9607a60fb73fb7b63f086
:1038ec005f03dab27b681a707b6801331946b868db
:1038fc00fff736ff0346013318461037bd4680bd2f
:10390c0080b584b000af786039600023fb60002381
:10391c00bb607b68002b03d07b681b69002b02d13a
:10392c006ff0ac031be07b681b699b6abb60bb68d8
:10393c0039681846fdf703fe0246fb681344fb602a
:10394c00fb683a68d0187b681b695b6aba681946d1
:10395c006ef06ef8fa68bb681344fb60fb6818469f
:10396c001037bd4680bd80b483b000af78607b68f3
:10397c00b3f5027f0dd07b68b3f5037f09d07b686c
:10398c0040f20d22934204d07b6840f20e22934207
:10399c0001d1012300e0002318460c37bd465df829
:1039ac00047b704780b58eb000aff860b9607a6068
:1039bc003b6000233b6200233b6300237b637b68fb
:1039cc00002b10d07b68012b05d1f868fff7cbffdb
:1039dc000346002b07d07b68022b06d1fb6840f214
:1039ec008522934201d1022300e00023fb62fb6895
:1039fc00796807f120021846fdf783f938633b6bb1
:103a0c00002b01d100237be03b6a1a4607f1180317
:103a1c0019461046fdf793fd0346bb623a6abb6a32
:103a2c001a44fb6a1a443b68134407f1100211460e
:103a3c001846fff7e1fe7862fb6840f203229342de
:103a4c001fd1bb68002b1cd007f11803ba6a1946aa
:103a5c00b8686df0edffba68bb6a13443a6a396b0b
:103a6c0018466df0e5fffb6a022b34d17a6abb6a0b
:103a7c001a443b6a1344ba6813441846fcf7f0fd29
:103a8c0029e0bb68002b26d007f110037a6a19468f
:103a9c00b8686df0cdffba687b6a134407f1180162
:103aac00ba6a18466df0c4ff7a6abb6a1344ba68e6
:103abc0013443a6a396b18466df0bafffb6a022b55
:103acc0009d17a6abb6a1a443b6a1344ba68134434
:103adc001846fcf7c5fdfb6840f20322934206d161
:103aec003a6abb6a1a44fb6a13447b6307e07a6a3e
:103afc00bb6a1a443b6a1a44fb6a13447b637b6bb4
:103b0c0018463837bd4680bd80b5a2b000aff8600e
:103b1c00b9607a603b6007f130031a467968b8687f
:103b2c00fff7e4fdc7f8840007f11c010023002215
:103b3c003868fff737ffc7f88000d7f88420d7f82c
:103b4c008030134407f1140211461846fff754fe57
:103b5c00f86707f11403fa6f1946f8686df068ffff
:103b6c00fa68fb6f134407f11c01d7f88020184644
:103b7c006df05efffa6fd7f880301344fa68134487
:103b8c0007f13001d7f8842018466df051ffd7f8b3
:103b9c008420d7f880301a44fb6f134418468837ba
:103bac00bd4680bd80b584b000af786078685cf0ad
:103bbc00c7fb0346fb72fb7a18465cf0d6fbf86039
:103bcc00fb68002b01da0023fb60fb6818461037fa
:103bdc00bd4680bd80b584b000aff860b9607a6036
:103bec00fb68002b0ad02c220021f8686ef037f805
:103bfc00fb687a689a61fb68ba681a6000bf103774
:103c0c00bd4680bd80b586b000af78607b68002b68
:103c1c0057d07b685b68002b0bd07b685b687b6143
:103c2c007b69002b02d078696bf020f97b6800224d
:103c3c005a607b68db68002b0bd07b68db683b61d0
:103c4c003b69002b02d038696bf010f97b680022bd
:103c5c00da607b685b69002b2fd07b689b6a40f233
:103c6c000622934212d040f2852293421dd17b68ea
:103c7c005b69184643f086fb7b685b69fb60fb68fd
:103c8c00002b14d0f8686bf0f1f810e07b685b69de
:103c9c00184618f05fff7b685b69bb60bb68002b44
:103cac0007d0b8686bf0e2f803e000bf02e000bf99
:103cbc0000e000bf7b6800225a617b680022da6159
:103ccc0000e000bf1837bd4680bd80b586b000afa0
:103cdc00f860b9607a603b6000237b617b68b3f568
:103cec00037f68d07b68b3f5037f18d87b6840f2fc
:103cfc00052293423ed07b6840f20522934204d8c1
:103d0c007b68b3f5d07f56d066e07b68b3f5027f55
:103d1c0030d07b6840f20b2293423bd05ce07b6856
:103d2c0040f28922934225d07b6840f2892293424b
:103d3c0004d87b68b3f5227f0bd04de07b6840f252
:103d4c008f22934237d07b6840f29222934221d04b
:103d5c0042e03a68b968f8685cf0a0fe78617b696b
:103d6c00002b3dd13b6a40f289221a607b6a1022fb
:103d7c001a6035e03a68b968f8685cf0bafe7861a8
:103d8c007b69002b2ed13b6a58221a607b6a142265
:103d9c001a6027e03a68b968f8685cf0f0fe786160
:103dac007b69002b20d13b6a40f2a1121a607b6a1e
:103dbc001c221a6018e03a68b968f8685cf013ffc6
:103dcc0078617b69002b11d13b6a4ff4cf721a607a
:103ddc007b6a20221a6009e06ff0e7037b6106e042
:103dec0000bf04e000bf02e000bf00e000bf7b6941
:103dfc0018461837bd4680bdb0b5adf50e7d04af85
:103e0c0007f10c04206007f108000160391d0a60fd
:103e1c003a4613600023c7f8243207f10c031b68e1
:103e2c00002b18d007f108031b68002b13d03b1d87
:103e3c001b68002b0fd03b461b68002b0bd0d7f810
:103e4c003832002b07d0d7f84032002b03d0d7f8ec
:103e5c004432002b02d16ff0ac03dde107f10c030f
:103e6c001b68db69042b00f2d08101a252f823f00d
:103e7c00913e0000cf3e00001b3f0000b940000007
:103e8c005341000007f10c031b68d7f83c229a62df
:103e9c00202069f0f3fd03461a4607f10c031b685a
:103eac005a6007f10c031b685b68002b04d16ff0a0
:103ebc007c03c7f82432a8e107f10c031b6801222c
:103ecc00da6107f10c031b685d6807f10c031b68d2
:103edc00203307f10c0212682432391d07f1080057
:103eec0001240294019200932b46d7f848220968ca
:103efc000068fff7eafec7f82402d7f82432002b3b
:103f0c0040f07a8107f10c031b680222da61d7f8c2
:103f1c003c3240f20622934272d0d7f83c3240f247
:103f2c008522934240f0b2800023c7f8183241f248
:103f3c00a41069f0a3fd03461a4607f10c031b6895
:103f4c005a614ff4007069f099fd03461a4607f167
:103f5c000c031b68da6007f10c031b685b69002b10
:103f6c0005d007f10c031b68db68002b04d16ff044
:103f7c007c03c7f8243248e107f10c031b6858692d
:103f8c0007f10c031b68196807f10c031b689b698c
:103f9c001a4643f0e5f8c7f82402d7f82432002b70
:103fac0040f02c81d7f84432b3f5007f04d96ff080
:103fbc008303c7f8243228e107f10c031b685a6904
:103fcc0007f506713846d7f838320068fef7f2f874
:103fdc00c7f82402d7f82432002b40f0118107f1e6
:103fec000c031b68db68d7f84422d7f8401218463c
:103ffc006df01efd07f10c031b6800229a604be06c
:10400c000023c7f8143207f10c031b6800221a6155
:10401c0040f6041069f032fd03461a4607f10c0312
:10402c001b685a6107f10c031b685b69002b04d1f8
:10403c006ff07c03c7f82432e7e007f10c031b6830
:10404c00586907f10c031b68196807f10c031b680e
:10405c009b691a4618f072f9c7f82402d7f8243273
:10406c00002bc0f2cf8007f10c031b685a6907f5cf
:10407c0005713846d7f83832006803f04bf8c7f8aa
:10408c002402d7f82432002b05dabee06ff093033c
:10409c00c7f8243200e000bfd7f82432002b40f0e0
:1040ac00b38007f10c031b680322da61d7f83c32aa
:1040bc0040f20622934219d0d7f83c3240f28522c6
:1040cc00934231d107f10c031b68d86807f10c033c
:1040dc001b6803f1080207f10c031b685b69d7f836
:1040ec00441244f063fcc7f824021ee007f10c03f1
:1040fc001b68596807f10c031b685b6a184607f1cb
:10410c000c031b68103307f10c0212685269019200
:10411c00009303460a46d7f84412d7f8400218f029
:10412c004cfec7f8240200e000bfd7f82432002b65
:10413c0004da6ff09a03c7f8243266e007f10c0337
:10414c001b680422da61d7f83c3240f20622934213
:10415c0041d0d7f83c3240f2852293424ad1d7f86d
:10416c002432c7f8203207f10c031b68596807f199
:10417c000c031b685b6a1a4607f10c031b681b6a6d
:10418c0007f11400fff7c0fc0346c7f81c32d7f840
:10419c001c22d7f820329a4217d107f10c031b6866
:1041ac009b68002b11d007f10c031b689b68d7f898
:1041bc001c2207f1140118466df000fb0346002b7e
:1041cc0003d10023c7f8243203e06ff09a03c7f839
:1041dc00243200bf0fe007f10c031b681b69012b95
:1041ec0003d10023c7f8243205e06ff09a03c7f817
:1041fc00243200e000bf08e000bf06e000bf04e08e
:10420c0000bf02e000bf00e000bf07f10c0318681c
:10421c00fff7f8fcd7f82432184607f50a77bd46a5
:10422c00b0bd90b589b000aff860b9607a603b6002
:10423c003b68002b16d03b6b002b13ddbb68002baf
:10424c0010d07b68002b0dddbb681b782e2b09d0a2
:10425c007a683b6b9a4205dbfb68012b04d0fb6848
:10426c00022b01d000237be0fb68012b46d10023fd
:10427c00fb610023bb613b681b782e2b18d03b687d
:10428c00fb610023bb6105e0bb690133bb61fb69ca
:10429c000133fb61fb691b78402b03d0ba693b6b84
:1042ac009a42f1dbba693b6b9a4201db0023fb615a
:1042bc00fb69002b22d1bb68fb610023bb6105e0cd
:1042cc00bb690133bb61fb690133fb61fb691b7883
:1042dc00402b03d0ba693b6b9a42f1dbba693b6b5a
:1042ec009a420bdafb691b78402b07d1fb6901332f
:1042fc00bb60bb6901337a68d31a7b60fb68022b05
:10430c0002d0fb68012b27d13b681b782e2b23d1c5
:10431c007a683b6bd31a7b617b69ba681344bb60c8
:10432c007a687b69d31a7b6016e0bb685a1cba604a
:10433c001b7818466df00bfd04463b685a1c3a601e
:10434c001b7818466df003fd03469c4201d00023f8
:10435c0006e07b68013b7b607b68002be5dc01237e
:10436c0018462437bd4690bd80b592b002af786038
:10437c0039607b68002b02d03b68002b01d10023f5
:10438c0033e17b681b6a002b7fd07b681b6afb6365
:10439c0078e0fb6b1b7b022b04d0042b3cd0012b55
:1043ac001dd06ce03b685b6abb6314e0bb6bd968e7
:1043bc00bb6b9a68fb6b5868fb6b9b68009303465e
:1043cc000220fff72eff0346002b01d000230ce147
:1043dc00bb6b1b68bb63bb6b002be7d14fe03b682f
:1043ec009b6a7b6314e07b6bd9687b6b9a68fb6b75
:1043fc005868fb6b9b68009303460120fff711ff85
:10440c000346002b01d00023efe07b6b1b687b6322
:10441c007b6b002be7d132e03b68d3f80c23fb6bb2
:10442c009b689a420edb3b68d3f80803fb6b596818
:10443c00fb6b9b681a466df0c1f90346002b01d14a
:10444c000023d2e03b68db6a002b17d03b68db6aa9
:10445c003b6310e03b6bd868fb6b5968fb6b9b684c
:10446c001a466df0abf90346002b01d10023bce0da
:10447c003b6b1b683b633b6b002bebd100bffb6bb7
:10448c001b68fb63fb6b002b83d17b68db69002b08
:10449c0000f0aa800023fb620023bb6200237b6236
:1044ac0000233b620023fb610023bb617b68db695b
:1044bc007b6181e07b691b7b022b04d0042b3ed0fb
:1044cc00012b1ed075e03b685b6a3b613b69002b9e
:1044dc0013d00123fb6210e03b69d9683b699a68f1
:1044ec007b6958687b699b68009303460220fff741
:1044fc0098feb8623b691b683b613b69002bebd1b2
:10450c0057e03b689b6afb60fb68002b13d00123d0
:10451c007b6210e0fb68d968fb689a687b69586815
:10452c007b699b68009303460220fff77afe386292
:10453c00fb681b68fb60fb68002bebd139e00123a7
:10454c00fb613b68d3f80833002b31d03b68d3f8c0
:10455c000c237b699b689a422adb3b68d3f80803df
:10456c007b6959687b699b681a466df027f903468d
:10457c00002b1dd10123bb613b68db6a002b17d0dc
:10458c003b68db6abb6010e0bb68d8687b69596824
:10459c007b699b681a466df011f90346002b01d01c
:1045ac000023bb61bb681b68bb60bb68002bebd1f5
:1045bc0000bf7b691b687b617b69002b7ff47aaf42
:1045cc00fb6a002b02d0bb6a002b0bd07b6a002b42
:1045dc0002d03b6a002b05d0fb69002b04d0bb69d1
:1045ec00002b01d1002300e0012318464037bd46c3
:1045fc0080bd80b59ab000aff860b9607a600023d6
:10460c00bb6200237b62bb6807f1240207f128011f
:10461c00f868fbf79eff0346002b02da6ff08b0362
:10462c0012e27b6a002b02d16ff08b030ce27a68ea
:10463c0092f8483343f0400382f84833ffe1bb6af9
:10464c005a1cba62fa6813441b7887f863307b6a89
:10465c00013b7b6297f86330822b5dd1bb6afb65b3
:10466c00bb6807f1200207f12801f868fbf73dfe53
:10467c000346002b02da6ff08b03e5e1bb6afa6d9f
:10468c00d31a7a6a13447b62102069f0f7f9034657
:10469c00bb65bb6d002b02d16ff07c03d4e1bb6d0d
:1046ac0002225a603b6a0133184669f0e7f9034667
:1046bc001a46bb6dda60bb6ddb68002b0ad1bb6d93
:1046cc007b657b6d002b02d0786d6af0cffb6ff0b1
:1046dc007c03b9e13a6abb6d9a60bb6dd868bb6a62
:1046ec00fa6813443a6a19466df0a2f9bb6ddb689f
:1046fc003a6a134400221a707b685a6abb6d1a60be
:10470c007b68ba6d5a627a6a3b6ad31a7b62bb6a5f
:10471c003a6a1344bb6292e197f86330a42b6bd1d5
:10472c00bb6a3b65bb6807f11c0207f12801f868fe
:10473c00fbf7dbfd0346002b02da6ff08b0383e102
:10474c00bb6807f11c0207f12801f868fbf701ffb1
:10475c000346002b02da6ff08b0375e1bb6a3a6dee
:10476c00d31a7a6a13447b62102069f087f90346e6
:10477c00fb64fb6c002b02d16ff07c0364e1fb6cdf
:10478c0004225a60fb690133184669f077f9034635
:10479c001a46fb6cda60fb6cdb68002b0ad1fb6cf5
:1047ac00bb64bb6c002b02d0b86c6af05ffb6ff083
:1047bc007c0349e1fa69fb6c9a60fb6cd868bb6ab4
:1047cc00fa681344fa6919466df032f9fb6cdb6830
:1047dc00fa69134400221a707b68da6afb6c1a605f
:1047ec007b68fa6cda627a6afb69d31a7b62bb6a01
:1047fc00fa691344bb6222e197f86330812b5dd1d7
:10480c00bb6a7b64bb6807f1180207f12801f868e2
:10481c00fbf76bfd0346002b02da6ff08b0313e101
:10482c00bb6a7a6cd31a7a6a13447b62102069f0e3
:10483c0025f903463b643b6c002b02d16ff07c03e3
:10484c0002e13b6c01225a60bb690133184669f0e6
:10485c0015f903461a463b6cda603b6cdb68002b9f
:10486c000ad13b6cfb63fb6b002b02d0f86b6af03c
:10487c00fdfa6ff07c03e7e0ba693b6c9a603b6c25
:10488c00d868bb6afa681344ba6919466df0d0f857
:10489c003b6cdb68ba69134400221a707b689a6a15
:1048ac003b6c1a607b683a6c9a627a6abb69d31a61
:1048bc007b62bb6aba691344bb62c0e097f8633091
:1048cc00862b40f09f80bb6abb63bb6807f1140268
:1048dc0007f12801f868fbf708fd0346002b02da04
:1048ec006ff08b03b0e0bb6aba6bd31a7a6a1344cd
:1048fc007b627b69ba6a1344ba689a4202da6ff037
:10490c008303a1e000237b6614e0ba6a7b6e134438
:10491c00fa6813441b783a2b11d0ba6a7b6e134495
:10492c00fa6813441b782f2b01d17b697b667b6e55
:10493c0001337b667b697a6e9a42e6db00e000bf4e
:10494c007b69023b7a6e9a4211daba6a7b6e134427
:10495c000133fa6813441b782f2b08d1ba6a7b6e8b
:10496c0013440233fa6813441b782f2b02d06ff0d8
:10497c00a00369e0102069f081f803467b637b6b30
:10498c00002b02d16ff07c035ee07b6b06225a6039
:10499c007b690133184669f071f803461a467b6b44
:1049ac00da607b6bdb68002b0ad17b6b3b633b6b68
:1049bc00002b02d0386b6af059fa6ff07c0343e09d
:1049cc007a697b6b9a607b6bd868bb6afa68134414
:1049dc007a6919466df02cf87b6bdb687a691344a5
:1049ec0000221a707b685a6a7b6b1a607b687a6b40
:1049fc005a627a6a7b69d31a7b62bb6a7a691344fe
:104a0c00bb621ce0bb6afb62bb6807f1100207f1da
:104a1c002801f868fbf769fc0346002b02da6ff0fb
:104a2c008b0311e03b691a46bb6a1344fa6ad31a2a
:104a3c007a6a13447b62bb6a3a691344bb627b6a31
:104a4c00002b3ff7fcad002318466837bd4680bdf0
:104a5c0080b588b000aff860b9607a600023bb61a4
:104a6c0000237b61bb6807f1140207f11801f86899
:104a7c00fbf76ffd0346002b02da6ff08b033ce073
:104a8c007b69002b01d1002337e0ba6807f11803ca
:104a9c001946f868fbf7f6fdf861fb69002b01daa3
:104aac00fb692ae0fb6903f00103d9b27a6892f83a
:104abc00483361f3041382f84833ba69bb689a42ed
:104acc0001d3002319e0ba6807f118031946f868f6
:104adc00fbf784fef861fb69002b01dafb690ce043
:104aec00fb69dab27b6883f8ec227a6892f8483377
:104afc0043f0200382f84833002318462037bd4684
:104b0c0080bd80b588b000aff860b9607a600023d2
:104b1c00fb6100237b610023fb74bb6807f114026b
:104b2c0007f11c01f868fbf714fd0346002b02dab1
:104b3c006ff08b03dbe0bb6807f1140207f11c017b
:104b4c00f868fbf706fd0346002b02da6ff08b03c7
:104b5c00cde0fb69bb61bb6807f1130207f11801db
:104b6c00f868fbf740fc0346002b6dd1fb7ca02bb7
:104b7c006ad1fb690133fb61bb6807f1140207f1d1
:104b8c001c01f868fbf7b1fb0346002b02da6ff04f
:104b9c008b03ace0fb69bb61bb6807f1130207f147
:104bac001801f868fbf71ffc0346002b48d1fb7c6f
:104bbc00a02b45d1fb690133fb61bb6807f11402e3
:104bcc0007f11c01f868fbf790fb0346002b02da97
:104bdc006ff08b038be0fb69bb61bb6807f11302c1
:104bec0007f11801f868fbf7fefb0346002b22d1f6
:104bfc00fb7c862b1fd1fb690133fb61bb6807f182
:104c0c00140207f11c01f868fbf76ffb0346002b3d
:104c1c0002da6ff08b036ae07a697b68c3f8c02212
:104c2c00fb69fa681a447b68c3f8bc22fb697a6991
:104c3c001344fb6108e0fb697a691344fb6103e0f0
:104c4c00fb697a691344fb61fb69bb61fa69bb6858
:104c5c009a4222d2bb6807f1130207f11801f868d7
:104c6c00fbf7c1fb0346002b17d1fb7ca12b14d106
:104c7c00fb690133fb61bb6807f1140207f11c01ee
:104c8c00f868fbf732fb0346002b02da6ff08b035c
:104c9c002de0fb697a691344fb61fb69bb61fa691e
:104cac00bb689a4222d2bb6807f1130207f11801c4
:104cbc00f868fbf798fb0346002b17d1fb7ca22b63
:104ccc0014d1fb690133fb61bb6807f1140207f1d6
:104cdc001c01f868fbf709fb0346002b02da6ff0a6
:104cec008b0304e0fb697a691344fb6100231846cb
:104cfc002037bd4680bd80b58cb002aff860b9607e
:104d0c007a6000233b620023fb6100237b6200235b
:104d1c00fb76bb6807f11c0207f12001f868fbf772
:104d2c0018fc0346002b56da6ff08b035be0bb6874
:104d3c0007f11c0207f12001f868fbf70afc034697
:104d4c00002b02da6ff08b034de000237b61bb6814
:104d5c0007f1140207f1200100930723f868fcf710
:104d6c0019fc0346002b02da6ff08b033be0bb68a7
:104d7c0007f11b0207f12001f868fbf734fb03462f
:104d8c00002b02da6ff08b032de0bb6807f11c02dd
:104d9c0007f12001f868fbf7a8fa0346002b02daaa
:104dac006ff08b031fe0fb7e862b10d17b69742b7d
:104dbc000dd1fa697b68c3f8b8223b6afa681a44c9
:104dcc007b68c3f8b4227b6a01337b620ae03b6ade
:104ddc00fa6913443b623a6abb689a4202d27b6a14
:104dec00012ba4dd002318462837bd4680bd80b5b5
:104dfc0088b000aff860b9607a600023bb61002313
:104e0c007b610023fb61bb6807f1140207f11801f9
:104e1c00f868fbf79efb0346002b02da6ff08b035e
:104e2c0042e0bb6807f1130207f11801f868fbf7c1
:104e3c00dafa0346002b02da6ff08b0334e0fb7cca
:104e4c00802b08d07a6892f848336ff3820382f88b
:104e5c004833002328e0bb6807f1140207f118015e
:104e6c00f868fbf742fa0346002b02dc6ff08b0369
:104e7c001ae07b69142b0ad17b6803f53670bb6989
:104e8c00fa6813447a6919466cf0d2fd0be0bb69e1
:104e9c00fa68d0187b6919467b6803f536731a4695
:104eac00fdf7eafcf861fb6918462037bd4680bd6a
:104ebc0080b588b000aff860b9607a600023bb6140
:104ecc0000237b610023fb61bb68002b02dc6ff0cd
:104edc008b0328e0bb6807f1140207f11801f8688e
:104eec00fbf70ffcf861fb69002b01dafb691ae098
:104efc007b69142b0ad17b6803f53170bb69fa68a6
:104f0c0013447a6919466cf093fd0be0bb69fa689f
:104f1c00d0187b6919467b6803f531731a46fdf787
:104f2c00abfcf861fb6918462037bd4680bd80b5e7
:104f3c008ab002aff860b9607a600023bb61b868d0
:104f4c0007f1140207f118010023019300230093c9
:104f5c000346f868fbf722fef861fb69002b01d0d1
:104f6c00fb691be0bb69fa6813441b789ab27b6837
:104f7c00a3f8ee227b69022b0fd17b68b3f8ee22eb
:104f8c00bb690133f9680b441b789bb21b029bb2c3
:104f9c0013439ab27b68a3f8ee22002318462037fd
:104fac00bd4680bd80b58ab002aff860b9607a604a
:104fbc000023bb61bb6807f1100207f11801f86808
:104fcc00fbf7c7fa0346002b70da6ff08b0372e025
:104fdc00bb6807f1140207f1180100930a23f86863
:104fec00fcf7d8faf861fb6913f1940f00d15de07e
:104ffc00fb69002b01dafb695de07b694a2b37d03a
:10500c004a2b06d8482b1fd0482b27d8472b11d01a
:10501c004ce04f2b40d0972b02d04e2b32d045e09a
:10502c007b6893f8f03243f00103dab27b6883f8c3
:10503c00f0223be07b6893f8f03243f00203dab2e3
:10504c007b6883f8f02231e07b6893f8f03243f010
:10505c000403dab27b6883f8f02227e07b6893f8cc
:10506c00f03243f00803dab27b6883f8f0221de0db
:10507c007b6893f8f03243f01003dab27b6883f864
:10508c00f02213e07b6893f8f03243f02003dab29d
:10509c007b6883f8f02209e07b6893f8f03243f0e8
:1050ac004003dab27b6883f8f02200bfba69bb68b0
:1050bc009a428dd3002318462037bd4680bd80b55b
:1050cc008cb000aff860b9607a603b6000233b6243
:1050dc0088e0bb6807f11c0207f12001f868fbf7b8
:1050ec0038fa0346002b02da6ff08b0380e03b6a40
:1050fc007b617b695a1c7a61fa6813441b7887f8c8
:10510c002f30bb6807f1180207f11401f868fbf7a0
:10511c00ecf80346002b02dc6ff08b0368e097f889
:10512c002f3003f00f0387f82e3097f82e30022b18
:10513c0007d097f82e30012b03d097f82e30042b84
:10514c004cd197f82f3003f02003002b0dd0bb6807
:10515c0007f1180207f11401f868fbf7faf9034696
:10516c00002b02da6ff08b0342e0102068f086fc13
:10517c000346bb62bb6a002b02d16ff07c0337e0a5
:10518c00bb69184668f07afc03461a46bb6a5a603b
:10519c00bb6a5b68002b0ad1bb6a7b627b6a002b03
:1051ac0002d0786a69f062fe6ff07c0320e0bb6a83
:1051bc0058687b69fa681344ba6919466cf038fc74
:1051cc00ba69bb6a9a60bb6a97f82e201a737b681f
:1051dc001a68bb6a1a607b68ba6a1a603b6afa6919
:1051ec0013443b623a6abb689a42fff472af0023e5
:1051fc0018463037bd4680bd80b588b000aff8602a
:10520c00b9607a6000237b6100233b61bb6807f1c6
:10521c00100207f11401f868fbf79bf90346002b09
:10522c003eda6ff08b0340e07b695a1c7a61fa68b6
:10523c0013441b78fb760023fb61bb6807f110025b
:10524c0007f11401f868fbf750f80346002b02dc59
:10525c006ff08b0329e0fb7ea02b03d17b683033ee
:10526c00fb6109e0fb7ea12b03d17b683433fb612e
:10527c0002e06ff08b0318e07b69fa68d01839698b
:10528c007b68d3f88032fa69fff719ff0346002bcd
:10529c0002da6ff08b0308e07b693a6913447b6197
:1052ac007a69bb689a42bfd3002318462037bd46a3
:1052bc0080bd80b58eb002af78600023bb62002346
:1052cc00fb617b68d3f8ac327b627b68d3f8a83285
:1052dc003b62002387f82f30002387f82e30002301
:1052ec00fb743b6a002b02d07b6a002b02d16ff05f
:1052fc00ac0357e27b6a07f1130207f11c01386a11
:10530c00fbf771f80346002b02da6ff08b0349e2ce
:10531c00fb7ca32b02d06ff08b0343e27b6a07f17b
:10532c00180207f11c01386afaf7dfff0346002b5d
:10533c0002da6ff08b0335e27b6a07f1180207f192
:10534c001c01386afbf705f90346002b80f21d821d
:10535c006ff08b0326e27b6a07f1180207f11c0140
:10536c00386afbf7f6f80346002b02da6ff08b0372
:10537c0018e200237b617b6a07f1140207f11c0120
:10538c0000930623386afcf705f9b862bb6a002b58
:10539c0001dabb6a06e2002387f82f30fb695a1c3e
:1053ac007b6a9a4202d96ff08303fbe1fb69fb60d5
:1053bc007b6a07f1130207f10c01386afbf713f84b
:1053cc000346002b12d1fb7c012b0fd17a6a07f11b
:1053dc001c031946386afbf755f9b862bb6a002bf7
:1053ec0001dabb6adee1bb6a87f82f307b6a07f112
:1053fc00180207f11c01386afbf783f9b862bb6a23
:10540c00002b01dabb6acde17b69902b00f0468161
:10541c00902b0fd8812b00f0fe80812b05d8452bcb
:10542c0063d0802b00f0ce808ce1832b7fd0852b3a
:10543c0017d087e1952b00f09c80952b05d8912bec
:10544c0031d0922b00f086817ce1a82b00f05281a8
:10545c0040f2f122934200f06081972b00f0fd8026
:10546c0070e17b6893f8493303f00803dbb2002b3f
:10547c0013d17a6892f8493343f0080382f8493320
:10548c00fb693a6a1344b9697a681846fff7e0fa7f
:10549c000346002b80f2608102e06ff08f0381e104
:1054ac006ff08b037ee17b6893f8493303f00203c2
:1054bc00dbb2002b13d17a6892f8493343f0020324
:1054cc0082f84933fb693a6a1344b9697a68184619
:1054dc00fff717fb0346002b80f2408102e06ff0d0
:1054ec008f035fe16ff08b035ce17b6893f84933ca
:1054fc0003f00403dbb2002b13d17a6892f8493322
:10550c0043f0040382f84933fb693a6a1344b969de
:10551c007a681846fff7effb0346002b80f22081d8
:10552c0002e06ff08f033de16ff08b033ae17b6893
:10553c0093f8493303f01003dbb2002b14d17a68d3
:10554c0092f8493343f0100382f84933fb693a6a05
:10555c001344b9697a681846fff74bf8b862bb6a0e
:10556c00002b80f2ff8002e06ff08f031ae1bb6a20
:10557c0018e17b6893f8483303f00403dbb2002b8b
:10558c000bd17a6892f8483343f0040382f848331d
:10559c0097f82f30002b06d002e06ff08f0301e15b
:1055ac006ff09f03fee0fb693a6a1344b9697a68ad
:1055bc001846fff71cfc0346002b80f2d5806ff0d9
:1055cc008b03efe07b6893f8483303f00203dbb204
:1055dc00002b0bd17a6892f8483343f0020382f81f
:1055ec00483397f82f30002b06d002e06ff08f0372
:1055fc00d8e06ff09f03d5e0fb693a6a1344b969b0
:10560c007a681846fff754fc0346002b80f2ae80f4
:10561c006ff08b03c6e07b6893f8483323f07f036d
:10562c00dbb2002b13d17a6892f8483343f0800335
:10563c0082f84833fb693a6a1344b9697a681846a8
:10564c00fff775fc0346002b80f2928002e06ff0ae
:10565c008f03a7e06ff08b03a4e07b6893f84933ca
:10566c0003f00103dbb2002b12d17a6892f84933b4
:10567c0043f0010382f84933fb693a6a1344b96970
:10568c007a681846fff78efc0346002b72da02e0ac
:10569c006ff08f0386e06ff08b0383e07b6893f8e9
:1056ac00483303f01003dbb2002b02d16ff0c503bb
:1056bc0078e07b6893f8483303f00803dbb2002be7
:1056cc0012d17a6892f8483343f0080382f84833d1
:1056dc00fb693a6a1344b9697a681846fff78cfd7e
:1056ec000346002b48da02e06ff08f035ae06ff0ac
:1056fc008b0357e07b6893f8493303f02003dbb24c
:10570c00002b07d17a6892f8493343f0200382f8d2
:10571c00493336e06ff08f0344e0fb69ba6998189f
:10572c0007f1180207f11c010023019300230093d9
:10573c000346386afbf732fa0346002b1eda6ff089
:10574c008b032fe097f82f30002b19d0012387f80b
:10575c002e3015e000bf14e000bf12e000bf10e0d7
:10576c0000bf0ee000bf0ce000bf0ae000bf08e085
:10577c0000bf06e000bf04e000bf02e000bf00e095
:10578c0000bffb69ba691344fb61fa697b6a9a42f0
:10579c00fff4e1ad97f82e30002b02d06ff09f0391
:1057ac0000e0002318463037bd4680bd80b586b07a
:1057bc0000aff860b9607a603b603b687a68b968a2
:1057cc00f86800f077f878617b69002b01da7b6967
:1057dc0054e0fb689b6e002b26ddfb689b6e01334f
:1057ec00184668f04bf903463b613b69002b02d12c
:1057fc006ff07c0342e0fb68596efb689b6e1a46a7
:10580c0038696cf015f9fb689b6e1a463b691344ba
:10581c0000221a70fb683a695a66fa6892f84833a3
:10582c0043f0010382f84833fb68db6940f28522c0
:10583c00934222d1fb681b68002b1ed0fb685b686f
:10584c00002b1ad0fb685b68184668f017f9034602
:10585c003b613b69002b02d16ff07c030ee0fb68cf
:10586c001968fb685b681a4638696cf0e1f8fb68ec
:10587c003a691a60fb6801229a607b6918461837ee
:10588c00bd4680bd80b483b000af786039607b6862
:10589c0018460c37bd465df8047b704780b483b066
:1058ac0000af786039607b6818460c37bd465df8f0
:1058bc00047b7047f0b593b006af78613961fa603c
:1058cc00bb600023fb620023bb6200237b620023ce
:1058dc00fb617b69002b02d16ff0ac035be27b694f
:1058ec00d3f83033002b40f0d5817b690022c3f80c
:1058fc0040237b690022c3f84423f9687869fdf7db
:10590c0062fef862fb6a002b0edafb6a13f1960f4b
:10591c0003d0fb6a13f1970f04d17b69fa6ac3f8c1
:10592c00402301e0fb6a36e27b69d3f878227b697d
:10593c001b699a4237d27b691b6a012b02dc6ff020
:10594c008c0328e27b69d3f874227b69d3f8783214
:10595c001a447b69c3f8a8227b691a697b69d3f85e
:10596c007832d31a1a467b69c3f8ac227b69d3f818
:10597c0078227b69c3f8b0227869fff79afcf86249
:10598c00fb6a002b0adafb6a13f1a00f04d17b69c6
:10599c00fa6ac3f8442301e0fb6afce17b691a69eb
:1059ac007b69c3f878227b69d3f874027b6903f5b1
:1059bc001e717b69d3f87c3207f11c020093012322
:1059cc00fbf76efef862fb6a002b01dafb6ae2e180
:1059dc007869fdf735fef862fb6a002b01dafb6a89
:1059ec00d9e17b699a69fb699a4202d06ff09703ff
:1059fc00d1e17b6993f8483303f00203dbb2002b4f
:105a0c0017d17b691b68002b13d07b695b68002b5b
:105a1c000fd07b6918687b6959687b6903f5317312
:105a2c001a46fcf729fff862fb6a002b01d0fb6acf
:105a3c00b1e17b6993f8493303f04003dbb2002bef
:105a4c0008d0fb68002b6ed03b69052b6bd03b69f3
:105a5c000f2b68d07b690022c3f810237b6993f865
:105a6c00483303f00403dbb2002b0ad07b6903f547
:105a7c0036731946b868fff705ff02467b69c3f811
:105a8c0010237b69d3f81033002b15d17b6993f865
:105a9c00483303f00203dbb2002b0dd0fb68032b61
:105aac000ad07b6903f531731946b868fff7eafe33
:105abc0002467b69c3f810237b69d3f81033002ba3
