:020000040000fa
:10000000f0ff00208505000043110000cf11000023
:1000100000000000000000000000000000000000e0
:10002000000000000000000000000000331200008b
:100030000000000000000000331200003312000036
:100040003312000033120000e9100000dd0b000045
:100050003312000033120000331200000d0a0000ba
:100060003312000033120000d10f000033120000e1
:10007000331200003312000033120000331200006c
:10008000331200003312000033120000331200005c
:10009000331200003312000033120000331200004c
:1000a000331200003312000033120000331200003c
:1000b000331200003312000033120000331200002c
:020000040000fa
:1000c000f8b5c046f8bc08bc9e467047690f0000f2
:1000d000f8b5c046f8bc08bc9e467047410f00000a
:020000040000fa
:1000e0000023f0b506001500b1b0079103930799fe
:1000f0000b78002b00d10de101235b420c9310ab78
:1001000000240e9380230b940d940f930b5d002b12
:1001100001d0252b2ad1002c06d02200300001f07e
:1001200025f8079b1b190793079b1a78252a00d0ef
:10013000e5e0013304930793022301219c46102735
:10014000079803782b2b1ad025d8202b1ad0232bd5
:100150001dd02a2b28d000f05bff0d90079b1a784a
:10016000303a092a31d801330793f7e70134cde754
:100170000b9b05930b4301300b930790e0e704239f
:100180000b9a0fe00b9b0593059a08230ae00b9b43
:1001900005933b43efe72d2bead0302bd9d16246b4
:1001a0000b9b05931343e6e72b6801301a1d1b6870
:1001b00007902a600d93002b07da0b9a5b42059299
:1001c000012205990d934a400b920b9bda0702d549
:1001d000022293430b93079b1a782e2a0ed10022fa
:1001e000581c0c9207905a782a2a28d10233079378
:1001f0002b681a1d1b682a6005930c9307a800f052
:1002000041ff079b0700187801f074f8692800d1b6
:1002100083e035dc632800d1dde01bdc252800d13c
:10022000eae0612859d0049b01220793002352423f
:100230000c920b930d93784900930232e7e000f0a3
:10024000e7fe0c90079b1a78303a092ad6d801337a
:100250000793f7e7642860d06728e4dc2a003900b8
:1002600008a800f059ff002800d1b0e0079b0ba9b7
:100270005a1c07921b7808aa300001f05df83de097
:10028000702800d17de016dc6e2800d198e06f2840
:10029000c9d12b000022390008a800f03dfa00283f
:1002a00000d194e0079b08aa01330ba93000079303
:1002b00001f040f822e0752840d078284fd073280c
:1002c000b1d1802f00d082e0079b2a6801330793c9
:1002d000131d2b601268002389e02a00390008a84a
:1002e00000f01aff002800d171e0079b0ba95a1cef
:1002f00007921b7808aa300001f01ef82418039b0f
:100300001c19a34200dc84e04f22444b1a600123f5
:100310005b420393039831b0f0bd2b0001223900fa
:1003200008a800f0f9f9002851d0079b08aa01336a
:100330000ba93000079300f0fdffdfe72b00002240
:10034000390008a800f0e8f9002840d0079b08aa67
:1003500001330ba93000079300f0ecffcee72b0030
:100360000022390008a800f0d7f900282fd0079bf9
:100370005a1c07921b7808aa0ba9300000f0dcff7a
:10038000bce72b000022f02108a800f0c5f90028e6
:100390001dd0079b099a01330793089b13430dd186
:1003a0001d4f1637380000f021ff390002000b9b6b
:1003b00000930d9b300000f067fb9fe77823dae79e
:1003c000039b39001a1908a82b0000f0d3fb079be8
:1003d0000133079393e7802ff9d1079b01330793ec
:1003e0002b681a1d1b682a6008aa137001230ba929
:1003f000300000f02ffd81e7802fe8d10122079b1c
:100400000549013307930b9b049300930d9b1c310b
:10041000d0e703946be6c04692110000040200206e
:020000040000fa
:10042000f0b5c64600b59ab06422002101a800f0dc
:1004300033ff002000f00cfe00224649002000f0af
:1004400049ff002244490f2000f07cfe0021434870
:1004500000f05eff4249434b0a0013cb13c213cb9b
:1004600013c213cb13c2196811601b79137100f00a
:10047000affe3d4d00263b4b98464be03a4b1e707d
:100480003a4b1e708223db0580221203da61344f5f
:10049000380000f0abfe0300354a3900300000f0b0
:1004a000d7f8344b1b78002b06d12b78002bf8d0d3
:1004b0002378002bf5d0e1e72e4b1e702e4b1b78d6
:1004c000002b29d12c4b01221a708020c00000f093
:1004d000bbfe300000f0aefe284c274f3b789a0060
:1004e000d2189200a218264901a800f097fe01a890
:1004f00000f07cfe03001e4a01a9300000f0a8f8bd
:100500003b789a00d2189200a21841465431144800
:1005100000f084fe154cc8e7012b0ad0022b10d046
:10052000032bd6d1144b1e708020800000f08cfe6f
:10053000cfe7114b02221a708020000100f084fee8
:10054000c7e70d4b03221a708020400100f07cfeab
:10055000bfe7c0465d1200001d130000e512000059
:10056000c0000020040b0000090200200b02002044
:1005700028080042080200200a020020040e0000a1
:04058000300b00003c
:020000040000fa
:10058400f8b5294b1b785bb2002b03db264b1b7899
:100594009b072dd5244b1b785b0718d580239b051f
:1005a4000024214a01201026a52503e004331f4915
:1005b4008b4224d01c6091790142f7d091680e429d
:1005c400f4d115739179012739439171eee78023b2
:1005d4009b05002514491024a526144802e0043381
:1005e40083420cd01d608a681442f8d10e73f6e77a
:1005f40080239b0500210d4a02c39342fcd10c4b7e
:1006040098470c4b984700f073fc0b4bff22934325
:100614000a4a93600a4b98470a4b98470a4b9847f3
:10062400fff7fcfefee7c04600200040000001206a
:10063400030b0000030b00000000000000ed00e0cd
:0c064400f90c0000030b0000030b000089
:020000040000fa
:10065000f0b505012d4c6419267bf6b22c4d3f27d1
:10066000ec5de4b2e8550f37ed5dad0702d1002532
:10067000002e3bd1264e4e25032777550501234eec
:100680007619023f3773234ead5b6d0533d5c9181c
:100690000601204dad19696001011e4d495b090538
:1006a0002ed5d21805011b4949198a60194905013f
:1006b0006a5a9205920fd3409bb249194b80144a53
:1006c0004021535c02252b435354516c536c9b04c3
:1006d0009b0e08220a4013430125002b06d10c4a29
:1006e0001169012383400b4313610125084a3f230d
:1006f000d4542800f0bd0601064dad196960cbe762
:100700000501044949198a60d0e7c046d00100209c
:0807100000600041c00100205f
:020000040000fa
:1007180010b588293cd015dc81294dd003dc80290f
:100728004ad0002010bd822911d08429f9d1196836
:10073800002a26d00a1d1a6000228b5e0360db1790
:10074800436011e0a02930d010dc9029e9d1196864
:100758000724002a2ed00919a1430a0008321a607a
:100768000b684c68036044600120dbe7c02901d0b6
:10077800f029d6d11a68111d196013680360002387
:10078800dee70c1d1c600b689bb203604260ebe760
:100798001968002a04d00a1d1a600023cb56cde739
:1007a8000c1d1c600b68dbb2efe71a68111d19609d
:1007b8001368c3e70731cfe71968002a03d00a1d79
:0e07c8001a600b68bae70c1d1c600b68dde7b9
:020000040000fa
:0207d60070476a
:020000040000fa
:1007d8001f4b5a6852031b68db0c13439b029b0a8e
:1007e8001c4a936300235375110004228b691a4233
:1007f800fcd118491022cb681a42fcd0154a137d47
:1008080080210b431375144b00229a611a61134b14
:10081800134a1a62190004224b681a42fcd10f4a83
:1008280088234021d15010004831402243581a42b1
:10083800fcd00a4acc234021d15010008c314022f0
:1008480043581a42fcd0074b074ada617047c04642
:10085800206080000010004000140040001c004090
:0c08680006010100000800400400000828
:020000040000fa
:10087400a40100204c000000000000000000002043
:10088400c000000000000000f00100200c00000087
:10089400000000007401002030000000000000008f
:1008a400080200200300000000000000c000002037
:1008b40064000000000000000b02002001000000a2
:1008c4000100000001000000fc0100200400000001
:1008d400000000002401002050000000000000007f
:1008e40000020020080000000000000000000000da
:1008f400000000006666666666666666666666662c
:020000040000fa
:100904001e4a137801210b431370110001224b6816
:100914001a42fcd119490b781022102003430b70a2
:100924000023cb6190231b060b6280231b020b6107
:10093400134b1a819a821a849a851a8744201a5270
:100944000c301a520c301a520c301a520c301a5203
:100954000c301a520c301a520c301a520c301a52f3
:100964000c301a52ac32a13898520b78022213433d
:100974000b7002224b681a42fcd1704700280040d9
:04098400000000204f
:020000040000fa
:10098800f8b51e4b1b7d002b37d01c4a9368516865
:100998001b4a127ed2071dd599421bd91849072632
:1009a800164a944617001500012409e03a68d25cfb
:1009b8000a85013368680a7e22420bd0984209d919
:1009c8004a683240012af1d1624612685800825ab8
:1009d8000a85eee7094a936052689a420dd8074b98
:1009e80000221a755a60064a01211175db68002b2e
:1009f80003d0024b1869db689847f8bd74010020e2
:040a080000080042a0
:020000040000fa
:100a0c0010b582b0002301931a4a118c0f330b409e
:100a1c003f21545ce4b253540f31525cd2b2019278
:100a2c00019a0220920708d512494e2288541901c6
:100a3c00114a5218002111730138019ad20709d5b5
:100a4c000c494e220120885419010b4a52180021de
:100a5c00117301301901084a52185268002a04d047
:100a6c00054a531899685b689847024a3f23d45447
:0c0a7c0002b010bd00600041d00100205d
:020000040000fa
:100a8800f0b51d00012389b014000e9a06001a4023
:100a98000391029201d1a5420ad82200039930009d
:100aa80000f060fba54203d82500280009b0f0bd7e
:100ab8002f1b01973a00102f00d91022202104a8db
:100ac80000f0e6fb019b0f2b0ed80f2204a93a4039
:100ad800300000f047fb029b002be6d1220003996f
:100ae800300000f03ffbe0e7102204a9300000f0de
:0a0af80039fb019b103b0193e4e77a
:020000040000fa
:020b020070473a
:020000040000fa
:100b0400546f67676c696e67204c4544206174209c
:100b1400353030206d696c6c697365636f6e647316
:100b24002072617465200d0a000000004c454420c9
:100b3400546f67676c696e672072617465206973ae
:100b4400206368616e67656420746f2025730d0ae5
:100b540000000000546f67676c696e67204c454461
:100b64002061742025732072617465200d0a0000d1
:020000040000fa
:100b740010b584291fd007dc812915d0822922d001
:100b8400802911d0002010bd90291cd008dc8829b0
:100b9400f8d119680c1d1c600b6803601a7010e012
:100ba400a02901d0c029edd119680c1d1c600b6867
:100bb40003601a6005e019680c1d1c600b68036073
:100bc4001a800120dfe719680c1d1c600b680360a4
:080bd4001a60d2175a60f4e721
:020000040000fa
:100bdc00f8b50024144d154e03e077610134102c48
:100bec0020d063001b199b00eb181b899bb2a1b290
:100bfc008b42f3d173690127a7401f42eed06300eb
:100c0c001b199b0008495b58002be6d008006300b9
:100c1c0019198900411849681b199b001b580800b9
:100c2c009847dae7f8bdc0460000002000280040d5
:020000040000fa
:100c3c0030b5bff35f8f62b6134bc025ad005a5968
:100c4c0012480240c02109040a435a5104221a6076
:100c5c005a591202120ac024240622435a5108225d
:100c6c001a6004355a591202120a22435a51802230
:100c7c001a60c224a4001a59104001431951802251
:100c8c00d2001a6030bdc04600e100e0ffff00ff5b
:020000040000fa
:100c9c0010b5144b5b8b0722134000d110bd124ac8
:100cac00d385104b5b8b5b070dd00e4b80221a76d5
:100cbc00793a5a831b7e5b0705d50a4b04211a8da2
:100ccc001a7e0a42fbd1074b84221a75064b583afe
:100cdc00002199545b6a002be0d0034b986a5b6a45
:0c0cec009847dbe700080042740100207c
:020000040000fa
:100cf80000230e4a10b513600d4a13600d4a1360a5
:100d08000d4a13600d4a13600d4a53621361013393
:100d1800936000f0dafa00f0d8fa0a4c0a4b9c42c9
:100d280000d310bd08cc9847f8e7c0460002002061
:100d3800300100202c01002024010020280100207f
:0c0d480034010020cc000000d0000000ae
:020000040000fa
:100d540010b50d4a002111705160916011730b4858
:100d64000b4b58630b4c9c630b4c5c613f24195533
:100d74000a4959640a490180012111704d22023146
:100d84009954084a1a8010bdd0010020c0010020e7
:100d940000600041e0010020818181810005800024
:080da40009040000020f000029
:020000040000fa
:100dac00114b124a1a60124a9a81802252025a60de
:100dbc001a00d369002bfcd10b4a136802210b4398
:100dcc001360d369002bfcd10a4b00229a61da61c3
:100ddc001a622c215a545a621a605a609a601a7517
:100dec00da60da857047c046000800420401104002
:080dfc002bf6ffff740100203b
:020000040000fa
:100e0400353030206d696c6c695365636f6e647343
:100e14000000000031205365636f6e640000000021
:100e2400000000000000000032205365636f6e6410
:100e3400730000000000000000000000342053652f
:100e4400636f6e6473000000000000000000000087
:020000040000fa
:100e5400f0b50f0087b0039015001049072204a8cd
:100e64001c0000f00dfabb687e6802933f68002df9
:100e740000d104ad002c03d1280000f0b5f9040022
:100e8400002e02dbb44200d934000097029b2200fa
:100e940029000398fff7f6fd07b0f0bd2813000002
:020000040000fa
:100ea40030b51500012289b0524201920432ff325a
:100eb4000292002800d16846002403900491a142c4
:100ec40000d04c1e0594002906da4f220120074b5e
:100ed40040421a6009b030bd0022079002700690ab
:100ee4001a00290001a800f08bf9f3e7040200209e
:020000040000fa
:100ef40010b50e4b0e4a934207d30e4801680029e1
:100f040007d14368002b04d110bd002119700133af
:100f1400f1e704008368084a9bb20c349b009b5899
:100f240042682000984780002018e7e7000000206e
:0c0f340000000020740800007012000093
:020000040000fa
:100f400010b5064c2378002b07d1054b002b02d09f
:100f5000044800e000bf0123237010bda40100205d
:100f60000000000000000000044b10b5002b03d06f
:100f70000349044800e000bf10bdc0460000000067
:080f8000a801002000000000a0
:020000040000fa
:100f88000f4b01221a8019000b691a42fcd10c4b35
:100f98000c4a1a801900802212020b691342fcd1f4
:100fa800074b802292001a621900e13aff3a0b6956
:100fb8001a42fcd1024b802252005a817047c04627
:080fc800002400408081ffffbe
:020000040000fa
:100fd00010b50e4b9b7d002b10d00c4a137edbb25c
:100fe000927d52b2002a0adb084a137edbb2927d60
:100ff000d20703d5db0701d5fff7c6fc10bd5bb2f6
:10100000002bf1dafff74afeeee7c0460008004287
:020000040000fa
:10101000030010b51a78202a0dd0110009390429cf
:1010200009d900212b2a02d02d2a01d10131013307
:1010300000200a2404e00133ece760430133801a06
:101040001a78303a092af8d9002900d1404210bd57
:020000040000fa
:1010500010b50b4b06225a6000f02ef8fff7bcfbd0
:1010600000f050f9fff7a2fefff7b5fbfff772fea5
:10107000fff748fcfff788fffff7e0fd10bdc04613
:0410800000400041eb
:020000040000fa
:10108400f0b5050000200a4a4400a65c002e02d1f7
:1010940012195078f0bd296801300f78c0b2b742f8
:1010a40003d112190131507829600a28ebd9f1e7ec
:0410b4009211000095
:020000040000fa
:1010b8008223db05094a1a60402201219954133220
:1010c80001319954503a59315a542b395a54002203
:1010d80009315a5404315a547047c0460000080870
:020000040000fa
:1010e80010b5084b9a8992b207494a60074a9a8113
:1010f8009b890b68002b04d00b00486889681b6823
:10110800984710bd00240040f0010020ff81ffff38
:020000040000fa
:10111800002380290fdb812901dd83290bd10721d9
:10112800136807338b431900083111601a685b682c
:0a11380002604360012318007047b5
:020000040000fa
:02114200fee7c6
:020000040000fa
:1011440030b543001b189b00064ce3181b899bb267
:10115400834200d030bd43001d18ad0029516019f1
:081164004260f7e700000020e3
:020000040000fa
:10116c0070b505690400954200d915002a00606924
:10117c0000f082f8226963695b19551b0022256116
:06118c0063611a7070bde2
:020000040000fa
:1011920068076c094c836a9074a07ac000806888e2
:0e11a20000846c820081286e696c2900250093
:020000040000fa
:1011b000002310b5934206d103201840421e9041ef
:0e11c0009b08c01810bdc45ccc540133f2e78c
:020000040000fa
:0211ce00fee73a
:020000040000fa
:1011d000054a138802210b431380110002220b6978
:0c11e0001a42fcd17047c04600240040b9
:020000040000fa
:1011ec000378002b06d0030001331a78002afbd1b8
:0811fc00181a70470020fce7ff
:020000040000fa
:1012040013b50400019201aafef768ff6368db06c8
:0812140001d50120404216bd86
:020000040000fa
:10121c000eb403b503aa02ca019200f041f802b061
:06122c0008bc03b01847e6
:020000040000fa
:02123200fee7d5
:020000040000fa
:10123400034b9861190008220b691a42fcd17047cc
:041244000024004042
:020000040000fa
:10124800034b1862190020220b691a42fcd170471f
:04125800002400402e
:020000040000fa
:10125c00012800d07047024b01221a70fae7c046f1
:04126c000b02002051
:020000040000fa
:10127000c1120000b1110000311300003113000051
:041280003113000026
:020000040000fa
:1012840010b5002a05d00023cc5cc454013393422a
:04129400fad110bdbe
:020000040000fa
:10129800002a06d00300c9b282181970013393429c
:0412a800fbd17047bf
:020000040000fa
:1012ac0010b513000a000249fff7f6fd10bdc04649
:0412bc00ffffff7fb2
:020000040000fa
:1012c0008a18914201d10020704700230b70013130
:0212d000f7e73e
:020000040000fa
:0212d200704763
:020000040000fa
:1012d40003010248c018416082607047d0010020b9
:020000040000fa
:1012e400c30502d5014b01221a7070470902002080
:020000040000fa
:0e12f4000300413b192b01d8202318437047fb
:020000040000fa
:0c130400014b84225a60704700400041f9
:020000040000fa
:0c131000014b186099607047f00100204c
:020000040000fa
:0c131c00014b01221a70704708020020eb
:020000040000fa
:07132800286e756c6c2900b2
:020000040000fa
:0413300000207047e2
:020000040000fa
:0413340000207047de
:020000040000fa
:0413380000207047da
:020000040000fa
:0200000400807a
:04400000ff88feb384
:020000040000fa
:0200000400807a
:04400400bbfcffff03
:00000001FF
