:020000040000fa
:10000000f0ff03206d6300001d7b0000237b0000d8
:100010002f7b0000357b00003b7b000000000000d0
:100020000000000000000000000000008735000014
:10003000297b0000000000008735000087350000a4
:1000400087350000873500008735000087350000c0
:1000500087350000873500008735000087350000b0
:1000600087350000873500008735000087350000a0
:100070008735000087350000873500008735000090
:100080006173000087350000873500008735000068
:100090008735000087350000873500008735000070
:1000a0008735000087350000873500008735000060
:1000b000873500008735000087350000bd7a0000d5
:1000c000cb7a0000d97a0000e77a0000873500007b
:1000d0008735000087350000873500008735000030
:1000e0008735000087350000000000000000000098
:1000f00000000000873500008735000087350000cc
:100100008735000087350000b51e0000b51e0000d1
:10011000b51e0000b51e00008735000087350000c1
:1001200087350000873500008735000087350000df
:1001300087350000873500008735000087350000cf
:10014000873500008735000015670000156700003f
:1001500015670000156700000000000000000000a7
:10016000000000000000000000000000000000008f
:100170000000000000000000873500008735000007
:10018000873500008735000087350000873500007f
:10019000000000008735000087350000873500002b
:1001a000873500008735000087350000873500005f
:1001b000873500008735000087350000873500004f
:1001c000873500008735000087350000873500003f
:1001d000873500008735000087350000873500002f
:1001e0008735000087350000873500006167000013
:1001f000873500008735000087350000873500000f
:100200008735000000000000000000008735000076
:1002100087350000873500008735000087350000ee
:1002200087350000873500008735000087350000de
:1002300087350000873500008735000087350000ce
:1002400087350000873500008735000087350000be
:1002500087350000873500008735000087350000ae
:020000040000fa
:10026000f8b500bff8bc08bc9e467047f96b0000ab
:10027000f8b500bff8bc08bc9e467047d56b0000bf
:020000040000fa
:08028000980d000001000000d0
:020000040000fa
:100288005b7370695f636d645d3a204661696c6594
:100298006420636d642077726974652c20627573bd
:1002a800206572726f722e2e2e0d0a005b737069b4
:1002b8005f636d645f7273705d3a204661696c6557
:1002c8006420636d6420726573706f6e736520724d
:1002d8006561642c20627573206572726f722e2eb0
:1002e8002e0d0a005b7370695f636d645f727370d3
:1002f8005d3a204661696c656420636d64207265af
:1003080073706f6e736520726561640a000000bfc8
:100318005b7370695f646174615f726561645d3aa3
:10032800204661696c65642064617461207265733c
:10033800706f6e736520726561642c20627573201e
:100348006572726f722e2e2e0d0a00005b73706933
:100358005f646174615f726561645d3a20466169da
:100368006c6564206461746120726573706f6e736c
:100378006520726561642e2e2e2825303278290d6d
:100388000a0000bf5b7370695f646174615f7265c6
:1003980061645d3a204661696c65642064617461da
:1003a80020626c6f636b20726561642c20627573c8
:1003b800206572726f722e2e2e0d0a005b737069a3
:1003c8005f646174615f726561645d3a204661696a
:1003d8006c6564206461746120626c6f636b204398
:1003e800524320726561642c2062757320657272b5
:1003f8006f722e2e2e0d0a005b7370695f64617434
:10040800615f77726974655d3a204661696c6564fd
:10041800206461746120626c6f636b20636d64207b
:1004280077726974652c20627573206572726f72b9
:100438002e2e2e0d0a0000bf5b7370695f64617415
:10044800615f77726974655d3a204661696c6564bd
:10045800206461746120626c6f636b2077726974c9
:10046800652c20627573206572726f722e2e2e0da8
:100478000a0000bf5b7370695f646174615f7772c3
:100488006974655d3a204661696c656420646174cd
:100498006120626c6f636b204352432077726974ea
:1004a800652c20627573206572726f722e2e2e0d68
:1004b8000a0000bf5b7370695f77726974655f7269
:1004c80065675d3a204661696c656420636d642cdc
:1004d800207772697465207265672028253038781e
:1004e800292e2e2e0d0a00005b7370695f777269e2
:1004f80074655f7265675d3a204661696c65642062
:10050800636d6420726573706f6e73652c207772eb
:1005180069746520726567202825303878292e2e61
:100528002e0d0a005b7370695f77726974655f628c
:100538006c6f636b5d3a204661696c656420636d1e
:10054800642c20777269746520626c6f636b202855
:1005580025303878292e2e2e0d0a00005b7370691d
:100568005f77726974655f626c6f636b5d3a204692
:1005780061696c656420636d6420726573706f6e69
:1005880073652c20777269746520626c6f636b20c9
:100598002825303878292e2e2e0d0a005b737069b5
:1005a8005f77726974655f626c6f636b5d3a204652
:1005b80061696c656420626c6f636b20646174614f
:1005c8002077726974652e2e2e0d0a005b73706990
:1005d8005f77726974655f626c6f636b5d3a204622
:1005e80061696c656420627573206572726f722e22
:1005f8002e2e0d0a000000bf5b7370695f77726969
:1006080074655f626c6f636b5d3a204661696c6507
:1006180064206461746120726573706f6e73652005
:10062800726561642c2025782025782025780d0aac
:10063800000000bf5b7370695f726561645f72651b
:10064800675d3a204661696c656420636d642c209f
:100658007265616420726567202825303878292ef4
:100668002e2e0d0a000000bf5b7370695f72656112
:10067800645f7265675d3a204661696c65642063f2
:100688006d6420726573706f6e73652c207265617e
:100698006420726567202825303878292e2e2e0d83
:1006a8000a0000bf5b7370695f726561645f7265a1
:1006b800675d3a204661696c6564206461746120f5
:1006c800726561642e2e2e0d0a0000bf5b7370697f
:1006d8005f726561645f626c6f636b5d3a2046614f
:1006e800696c656420636d642c20726561642062a6
:1006f8006c6f636b202825303878292e2e2e0d0a32
:10070800000000bf5b7370695f726561645f626c53
:100718006f636b5d3a204661696c656420636d6444
:1007280020726573706f6e73652c2072656164202a
:10073800626c6f636b202825303878292e2e2e0d99
:100748000a0000bf5b7370695f726561645f626c09
:100758006f636b5d3a204661696c656420626c6ffb
:10076800636b206461746120726561642e2e2e0da6
:100778000a0000bf5b6e6d5f7370695f696e6974b4
:100788005d3a204661696c656420696e7465726eb5
:10079800616c20726561642070726f746f636f6c36
:1007a800207769746820435243206f6e2c2072654d
:1007b800747279696e6720776974682043524320a0
:1007c8006f66662e2e2e0d0a000000bf5b6e6d5ff1
:1007d8007370695f696e69745d3a204661696c651a
:1007e8006420696e7465726e616c20726561642044
:1007f80070726f746f636f6c2e2e2e0d0a0000bf1f
:100808005b6e6d5f7370695f696e69745d3a2046ef
:1008180061696c656420696e7465726e616c2077bd
:10082800726974652070726f746f636f6c20726583
:10083800672e2e2e0d0a00005b6e6d5f7370695f68
:10084800696e69745d3a204661696c20636d642045
:100858007265616420636869702069642e2e2e0dac
:100868000a0000bf526573657420616e642072656a
:100878007472792025642025780d0a005265736505
:100888007420616e64207265747279202564202555
:10089800782025780d0a0000526573657420616e12
:1008a8006420726574727920256420257820256477
:0408b8000d0a000025
:020000040000fa
:1008bc0090b58fb002af002387f82f3000bf9f4b4d
:1008cc00bb624ff6ff73fb84012006f012ff386207
:1008dc00bb6a1b78002b0bd0bb6a1b78013bdab2ce
:1008ec00bb6a1a70396a012006f011fc012304e07e
:1008fc00396a012006f00bfc0023002bdfd007f136
:10090c000c03194641f2700006f08eff034687f87f
:10091c002f3097f92f30002b40f08081fb6803f0cb
:10092c000103002b00f06f81fb6823f00103fb60d7
:10093c00fb68194641f2700006f084ff034687f805
:10094c002f3097f92f30002b40f071817c4b012216
:10095c009a70fb689b089bb2c3f30b03bb85bb8de2
:10096c00002b00f0448100237b603b1d194641f2b3
:10097c00840006f059ff034687f82f3097f92f3083
:10098c00002b09d06f4b1b68002b00f052816d4b74
:10099c001b686d4898474ce17b68694a5360bb8d76
:1009ac00674a93607b6807f108010422184604f03b
:1009bc005bfc034687f82f307b897b8197f92f30be
:1009cc00002b09d05f4b1b68002b00f034815d4b72
:1009dc001b685e4898472ee17b89ba8d9a4219d0e4
:1009ec00bb8d7a899b1a042b14dd564b1b68002b8c
:1009fc000bd0544b1c68b98d7b891a463b7a184630
:100a0c007b7a009303465248a047fa2387f82f308d
:100a1c0000bf15e1494bfb61012006f06afeb8618d
:100a2c00fb691b780133dab2fb691a70b9690120d2
:100a3c0006f06dfb3b7a012b17d1414bdb68002b89
:100a4c0009d03f4bdb68787a7a89083a91b27a6898
:100a5c0008329847ade03b4b1b68002b00f0a98097
:100a6c00384b1b683b489847a3e03b7a022b17d1c5
:100a7c00334b1b69002b09d0314b1b69787a7a896f
:100a8c00083a91b27a680832984792e02d4b1b686d
:100a9c00002b00f08e802b4b1b682f48984788e06a
:100aac003b7a042b16d1264b5b69002b09d0244bc7
:100abc005b69787a7a89083a91b27a6808329847f1
:100acc0077e0204b1b68002b73d01e4b1b68234810
:100adc0098476ee03b7a062b16d1194b1b6a002bfc
:100aec0009d0174b1b6a787a7a89083a91b27a68de
:100afc00083298475de0134b1b68002b59d0114b03
:100b0c001b681748984754e03b7a072b2cd10c4ba9
:100b1c009b69002b09d00a4b9b69787a7a89083a31
:100b2c0091b27a680832984743e0064b1b68002b59
:100b3c003fd0044b1b680b4898473ae01b1400202d
:100b4c000000002028000020080d0000300d0000df
:100b5c004c0d00008c0d0000b00d0000d40d0000f9
:100b6c00f80d00001c0e00003b7a052b16d13f4bf4
:100b7c005b6a002b09d03d4b5b6a787a7a89083a1c
:100b8c0091b27a680832984713e0394b1b68002bf6
:100b9c000fd0374b1b68374898470ae0344b1b681b
:100bac00002b03d0324b1b68334898476ff005037a
:100bbc0058e02e4b9b78dbb2002b16d02c4b1b68cd
:100bcc00002b06d02a4b1b683a7a11467a7a2b48ae
:100bdc00984705f0dffa034687f82f3097f92f3046
:100bec00002b02d097f92f303ce000233ae0204b49
:100bfc001b68002b03d01e4b1b6821489847fe2313
:100c0c0087f82f301ce01a4b1b68002b15d0184ba3
:100c1c001b68fa6811461b4898470ee0144b1b687a
:100c2c00002b0cd0124b1b681748984707e000bfed
:100c3c0006e000bf04e000bf02e000bf00e000bf20
:100c4c00124b7b61012006f054fd38617b691b78e7
:100c5c000133dab27b691a703969012006f057fa50
:100c6c0097f92f3018463437bd4690bd0000002050
:100c7c0028000020400e0000640e0000800e0000d2
:100c8c00b00e0000c40e0000e00e00001b1400208b
:020000040000fa
:100c9c00536c6f77696e6720646f776e2e2e2e0af9
:100cac00000000bf28484946294661696c656420ec
:100cbc00746f2077616b657570207468652063684c
:100ccc0069700d0a000000bf484946206d657373ba
:100cdc00616765206c656e6774682028256429201f
:100cec0065786365656473206d6178206c656e67eb
:100cfc00746820282564290d0a0000bf28686966dd
:100d0c002920574946495f484f53545f5243565f19
:100d1c004354524c5f3120627573206661696c0dcf
:100d2c000a0000bf286869662920616464726573d3
:100d3c007320627573206661696c0d0a000000bf38
:100d4c00286869662920436f727275707465642017
:100d5c007061636b65742053697a65203d2025753d
:100d6c00203c4c203d2025752c2047203d2025750e
:100d7c002c204f50203d20253032583e0d0a0000cb
:100d8c00574946492063616c6c6261636b206973df
:100d9c00206e6f7420726567697374657265640d7b
:100dac000a0000bf536f636b65742063616c6c62e7
:100dbc0061636b206973206e6f7420726567697351
:100dcc0074657265640d0a004f74612063616c6c0c
:100ddc006261636b206973206e6f74207265676942
:100dec007374657265640d0a000000bf43727970fc
:100dfc00746f2063616c6c6261636b206973206e2d
:100e0c006f7420726567697374657265640d0a008e
:100e1c005369676d612063616c6c6261636b2069ff
:100e2c0073206e6f74207265676973746572656484
:100e3c000d0a000053534c2063616c6c6261636b50
:100e4c00206973206e6f74207265676973746572a4
:100e5c0065640d0a000000bf286869662920696e68
:100e6c0076616c69642067726f75702049440d0a55
:100e7c00000000bf286869662920686f73742061c0
:100e8c007070206469646e277420736574205258e6
:100e9c0020446f6e65203c25753e3c25583e0d0a5e
:100eac00000000bf28686966292057726f6e6720a2
:100ebc0073697a650d0a0000286869662920466105
:100ecc006c736520696e7465727275707420256c14
:100edc00780d0a002868696629204661696c65648a
:100eec0020746f207265616420696e74657272750e
:100efc007074207265670d0a000000bf286869666f
:100f0c0029204641494c20746f2077616b657570c0
:100f1c002074686520636869700d0a00286869662a
:100f2c0029204661696c20746f2068616e646c6561
:100f3c0020696e74657272757074202564207472e9
:100f4c007920616761696e2e2e0d0a002068696632
:100f5c005f726563656976653a20496e76616c6986
:100f6c006420617267756d656e740d0a000000bfb8
:100f7c0041505020526571756573746564205369d6
:100f8c007a65206973206c61726765722074686180
:100f9c006e2074686520726563656976656420628d
:100fac0075666665722073697a65203c25753e3cd2
:100fbc00256c753e0d0a000041505020526571752c
:100fcc006573746564204164647265737320626533
:100fdc00796f6e64207468652072656365697665e7
:100fec0064206275666665722061646472657373f1
:100ffc0020616e64206c656e6774680d0a0000bf1a
:0c100c00475270203f2025640d0a0000b0
:020000040000fa
:101018002de9f04f099f15469c4604468846002b4b
:1010280040f0cd808a424cd9b2fa82febef1000f60
:101038000bd0cef1200802fa0ef520fa08f801fad2
:101048000ef248ea020800fa0ef44fea1549abb26c
:10105800b8fbf9fa260c09fb1a820afb03fb46eadd
:10106800024293451ed952190af1ff3004d2934522
:1010780002d9aaf102002a44a2eb0b02a4b2b2fbe5
:10108800f9f609fb162206fb03f144ea02439942ea
:101098000ad95b1906f1ff3207d2994205d9b21e67
:1010a8002b4402e05046e7e732465b1a42ea00402a
:1010b80027b123fa0ef33b6000237b606146bde84d
:1010c800f08f12b90125b5fbf2f5b5fa85febef130
:1010d800000f2ed14a1b4ff0010c2e0cabb2b2fb05
:1010e800f6f8210c06fb182208fb03f941ea024234
:1010f800914560d9521908f1ff3004d2914502d9bf
:10110800a8f102002a44a2eb0902a4b2b2fbf6f845
:1011180006fb182208fb03f144ea024399424cd922
:101128005b1908f1ff32c0d29942bed9a8f1020278
:10113800b6e7cef1200421fa04fc01fa0ef220faf7
:1011480004f405fa0ef544ea02064fea154800fad7
:101158000ef4bcfbf8f1aab208fb11cc300c01fb71
:1011680002f940ea0c43994521d95b1901f1ff3096
:1011780003d2994501d9881e2b44a3eb0903b6b2c3
:10118800b3fbf8f908fb193309fb02f146ea0342fd
:1011980091420ed9521909f1ff3c04d2914202d969
:1011a800a9f1020c2a44521a4cea004c95e7084669
:1011b800e3e7cc46f7e74046a5e7424675e78b42aa
:1011c80006d90fb187e803004ff0000c604675e7b9
:1011d800b3fa83f68eb98b4201d382420bd8841ab4
:1011e80061eb030201209046002f6bd087e81001c5
:1011f8004ff0000c62e73046f6e7c6f1200eb34028
:1012080022fa0ef51d4321fa0efb02fa06f401fa42
:1012180006f220fa0ef10a434fea15491ffa85f83b
:10122800bbfbf9fa4fea124c09fb1abb0afb08f19f
:101238004cea0b4c614500fa06f33fd91ceb050c50
:101248000af1ff3004d2614502d9aaf10200ac4488
:10125800aceb010c92b2bcfbf9fa09fb1acc0afb05
:1012680008f842ea0c4188452ad949190af1ff329f
:1012780004d2884502d9aaf10202294442ea004070
:10128800a1eb0801a0fb04894945c246cc4602d31c
:1012980006d1434504d2b8eb040a69eb050c0138c2
:1012a80087b1b3eb0a0261eb0c0303fa0efef240be
:1012b8004eea0202f34087e80c0099e75046c7e778
:0812c8005246dbe7bc46f9e6e3
:020000040000fa
:1012d000c01300201c00000000000000601200206d
:1012e0006000000000000000a013002020000000ab
:1012f00000000000ec1300200400000001000000ca
:10130000ffffffff18140020010000000000000094
:10131000191400200100000000000000f01300205c
:101320000400000000000000f4130020040000008e
:10133000000000001a14002001000000000000005e
:101340001b1400200100000000000000000000202d
:1013500028000000000000001c1400200100000014
:1013600000000000f813002004000000000000004e
:101370001414002002000000010000000001000021
:101380001d14002001000000000000001e140020b9
:101390000100000000000000dc100020f40000004c
:1013a00000000000280000200400000000000000f1
:1013b000c0120020400000000000000000130020c8
:1013c00040000000000000002c0000204000000051
:1013d000000000006c000020c000000000000000c1
:1013e0001f14002001000000000000002c0100205c
:1013f0002c00000000000000580100203000000018
:10140000000000008801002008000000000000002b
:10141000401300203800000000000000bc0900203c
:10142000200300000000000016140020020000004d
:1014300001000000010000007813002028000000d7
:1014400000000000d011002090000000000000000b
:10145000900100200c00000000000000dc130020c0
:101460001000000000000000201400200100000017
:1014700000000000dc0c0020000200000000000062
:10148000fc130020040000000000000000140020f5
:10149000040000000000000004140020040000000c
:1014a00000000000dc0e0020000200000000000030
:1014b0000814002004000000000000000c140020ac
:1014c00004000000000000001014002004000000d0
:1014d00000000000a00100201c0800000000000027
:1014e0009c0100200200000000000000000000003d
:1014f0000000000022222222222222222222222254
:020000040000fa
:101500002de9f04f87b000af786039600023fb759c
:1015100000233b610023fb607b4b93f82c30dbb254
:10152000002b04d1784b1b7ddbb2002b01d0fb7d5f
:10153000e5e07b68002b14bf01230023dab27b684f
:101540001b68002b14bf01230023dbb21340dbb266
:10155000002b00f0d3803b68002b02d106f066fa26
:1015600038607b681b681a013b689a421ad87b680e
:101570001b684ff000044fea045b4bea133b4fea51
:10158000035a3b684ff000041a462346504659461a
:1015900005f094fd03460c46c3f580333b61002300
:1015a000fb604be07b681b68da003b689a421ad804
:1015b0007b681b684ff000044feac44949ea53397d
:1015c0004feac3483b684ff000041a4623464046a2
:1015d000494605f073fd03460c46c3f580333b6175
:1015e0000223fb602ae07b681a6813465b001a44fa
:1015f0003b689a4222d87b681b6819464ff000026c
:101600000b461446db1844eb04045b1844eb02045d
:10161000260446ea13461d042b4634461846214646
:101620003b684ff000041a46234605f047fd034689
:101630000c46c3f580333b610423fb603b69002b00
:101640005cd0324a314b1b6823f00203136000bfa9
:101650002e4bdb69002bfbd12c4b3a6992b29a815d
:101660007b685b68022b18d12849284b1b6823f044
:10167000706323f46043fa68520392b213430b6021
:101680002248224b5b6823f007027b6899687b68dd
:10169000db680b43134343601ee01c491b4b1b6874
:1016a00023f0706323f46043fa68520392b2134349
:1016b00043f080730b601549144b5b6823f40053af
:1016c00023f007037a6892681a437b68db681a4341
:1016d0007b685b6813434b6000bf0c4bdb69002bde
:1016e000fbd10a4a094b1b6843f00203136000bf99
:1016f000064bdb69002bfbd10123fb75fb7d1846f4
:101700001c37bd46bde8f08f58010020000400439f
:020000040000fa
:1017100080b58cb000af78603960754bbb62bb6a36
:1017200004337b62002387f82f30002387f82e30a4
:10173000002387f82d307b68002b02d03b68002bfc
:1017400001d10023d0e06b4bbb614ff6ff73fb82ee
:10175000bb691b78012b04d1bb6900221a700123dd
:1017600000e00023012b40f0be8002f02bfe024679
:101770003b681344b3f5007f06d95e4b3b613b6980
:1017800001221a700023afe05b4b1a683b681344d8
:10179000b3f5007f24d97b683b62574b1b68c3f5c8
:1017a0000073fb61544b1b68544a1344fa69396a4d
:1017b000184606f026f93a6afb6913443b623a6818
:1017c000fb69d31a3b603a68396a4c4806f019f94c
:1017d000494a3b6813603a68fb6913443b600ee07a
:1017e000454b1b68454a13443a687968184606f029
:1017f00008f9414b1a683b6813443f4a1360bb6abf
:101800001b78002b09d0bb6a5b681bb2184605f039
:101810007bf9034687f82f301be07b6a1b68b3f126
:10182000ff3f08d07b6a1b681bb2184605f06cf9b5
:10183000034687f82e307b6a5b68b3f1ff3f08d020
:101840007b6a5b681bb2184605f05ef9034687f8b1
:101850002d302b4b1a683b681344294a1360bb6a2e
:101860001b78002b0ad097f82f30002b24d0bb6aae
:101870005b681bb2184605f003fb1de097f82e309d
:10188000002b0ad07b6a1b68b3f1ff3f05d07b6a4f
:101890001b681bb2184605f0f3fa97f82d30002ba1
:1018a0000ad07b6a5b68b3f1ff3f05d07b6a5b6857
:1018b0001bb2184605f0e4fa124bdb699847034661
:1018c00083f00103dbb2002b08d00e4b9b690e4a5c
:1018d00012680a490a44012110469847054bfb60eb
:1018e000fb6801221a70012318463037bd4680bdbf
:1018f000a47800002014002008140020dc0e002032
:0c19000010140020e47300000c14002000
:020000040000fa
:10190c0080b586b000af786000237b617b689b69f3
:10191c00dab213469b001344db0018467b689b69c4
:10192c001b0adab26b4913465b0013445b010b4490
:10193c000c331b6803443b613b691b881a461346f6
:10194c005b0013445b01634a1344fb60fb68002299
:10195c00da63fb6800221a647b681a697b68db68af
:10196c009a4207d37b681a697b68db68d21afb68da
:10197c00da6306e07b68da687b681b69d21afb685d
:10198c001a64fb6893f92c30dbb27a68524918461a
:10199c0005f0daf9fb6893f92d30dbb27a684f4920
:1019ac00184605f0d1f93b699b69002b0ed1fb68f9
:1019bc0093f92d300021184605f0a6f9fb6893f930
:1019cc002c300021184605f09ff90fe0fb6893f9c5
:1019dc002d304ff48071184605f096f9fb6893f999
:1019ec002c304ff48071184605f08ef97b681b691a
:1019fc00002b1ad1fb6893f92d30002200211846d8
:101a0c0004f0f2fffb681b6c7b61fb6800221a641c
:101a1c00fb6893f92d30d8b2fb68596bfb6803f166
:101a2c0038027b6901f092fc14e0fb6893f92d30cd
:101a3c004ff400620021184604f0d6fffb6893f9be
:101a4c002d30d8b2fb68596b7b685a687b681b6970
:101a5c0001f07cfc7b68db68002b18d1fb6893f9e8
:101a6c002c3000220021184604f0befffb68db6b13
:101a7c007b61fb680022da63fb6893f92c30d8b2e7
:101a8c00fb681a6b7b69164901f060fc1ee0fb6871
:101a9c0093f92c3000224ff48061184604f0a4ff17
:101aac00fb681b6c002b03d07b681b697b6102e01d
:101abc007b68db687b61fb6893f92c30d8b27b6860
:101acc009968fb681a6b7b6901f040fc00bf183702
:101adc00bd4680bd601200204d510000a5230000c2
:041aec00a013002023
:020000040000fa
:101af00090b589b000afb9607a603b600346fb7374
:101b00000523fb77fb7b3b75fb7bc33b0c2b00f278
:101b1000a18001a252f823f0d71b0000691b00002e
:101b2000551c0000551c0000a51b0000a51b000053
:101b30001b1c00004d1b0000551c0000551c000024
:101b4000551c0000551c0000931b0000bb681b0cbb
:101b5000dbb27b75bb681b0adbb2bb75bb68dbb253
:101b6000fb750523fb7778e0bb681b0adbb27b754e
:101b700097f83030002b04d07b7d63f07f03dbb21d
:101b80007b75bb68dbb2bb750023fb750523fb7758
:101b900063e0ff237b75ff23bb75ff23fb750523e4
:101ba000fb775ae0bb681b0cdbb27b75bb681b0a7a
:101bb000dbb2bb75bb68dbb2fb753b681b0cdbb2f1
:101bc0003b763b681b0adbb27b763b68dbb2bb76bd
:101bd0000823fb7741e0bb681b0adbb27b7597f8f3
:101be0003030002b04d07b7d63f07f03dbb27b754c
:101bf000bb68dbb2bb757b681b0edbb2fb757b6819
:101c00001b0cdbb23b767b681b0adbb27b767b6806
:101c1000dbb2bb760823fb771fe0bb681b0cdbb293
:101c20007b75bb681b0adbb2bb75bb68dbb2fb759f
:101c30007b681b0edbb23b767b681b0cdbb27b76d2
:101c40007b681b0adbb2bb767b68dbb2fb760923c1
:101c5000fb7702e04ff0ff3331e01b4b1b78002b8a
:101c600013d1fb7f5c1efb7f013b1a4607f1140377
:101c700019467f2005f022f903465b00dab207f12e
:101c80002003234403f80c2c02e0fb7f013bfb778d
:101c9000fb7f9ab207f114031146184605f0f1fada
:101ca0000346002b0ad0094b1b68002b03d0074bbf
:101cb0001b68074898474ff0ff3300e000231846a1
:101cc0002437bd4690bd00bf1d1400202800002011
:041cd0008802000086
:020000040000fa
:101cd40080b487b000aff860b9607a603b600023dd
:101ce400fb7500233b61bb68002b02d0fb68002b13
:101cf40007d13b68002b00f0cf807b68002b00f0fd
:101d0400cb80694b1b7f83f00103dbb2002b00f017
:101d1400c380664b5b6803f00703012b11d1bb68da
:101d2400002b04d0bb6803f00103002b07d13b68f0
:101d3400002b06d03b6803f00103002b01d0fb7d90
:101d4400abe00123fb75584afb681360564a7b6875
:101d54005360554b00225a61534b00229a61524bf7
:101d640000221a61fb68002b03d04f4abb689360c2
:101d740002e04d4b00229a607b68002b03d04a4a54
:101d84003b68d36002e0484b0022da60464b0122f4
:101d94001a7702e0454b9b6a3b61444b1b7edbb2e6
:101da40003f00403002bf5d1404a404b5b8b9bb2fc
:101db40043f004039bb253833c4a3c4b1b7edbb28f
:101dc40063f07f03dbb21376374bda68364b9b68dc
:101dd4009a4206d9344bda68334b9b68d31a324a99
:101de4001361324b5b6803f00703002b1dd12e4bac
:101df4009a692d4b9b689a420ad22c4a2a4b1b683b
:101e04001b789362284b9b690133274a936139e01d
:101e1400254b1b69002b35d0244bff229a62224ba1
:101e24001b69013b204a13612ce01f4b9b685b0834
:101e34001d4a93601c4b1b695b081b4a13611a4bb8
:101e4400db685b08184ad360174b9a69164b9b688a
:101e54009a420ad2154a144b1b681b889362124b90
:101e64009b690133104a93610ce00f4b1b69002bf3
:101e740008d00e4b4ff6ff729a620b4b1b69013b65
:101e8400094a13613b68002b03d0084b04229a755e
:101e940002e0064b01229a75fb7d18461c37bd46ad
:101ea4005df8047b704700bf2c0100200034004023
:020000040000fa
:101eb40090b583b000af00237b6000233b60654b8b
:101ec4009b7ddbb2002b00f0c180624b5b6803f0aa
:101ed40007037b605f4b1b7edbb203f00403042b20
:101ee40023d15c4b9b6a3b605b4b5a695a4bdb6862
:101ef4009a421ad27b68002b0bd1574b5a68564b27
:101f04005b69591c5448416113443a68d2b21a704f
:101f14000be0514b5a68504b5b69591c4e48416168
:101f24005b0013443a6892b21a804a4b1b7edbb2c0
:101f340003f00103012b5ed1464b01221a757b6825
:101f4400002b1ed1444b9a69434b9b689a420bd297
:101f54004048414b1a68404b9b69591c3e4ca16157
:101f640013441b7883622ce03b4b1b69002b28d065
:101f7400384bff229a62384b1b69013b364a136186
:101f84001fe0354b9a69344b9b689a420cd2314816
:101f9400314b1a68304b9b69591c2f4ca1615b0073
:101fa40013441b8883620ce02b4b1b69002b08d065
:101fb400284b4ff6ff729a62274b1b69013b264a56
:101fc4001361254b9a69244b9b689a4207d1224b93
:101fd4001b69002b03d1214b01221a700be01e4b0d
:101fe4005a691d4bdb689a4205d11a4b01229a7536
:101ff400184b04221a75174b1b7edbb203f0020345
:10200400022b1cd1154b1b78002b18d0124b5a698c
:10201400114bdb689a4212d10f4b00221a770d4bf9
:1020240007221a750d4b00221a700b4b1b6a002bea
:1020340005d0094b1b6a084a526a10469847074b59
:102044001b78002b02d0034b02229a7500bf0c3779
:10205400bd4690bd003400402c0100201f14002018
:020000040000fa
:1020640080b58cb000af03460a46fb8013467b71f3
:102074000023bb62fb88002b02d04ff0ff33b8e093
:10208400fa8813465b0013445b015c4a1344bb6249
:10209400bb6a5c333b624ff6ff73fb833b6a1b787e
:1020a400012b04d13b6a00221a70012300e00023b3
:1020b400002b02d14ff0ff339be0bb6a93f9103041
:1020c400022b06d1bb6a1b7883f00103dbb2002b21
:1020d40008d0bb6a5c33bb61bb6901221a704ff044
:1020e400ff3386e0bb6a5b78002b08d0bb6a5c33a5
:1020f4007b617b6901221a704ff0ff3379e0bb6a80
:102104005b68002b0dd07b7903f00803002b08d00b
:10211400bb6a5c333b613b6901221a704ff0ff33a9
:1021240067e00023fb6257e0fa6a13469b001344fe
:10213400db001a46bb6adb6813447b627b6adb788c
:1021440083f00103dbb2002b43d07b6a0122da70f7
:102154007b7903f00803002b02d0bb6a01225a707a
:10216400bb6a5b685a1cbb6a5a60bb6a9b8cfa8860
:10217400d1b2fa6ad2b2184605f029f802467b6a4f
:102184005a62bb6a9b8c184605f037f803461a4618
:10219400bb6a9a84bb6a5c33fb60fb6801221a70d9
:1021a4007b7943f00403dab27b6a9a707b6a00227b
:1021b4005a607b6a00229a607b6aff221a777b6ae4
:1021c400002283f820207b6afa881a807b6a5b6a83
:1021d4000fe0fb6a0133fb62bb6a9a68fb6a9a42ae
:1021e400a2d1bb6a5c33bb60bb6801221a704ff09a
:1021f400ff3318463037bd4680bd00bf6012002053
:020000040000fa
:1022040080b584b000af78607b68002b01d10023d7
:10221400c2e07b6893f80a38052b00f2bc8001a267
:1022240052f823f04122000095220000ad22000064
:10223400452300009b230000812300007b68d3f822
:102244001038184605f07cfbf860fb681b0edab208
:102254007b681a72fb681b0cdab27b685a72fb68e3
:102264001b0adab27b689a72fb68dab27b68da72ac
:102274007b68083304211846fff748fa034683f0c5
:102284000103dbb2002b01d0002385e0012383e0ae
:102294007b68d3f810287b68d3f8143819461046a5
:1022a40005f0d4fa012377e07b68b3f80c38bb60ff
:1022b4001de07b68d3f810087b6808334ff4006294
:1022c400194602f0d5ff0346002b01d0002363e03a
:1022d4007b6808334ff400611846fff717fa03468a
:1022e40083f00103dbb2002b01d0002354e0bb6870
:1022f400b3f5006fddd2bb68002b1fd07b68d3f829
:1023040010087b680833ba68194602f0b1ff034627
:10231400002b01d000233fe07b6803f108027b68b7
:10232400b3f80c3819461046fff7f0f9034683f06a
:102334000103dbb2002b01d000232de001232be0ad
:102344007b68d3f810087b6803f108017b68b3f855
:102354000c381a4602f0d6ff0346002b03d17b68e3
:10236400ac221a7202e07b685a221a727b68083324
:1023740001211846fff7caf903460de07b68d3f83c
:102384001438184602f024fb7b68d3f814287b68c1
:102394005a60012300e0012318461037bd4680bd72
:020000040000fa
:1023a40080b588b000af03463960fb713b68fb61c0
:1023b400fb699b69dab213469b001344db001846a1
:1023c400fb699b691b0adab2574913465b00134445
:1023d4005b010b440c331b680344bb61bb691b8862
:1023e4001a4613465b0013445b014f4a13447b6156
:1023f4007b691b6c002b27d07b6993f92d3000225d
:102404000021184604f0f4fa7b6993f92d30d8b210
:102414007b69596b7b6903f138027b691b6c00f0a3
:1024240099ff7b6993f92c30d8b2fb699a68fb69f0
:102434001b69d1187b691a6b7b691b6c00f08affde
:102444007b6900221a646be000bf7b695b699b684f
:1024540098470346002bf8d1bb6993f91c30b3f1bc
:10246400ff3f0dd0bb6993f91c20bb695b7f002b38
:102474000cbf01230023dbb21946104605f0acf86b
:10248400bb695a6afb699b699a4232d1fb79002b7a
:1024940003d1fb6901221a7505e0fb79012b02d1f6
:1024a400fb69ff221a75fb691b7dfb74fb69db6901
:1024b400fb60786904f0bffabb695b68002b1bd032
:1024c4007b6993f826300133dab27b6983f82620de
:1024d400bb695b68ba69926897f91300f968984711
:1024e4007b6993f82630013bdab27b6983f82620b6
:1024f40002e0786904f09ffa786905f031f9f8612f
:10250400fb69002b0cd0fb695b7d012b08d1f869ba
:1025140002f0f6f8fb6902225a75f869fff7f4f93c
:0c25240000bf2037bd4680bd60120020c3
:020000040000fa
:1025300080b58cb000af78607b68fb62fb6a93f972
:102540000130002b06d0022b3ed0b3f1ff3f00f04c
:102550009b808de0fb6a01225a704f4b1b68002b59
:1025600003d04d4b1b684d489847fb6af133bb6263
:10257000bb6a01221a700123012b0bd0464b1b684a
:10258000002b03d0444b1b6845489847fb6aff2249
:102590005a707ce001f0cefd04f000fd0346002bf4
:1025a0000bd03d4b1b68002b03d03b4b1b683d48b9
:1025b0009847fb6aff225a7069e0fb6a01221a7091
:1025c000fb6a02225a7062e0fb6af1337b624ff6cb
:1025d000ff737b847b6a1b78012b04d17b6a00220a
:1025e0001a70012300e00023012b4fd1fb6adb7836
:1025f000002b36d0fb6af033fb614ff6ff737b8311
:10260000012005f09ef87861fb691b78002b0bd048
:10261000fb691b78013bdab2fb691a70796901200a
:1026200004f0a9fd012304e07969012004f0a3fd71
:102630000023012b15d105f025fa0346002b10d0fd
:10264000fb6af0333b61012005f07bf8f8603b69e1
:102650001b780133dab23b691a70f968012004f083
:102660008afdfb6af133bb60bb6801221a700de082
:10267000094b1b68002b03d0074b1b680a4898477f
:10268000fb6aff225a7002e000bf00e000bf00bffb
:102690003037bd4680bd00bf280000209c5300009d
:0c26a000b4530000d8530000f4530000b5
:020000040000fa
:1026ac0080b588b000af03463960fb800023bb6166
:1026bc003b687b61fb88002b02d04ff0ff33a1e01d
:1026cc00fa88524913465b0013445b010b441b7898
:1026dc00002b02d04ff0ff3394e0fa8813465b00d6
:1026ec0013445b01494a1344bb61bb695c333b61d6
:1026fc003b6901221a700123012b02d04ff0ff33ea
:10270c0080e0bb695d33fb60fb6801221a7001231a
:10271c00012b02d04ff0ff3374e0bb6901221a7019
:10272c007b691a68bb695a617b699b6a1a46bb69eb
:10273c009a617b695a6abb69da61bb6900221a62c9
:10274c007b691a69bb69da607b695a69bb699a60f3
:10275c00bb6900225a60bb6901229a84bb694ff0a5
:10276c00ff329a62bb69002283f82620bb690022e3
:10277c005a707b6993f90420bb6983f82c207b6920
:10278c0093f90520bb6983f82d207b699a68bb6996
:10279c001a637b69da68bb695a637b699a69bb699e
:1027ac005a647b69da69bb699a647b691a6abb698a
:1027bc00da647b69da6abb699a650023fb6107e01e
:1027cc00134afb691344ff221a70fb690133fb6146
:1027dc00fb691f2bf4d9bb6993f92c30b3f1ff3f84
:1027ec0005d0bb6993f92d30b3f1ff3f06d1bb691e
:1027fc005b69db68ba69114606489847bb690222d7
:10280c001a74fb8818462037bd4680bd6012002024
:08281c00a0130020892d00002b
:020000040000fa
:1028240080b584b000af78607b68002b00f0b08086
:102834007b681b78013b032b00f2a18001a252f8b4
:1028440023f000bf592800009b2800001f29000026
:102854002d29000007f10f030121184600f0f2f9b9
:102864000346002b00f08d80fb7b132b10d0a52b8f
:1028740006d0122b00d00ce05b2004f0a0ff08e08f
:102884007b6802221a707b680022a3f8082800e003
:1028940000bf00bf7ae07b68b3f8083808337a6871
:1028a4001a447b68b3f80838c3f10c031946104680
:1028b40000f0c8f901467b68b3f808288bb21344ca
:1028c4009ab27b68a3f808287b68b3f808380c2b05
:1028d40059d17b6808331946786801f065f80346d6
:1028e400002b13d0ac2004f06aff7b68b3f81838cf
:1028f400002b07d07b6804221a707b680022a3f89f
:10290400082843e07b6803221a703fe07b680122b9
:102914001a705a2004f053ff38e07868fff770fc0f
:102924007b6801221a7031e07b68b3f808380833f9
:102934007a681a447b68b3f8183819467b68b3f888
:102944000838cb1a1946104600f07cf901467b681a
:10295400b3f808288bb213449ab27b68a3f808280a
:102964007b68b3f818287b68b3f808389a420cd10e
:102974007868fff745fc7b6801221a7005e000bf08
:1029840004e000bf02e000bf00e000bf00bf00e0c1
:0829940000bf1037bd4680bdf5
:020000040000fa
:10299c0090b589b000aff860b9607a603b600023f5
:1029ac00fb610023bb6100237b617b6b002b00f080
:1029bc0097807b6b4ff0ff321a60f86802f054f985
:1029cc00f861fb69002b00f08d807b68002b02d036
:1029dc00bb68002b07d13b6b002b00f086803b685b
:1029ec00002b00f08280fb691b881a4613465b00a3
:1029fc0013445b013e4a1344bb61b86903f01bffef
:102a0c00034683f00103dbb2002b6dd1f86901f0b2
:102a1c00fbfb78617b69002b03d1b86904f0fffbe9
:102a2c0063e07b693a685a607b69ba689a607b6933
:102a3c0001225a757b6900221a757b69fa689a61c2
:102a4c00bb6993f92c30b3f1ff3f12d0bb6993f9fa
:102a5c002d30b3f1ff3f0cd0fb699b69002b08d0e4
:102a6c007b685a087b69da603b6b5a087b691a6190
:102a7c0005e07b697a68da607b693a6b1a617b697d
:102a8c00da697b6b1a607969b86903f0c5fc034697
:102a9c00002b21d07b6902225a75786901f02cfe3b
:102aac00bb6993f92c30b3f1ff3f09d0bb6993f9a3
:102abc002d30b3f1ff3f03d07869fef721ff0be017
:102acc00bb695b695c687b6998687b69d9687b6961
:102adc005a687b691b69a047b86904f0a0fb04e045
:102aec0000bf02e000bf00e000bf2437bd4690bd30
:042afc006012002044
:020000040000fa
:102b000080b586b000af78600b467b8013467b7043
:102b100000237b740023bb827b88b3f5005f02d85f
:102b20007b887b8202e04ff400537b820a23fb8286
:102b300007f10b030121184604f08dfb0346002b1f
:102b40000ad03b4b1b68002b03d0394b1b6839481c
:102b50009847ff237b740ee0fb7a03f0f003f02b21
:102b600008d0b7f916309ab2013a92b2fa82002b25
:102b7000ded100e000bf97f91130b3f1ff3f50d034
:102b8000b7f91630002b0cdc294b1b68002b05d045
:102b9000274b1b68fa7a114627489847ff237b7416
:102ba00040e0b7f914307a6813447a8a114618461f
:102bb00004f051fb0346002b0ad01d4b1b68002b71
:102bc00003d01b4b1b681d489847ff237b7429e0eb
:102bd0007b78002b17d11a4b1b78002b13d107f1f0
:102be0000c030221184604f036fb0346002b0ad0e2
:102bf0000f4b1b68002b03d00d4b1b6811489847e7
:102c0000ff237b740ee0ba8a7b8a13449bb2bb829b
:102c10007b8a7a88d31a7b807b88002b7ff47caff9
:102c200000e000bf97f9113018461837bd4680bd47
:102c30002800002018030000540300008c0300004b
:082c40001d140020c403000074
:020000040000fa
:102c480080b588b000af78603960494bbb61bb691b
:102c580004337b610023fb770023bb7702f0f4f891
:102c680038613b69002b01d100237de03a683b695c
:102c78009a4201d93b693b603e4b1a683b68134452
:102c8800b3f5007f24d97b68fb603a4b1b68c3f51a
:102c98000073bb60374b1b68374a1344ba68194640
:102ca800f86804f0aafefa68bb681344fb603a6847
:102cb800bb68d31a3b603a682f49f86804f09dfe58
:102cc8002c4a3b6813603a68bb6813443b600ee0cb
:102cd800284b1b68284a13443a681946786804f058
:102ce8008cfe244b1a683b681344224a1360bb6964
:102cf8001b78002b08d0bb695b681bb2184603f031
:102d0800fffe0346fb770ce07b699b68b3f1ff3f4e
:102d180007d07b699b681bb2184603f0f1fe034697
:102d2800bb77164b1a683b68d31a144a1360bb6901
:102d38001b78002b09d0fb7f002b14d0bb695b6884
:102d48001bb2184604f098f80de0bb7f002b0ad0a0
:102d58007b699b68b3f1ff3f05d07b699b681bb219
:102d6800184604f089f83b6818462037bd4680bdf0
:102d7800a478000000140020dc0c002004140020bb
:020000040000fa
:102d880090b589b000af78607b68fb610023bb61b8
:102d980000237b61fb691b7883f00103dbb2002b06
:102da80040f08380fb6993f91030022b7dd1f869dc
:102db80004f0d4fc78617b699b69dab213469b0006
:102dc8001344db0018467b699b691b0adab2394950
:102dd80013465b0013445b010b440c331b6803442c
:102de800bb61bb6993f91c30b3f1ff3f0dd0bb69e0
:102df80093f91c20bb695b7f002b0cbf01230023c8
:102e0800dbb21946104604f0e5fbbb695a6a7b69d8
:102e18009b699a4228d17b6901221a757b691b7dbf
:102e2800fb747b69db69fb60f86903f002febb6930
:102e38005b68002b1bd0fb6993f826300133dab2ac
:102e4800fb6983f82620bb695b68ba69926897f9c1
:102e58001300f9689847fb6993f82630013bdab20a
:102e6800fb6983f8262002e0f86903f0e2fdf869bf
:102e780004f074fc78617b69002b17d07b695b7d5b
:102e8800012b13d1786901f039fc7b6902225a754c
:102e9800fb695b695c687b6998687b69d9687b6951
:102ea8005a687b691b69a04700e000bf2437bd460c
:082eb80090bd00bf6012002074
:020000040000fa
:102ec00090b589b002aff860b9601346fb80fa880c
:102ed0000023009313460022f968c720fef708fe7e
:102ee0000346002b0bd03b4b1b68002b04d0394b07
:102ef0001b68f968384898474ff0ff3366e0c720f1
:102f000000f0d4fc0346002b0bd0324b1b68002b87
:102f100004d0304b1b68f968304898474ff0ff33b6
:102f200054e0fb881946b86800f062f80346002bad
:102f30000ad0284b1b68002b03d0264b1b6828485f
:102f400098474ff0ff3341e0264b1b78002b02d10e
:102f50000223fb7501e00323fb75fb7d9ab207f1a9
:102f600014031146184604f076f90346002b0ad0e4
:102f7000184b1b68002b03d0164b1b681a48984748
:102f80004ff0ff3322e0fb7d013b07f118021344b1
:102f900013f8043c002b08d1fb7d023b07f118021b
:102fa000134413f8043cc32b0fd00a4b1b68002baf
:102fb00008d0084b1c683b7d19467b7d1a46bb7dbb
:102fc0000a48a0474ff0ff3300e0002318461c37a3
:102fd000bd4690bd280000202c05000064050000bf
:102fe000a40500001d140020d40500000006000008
:020000040000fa
:102ff00080b586b000af78600b467b800023fb82f3
:103000000023fb740023bb817b88b3f5005f02d8eb
:103010007b88bb8202e04ff40053bb82f0237b74b9
:10302000b7f91630002b09d17b88b3f5005f02d8c1
:103030000323bb740be00123bb7408e07b88b3f56a
:10304000005f02d80323bb7401e00223bb747a7cc7
:10305000bb7c1343dbb27b7407f1110301211846db
:1030600004f00ff90346002b0ad0264b1b68002bf7
:1030700003d0244b1b6824489847ff23fb743ae095
:10308000b7f916307a681344ba8a1146184604f024
:10309000f8f80346002b0ad01a4b1b68002b03d00c
:1030a000184b1b6819489847ff23fb7423e0184b03
:1030b0001b78002b13d107f10c030221184604f0f2
:1030c000e0f80346002b0ad00e4b1b68002b03d000
:1030d0000c4b1b680f489847ff23fb740be0fa8ae0
:1030e000bb8a13449bb2fb827a88bb8ad31a7b804b
:1030f0007b88002b88d197f9133018461837bd46c6
:1031000080bd00bf28000020000400004004000033
:083110001d1400207c040000e6
:020000040000fa
:1031180080b586b000af78607b689b6d7b617b690a
:1031280004333b617b6893f92c30b3f1ff3f34d013
:103138007b6893f92d30b3f1ff3f2ed07b691b7864
:10314800002b0bd07b695b681bb2184603f0d8fcd8
:1031580003461a467b6883f8562067e004f054f962
:103168000346fb733b69db681bb2184603f0c8fcd7
:1031780003461a467b6883f854203b691b691bb2d7
:10318800184603f0bdfc03461a467b6883f85320b3
:10319800fb7b184604f0a4f948e07b691b78002bf8
:1031a8000bd07b695b681bb2184603f0a9fc034689
:1031b8001a467b6883f8552038e004f025f9034661
:1031c800fb733b691b68b3f1ff3f0ad03b691b687f
:1031d8001bb2184603f094fc03461a467b6883f832
:1031e80050203b695b68b3f1ff3f0ad03b695b68dd
:1031f8001bb2184603f084fc03461a467b6883f822
:1032080051203b699b68b3f1ff3f0ad03b699b683b
:103218001bb2184603f074fc03461a467b6883f811
:103228005220fb7b184604f05bf9ffe700bf183714
:04323800bd4680bd52
:020000040000fa
:10323c0080b584b000af0023fb7300237b600023b8
:10324c003b600023bb603b1d19460b2004f0ecfadd
:10325c000346fb7397f90f30002b62d17b6803f0a8
:10326c000103002b0cd17b6843f0010319460b20a2
:10327c0004f0e8fa0346fb7397f90f30002b52d198
:10328c003b1d1946012004f0cffa0346fb7397f956
:10329c000f30002b49d17b6803f00203002b0cd1bb
:1032ac007b6843f002031946012004f0cbfa034675
:1032bc00fb7397f90f30002b39d13b4619460f2081
:1032cc0004f0b2fa0346fb7397f90f30002b0bd0c6
:1032dc001b4b1b68002b2cd0194b1b6897f90f103c
:1032ec003a681848984724e03b6803f00403002b25
:1032fc0013d1022004f074fbbb680133bb60bb68c4
:10330c00042bdad90e4b1b68002b03d00c4b1b681b
:10331c000d489847fc23fb730ce000bf04f0b3fb93
:10332c0008e000bf06e000bf04e000bf02e000bf01
:10333c0000e000bf97f90f3018461037bd4680bd2e
:0c334c0028000020b8470000d047000017
:020000040000fa
:1033580080b487b000afb9607a603b600346fb7306
:103368000023bb750023fb75fb7b3c4a1b01134400
:103378000c331b78002b6ad1fb7b1b01384a1344a2
:103388003b61fb7b354a1b0113440c3301221a7045
:103398003b691b889bb203f48063002b05d0ba6895
:1033a8003b681a443b695a6002e0ba683b695a6054
:1033b8003b691b889bb203f40063002b05d07a6835
:1033c8003b681a443b699a6002e07a683b699a60f4
:1033d8003b691b889bb21b0adbb203f00303bb7576
:1033e800bb7d3a6822fa03f39ab23b695a801d49b9
:1033f800fb7b1c48fa7b043212010244126842f03b
:10340800020204331b010b441a60164afb7b043387
:103418001b0113441b681b0a03f07f03002b14d104
:10342800104afb7b04331b01134406331b78dbb2c1
:1034380003f04003402b08d00a490a4b1b69fa7b6a
:10344800012000fa02f213430b610123fb75fb7d97
:1034580018461c37bd465df8047b70472c000020d9
:083468000013002000a0004148
:020000040000fa
:1034700080b586b000af78607b689b6d7b617b69af
:1034800004333b617b6893f92c30b3f1ff3f31d0bb
:103490007b6893f92d30b3f1ff3f2bd07b691b780c
:1034a000002b0ad07b695b681ab27b6893f85630b0
:1034b0001946104604f02df861e003f0a9ff034619
:1034c000fb733b69db681ab27b6893f8543019468a
:1034d000104604f01ef83b691b691ab27b6893f82a
:1034e00053301946104604f014f8fb7b184603f0dd
:1034f000fbff44e07b691b78002b0ad07b695b688b
:103500001ab27b6893f855301946104604f001f85a
:1035100035e003f07dff0346fb733b691b68b3f1a5
:10352000ff3f09d03b691b681ab27b6893f85030a3
:103530001946104603f0edff3b695b68b3f1ff3fae
:1035400009d03b695b681ab27b6893f85130194621
:10355000104603f0deff3b699b68b3f1ff3f09d0e3
:103560003b699b681ab27b6893f852301946104643
:1035700003f0cffffb7b184603f0b6ffffe700bf69
:063580001837bd4680bdb6
:020000040000fa
:02358600fee75e
:020000040000fa
:1035880080b483b000af3d4b7b6000233b600023d9
:103598003b6011e07b6800221a707b6800225a6049
:1035a8007b6800229a607b6800221a737b6810335c
:1035b8007b603b6801333b603b68032bead9304ba7
:1035c800304a5a632e4b304a9a632d4b4ff0813262
:1035d8005a612b4b2d4a1a642a4b40f209421a8031
:1035e800274b002283f84520244b01221a70244bd4
:1035f800032283f84d20224b254a1a65214b40f6b9
:1036080009021a821e4b002283f855201b4b012207
:103618001a741b4b032283f85d20194b1b4a1a6648
:10362800184b40f209421a84154b002283f8652092
:10363800124b012283f82020114b032283f86d20be
:103648000f4b134a1a670f4b40f609021a860c4ba8
:10365800002283f87520094b012283f83020084b9b
:10366800032283f87d20064b40f602721a8000bfc1
:103678000c37bd465df8047b704700bf2c00002066
:1036880000a0004100130020c01200200007200005
:043698000006200008
:020000040000fa
:10369c0090b589b000af4ff000034ff00004c7e9bc
:1036ac0006343e4bfb60fb681b6bbb60fb685a69c6
:1036bc00fb681a61bb68002b1ad0bb689b68b3f51a
:1036cc00004f09d3fb685b6903f5ff437f334ff071
:1036dc000004c7e9063414e0bb689b687b60fb6898
:1036ec005a697b6813444ff00004c7e9063408e0bc
:1036fc00fb685b6903f5ff437f334ff00004c7e9b8
:10370c000634fb685b689b69984703469bb24ff095
:10371c000004c7e90434fb681b694ff00004d7e9c7
:10372c000412a24208bf99420ad2d7e904344ff6d8
:10373c00ff714ff000025b1844eb0204c7e904343c
:10374c00fb681b6a19464ff00002d7e904345b187a
:10375c0044eb0204d7e90612a24208bf994206d2f2
:10376c00fb681a6a3b691a44fb68da6102e0ba69c1
:10377c00fb68da61fb68db699bb2002b02d1fb684a
:10378c000122da61fb685b685b69fa68d26992b204
:10379c001046984700bf2437bd4690bd401300200b
:020000040000fa
:1037ac000009121b242d363f48415a536c657e7715
:1037bc0019100b023d342f265158434a757c676e05
:1037cc00323b2029161f040d7a7368615e574c45f5
:1037dc002b2239300f061d14636a7178474e555ce5
:1037ec00646d767f4049525b2c253e3708011a13d5
:1037fc007d746f6659504b42353c272e1118030ac5
:10380c00565f444d727b60691e170c053a332821b4
:10381c004f465d546b627970070e151c232a3138a4
:10382c004148535a656c777e09001b122d243f3694
:10383c0058514a437c756e671019020b343d262f84
:10384c00737a6168575e454c3b3229201f160d0474
:10385c006a6378714e475c55222b3039060f141d64
:10386c00252c373e0108131a6d647f7649405b5254
:10387c003c352e2718110a03747d666f5059424b44
:10388c00171e050c333a21285f564d447b72696034
:10389c000e071c152a233831464f545d626b707924
:020000040000fa
:1038ac0080b584b000af0346fb71fb79cf2b0bd1f5
:1038bc0007f10e030121184603f0c7fc0346002b49
:1038cc0002d04ff0ff3361e00a23fb7307f10e03c4
:1038dc000121184603f0b9fc0346002b0ad02d4bee
:1038ec001b68002b03d02b4b1b682b4898474ff0c1
:1038fc00ff334be0bb7bfa799a4207d097f90f3034
:10390c00dab2013ad2b2fa73002bdfdc97f90f303e
:10391c00002b0ada1f4b1b68002b03d01d4b1b68b6
:10392c001e4898474ff0ff3330e00a23fb7307f132
:10393c000e030121184603f088fc0346002b0ad025
:10394c00144b1b68002b03d0124b1b681248984772
:10395c004ff0ff331ae0bb7b002b07d097f90f30e9
:10396c00dab2013ad2b2fa73002be0dc97f90f30dd
:10397c00002b0ada074b1b68002b03d0054b1b6886
:10398c00064898474ff0ff3300e0002318461037e5
:10399c00bd4680bd28000020b4020000ec020000ef
:020000040000fa
:1039ac0080b485b000af786039607b68002b02d0a2
:1039bc003b68002b01d100236ce00023fb73002338
:1039cc00bb7309e0bb7b3a6813441a78fb7b53400a
:1039dc00fb73bb7b0133bb73bb7b0b2bf2d9fb7b28
:1039ec00002b01d0002355e03b681a787b6883f8e4
:1039fc000a283b6803331b781b021ab23b6802335c
:103a0c001b781bb213431bb29ab27b68a3f80c2829
:103a1c003b6807331b781a063b6806331b781b047c
:103a2c001a433b6805331b781b0213433a68043274
:103a3c0012781a437b68c3f810283b680b331b7849
:103a4c001a063b680a331b781b041a433b6809337c
:103a5c001b781b0213433a68083212781a437b68ae
:103a6c00c3f814287b6893f80a38032b0dd17b68b4
:103a7c00b3f80c287b68a3f818287b68b3f81838bf
:103a8c00b3f5006f05d9002304e07b680022a3f88e
:103a9c001828012318461437bd465df8047b70477f
:020000040000fa
:103aac0080b582b000af00233b60364b00221a7009
:103abc003b4619464ef6240001f05efa0346002bf5
:103acc001ed0304b01221a702f4b1b68002b03d0d9
:103adc002d4b1b682d4898473b4619464ef6240043
:103aec0001f04afa0346002b0ad0274b1b68002b27
:103afc0003d0254b1b68264898476ff005033de023
:103b0c00204b1b78002b22d13b6823f00c033b602d
:103b1c003b6823f070033b603b6843f050033b6011
:103b2c003b6819464ef6240001f072fa0346002b4e
:103b3c000ad0154b1b68002b03d0134b1b68154880
:103b4c0098476ff0050319e00e4b01221a703b1dcc
:103b5c0019464ff4805001f00ffa0346002b0ad09f
:103b6c00094b1b68002b03d0074b1b680a4898476e
:103b7c006ff0050302e003f0f1f900231846083753
:103b8c00bd4680bd1d140020280000207c070000cd
:0c3b9c00d40700000808000040080000ea
:020000040000fa
:103ba80090b48ab000af78604ff000034ff0000483
:103bb800c7e90834384b3b613b691b6bfb61002349
:103bc800bb610023fb757b68002b01d1fb7d5de0a9
:103bd8007b689b68fb60fb69002b2ad17b68fa68cd
:103be8009a603b697a681a630123fb754de0fb69ab
:103bf8009b6819464ff00002d7e908345b1844eb7c
:103c08000204fa6811464ff00002a24208bf994226
:103c180013d3fb699b684ff00004d7e908125b18bf
:103c280044eb0204c7e90834fb69bb61fb699b6983
:103c3800fb61fb69002bdad100e000bfbb69002bf8
:103c480008d13b697a681a637b68fa699a6101232b
:103c5800fb7506e0bb699a697b689a61bb697a68fb
:103c68009a613b6afa68d21a7b689a607b689b699a
:103c7800002b0ad07b689b68fb607b689b697a682d
:103c880092699168fa688a1a9a60fb7d1846283703
:0c3c9800bd4690bc704700bf40130020e8
:020000040000fa
:103ca40080b588b000aff860b9607a603b604ff0cf
:103cb400ff33fb6100237b6102f0e0fb034683f0ea
:103cc4000103dbb2002b01d0fb6958e02e4b93f9c2
:103cd4000030022b50d1bb68002b4dd0ba68fb6872
:103ce4009a4249d3294bbb6142e0bb691b7883f0fc
:103cf4000103dbb2002b35d0bb6901221a70bb690a
:103d040000225a70bb6900221a75bb6900225a75d9
:103d1400bb6997f828209a70bb69ba685a60bb6976
:103d24007a68da60bb693a681a61ba68fb68d21ac1
:103d3400bb699a60164b1b887a6992b21146184681
:103d440003f081fc0246bb69da61114b1b881846fb
:103d540003f072fb03461a460d4b1a80bb69db69fc
:103d6400fb6109e07b6901337b61bb692033bb6183
:103d7400bb69084a9342b8d303f0d8f8fb691846e4
:103d84002037bd4680bd00bf40130020bc09002081
:083d940016140020dc0c0020d5
:020000040000fa
:103d9c0080b582b000af314b1b68002b57d12f4937
:103dac004ff4805003f040fd0346002b04d02b4b06
:103dbc0000221a6000234ce03b1d194641f2f430fe
:103dcc0003f032fd0346002b04d0244b00221a6072
:103ddc0000233ee0214b1b68214a934206d17b68ad
:103dec00012b28d01d4b1f4a1a6024e01b4b1b686b
:103dfc001d4a93420dd17b68032b1cd07b68042b8e
:103e0c0003d1164b194a1a6015e0144b184a1a6064
:103e1c0011e0124b1b68174a93420cd10f494ff417
:103e2c006c1003f001fd0346002b04d00b4b002259
:103e3c001a6000230de0094b1b6823f47023074a1a
:103e4c001360064b1b6843f4a023044a1360034b16
:103e5c001b6818460837bd4680bd00bff81300200c
:103e6c00a0021000a1021000b0021000b10210005c
:083e7c00b2021000f00010007a
:020000040000fa
:103e840080b500af042002f0fffcbff35f8f62b681
:103e94000721102002f0a0fb102002f077ff072179
:103ea4001f2002f099fb1f2002f070ff0721202041
:103eb40002f092fb202002f069ff0721212002f08a
:103ec4008bfb212002f062ff0721222002f084fbf9
:103ed400222002f05bff0721232002f07dfb232038
:103ee40002f054ff0721322002f076fb322002f068
:103ef4004dff0721332002f06ffb332002f046ff11
:103f04000721342002f068fb342002f03fff072130
:103f1400352002f061fb352002f038ff07214220f2
:103f240002f05afb422002f031ff0721432002f045
:103f340053fb432002f02aff0721442002f04cfbec
:103f4400442002f023ff0721452002f045fb4520d1
:103f540002f01cff07216b2002f03efb6b2002f0f5
:063f640015ff00bf80bd47
:020000040000fa
:103f6c0080b400af354a354b1b78dbb243f001030c
:103f7c00dbb2137000bf314b5b6803f00103012b04
:103f8c00f9d02e4b4ff40032da612c4b00221a621e
:103f9c002a4b10221a612a4b10221a72284b10221b
:103fac001a75274b102283f82020254b102283f8fa
:103fbc002c20234b042283f83820214b102283f829
:103fcc0044201f4b102283f850201d4b102283f8e5
:103fdc005c201b4b102283f86820194b102283f8ad
:103fec007420174b102283f88020154b102283f875
:103ffc008c20134b102283f89820114b102283f83d
:10400c00a4200f4b102283f8b0200d4b102283f804
:10401c00bc200a4a094b1b78dbb243f00203dbb22b
:10402c00137000bf054b5b6803f00203022bf9d041
:10403c0000bfbd465df8047b704700bf0028004000
:04404c006c000020e4
:020000040000fa
:1040500080b485b000af786039600023bb60002376
:10406000fb733b68002b01d1304b3b60304a304b37
:104070001b6823f00203136000bf2d4bdb69002b8c
:10408000fbd17b68002b3fd07b681b685b003a68e4
:10409000b2fbf3f3013bbb60bb68002b14bf0123f1
:1040a0000023dab2bb68ff2b94bf01230023dbb2ed
:1040b0001340dbb2002b27d01d4a1d4b1b6823f099
:1040c000405313601a481a4b1a687b6899687b68da
:1040d0005b680b4313430360154bba68d2b21a7383
:1040e000134a134b5b6823f0070353601049104bce
:1040f0005a687b68db6813434b6000bf0c4bdb697d
:10410000002bfbd10123fb73094a094b1b6843f0c9
:104110000203136000bf064bdb69002bfbd1fb7b66
:1041200018461437bd465df8047b7047008793033b
:044130000034004017
:020000040000fa
:1041340080b586b000af304b7b610123fb740a234a
:10414400bb7400237b74012003f0c6faf860fb7c87
:10415400012b03d17b697a7c1a7002e07b6901220e
:104164001a70f968012002f0bfff0123012b3dd131
:10417400224bbb600123fb710a23bb7100237b71bb
:10418400012003f0a9fa3860fb79012b03d1bb6845
:104194007a791a7002e0bb6801221a70396801202a
:1041a40002f0a2ff0123012b22d1154b1b68b3f1ae
:1041b400ff3f13d103210020fdf752ff0246104bad
:1041c4001a600f4b1b68b3f1ff3f07d10d4b1b68ff
:1041d400002b03d00b4b1b680b489847084b1b68fc
:1041e40000220a49184601f0a3fd02e000bf00e0e6
:1041f40000bf1837bd4680bd1814002019140020d4
:10420400ec13002028000020187a0000815a0000d6
:020000040000fa
:1042140090b587b000af78607b681b881a46134658
:104224005b0013445b012f4a13443b613b699b6968
:10423400fb6000237b614ae07a691346db00134488
:104244009b001a46fb6813441b7883f00103dbb21e
:10425400002b39d07a691346db0013449b001a46bd
:10426400fb68134401221a707a691346db00134475
:104274009b001a46fb68134400221a627a691346ab
:10428400db0013449b001a46fb689c183b69988c1e
:104294007b681b88dbb27a69d2b2194602f097ffb9
:1042a4000346e3613b699b8c184602f0a6ff034674
:1042b4001a463b699a847a691346db0013449b00cf
:1042c4001a46fb68134408e07b6901337b613b6950
:1042d400da697b699a42afd8002318461c37bd4679
:0842e40090bd00bf6012002034
:020000040000fa
:1042ec0090b58db000aff860b9601346fb800a231f
:1042fc0087f82f3000233b7500237b752b4b7b629b
:10430c004ff6ff737b847b6a1b78012b04d17b6a8d
:10431c0000221a70012300e00023012b02d06ff061
:10432c0005033fe0fb88012b05d10223fb8007f13d
:10433c001403bb6228e0bb68bb6225e0fb881a460d
:10434c00b96af86800f0ecfb0346002b0ed1174b52
:10435c00fb61fb6901221a7007f11403ba6a9a42d5
:10436c0002d13a7dbb681a7000231be0104b1b680e
:10437c00002b07d00e4b1c6897f82f10fb88fa689f
:10438c000c48a04702f0dafe97f82f305a1e87f837
:10439c002f20002bd2d1054bbb61bb6901221a70b7
:1043ac006ff0050318463437bd4690bd1e1400202f
:0843bc0028000020a008000009
:020000040000fa
:1043c40080b584b000af324bbb60bb6804337b6004
:1043d4000023fb730023bb7300237b73bb681b7830
:1043e400002b08d0bb685b681bb2184602f08afb3e
:1043f4000346fb7319e07b681b68b3f1ff3f07d0ea
:104404007b681b681bb2184602f07cfb0346bb7337
:104414007b685b68b3f1ff3f07d07b685b681bb2c6
:10442400184602f06ffb03467b731a4b1b683b6014
:10443400bb681b78002b09d0fb7b002b22d0bb6808
:104444005b681bb2184602f019fd1be0bb7b002b16
:104454000ad07b681b68b3f1ff3f05d07b681b68fb
:104464001bb2184602f00afd7b7b002b0ad07b6846
:104474005b68b3f1ff3f05d07b685b681bb21846ed
:1044840002f0fcfc3b6818461037bd4680bd00bff7
:08449400a478000010140020c0
:020000040000fa
:10449c0080b586b002af78603960ca23fb73002305
:1044ac00bb737b68ff2b03d8c423fb730123bb7343
:1044bc00f87bbb7b0093042300227968fdf712fb89
:1044cc000346002b0bd0234b1b68002b04d0214b35
:1044dc001b687968204898474ff0ff3335e0fb7b29
:1044ec001846fff7ddf90346002b0bd0194b1b6860
:1044fc00002b04d0174b1b687968184898474ff06d
:10450c00ff3322e0ba7b07f1080304211846fef7bb
:10451c00f1fa0346002b0ad00e4b1b68002b03d07c
:10452c000c4b1b680e4898474ff0ff330de03b7a5d
:10453c001a467b7a1b021a43bb7a1b041a43fb7a7a
:10454c001b061a433b681a60002318461037bd46f9
:10455c0080bd00bf280000203c0600007006000053
:04456c00ac06000099
:020000040000fa
:1045700080b586b000af78602e4b7b617b683b6175
:104580003b691a687b695a607b695b68db6898479e
:1045900002467b69da607b69db68274ab2fbf3f38a
:1045a000fb60bc22fb6892fbf3f302331a467b6983
:1045b0001a623b69b3f904207b691a817b69002286
:1045c0001a617b694ff6ff729a617b6947f6ff7249
:1045d000da617b6900225a627b6900229a627b69f8
:1045e00000221a637b69002283f82c207b695b68b8
:1045f0001b680021114898477b695b681b69002b89
:1046000007d07b695b681b697a69926992b2104630
:1046100098477b695b685b697a69d26992b2104698
:1046200098477b695b685b68984700bf1837bd4651
:1046300080bd00bf40130020000e27077557000003
:020000040000fa
:1046400080b582b000af0023fb713b4619461020b5
:1046500003f0f0f80346fb7197f90730002b44d1c3
:104660003b6803f00103002b00d0eee700bf3b46a0
:104670001946012003f0def80346fb7197f9073075
:10468000002b34d13b6803f00203002b0ed03b68b3
:1046900023f002033b603b681946012003f0d8f881
:1046a0000346fb7197f90730002b22d13b46194690
:1046b0000b2003f0bff80346fb7197f90730002b7e
:1046c00019d13b6803f00103002b15d03b6823f0a0
:1046d00001033b603b6819460b2003f0b9f8034621
:1046e000fb7197f90730002b06e000bf04e000bf24
:1046f00002e000bf00e000bf97f907301846083716
:04470000bd4680bd75
:020000040000fa
:1047040080b584b000af78607b689b69dab21346e9
:104714009b001344db0018467b689b691b0adab2d2
:10472400234913465b0013445b010b440c331b68a1
:104734000344fb60fb681b881a4613465b00134462
:104744005b011b4a1344bb607b689a69bb689b6a24
:104754009a4204d1fb6893f82030002b0fd0bb6839
:104764005b691b68fa680c320021104698477b6825
:104774009a69bb689a62fb68002283f82020fb6870
:1047840093f91c30b3f1ff3f0dd0fb6893f91c2063
:10479400fb685b7f002b14bf01230023dbb21946a7
:1047a400104602f019ff00bf1037bd4680bd00bfa0
:0447b400601200206f
:020000040000fa
:1047b800427573206572726f72202835292e256420
:1047c8002025780a000000bf4661696c6564207482
:1047d8006f2077616b652075702074686520636849
:1047e80069700d0a000000bf4472697665725665eb
:1047f80072496e666f3a2030782530386c780d0a29
:10480800000000bf6661696c656420746f20646590
:104818002d696e697469616c697a650d0a0000bf5b
:104828005b70756c6c75705f6374726c5d3a206652
:1048380061696c656420746f20726561640d0a009b
:104848005b70756c6c75705f6374726c5d3a206632
:1048580061696c656420746f2077726974650d0aec
:10486800000000bf5b6e6d692073746172745d3afd
:10487800206661696c20696e6974206275730d0a1f
:10488800000000bf4368697020494420256c780dfa
:104898000a0000bf6661696c656420746f20656eec
:1048a80061626c6520696e74657272757074732ebe
:1048b8002e0d0a005b6e6d692073746f705d3a206f
:1048c800636869705f6465696e6974206661696ca4
:1048d8000d0a00005b6e6d692073746f705d3a207d
:1048e80053504920666c6173682064697361626c17
:1048f80065206661696c0d0a000000bf5b6e6d691a
:104908002073746f705d3a206661696c20696e6906
:0849180074206275730d0a00a2
:020000040000fa
:1049200090b58bb000aff860b9601346fb800a23e6
:1049300087f82730244b3b624ff6ff73fb833b6abb
:104940001b78012b04d13b6a00221a70012300e07e
:104950000023012b02d06ff0050331e0fb88012b0f
:1049600020d10223fb801de0fb881a46b968f86855
:10497000fef7a6fa0346002b06d1134bbb61bb69b9
:1049800001221a7000231be0104b1b68002b07d07c
:104990000e4b1c6897f82710fb88fa680c48a04754
:1049a00002f0d2fb97f827305a1e87f82720002bf9
:1049b000dad1054b7b617b6901221a706ff0050328
:1049c00018462c37bd4690bd1e140020280000203c
:0449d000a00800003b
:020000040000fa
:1049d40080b586b000af7860224b1a687b689a4233
:1049e4003cd0214b7b614ff6ff737b827b691b7844
:1049f400012b04d17b6900221a70012300e00023fb
:104a0400012b24d1194bdb699847034683f001033a
:104a1400dbb2002bf6d0164b1b68002b09d0134bce
:104a24009b69144a126814490a44012110469847a4
:104a3400e8e700bf00bf114b1b7edbb203f00203ab
:104a4400002bf8d0084bfb60fb6801221a70074b5f
:104a54001b689847786800f013f800e000bf183727
:104a6400bd4680bddc13002020140020e473000048
:104a7400101400200c140020dc0e0020000400435d
:020000040000fa
:104a840080b582b000af78601c4a7b6813601b4b12
:104a940000229a60194b02225a60184b0022da60f5
:104aa400174b9b6a002115489847154b5b690021f9
:104ab40014489847124b5b68002113489847134bde
:104ac40000221a60124b00221a60124b00221a6054
:104ad400114b00221a60114b00221a60104b002265
:104ae4001a60074b9b680c4a12680e490a4401215c
:104af4001046984700bf0837bd4680bddc13002030
:104b0400e4730000416100003165000008140020d6
:104b14000c14002010140020fc13002000140020aa
:084b240004140020dc0c002049
:020000040000fa
:104b2c0080b586b002aff860b9601346fb80fa8896
:104b3c000023009313460022f968c820fcf7d2ff2b
:104b4c000346002b0bd01b4b1b68002b04d0194bbe
:104b5c001b68f968184898474ff0ff3326e0c820c7
:104b6c00fef79efe0346002b0bd0124b1b68002b4e
:104b7c0004d0104b1b68f968104898474ff0ff336e
:104b8c0014e0fb8800221946b868fdf7b3ff034612
:104b9c00002b0ad0074b1b68002b03d0054b1b685e
:104bac00074898474ff0ff3300e0002318461037b2
:104bbc00bd4680bd28000020d40600000c07000074
:044bcc004c07000092
:020000040000fa
:104bd00080b500af02f064ff02f0c0fe02f067ff94
:104be00002f092fb01f0dcf801f04aff02f076fbe4
:104bf0001e4b4122c3f8902000bf1c4bd3f89030cd
:104c000003f04003402bf8d1184b4122c3f8a020f9
:104c100000bf164bd3f8a03003f04003402bf8d16f
:104c2000124b4122c3f8a42000bf104bd3f8a4308c
:104c300003f04003402bf8d10c4b4122c3f80c2168
:104c400000bf0a4bd3f80c3103f04003402bf8d1de
:104c5000074b6ff07f421a61054b46f2ff725a61b3
:104c6000034b02221a6200bf80bd00bf001c00403f
:044c700000080040f8
:020000040000fa
:104c740080b485b000af78600023bb600023fb6084
:104c84007b68b3f1ff3f3ad07b68002b37d07b6859
:104c94001b0adbb2bb60bb68002b01d000232fe0f2
:104ca4007b68d9b21948ba6813465b0013445b01a8
:104cb400034408331b68994201d3002320e07b6836
:104cc400dab213469b001344db0018460f49ba6856
:104cd40013465b0013445b010b440c331b68034411
:104ce400fb60fb685a6a7b689a4206d1fb68db78f2
:104cf40083f00103dbb2002b01d0002300e0fb684a
:104d040018461437bd465df8047b704760120020d6
:020000040000fa
:104d140080b582b000af00233b603b46194641f2a8
:104d2400181002f085fd0346fb713b6843f0010354
:104d34003b603b68194641f2181002f087fd0346b8
:104d4400dab2fb791344dbb2fb713b4619464ff4ec
:104d5400a05002f06dfd0346dab2fb791344dbb2d6
:104d6400fb713b6803f48063002b1bd03b6823f486
:104d740080633b603b6819464ff4a05002f066fd27
:104d84000346dab2fb791344dbb2fb713b461946a6
:104d94004ff4a05002f04cfd0346dab2fb79134401
:104da400dbb2fb7197f9073018460837bd4680bd62
:020000040000fa
:104db40080b586b000af0346fb7100233b6100233e
:104dc400fb600123fb75fb791b011e4a13443b6105
:104dd4001d4afb791b0113444e331b78dbb2fb6085
:104de400fb6803f00203002b0bd0174afb791b016d
:104df40013444e3302221a700023fb753b690022d0
:104e04001a73fb6803f00103002b0bd00e4afb79e5
:104e14001b0113444e3301221a700123fb753b69b5
:104e240000221a733b695b68002b06d03b695b6800
:104e34003a699168fa7d1046984700bf1837bd4615
:0c4e440080bd00bf2c00002000a0004139
:020000040000fa
:104e500080b584b000af234bbb60bb6804337b607c
:104e60000023fb730023bb73bb681b78002b08d0a7
:104e7000bb685b681bb2184601f046fe0346fb7335
:104e80000ce07b689b68b3f1ff3f07d07b689b68b1
:104e90001bb2184601f038fe0346bb73124b1b6869
:104ea0003b60bb681b78002b09d0fb7b002b14d028
:104eb000bb685b681bb2184601f0e2ff0de0bb7bec
:104ec000002b0ad07b689b68b3f1ff3f05d07b685d
:104ed0009b681bb2184601f0d3ff3b681846103799
:0c4ee000bd4680bda47800000414002032
:020000040000fa
:104eec0080b586b002af78603960c923fb730023ac
:104efc00bb737b68302b03d8c323fb730123bb73b9
:104f0c00f87bbb7b009304233a687968fcf7eafdd5
:104f1c000346002b0bd0154b1b68002b04d0134bf6
:104f2c001b687968124898474ff0ff3319e07b688b
:104f3c00b3f5a05f01d1002313e0fb7b1846fef70d
:104f4c00affc0346002b0bd0084b1b68002b04d086
:104f5c00064b1b687968074898474ff0ff3300e011
:104f6c00002318461037bd4680bd00bf2800002026
:084f7c00bc040000f004000079
:020000040000fa
:104f840080b588b000af786039600a23fb771f4b87
:104f9400bb614ff6ff73fb82bb691b78012b04d105
:104fa400bb6900221a70012300e00023012b1cd0ee
:104fb4006ff0050325e039687868fff76dfa03465a
:104fc400002b06d1114b3b613b6901221a7000236f
:104fd40017e00f4b1b68002b05d00d4b1b68f97fa6
:104fe4007a680c48984702f0adf8fb7f5a1efa77ae
:104ff400002be0d1054bfb60fb6801221a706ff0b7
:10500400050318462037bd4680bd00bf1e1400208e
:08501400280000206c080000d8
:020000040000fa
:10501c0090b589b000af786039600a23fb771f4bdd
:10502c00bb614ff6ff73fb82bb691b78012b04d16c
:10503c00bb6900221a70012300e00023012b1dd054
:10504c006ff0050326e039687868fff749ff0346df
:10505c00002b06d1114b3b613b6901221a700023d6
:10506c0018e00f4b1b68002b06d00d4b1c68f97f0a
:10507c003b687a680b48a04702f060f8fb7f5a1e29
:10508c00fa77002bdfd1054bfb60fb6801221a700d
:10509c006ff0050318462437bd4690bd1e14002042
:0850ac00280000208408000028
:020000040000fa
:1050b40080b489b000af7860224b3b613b691b6bc5
:1050c400fb610023bb610023fb753b691b6bfb6128
:1050d40004e0fb69bb61fb699b69fb61fb69002b15
:1050e40003d0fa697b689a42f3d1fb69002b01d1a2
:1050f400fb7d21e07b689b69002b0ad07b689b6861
:10510400fb607b689b697a6892699168fa680a44d3
:105114009a60bb69002b07d13b691b6b9a693b6999
:105124001a630123fb7503e07b689a69bb699a6182
:105134007b6800229a61fb7d18462437bd465df8e2
:08514400047b704740130020ba
:020000040000fa
:10514c0080b586b000af03463960fb713b687b616c
:10515c007b699b69dab213469b001344db0018464b
:10516c007b699b691b0adab2184913465b0013442e
:10517c005b010b440c331b6803443b613b691b888c
:10518c001a4613465b0013445b01104a1344fb6040
:10519c00fb68db6b002b15d0fb6893f92c300022dd
:1051ac000021184601f020fcfb6893f92c30d8b292
:1051bc00fb681a6bfb68db6b0549fef7c7f8fb68ed
:1051cc000022da6300bf1837bd4680bd6012002094
:0451dc00a0130020fc
:020000040000fa
:1051e00080b582b000af00233b600023fb713b46db
:1051f000194641f2084002f01dfb0346fb7197f986
:105200000730002b2bd13b6843f480733b603b6835
:10521000194641f2084002f01bfb0346fb7197f967
:105220000730002b1dd13b4619464ff4d05002f0f9
:1052300001fb0346fb7197f90730002b13d13b6844
:1052400043f480333b603b6819464ff4d05002f082
:10525000fffa0346fb7197f90730002b04e000bf0b
:1052600002e000bf00e000bf97f90730184608379a
:04527000bd4680bdfa
:020000040000fa
:1052740080b586b000aff860b9607a60204b1b88b7
:10528400083b3b8200237b610023fb743a8a7b68e2
:105294009a420fd3ba687b6913447a6892b219466a
:1052a400f86802f0acf90346dab2fb7c1344dbb2d3
:1052b400fb741fe0ba687b6913443a8a1946f8689c
:1052c40002f09df90346dab2fb7c1344dbb2fb74b3
:1052d40097f91330002b0cd13b8a7a68d31a7b6080
:1052e4003b8a7a6913447b613b8afa681344fb6006
:1052f400cce700bf97f9133018461837bd4680bd78
:04530400141400205d
:020000040000fa
:1053080080b586b000aff860b9607a60204b1b8822
:10531800083b3b8200237b610023fb743a8a7b684d
:105328009a420fd3ba687b6913447a6892b21946d5
:10533800f86802f074f90346dab2fb7c1344dbb276
:10534800fb741fe0ba687b6913443a8a1946f86807
:1053580002f065f90346dab2fb7c1344dbb2fb7456
:1053680097f91330002b0cd13b8a7a68d31a7b60eb
:105378003b8a7a6913447b613b8afa681344fb6071
:10538800cce700bf97f9133018461837bd4680bde3
:0453980014140020c9
:020000040000fa
:10539c0057494e433a20496e697469616c697a6960
:1053ac006e672e2e2e0d0a006576656e7450726f28
:1053bc00636573734d75746578206372656174658c
:1053cc00206661696c65640d0a0000bf6d326d5f0b
:1053dc00776966695f696e69745f686f6c64206673
:1053ec0061696c65640d0a0053686f756c64206e9e
:1053fc00657665722068617070656e0d0a0000bf7d
:10540c006d326d5f776966695f696e69745f73741d
:10541c00617274206661696c65640d0a000000bfde
:020000040000fa
:10542c0080b400af1f4b204a1a601e4b4ff622026d
:10543c009a811c4b4ff440325a6000bf194bdb6908
:10544c00002bfbd1174a174b1b6843f00203136068
:10545c0000bf144bdb69002bfbd1144b00229a616b
:10546c00124b0022da61114b00221a620f4b002200
:10547c0083f82c200d4b00225a620c4b00221a6030
:10548c000a4b00225a60094b00229a60074b0022fb
:10549c001a75064b0022da6000bfbd465df8047b2e
:1054ac00704700bf00040043040110405801002065
:020000040000fa
:1054bc0080b584b000af78600023bb600123fb7320
:1054cc0000f0d8ff034683f00103dbb2002b01d0c0
:1054dc00fb7b2fe0786800f0f9ffb860bb68002b0d
:1054ec0025d0bb685b7883f00103dbb2002b1cd0aa
:1054fc00bb689b68002b03d1bb685a68bb689a6079
:10550c000e4b93f82c30002b03d1b86800f0aefc96
:10551c0002e0b868fef742fbbb6800221a75bb6854
:10552c0000225a75bb6801225a700023fb7301f0ec
:10553c00f9fcfb7b18461037bd4680bd401300209c
:020000040000fa
:10554c0080b588b002af786039601c4b18681c4b72
:10555c0001933b6800937b6801221a49fdf718fa06
:10556c00174b1b68b3f1ff3f01d1002321e000bfb3
:10557c00154b7b614ff6ff737b82012002f0a8f87c
:10558c00f8607b691b78002b0bd07b691b78013b87
:10559c00dab27b691a70f968012001f0a1fd0123d0
:1055ac0004e0f968012001f09bfd0023002bdfd003
:1055bc00012318461837bd4680bd00bfec130020f0
:0c55cc00f41300201a1400201914002011
:020000040000fa
:1055d80090b583b000af0023fb71002002f09cf867
:1055e8000346fb7197f90730002b08d0174b1b684f
:1055f800002b23d0154b1b68154898471ee002f076
:10560800bdf8fef7c7fb03461b0d1b05b3f5401f8e
:1056180001d0fff77bfbfef745fa0c4b1b68002b0c
:1056280007d00a4b1c68fef7b5fb03461946094824
:10563800a0470021084802f007f900e000bf97f9e9
:10564800073018460c37bd4690bd00bf2800002023
:0c5658006c4800008c48000000030200b9
:020000040000fa
:1056640080b582b000af1f4b3b603b681b6b7b6017
:105674002ee07b689b68002b2ed17b6801221a7573
:105684007b6801225a757b689b78002b09d17b6863
:10569400db68002b05d07b68db69184600f020fc32
:1056a40009e07868fff704fd7b689b78002b02d142
:1056b4007b6800225a707b68db68002b05d07b680e
:1056c400db687a681269104698473b681b6b7b60fd
:1056d4007b68002bcdd100e000bf00bf0837bd467a
:0856e40080bd00bf401300204f
:020000040000fa
:1056ec0080b584b000af7860786800f0e5fafff719
:1056fc00b3ff0023fb732de0fb7b1a4a5b011344c1
:10570c0015331b78dbb2002b21d0fb7b154a5b01d8
:10571c001344153300221a70fb7b124a5b011344ad
:10572c0002331b78012b12d1fb7bfa7b0d49520102
:10573c000a44043212680b495b010b4408331a60ab
:10574c00fb7b5b01074a13441846fef727fafb7be9
:10575c000133fb73fb7b182bced900bf1037bd4632
:08576c0080bd00bfbc09002054
:020000040000fa
:1057740080b586b000af786039601e4b7b617b6971
:105784001b6b3b610023fb607b695b689b699847eb
:1057940003461a467b695a617b695b69184601f0c6
:1057a400bbf8f860f86801f073fa3b69002b12d07b
:1057b4007b6993f82c300133dab27b6983f82c20af
:1057c400f868fff791ff7b6993f82c30013bdab25c
:1057d4007b6983f82c2001f019fe0346fb72fdf768
:1057e4005bfffb7a184601f07dfe00bf1837bd460b
:0857f40080bd00bf401300203e
:020000040000fa
:1057fc0090b484b000af786039600023fb737b6891
:10580c00bb60bb68002b2ad0184b1b7ddbb283f02e
:10581c000103dbb2002b22d0144abb681360134a7d
:10582c003b685360114b00229a60104b01221a7591
:10583c000f4b1b7edbb203f00103012b0ad10c488a
:10584c000a4b1a68094b9b68591c084ca1601344fd
:10585c001b788362064b01229a750123fb73fb7b39
:10586c0018461037bd4690bc704700bf5801002049
:04587c0000040043e1
:020000040000fa
:1058800080b582b000af1d4b93f82c30dbb2002bfb
