:10000000D8280020E5040000BF040000C10400005F
:1000100000000000000000000000000000000000E0
:10002000000000000000000000000000BD0400000F
:100030000000000000000000BD040000BD0400003E
:10004000BD040000BD040000BD040000BD040000AC
:10005000BD040000BD040000BD040000BD0400009C
:10006000BD040000BD040000BD040000BD0400008C
:10007000BD040000BD040000BD040000BD0400007C
:10008000BD040000BD040000BD040000BD0400006C
:10009000BD040000BD040000BD040000BD0400005C
:1000A00081010000BD040000BD040000BD0400008B
:1000B00010B5064C2378002B07D1054B002B02D03E
:1000C000044800E000BF0123237010BD4408002055
:1000D00000000000F8240000084B10B5002B03D0EE
:1000E0000749084800E000BF07480368002B00D11B
:1000F00010BD064B002BFBD09847F9E7000000002D
:1001000048080020F8240000F82400000000000047
:100110000122154B1A705A7A52B2002AFBDB5A7A26
:1001200052B2002AFBDB01211A698A431A615A7A0A
:1001300052B2002AFBDB012100200C4A1A611A6925
:100140000A431A610A4AD077802252005A80FC3A48
:1001500059711A705A7A52B2002AFBDB02221978BE
:100160000A431A707047C04600440042620600000D
:1001700001440042014B5860996070479C08002080
:10018000132110B5054A064B107AC0B21870917150
:100190005A68002A01D09968904710BD0044004277
:1001A0009C080020002380211D4A9361938C8B437F
:1001B00093841023D1681942FCD01A4B1968890E18
:1001C0003F2900D12039184B89021B689B059B0DE4
:1001D0000B43936242239384323BD1681942FCD093
:1001E000124B1349596013499960597849B2002953
:1001F000FBDB11495960597849B20029FBDB0F49F3
:1002000059800F4959800F4959800F4959800F492A
:1002100059800F490F4B1962002313627047C04683
:10022000000800402460800028608000000C00402E
:10023000010301000120000000072100044100002B
:1002400007400000174000001F4000002041000050
:1002500022000200000400401A22034BFF321A81E0
:10026000024A5A607047C046000400420000010282
:10027000BFF35F8F62B6C620FF21064B80001A587D
:100280008A431100C0220A431A50802252041A6085
:100290007047C04600E100E08222014B5A6070477F
:1002A000004000410423034A11690B43136130BF2E
:1002B0007047C04600ED00E0084B012218004430B2
:1002C00002708274C27412380270191D21323B33DD
:1002D0001A708023DB05CB677047C046004400419D
:1002E00001220A4B1A809A7A52B2002AFBDB802242
:1002F0001A809A7A52B2002AFBDB802252009A615D
:10030000997A49B20029FBDB9A80704700140040BB
:100310000222044B19880A431A809A7A52B2002AA0
:10032000FBDB704700140040034B98619A7A52B28D
:10033000002AFBDB7047C04600140040094B0A4A04
:100340001A600A4A9A81C02292025A60DA69002A27
:10035000FCD1196802320A431A60DA69002AFCD11A
:100360007047C04600140042040110402BF6FFFF06
:100370000722074B588B104006D0802119765A83EC
:10038000033A197E114200D17047198DF9E7C04632
:100390000014004210B5031E05D00122064B41187F
:1003A000884202D10123180010BD1C7E1442FCD0EB
:1003B000047801301C85F3E70014004270B5040096
:1003C0000D00002814D00B4B984700200422072171
:1003D000094BA84208D01E7E1642FCD01E8D265422
:1003E0005E8B01300E42F4D0401B43425841C0B2F4
:1003F00070BDC046710300000014004210B50C002F
:10040000002807D101212000044B98470028F9D08B
:10041000207810BD01204042FBE7C046BD0300002C
:10042000013870B50E0015000C00022809D901250D
:100430006D4209E001212000044B98470028F9D0C3
:100440000134A31B9D42F5DC280070BD950300001C
:10045000062270B50E4B0F4D5A602B680E4C586833
:100460000021A0472B6800219868A0470B4B9847B4
:100470000B4B98470B4B98470B4B98470B4B9847A8
:100480000B4B98470B4B98470B4B984770BDC0469A
:10049000004000410000002021080000B9020000D7
:1004A000A50100003D030000990200005902000070
:1004B00011010000E102000071020000FEE7FEE70A
:1004C000FEE70000054B02001968002901D104492C
:1004D0001960186882181A607047C04660080020CA
:1004E000D82800201648174970B5884204D0002348
:1004F000154CCA18A2421CD30021144B144A934233
:100500001BD3FF21134B144A8B4393600222134BDE
:100510005A62134B0832DA70124B20329A738023DE
:10052000114A51680B435360104B9847104B984742
:10053000FEE7C55804331560DBE702C3DFE7C046BA
:10054000F824000000000020440800204408002097
:10055000D40800200000000000ED00E0FC70004125
:100560000050004100480041004000410D060000DD
:100570009505000010B580240123044A0449E405D0
:1005800013700C60184200D0537010BD6408002036
:100590009C44004110B500200F4B98470F4B9847E3
:1005A000FA200F4BC00098470E4B0F4819680F4BAD
:1005B00098470F480F4CA0470F4B98470F4B1A789E
:1005C000002AF9D000221A7059780D489142F2D0D1
:1005D0005A700C48EFE7C0465104000011030000B8
:1005E00029030000A808002075050000750100001F
:1005F0004C2400000D080000A50200006408002043
:10060000A42400007E2400007047C04670B50D4E43
:100610000D4D0024AD1BAD1005D0A300F3580134DF
:100620009847A542F9D101F055FF084E084D002426
:10063000AD1BAD1005D0A300F35801349847A54277
:10064000F9D170BDE0240000E0240000E0240000A7
:10065000E8240000F0B505000F2A2FD90B00034352
:100660009B0734D116000C000300103E35090135FC
:100670002D01451927681F6067685F60A7689F6044
:10068000E7681034DF6010339D42F3D10F239E439F
:100690001036851989191340032B1AD91E1F002300
:1006A000B4080134A400CF58EF500433A342FAD168
:1006B0000324A643331D2240C918ED18002A05D093
:1006C0000023CC5CEC5401339342FAD1F0BD050019
:1006D000F6E71A00F2E7C046F0B5830743D0541E90
:1006E000002A3FD0CEB20200032502E01A00013CEE
:1006F00038D3531C16702B42F8D1032C2AD9FF2271
:100700000A40150215432A0415430F2C14D927005B
:100710001A00103F3E09013636019E1915605560DA
:100720009560D56010329642F8D10F22974310376A
:10073000DB191440032C0DD91A00271FBE080136FF
:10074000B6009E1920C2B242FCD10322974304375F
:10075000DB191440002C05D0C9B21C1919700133E3
:100760009C42FBD1F0BD14000300C6E730B5040085
:1007700089B008000D0000F02DF904AB214A019367
:100780000223069201220293A36B05900130049587
:1007900007920390A568002B2FD06B6EDB0724D443
:1007A0000C23EA5E91B28B051CD580239B01194274
:1007B00005D11343AB816A6E134B13406B66200067
:1007C00001AA290000F0D6FB441EA04144420A20A1
:1007D0006B6E0443DB0702D4AB899B0509D520006F
:1007E00009B030BDA86D00F071FD0C23EA5E91B236
:1007F000DBE7A86D00F06CFDF1E7200000F032FAB5
:10080000CBE7C046D0240000FFDFFFFF10B5034B4D
:1008100001001868FFF7AAFF10BDC04600000020C5
:100820004A424A41802310B55200DB0000F002F832
:1008300010BDC046F0B54746CE4680B51F00634B9D
:1008400083B01D68040088461600002D02D0AB6BF3
:10085000002B66D0022E05D0012E00D9A1E0002F7A
:1008600000DA9EE0636EDB0733D52100280000F03C
:100870009FF9216B002908D023004033994202D010
:10088000280000F099FA002323630023A36163602A
:100890000C22A35E1A063DD44D4A1340A381022EBA
:1008A0001ED001AB6A462100280000F013FDA38989
:1008B0001843A081002F38D1009F380000F082FD3E
:1008C0008046002800D16FE08022A3891343A381D2
:1008D0002EE0A3899B05C8D4A06D00F0F7FCC4E707
:1008E0000025022213430022A2602200433222602C
:1008F00022610122616EA3816261114204D19B05D4
:1009000002D4A06D00F0E4FC280003B00CBC9046BB
:100910009946F0BD2169280000F04EFA0C22A35E32
:10092000BAE7280000F09EF994E74346002BC4D0B4
:10093000AB6B002B27D0009B9F422AD08023A2893B
:100940001B0113431BB2A381012E26D04246226015
:10095000226108229BB267611A400BD0DA0710D5DA
:1009600000220125A260626E7F42A7611540C6D0B9
:100970000025C9E7A2600125626E1540BFD00025A1
:10098000C2E7A760F7E7280000F06CF9009B9F42E0
:10099000D4D10C22A35E012ED8D101221343A3810E
:1009A000D4E701256D42AFE7009B9946BB4205D0D5
:1009B000180000F007FD8046002804D101250C2214
:1009C000A35E6D428DE74F467EE7C04600000020E3
:1009D0005CF3FFFF10B5830725D00378002B24D0EC
:1009E0000300032102E01A78002A1AD001330B42D7
:1009F000F9D119680E4A0F4C8A188A43224206D14F
:100A0000043319680A4A8A188A432242F8D01A0025
:100A10001B78002B03D0013211780029FBD1101A6A
:100A200010BD181AFCE70300E3E70020F8E7C04612
:100A3000FFFEFEFE80808080034B10B5002B02D0AD
:100A4000024800F005F810BD00000000E50C0000B1
:100A500010B5010000230022002001F0ADFA10BD06
:100A6000F0B5C64600B50C23CA5E804693B20C00B2
:100A7000190740D480231B0113436268A381002A15
:100A800000DC70E0A66A002E31D04246414615686F
:100A900000229BB20A60DA0400D469E0226D5B0791
:100AA00006D56368D21A236B002B01D0E36BD21AF0
:100AB0000023E1694046B047431C3DD0A3893A4A30
:100AC00013400022626022691BB2A3812260DB0412
:100AD00047D44346216B1D60002908D023004033D2
:100AE000994202D0404600F067F9002323630020BA
:100AF00004BC9046F0BD2669002EF8D0226826601E
:100B0000951B00229B0700D16269A260002D04DCC6
:100B1000EDE736182D1A002DE9DD2B003200E169D2
:100B20004046676AB8470028F3DC40220120A389C9
:100B300040421343A381DBE7434619681D29F4D8DB
:100B40001A4B0122CB409A43EFD1A389164E626023
:100B5000334022691BB2A3812260DB04B9D500298E
:100B6000B7D12065B5E7E26B002A00DD8AE7BEE772
:100B700000220123E1694046B0470200431C02D035
:100B8000A389A66A8BE743461B68002BF8D01D2B70
:100B900001D0162B03D1434600201D60A8E7402159
:100BA000A3890B43A381A3E7FFF7FFFF01004020C8
:100BB00070B505000C00002802D0836B002B16D006
:100BC0000C22A35E0026002B0FD0626ED20701D448
:100BD0009B0513D521002800FFF742FF636E060036
:100BE000DB0702D4A3899B0504D5300070BD00F05B
:100BF00039F8E5E7A06D00F06BFBF6E7A06D00F0BB
:100C000065FBE7E710B5024900F036FB10BDC046B2
:100C1000D1200000002310B504000360436083600E
:100C200081814366C281036143618361082200219F
:100C30005C30FFF751FD2000064BE4612362064B58
:100C400058306362054BA362054BE36200F03AFB48
:100C500010BDC046211E0000491E0000851E000078
:100C6000B11E000070B50400144D280000F02EFBEA
:100C7000A36B002B1DD1124A0421E263B82292001B
:100C8000A350B92303229B00E2500833E218043B2F
:100C9000E25060680022FFF7BDFF01220921A06831
:100CA000FFF7B8FF02221221E068FFF7B3FF01232C
:100CB000A363280000F00CFB70BDC046B8080020FC
:100CC000050C000010B5024800F000FB10BDC04646
:100CD000CC08002010B5024800F0FAFA10BDC0465A
:100CE000CC08002070B5094B094CE41AA41009D0B7
:100CF000084AA518AD00ED182B68013C9847043D43
:100D0000002CF9D101F0F0FB70BDC046F4240000C6
:100D1000F8240000FFFFFF3FF8B50C00060000F0CC
:100D20009FFE204FBB685D6803239D431E4B2C1B19
:100D30009C466444240B1D4B013C24039C4207DD6C
:100D40000021300001F05AF8BB685B19984204D0CA
:100D5000300000F08DFE0020F8BD6142300001F04F
:100D60004DF8431C0DD00122BB682D1B15435D605F
:100D70000F4B30001A68141B1C6000F079FE012034
:100D8000EAE70021300001F039F8BA68831A0F2B26
:100D9000DEDD08490968401A0549086001210B4356
:100DA0005360D5E734040020EF0F0000FF0F000070
:100DB000680800203C080020F8B504000D1E3CD057
:100DC00000F04EFE2900083948680123050003267B
:100DD0009D434A199C46614F5368B343BE68B24273
:100DE00056D06646536006420AD13E00086808366F
:100DF000091A2D188868B04265D0CE68C660B06008
:100E00000120D6187668064233D0554B28434860F7
:100E10004D519D4212D8ED08FF3BAA10FF3B934075
:100E20007A68ED0013437B60EF19BB68CF608B607D
:100E3000B960D960200000F01BFEF8BD680A0428E4
:100E400050D8A809020039303832C00038180838A4
:100E50008368032698424CD05A68B243954230D2F8
:100E60009B689842F8D1C368CB6088609960C16084
:100E7000E0E7ED183B4E9368B34242D0D268284376
:100E8000DA609360364B48604D519D42D6D8C2E738
:100E90006246EB18024206D10A68891A88689B18D4
:100EA000CA68C260906001221A434A602E4AB96043
:100EB00012689342BED32D4B20001968FFF72CFF18
:100EC000B8E71800CFE76646D018406830423FD1F7
:100ED00090685D19D368C360986063462B434B608C
:100EE0004D51A7E7142814D802005C305B32C000D3
:100EF000ACE70123921093407A6813437B600300B0
:100F0000B2E72843D9609960CB608B6048604D514F
:100F100090E7542805D8280B02006F306E32C000CD
:100F200094E7AA225200904205D8E80B02007830DC
:100F30007732C0008AE70E4A904205D8A80C02001A
:100F40007D307C32C00081E7FE207E2280007DE77C
:100F500063462B434B6015606CE7C04634040020A9
:100F6000FF0100003C0400204008002098080020F9
:100F700054050000F0B54E46DE4657464546E0B5FE
:100F8000936883B000900C001600002B25D08B894D
:100F90001A072AD50A69002A27D0326893469A0789
:100FA0002FD5B24B002700259846B146002D00D121
:100FB00072E02B00454500D9AC4B3A00E16900983E
:100FC000666AB047002800DC73E04B469B683F1818
:100FD0002D1A181A4B469860E8D1002003B03CBC8B
:100FE00090469946A246AB46F0BD2100009800F01D
:100FF00079FF002800D030E13268A38993469A0730
:10100000CFD4DA075DD5002300209A4600271D00C3
:10101000B14629E0002833D0A846BD4200D9B846E1
:101020002068226946466369904207D9A2689446BF
:101030009C4462460192E04500DDE9E0984500DA13
:101040008FE0666A5246E1690098B047061E30DDBF
:10105000AD1B0120002D26D04B469B68B244BF1B20
:101060009E1B4B469E60B8D0002FD3D15B461B68B9
:101070009A465B465F6808239C46E344002FF5D000
:101080003A000A21504600F05BFC002800D1E2E063
:1010900053460130C51ABFE75B461F685D680823E9
:1010A0009C46E34482E721000098FFF781FD002879
:1010B000D2D00C22A35E402201201343A3814042E0
:1010C0008CE7002291464D46002D23D0A268904621
:1010D00080229200134226D0C24645454DD390222D
:1010E000D20013424ED12F0020685246494600F0EC
:1010F00067FC4246A368981A2368A06053442360A3
:10110000B368B944ED1BDF1BB76000D165E7A38965
:10111000002DDBD15A46126891465A46556808227E
:101120009446E344D0E720682369984202D867696F
:10113000BD4259D24746AF4200D92F003A00494636
:1011400000F03EFCA3682268DB1BD219A36022607A
:10115000002BD5D121000098FFF72AFD0028CFD021
:10116000A7E74246514600F02BFC4246A3689B1A73
:10117000A3602368434423606AE7A84620682F00E1
:10118000AA46B2E721692268521A9246626957005C
:10119000BF18FA0FD7195246501C7F1040193A0059
:1011A000B84201D9070002005B0542D51100009842
:1011B00000F012F98046031E52D052462169FFF713
:1011C00049FAA3892A4A134080221343A381434644
:1011D00040462361534650446761FF1AA760206070
:1011E000A8462F00AA4680E7224B28009D4200D93E
:1011F0001800390001F020F83B004A464343E169FA
:101200000098676AB847002800DC52E7070077E7D4
:101210006646514600F0D4FBB4462368210063447F
:1012200023600098FFF7C4FC002800D041E7019E2E
:101230000EE7009800F024FC80460028C7D1009DEE
:1012400021692800FFF7B8FD8022A3899343743AEF
:101250001BB22A602FE77D1CDEE601204042BDE67E
:10126000009A0C3313600C22A35E24E700FCFF7F7E
:101270007FFBFFFFFFFFFF7FF8B54746CE4680B5F7
:10128000B8278046BF00474489460026002F14D067
:101290007B68BC685D1E0DD4A389012B07D90E2283
:1012A000A35E013303D021004046C847064368349B
:1012B000013DF1D23F68002FEAD130000CBC9046CE
:1012C0009946F8BD7047C0467047C0467047C04653
:1012D0007047C04670B50C001E000E23C95E90B06A
:1012E0001500002915DB01AA00F058FF002810DBCB
:1012F000F022029B120213400D4A80209446634460
:101300005A42534133608023DB002B60000110B050
:1013100070BD00233360A3891B0603D54023002042
:101320002B60F4E78023DB002B600020EFE7C04652
:1013300000E0FFFF70B58B8982B006000C009B07B0
:1013400007D523004333236023610123636102B087
:1013500070BD01AB6A46FFF7BDFF00990500300084
:1013600000F03AF800281ED08022154BF363A389C1
:1013700020601343009A1BB26261019AA38120612D
:10138000002A02D12B43A381E1E70E23E15E300066
:1013900000F018FF002810D00322A38993430122F4
:1013A00013431BB2EEE70C22A35E9A05CFD40322AF
:1013B000934302221343A381C3E70C22A35EE1E718
:1013C000050C000010B5034B0100186800F004F88C
:1013D00010BDC04600000020F0B557464546DE4629
:1013E0004E46E0B50D000B3583B00700162D00D832
:1013F0009FE007239D4300D5C4E0A94200D9C1E086
:1014000000F02EFBF823FF339D4200D88FE2680ADC
:1014100000D1BBE0042800D962E138239846A8092E
:1014200080443930C100D24E71180839CC68A142CD
:1014300019D0032362689A431300521B0F2A00DD60
:10144000AAE0002A00DB88E003239C4608E062460D
:10145000636893435A1B0F2A00DD9DE0002A7CDA63
:10146000E468A142F3D1320034690832944200D1D9
:1014700090E10323616899438946491B0F2900DDE8
:1014800062E172613261002900DB87E0B94A4B46B4
:10149000914500D930E1DB08FF3A9910FF3A8A40C4
:1014A000DB0071689B190A4399687260E360A16070
:1014B0009C601300CC6001218210914099426FD84A
:1014C0000B4205D103229043490004300B42FBD06C
:1014D00003239846C3009946B144CC4682466346EE
:1014E000DC68A44507D157E1002A00DB66E1E46827
:1014F000A44500D150E14246636893435A1B0F2A2A
:10150000F2DD01208046611905436560A068E56849
:101510000836C560A8604046F160B160104348607D
:10152000CE608E603800E25000F0A2FA2000083051
:1015300021E0102926D8380000F092FA102518234F
:1015400002208B4EF3181A005C68083A944200D1CE
:101550002EE1032362689A431300E268A168CA601F
:1015600091600122E318596838000A435A6000F07C
:101570007FFA2000083003B03CBC90469946A24652
:10158000AB46F0BD0C2300203B60F4E780213F23F5
:1015900040208900984646E7404664E74B46E0E72E
:1015A0000323B46862689A439046AA4203D3531B4C
:1015B0000F2B00DD86E0230043446F4A01936F4BFD
:1015C00093461B681268EB18013200D168E16C4A3F
:1015D000944663441B0B1B0300930099380000F0F2
:1015E0000DFC03008146013361D0019B834200D989
:1015F000FFE0644B009A9A461B689C46534662443F
:101600001A60019B1100834200D155E15B461B68C3
:10161000013300D16CE14B46019A9B1A591853468D
:10162000196007234A46134000D124E10821894666
:101630005549D21A9144CB1A009A38004A441105F0
:10164000090D5B1A19009B4600F0D8FB431C00D122
:1016500042E14B46C01A01235844184353461B68C5
:101660005B441900534619604B46B3605860B4425E
:1016700013D043460F2B00D8E8E0434607226068AA
:101680000C3B9343063A024005201A436260E2187D
:10169000506090600F2B00D922E13C4B1A689142B8
:1016A00000D919603A4B1A68914200D91960032396
:1016B000B46862689A43531B954200D9C9E00F2B66
:1016C00000DCC6E001222900134311436519616063
:1016D0003800B5606B6000F0CBF9200008304AE7B5
:1016E00014287AD9542800D9BAE06E239846280BDA
:1016F00080446F30C10096E65A0A042A73D9142A2E
:1017000000D9D0E011005C325B31D20008235B428B
:101710009C46B218944463469A68032398469445BD
:1017200000D1ABE0434651689943894500D395E029
:1017300092689445F6D16346DA6873686146E26060
:10174000A1609460CC60B6E6012360191D4365601A
:1017500070613061C26082601A004B460A43426089
:101760003800E15000F084F92000083003E7C0465B
:1017700034040020FF0100003C08002098080020ED
:101780000F100000680800200810000090080020DA
:101790009408002073688EE608239B46073BDC44D0
:1017A0009B46DA4443465246134200D097E637E060
:1017B000DC680230A34200D155E6CAE60122E318F4
:1017C000596838000A435A60E368A268D3609A6097
:1017D00000F04EF920000830CDE65B2398468044A7
:1017E0005C30C1001FE69A09110039323831D2004D
:1017F0008CE7B44200D05AE74F4B009A9A461B68D8
:101800009C465346624411001A60FFE608235B427F
:101810009C46E1444B469B680138994500D084E0E2
:1018200043460342F2D173688B4373604900994287
:1018300000D9B5E6002900D1B2E650460B4200D0EF
:1018400048E6490004300B42FBD043E601234A46F8
:101850005360380000F00CF900208CE694466AE7EB
:10186000AA235B00984211D8DD3B9846E80B8044E0
:101870007830C100D7E580235B01DDE68910023BAB
:101880008B40726813437360624657E72B4B984254
:101890001CD87C239846A80C80447D30C100C2E54A
:1018A0001033009399E6542A26D84B461A0B1100A0
:1018B0006F326E31D20029E71B0500D0A6E6012069
:1018C000009BB268434403435360E6E6FE217E2357
:1018D0007F2089009846A6E5002301209B46BDE6AF
:1018E000210038000831FFF767FA53461968D4E63B
:1018F0005B464A461A6094E6AA2149008A4206D805
:101900004B46DA0B110078327731D200FEE60B49F4
:101910008A4206D84B469A0C11007D327C31D200A7
:10192000F4E6FE227E219200F0E673687EE72B004B
:10193000E808083305E6C0466808002054050000A2
:1019400070B5CDB2830734D0541E002A1BD0037863
:10195000AB4219D0032204E0013C14D30378AB421C
:1019600012D001301042F7D1032C0ED8002C0AD02F
:101970000378AB4208D0041902E00378AB4203D0ED
:1019800001308442F9D1002070BDFF220B061B0CF0
:10199000114019430B04084E19430368074A4B4092
:1019A0009A189A433242E3D1043C0430032CF4D811
:1019B000DCE71400D8E7C04680808080FFFEFEFE92
:1019C000F0B588420AD98B18984207D2531E002AD4
:1019D00003D0CA5CC254013BFBD2F0BD05000F2A04
:1019E00008D8002AF9D00023CC5CEC540133934290
:1019F000FAD1F2E70B0003439B072DD115000C0031
:101A00000300103D2F0901373F01C71926681E60EA
:101A100066685E60A6689E60E6681034DE6010331B
:101A20009F42F3D10F24A54310354919144045199D
:101A3000032C13D90023271FBE080136B600CC584B
:101A4000EC500433B342FAD10326B7433C1D0919C5
:101A50002D193240C7D1C0E70500C4E72200C0E716
:101A600010B50248FFF732FC10BDC046BC0800208C
:101A700010B50248FFF72CFC10BDC046BC08002082
:101A8000F0B54E464546DE465746E0B585B0019076
:101A90000E001500002900D19EE037000198083F94
:101AA000FFF7DEFF7A68032314009C432B000B33FF
:101AB000B946162B47D8102110238846454546D8ED
:101AC0009C4249DACC4938198B4689680290884291
:101AD00000D1C2E001218A464068010003905046CF
:101AE00081438C4602998B46DC4461464968014239
:101AF0004DD0104200D1A2E029000198FFF76CFC04
:101B0000051E39D0012302007968083A99437F18ED
:101B1000BA4200D12EE1221F242A00D914E1132A4F
:101B200000D9E8E00300320011681960516859607B
:101B300092689A60019C31002000FFF73DF9200077
:101B4000FFF796FF1BE007218B439846B6D50C2381
:101B5000019A0025136012E035004346E31A0F2B6B
:101B600025D84B46012249465B68134023434B600E
:101B70004C4463681A4362600198FFF779FF2800BC
:101B800005B03CBC90469946A246AB46F0BD032149
:101B900003988C46884321188B46994221DB029A90
:101BA0003500D36892685C46D3609A60D5E74A46B0
:101BB0000120464652684946024032434E4641445F
:101BC000034372604C444B606368083118436060A3
:101BD0000198FFF7F1F8CFE71100FFF7FDFB0500D3
:101BE000CDE75146114200D086E761463A68BA1AFD
:101BF000924652688A4380188346A3449B4526DB5D
:101C0000029AD3689268D3609A605346524655460A
:101C10009268DB680835D3609A60221F242A00D9B5
:101C200096E0132A72D95346316899607168D96079
:101C30001B2A00D9A4E032001033083268E03A6869
:101C4000BA1A924651460322496891430A009346C4
:101C5000A3449B4500DA4FE7D7E703200299844667
:101C6000496881434046091910300290814258DA90
:101C7000D20700D540E760463A68BA1A92465268E1
:101C800082430298511803918842E0DC5346524641
:101C900055469268DB680835D3609A60221F242A73
:101CA00000D98EE0132A00D888E053463168996045
:101CB0007168D9601B2A00D988E0320010330832DD
:101CC000116819605168596092689A6051465B4684
:101CD000424641449960039B01989A1A01231A4392
:101CE0004A6052465268134042461343524653607C
:101CF000FFF7BEFE43E733680360736843601B2A47
:101D00002DD803003200083308320DE72B003200D3
:101D100011685C4619605168D146596092689A60B2
:101D20001BE74346FA185B469A604346C91A0123EB
:101D3000194351607A6801981340424613437B600F
:101D4000FFF796FE35001AE73100FFF739FEF1E69E
:101D500031002800FFF734FE5C46D146FDE6B3684B
:101D60008360F368C360242A15D003003200103367
:101D70001032D9E6536803229343E4183500ECE6A9
:101D80005346B1681961F1685961242A0CD03200B8
:101D900018331032BCE73369320003610300716904
:101DA000183318324161BFE65346326951469A6191
:101DB0003200706920331832C861A9E72B00320065
:101DC0007EE731002800FFF7FBFD7FE75346B1684F
:101DD0001961F1685961242A03D032001833103296
:101DE0006EE75346326951469A613200706920337A
:101DF0001832C86164E7C04634040020002370B57F
:101E0000064C050008002360FEF75CFB431C00D075
:101E100070BD2368002BFBD02B60F9E7D0080020B1
:101E200070B50C000E25495F00F0F2F9002803DBC5
:101E3000236D1B18236570BDA389024A1340A3813B
:101E4000F9E7C046FFEFFFFFF8B516001F000C22B0
:101E50008B5E05000C00DA0507D50E23C95E002253
:101E6000022300F0C1F90C22A35E054A28001340AA
:101E7000A38132000E23E15E3B0000F01FF8F8BDA5
:101E8000FFEFFFFF70B50C000E25495F00F0ACF9C5
:101E9000431C06D08023A2895B011343A3812065E4
:101EA00070BDA389014A1340A381F9E7FFEFFFFF4B
:101EB00010B50E23C95E00F0F9F810BD70B505002D
:101EC000080011000022064C22601A00FEF7A8FA52
:101ED000431C00D070BD2368002BFBD02B60F9E7BA
:101EE000D0080020334B70B5050018680C0000289E
:101EF00002D0836B002B3CD00C23E25E93B2190717
:101F00000DD52169002915D0DA0721D50023A3605A
:101F1000636900205B42A361002921D070BDD9060E
:101F20003FD55B0728D4216908231343A3819BB2C3
:101F30000029E9D1A0228020920080001A4082422C
:101F4000E2D021002800FFF7F5F9A3892169DBE73A
:101F500000229B0700D46269A26000200029DDD125
:101F60000C22A35E1A06D9D540221343A38101385F
:101F7000D4E7FEF777FEBFE7216B00290AD02300E4
:101F80004033994204D02800FEF716FF0C23E25E8E
:101F90000023236324239A43002321696360216083
:101FA000C2E709232B60402301201A43A28140424B
:101FB000B4E7C04600000020F0B54E464546DE4678
:101FC0005746E0B5364D83B00600286898460F00A6
:101FD0009146FFF77BF9334B1C68A4235B00E05864
:101FE000002852D043681F2B13DC5A1C0192002E8C
:101FF00028D1019A02339B0042601F502868FFF7E6
:1020000067F9002003B03CBC90469946A246AB4617
:10201000F0BD254B002B3DD0C8204000FFF7D2F982
:10202000002837D0A42200235200A1584360016049
:10203000A050403283500432835001330193002377
:10204000002ED6D09A00924682444A4688215446B1
:102050006250C4225200914681444A4687399940D1
:1020600012688B460A4394464A46614611608422B0
:1020700041465200A150022EBBD102005C468D3277
:10208000FF3211680C431460B3E720004D30FF307D
:10209000E050A7E72868FFF71BF901204042B1E7AD
:1020A00030040020CC240000C5130000002370B5CC
:1020B000064C05000800236000F0A8F9431C00D07E
:1020C00070BD2368002BFBD02B60F9E7D0080020FF
:1020D00070B505000C1E40D0002802D0836B002B89
:1020E0003ED00126636E334233D1A3899B0543D58D
:1020F00021002800FEF7B4FCE36A0600002B04D0A0
:10210000E16928009847002844DBA3891B062AD4EC
:10211000216B002908D023004033994202D02800C7
:10212000FEF74AFE00232363616C002904D02800D7
:10213000FEF742FE00236364FEF7C4FD0023A38183
:10214000636EDB0714D5A06DFFF7BEF8FEF7C2FD86
:1021500004E00C22A35E002BCAD10026300070BD23
:10216000FEF780FDBDE721692800FEF725FECFE7D9
:10217000A06DFFF7ADF8E6E7A06DFFF7A7F80C221A
:10218000A35E002BB4D1636E1E40E6D1A06DFFF7B5
:102190009FF8E3E701267642B7E7C046002370B513
:1021A000074C050008001100236000F037F9431CBC
:1021B00000D070BD2368002BFBD02B60F9E7C04630
:1021C000D0080020002370B5064C050008002360ED
:1021D00000F02CF9431C00D070BD2368002BFBD00D
:1021E0002B60F9E7D008002070B505000800110049
:1021F0000022064C22601A0000F020F9431C00D097
:1022000070BD2368002BFBD02B60F9E7D0080020BD
:1022100070B50500080011000022064C22601A006B
:10222000FEF7ECF8431C00D070BD2368002BFBD0F8
:102230002B60F9E7D008002003460B437FD400222F
:1022400043088B4274D303098B425FD3030A8B424A
:1022500044D3030B8B4228D3030C8B420DD3FF22B4
:10226000090212BA030C8B4202D31212090265D082
:10227000030B8B4219D300E0090AC30B8B4201D335
:10228000CB03C01A5241830B8B4201D38B03C01A7C
:102290005241430B8B4201D34B03C01A5241030BF3
:1022A0008B4201D30B03C01A5241C30A8B4201D3A4
:1022B000CB02C01A5241830A8B4201D38B02C01A4F
:1022C0005241430A8B4201D34B02C01A5241030AC6
:1022D0008B4201D30B02C01A5241CDD2C3098B42AB
:1022E00001D3CB01C01A524183098B4201D38B0128
:1022F000C01A524143098B4201D34B01C01A5241CB
:1023000003098B4201D30B01C01A5241C3088B420F
:1023100001D3CB00C01A524183088B4201D38B00FA
:10232000C01A524143088B4201D34B00C01A52419C
:10233000411A00D201465241104670475DE0CA0F73
:1023400000D04942031000D34042534000229C4633
:1023500003098B422DD3030A8B4212D3FC2289013D
:1023600012BA030A8B420CD3890192118B4208D313
:10237000890192118B4204D389013AD0921100E075
:102380008909C3098B4201D3CB01C01A5241830989
:102390008B4201D38B01C01A524143098B4201D3B6
:1023A0004B01C01A524103098B4201D30B01C01AE1
:1023B0005241C3088B4201D3CB00C01A524183085B
:1023C0008B4201D38B00C01A5241D9D243088B42B1
:1023D00001D34B00C01A5241411A00D20146634654
:1023E00052415B10104601D34042002B00D54942B8
:1023F000704763465B1000D3404201B50020FEF7F2
:1024000003F902BD0029F8D016E7704758220120D1
:10241000014B40421A607047D0080020582201202A
:10242000014B40421A607047D00800205822024BEE
:1024300000201A607047C046D008002058220120B2
:10244000014B40421A607047D00800200D0A0D0A67
:1024500041432044656D6F202D20525443207472F7
:1024600069676765727320414320636F6D706172A5
:1024700069736F6E206F6E20504130340D000D0A6D
:102480005041303420766F6C746167652069732029
:1024900061626F766520646574656374206C65762F
:1024A000656C0D000D0A5041303420766F6C7461FC
:1024B00067652069732062656C6F77206465746559
:1024C0006374206C6576656C0D00000008000020C8
:1024D0000A000000F8B5C046F8BC08BC9E4670472C
:1024E000390A0000D9000000F8B5C046F8BC08BCA5
:0824F0009E467047B100000098
:1024F800080000200000000000000000F402002096
:102508005C030020C403002000000000000000005D
:1025180000000000000000000000000000000000B3
:1025280000000000000000000000000000000000A3
:102538000000000000000000000000000000000093
:102548000000000000000000000000000000000083
:102558000000000000000000000000000000000073
:102568000000000000000000000000000000000063
:102578000000000000000000000000000000000053
:102588000000000000000000000000000000000043
:102598000000000000000000000000000000000033
:1025A80001000000000000000E33CDAB34126DE6D0
:1025B800ECDE05000B000000000000000000000039
:1025C8000000000000000000000000000000000003
:1025D80000000000000000000000000000000000F3
:1025E80000000000000000000000000000000000E3
:1025F80000000000000000000000000000000000D3
:10292800AC08002000000000000000003404002073
:10293800340400203C0400203C040020440400200F
:10294800440400204C0400204C04002054040020BF
:10295800540400205C0400205C040020640400206F
:10296800640400206C0400206C040020740400201F
:10297800740400207C0400207C04002084040020CF
:10298800840400208C0400208C040020940400207F
:10299800940400209C0400209C040020A40400202F
:1029A800A4040020AC040020AC040020B4040020DF
:1029B800B4040020BC040020BC040020C40400208F
:1029C800C4040020CC040020CC040020D40400203F
:1029D800D4040020DC040020DC040020E4040020EF
:1029E800E4040020EC040020EC040020F40400209F
:1029F800F4040020FC040020FC040020040500204E
:102A0800040500200C0500200C05002014050020FA
:102A1800140500201C0500201C05002024050020AA
:102A2800240500202C0500202C050020340500205A
:102A3800340500203C0500203C050020440500200A
:102A4800440500204C0500204C05002054050020BA
:102A5800540500205C0500205C050020640500206A
:102A6800640500206C0500206C050020740500201A
:102A7800740500207C0500207C05002084050020CA
:102A8800840500208C0500208C050020940500207A
:102A9800940500209C0500209C050020A40500202A
:102AA800A4050020AC050020AC050020B4050020DA
:102AB800B4050020BC050020BC050020C40500208A
:102AC800C4050020CC050020CC050020D40500203A
:102AD800D4050020DC050020DC050020E4050020EA
:102AE800E4050020EC050020EC050020F40500209A
:102AF800F4050020FC050020FC0500200406002049
:102B0800040600200C0600200C06002014060020F5
:102B1800140600201C0600201C06002024060020A5
:102B2800240600202C0600202C0600203406002055
:102B3800340600203C0600203C0600204406002005
:102B4800440600204C0600204C06002054060020B5
:102B5800540600205C0600205C0600206406002065
:102B6800640600206C0600206C0600207406002015
:102B7800740600207C0600207C06002084060020C5
:102B8800840600208C0600208C0600209406002075
:102B9800940600209C0600209C060020A406002025
:102BA800A4060020AC060020AC060020B4060020D5
:102BB800B4060020BC060020BC060020C406002085
:102BC800C4060020CC060020CC060020D406002035
:102BD800D4060020DC060020DC060020E4060020E5
:102BE800E4060020EC060020EC060020F406002095
:102BF800F4060020FC060020FC0600200407002044
:102C0800040700200C0700200C07002014070020F0
:102C1800140700201C0700201C07002024070020A0
:102C2800240700202C0700202C0700203407002050
:102C3800340700203C0700203C0700204407002000
:102C4800440700204C0700204C07002054070020B0
:102C5800540700205C0700205C0700206407002060
:102C6800640700206C0700206C0700207407002010
:102C7800740700207C0700207C07002084070020C0
:102C8800840700208C0700208C0700209407002070
:102C9800940700209C0700209C070020A407002020
:102CA800A4070020AC070020AC070020B4070020D0
:102CB800B4070020BC070020BC070020C407002080
:102CC800C4070020CC070020CC070020D407002030
:102CD800D4070020DC070020DC070020E4070020E0
:102CE800E4070020EC070020EC070020F407002090
:102CF800F4070020FC070020FC070020040800203F
:102D0800040800200C0800200C08002014080020EB
:102D1800140800201C0800201C080020240800209B
:102D2800240800202C0800202C080020FFFFFFFFAB
:042D38000000020095
:00000001FF
