:020000040000fa
:10000000f03f0020add500001d12010031060100b7
:1000100000000000000000000000000000000000e0
:10002000000000000000000000000000df9c000055
:100030000000000000000000df9c00001506010029
:10004000df9c0000df9c0000df9c0000df9c0000c4
:1000500029da0000df9c0000df9c0000df9c00002c
:10006000df9c0000df9c0000df9c0000df9c0000a4
:10007000ad7a0000df9c0000df9c0000df9c0000e8
:10008000df9c0000df9c0000df9c0000df9c000084
:10009000df9c00000000000000000000df9c00006a
:1000a000df9c0000df9c0000df9c0000df9c000064
:0800b00000000000df9c0000cd
:020000040000fa
:1000b800f8b5c046f8bc08bc9e46704781de000013
:1000c800f8b5c046f8bc08bc9e46704759de00002b
:020000040000fa
:1000d800c0880000010000001c9b00000100000017
:020000040000fa
:1000e800f0b516001f00446a9db00490259d069641
:1000f8000797002c08d1102010f078fe049b586256
:10010800446084600460c460049b5b6a19680029c9
:100118000bd05a68012393404a608b6004980ef014
:100128008fff0022049b5b6a1a60079b002b1cda76
:1001380001232b607b005b080793079cba4b2200c6
:1001480019931a409a421cd1b84b249a1360069a04
:10015800b74b002a03d1240301d100f08cfd269a65
:10016800002a05d109330a9308e000232b60e4e74d
:100178001a0009320a920c33269a13600a981db0a5
:10018800f0bd069e079f00220023300039000cf0c6
:10019800a7f8051e0ed00123249a1360a44b1a0059
:1001a8000d320a92269a002ae8d01a0026990e32b1
:1001b8000a60e3e71aab01931bab009332003b00e4
:1001c80004980af0e7fd630005905b0d00d17fe01d
:1001d8003a03984c120b14432100974a30001895a3
:1001e8009e180022954b02f057fb954a954b04f058
:1001f800fffa954a954b02f027fe040030000d00e7
:100208000cf0d6fb924a934b04f0f2fa02000b0072
:100218002000290002f018fe04000d000cf0cafeb0
:10022800002203900023200029000cf05ff800282a
:100238000ed003980cf0bcfb0b0002002900200034
:100248000cf04ef8030058425841039b1b1a0393c5
:1002580001231693039b162b0fd87f49db00c9187f
:1002680008684968069a079b0cf054f800284bd098
:10027800039b013b0393002316931a9b9e1b0023a9
:100288000b933300013b0c9304d501239b1b0b9369
:1002980000230c93039b002b38db039a0c9b94469a
:1002a80063440c9300230f920893229b0125092b8a
:1002b80000d991e0052b02dd0025043b2293229b07
:1002c800981e032800d991e010f07cfd82842976dd
:1002d8001a9b1b9a9e18614bf218202a0fdd203baf
:1002e8000698f318d84040239b1a9c4020430cf0f2
:1002f8002bff01235a4c013e0919189371e720235b
:1003080006989b1a9840f2e71690b6e70b9b039a5b
:100318009b1a0b935342089300230f93c5e70123bd
:100328000e93239b002b65dd1f000d93049a546ade
:100338000022626004221100143199425fd9616879
:1003480004980cf087fc049b20605b6a1b680a9386
:100358000e2f00d9fce0002d00d1f9e0069b079c88
:1003680014931594039b002b00dc7de01a000f21e9
:10037800394b0a40d2009b185c681b681093119493
:10038800039b02241d11eb060ad5364b0d401a6a51
:100398005b6a1498159903f0e1fa03240690079113
:1003a800304e002d30d1109a119b0698079903f012
:1003b800d5fa0690079171e00123239a0e9394468b
:1003c800039b63445f1c0d933b1eafdc0123ade729
:1003d8000023a5e70023f0e700230e952293013bb5
:1003e8000d931f000022122323929fe701230e93ef
:1003f800023bf5e701230d931f001a00f4e761683b
:1004080052000131616096e701231d4208d010981f
:100418001199e4183268736804f0eaf910901191a0
:100428006d100836bde7c0460000f07f0f270000ba
:10043800640f01000000f03f01fcffff0000f83fdf
:1004480061436f63a787d23fb3c8608b288ac63fd2
:10045800fb799f501344d33f58a400003204000096
:10046800000010fe48fa0000039b0224002b15d060
:10047800149815995d420f23c94a2b40db00d31805
:100488001a685b6804f0b4f9002306900791c54e1a
:100498002d11002d00d08be0002b8ad1169b002b4c
:1004a80000d191e0069a079b109211931098119928
:1004b8000022bd4b0bf01aff002800d184e0002f6a
:1004c80000d181e00d9b002b3edd10981199039b14
:1004d80000225e1eb54b04f08bf9069007910d9d26
:1004e800013420000cf064fa069a079b04f080f9a6
:1004f8000022af4b02f0a8fc12901391129b139ca0
:10050800ac4a10931194139b9c181194002d5ed142
:10051800069807990022a84b02f0bef9109a23000a
:10052800069007910bf0f6fe002800d000e3a348e0
:100538001399844661440b0006980799109a0bf0aa
:10054800d5fe002800d0e7e2149b159c069307947b
:100558001b9b002b00da56e1039a0e2a00dd52e1bc
:100568008f4bd2009b185c681b6808930994239be7
:10057800002b00dbcee0002f00ddcbe000d0cee288
:100588000898099900228c4b04f032f9069a079bc7
:100598000bf0cafe3e000897002800d0a3e20a9b91
:1005a8000a9a5d1c31231370039b013303939ee267
:1005b8000122154205d0a4183268736804f018f9ae
:1005c80001236d10083664e7039e3d0089e70a9a07
:1005d800691e521917920e9a714bc900002a4ad007
:1005e8005b181a685b680020754903f0b7f9109a20
:1005f800119b02f051f90a9b1090119112930698e1
:1006080007990cf0d7fc04000cf0d2f902000b009b
:100618000698079902f040f9129b30345d1c1c7053
:10062800109a119b069007910bf060fe002865d187
:10063800069a079b00205c4902f02ef9109a119b3c
:100648000bf054fe002800d0bde0179b9d4200d15e
:100658007ae7109811990022544b04f0c9f8002247
:100668001090119106980799504b04f0c1f8129513
:1006780006900791c3e7591808684968109a119bb2
:1006880004f0b6f8109011910a9c179d06980799e6
:100698000cf090fc12900cf08bf902000b000698fd
:1006a800079902f0f9f8129b0690079130332370ee
:1006b800179b01340022a34224d1414b1098119971
:1006c80002f0c2fb02000b00069807990bf022fe0d
:1006d800002800d077e0109a119b0020384902f0da
:1006e800dbf802000b00069807990bf0fffd0028c5
:1006f80000d129e76b1e1a78302a01d003963fe013
:100708001d00f7e706980799284b04f071f8069042
:100718000791bbe70a9e089a099b0698079903f078
:100728001df90cf047fc04000cf042f9089a099beb
:1007380004f05ef80b0002000698079902f0acf886
:100748002300303333700a9b751ceb1a9f424bd140
:1007580002000b0002f078fb06000f0002000b00fd
:10076800089809990bf0c2fd00282bd1089809991f
:1007780032003b000bf0b4fd002801d0e30721d480
:10078800059904980ef05cfc00232b70039b249ab7
:1007980001331360269b002b00d1efe41d60ede4cc
:1007a80058a4000048fa00000000f03f0000244070
:1007b80000001c400000c0fc000014400000c07c89
:1007c8000000e03f039e6b1e1a78392a06d10a9a68
:1007d8009a4207d130231370130001361a78013278
:1007e8001a708be71d00eee70022cf4b04f000f8eb
:1007f80000220023069007912e000bf071fd0028bf
:1008080000d188e7bce70e9a002a00d187e0229a37
:10081800012a6edc189a002a67d0c44a9b18089de2
:100828000b9c0b9a0121d2180b920c9a0498d3189e
:100838000c9310f0f8fa0600002c0edd0c9b002b30
:100848000bdd0c9a2300944200dd13000b9ae41a86
:10085800d21a0b920c9ad31a0c93089b002b1ed019
:100868000e9b002b5fd0002d11dd31002a0004986b
:100878000af07efc059a01000600049808f017f9b2
:100888000599109004980ef0dbfb109b0593089bcc
:100898005a1b04d0059904980af06afc05900121b6
:1008a800049810f0c0fa0f9b0890002b3ddd1a0049
:1008b800010004980af05cfc229b08900025012b9b
:1008c8003bdc0025069bab4233d1079b1b03ab42a5
:1008d8002fd1199b079a13422bd00b9b012501336b
:1008e8000b930c9b01330c9323e036231a9a9b1a23
:1008f80095e7089b7d1eab4206db5d1b002f0bdadc
:100908000b9bdc1b00238ce7089b0895ea1a0f9bbe
:1009180000259b180f93f1e70b9c3b0081e7089d8e
:100928000b9c0e9e88e7089ab4e7229b0025012bb2
:10093800c7dd0f9b0120002b0bd0089b089a1b6971
:100948000f9303339b00d31858680ef045fb202300
:10095800181a0c9bc0181f23184000d1abe02023a5
:100968001b1a042b00dc9be01c23181a0b9b241871
:100978001b180b930c9b1b180c930b9b002b05dd72
:100988001a00059904980af051fb05900c9b002b5e
:1009980005dd1a00089904980af048fb0890169b90
:1009a800002b00d189e0089905980ef062fb002819
:1009b80000db82e0039b0a22013b03930599002395
:1009c80004980bf0e7fd0e9b0590002b00d15be12e
:1009d800002331000a2204980bf0dcfd0d9b060071
:1009e800002b02dc229b022b6ddc002c05dd310084
:1009f800220004980af01afb06003000002d11d0de
:100a0800716804980cf026f93100040033690c3140
:100a18009a1c92000c3010f0fdf901222100049874
:100a28000af004fb0d9f0a9b013f0b93db1937006b
:100a380006000f930899059808f07cfc39000d9082
:100a4800040005980ef015fb32000e9008990498e2
:100a580009f098fc01230c93c36830340500002b7f
:100a680004d1010005980ef004fb0c9029000498ad
:100a78000ef0e6fa0c9b229a134300d089e001237a
:100a8800069a134200d084e0392c00d1a3e00e9bd3
:100a9800002b01dd0d9c31340b9b5d1c1c7027e085
:100aa800042b00d169e70b9a1c33d2180b920c9acd
:100ab800e418d31860e70300f5e7002f3cdc229b1d
:100ac800022b39dd0d970d9b002b0cd108990522bf
:100ad80004980bf05ffd0890010005980ef0c9fa24
:100ae800002800dd5be5239b0a9ddb430393002779
:100af800089904980ef0a4fa002e00d140e6002fc1
:100b080005d0b74203d0390004980ef099fa3100a5
:100b180004980ef095fa33e608952e00e3e70023d3
:100b280008931e00dfe7c04600002440330400009d
:100b3800039608952e0032e50e9b0d97002b00d0ea
:100b480053e70a9d0899059808f0f4fb0a9b303092
:100b58000d9a287001350400eb1a9a4278dc151eac
:100b680000dc012500270a9b5d19059901220498dc
:100b78000af05cfa089905900ef07bfa00282fdc41
:100b880001d1e3072cd46b1e1a78302ab0d11d008e
:100b9800f9e70e9b002b07db1d00229b1d4326d186
:100ba8000123069a134222d10c9b002b00dc73e729
:100bb8000599012204980af039fa089905900ef06f
:100bc80058fa002804dc00d066e7e30700d463e79e
:100bd800392c00d05ee70b9b0b9a5d1c39231370f0
:100be8006b1e1a78392a3bd001321a7080e70b9baa
:100bf80001330d930c9b002b05dd392cebd00d9d9b
:100c080001340b9b4ae70b9b0f9a0d9d1c70934276
:100c1800abd000230a22059904980bf0bbfc0023f3
:100c280005900a2239000498b74206d10bf0b2fcad
:100c3800070006000d9b0b93fce60bf0abfc3100a4
:100c4800070000230a2204980bf0a4fc0600f1e731
:100c580000230a22059904980bf09cfc059071e783
:100c68000a9a9a4205d1039b0133039331231370e7
:100c78003ee71d00b4e7269a0a930833002a01d0fc
:100c8800fff77afafff77afa0d9b002b00dd58e799
:0c0c9800229b022b00dc54e715e7c0464d
:020000040000fa
:100ca400435254005b25733a2025733a25645d2032
:100cb4002573206d757374206e6f742062652063d4
:100cc400616c6c65642066726f6d20776974686905
:100cd4006e20796f75722068616e646c6572206332
:100ce400616c6c6261636b732028652e672e2072c1
:100cf4006f7574696e65732077686f7365206e61b4
:100d04006d657320626567696e2077697468202752
:100d140041434b557365725f4f6e27292e000000c7
:100d240072652d656e74727920636865636b00006b
:100d34005b25733a2025733a25645d2041434b209b
:100d44004465766963652053444b20496d706c6536
:100d54006d656e746174696f6e20436f72652028cf
:100d640072652d29737461727465643b20666972bf
:100d74006d776172652076657273696f6e20256c7c
:100d84006c7520283078256c6c78292e00000000c2
:100d9400494e46005b25733a2025733a25645d204d
:100da400526573657474696e672041434b206d6f9f
:100db40064756c652e0000005b25733a2025733a38
:100dc40025645d2041434b20446576696365205367
:100dd400444b20496d706c656d656e746174696f08
:100de4006e20436f72652066756c6c7920696e693c
:100df4007469616c697a65642e0000005b25733a3e
:100e04002025733a25645d20496e697469617469ab
:100e14006e67206c6f67207375626d697373696f99
:100e24006e2e2e2e00000000455252005b25733ab0
:100e34002025733a25645d20556e61626c652074cb
:100e44006f207375626d6974206c6f6773202865f9
:100e54007272202575292e005b25733a2025733a7a
:100e640025645d204c6f6773207375626d697474bb
:100e74006564207375636365737366756c6c792e32
:100e8400000000005b25733a2025733a25645d2039
:100e94005265626f6f74696e672041434b20436fe4
:100ea4006e6e6563746976697479204d6f64756cd0
:100eb400652e00005b25733a2025733a25645d2076
:100ec400496e6974696174696e672041434b2043bc
:100ed4006f6e6e6563746976697479204d6f64759d
:100ee4006c6520666163746f7279207265736574d2
:100ef4002e2e2e005b25733a2025733a25645d203f
:100f0400556e61626c6520746f20696e69746961e5
:100f140074652041434b20436f6e6e65637469763c
:100f2400697479204d6f64756c6520666163746fb4
:100f34007279207265736574202865727220257534
:100f4400292e00005b25733a2025733a25645d2021
:100f540041434b20436f6e6e65637469766974799f
:100f6400204d6f64756c6520666163746f727920bf
:100f7400726573657420696e2070726f6772657331
:100f8400732e00005b25733a2025733a25645d2097
:100f9400496e6974696174696e6720757365722d31
:100fa4006775696465642073657475702e2e2e00f0
:100fb4005b25733a2025733a25645d20556e616282
:100fc4006c6520746f20696e69746961746520753d
:100fd4007365722d677569646564207365747570d3
:100fe4002028657272202575292e00005b25733a2e
:100ff4002025733a25645d20557365722d677569e4
:1010040064656420736574757020737563636573b8
:101014007366756c6c7920696e6974696174656452
:101024002e0000005b25733a2025733a25645d2069
:1010340053656e64696e6720686f737420636f6ea6
:1010440066696720746f2041434b20436f6e6e6561
:1010540063746976697479204d6f64756c652e2e9e
:101064002e0000005b25733a2025733a25645d2029
:10107400556e61626c6520746f2073656e642068c0
:101084006f737420636f6e66696720746f204143c9
:101094004b20436f6e6e6563746976697479204d75
:1010a4006f64756c652028657272202575292e0081
:1010b4005b25733a2025733a25645d2053656e746d
:1010c40020686f737420636f6e66696720746f2085
:1010d40041434b20436f6e6e65637469766974791e
:1010e400204d6f64756c652e000000005b25733a1b
:1010f4002025733a25645d20556e61626c65207409
:101104006f207265747269657665206d6f64756ca5
:101114006520646576696365207479706520646907
:1011240061676e6f7374696320696e666f202865ea
:1011340072722025752900005b25733a2025733ac5
:1011440025645d204d6f64756c6520646961676e0c
:101154006f7374696320646576696365207479705c
:10116400653a2025730000005b25733a2025733a05
:1011740025645d20556e61626c6520746f20726514
:10118400747269657665206d6f64756c6520666937
:10119400726d7761726520646961676e6f737469db
:1011a4006320696e666f2028657272202575290098
:1011b4005b25733a2025733a25645d204d6f647571
:1011c4006c6520646961676e6f7374696320666916
:1011d400726d776172652076657273696f6e3a20fd
:1011e40070726f746f636f6c2025752c2062756943
:1011f4006c642025752c20696e6372656d656e7450
:10120400616c2076657273696f6e2025730000002f
:101214005b25733a2025733a25645d20556e61621f
:101224006c6520746f207265747269657665206dd3
:101234006f64756c6520686172647761726520649f
:101244006961676e6f7374696320696e666f2028c5
:1012540065727220257529005b25733a2025733a3f
:1012640025645d204d6f64756c652044534e3a20af
:10127400257300005b25733a2025733a25645d20ad
:10128400556e61626c6520746f2072657472696555
:1012940076652070726f766973696f6e696e672008
:1012a400696e666f2028657272202575290000001a
:1012b4005b25733a2025733a25645d204d6f647570
:1012c4006c652070726f766973696f6e696e6720e2
:1012d40073746174653a20257500000057524e00fe
:1012e4005b25733a2025733a25645d204572726f3d
:1012f400722025752073656e64696e672064697257
:1013040065637469766520726573706f6e736520aa
:101314006576656e742e00005b25733a2025733a5a
:1013240025645d2050726f6365737365642061206a
:101334006469726563746976652c20627574206ec5
:101344006f20726573706f6e7365207761732063ad
:10135400726561746564207669612041434b5f4323
:101364006f6d706c6574652a20726f7574696e6533
:10137400732e00005b25733a2025733a25645d20a3
:1013840054686520436f6e6e656374697669747919
:10139400204d6f64756c6520697320726571756585
:1013a4007374696e6720746f206265207265626f62
:1013b4006f74656420282573292e0000666f72639c
:1013c400656400006e6f7420666f7263656400006c
:1013d4005b25733a2025733a25645d20436f6e6e56
:1013e4006563746976697479204d6f64756c6520e2
:1013f40066696e697368656420626f6f74696e678d
:10140400206f72207265626f6f74696e672e0000c0
:101414005b25733a2025733a25645d20436f6e6e15
:101424006563746976697479204d6f64756c6520a1
:10143400666163746f727920726573657420636f7b
:101444006d706c6574652e005b25733a2025733ac4
:1014540025645d20466163746f72792072657365db
:1014640074207265717565737465642e0000c046de
:10147400455252005b25733a2025733a25645d205a
:10148400556e61626c6520746f2073656e642070a4
:10149400726f766973696f6e696e6720636f6d6dc5
:1014a400616e642c206572722025752e0000000088
:1014b400486561706c6574416363657373284d4559
:1014c4004d5f4f5554424f554e445f4143505f4327
:1014d4004d4429203d3d2070436f6d6d616e640065
:1014e4005b25733a2025733a25645d20556e61624d
:1014f4006c6520746f20656e636f64652074686525
:101504002073656e6420416c657861207265737028
:101514006f6e736520636f6d6d616e642e2042750e
:10152400666665722073697a652069732025752e55
:1015340000000000486561706c6574416363657305
:1015440073284d454d5f4f5554424f554e445f45aa
:101554004e434f4445445f4143505f434d4429202b
:101564003d3d2070456e636f646564446174610041
:101574005b25733a2025733a25645d20556e6162bc
:101584006c6520746f2073656e6420416c657861ae
:1015940020726573706f6e736520636f6d6d616e1d
:1015a400642c206572723a2025752e007052657382
:1015b400706f6e7365203d3d20286163705f7265b6
:1015c40073706f6e73652a29486561706c65744128
:1015d4006363657373284d454d5f524543454956d2
:1015e40045445f4143505f524553504f4e53452944
:1015f400000000005b25733a2025733a25645d20c2
:10160400556e61626c6520746f206465636f6465f8
:1016140020646972656374697665207375626d65ab
:1016240073736167652e0000494e46005b25733a6b
:101634002025733a25645d2053656e64696e6720c6
:101644006765742d70726f766973696f6e696e6702
:101654002d696e666f20636f6d6d616e642e000080
:101664005b25733a2025733a25645d20496e636fc8
:10167400727265637420726573706f6e7365207423
:101684006f206765742d70726f766973696f6e6908
:101694006e672d696e666f20646961676e6f73741f
:1016a400696320636f6d6d616e642e005b25733a10
:1016b4002025733a25645d2053656e64696e672046
:1016c4006765742d68617264776172652d696e66f1
:1016d4006f20636f6d6d616e642e00005b25733a3d
:1016e4002025733a25645d20496e636f72726563c9
:1016f4007420726573706f6e736520746f206765f4
:10170400742d68617264776172652d696e666f20ed
:10171400646961676e6f7374696320636f6d6d6173
:101724006e642e005b25733a2025733a25645d2090
:10173400556e61626c6520746f206465636f6465c7
:10174400206765742d68617264776172652d696eb6
:10175400666f20646961676e6f7374696320636f79
:101764006d6d616e6420726573756c742e0000007b
:1017740064736e42756666657253697a65203e20ad
:10178400310000005b25733a2025733a25645d20ff
:1017940053656e64696e67206765742d6669726d42
:1017a400776172652d76657273696f6e20636f6df4
:1017b4006d616e642e0000005b25733a2025733a38
:1017c40025645d20556e61626c6520746f207365bd
:1017d4006e64206765742d6669726d776172652d1c
:1017e40076657273696f6e3b206572722025752e63
:1017f400000000005b25733a2025733a25645d20c0
:10180400496e636f727265637420726573706f6e74
:10181400736520746f206765742d6669726d7761d6
:1018240072652d76657273696f6e20646961676e87
:101834006f7374696320636f6d6d616e642e000055
:101844005b25733a2025733a25645d20556e6162e9
:101854006c6520746f206465636f646520676574cc
:101864002d6669726d776172652d76657273696f25
:101874006e20646961676e6f7374696320636f6d52
:101884006d616e6420726573756c742e00000000c7
:10189400696e6372656d656e74616c5665727369a9
:1018a4006f6e42756666657253697a65203e2031b3
:1018b400000000005b25733a2025733a25645d20ff
:1018c40053656e64696e67206765742d6465766917
:1018d40063652d7479706520636f6d6d616e642e20
:1018e400000000005b25733a2025733a25645d20cf
:1018f400496e636f727265637420726573706f6e84
:10190400736520746f206765742d646576696365fb
:101914002d7479706520646961676e6f737469638f
:1019240020636f6d6d616e642e0000005b25733a59
:101934002025733a25645d20556e61626c652074c0
:101944006f206465636f6465206765742d6d616ed7
:1019540075666163747572696e672d696e666f2052
:10196400646961676e6f7374696320636f6d6d6121
:101974006e6420726573756c742e00003020213df6
:101984002064657669636554797065427566666539
:101994007253697a650000005b25733a2025733a17
:1019a40025645d204c4f473a202573006163705fc6
:1019b4006c6f675f6c6576656c5f646562756720e4
:1019c4003d3d206c6f674c6576656c005b25733a12
:1019d4002025733a25645d204572726f7220656e0e
:1019e400636f64696e6720616e642073656e6469f9
:1019f4006e6720636f6d6d616e642c20657272205a
:101a0400257500005b25733a2025733a25645d2013
:101a140053656e64696e67207375626d6974206cba
:101a24006f677320636f6d6d616e64005b25733a3d
:101a34002025733a25645d2053656e64696e6720c2
:101a4400777269746520686f737420636f6e66695a
:101a54006720636f6d6d616e640000005b25733aef
:101a64002025733a25645d2053656e64696e672092
:101a74007472696767657220666163746f72792036
:101a8400726573657420636f6d6d616e6400000030
:101a94005b25733a2025733a25645d2053656e6493
:101aa400696e6720696e6974696174652075736510
:101ab400722d67756964656420736574757020633d
:101ac4006f6d6d616e6420746f20746865206d6f36
:101ad40064756c652e0000005b25733a2025733a0b
:101ae40025645d204572726f7220656e636f646950
:101af4006e6720616e642073656e64696e67206929
:101b04006e69746961746520757365722d67756992
:101b140064656420736574757020636f6d6d616ea8
:101b2400642c206572722025750000005b25733ad1
:101b34002025733a25645d2053656e6420616370cb
:101b44005f636d6420616e642067657420616e64f8
:101b5400206465636f6465206163705f7265737090
:101b64006f6e7365206661696c65642c20657272a2
:101b7400202575005b25733a2025733a25645d2082
:101b840052656365697665642067656e657269632d
:101b9400206572726f7220726573706f6e73652048
:101ba400257500005b25733a2025733a25645d2072
:101bb400496e636f727265637420726573706f6ec1
:101bc40073652e2045787065637465642067657459
:101bd4005f50726f636573734576656e7453746199
:101be40074655f73746174757320726573706f6e5e
:101bf40073652e20496e737465616420676f742069
:101c040025752e0030203d3d2028486561706c65a7
:101c14007447657453697a65284d454d5f4f555433
:101c2400424f554e445f4556454e545f50524f50b7
:101c3400455254595f415252415929202520736914
:101c44007a656f66282a7050726f70657274696560
:101c540073292900486561706c6574416363657319
:101c640073284d454d5f4f5554424f554e445f4583
:101c740056454e545f4143505f5354525543542983
:101c8400203d3d20704576656e740000455252003b
:101c94005b25733a2025733a25645d20556e616295
:101ca4006c6520746f206465636f646520416c65a6
:101cb400786120696e746572666163652064697217
:101cc400656374697665207061796c6f61642e0058
:101cd40057524e005b25733a2025733a25645d20e4
:101ce400556e68616e646c656420646972656374c2
:101cf40069766520257520696e20416c65786120c0
:101d04006e616d657370616365000000494e460045
:101d14005b25733a2025733a25645d204469726516
:101d240063746976652069732061207265717565d5
:101d3400737420746f207265706f72742073746191
:101d440074652e005b25733a2025733a25645d2063
:101d54004372656174696e6720416c6578612072b5
:101d64006573706f6e7365206576656e742c206381
:101d74006f7272656c6174696f6e496420256c645e
:101d84002e0000005b25733a2025733a25645d20fc
:101d94004372656174696e6720416c657861207374
:101da40074617465207265706f7274206576656ef7
:101db400742c20636f7272656c6174696f6e496410
:101dc40020256c642e0000005b25733a2025733aad
:101dd40025645d2053656e64696e6720416c657887
:101de40061206368616e6765207265706f7274202c
:101df4006576656e742c2063617573652025752e78
:101e040000000000435254005b25733a2025733ac6
:101e140025645d202573206d757374206e6f7420a6
:101e240062652063616c6c65642066726f6d2077f7
:101e3400697468696e20796f75722068616e646c6c
:101e440065722063616c6c6261636b732028652e1c
:101e5400672e20726f7574696e65732077686f736f
:101e640065206e616d657320626567696e207769b0
:101e74007468202741434b557365725f4f6e272961
:101e84002e00000072652d656e747279206368659a
:101e9400636b00005b25733a2025733a25645d204b
:101ea4004572726f722025752073656e64696e6762
:101eb400206368616e6765207265706f7274206557
:101ec40076656e742e0000005b25733a2025733a04
:101ed40025645d20556e61626c6520746f207365a6
:101ee4007420757020666f7220416c65786120657e
:101ef40072726f7220726573706f6e73652c2065d9
:101f040072722025750000004e554c4c203d3d203a
:101f1400486561706c6574416363657373284d45ee
:101f24004d5f4f5554424f554e445f4556454e54b0
:101f34005f454e434f4445445f50524f50455254c1
:101f4400595f4441544129005b25733a2025733a73
:101f540025645d20456e636f64696e6720657272e7
:101f64006f7220726573706f6e7365207061796c27
:101f74006f6164206661696c65642e005b25733a49
:101f84002025733a25645d204372656174696e6728
:101f940020416c657861206572726f72207265737e
:101fa400706f6e7365206576656e742c20636f7236
:101fb40072656c6174696f6e496420256c642c20b1
:101fc4006572726f7220547970652025752e000039
:101fd4005b25733a2025733a25645d20556e616252
:101fe4006c6520746f20656e636f64652070617921
:101ff4006c6f616420666f7220416c657861206546
:1020040072726f7220726573706f6e73652c2065c7
:1020140072722025752e0000212022546f207265d3
:10202400706f72742074686973206b696e64206fba
:1020340066206572726f722c20796f75206d7573ce
:10204400742063616c6c2061206d6f726520737005
:102054006563696669632041434b5f436f6d706cd0
:1020640065746544697265637469766557697468f3
:102074002a4572726f7220222022726f7574696e03
:10208400652e2053656520636f6d6d656e747320d6
:10209400696e2061636b2e682e2200005b25733a03
:1020a4002025733a25645d20556e61626c65207449
:1020b4006f20656e636f6465207061796c6f616415
:1020c40020666f722076616c75652d6f662d6f7555
:1020d400742d72616e676520416c6578612065724c
:1020e400726f7220726573706f6e73652c206572e7
:1020f400722025752e0000005b25733a2025733a63
:1021040025645d204372656174696e6720416c6566
:1021140078612076616c75652d6f75742d6f662df1
:1021240072616e6765206572726f7220726573707a
:102134006f6e7365206576656e742c20636f7272a2
:10214400656c6174696f6e496420256c642e0000af
:102154005b25733a2025733a25645d20556e6162d0
:102164006c6520746f20656e636f6465207061799f
:102174006c6f616420666f722074656d7065726146
:10218400747572652d6f75742d6f662d72616e672f
:102194006520416c657861206572726f722072658a
:1021a40073706f6e73652c206572722025752e0016
:1021b4005b25733a2025733a25645d20437265617b
:1021c40074696e6720416c6578612074656d706513
:1021d4007261747572652d76616c75652d6f757499
:1021e4002d6f662d72616e6765206572726f722045
:1021f400726573706f6e7365206576656e742c20de
:10220400636f7272656c6174696f6e496420256cca
:10221400642e00005b25733a2025733a25645d2003
:10222400556e61626c6520746f20656e636f6465c2
:10223400207061796c6f616420666f72206e6f74b8
:102244002d737570706f727465642d696e2d63756e
:102254007272656e742d6d6f646520416c65786172
:10226400206572726f7220726573706f6e73652c65
:1022740020657272202575005b25733a2025733a18
:1022840025645d204372656174696e6720416c65e5
:102294007861206e6f742d737570706f72746564dd
:1022a4002d696e2d63757272656e742d6d6f646524
:1022b400206572726f7220726573706f6e73652021
:1022c4006576656e742c20636f7272656c617469d7
:1022d4006f6e496420256c642e00c046455252003e
:1022e4005b25733a2025733a25645d20556e61623f
:1022f4006c6520746f20616c6c6f63617465206d14
:10230400656d6f727920666f7220636f6f6b696e93
:10231400672073657373696f6e206576656e742ebe
:10232400000000005b25733a2025733a25645d2084
:10233400556e61626c6520746f20616c6c6f6361b3
:102344007465206d656d6f727920666f7220636f9e
:102354006f6b696e67206572726f7220726573703d
:102364006f6e7365207374727563742e00000000c1
:102374004e554c4c203d3d20486561706c65744160
:102384006363657373284d454d5f4f5554424f55f4
:102394004e445f4556454e545f454e434f44454475
:1023a4005f50524f50455254595f444154412900a3
:1023b4005b25733a2025733a25645d20556e61626e
:1023c4006c6520746f20616c6c6f63617465206d43
:1023d400656d6f727920666f7220636f6f6b696ec3
:1023e40067206572726f7220726573706f6e7365a9
:1023f40020646174612e00005b25733a2025733ad2
:1024040025645d20456e636f64696e672065727232
:102414006f7220726573706f6e7365207061796c72
:102424006f6164206661696c65642e0030203d3df7
:1024340020486561706c657447657453697a6528d2
:102444004d454d5f4f5554424f554e445f4556459b
:102454004e545f50524f50455254595f415252416d
:1024640059290000486561706c6574416363657344
:1024740073284d454d5f4f5554424f554e445f456b
:1024840056454e545f4143505f535452554354296b
:10249400203d3d20704576656e7400005b25733adf
:1024a4002025733a25645d204572726f722025756c
:1024b4002073656e64696e6720636f6f6b696e6706
:1024c4002073657373696f6e206576656e742e0074
:1024d4005b25733a2025733a25645d20556e61624d
:1024e4006c6520746f206465636f646520636f6f2f
:1024f4006b696e6720636f6e74726f6c6c657220ab
:10250400646972656374697665207061796c6f6162
:10251400642e0000494e46005b25733a2025733a29
:1025240025645d2050726f63657373696e67206301
:102534006f6f6b696e6720736574206d6f646520bf
:1025440064697265637469766500000057524e00d1
:102554005b25733a2025733a25645d20556e6861c6
:102564006e646c656420636f6f6b696e6720646969
:1025740072656374697665207061796c6f6164203b
:10258400257500005b25733a2025733a25645d2088
:102594004372656174696e6720636f6f6b696e6700
:1025a400206572726f7220726573706f6e7365202e
:1025b4006576656e742c20636f7272656c617469e4
:1025c4006f6e496420256c642c206572726f7220d2
:1025d400747970652025752e000000002120225496
:1025e4006f207265706f72742074686973206b69f0
:1025f4006e64206f6620636f6f6b696e672065720f
:10260400726f722c20796f75206d757374206361fd
:102614006c6c2061206d6f726520737065636966f0
:1026240069632022202241434b5f436f6d706c65c8
:10263400746544697265637469766557697468433f
:102644006f6f6b696e672a4572726f7220726f7555
:1026540074696e652e2053656520636f6d6d656ebc
:10266400747320696e2061636b5f636f6f6b696e57
:10267400672e682e220000005b25733a2025733aea
:1026840025645d205374617274696e6720636f6f93
:102694006b696e67206475726174696f6e2d746ff7
:1026a4006f2d6c6f6e67206572726f722072657326
:1026b400706f6e7365206576656e742c20636f721f
:1026c40072656c6174696f6e496420256c642e00b8
:1026d4005b25733a2025733a25645d20556e61624b
:1026e4006c6520746f20616c6c6f63617465206d20
:1026f400656d6f727920666f7220636f6f6b696ea0
:1027040067206572726f72207061796c6f61642edc
:10271400000000005b25733a2025733a25645d2090
:102724005374617274696e6720636f6f6b696e674f
:102734002073657373696f6e20636f6d706c65745d
:102744006564206576656e742e0000004352540063
:102754005b25733a2025733a25645d202573206d2b
:10276400757374206e6f742062652063616c6c6590
:10277400642066726f6d2077697468696e20796f62
:1027840075722068616e646c65722063616c6c6242
:1027940061636b732028652e672e20726f757469d0
:1027a4006e65732077686f7365206e616d65732045
:1027b400626567696e2077697468202741434b55c9
:1027c4007365725f4f6e27292e00000072652d65b8
:1027d4006e74727920636865636b00005b25733add
:1027e4002025733a25645d205374617274696e67a1
:1027f40020636f6f6b696e672073657373696f6ea7
:1028040020696e746572616374696f6e20657665a4
:102814006e742e005b25733a2025733a25645d207f
:102824005374617274696e6720636f6f6b696e674e
:1028340020646576696365207374617465206368d8
:10284400616e6765206576656e742e002876336147
:1028540076735f74797065735f5633436f6f6b691a
:102864006e674d6f64655f56616c75655f43555364
:10287400544f4d203d3d206d6f646529203d3d2022
:10288400284e554c4c20213d2070437573746f6d58
:0c2894004d6f64654e616d652900c04603
:020000040000fa
:1028a000f7b50d0009036c00ed0f0095490a450fbf
:1028b00029431d035e00c700d80f6b0a550f2b4339
:1028c000c14d640d760dd200ae4203d11d00844689
:1028d000154302d101254540ac46009da01bac45e7
:1028e00000d036e1002861dd002e25d11d00154302
:1028f00000d196e2461e002e19d1ba18ba42a44160
:10290000c91864420919170001240b0200d4bee063
:10291000ad4b01349c4200d180e2ac487b080140c1
:10292000012007401f43c80707434908afe0a64df1
:10293000a84209d1a44caae0a34dac4200d1a6e024
:10294000802506002d042b43382e2adc1f2e17dc91
:1029500020201d00801b8540ac4615000190f540ed
:10296000604605430198f3408240501e8241154362
:10297000ed195b18bd428941494259182f00c4e73f
:1029800030001d002038c5400020202e03d04020fc
:10299000861bb34018000243501e8241154300239a
:1029a000e6e71a4315006a1e9541f8e7002850d063
:1029b000002c14d10c003c4300d128e2c443002c6d
:1029c00007d1bf189742a441c918644209193400bd
:1029d0009be77d48864209d119001700aae77a4c87
:1029e000a642f9d04442802000040143382c2bdc5d
:1029f0001f2c17dc2025281b01900800019de140b9
:102a0000a840844638006546e0402843019daf4019
:102a10007d1eaf413843871897429241c9185242f0
:102a20008918d4e720000d002038c5402800002573
:102a3000202c03d040252c1ba1400d002f437d1ed0
:102a4000af4138430021e6e70f433800471eb84145
:102a5000f8e7661c75056d0d012d00dd69e00800c5
:102a60003843002c49d1002800d1d3e1180010438d
:102a70000dd0ba18ba42b641c918802376428919d6
:102a80001b041700194202d00124504b19407b0748
:102a900009d00f233b40042b05d03b1dbb42bf4157
:102aa0007f42c9191f000b0206d5474b01349c42d7
:102ab00000d1c3e1454b1940434b4807ff08384359
:102ac000c9089c4206d103000b4300d1b9e1802321
:102ad0001b031943002709033b0d1b05090b194371
:102ae0003b4b6405194064080c43009b6400d90704
:102af00064080c43210003b0f0bd002800d16be74f
:102b00001800104300d115e74807ff08074380204d
:102b1000c9080003014207d0dc08044204d1d208ee
:102b20005b0713431f002100780fc9000143ff001a
:102b300000e7254ca64200d16fe1ba18c918ba4285
:102b40009b415b42cb18df075208174359083400fa
:102b50009de700285ddd002e3cd11d00154300d10e
:102b60005fe1461e002e0ed1ba1a9742bf41c91a24
:102b70007f42c91b012417000b0200d487e74902da
:102b80004d0a3e00f9e0104da84200d1d2e6382ea1
:102b90003adc1f2e27dc20201d00801b8540ac4620
:102ba00015000190f540604605430198f3408240ce
:102bb000501e824115437d1bcb1aaf4289414942c9
:102bc000591a2f00d8e7c046ff070000ffff7fff1c
:102bd000ffff0f809c4dac4200d158e780252d04ab
:102be0002b430600d3e730001d002038c5400020ed
:102bf000202e03d04020861bb34018000243501ef5
:102c0000824115430023d6e71a4315006a1e9541f9
:102c1000f8e700284dd0002c17d10c003c4300d120
:102c200001e1c443002c09d1d71bba429241591a81
:102c300063465242891a340000939de782488642d7
:102c40000ad119001700804c45e07f4ca642f8d00d
:102c50004442802000040143382c25dc1f2c11dc69
:102c60002025281b00900800009de140a840050099
:102c70003800e0402843009daf407d1eaf413843ff
:102c8000171ad2e720000d002038c5402800002583
:102c9000202c03d040252c1ba1400d002f437d1e6e
:102ca000af4138430021ebe70f433800471eb841de
:102cb000f8e7601c4005400d01284cdc18000d00b1
:102cc00010433d43002c24d1002d07d1071e00d115
:102cd000ade01900170063460093d8e6002800d144
:102ce000d5e6bd1aaf42b641c81a7642801b80268f
:102cf0003604304206d0d71bba429241591a52428a
:102d0000891ae8e72f00074300d190e001002f0067
:102d1000bde6002d07d1071e00d18be019006346e8
:102d20001700009306e6002800d103e64807ff08d5
:102d300007438020c9080003014200d1f4e6dc0803
:102d4000044200d0f0e6d2085b0713431f0063463d
:102d500021000093e8e6be1ab7428041cd1a4042f6
:102d60002d1a8020000405422dd0d61bb242ad4161
:102d7000591a63466d424d1b0093002d29d028003f
:102d80000bf054fe0300083b1f2b27dc20223100f0
:102d90009e40d21a9d40d14037000d439c4232dc08
:102da0001c1b661c1f2e1edc20233a0029009b1bc7
:102db0009940f2409f400a43791e8f412900f1401b
:102dc0001743002463e637002f43d6d139003c0077
:102dd0002ee030000bf02afe2030d3e735002838f3
:102de00085400027dae72a001f3ce2400023202e1e
:102df00003d040239e1b2b00b3401f437b1e9f41eb
:102e000000211743dde71149e41a29403fe6190084
:102e100017009ce61900170039e60b4c00210f0043
:102e200035e6040033e619001700340053e7390093
:102e300000972ce68021044cc903f9e700210f001c
:102e40003ae6190046e6c046ff070000ffff7fff95
:102e5000f7b50d0009036c00ed0f0095490a450f09
:102e60005e0029431d03db0f9c466b0a550f2b4365
:102e7000009d640d760dc700d200a01b654500d0f3
:102e800036e1002861dd002e25d11d00154300d15b
:102e900097e2461e002e19d1ba18ba42a441c918a9
:102ea00064420919170001240b0200d4bee0bd4b97
:102eb00001349c4200d181e2bb487b0801400120e3
:102ec00007401f43c80707434908afe0b54da84274
:102ed00009d1b44caae0b34dac4200d1a6e08025a4
:102ee00006002d042b43382e2adc1f2e17dc202051
:102ef0001d00801b8540ac4615000190f5406046e2
:102f000005430198f3408240501e82411543ed195c
:102f10005b18bd428941494259182f00c4e730006f
:102f20001d002038c5400020202e03d04020861be5
:102f3000b34018000243501e824115430023e6e7c8
:102f40001a4315006a1e9541f8e7002850d0002c5e
:102f500014d10c003c4300d129e2c443002c07d11a
:102f6000bf189742a441c9186442091934009be76d
:102f70008c48864209d119001700aae7894ca6425d
:102f8000f9d04442802000040143382c2bdc1f2c54
:102f900017dc2025281b01900800019de140a84076
:102fa000844638006546e0402843019daf407d1ec1
:102fb000af413843871897429241c9185242891845
:102fc000d4e720000d002038c54028000025202c23
:102fd00003d040252c1ba1400d002f437d1eaf4187
:102fe00038430021e6e70f433800471eb841f8e7b1
:102ff000661c75056d0d012d00dd69e00800384384
:10300000002c49d1002800d1d4e1180010430dd084
:10301000ba18ba42b641c9188023764289191b04ee
:103020001700194202d001245f4b19407b0709d0d9
:103030000f233b40042b05d03b1dbb42bf417f42c9
:10304000c9191f000b0206d5564b01349c4200d112
:10305000c4e1554b1940534b4807ff083843c90892
:103060009c4206d103000b4300d1bae180231b032d
:103070001943002709033b0d1b05090b19434b4b53
:103080006405194064080c43009b6400d907640878
:103090000c43210003b0f0bd002800d16be71800fd
:1030a000404c1043c2d04807ff0807438020c9089e
:1030b0000003014207d0dc08044204d1d2085b07b8
:1030c00013431f002100780fc9000143ff0000e7f0
:1030d000344ca64200d170e1ba18c918ba429b41db
:1030e0005b42cb18df0752081743590834009de7ad
:1030f00000285ddd002e35d11d00154300d160e1b3
:10310000461e002e0ed1ba1a9742bf41c91a7f42fd
:10311000c91b012417000b0200d487e749024d0a9e
:103120003e00fae01f4da84200d1d2e6382e33dc33
:103130001f2e20dc20201d00801b8540ac46150082
:103140000190f540604605430198f3408240501ecf
:10315000824115437d1bcb1aaf4289414942591a1e
:103160002f00d8e70f4dac4200d15fe780252d043a
:103170002b430600dae730001d002038c540002050
:10318000202e03d04020861bb34018000243501e5f
:10319000824115430023dde71a4315006a1e95415d
:1031a000f8e7c046ff070000ffff7fffffff0f802b
:1031b00000284dd0002c17d10c003c4300d102e177
:1031c000c443002c09d1d71bba429241591a634615
:1031d0005242891a340000939de7834886420ad1ff
:1031e00019001700804c45e07f4ca642f8d04442bd
:1031f000802000040143382c25dc1f2c11dc202505
:10320000281b00900800009de140a8400500380000
:10321000e0402843009daf407d1eaf413843171a60
:10322000d2e720000d002038c54028000025202cc2
:1032300003d040252c1ba1400d002f437d1eaf4124
:1032400038430021ebe70f433800471eb841f8e749
:10325000601c4005400d01284ddc18000d00104396
:103260003d43002c24d1002d07d1071e00d1aee034
:103270001900170063460093d8e6002800d1d5e670
:10328000bd1aaf42b641c81a7642801b802636046a
:10329000304206d0d71bba429241591a5242891a7b
:1032a000e8e72f00074300d191e001002f00bde6c1
:1032b000002d07d1071e00d18ce0190063461700ce
:1032c000009306e6484c002800d1afe64807ff0807
:1032d00007438020c9080003014200d1f3e6dc085f
:1032e000044200d0efe6d2085b0713431f00634699
:1032f00021000093e7e6be1ab7428041cd1a404252
:103300002d1a8020000405422dd0d61bb242ad41bb
:10331000591a63466d424d1b0093002d29d0280099
:103320000bf084fb0300083b1f2b27dc202231001d
:103330009e40d21a9d40d14037000d439c4232dc62
:103340001c1b661c1f2e1edc20233a0029009b1b21
:103350009940f2409f400a43791e8f412900f14075
:103360001743002462e637002f43d6d139003c00d2
:103370002ee030000bf05afb2030d3e73500283820
:1033800085400027dae72a001f3ce2400023202e78
:1033900003d040239e1b2b00b3401f437b1e9f4145
:1033a00000211743dde71149e41a29403ee61900e0
:1033b00017009be61900170038e60b4c00210f00a0
:1033c00034e6040032e619001700340052e73900f1
:1033d00000972be68021044cc903f9e700210f0078
:1033e00039e6190045e6c046ff070000ffff7ffff2
:020000040000fa
:1033f000f0b597b00c00089209931c9d07900df052
:1034000087fa036818000e930df0b4fd237e26683a
:103410000b930f902b680722f1054bd59b18934314
:103420001a0008322a601a685b68a264e364012209
:10343000e76ca36c7d000a936d080c935242c04b5d
:103440000a9829000bf0e6fd002800d070e2012266
:10345000bb4b52420a98290008f056ff002800d0c2
:1034600066e2002200230c98390008f043ff002890
:1034700003d023002d2243331a70b24b1a1d0a9237
:103480000b9a472a00d80a930323002723610423b9
:103490003d009e432660099b14aa00932100089bcf
:1034a000079806f069fd431c00d007e10120404267
:1034b00017b0f0bd0733b2e763685a1c00d0ace028
:1034c0000623636080230022db00334323606568aa
:1034d0001092974205da802109067b181f002d23e0
:1034e000109320230b9a9a430d920d9b0322462b97
:1034f00004d0453b5842584102222d1814ab049386
:1035000013ab039312ab029300923b0001950c9a0c
:103510000798fcf7e9fd0d9b0a90472b02d1f307b2
:1035200000d418e20a9b5e190d9b462b10d10a9b12
:103530001b78302b0ad1002200230c98390008f0a8
:10354000d3fe002802d101235d1b1295129bf618b1
:10355000002200230c98390008f0c6fe3022002813
:1035600069d01496149b0a9a9f1a0d9b472b0ad177
:10357000129bda1c03db6268934200dc8ce00b9b3d
:10358000023bdbb20b930b9b129a652b68d8694602
:103590002c202300091809785033551e0d931970fb
:1035a00002330c931295013b002d48da0125ad1a28
:1035b0002d221a70092d4bdd27260cabf618731e31
:1035c00028000a21119307f087fc731e303119700f
:1035d00028000a2107f036fc0500092831dc2721e4
:1035e000023e30350caa0c9b357089181a008e42a9
:1035f00029d30d9bd51aeb192361012f02dc226818
:10360000d20701d501332361109b002b00d142e783
:1036100023002d2243331a703de720220b9991435a
:10362000472900d04ee7002b00d04be7012348e7a5
:10363000591c14911a70149b9e42f9d892e72b22c0
:10364000b7e7119ebbe7327801361a700133cde738
:1036500030230c9a30351370130002325d70c8e7c6
:103660000b9b662b1ad16368002a0cdd2261002bac
:1036700002d12168c90702d501339b182361129b2f
:103680000025a365c0e7002b03d101222168114268
:1036900000d09a1c2261f2e767230b93129bbb4276
:1036a00005db22682361d207e9d50133e6e7012271
:1036b000002b01dc0222d21ad219ebe72268530553
:1036c00008d423690a9a08990798099da847431cba
:1036d00029d1ebe60b9b652b00d8d7e0a06ce16c01
:1036e0000022002308f000fe002839d0154a0123eb
:1036f000103208990798099da847431c00d1d5e6c8
:10370000129bbb4202db2368db070cd5099d0f9b94
:103710000e9a08990798a8470025431c00d1c5e6d2
:103720007b1e9d4210db236800259b0700d5f9e036
:10373000149be068984200dbbae61800b8e6c04681
:10374000ffffef7fb0e30000220001231a32089947
:103750000798099eb047431c00d1a7e60135dfe773
:10376000129b002b2ddc7e4a01231032089907980a
:10377000099da847431c00d198e6129b002b04d159
:10378000002f02d12368db07cdd5099d0f9b0e9a30
:1037900008990798a8470025431c00d186e6129b8c
:1037a0005b429d4201db3b008ce7220001231a3281
:1037b00008990798099eb047431c00d176e6013569
:1037c000ede7a56dbd4200dd3d00002d34dc00239a
:1037d0000b93eb43db170c930c9ba66d0b9a2b40c2
:1037e000f31a9a4231db129bbb423cdb2368db07b6
:1037f00039d4129abb1bbd1a9d4200dd1d00002d5d
:103800003adc00230a93eb43db170b93129b0b9ad2
:10381000fb1a2a409b1a0a9a9a4284da2200012350
:103820001a3208990798099eb047431c00d13de61b
:103830000a9b01330a93e9e72b000a9a0899079833
:10384000099eb047431cc2d130e6220001231a3240
:1038500008990798099eb047431c00d126e60b9ba8
:1038600001330b93b8e70f9b0e9a08990798099daf
:10387000a847431cbdd119e60a9b08999a190798d5
:103880002b00099eb047431cbbd10fe6012f02dc81
:1038900001231a4239d001230a9a08990798099ef0
:1038a000b047431c00d101e60f9b0e9a0899079878
:1038b000099eb047431c00d1f8e5a06ce16c0023e1
:1038c000002208f011fd0023002815d10a9a7b1e62
:1038d000013208990798099eb047431c11d1e5e5cc
:1038e000220001231a3208990798099eb047431c09
:1038f00000d1dbe50a9b01330a930a9a7b1e9a42a8
:10390000eedb22002b005032dde60a9ae1e72200ce
:103910000123193208990798099eb047431c00d12a
:10392000c4e50135e368149a9b1a9d42efdbffe67c
:103930000c9a3b000c9839000bf06cfb002800d16e
:10394000bae5074b1a000c320a920b9a472a00d9a3
:103950009ae5083397e5149b0a9a9f1a08e6c04631
:04396000b0e30000d0
:020000040000fa
:10396400f0b58bb0060004930400cb0f0d034800a0
:1039740000922d0b400d0393029346d0584b98426e
:1039840067d08023720f1b04ed0013432b431f00e9
:10399400544bf400c31800260193049b009a1d03a2
:1039a4005800db0f2d0b400d069361d04c4b984211
:1039b40000d181e08023520f1b041343ed001d430b
:1039c400484a009b8218db0094460022069803991b
:1039d4004140604604910199091ab000104301382e
:1039e40005910e2800d981e00df00cfa750049020a
:1039f400ed0149023d024902ed01750075003d02e9
:103a0400ed01fc01fc01fc01e2012f00374327d04a
:103a1400002d13d028000bf007f801000b391c29e6
:103a240011dc02001d2337003400083a5b1a95406c
:103a3400df4094402f432c4b1b1aace730000af0b4
:103a4400f3ff2030e9e70300283b9e4000243700c1
:103a5400f1e72e43371e07d02f00019003269ce781
:103a64003c000197012698e734000190022694e770
:103a7400009b2b4327d0002d13d028000af0d4ff3d
:103a840001000b391c2911dc1d2302005b1a00996b
:103a9400083ad940009b954093400d43124a121aac
:103aa40092e710000af0c0ff2030e9e70300009d10
:103ab400283b9d400023f1e7009b2b4307d01300d4
:103ac4008446032282e71d009c4601227ee71d00f6
:103ad400844602227ae700252c00014b4ee1c046c1
:103ae400ff07000001fcffff0dfcffffaf4204d8fd
:103af40000d057e19c4200d254e1f9076208114317
:103b0400e0070c0001907f082d021a0e2a431b02c5
:103b14000293130c03936b4600921b88039938009d
:103b2400079307f085ff0600079b0690039938006a
:103b34005e4307f0b9ff250c09040d43069fae420e
:103b440009d9009b013fed18ab4204d8ae4202d91b
:103b5400069fed18023fab1b03991800069307f06c
:103b640067ff079e050046430399069807f09cffec
:103b7400a4b209040c432a00a64208d9009b013ac6
:103b8400e418a34203d8a64201d9aa1ee4183b04b0
:103b940002991343029a0904120c090c0892069123
:103ba400089d06989ab2a61b1c0c514360436a43b5
:103bb4006c4312180d0caa18904202d980204002be
:103bc4002418100c09041204090c04195218a642f2
:103bd40005d31f00a64227d10199914224d202980d
:103be4000199844661440191814289410098494286
:103bf400091876185f1eb04204d315d161460198a6
:103c0400814211d8b44203d80ed101998a420bd90a
:103c140002999f1e8c46019b634401938b429b41f6
:103c240000995b425b18f618019b341b9b1a09939d
:103c3400099a019b93429b415b42e41a009ba34275
:103c440000d1d2e00399200007f0f2fe079d0600a0
:103c540045430399200007f027ff099b09041c0c26
:103c64000c430196a5420cd93300013b0193009b00
:103c7400e418a34205d8a54203d9b31e0193009bbf
:103c8400e418641b0399200007f0d2fe079d060088
:103c940045430399200007f007ff6b460a04998cfb
:103ca400330011438d4208d9009a013b89188a4296
:103cb40003d88d4201d9b31e8918019a089c1204b5
:103cc4001a43100c93b24d1b16000699069a4143f1
:103cd4005a43634360435b18140ce318994202d9b6
:103ce400802149024018190c12041b04120c0818f4
:103cf4009b18854204d3340085421bd1002b1bd072
:103d0400009a741e5519aa420fd8a84203d811d19b
:103d1400029a9a420bd2029ab41e510091429241e5
:103d2400009e52429219ad180291854202d1029a24
:103d3400934201d001231c43059b564a9b18002b38
:103d440056dd620709d00f222240042a05d0221d25
:103d5400a242a44164423f191400fa0106d580220c
:103d6400d20094464c4b1f40059b63444b4a9342fc
:103d740000dd88e0e40879070c43fd0800212d03e9
:103d84000a0d12052d0b1543454a5b0515405b08ca
:103d94002b43049a5b00d2075b08134320001900ed
:103da4000bb0f0bd059a013a059200220192abe6f0
:103db4008022120317425ad0154258d12f001c00fa
:103dc400069b029353e02f0016001c00069b0493ed
:103dd400022e58d0032e50d0012eadd10024250040
:103de4002300cbe7039b0493f2e701246442a3e797
:103df4000122d21a382af1dc1f2a21dc20232000d8
:103e04009b1a39009c403d009940d040631e9c4160
:103e1400d54001430c43630709d00f232340042bef
:103e240005d0231da342a44164422d191c00802304
:103e34001b042b402ad16907e4080c43ed089de7d5
:103e44001f214942cb1a3900d9400b000021202af6
:103e540003d040218a1a390091400c43611e8c41e1
:103e640000251c43d7e7802700243f0302948025c4
:103e7400029b2d033d4304932fe6049ba1e70025f9
:103e84002c002b007ae70024250026e600250123d8
:103e94002c0073e7ff030000fffffffefe07000096
:043ea400ffff0f808d
:020000040000fa
:103ea800f0b5d6464f464646c0b5d34c8eb02378bb
:103eb800002b52d10bf0b2fe012300259846237047
:103ec8000df050f9cd4e070033782570072b00d13f
:103ed8007ce0cb4d2a78022a27d0012a23d002225f
:103ee8009343012b4fd0002f4dd1c64b1a78002a8f
:103ef80000d100e11f70c44dc44f2900c523c44838
:103f08005b0070313a0024300af08afe3378032bc4
:103f180002d003200cf0f4f8012323700df036f9d9
:103f28000023237013e0002f2dd1012b02d0012094
:103f38000cf0e6f85423b449b648ff33b64a70315a
:103f480064300af06dfe0cf0b9fa00232b700eb045
:103f58001cbc90469946a246f0bdb04ab0490092b2
:103f6800081d94230af05cfea74d28000af030ffd4
:103f7800a0e740230090a749aa48ff333a00083138
:103f880010300af04dfea84f3b78002b47d135780a
:103f980002232a009a43012a00d101e10cf03cfcdb
:103fa800a24a1368002b04d0a149c31a8b4200d837
:103fb800f6e007ac1060200009f076fb237c042ba8
:103fc80000d9e7e09b4a9b00d3589f46434623709d
:103fd8000df0d8f82570002801d1337879e7964b91
:103fe800894d98468a23954870355b0042462900da
:103ff8005c300af015fe0df099f8002800d0b0e00a
:104008001e238448ff334246290038300af008fe50
:1040180033785ee7844f3b78002b00d1c0e0884bb3
:10402800794d994670239846864ba844181d9a46a0
:10403800a4234a46ff3341460af0f2fd01232370c8
:104048000df0b0f80023237008f0f0f9041e00d03a
:1040580094e07d4eb223300041461030ff334a468b
:104068000af0defd3c7007ac102120000af0aafa25
:10407800002800d048e175480094754b754a4146c0
:1040880018300af0cdfd1023220006a905a80af071
:1040980023f8002800d02de12900069b6e480193e3
:1040a800059b7031009302946c4b6d4a10300af0f6
:1040b800b7fd122120000af0a5fa002800d00ee171
:1040c8002900e5236748703100949b00664a383020
:1040d8000af0a6fd20000af02dfc002800d0f4e02c
:1040e80029002378614800937031614b614a103090
:1040f8000af096fd2be7012323700df03bf827709b
:10410800002800d0c0e0022233789343012b81d0ed
:10411800012323700df032f800232370002800d10a
:1041280031e7394d544f3a4870353b33ff333a0045
:10413800290064300af074fd08f0defa002800d087
:1041480017e744233748ff333a0029004c300af078
:1041580067fd3378052b00d1f9e605200bf0d0ff79
:10416800f5e62c4d1a2329000c350090ff33083151
:10417800424628000af054fd3378aae65046ae239a
:10418800244944300094ff334a4608310af048fd78
:10419800fde604253378ab4202d028000bf0b0ffcf
:1041a80003f032fd002800d08ce0344b1b789b07cd
:1041b80000d4cce6324b1b7adb0700d4aee007f024
:1041c80013f9002800d1c2e6284c009021004034a1
:1041d8003c31ed23114a20000af022fdb7e6002306
:1041e80002253b70d6e70625d4e76269254b0525ed
:1041f8001a60cfe70725cde7860a0020890a002044
:104208008b0a00208a0a0020240d00007004010097
:10421800240f0000240e000054040100681001005f
:10422800a40c0000a40f00008c0a00204c0a0020f7
:10423800c3090000280c010038040100a40d000087
:104248000007010024100000a41000002411000041
:104258006503000030070100a4110000820300007c
:104268008c0401002412000048070100a412000079
:10427800a6030000a804010064f80000500a00200a
:104288000c0a002008000020294b2a4d180029009c
:1042980098468023284f70311430ff333a000af0d3
:1042a800bffc09f07ffc002800d126e6454686239e
:1042b800224954350090ff333a00083128000af0ab
:1042c800affc20e70cf01afd41e600901b491c48a2
:1042d8001c4b1d4a083154300af0a2fc37e6e4238f
:1042e8000090164919489b00194a083170300af0a5
:1042f80097fcefe6009011491648174b174a08310a
:1043080048300af08dfcd4e60c494c360090144b2a
:10431800144a083130000af083fcb4e61248f3234b
:104328000100124a3c3178300af07afc0fe6c046a8
:10433800a40e0000240d000070040100240e0000eb
:1043480024120000a2030000a8040100a411000028
:1043580048070100241100007a0300008c040100c2
:104368006103000030070100a4120000681001007a
:020000040000fa
:10437800e00900201c00000000000000860a002060
:104388000100000000000000000000200400000000
:1043980000000000240a00200400000000000000c3
:1043a800400a00200400000000000000800a0020ed
:1043b8000200000000000000440a00200400000081
:1043c80000000000870a0020010000000000000033
:1043d800140300200004000000000000880a0020e8
:1043e8000100000000000000480a0020040000004e
:1043f800000000000400002004000000000000008d
:10440800890a002001000000000000008a0a00203c
:1044180001000000000000008b0a002001000000dd
:10442800000000004c0a002004000000000000000a
:104438008c0a002001000000000000000800002095
:1044480004000000000000008d0a002001000000a8
:1044580001000000010000000c0a00200c00000010
:1044680000000000500a00200400000000000000c6
:104478008e0a00200100000000000000540a0020fd
:104488000400000000000000580a0020040000009a
:1044980000000000820a0020020000000000000066
:1044a8005c0a00200400000000000000600a0020f0
:1044b8000400000000000000640a0020040000005e
:1044c800000000008f0a002001000000000000002a
:1044d8000c0000200002000000000000fc09002081
:1044e80010000000010000000100000035920000eb
:1044f8000000000000000000840a00200200000004
:1045080000000000280a0020080000000000000049
:10451800900a00200100000000000000910a00201d
:104528000100000000000000680a002004000000ec
:1045380000000000180a00200c0000000000000025
:10454800300a00200800000000000000380a00209f
:104558000800000000000000920a0020010000008e
:10456800000000006c0a00200400000000000000a9
:10457800930a002001000000000000000c02002047
:10458800c00000000000000080080020800000003b
:10459800000000000009002080000000000000006a
:1045a800cc020020380000000000000004030020b6
:1045b8000c00000000000000700a00200400000049
:1045c8000100000080090020800900206000000030
:1045d80001000000000000006803010088030100da
:1045e8004803010000000000000000000000000077
:1045f80000000000000000000000000000000000b3
:1046080000000000000000000000000000000000a2
:104618000000000000000000000000000000000092
:104628000000000000000000000000000000000082
:1046380000000000740a00200400000000000000d0
:10464800780a002004000000000000001407002081
:104658006c010000010000004300000000000000a1
:104668000000000000000000000000000000000042
:1046780000000000000000004300000000000000ef
:104688000000000000000000000000000000000022
:1046980000000000000000004300000000000000cf
:1046a8000000000000000000000000000000000002
:1046b80000000000000000004300000000000000af
:1046c80000000000000000000000000000000000e2
:1046d800000000000000000043000000000000008f
:1046e80000000000000000000000000000000000c2
:1046f800000000000000000043000000000000006f
:1047080000000000000000000000000000000000a1
:10471800000000000000000043000000000000004e
:104728000000000000000000000000000000000081
:1047380000000000000000002909010041fe0000ff
:10474800000000004895000019110100181101002f
:1047580018110100181101001811010018110100a9
:104768001811010018110100181101001811010099
:10477800ffffffffffffffffffffffffffff00003f
:1047880001004153434949000000000000000000b7
:104798000000000000000000000000000000000011
:1047a8000000415343494900000000000000000098
:1047b80000000000000000000000000000000000f1
:1047c80000000000100300200400000000000000aa
:1047d8007c0a002004000000000000000000000027
:1047e8000000000022222222222222222222222229
:020000040000fa
:1047f800f0b58bb001920593ca0f0c034b0006006d
:10480800240b5b0d0492039245d0c64a934265d0af
:104818008022410f12040a43e4001443c24ac5002f
:104828009b1800270293059b019a1e035800db0f73
:10483800360b400d059360d0ba4b984200d180e00a
:104848008023520f1b041343f6001e43b64a019bf4
:104858008218db0094460022059804994140019192
:104868000299b8006144104307910138013106915b
:104878000e2879d80cf0c4fa740074007b01710119
:104888007101bc017b017101bc0171017b016f01e8
:104898006f016f0164012500054326d0002c13d059
:1048a80020000af0bff801000b391c2910dc1d2379
:1048b80002005b1a31003500083a9440d94095400f
:1048c8000c439a4b1b1aace70af0acf82030eae725
:1048d80003003400283b9c400025f2e705002543ef
:1048e80007d00500029303279de72c0002950127b6
:1048f80099e72c000293022795e7019b334327d0c1
:10490800002e13d030000af08df801000b391c2955
:1049180011dc1d2302005b1a0199083ad940019b5a
:10492800964093400e43814a121a93e710000af00a
:1049380079f82030e9e70300019e283b9e400023d8
:10494800f1e7019b334307d013008446032283e732
:104958001e009c4601227fe71e00844602227be758
:1049680034001d001700f8e0190c9bb202911900e1
:104978002a0c514318008c46029f0299adb2684335
:1049880051436f4304916744010cc91903908c4546
:1049980006d9049f380080277f02bc4660440490f3
:1049a800684680890f0c090409180991310cb6b2c0
:1049b800039130003100bc46039f694350437d4357
:1049c8007a432d180f0c7d19a84202d98020400285
:1049d8001218280c82182d0489b205926a180892b8
:1049e8001800089962468c46029f210ca4b26043c5
:1049f8004b43674362449446029dff18020cd21948
:104a08004d43934202d980235b02ed183700130c03
:104a18005b190293039b67434e435c435943a419b4
:104a28003b0c120480b21c191018a64202d980232c
:104a38005b02c918049b220463441e00089bbfb292
:104a48009e42ad418619d2198642bf410298059b04
:104a580084466d42d218ab189c440393059b60466c
:104a68009a429241039b5242ab429b415b427f4236
:104a78001a43029b3818240c1219b842bf419c45ae
:104a8800a4417f4264423c4314196418c30d640274
:104a98001c43099b75021d43691e8d41f60d354364
:104aa80040020543e30167d501226b0815401d4309
:104ab800e307d4401d43069b1d4a9b18002b5edd6f
:104ac8006a0709d00f222a40042a05d02a1daa42c3
:104ad800ad416d4264191500e20106d58022d2006d
:104ae8009446144b1c40069b6344134a934200ddd2
:104af8008be06207ed081543e408002124030a0d42
:104b08001205240b14430d4a5b0514405b0823432c
:104b1800019a5b00d2075b081343280019000bb009
:104b2800f0bdc046ff07000001fcffff0dfcffffc2
:104b3800ff030000fffffffefe070000ffff0f80de
:104b480080221203144257d0164255d134001d005a
:104b5800059b039350e0049b0193022f55d0032f2c
:104b680051d0012fa7d100252c002b00c5e71d002f
:104b7800059b34000193f5e6079b06939be701220a
:104b8800d21a382aefdc1f2a20dc202321009b1aa6
:104b980028009d409940d0406b1e9d41d440014360
:104ba8000d436b0709d00f232b40042b05d02b1d79
:104bb800ab42ad416d4264191d0080231b042340a4
:104bc80000d196e700240123250096e71f214942da
:104bd800cb1a2100d9400023202a03d040239a1a57
:104be800230093401d436b1e9d4100240d43d8e7cd
:104bf800802400252403039580231b031c43039b67
:104c08000193034b79e7019ba3e700252c00f8e704
:044c1800ff07000092
:020000040000fa
:104c1c00494e46005b25733a2025733a25645d2086
:104c2c004c6f67206c6576656c206368616e676598
:104c3c00206576656e742072656365697665643b84
:104c4c00206e6577206c6576656c20697320257500
:104c5c002e0000005b25733a2025733a25645d20f5
:104c6c0044697265637469766520697320666f7236
:104c7c0020636f6f6b696e6720636f6e74726f6cfd
:104c8c006c65722e000000005b25733a2025733a88
:104c9c0025645d2044697265637469766520697367
:104cac0020666f7220636f6f6b696e672074696d1d
:104cbc006520636f6e74726f6c6c65722e000000f1
:104ccc005b25733a2025733a25645d20446972652f
:104cdc00637469766520697320666f722074696de0
:104cec006520686f6c6420636f6e74726f6c6c659a
:104cfc00722e000057524e005b25733a2025733af2
:104d0c0025645d20556e68616e646c656420646911
:104d1c00726563746976652c206e616d6573706164
:104d2c0063652025752e0000455252005b25733ab1
:104d3c002025733a25645d20446972656374697635
:104d4c00652d73706563696669632070726f636546
:104d5c007373696e67206661696c65642c2065727b
:104d6c00722025752e0000005b25733a2025733abe
:104d7c0025645d205265636569766564206469729b
:104d8c006563746976653b20636f7272656c6174e0
:104d9c00696f6e20696420256c642c206e616d65d2
:104dac007370616365202575000000005b25733a04
:104dbc002025733a25645d2041434b4d6f64756c1f
:104dcc00655f476574526573706f6e7365206661bd
:104ddc00696c65642c206572722025752e000000ac
:104dec005b25733a2025733a25645d205265636513
:104dfc006976656420416c657861206469726563cd
:104e0c00746976652e0000005b25733a2025733a91
:104e1c0025645d20526563656976656420636f6ef9
:104e2c006e6563746976697479206d6f64756c65f1
:104e3c0020626f6f746564206576656e742e000059
:104e4c005b25733a2025733a25645d2052656365b2
:104e5c0069766564206576656e7420696e64696335
:104e6c006174696e672041434b20636f6e6e65639e
:104e7c00746976697479206d6f64756c65206973db
:104e8c002072657175657374696e6720746f20622a
:104e9c0065207265626f6f7465642e005b25733ad2
:104eac002025733a25645d205265636569766564d7
:104ebc00206576656e7420696e6469636174696ed1
:104ecc0067207468617420686f73742073686f75e1
:104edc006c6420666163746f72792072657365749b
:104eec0020697473656c662e000000005b25733ab4
:104efc002025733a25645d20526563656976656487
:104f0c00206c6f67206c6576656c206368616e67da
:104f1c006564206576656e742e0000005b25733a1f
:104f2c002025733a25645d204576656e74206f6686
:104f3c00206163705f726573706f6e736520747936
:104f4c007065202575206e6f742068616e646c65c9
:104f5c00642e00005b25733a2025733a25645d208e
:104f6c00484f5354494e5420617373657274656491
:104f7c003b2070726f63657373696e6720696e6234
:104f8c006f756e64206576656e742e005b25733ac2
:104f9c002025733a25645d2044656c6574696e67e1
:104fac0020756e73656e742070656e64696e672013
:104fbc006f7574676f696e67206576656e742e0009
:104fcc005b25733a2025733a25645d204174206c6f
:104fdc006561737420626c6f636b206c65616b65cb
:104fec00643a2074616720257500000021225072fc
:104ffc006f63657373696e6720696e636f6d696e3d
:10500c0067206576656e74206c65616b6564206dd8
:10501c00656d6f7279212200455252005b25733aff
:10502c002025733a25645d20556e61626c65207491
:10503c006f206465636f646520636f6f6b696e6767
:10504c0020646972656374697665207375626d6539
:10505c007373616765207461672025752e000000ed
:10506c00435254005b25733a2025733a25645d2026
:10507c00436f6f6b696e67206469726563746976e0
:10508c006520737472696e6773206f766572666cd7
:10509c006f7720612073697a655f742e00000000c1
:1050ac005b25733a2025733a25645d20556e616249
:1050bc006c6520746f20616c6c6f63617465206d1e
:1050cc00656d6f727920666f7220636f6f6b696e9e
:1050dc00672064697265637469766520737472699c
:1050ec006e67732e00000000494e46005b25733a34
:1050fc002025733a25645d20436f6f6b696e6720c2
:10510c006d6f64652070726573656e7420696e20b6
:10511c00636f6f6b696e672064697265637469761f
:10512c00652e00005b25733a2025733a25645d20bb
:10513c00436f6f6b696e67206d6f6465206e6f7463
:10514c002070726573656e7420696e20636f6f6b6f
:10515c00696e67206469726563746976652028736b
:10516c00657420746f2054494d45434f4f4b292e85
:10517c00000000005b25733a2025733a25645d20fe
:10518c00466f6f64207175616e74697479207072ea
:10519c006573656e7420696e20636f6f6b696e67e3
:1051ac002064697265637469766500005b25733ae7
:1051bc002025733a25645d20466f6f6420717561fc
:1051cc006e74697479206e6f742070726573656e7d
:1051dc0074206f7220696e76616c696420696e2030
:1051ec007365742d636f6f6b696e672d6d6f64657e
:1051fc002064697265637469766500004865617046
:10520c006c6574416363657373284d454d5f5245fe
:10521c004345495645445f4445434f4445445f56d6
:10522c0041524941424c455f4c454e4754485f44be
:10523c0041544129207c7c202830203d3d20706148
:10524c0072616d734f6666736574496e4465636f06
:10525c006465645661726961626c654c656e6774f5
:10526c0068446174612900005b25733a2025733a08
:10527c0025645d20456e756d657261746564207082
:10528c006f776572206c6576656c207072657365de
:10529c006e7420696e20636f6f6b2d62792d74694b
:1052ac006d65206469726563746976652e00000013
:1052bc005b25733a2025733a25645d20496e74652d
:1052cc006772616c20706f776572206c6576656ca7
:1052dc002070726573656e7420696e20636f6f6bde
:1052ec002d62792d74696d652064697265637469ca
:1052fc0076652e005b25733a2025733a25645d2074
:10530c00436f6f6b696e6720706f776572206c6589
:10531c0076656c207061796c6f61642025752069ed
:10532c006e64696361746573206e6f20706f77654e
:10533c0072206c6576656c20696e20636f6f6b2dc7
:10534c0062792d74696d6520646972656374697620
:04535c00652e0000ba
:020000040000fa
:10536000f7b543024a025b0a520a4e004400019319
:1053700000939446240ec50fdb00360ec90fd200f1
:10538000ff2e01d1002a01d101204140a01ba942da
:1053900000d0a1e000282edd002e18d1002a00d177
:1053a0004ae1411e00290ed101249b185a015bd508
:1053b0000134ff2c00d13de10122a4491a405b08d1
:1053c0000b40134350e0ff2807d1ff244ce0ff2c93
:1053d0004ad08021c9040a4301001b2901dd0122b2
:1053e00007e010002026c840711a8a40511e8a41e9
:1053f00002439b18dae7002821d0002c0cd1002ba7
:1054000007d0c043002802d19b183400cee7ff2efe
:1054100008d11300340027e0ff2efad08021c90400
:1054200040420b431b2801dd0123ede71900202436
:10543000c140201a8340581e83410b43e4e7611c9e
:10544000ff260f003740012f3fdc002c2bd1002b13
:1054500000d1eae0002a07d09b188022d204134230
:1054600002d001247a4a13405a0704d00f221a406e
:10547000042a00d004335a0105d50134ff2c00d191
:10548000e1e0734a1340db08ff2c04d1002b02d06b
:105490008022d20313435b02e4b2e405580aed070d
:1054a00020432843febd002b00d1c0e03400002a79
:1054b000dad08023019adb031a4203d062461a42f3
:1054c00000d10092009bdb007fe7ff2900d1b0e014
:1054d0009b185b080c00c7e7002826dd002e13d1bf
:1054e000002a00d1a8e0411e002906d101249b1a00
:1054f0005a01b9d59b019e097ae0ff2800d164e7e3
:105500001b2908dd01220ee0ff2cadd08021c9044b
:105510000a430100f4e710002026c840711a8a40af
:10552000511e8a4102439b1ae2e7002822d0002c38
:105530000dd1002b08d0c043002803d1d31a34006a
:105540000d00d5e7ff2e08d11300340020e0ff2e18
:10555000fad08024e404404223431b2801dd0123c8
:10556000ece71c002025c440281a8340581e8341c4
:105570002343e3e7ff20661c0640012e31dc002cac
:1055800017d1002b06d11d00002a00d16ce71300b3
:105590000d0069e7002a00d166e78026981af60414
:1055a000304201d0d31af3e7031e00d05ce71d00a0
:1055b0005ae7002b04d1002a40d013000d0004e765
:1055c0000400002a00d14fe78023019adb031a422e
:1055d00000d177e762461a4200d073e700920d00cf
:1055e00070e780209e1ac004064215d00d00d61a1e
:1055f000300009f01bfa330005388340844210dc88
:10560000041b1a0020200134e240041ba3405e1e4c
:10561000b3410024134327e7002ee9d133003400bf
:10562000c5e7241a0a4803401ee713001ce71300cd
:10563000cbe60c00002317e7040015e780230400e5
:105640009b04150010e700231de7c046ffffff7d08
:04565000fffffffb5e
:020000040000fa
:10565400f0b54e464546de465746e0b58fb0051eca
:105664008946049200d174e003229d4b9b46033388
:10567400934398469b4b1e689a46b04500d321e15c
:1056840043461b794446984203d847e023799d4218
:1056940044d923680834033393431c19b442f5d323
:1056a4004b46df1c03239f430837b94500d975e0f7
:1056b4008d4b05931b78ab4200d17ce00023002f77
:1056c40006dd8022d2005a44921b974200d984e01e
:1056d400002b56d01a68d11c032291430831591863
:1056e400721ac8190af050fb4b4623605346f61948
:1056f4001e60049b2571db0705d45b46f61a7b4bc1
:105704001a6896423fd8200008300fb03cbc90463f
:105714009946a246ab46f0bda04623799d42bfd12f
:10572400484603232268c71cd11c99439f436e4bf0
:105734007f1a05931b78ab4209d191453cd8002fc1
:105744001ddd8022d2005a44921b2300bde72300b2
:10575400b5e7674809f03efb614bdc1c9b4603231d
:105764009c43604b1e689a46a642d5d84b46df1c24
:1057740003239f430837a046b94599d90ee0230077
:10578400ace72100ace75a495a481e605a4a0096d1
:10579400a3235431483009f045fab4e754484b4642
:1057a400010001931430103100956623524a09f028
:1057b40039fa0020a9e700224d484b460100029324
:1057c4005830019277234c4a5431009509f02afa53
:1057d4000023059a0020137097e7474b444c9b46df
:1057e4004b4646481034039201935a4685232100c0
:1057f40024300297009509f015fa414e86233000b3
:105804005a460c30210009f00dfa534618688045b9
:1058140017d207ad4346290000240327182c02d8c9
:105824001a790a7001311a6808330332ba43d3185b
:1058340001348342f2d3182c06d9631c44d10020ce
:1058440063e707ad00242900002330000b7031000a
:105854002c4f403368316c300094ff333a0009f028
:10586400e1f9002cebd0234ba3469946ab445346b5
:105874001968287888450fd243461a7990421cd972
:10588400032402e01a79904218d91a6808330332c3
:10589400a243d3188b42f5d3002301930090310027
:1058a400442348466831ff333a002030013509f07b
:1058b400b9f95d45dbd1002027e743469042ebd19f
:1058c4001b68eae74446ebe63100300040230d4f05
:1058d40068316c300094ff333a0009f0a3f9c2e751
:1058e40014030020480a0020880a00200400002035
:1058f4008c6000000c6200005c1001000c61000070
:085904008c6100002c11010070
:020000040000fa
:10590c00f0b54646d6464f46c0b505005068140063
:10591c0042783f23160088b09e43402e31d0802e13
:10592c0028d0002e0cd0eb68002b00d199e0eb6056
:10593c000026300008b01cbc90469946a246f0bd2b
:10594c000f26914b1640b700ff5830231a40102aef
:10595c0067d044d9202a6fd0302ae4d10378626909
:10596c001370072e00d1bfe0226961682800b84788
:10597c000600dee7eb68002bd9d1844b7033eb606b
:10598c00d6e727693b1d9946002f00d1e8e03b681c
:10599c00002b00d1e4e0022929d0012900d1bce080
:1059ac00002900d1c3e005295fd101ab1900042205
:1059bc0028009a4606f00efa042398460028b7d021
:1059cc00734b616804935346059343460693002337
:1059dc0007933b684a4604a898470600a9e7002aa3
:1059ec00a1d1010022692800b8470600a1e704ab49
:1059fc0019002800984608f0f9f8061e05d198e71a
:105a0c0043469b68002b00d1afe04a466168404694
:105a1c003b689847061ef3d1eb68002b79d0eb60fe
:105a2c0087e763692269934201d001211970010053
:105a3c002800b84706007ce702291ed06169067968
:105a4c000b782269581c087061684879984200d913
:105a5c0091e0eb68002b00d069e74e4b6833eb60ac
