:020000040000fa
:020000040040ba
:10000000f0ff452055204000bb2e400077304000d7
:10001000d33740005f3a40006340400000000000da
:10002000000000000000000000000000af264000bb
:100030006734400000000000af264000af264000bb
:10004000af264000af264000af264000af2640005c
:10005000af264000af264000af264000af2640004c
:10006000af26400000000000af264000af26400051
:10007000af264000af264000b1264000af2640002a
:10008000af264000af264000af264000bd1e400016
:10009000af264000af264000af264000f94d40009b
:1000a000af264000af264000af264000af264000fc
:1000b000af264000af264000af264000af264000ec
:1000c000af264000af264000af264000af264000dc
:1000d000af264000af264000af264000af264000cc
:1000e000af264000af264000af264000af264000bc
:1000f000af264000af264000af264000af264000ac
:10010000af264000af264000af264000af2640009b
:10011000af264000000000000000000000000000ca
:10012000af264000af26400011434000af264000fc
:10013000af264000af264000af264000af2640006b
:10014000af264000af264000af264000af2640005b
:10015000af264000af264000af264000af2640004b
:08016000af264000af2640006d
:020000040000fa
:020000040040ba
:10016800f8b500bff8bc08bc9e467047454740003c
:10017800f8b500bff8bc08bc9e4670472147400050
:020000040000fa
:020000040040ba
:08018800d81200000100000084
:020000040000fa
:020000040040ba
:100190002de9f04f55ec104b95b0476a0891814618
:1001a0000c9211931e9ecde9044547b9102005f02d
:1001b0005bf8c0e90177c9f824000760c760d9f887
:1001c0002430196859b15a684a60012393408b6002
:1001d000484604f0f7fcd9f8243000221a60002dbc
:1001e000bfbf0123336025f000430593a4bf002364
:1001f0003360059ca84ba3431ad1119a42f20f73a6
:100200001360049bc4f31304234300f0ca841f9bb0
:1002100053b9a24b20e0a24b029308331f9a1360fc
:10022000029815b0bde8f08f9c4b02930333f5e7bd
:100230009ded047bb5ee407bf1ee10fa8ded0a7b6f
:100240000cd1119a012313601f9b002b00f0a68490
:10025000944b1f9a1360013b0293e1e713a912aa82
:100260009ded0a0b484603f0abfbc4f30a55019021
:100270001299002d46d00b98c0f31300dde90a2334
:1002800040f07f5343f44013a5f2ff3a002607eef7
:1002900090aa43ec162bb8eee75b9fed794bb7eed7
:1002a000087b36ee477b9fed786ba7ee046bb0eed4
:1002b000467b9fed776ba5ee067bfdeec76bb5ee3b
:1002c000c07bf1ee10fa16ee90ba08d5b8eee66be8
:1002d000b4ee476bf1ee10fa18bf0bf1ff3bbbf128
:1002e000160f34d8704b03ebcb0393ed007b9dede1
:1002f0000a6bb4eec76bf1ee10fa01d50bf1ff3bc0
:10030000002325e0139b01eb030a0af23243202b62
:1003100017ddc3f14003049a9c400af2124322fa0b
:1003200003f3234307ee903ab8ee677b0af1ff3af6
:100330008ded027b0398dde902230126a0f1f8731d
:10034000a5e7049ac3f1200302fa03f3eae70123c5
:10035000a1eb0a0a1093baf10103079343bf0023ec
:10036000caf1010a07934ff0000abbf1000f18db36
:10037000079bcdf834b05b4407930027089b092bfb
:1003800066d8052bc4bf043b0893089ba3f1020366
:10039000ccbf00240124032b65d8dfe803f0094b10
:1003a00049570023aaeb0b0acbf100070d93e5e7b1
:1003b000002309930c9b002b59dc012306939846dc
:1003c0000c93d9f8245000226a60042202f1140030
:1003d000984269684fd9484603f066ffd9f824303f
:1003e00028601b680293b8f10e0f00f2bc80002c4d
:1003f00000f0b980bbf1000f40f3e3802a4a0bf014
:100400000f0302ebc3034fea2b1293ed007bd306dd
:1004100040f1d580254b9ded0a5b93ed086b85ee91
:10042000066b8ded046b02f00f0203231f4948e0b9
:100430000123bee7002309930c9b5b4403f10108f1
:1004400006934346012bb8bf0123bae70123f2e725
:1004500000230124cde90834013b0022069398468d
:100460000c921223ade701230993023bf5e70c9ba5
:1004700006939846a5e7013169605200a6e700bfe0
:1004800061436f63a787d23fb3c8608b288ac63f9a
:10049000fb799f501344d33f0000f07f91524000fe
:1004a0008852400096524000e8324000d04d400053
:1004b000d50704d591ed006b013327ee067b521072
:1004c0000831002af4d19ded046b86ee077b8ded9b
:1004d000047b109a002a00f0a680b7ee006b9ded19
:1004e000047bb4eec67bf1ee10fa40f19c80b8f1cb
:1004f000000f00f09880069a002a30ddb2ee046bff
:1005000027ee067b8ded047b0bf1ff3101331446a2
:100510009ded046bb1ee0c5b07ee903ab8eee77b15
:10052000a7ee065b8ded045b0598dde90423a0f1e1
:100530005073002c7ad1b1ee047b36ee476b43ec5e
:10054000172bb4eec76bf1ee10fa00f34282b1ee56
:10055000477bb4eec76bf1ee10fa00f13882dde9ab
:100560000a34cde90434139b002bc0f21b81bbf18c
:100570000e0f00f31781894b03ebcb0393ed006b58
:100580000c9b002b80f2b880b8f1000f00f3b48010
:1005900040f01c82b1ee047b26ee076b9ded047be0
:1005a000b4eec76bf1ee10fa4446464680f2f6818f
:1005b000029d312305f8013b0bf1010bf2e102230f
:1005c00034e72ed0cbf10002744b02f00f0103eba5
:1005d000c10393ed007b9ded0a6b26ee077b8ded4d
:1005e0000e7bdde90e346e49cde904341211002092
:1005f00002233ab900283ff46cafdde90e12cde9d1
:10060000041266e7d40709d59ded0e6b91ed007bd2
:1006100026ee077b8ded0e7b013301205210083151
:10062000e7e7022355e75946444671e743ec172ba9
:100630005a4b03ebc40313ed024b029b1c44099b72
:100640004bb3b6ee003bb7ee002b029d83ee045b8e
:10065000b2ee043b35ee477bfdeec64b14ee903a0e
:10066000b8eee45b303336ee456bb4eec76bf1eebb
:1006700010fa05f8013b38d432ee465bb4eec75ba6
:10068000f1ee10fa6fd4a5423ff469af27ee037b79
:1006900026ee036be0e7029a24ee077b2546b2eed6
:1006a000043bfdeec64b14ee903a303302f8013baa
:1006b000a242b8eee45b36ee456b1ad1b6ee005bb3
:1006c00037ee054bb4eec46bf1ee10fa4bdc35eeb1
:1006d000477bb4eec76bf1ee10fa7ff540af15f82b
:1006e000013c302b05f1ff3201d08b462ae0154644
:1006f000f5e726ee036bd4e79ded047bb2ee044be9
:10070000029d87ee065bbdeec55b15ee103a3033f9
:1007100005f8013b029beb1a9845b8eec53ba3eeea
:10072000467b33d137ee077bb4eec67bf1ee10fa91
:1007300018dcb4ee467bf1ee10fa03d115ee103a58
:10074000db070fd40199484604f03cfa0023119ac4
:100750002b700bf1010313601f9b002b3ff460ad66
:100760001d605de5594615f8012c392a05f1ff3366
:1007700006d1029a9a4207d10298302201310270c2
:100780001a7801321a70b0e71d46ece727ee047bb9
:10079000b5ee407bf1ee10fab3d1d3e7e83240007a
:1007a000d04d4000099a002a00f0bb80089a012a27
:1007b00000f3a280002e00f09b8003f233433c46fe
:1007c0005546079a01211a4448469a44079204f074
:1007d000f8fc0646002d0bdd079b002b08ddab4225
:1007e000079aa8bf2b46aaeb030aed1ad31a079360
:1007f000f7b1099b002b00f09880002c11dd3146e9
:100800002246484603f02cf9019a0146064648461e
:1008100001f01efe01990a90484604f0d3f90a9ba4
:1008200001933a1b04d00199484603f019f901904d
:100830000121484604f0c5fc0d9b002b044676dde3
:100840001a460146484603f00bf9089b012b044663
:1008500070dd0027236904eb8303186903f0e0ffd0
:10086000c0f12000079b184410f01f007dd0c0f19c
:100870002003042b77ddc0f11c00079b0344824456
:1008800005440793baf1000f05dd52460199484629
:1008900002f04cff0190079b002b05dd21461a4614
:1008a000484602f043ff0446109b002b5fd02146d0
:1008b000019804f03df9002859da00230a22019931
:1008c000484603f00ffc099b01900bf1ff3b002b06
:1008d00000f06e81002331460a22484603f002fcf4
:1008e000069b002b06467ddc089b022b7add46e04a
:1008f000129bc3f1360362e708f1ff34a742bfbf82
:100900000d9be71bdb190d93b6bf27463c1b00244c
:10091000b8f1000fb9bfaaeb0805002355464346be
:100920004fe73c465546099e54e73a467be7089b0d
:10093000012b14dc049b93b9059bc3f3130282b90a
:10094000aa4f1f402fb1079b01330af1010a0793f9
:1009500001270d9b002b7ff47daf012082e700274c
:10096000f7e7049ff5e78dd018461c3085e7b8f10e
:10097000000f31dc089b022b2eddcdf81880069b82
:1009800063b921460522484603f0acfb0146044604
:10099000019804f0cdf800283ff70aae0c9b029da9
:1009a0006fea030b00272146484604f00bf9002e9e
:1009b0003ff4c8ae2fb1b74203d03946484604f0e1
:1009c00001f93146484604f0fdf8bbe6002426460e
:1009d000e4e78b462646ebe5099bcdf81880002b13
:1009e00000f0ed80002d05dd31462a46484602f034
:1009f0009dfe0646002f54d07168484603f054fc13
:100a0000326902320546920006f10c010c3004f006
:100a10000dfb01222946484602f088fe029b029afd
:100a200003f10108069b13440c93049b03f001039c
:100a300037460993064608f1ff332146019806938d
:100a400001f09efd3946049000f1300a019804f04f
:100a50006ff8324607902146484602f0e1fbc26833
:100a6000054602bb0146019804f062f80246294699
:100a700048460a9204f0a6f8089b0a9a43ea020143
:100a8000099b0b43454610d1baf1390f29d0079b7a
:100a9000002b02dd049b03f1310a069b83f800a0c2
:100aa00081e73046bae70122e1e7079b002b04db30
:100ab00008990b4309990b431ed1002aeddd012251
:100ac0000199484602f032fe2146019004f030f8c8
:100ad000002803dce1d11af0010fded0baf1390fa2
:100ae000d8d1069a3923137015f8013c392b05f13a
:100af000ff3249d0013307e0002a07ddbaf1390f90
:100b0000efd0069a0af1010313704ce70c9b08f82a
:100b100001ac984520d000230a220199484603f0f1
:100b2000e1fab74201904ff000034ff00a02394654
:100b3000484606d103f0d6fa0746064608f10108f2
:100b400079e703f0cffa002307460a2231464846e8
:100b500003f0c8faf1e7002701220199484602f0a4
:100b6000e5fd2146019003f0e3ff0028bcdc02d143
:100b70001af0010fb8d115f8013c302b05f1ff3206
:100b80007ff411af1546f6e7029b934204d10bf1b7
:100b9000010b3123029ab7e71546a5e7144bfff77f
:100ba0005bbb1f9b002b7ff436ab124bfff754bb94
:100bb000069b002b03dc089b022b3ff7e0ae029d57
:100bc0000198214601f0dcfc00f1300a029b05f897
:100bd00001abea1a069b9342bddd00230a2201996c
:100be000484603f07ffa0190eae700bf0000f07f7b
:080bf0009552400088524000bc
:020000040000fa
:020000040040ba
:100bf8002de9f04f2ded028b8bb00c461646ddf833
:100c080058901f46054604f0cbfb0368039318462b
:100c180004f01efbd9f800300490073323f00703d3
:100c280003f1080294f818b0d4f80080c9f800203d
:100c3800d3e90023c4e912239fedb57b94ed128b11
:100c4800b0eec86bb4ee476bf1ee10fa27ddb5eee7
:100c5800c08bf1ee10fa02d52d2384f84330ae4b49
:100c68001a1dbbf1470f88bf134602930323236164
:100c78004ff0000a28f004032360d046009733465b
:100c880008aa2146284602f02bf8013040f00281dc
:100c98004ff0ff300bb0bdec028bbde8f08fb4ee27
:100ca800488bf1ee10fa08d718ee903a002bbcbf2b
:100cb8002d2384f84330994bd2e763685a1c0bf014
:100cc800df0919d10623636048f48063236018eeb6
:100cd800903a002bb6bf2d230023b1ee488bb9f113
:100ce800460fd4f804a005930dd0b9f1450f01d1f2
:100cf8000af1010a022107e0b9f1470fe4d1002bfc
:100d0800e2d10123dfe7032108ab019307ab00938e
:100d1800524606abb0ee480b2846fff735fab9f154
:100d2800470f029053d118f0010f50d1029a089b37
:100d3800b9f1470fa3eb020a069a6cd1d31c03db67
:100d48006368934280f29580abf1020b5ffa8bfbec
:100d5800531e002b0693b6bfc2f101032b222d228e
:100d6800092b04f1500884f850b084f851206fdd45
:100d78000df127024ff00a0e93fbfef10efb113026
:100d88003030632b02f1ff3c02f8010c58dc3031a3
:100d9800023a0cf8011c04f152030df127008242bb
:100da800194650d3a1eb08080aeb0803baf1010f62
:100db800236102dc2268d00701d501332361059b3a
:100dc800002b3ff45baf2d2384f8433056e7029b9a
:100dd800b9f1460f03eb0a020cd11b78302b07d16f
:100de800b5ee408bf1ee10fa1cbfcaf10103069371
:100df800069b1a44b5ee408bf1ee10fa00d108922a
:100e0800089b9a4292d93021581c08901970089b67
:100e18009a42f9d88ae7bbf1650f99d9bbf1660ff9
:100e280029d1002a63681cdd226113b92168c9072a
:100e380002d5013313442361a2654ff00008bee7d1
:100e480062460b4698e712f8011b03f8011ba6e758
:100e58003022134484f8522004f1540184f85330aa
:100e6800a0e713b92168c80701d50233e3e70123d6
:100e7800e1e74ff0670b524505db23682261d9078c
:100e8800dad5531cd7e7002ad4bfc2f102030123e5
:100e98005344d0e723685a0507d42369029a314698
:100ea8002846b847013029d1f2e6bbf1650f40f278
:100eb800d48094ed127bb5ee407bf1ee10fa3cd174
:100ec8000123174a31462846b84701303ff4e0aebf
:100ed800069b534502db2368d8070fd5dde90323ba
:100ee80031462846b84701303ff4d2ae0af1ff39ff
:100ef8004ff0000804f11a0ac14513dc23689b0768
:100f080000f1fa80e068089b9842b8bf1846c1e62d
:100f1800ffffffffffffef7fb0514000b8514000d7
:100f2800c05140000123524631462846b847013097
:100f38003ff4aeae08f10108dee7069b002b2bdc80
:100f48000123704a31462846b84701303ff4a0ae25
:100f5800069b5aea030302d12368d907ced5dde9f7
:100f6800032331462846b84701303ff491ae4ff08d
:100f7800000804f11a09069b5b42434501dc53460d
:100f88008ce701234a4631462846b84701303ff4ea
:100f98007fae08f10108eee7a36d5345a8bf53469d
:100fa800002b984606dd029a31462846b84701309c
:100fb8003ff46eae04f11a034ff0000b28eae8780c
:100fc800059309e00123059a31462846b8470130c0
:100fd8003ff45eae0bf1010bd4f85890a9eb08036f
:100fe8005b45efdc069b53451adb2368da0717d409
:100ff800069b99451cdbaaeb0908b8f1000f08dd30
:10100800029a43464a4431462846b84701303ff4dd
:101018003fae4ff0000928eae87804f11a0b14e013
:10102800dde9032331462846b8470130e0d12fe6f1
:10103800aaeb0308e1e701235a4631462846b84798
:1010480001303ff425ae09f10109069baaeb030321
:10105800a3eb08034b45eedc50e7baf1010f01dcc6
:10106800db0736d50123029a31462846b8470130b6
:101078003ff40eaedde9032331462846b847013078
:101088003ff406ae94ed127bb5ee407bf1ee10fa1c
:101098000af1ff3b18d0029a5b46013231462846d6
:1010a800b84701300cd1f3e50123524631462846b2
:1010b800b84701303ff4ecad09f10109cb45f3dc49
:1010c800434604f15002eae64ff0000904f11a0a17
:1010d800f4e70123029ae1e701234a46314628460c
:1010e800b84701303ff4d4ad08f10108e368089a25
:1010f8009b1a4345f0dc05e74ff0000804f1190995
:08110800f4e700bfc0514000f4
:020000040000fa
:020000040040ba
:10111000340540201c0000000000000000044020b6
:101120003c000000000000001003402058000000b8
:10113000000000007c0540200800000000000000c6
:101140000c0540202800000000000000ac044020f6
:10115000300000000000000050054020100000009a
:10116000000000003c0440203800000000000000a7
:1011700070014020a000000000000000a8054020f1
:10118000020000000100000001000000dc0440201b
:1011900030000000000000006803402058000000fc
:1011a0000000000010024020a0000000000000002d
:1011b0006005402010000000000000007005402085
:1011c0000c00000000000000840540200400000026
:1011d00000000000aa0540200100000000000000ff
:1011e0008805402004000000000000008c0540201d
:1011f0000400000000000000ab05402001000000da
:1012000000000000900540200400000000000000e5
:10121000740440203800000000000000c00340209b
:101220004000000000000000940540200400000081
:1012300000000000980540200400000001000000ac
:10124000b0024020b0024020600000000100000019
:10125000000000000000000000000000000000008e
:10126000000000000000000000000000000000007e
:10127000000000000000000000000000000000006e
:10128000000000000000000000000000000000005e
:10129000000000000000000000000000000000004e
:1012a000000000000000000000000000000000003e
:1012b0009c0540200400000000000000a005402024
:1012c0000400000000000000040040206c01000049
:1012d00001000000430000000000000000000000ca
:1012e00000000000000000000000000000000000fe
:1012f00000000000430000000000000000000000ab
:1013000000000000000000000000000000000000dd
:10131000000000004300000000000000000000008a
:1013200000000000000000000000000000000000bd
:10133000000000004300000000000000000000006a
:10134000000000000000000000000000000000009d
:10135000000000004300000000000000000000004a
:10136000000000000000000000000000000000007d
:10137000000000004300000000000000000000002a
:10138000000000000000000000000000000000005d
:10139000000000004300000000000000000000000a
:1013a000000000000000000000000000000000003d
:1013b0000000000099504000414e40000000000035
:1013c000fc28400095534000945340009453400043
:1013d0009453400094534000945340009453400071
:1013e000945340009453400094534000ffffffff8c
:1013f000ffffffffffffffffffff00000100415362
:101400004349490000000000000000000000000007
:101410000000000000000000000000000000415338
:1014200043494900000000000000000000000000e7
:1014300000000000000000000000000000000000ac
:10144000000040200400000000000000a40540202f
:101450000400000000000000000000000000000088
:020000040000fa
:020000040040ba
:101460002de9f047089e04468846002b40f0858011
:101470008a42154648d9b2fa82f24ab1c2f120072f
:1014800001fa02f320fa07f7954047ea030894406f
:101490004fea154e230cb8fbfef71ffa85fc0efb36
:1014a000178843ea084307fb0cf1994209d9eb1866
:1014b00007f1ff3080f0e380994240f2e080023f84
:1014c0002b445b1aa4b2b3fbfef00efb103344eacc
:1014d000034400fb0cfca44509d92c1900f1ff338f
:1014e00080f0cb80a44540f2c88002382c4440ea0a
:1014f0000740a4eb0c0400271eb1d4400023c6e92a
:1015000000433946bde8f087002a53d0b2fa82f290
:10151000002a40f0b680491b4fea154e1ffa85f8a5
:101520000127b1fbfefc230c0efb1c1143ea014317
:1015300008fb0cf1994207d9eb180cf1ff3002d2ed
:10154000994200f2ec808446591aa3b2b1fbfef036
:101550000efb101443ea044408fb00f8a04507d929
:101560002c1900f1ff3302d2a04500f2dc801846ae
:10157000a4eb080440ea0c40bee78b4208d9002ed9
:1015800078d00027c6e9000138463946bde8f08723
:10159000b3fa83f77fb98b4202d3824200f2bd8057
:1015a000841a61eb030301209846002ea9d0c6e9f6
:1015b0000048a6e7ffdec7f12005bb4022fa05fc84
:1015c0004cea030c01fa07f420fa05f821fa05f3b6
:1015d0004fea1c4e48ea0404b3fbfef9210c0efb53
:1015e00019331ffa8cf841ea034309fb08fa9a45bc
:1015f00002fa07f200fa07f10bd91ceb030309f119
:10160000ff3080f088809a4540f28580a9f1020978
:101610006344a3eb0a03a4b2b3fbfef00efb10334a
:1016200044ea034400fb08f8a04508d91ceb040475
:1016300000f1ff336bd2a04569d90238644440ea17
:101640000940a4eb0804a0fb02894c45c6464b4662
:1016500054d351d0002e69d0b1eb0e0264eb0304d9
:1016600004fa05f522fa07f3fc401d43c6e90054cd
:10167000002746e73746304643e7184637e7074630
:101680001fe7c2f1200320fa03f7954001fa02f0a8
:1016900021fa03f34fea154e3843010cb3fbfef772
:1016a0001ffa85f80efb173341ea034107fb08f3e5
:1016b0008b4204fa02f407d9691807f1ff3c28d2db
:1016c0008b4226d9023f2944cb1a81b2b3fbfef0ec
:1016d0000efb103341ea034100fb08f38b4207d9ac
:1016e000691800f1ff3c10d28b420ed90238294410
:1016f000c91a40ea074714e74145abd2b8eb020ede
:1017000069eb0c0201381346a4e76046f0e718467f
:1017100095e76746d8e781467be7384645e7acf171
:10172000020c2b4410e702382c4421e73746e8e648
:020000040000fa
:020000040040ba
:101730002de9f04306460c4601f14300097e85b0d1
:101740006e29984617460c9b00f0ba8024d863296e
:1017500039d00ad8002900f0c380582900f09180c0
:1017600004f1420584f8421035e0642901d069296a
:10177000f6d125681a6815f0800f02f104012cd00b
:1017800012681960002a03da2d23524284f843308c
:10179000dff8bcc10a233fe0732900f0a58008d818
:1017a0006f2921d07029dbd1226842f0200222600b
:1017b00003e0752918d07829d2d1782284f8452001
:1017c000dff890c161e01a68111d1960136884f890
:1017d000423004f14205012393e01268196015f0cc
:1017e000400f18bf12b2cde7d4f800c01a681cf041
:1017f000800f02f104051d6001d0126803e01cf0a7
:10180000400ffad01288dff848c16f290cbf0823b7
:101810000a23002184f843106568a560002da2bf4b
:10182000216821f0040121600ab9002d46d0054647
:10183000b2fbf3f103fb112e93421cf80ee005f806
:1018400001ed39d9082b0bd12368da0708d52369b4
:1018500062689a42debf302305f8013c05f1ff358e
:10186000401b2061cdf800803b4603aa214630464c
:1018700001f03afa013049d14ff0ff3005b0bde830
:10188000f083dff8ccc084f845101d68216855f856
:10189000042b1d600d060bd5cd0744bf41f0200180
:1018a00021601ab9236823f0200323601023b0e7d6
:1018b0004b0648bf92b2efe70a46b9e70546c1e7d3
:1018c0001a68d4f800c06169151d1d601cf0800ff6
:1018d000136801d0196003e01cf0400ffad01980a2
:1018e000002323610546bde71a68111d19601568bc
:1018f00062680021284602f013f808b1401b6060be
:1019000063682361002384f84330abe723692a46e8
:1019100039463046c0470130aed023689b0713d408
:10192000e068039b9842b8bf1846a7e701234a46e0
:1019300039463046c04701309ed00135e368039aee
:101940009b1aab42f2dcebe7002504f11909f5e73d
:08195000864e4000974e400056
:020000040000fa
:020000040040ba
:101958002de9f04f85b0109f9df844804fb31d4688
:101968001646039102904ff0ff333b6002f0d6fd1c
:101978008346f0b1b8f1010f0cd0b8f1020f1bd0bb
:10198800b8f1080f18d0a5b19eb10f9b8bb10e9b73
:1019980023b90ee00f9b63b10e9b53b1dbf80090a7
:1019a800c9eb091a614b03eb8a0a504602f0f0f8ba
:1019b80038b905b0bde8f08f002dfad0002eedd172
:1019c800f7e7dbf800c0cceb0c12584b03eb8203b3
:1019d8005c6a186a002800f0a48023785bb104f1df
:1019e8002c0200230133984200f09b80144612f821
:1019f8002c1b0029f6d1012222700022a262dbf8fa
:101a08000020120292b2cceb0c10484901eb800185
:101a1800888d42ea0042dbb2134323628b8d013387
:101a28009bb24ff6ff72934208bf01238b85039b3d
:101a380063800e9b63600f9ba360e6602561029b39
:101a4800a361002384f8243001222277637584f887
:101a58001480236a3b60daf828306bb1c9eb0919a6
:101a6800324b03eb8909d9f82830002b3bd09a6a0e
:101a7800002a34d11a4635e0caf82840c9eb0913c0
:101a88002a4a02eb83035a69dbf814309a420dd0d4
:101a9800c9eb0915254b03eb8505eb681b6900218c
:101aa8000bf114009847dbf814306b61022323779d
:101ab800b8f1010f1bd0b8f1020f25d06368226975
:101ac800e1686088c9eb0919184d05eb8909d9f84f
:101ad8000c50a4680094ac68a04704e01a46936ac6
:101ae800002bfbd19462504602f037fa61e7c9eb4c
:101af80009190e4b03eb8909d9f80c301b68a26849
:101b0800616860889847eee7c9eb0919074b03eb52
:101b18008909d9f80c305b682269e16860889847c0
:101b2800e1e7504602f019fa43e700bf00044020fd
:020000040000fa
:020000040040ba
:101b38002de9f04f1e468b891b069db007460d46c2
:101b480014460ed50b6963b9402101f0e3fc286007
:101b5800286120b90c233b604ff0ff30c3e04023dd
:101b68006b6100230993dff88491039620238df895
:101b7800293030238df82a304ff0ff3809f1060a52
:101b880023461e4613f8012b0ab1252af9d1b6ebd4
:101b9800040b0bd05b4622462946384601f004fc6c
:101ba800013000f09b80099b5b4409933378002b3c
:101bb80000f094800023cde9058301360493079350
:101bc8008df853301a934ff0010b3446052214f860
:101bd800011b464801f0a0fe049bc0b9d80644bfcb
:101be80020228df85320190744bf2b228df853204b
:101bf80032782a2a13d0079a344600200a2621462a
:101c080011f8013b303b092b4bd970b914e0a0eb1c
:101c180009000bfa00f0184304902646d5e7039a0a
:101c2800111d12680391002a01db079204e0524259
:101c380043f002030792049323782e2b0bd1637889
:101c48002a2b33d1039b1a1d1b680392002bb8bfa4
:101c580043460234059303222178254801f05cfeaf
:101c680040b14023a0eb0a0003fa00f0049b0343b1
:101c78000134049314f8011b1e488df8281006221d
:101c880001f04afe03ab00932a461b4b04a908b394
:101c98003846fef7adff421c20d0099b0344099348
:101ca8006ee706fb023201200c46a8e70023013448
:101cb800059319460a26204610f8012b303a092abe
:101cc80003d9002bc7d00591c5e706fb01210123e5
:101cd8000446f0e73846fff727fddce7ab895b06eb
:101ce8003ff53aaf09981db0bde8f08fd4514000d8
:0c1cf800da514000de514000b1334000e2
:020000040000fa
:020000040040ba
:101d040030b587b0654b1b78042b00f29680dfe872
:101d140003f0032e7696af000321002000f06efe40
:101d24005e4b9860b0f1ff3f03d15c4b05221a7003
:101d340083e01c4619465a4b41f8043f03f012f95c
:101d440000225849a06802f06ffe574b1868b0f1a2
:101d5400ff3f03d1514b05221a706ee0534b012211
:101d640004f1170103f045fa0423237065e04b489e
:101d740090f93b3000228df8172090f83c20027433
:101d84004374022380f83e3000f10c02009200f10b
:101d940010025021806803f063f9404a92f83e3003
:101da400dbb2022bfad03d4c4ff0020584f83e50d2
:101db40004f10c03009301230df117025021a068d4
:101dc40003f04ef994f83e30dbb2022bfad094f8cb
:101dd4003e30dbb2012be9d0304b93f83c30013379
:101de400dbb2042b06d82d4a82f83c302b4b04225c
:101df4001a7022e0294b002283f83c20f6e727489a
:101e040000230374022380f83e3000f10c03029394
:101e14000523019300f112030093012300f1100242
:101e24005021806803f0acf81c4a92f83e30dbb2d3
:101e3400022bfad0194b03221a7007b030bd1c4b89
:101e44001b78002bf9d01a4b00221a70134c94f80b
:101e54003c1004f1120001f011fc144b012204f1b6
:101e640017011148006803f0c4f904232370e4e760
:101e74000a4b93f83d3033b1084b002283f83d20e0
:101e840001221a70d9e70b4b1b78002bd5d0094bd4
:101e940000221a70014b02221a70cee7c0034020c0
:101ea400801a06001d4e4000880540208c05402005
:081eb400aa054020ab05402007
:020000040000fa
:020000040040ba
:101ebc0010b5634b1b6a13f4807f04d0614aff2179
:101ecc0011770121517713f0010106d05c4a0820eb
:101edc001060042010600720906213f4007f02d081
:101eec00584a01201077574a527f8ab9554a127fb7
:101efc0052b2013a032a0bd8dfe802f002541c78e4
:101f0c00504bdb6883b100214e4b188801f0aefcbe
:101f1c004c4b1b7f5bb2b3f1ff3f6dd0494b1b7f2a
:101f2c005bb2052b78d010bd0121464b188801f00f
:101f3c009dfcede713f0040fead0424b5a69db68c5
:101f4c00013b9a4209d03f4b5968501c58618a5c3e
:101f5c003b4b5a633a4b1b6adae73a4b1b699bb90a
:101f6c00384b5968501c58618a5c354b5a630222b5
:101f7c001a6004229a621b6a13f0010f314b14bfd2
:101f8c00052204221a77e5e772b62d4a04239362e0
:101f9c002c4b586859694c1c5c61435c536302f0d0
:101fac0073fdd7e713f0020fb2d0264a1369023b38
:101fbc0092699a4216d0224b1c6b224b98689969f5
:101fcc004a1c9a6144541b699a42a1d11c4b0222af
:101fdc009a621b6a13f0010f1a4b14bf05220422dc
:101fec001a7795e7164b02221a60e4e700298fd086
:101ffc00144b05221a778be7124a00231377104be8
:10200c00072199620821196004211960136a002bb9
:10201c0084d0506a984781e70a4b00225a771a7786
:10202c00074a0721916208211160042111601b6a83
:10203c00002b3ff478af034a506a984773e700bf10
:08204c00008001400c0540205a
:020000040000fa
:020000040040ba
:1020540008b54f4b98474f4b9847eff3108172b632
:102064004d4ad2f8883043f47003c2f88830bff385
:102074004f8fbff36f8f01b962b6484b484a5a601d
:102084009a6812f0010ffbd0444bdb6813f4c07f55
:1020940013d0444b0c221a60404b434a5a609a684e
:1020a40012f0010ffbd03d4b404a5a609a6812f07f
:1020b400010ffbd03e4b3f4a1a60bff34f8fbff373
:1020c4006f8f354cd4f8903223f00103c4f890326a
:1020d400d4f8943223f00103c4f89432bff34f8f41
:1020e400bff36f8f01f0b4fe334b23f07f03a36083
:1020f400324b9847636913f4003f12d1bff34f8ffb
:10210400bff36f8f0022c4f85022bff34f8fbff389
:102114006f8f626942f400326261bff34f8fbff385
:102124006f8f1d4b5b6913f4803f29d11a4b00223a
:10213400c3f88420bff34f8fd3f88030c3f3c906ac
:10214400c3f34e335a0143f6e075134802ea05041b
:10215400334644ea8371c0f86012013bb3f1ff3f98
:10216400f7d1203a12f1200ff0d1bff34f8f0a4a72
:10217400536943f480335361bff34f8fbff36f8fc1
:102184000f4b98470f4b984703f08bf8fee700bfbf
:10219400634140006341400000ed00e0000c0e404c
:1021a4000d00005a840540200c08005a0c07005a00
:1021b40000180e40010000a50000400051464000f8
:0821c40063414000634140004b
:020000040000fa
:020000040040ba
:1021cc00002b00f09e802de9f84f1d464ff0ff3399
:1021dc002b60a2b199b114460e46074602f00efad6
:1021ec00824660b1b0f800b04ff0580808fb0bf80d
:1021fc00444b03eb0809484600f0e5fd08b9bde87f
:10220c00f88fbaf800e03f4a582303fb0e23d96934
:10221c00d3f818c0bcf1000f69d00b79002b52d049
:10222c0001f1200300220132624560d01946187971
:10223c0020330028f7d101230b7100234b61314b64
:10224c00582000fb0e30b0f814c09af800301b0276
:10225c0043ea0c43d2b21a43ca61838a01339bb25c
:10226c004ff6ff72934208bf01232648582202fb07
:10227c000e0eaef814308e60cc6000230b610f6034
:10228c008b7601220a764b76cb692b609df8283031
:10229c0093421ad01b4b08f1240803eb0802582078
:1022ac0000fb0b3bdbf8240028b313683bb15a69e5
:1022bc0022b15b691bb15a69002afad159614846af
:1022cc0000f066fe9be70022b5e70e4808f12008f7
:1022dc0000eb0802582303fb0b0bdbf82030002b20
:1022ec00e3d140f80810484601f075fee7e7484690
:1022fc0000f04efe83e743f80810484601f0e8fd75
:08230c00dde7704710034020db
:020000040000fa
:020000040040ba
:1023140010b584b0454b1b78032b53d8dfe803f08a
:10232400023e546f0321002000f068fb3f4b5860cd
:10233400b0f1ff3f03d13d4b04221a7042e01c462a
:1023440019463b4b41f80c3f02f00cfe0022394980
:10235400606802f069fb01234ff47a720021364869
:1023640002f0b4f8a368b3f1ff3f03d12f4b04226a
:102374001a7027e00321002000f0c0fb2f4b1860e7
:10238400b0f1ff3f03d1294b04221a701ae0002256
:102394002b4902f063fb0322227013e0234c2246f4
:1023a400002302f8143f04f1100302930223019363
:1023b40004f11503009301234b21606802f0e0fd52
:1023c4000323237004b010bd1e4b1b78002bf9d0df
:1023d4001c4b00221a70154c04f1150001f040fe4c
:1023e400024684f83700184904f1170002f09afdf8
:1023f40094f9370002f0b4fe03232370e2e70b4b99
:1024040093f8363033b1094b002283f83620012289
:102414001a70d7e7054b93f83530002bd2d0034b15
:10242400002283f8352002221a70cbe7740440207e
:10243400a086010051514000115040008805402001
:0c244400f5494000aa054020fc50400073
:020000040000fa
:020000040040ba
:102450002de9f04f15460a692b699a420c46bcbf1c
:102460002c460d46d4f81090d5f81080a36861680a
:1024700009eb0807bb4285b0b8bf013101f014ff7a
:1024800000f1140606eb870e33460022734519d37c
:1024900004f1140303eb890305f11402009302eb2a
:1024a000880301934ff6ff75019b029293420cd86b
:1024b000002f03dd5ef8043d002b5fd0076105b0ff
:1024c000bde8f08f43f8042be0e7136813ea050c2e
:1024d00027d004f1140ab0464ff000095af8041b43
:1024e00001ea05030393d8f8003003ea050b039bc8
:1024f0000cfb03b34fea114bd8f800104b444feae2
:1025000011490cfb0b9101eb13412b4043ea0143b2
:1025100048f8043b009b53454fea1149ded8c8f800
:102520000090029bb3f802900432b9f1000f23d05f
:10253000336804f11408b4464ff0000ad8f80010cc
:10254000bcf802b0294009fb01b18a442b4043eaa0
:102550000a434cf8043b58f8043bdcf800101b0c11
:10256000294009fb0313009903eb1a4341454fea45
:10257000134ae3d8ccf80030043695e7013f97e7db
:020000040000fa
:020000040040ba
:102580002de9f74f03690c69a3428046c0f28d80a4
:10259000013c01f114074fea840c07eb0c0300f136
:1025a0001405009305eb0c03019357f8243055f8fc
:1025b000242001339a42b2fbf3f636d34ff0000adf
:1025c000be46a946d3464ff6ff705ef8042b02eada
:1025d000000306fb03a34fea134a0340abeb0303dc
:1025e000120cd9f800b006fb02a213fa8bf34feae3
:1025f000124a02ea000bd9f80020cbeb124202eba0
:102600002342034043ea024349f8043b009b7345dd
:102610004fea224bd9d255f80c3033b9019b043b19
:102620009d421a4635d3c8f81040404602f080fa61
:1026300000282adb013628464ff0000e4ff6ff7cbb
:1026400057f8042bd0f8009002ea0c03aeeb03031a
:10265000120c13fa89f3c2eb194202eb234203ea8c
:102660000c034fea224e43ea0242009b40f8042b3f
:10267000bb42e5d255f8242005eb84032ab9043b7c
:102680009d421a460bd3c8f81040304603b0bde84f
:10269000f08f1268043b002ac5d1013cc0e71268e4
:0e26a000043b002aefd1013ceae70020eee700
:020000040000fa
:020000040040ba
:0226ae00fee745
:020000040000fa
:020000040040ba
:1026b00038b5484b5b6913f0e0030fd1454b5b69bc
:1026c00013f0010f1cd1434b5b6913f0020f04d0d0
:1026d000404b1b6913f0020f44d138bddbb23e4cb6
:1026e00084f82d3002f0c8fa3a4be122da60002378
:1026f00084f82c30636a002b69d0a06a9847dde724
:10270000354b93f82c30002bddd03249324b4a69df
:1027100012f0010f13d01a6ad86990420fd98a6952
:10272000c2f30802486810f4003f9c69186a00f17f
:1027300001051d6214bf24f810202254e7e7264b40
:102740001a6adb699a42bed3234b002283f82c20fd
:10275000204ae121d1605b6a002bb4d01e4a906a06
:102760009847b0e71c4b1b7d002bb6d01a4b58681e
:102770001c68184b184a04e091684d1c9560615c18
:10278000d961596911f0020f0fd0916888420cd9b4
:10279000596811f4003fefd091684d1c956034f8f2
:1027a0001110c1f30801d961ebe70b4b9a685b6824
:1027b0009a4292d3084b00221a75064a0221d16030
:1027c000db68002b89d0044a1069984785e7014be4
:0c27d0005b6978e700800240ac04402008
:020000040000fa
:020000040040ba
:1027dc000378002b00f0898090f90130022b40f037
:1027ec00848070b582b00446856aaa69c2f3072357
:1027fc00c3eb03133d4901eb8303d6b206eb46064c
:10280c00db6903ebc60633699a4228d1c368db68df
:10281c00984785f8240095f82430dbb2002b0cbfc8
:10282c0001204ff0ff306875296aa36a2bb19a6ab0
:10283c00a26200221a779a621a70b36843b1236bb2
:10284c0001332363b368f2689847236b013b23631e
:10285c00a56a15b12b7f012b08d002b070bdab6af5
:10286c00836200232b77ab622b70f1e7ab69c3f368
:10287c000722c2eb02121d4901eb8202dbb203eb11
:10288c004303d66906ebc306626973699a4207d0a3
:10289c00e3681b69002106f11400984773696361b2
:1028ac002b7d022b0cd0042b13d0012bd5d1022362
:1028bc002b77e3681b68aa68696868889847cce737
:1028cc0002232b77e3685b682a69e9686888984774
:1028dc00c3e702232b776b682a69e9686888e46888
:1028ec00ad680095a468a047b7e770470004402086
:020000040000fa
:020000040040ba
:1028fc0000202020202020202020282828282820c4
:10290c0020202020202020202020202020202020bb
:10291c002088101010101010101010101010101023
:10292c001004040404040404040404101010101013
:10293c0010104141414141410101010101010101dd
:10294c00010101010101010101010101101010102f
:10295c0010104242424242420202020202020202af
:10296c000202020202020202020202021010101003
:10297c00200000000000000000000000000000002b
:10298c00000000000000000000000000000000003b
:10299c00000000000000000000000000000000002b
:1029ac00000000000000000000000000000000001b
:1029bc00000000000000000000000000000000000b
:1029cc0000000000000000000000000000000000fb
:1029dc0000000000000000000000000000000000eb
:1029ec0000000000000000000000000000000000db
:0129fc0000da
:020000040000fa
:020000040040ba
:102a0000002877d13d4b93f83430012b02d04ff0a2
:102a1000ff307047394b002283f8342093f901309e
:102a2000022b47d1354b1b78002b43d0334b9b787f
:102a3000002b46d1314b5b68002b49d130b42f4b72
:102a40009d68002d4ed0da69104653794bb118328b
:102a500000230133ab4245d0104618324479002c94
:102a6000f7d10122427111f0080f02d0234a01244c
:102a70009470224a546801345460948ddbb243ea66
:102a800004430361938d01339bb24ff6ff7293426f
:102a900008bf0123194a9385012382f834300023ab
:102aa000036041f004010171126942618360c360f7
:102ab00000691de0114b012283f834204ff0ff30f4
:102ac00070470e4b012283f834204ff0ff307047df
:102ad00011f0080fb2d0094b012283f834204ff0d7
:102ae000ff307047054b012283f834204ff0ff3050
:102af00030bc70474ff0ff30704700bf00044020eb
:020000040000fa
:020000040040ba
:102b000000286ed13b4b93f90230022b6cd1394b2c
:102b10001b78002b6bd0374b93f83430012b02d04d
:102b20004ff0ff307047334b002283f834205b783e
:102b3000002b3dd12f4b9b68002b40d130b42d4b47
:102b4000dd68002d45d01a691046d3784bb110329c
:102b500000230133ab423cd010461032c478002c25
:102b6000f7d10122c27011f0080f02d0214a0124ce
:102b70005470204a946801349460948adbb243ea2a
:102b80000443c360938a01339bb24ff6ff729342b2
:102b900008bf0123174a9382012382f8343041f0a1
:102ba000040181700023436083600380c06816e0e5
:102bb000104b012283f834204ff0ff30704711f0a2
:102bc000080fbbd00b4b012283f834204ff0ff30ad
:102bd0007047084b012283f834204ff0ff3030bc9f
:102be00070474ff0ff3070474ff0ff3070474ff0a5
:082bf000ff3070471003402084
:020000040000fa
:020000040040ba
:102bf8002de9f0410478002c69d090f90240022cac
:102c080065d101290cbf076a476a002f5fd01646b5
:102c18000d4604463a68c2f3072130484ff0580c75
:102c28000cfb01015ffa82f8096901eb0818d8f872
:102c38000c108a4243d17e767a7e52b2b2f1ff3fbf
:102c48001cd0fb683b61ff692946204602f006f963
:102c5800d8f80430002b36d094f82830013384f8a3
:102c68002830d8f80430d8f8082039463046984734
:102c780094f82830013b84f8283024e094f82a207e
:102c880052b2b2f1ff3f02d000233b61dbe7626c36
:102c98001168994210d051688b420bd092689342c8
:102ca80006d00023bb766368db6898473861cae7bb
:102cb800022302e0012300e000230133f2e7294662
:102cc800204602f0cbf825b9204601f003f9bde80b
:102cd800f081204601f081f9f9e700bf1003402098
:020000040000fa
:020000040040ba
:102ce8002de9f04791461f468a680b69ddf8208078
:102cf8009342b8bf1346c9f8003091f843200646fe
:102d08000c4612b10133c9f800302368990642bf56
:102d1800d9f800300233c9f80030256815f00605e7
:102d280007d104f1190ae368d9f800209b1aab42cd
:102d380028dc94f843302268003318bf0123920638
:102d48002dd404f1430239463046c047013020d023
:102d58002368e568d9f8002003f00603042b08bfb0
:102d6800ad1aa36822690cbf25eae57500259342d0
:102d7800c4bf9b1aed184ff000091a344d451ad1fb
:102d8800002008e00123524639463046c04701304a
:102d980003d14ff0ff30bde8f0870135c3e7e118f4
:102da8005a1c302081f84300224494f8451082f8d8
:102db80043100233c5e70123224639463046c0474f
:0a2dc8000130e6d009f10109d8e757
:020000040000fa
:020000040040ba
:102dd20090f8283043b990f83530012b01d000200b
:102de2007047002380f8353070b50446856c00f0da
:102df20092fd06462b7803bb6868b0f1ff3f35d1e0
:102e0200a868b0f1ff3f37d1e868b0f1ff3f39d190
:102e12002869b0f1ff3f3bd194f829305bb2b3f19e
:102e2200ff3f3bd194f82a305bb2b3f1ff3f3cd174
:102e3200304602f0b0fa012070bd95f9040001f0ad
:102e42002afc84f8520094f829305bb2b3f1ff3fb8
:102e520005d194f82a305bb2b3f1ff3fe8d095f97f
:102e6200040001f018fc84f85300e1e740b201f0dd
:102e720012fc84f84c00c3e740b201f00cfc84f869
:102e82004d00c1e740b201f006fc84f84e00bfe7f6
:102e920040b201f000fc84f84f00bde795f9140040
:102ea20001f0f9fb84f85000bce795f9180001f035
:082eb200f2fb84f85100bbe7bc
:020000040000fa
:020000040040ba
:022eba00fee731
:020000040000fa
:020000040040ba
:102ebc0000285dd138b5314b1b78002b5bd12f4be3
:102ecc00012083f8350083f8340018700c685c60be
:102edc0000229a604d68dd608d681d619882886a59
:102eec009861c86ad8611a625a6283f828200a6b02
:102efc009a6491f90c2083f8292091f90d2083f81c
:102f0c002a200a69da624a691a638a699a63ca6969
:102f1c00da630a6a1a644a6a5a644a6b5a6593f805
:102f2c0029305bb2b3f1ff3f14d1636913491448e4
:102f3c009847124b93f82a305bb2b3f1ff3f10d194
:102f4c000e494b681b680f4898470c4b02229a702d
:102f5c00002038bd094a92f829000b4902f066f9a5
:102f6c00e7e7064a92f82a00084902f05ff9ece715
:102f7c004ff0ff3070474ff0ff30eae7100340206e
:102f8c0099524000fd4c4000514d4000274d4000ef
:020000040000fa
:020000040040ba
:102f9c0070b50446856c00f0b9fc06462b782bbb4b
:102fac006868b0f1ff3f3ad1a868b0f1ff3f3cd15f
:102fbc00e868b0f1ff3f3ed12869b0f1ff3f40d146
:102fcc0094f829305bb2b3f1ff3f40d194f82a302a
:102fdc005bb2b3f1ff3f41d1304602f0d7f994f820
:102fec00283013b9012384f8353070bd94f8521091
:102ffc0095f9040001f072ff94f829305bb2b3f13b
:10300c00ff3f05d194f82a305bb2b3f1ff3fe3d018
:10301c0094f8531095f9040001f060ffdce794f884
:10302c004c1040b201f05affbee794f84d1040b27c
:10303c0001f054ffbce794f84e1040b201f04eff83
:10304c00bae794f84f1040b201f048ffb8e794f893
:10305c00501095f9140001f041ffb7e794f85110a6
:0a306c0095f9180001f03affb6e7ed
:020000040000fa
:020000040040ba
:02307600fee773
:020000040000fa
:020000040040ba
:1030780010b4304b0022c3f81421d3f8141141f0d6
:103088001001c3f814112c492c4b4b602c4b0b60ce
:103098004ff0ff334b650b66c1f89030c1f8a03094
:1030a800202008616ff020044c618863c1f8182162
:1030b80001f5007110200867486748606ff010003c
:1030c80008604b650b66c1f89030c1f8a0300a6102
:1030d8004b618a63c1f8182101f500710b604b65db
:1030e8000b66c1f89030c1f8a0300a614b618a6361
:1030f800c1f8182101f500710b604b650b66c1f82a
:103108009030c1f8a0300a614b618a63c1f8182178
:1031180001f500710b604b650b66c1f89030c1f882
:10312800a0300a614b618a63c1f818215df8044b2d
:10313800704700bf00800840000e0e4018002000b5
:04314800e7ffdfffbf
:020000040000fa
:020000040040ba
:10314c00f8b5324c256b63689b6998476061606980
:10315c0001f0d4fe064601f01dff002d4dd094f871
:10316c002c30013384f82c30304601f0f5fc246b04
:10317c002cb1a3681bb901250027244e11e0244d66
:10318c0000242e4627461fe0e06901f09ffbe36810
:10319c000bb120699847346b002cf0d0a368002b3e
:1031ac00edd125756575a37813b9e368002bebd1c8
:1031bc00204601f05df9a378002be8d16770e6e7b3
:1031cc0001342035052c12d006eb44135b7d002b0b
:1031dc00f6d006eb44135f75ab78012bf0d16b681e
:1031ec0006eb44129360284600f018fde8e7074a06
:1031fc0092f82c30013b82f82c3000f087fb04460f
:10320c0000f02cf9204602f0c1f8f8bd3c04402037
:04321c0070014020dd
:020000040000fa
:020000040040ba
:103220002de9f84f0d46074611462846144601f091
:103230007ffc061e08d13146384601f035f80123df
:10324000c0e90436bde8f88fa4bf23462c463846b3
:103250006168a6bf1d460026012601f025f82b69ee
:103260002769c66004f1140205f1140602eb870811
:1032700006eb830e00f114054ff0000a4ff6ff79bc
:1032800052f804bb56f8043b1afa8bfa03ea090118
:103290001b0caaeb0101c3eb1b4303eb214301ea27
:1032a00009014fea234ab64541ea0343944645f8eb
:1032b000043be5d84ff6ff74c44504d355f8043dec
:1032c00083b10761bee75cf8041b1afa81f31a1494
:1032d00002eb1142234043ea02434fea224a45f8f7
:0832e000043be9e7013fe9e7c7
:020000040000fa
:020000040040ba
:1032e800000000000000f03f000000000000244043
:1032f80000000000000059400000000000408f401e
:10330800000000000088c34000000000006af84088
:103318000000000080842e4100000000d0126341ac
:103328000000000084d797410000000065cdcd4122
:10333800000000205fa00242000000e87648374203
:10334800000000a2941a6d42000040e59c30a242a1
:103358000000901ec4bcd64200003426f56b0c4316
:103368000080e03779c3414300a0d88557347643bd
:1033780000c84e676dc1ab43003d9160e458e1431e
:10338800408cb5781daf154450efe2d6e41a4b4493
:1033980092d54d06cff08044f64ae1c7022db544d8
:0833a800b49dd9794378ea4491
:020000040000fa
:020000040040ba
:1033b0002de9f0478e689e4282460c46914698461b
:1033c00038d8b1f80cc01cf4906f31d06269256810
:1033d000096902eb42026f1a02ebd27201335510f7
:1033e0003b449d4238bf1d461cf4806f30d02946b7
:1033f00000f094f8064650b90c23caf80030a389af
:1034000043f04003a3814ff0ff30bde8f0873a4618
:10341000216901f00bfea38923f4906343f080033c
:10342000a381266165613e44ed1b2660a56046468a
:10343000464500d9464632464946206801f05efbc3
:10344000a3689b1ba36023681e4426600020dce762
:103450002a4601f0b3f806460028e2d12169504619
:0634600000f04cfbc8e780
:020000040000fa
:020000040040ba
:02346600fee77f
:020000040000fa
:020000040040ba
:103468002de9f8432a4b1a6b59691961002a40d093
:103478009368b3f5004f33d3254b5b6947f6ff7468
:10348800002514eb030845f10009214e73689b6978
:10349800984782b200233169814206d94ff6ff71fd
:1034a80052184ff0000141eb03031949096a5618f5
:1034b80043f10007b94508bfb04524d20a44144b6c
:1034c800da61134bdb699bb213b9114b0122da6144
:1034d8000f4bd8695b685b6980b29847bde8f88391
:1034e80094680b4b5b69002514eb030845f1000950
:1034f800cbe7074b5b6947f6ff74002514eb03081d
:1035080045f10009c1e7024bc3f81c80d9e700bfa9
:043518003c0440200f
:020000040000fa
:020000040040ba
:10351c00f8b5cd1c25f0030508350c2d38bf0c254e
:10352c00002d064601dba94203d90c233360002091
:10353c00f8bd01f058fb21490a6814469cb9204f8c
:10354c003b6823b92146304601f0f8fc3860294627
:10355c00304601f0f3fc431c23d10c23336030467e
:10356c0001f005fce3e723685b1b17d40b2b03d995
:10357c0023601c44256004e06368a2420cbf0b600e
:10358c005360304601f0f3fb04f10b00231d20f0d7
:10359c000700c21accd01b1aa350c9e72246646894
:1035ac00cce7c41c24f00304a042e3d0211a30461b
:1035bc0001f0c4fc0130ddd1cfe700bf9c054020f9
:0435cc00a0054020f6
:020000040000fa
:020000040040ba
:1035d0002de9f04106460d4690461f4601f074fa6b
:1035e000002841d0224b93f90030022b06d04ff037
:1035f000ff3401f0c7f92046bde8f081002d30d03e
:10360000b5422ed31b4b1b7853b11b4b01241a78a8
:1036100042b101342033052cf9d14ff0ff34e8e7f3
:103620000024144b01221a7000225a701a755a7520
:103630009df818209a705d60c3f80c801f61ad1b67
:103640009d600e4a1288a4b244ea0244dc61531c15
:103650009bb24ff6ff72934208bf0123074a1380c3
:10366000c7e74ff0ff34c4e74ff0ff34c3e700bfb4
:103670003c0440207001402090014020a8054020db
:020000040000fa
:020000040040ba
:103680002de9f04780460e46234b244a92e803007a
:1036900083e80300042e3cd808eb060508f1010777
:1036a000bb19c6f1040753fa87f7072402f1080a89
:1036b000dff8649015f9012b514609eb040001f085
:1036c0000df80444e4b2bd42f4d18eb108f1ff35e7
:1036d000013e58fa86f6dff850800f4f15f9012f9a
:1036e0004146381900f0faff0444e4b2b542f5d17e
:1036f00009490a19094b33f8100f9b780853937046
:10370000a21c074bd2b20748006801f06cfdbde86f
:10371000f0870724d9e700bfd80340207851400044
:0c372000900540208805402080514000aa
:020000040000fa
:020000040040ba
:10372c002de9f0470c464fea621a236949680aeb07
:10373c000309a3680746164609f10105ab4233dbc2
:10374c00384600f0abfd0023804600f1140100f177
:10375c001002184653452adb20692aeaea7a04f15a
:10376c00140316f01f0201eb8a0103eb800c22d02c
:10377c00c2f1200e00201e689640304341f8040b25
:10378c0053f8040b9c4520fa0ef0f4d8086008b1ed
:10379c0009f10205013d3846c8f81050214601f0e8
:1037ac000bfa4046bde8f08701315b00c6e742f8f2
:1037bc00040f0133cee7043953f8042b41f8042fde
:0637cc009c45f9d8e6e778
:020000040000fa
:020000040040ba
:0237d200fee710
:020000040000fa
:020000040040ba
:1037d400002943d038b50d4600283cd1214c0123a3
:1037e40084f834300b686360db689847e0601e4bf4
:1037f400b3fbf0f34ff4617090fbf3f002302062fe
:1038040095f904302372002121614ff6ff73a361ff
:1038140047f6ff73e3616162a162216384f82c10af
:1038240063681b681148984763681b690bb1208b58
:1038340098470c4ce06963685b6980b29847636899
:103844005b689847a0220021094801f0fbfc022391
:103854002370204638bd4ff0ff30fbe74ff0ff30b8
:10386400704700bf3c04402000a3e1114d314000eb
:04387400700140207f
:020000040000fa
:020000040040ba
:1038780008b57f281dd9030203f4fe0343f48073bf
:10388800214a5360c0b2d060204b00225a619a612d
:10389800002935d1db68012b0fd01c4b03221a7786
:1038a8005a68012159611278174b5a6305225a62e6
:1038b80008bd0004144b5860e6e7144b1b6963b954
:1038c800124b04221a77596801225a6109780e4b63
:1038d8005963022119605a62eae772b60b4b5968bc
:1038e8005a69501c58618a5c074b5a631a46136a16
:1038f80013f0050ffbd1044a136a13f0040ffbd031
:1039080001f0c4f8d4e700bf008001400c05402056
:020000040000fa
:020000040040ba
:0839180008b501f037fc08bd01
:020000040000fa
:020000040040ba
:1039200001f0ff01102a2bdb10f0070f08d010f870
:10393000013b013a8b422dd010f0070f42b3f6d174
:10394000f0b441ea012141ea014122f007047ff08d
:1039500000070023f0e80256083c85ea010586eae4
:10396000010685fa47f5a3fa87f586fa47f6a5fa20
:1039700087f68eb9eed1f0bc01f0ff0102f007022c
:1039800032b110f8013b013a83ea010313b1f8d1d7
:103990000020704701387047002d06bf35460338b8
:1039a000073815f0010f07d1013015f4807f02bff1
:1039b000013015f4c03f0130f0bc0138704700bf42
:020000040000fa
:020000040040ba
:1039c0002de9f74359ec108b0e4640f2ff740121ac
:1039d000154600f069fcc9f3130314ea195418bf23
:1039e00043f480130193b8f10003074623d06846df
:1039f000009300f0bdfc0099d8b1019ac0f12003fa
:103a000002fa03f30b43c2407b610192019bbb614d
:103a1000002b14bf022101213961acb1a4f233445f
:103a200004443460c0f135002860384603b0bde876
:103a3000f0837961eae701a800f09afc019b7b61c1
:103a4000012139612030e8e707eb8103a0f2324021
:0e3a50003060186900f0e4fec0eb4110e4e7be
:020000040000fa
:020000040040ba
:023a5e00fee781
:020000040000fa
:020000040040ba
:103a60002de9f843154612f0030206460f4607d02b
:103a7000013a214c002354f8222000f033fb074682
:103a8000ad1035d0746a3cb9102001f0edfbc0e9ef
:103a9000014470620460c460d6f82480d8f80840fd
:103aa0004cb940f27121304601f08bfb0023c8f87d
:103ab0000800044603604ff00008eb070ad53946ba
:103ac00022463046fef7c4fc39468146304601f0b6
:103ad00079f84f466d100bd0206838b92246214640
:103ae0003046fef7b5fc2060c0f800800446e4e7ed
:0c3af0003846bde8f88300bf805340005a
:020000040000fa
:020000040040ba
:103afc0038b50546002945d051f8043c0c1f002b65
:103b0c00b8bfe41801f06ff81f4a1368104633b9b8
:103b1c00636014602846bde8384001f028b9a34220
:103b2c000cd921686218934204bf1a685b68636001
:103b3c0004bf521822600460ece713465a680ab1bd
:103b4c00a242fad919685818a0420bd12068014436
:103b5c00581882421960ddd1106852685a600144cd
:103b6c001960d7e702d90c232b60d3e72068211802
:103b7c008a4204bf11685268626004bf0918216050
:0c3b8c005c60c7e738bd00bf9c0540200e
:020000040000fa
:020000040040ba
:103b980070b58569036b4bb990f83530012b02d0ad
:103ba8000026304670bd002380f8353004462e7854
:103bb80036b195f9040000f06bfd84f83a00f0e79f
:103bc800fff7a6fe06466868b0f1ff3f10d1a86867
:103bd800b0f1ff3f12d1e868b0f1ff3f14d1286976
:103be800b0f1ff3f16d1304601f0d2fb0126d8e7ed
:103bf80040b200f04dfd84f83600e8e740b200f02e
:103c080047fd84f83700e6e740b200f041fd84f84c
:103c18003800e4e740b200f03bfd84f83900e2e701
:020000040000fa
:020000040040ba
:103c280030b32de9f0418646204b1a6bd0f8088056
:103c3800c2b193684046002198451bd30024002553
:103c48009368e41845f100059369dbb1d3f808c01f
:103c580014eb0c0645f10007b94208bfb04211d376
:103c68001a46ede7c0f80880104b186301201ae0e7
:103c7800002070470d4bc3f830e0cef81820002420
:103c8800012004e0cef81830c2f818e00020a8ebb4
:103c98000404cef80840def8183023b1def8081026
:103ca8009a68521a9a60bde8f08100bf3c0440202f
:020000040000fa
:020000040040ba
:103cb8001e4b93f82c20002a32d11b7d83f0010380
:103cc80000280cbf002303f001030bb91846704706
:103cd800f0b4174c002908bf2146046825018d421d
:103ce80016d8b1fbf5f10026b1f5803f1cd2114c76
:103cf8006768826845682a430f4d3d402a43c0687b
:103d080002433243626089b221621846f0bc7047b0
:103d1800e4008c4206d8b1fbf4f14ff40026e3e747
:103d28000023d3e71346f0e71346eee7ac04402040
:0c3d380080d1f008008002403fc1f5ff80
:020000040000fa
:020000040040ba
:103d44001e4b1f4a9a629a6e12f0020ffbd01b4a56
:103d5400136b23f07003136313469a6e12f0080f6b
:103d6400fbd0164a136b23f4407343f4807313633c
:103d740013469a6e12f0080ffbd0104a136b23f00f
:103d8400030343f00203136313469a6e12f0080f01
:103d9400fbd00a4b4ff480425a604ff4f871996596
:103da4001a609a6e12f4804ffbd0044b054a1a61d4
:103db4004ff08062c3f80021704700bf00060e4038
:083dc400013f1820005c8b0098
:020000040000fa
:020000040040ba
:103dcc00002836d003681d4a934234d810b41c4adc
:103ddc00002908bf11465b00b1fbf3f10339ff2941
:103dec0024d9002340f2ff1400e011460133dbb26a
:103dfc004a08a14294bf00200120062b88bf002056
:103e0c000028f2d1b1f5007f0dd20e4c2069d1b251
:103e1c0041ea022200f07c510a431b0403f4e02324
:103e2c001343236101205df8044b70470a460023bd
:103e3c00ebe7002070470020704700bf00093d00f1
:083e4c0080d1f0080080014064
:020000040000fa
:020000040040ba
:103e54001e4b1f4a9342f0b438bf002103d203f82b
:103e6400011b9342fbd11b4ad2e9000150ea010332
:103e74004ff0000610d09468034602f10c076cb9a9
:103e840021b1014403f8016b9942fbd13a46d2e9ce
:103e9400000150ea0103eed1f0bc704759b101f1c1
:103ea4000c030c38801a1a443b461c1813f8015ba7
:103eb40025709342f9d111f0030318bf012303ebda
:103ec400910107eb81073a46e1e700bf000040207b
:083ed400040040201011400021
:020000040000fa
:020000040040ba
:103edc0038b5456a002d3dd02b7e012b3ad10446d6
:103eec0002232b7690f82a305bb2b3f1ff3f2cd033
:103efc0043685b6a9847636d032b14d9e9684900e2
:103f0c00a86800f001fd94f82a004ff4006140b25b
:103f1c0001f0aff894f82a00eb685b00aa68216bfb
:103f2c0000f020fb16e0e968a86800f0edfc94f8be
:103f3c002a00002140b201f09cf894f82a00eb68aa
:103f4c00aa68216b00f00efb04e043685b68e9682b
:063f5c00a868984738bd7b
:020000040000fa
:020000040040ba
:103f620070b5044685692b785bb190f83a1095f9e3
:103f7200040000f0b8ff236b13b9012384f8353035
:103f820070bdfff7c8fc06466868b0f1ff3f0fd16d
:103f9200a868b0f1ff3f11d1e868b0f1ff3f13d13b
:103fa2002869b0f1ff3f15d1304601f0f4f9e2e79c
:103fb20094f8361040b200f096ffe9e794f8371013
:103fc20040b200f090ffe7e794f8381040b200f0fa
:103fd2008affe5e794f8391040b200f084ffe3e786
:020000040000fa
:020000040040ba
:103fe20038b5046a002c3ad0237e012b37d105461e
:103ff2000223237690f829305bb2b3f1ff3f29d038
:10400200436d032b14d9e1684900a06800f09dfcc0
:1040120095f829004ff4006140b201f02ff895f8ad
:104022002900e3685b00ea6aa16800f0a0fa16e0e2
:10403200e168a06800f089fc95f82900002140b2ef
:1040420001f01cf895f82900e368ea6aa16800f01b
:104052008efa04e043689b69e168a068984738bd1e
:020000040000fa
:020000040040ba
:02406200fee777
:020000040000fa
:020000040040ba
:1040640082b00278437843ea02231bb2002b21db9f
:10407400db1107ee103abaeeef7bbdeec77b17ee0d
:10408400103a1bb207ee103ab8eec77af2ee027a93
:1040940027ee277af1ee046ac7ee267a9fed0f7aaf
:1040a40077ee877afdeee77acded017a9df904008b
:1040b40002b070475b4243f3c8131bb207ee103ad9
:1040c400b8eec77bbeee006b27ee067bbdeec77b6a
:1040d40017ee103a1bb207ee103ad5e70000004283
:020000040000fa
:020000040040ba
:1040e4002de9f0410d691f4606460c4601f1140cfa
:1040f40000234ff6ff7edcf8000000ea0e0102fb0d
:1041040001710f0c000c02fb007001ea0e01013377
:1041140001eb00419d424fea10474cf8041beadcd6
:10412400d7b1a368ab4212dc61683046013100f0bc
:10413400b9f82269023204f10c01804692000c3075
:1041440000f072ff2146304600f03afd444604eb8d
:0e415400850301355f6125612046bde8f081dd
:020000040000fa
:020000040040ba
:024162007047a4
:020000040000fa
:020000040040ba
:1041640000282dd030b40446174b1b7d53bb164b8f
:104174001860596000229a6001221a75134b124a82
:1041840004e09068451c9560205cd861586910f083
:10419400020f0fd0906888420cd2586810f4003f88
:1041a400efd09068451c956034f81000c0f3080007
:1041b400d861ebe7054b02229a60012030bc7047be
:1041c400002070470020f9e7ac0440200080024042
:020000040000fa
:020000040040ba
:1041d40010b501f017f8fff7b3fdfef74bff00f041
:1041e400dffd4ff40043104a5360b03a536000f0cf
:1041f40059fe00f033fb00f0b1fa0c49002000f046
:104204001df80b4c20600b490020fef755fe606042
:1042140009490020fff7dcfaa06000f061ff01f01b
:10422400a7f800f0fff810bd00190e40bc4f400085
:0c42340070054020bc494000a053400031
:020000040000fa
:020000040040ba
:10424000002827d138b5164b1b7833bb144c0123fb
:1042500084f8343084f8353023700a68e2604869a5
:10426000a0614868e0618868a06008696062c86809
:1042700020620025a5626560a5702563a3858b6912
:10428000236163615369214606489847022363709e
:10429000284638bd4ff0ff3070474ff0ff30f8e749
:0842a00000044020dd2740006e
:020000040000fa
:020000040040ba
:1042a80070b5456a04460e463db9102000f0d8ffa7
:1042b800c0e9015560620560c560656aeb6883b155
:1042c800636adb6853f82600b8b9012101fa06f5dc
:1042d8006a1d9200204600f0b3fe60b1c0e9016596
:1042e8000ee021220421204600f0aafe636ae8605d
:1042f800db68002be4d1002070bd026843f826205b
:084308000023c0e90333f7e7cd
:020000040000fa
:020000040040ba
:1043100000b583b000230193134b1b78012b02d00f
:1043200003b05df804fb114bdb6d0193019b13f0af
:10433000700f0ad00c4b00221a735b68002befd071
:10434000094a916801209847eae7019b13f0010fa1
:10435000e6d0054b00221a735b68002be0d0024abe
:10436000916800209847dbe7500540200080074017
:020000040000fa
:020000040040ba
:10437000036813f0070201460bd0da0724d499072b
:104380004bbf5b089b08036003604cbf0120022009
:10439000704798b2b0b91b0c102013f0ff0f04bf88
:1043a0001b0a08301a0704bf1b0904309a0704bf10
:1043b0009b080230da0703d45b0800f1010005d046
:1043c0000b6070471046e8e70020704720207047d8
:020000040000fa
:020000040040ba
:1043d00038b5044600f078fb10b3204600f05efad2
:1043e0000546b0b14378b3b983680bb943688360bd
:1043f0000c4b93f82c3043b9284600f0f1f9002417
:104400002c756c7501236b7006e02846fff70cfcd9
:10441000f5e7012400e0002400f0b4fa204638bd9e
:084420000124fbe73c044020ed
:020000040000fa
:020000040040ba
:104428001149ca6822f4e0621204120c0f4b1343bc
:10443800cb60bff35f8f62b60d4be02283f80e238b
:104448004ff48041196083f813234ff40021196059
:1044580083f817234ff40001196083f83a234ff0cb
:1044680080625a60704700bf00ed00e00000fa0566
:0444780000e100e07f
:020000040000fa
:020000040040ba
:10447c000146134b1a6b0ab1824203d11346002238
:10448c0005e01a469369002b18bf9942f9d1abb1dc
:10449c0010b48b691bb18c689868204498603ab151
:1044ac008b699361002000238b615df8044b70478e
:1044bc00034b1a6b92691a630120f4e700207047d2
:0444cc003c0440204c
:020000040000fa
:020000040040ba
:1044d00070b582b0002b08bf00281bd00646cab1b9
:1044e0001d4610460c460e4bd9684ff47a720023d5
:1044f000a1fb000100f04efb009523463246014629
:104500000020fff765f80446b0f1ff3f04d0fff745
:104510005fff01e04ff0ff34204602b070bd00bfe6
:044520003c044020f7
:020000040000fa
:020000040040ba
:10452400431e13f1030f16d810f47f4f15d1c3b2f5
:104534000d4a9268934212d203eb43020a4bdb69a1
:1045440003ebc2031a6982420bd15a79002a08bfcd
:104554000023184670470023fbe70023f9e70023f4
:0c456400f7e70023f5e700bf000440204b
:020000040000fa
:020000040040ba
:10457000f0b482b0002401940e4c04eb0014247bb0
:10458000a4b90d4f07eb8015ec6d0194019c094e09
:1045900006eb00160124347329666a6623f07f4314
:1045a0002b6704fa00f0f861204600e0002002b01a
:0c45b000f0bc7047500540200080074020
:020000040000fa
:020000040040ba
:1045bc00f8b5074614460e4621b91146bde8f84039
:1045cc00fef7a6bf22b9fff793fa25462846f8bd99
:1045dc0000f04cfea0420fd221463846fef798ff61
:1045ec0005460028f2d03146224600f019fd31462e
:0c45fc003846fff77dfae9e73546e7e7af
:020000040000fa
:020000040040ba
:10460800431e13f1030f14d810f47f4f13d1c2b215
:104618000c4bdb689a4210d20a4b1b6903eb02135e
:10462800da6882420bd1da78002a08bf00231846dc
:1046380070470023fbe70023f9e70023f7e700238f
:08464800f5e700bf100340205c
:020000040000fa
:020000040040ba
:1046500070b50d4d0d4c641ba4100026a64209d167
:104660000b4d0c4cfbf780fd641ba4100026a642ea
:1046700005d170bd55f8043b98470136eee755f873
:10468000043b98470136f2e7740140007401400092
:084690007401400078014000b4
:020000040000fa
:020000040040ba
:1046980038b5044600f076fd002c16db63090c499a
:1046a80051f8235004f01f04e54005f001050122ec
:1046b80002fa04f4203341f82340bff34f8fbff3cd
:1046c8006f8f00f068fd284638bd0025f9e700bf68
:0446d80000e100e01d
:020000040000fa
:020000040040ba
:1046dc000eb410b59bb01dab019005906ff000416e
:1046ec000a48069103910a4953f8042b04910024bb
:1046fc0001a9006800931994fdf718fa019b1c702e
:10470c001bb0bde8104003b0704700bf98054020b7
:04471c000802ffff91
:020000040000fa
:020000040040ba
:1047200010b5054c237833b9044b13b10448aff3eb
:1047300000800123237010bd3405402000000000dc
:104740000000000008b5034b1bb103490348aff359
:10475000008008bd00000000380540200000000077
:020000040000fa
:020000040040ba
:104760000d4b4ff486721a6050221a604ff40c629f
:104770005a6051221a62094b00229a61da611a6268
:1047800083f82c205a621a605a609a601a75da60af
:1047900083f82d20704700bf00800240ac04402009
:020000040000fa
:020000040040ba
:1047a000c0b138b505460c4a92f82c200ab1002059
:1047b00038bd0c4600f060fa074b002283f82d202c
:1047c0009d61dc611a62012083f82c00034be12219
:1047d0009a60ede700207047ac0440200080024062
:020000040000fa
:020000040040ba
:1047e00038b505460d4c63689b6998476061606900
:1047f00000f08afb044600f0b5f9204600f0d0fb3b
:104800002846fff711fa00b938bdfff785f80446ce
:10481000fef72afe204600f0bffdf5e73c044020ed
:020000040000fa
:020000040040ba
:10482000020c12040346cab90304102013f07f4f90
:1048300004bf1b02083013f0704f04bf1b0104308b
:1048400013f0404f04bf9b000230002b05db13f038
:10485000804f00f1010008bf202070470020e5e7ed
:020000040000fa
:020000040040ba
:104860000c4b80221a6028221a60196901f07c51d1
:104870004bf2c0120a431a614ff080721a604ff473
:1048800040725a6204221a60034b00225a771a7748
:0c489000704700bf008001400c05402074
:020000040000fa
:020000040040ba
:10489c00431e13f1030f0fd883b2042b0ed80a4a10
:1048ac0002eb4312d26982420ad15a0106498a5c50
:1048bc0042b101eb43107047002070470020704755
:0c48cc0000207047002070477001402061
:020000040000fa
:020000040040ba
:1048d80010b5044600f0f4f8b0b12046fff7daff4f
:1048e800044678b1437843b900202075607520707c
:1048f800044600f043f8204610bdfff7bbfd002337
:0c4908006370f1e70124f4e70124f4e7f8
:020000040000fa
:020000040040ba
:104914000c4b5b6913f4803f01d0002900dc704725
:1049240000f01f021144bff34f8f064a0144c2f83e
:104934005c0220300b1a002bf9dcbff34f8fbff35e
:084944006f8fece700ed00e0cd
:020000040000fa
:020000040040ba
:10494c000c4b5b6913f4803f01d0002900dc7047ed
:10495c0000f01f021144bff34f8f064a0144c2f806
:10496c00680220300b1a002bf9dcbff34f8fbff31a
:08497c006f8fece700ed00e095
:020000040000fa
:020000040040ba
:104984000b4b93f90830002b08db590903f01f0384
:10499400012202fa03f3074a42f82130044b93f848
:1049a4002c301bb9024b012283f83420704700bf1e
:0849b4003c04402000e100e09a
:020000040000fa
:020000040040ba
:1049bc00a44c4000010000006005402000ff0000f6
:1049cc001c800240000000003c514000cc504000d4
:1049dc005c53400050534000050000001002402082
:0849ec00d84f40000300000059
:020000040000fa
:020000040040ba
:1049f400012800d07047084b1b688b4207d0074b37
:104a04001b688b42f6d1064b01221a70f2e7054b64
:104a140001221a70f3e700bf900540208c05402066
:084a2400ab054020aa0540206b
:020000040000fa
:020000040040ba
:104a2c00f8b50f461646fff777fd50b105460068fe
:104a3c00c0eb0010064c04eb80042046fff7a6f8f0
:104a4c0000b9f8bdaf60ee602046fff784faf8e7d6
:044a5c0000044020f2
:020000040000fa
:020000040040ba
:104a6000f8b50f461646fff7cffd48b10546048856
:104a7000074b582202fb04342046fef7aaf900b97e
:104a8000f8bd6f60ae602046fef788faf8e700bf19
:044a900010034020af
:020000040000fa
:020000040040ba
:104a94000a4a022313770a494b6843f480534b6054
:104aa4001369012b07d0064b01221a6062b6044b2e
:104ab40003225a62704703220a60f7e70c0540207c
:044ac400008001402d
:020000040000fa
:020000040040ba
:104ac80008b50b4b93f82c3083b9094b93f8343065
:104ad800012b01d000200ae0054b002283f8342086
:104ae80093f90800fff7d4fd012000e0012008bd7c
:044af8003c0440201a
:020000040000fa
:020000040040ba
:104afc00884210b501eb020302d983421c4607d849
:104b0c00421e994208d011f8014b02f8014ff8e708
:104b1c0083189a1a9a4200d110bd14f8011d03f89b
:044b2c00011df7e789
:020000040000fa
:020000040040ba
:104b300003690a699b1a30b50cd192001430143104
:104b40008418114454f8045d51f8042d954203d0a3
:104b500005d30123184630bda042f3d3fae74ff046
:044b6000ff33f7e741
:020000040000fa
:020000040040ba
:104b64000a4b1b6b73b168b1002105e09a68801a87
:104b740099609b6933b128b19a688242f6d39a68e6
:104b8400101a9860014b5a691a6170473c0440201e
:020000040000fa
:020000040040ba
:104b940053b94ab9002908bf00281cbf4ff0ff31a0
:104ba4004ff0ff3000f010b9adf1080c6de904ce00
:104bb400fcf754fcddf804e0dde9022304b070479f
:020000040000fa
:020000040040ba
:104bc40070b5446a06460d463cb9102000f04afb15
:104bd400c0e9014470620460c4603db1736a6a68ec
:0e4be400db6853f82210296043f8225070bda0
:020000040000fa
:020000040040ba
:024bf20070470a
:020000040000fa
:020000040040ba
:104bf40008b5094b1b7f5bb20bb1002008bd064b07
:104c0400188099601a6100225a60da605a7701218b
:0c4c1400fef730fe0120f1e70c05402007
:020000040000fa
:020000040040ba
:104c2000094b1b7f5bb20bb10020704710b50c46df
:104c3000054b18800021996019615c60da60597732
:0c4c4000fef71afe012010bd0c054020fc
:020000040000fa
:020000040040ba
:104c4c0010b5094c247f64b20cb1002010bd064c89
:104c5c002080a360029b23616160e2600021617788
:0c4c6c00fef704fe0120f1e70c054020db
:020000040000fa
:020000040040ba
:104c7800094b5b6913f0e00f0dd0074b4ff48072be
:104c88001a605b6913f0010f05d0034b9a695a69e2
:0c4c980012f0010ffad1704700800240ba
:020000040000fa
:020000040040ba
:104ca40009534000a14740002153400039534000bc
:104cb4007d4d4000fd5240006541400015534000c9
:0c4cc4002d53400015514000b93c400049
:020000040000fa
:020000040040ba
:104cd000074a136843b10749184488428cbf4ff014
:104ce000ff33106018467047034b1360f3e700bfb3
:0c4cf000a4054020b0074020b005402083
:020000040000fa
:020000040040ba
:104cfc0010b5044643685b6a984730b9002301221b
:104d0c0019462046fdf772ff10bd03464ff0ff32e7
:0a4d1c0000212046fdf76afff6e7cc
:020000040000fa
:020000040040ba
:104d260010b50c4610b1012807d010bd0023012292
:104d360019462046fdf75dfff7e700234ff0ff32e7
:0a4d460019462046fdf755ffefe780
:020000040000fa
:020000040040ba
:104d500010b50c4610b1012807d010bd0023012268
:104d600011462046fdf748fff7e700234ff0ff32da
:0a4d700001212046fdf740ffefe7a8
:020000040000fa
:020000040040ba
:024d7a00704780
:020000040000fa
:020000040040ba
:104d7c00074b93f82c3043b1064be122da60044b1d
:104d8c00002283f82c201a62da610120704700bfe0
:084d9c00ac044020008002403d
:020000040000fa
:020000040040ba
:104da400064b00225a609a601a73054a05499167b6
:104db400712111650121d16019707047500540209f
:084dc4000080074011400109c5
:020000040000fa
:020000040040ba
:044dcc00704700bf6d
:020000040000fa
:020000040040ba
:104dd0000080e03779c34143176e05b5b5b89346f7
:104de000f5f93fe9034f384d321d30f94877825ac3
:084df0003cbf737fdd4f157518
:020000040000fa
:020000040040ba
:104df80008b5064b186a10f0140005d0044b1b6860
:104e080013b1034a5168984708bd00bf00c000406d
:044e18007c054020b5
:020000040000fa
:020000040040ba
:104e1c00b0f1ff3f06d0012808d1054b002283f8e2
:104e2c003e207047024b012283f83e20704700bfa2
:044e3c00c00340204f
:020000040000fa
:020000040040ba
:104e400082b001b901a942b14bb113780b6012785d
:104e5000101c18bf012002b070471046fbe76ff02e
:044e60000100f8e76e
:020000040000fa
:020000040040ba
:104e640001290ad000f12402436a2bb15969116067
:104e740000221a765a611a71704700f12002036aff
:024e8400f3e752
:020000040000fa
:020000040040ba
:104e8600303132333435363738394142434445467a
:104e96000030313233343536373839616263646510
:024ea6006600a4
:020000040000fa
:020000040040ba
:104ea800054b4ff440425a600022da6104215962ee
:104eb800024b1a60704700bf00c000407c054020cc
:020000040000fa
:020000040040ba
:104ec80010b4012202fa00f4044b1c6203eb8013b5
:104ed800996710465df8044b704700bf0080074093
:020000040000fa
:020000040040ba
:104ee800002800db01b97047420900f01f000123c8
:104ef80003fa00f0014b43f82200f4e700e100e078
:020000040000fa
:020000040040ba
:104f0800064b1b69834203d2044b1b69c01a7047c6
:104f1800024b1b69c3f58033184470473c0440209a
:020000040000fa
:020000040040ba
:104f280010b50446fff7d6fb034bc2b2214603482f
:104f3800006800f054f910bd900540208805402015
:020000040000fa
:020000040040ba
:104f480038b5064c0023054608462360fff7bcfe2b
:104f5800431c02d1236803b12b6038bd00004020f8
:020000040000fa
:020000040040ba
:104f680041b110b50c46fff7d9fa28b12268426161
:0c4f7800012010bd002070470020fae767
:020000040000fa
:020000040040ba
:104f840010b584b004240394089c0294079c0194f3
:0c4f9400069c0094fcf7defc04b010bd8d
:020000040000fa
:020000040040ba
:104fa000054a536a18445062834200d87047936a96
:0c4fb00001339362fae700bf3c0440208c
:020000040000fa
:020000040040ba
:104fbc00b4504000dc04402002000000020000005d
:0c4fcc006803402028514000801a0600b5
:020000040000fa
:020000040040ba
:104fd800010000003a00000000000000000000008e
:0c4fe800000000000000000000000000bd
:020000040000fa
:020000040040ba
:104ff400f1524000b5524000c1524000b15340004c
:0c500400cd524000d9524000e55240005f
:020000040000fa
:020000040040ba
:10501000044b012283f83620034a936b83f020036c
:0c5020009363704774044020000e0e40a3
:020000040000fa
:020000040040ba
:10502c000a44914200f1ff3300d1704710b511f8da
:0c503c00014b03f8014f9142f9d110bd67
:020000040000fa
:020000040040ba
:1050480038b502fb01f42146fef764fa054618b1ab
:0c5058002246002100f0f4f8284638bd84
:020000040000fa
:020000040040ba
:1050640010b584b002240394069c02940024019495
:0a5074000094fcf76ffc04b010bdbf
:020000040000fa
:020000040040ba
:10507e0038b50d46c4b2204600f05df920f4c0519b
:0a508e0029432046fff719ff38bd43
:020000040000fa
:020000040040ba
:1050980049b1ff2a85bf8a2303600a704ff0ff30a9
:0a50a80098bf0120704708467047ca
:020000040000fa
:020000040040ba
:1050b400f54b4000214c40004d4c4000295240002b
:0850c400cd3d400019524000ef
:020000040000fa
:020000040040ba
:1050cc0000080000000000000002000000060000c4
:0850dc0000040000000c0000bc
:020000040000fa
:020000040040ba
:1050e400034b00221a70034b01221a70704700bf51
:0850f40074044020aa054020cd
:020000040000fa
:020000040040ba
:1050fc0054656d7065726174757265203d20256410
:08510c0020460d0a000000bf5f
:020000040000fa
:020000040040ba
:10511400034b93f82d00002283f82d20704700bf25
:04512400ac04402077
:020000040000fa
:020000040040ba
:105128000100000013000000000000000000000063
:045138000000000073
:020000040000fa
:020000040040ba
:10513c00000000004000000080000000c0000000e3
:04514c00000002005d
:020000040000fa
:020000040040ba
:10515000012800d07047024b012283f83520f9e77f
:045160007404402073
:020000040000fa
:020000040040ba
:10516400034b83f83b00012283f83d20704700bfc6
:04517400c003402014
:020000040000fa
:020000040040ba
:10517800454550524f4d3a002564467c00000000da
:045188000d0a00000c
:020000040000fa
:020000040040ba
:10518c00eff3108072b6bff35f8fb0fa80f0400976
:02519c0070475a
:020000040000fa
:020000040040ba
:10519e0018b1bff35f8f62b6704772b6bff35f8f01
:0251ae00704748
:020000040000fa
:020000040040ba
:1051b000494e4600696e66004e414e006e616e00bb
:0251c0003000bd
:020000040000fa
:020000040040ba
:1051c20010b50c460121fff76ef80122446102611d
:0251d20010bd0e
:020000040000fa
:020000040040ba
:1051d400232d302b2000686c4c00656667454647dc
:0151e40000ca
:020000040000fa
:020000040040ba
:1051e60010b582b001240094fcf7edff02b010bdab
:020000040000fa
:020000040040ba
:1051f60010b582b000240094fcf7e5ff02b010bda4
:020000040000fa
:020000040040ba
:10520800014b024a1a607047000c0e400006000469
:020000040000fa
:020000040040ba
:1052180010b1024b18625962704700bf0c0540205c
:020000040000fa
:020000040040ba
:10522800024b587f00225a77704700bf0c05402078
:020000040000fa
:020000040040ba
:10523800024b03eb0010416082607047500540202c
:020000040000fa
:020000040040ba
:1052480002440346934200d1704703f8011bf9e773
:020000040000fa
:020000040040ba
:10525800034613f8012b002afbd1181a01387047ae
